{
  "_format": "hh-sol-artifact-1",
  "contractName": "TreasureGuardian",
  "sourceName": "contracts/TreasureGuardian.sol",
  "abi": [
    {
      "inputs": [],
      "stateMutability": "nonpayable",
      "type": "constructor"
    },
    {
      "anonymous": false,
      "inputs": [
        {
          "indexed": true,
          "internalType": "address",
          "name": "previousOwner",
          "type": "address"
        },
        {
          "indexed": true,
          "internalType": "address",
          "name": "newOwner",
          "type": "address"
        }
      ],
      "name": "OwnershipTransferred",
      "type": "event"
    },
    {
      "anonymous": false,
      "inputs": [
        {
          "indexed": false,
          "internalType": "address",
          "name": "to",
          "type": "address"
        },
        {
          "indexed": false,
          "internalType": "uint256[]",
          "name": "ids",
          "type": "uint256[]"
        },
        {
          "indexed": false,
          "internalType": "uint256[]",
          "name": "missingIds",
          "type": "uint256[]"
        }
      ],
      "name": "onStuffTransferedTo",
      "type": "event"
    },
    {
      "inputs": [
        {
          "internalType": "uint256",
          "name": "amount",
          "type": "uint256"
        }
      ],
      "name": "buyChest",
      "outputs": [],
      "stateMutability": "nonpayable",
      "type": "function"
    },
    {
      "inputs": [],
      "name": "chestPrice",
      "outputs": [
        {
          "internalType": "uint256",
          "name": "",
          "type": "uint256"
        }
      ],
      "stateMutability": "view",
      "type": "function"
    },
    {
      "inputs": [],
      "name": "guardianStuff",
      "outputs": [
        {
          "internalType": "contract GuardianStuff",
          "name": "",
          "type": "address"
        }
      ],
      "stateMutability": "view",
      "type": "function"
    },
    {
      "inputs": [],
      "name": "guardianToken",
      "outputs": [
        {
          "internalType": "contract GuardianToken",
          "name": "",
          "type": "address"
        }
      ],
      "stateMutability": "view",
      "type": "function"
    },
    {
      "inputs": [
        {
          "internalType": "address",
          "name": "guardianTokenAddr",
          "type": "address"
        },
        {
          "internalType": "address",
          "name": "guardianStuffAddr",
          "type": "address"
        }
      ],
      "name": "initialize",
      "outputs": [],
      "stateMutability": "nonpayable",
      "type": "function"
    },
    {
      "inputs": [
        {
          "internalType": "uint8",
          "name": "dropRateCommon",
          "type": "uint8"
        },
        {
          "internalType": "uint8",
          "name": "dropRateUncommon",
          "type": "uint8"
        },
        {
          "internalType": "uint8",
          "name": "dropRateRare",
          "type": "uint8"
        },
        {
          "internalType": "uint8",
          "name": "dropRateEpic",
          "type": "uint8"
        },
        {
          "internalType": "uint8",
          "name": "dropRateLegendary",
          "type": "uint8"
        }
      ],
      "name": "modifyDropRate",
      "outputs": [],
      "stateMutability": "nonpayable",
      "type": "function"
    },
    {
      "inputs": [
        {
          "internalType": "address",
          "name": "",
          "type": "address"
        },
        {
          "internalType": "address",
          "name": "",
          "type": "address"
        },
        {
          "internalType": "uint256[]",
          "name": "",
          "type": "uint256[]"
        },
        {
          "internalType": "uint256[]",
          "name": "",
          "type": "uint256[]"
        },
        {
          "internalType": "bytes",
          "name": "",
          "type": "bytes"
        }
      ],
      "name": "onERC1155BatchReceived",
      "outputs": [
        {
          "internalType": "bytes4",
          "name": "",
          "type": "bytes4"
        }
      ],
      "stateMutability": "nonpayable",
      "type": "function"
    },
    {
      "inputs": [
        {
          "internalType": "address",
          "name": "",
          "type": "address"
        },
        {
          "internalType": "address",
          "name": "",
          "type": "address"
        },
        {
          "internalType": "uint256",
          "name": "",
          "type": "uint256"
        },
        {
          "internalType": "uint256",
          "name": "",
          "type": "uint256"
        },
        {
          "internalType": "bytes",
          "name": "",
          "type": "bytes"
        }
      ],
      "name": "onERC1155Received",
      "outputs": [
        {
          "internalType": "bytes4",
          "name": "",
          "type": "bytes4"
        }
      ],
      "stateMutability": "nonpayable",
      "type": "function"
    },
    {
      "inputs": [],
      "name": "openChest",
      "outputs": [
        {
          "internalType": "uint256[]",
          "name": "ids",
          "type": "uint256[]"
        }
      ],
      "stateMutability": "nonpayable",
      "type": "function"
    },
    {
      "inputs": [],
      "name": "owner",
      "outputs": [
        {
          "internalType": "address",
          "name": "",
          "type": "address"
        }
      ],
      "stateMutability": "view",
      "type": "function"
    },
    {
      "inputs": [],
      "name": "renounceOwnership",
      "outputs": [],
      "stateMutability": "nonpayable",
      "type": "function"
    },
    {
      "inputs": [
        {
          "internalType": "address",
          "name": "guardianAddress",
          "type": "address"
        },
        {
          "internalType": "uint256",
          "name": "amount",
          "type": "uint256"
        }
      ],
      "name": "rewardGuardianWithToken",
      "outputs": [],
      "stateMutability": "nonpayable",
      "type": "function"
    },
    {
      "inputs": [
        {
          "internalType": "address",
          "name": "from",
          "type": "address"
        },
        {
          "internalType": "address",
          "name": "to",
          "type": "address"
        },
        {
          "internalType": "uint256",
          "name": "id",
          "type": "uint256"
        },
        {
          "internalType": "uint256",
          "name": "amount",
          "type": "uint256"
        },
        {
          "internalType": "bytes",
          "name": "data",
          "type": "bytes"
        }
      ],
      "name": "safeTransferFrom",
      "outputs": [],
      "stateMutability": "nonpayable",
      "type": "function"
    },
    {
      "inputs": [
        {
          "internalType": "bytes4",
          "name": "interfaceId",
          "type": "bytes4"
        }
      ],
      "name": "supportsInterface",
      "outputs": [
        {
          "internalType": "bool",
          "name": "",
          "type": "bool"
        }
      ],
      "stateMutability": "view",
      "type": "function"
    },
    {
      "inputs": [
        {
          "internalType": "address",
          "name": "newOwner",
          "type": "address"
        }
      ],
      "name": "transferOwnership",
      "outputs": [],
      "stateMutability": "nonpayable",
      "type": "function"
    }
  ],
  "bytecode": "0x608060405268015af1d78b58c4000060035560058060006101000a81548160ff021916908360ff160217905550603c600560016101000a81548160ff021916908360ff1602179055506019600560026101000a81548160ff021916908360ff160217905550600a600560036101000a81548160ff021916908360ff1602179055506004600560046101000a81548160ff021916908360ff16021790555060016005806101000a81548160ff021916908360ff160217905550348015620000c457600080fd5b50620000e5620000d96200010760201b60201c565b6200010f60201b60201c565b6200010167f5a0432ed57b872260c01b620001d360201b60201c565b620001d6565b600033905090565b60008060009054906101000a900473ffffffffffffffffffffffffffffffffffffffff169050816000806101000a81548173ffffffffffffffffffffffffffffffffffffffff021916908373ffffffffffffffffffffffffffffffffffffffff1602179055508173ffffffffffffffffffffffffffffffffffffffff168173ffffffffffffffffffffffffffffffffffffffff167f8be0079c531659141344cd1fd0a4f28419497f9722a3daafe3b4186f6b6457e060405160405180910390a35050565b50565b6136fc80620001e66000396000f3fe608060405234801561001057600080fd5b50600436106100f55760003560e01c80638da5cb5b11610097578063f23a6e6111610066578063f23a6e611461024c578063f242432a1461027c578063f2fde38b14610298578063fa180dc9146102b4576100f5565b80638da5cb5b146101c4578063ae196ec8146101e2578063bc197c81146101fe578063f15473041461022e576100f5565b80634e192548116100d35780634e192548146101645780636f49a3c014610180578063715018a61461019e578063829a826a146101a8576100f5565b806301ffc9a7146100fa578063444e56ed1461012a578063485cc95514610148575b600080fd5b610114600480360381019061010f91906123d1565b6102d2565b6040516101219190612419565b60405180910390f35b61013261034c565b60405161013f919061244d565b60405180910390f35b610162600480360381019061015d91906124c6565b610352565b005b61017e60048036038101906101799190612532565b610444565b005b610188610914565b604051610195919061261d565b60405180910390f35b6101a661106a565b005b6101c260048036038101906101bd9190612678565b61107e565b005b6101cc611275565b6040516101d99190612702565b60405180910390f35b6101fc60048036038101906101f7919061271d565b61129e565b005b6102186004803603810190610213919061296b565b6114dc565b6040516102259190612a49565b60405180910390f35b6102366114f1565b6040516102439190612ac3565b60405180910390f35b61026660048036038101906102619190612ade565b611517565b6040516102739190612a49565b60405180910390f35b61029660048036038101906102919190612ade565b61152c565b005b6102b260048036038101906102ad9190612b75565b611634565b005b6102bc6116b7565b6040516102c99190612bc3565b60405180910390f35b60007f4e2312e0000000000000000000000000000000000000000000000000000000007bffffffffffffffffffffffffffffffffffffffffffffffffffffffff1916827bffffffffffffffffffffffffffffffffffffffffffffffffffffffff191614806103455750610344826116dd565b5b9050919050565b60035481565b6103666725a277a9aca249e460c01b611747565b61036e61174a565b61038267e6c3e3b7aa4a3d7760c01b611747565b6103966743d91e4bbb6fc74460c01b611747565b6103aa6733c7e3ec42f2e3c360c01b611747565b81600260006101000a81548173ffffffffffffffffffffffffffffffffffffffff021916908373ffffffffffffffffffffffffffffffffffffffff1602179055506103ff674c48c240c2bbe53c60c01b611747565b80600160006101000a81548173ffffffffffffffffffffffffffffffffffffffff021916908373ffffffffffffffffffffffffffffffffffffffff1602179055505050565b61045867ab46bf908678e38660c01b611747565b61046c67602e46af16ab5a9b60c01b611747565b61048067fbab76020f28833260c01b611747565b6000600160009054906101000a900473ffffffffffffffffffffffffffffffffffffffff1673ffffffffffffffffffffffffffffffffffffffff1663ea2a17306040518163ffffffff1660e01b8152600401602060405180830381865afa1580156104ef573d6000803e3d6000fd5b505050506040513d601f19601f820116820180604052508101906105139190612bf3565b905061052967f929e5911bc98ee660c01b611747565b61053d67f76e5387ebe48f9960c01b611747565b61055167ca8957557184a42960c01b611747565b81600160009054906101000a900473ffffffffffffffffffffffffffffffffffffffff1673ffffffffffffffffffffffffffffffffffffffff1662fdd58e30846040518363ffffffff1660e01b81526004016105ae929190612c51565b602060405180830381865afa1580156105cb573d6000803e3d6000fd5b505050506040513d601f19601f820116820180604052508101906105ef9190612c8f565b1161062f576040517f08c379a000000000000000000000000000000000000000000000000000000000815260040161062690612d3f565b60405180910390fd5b6106436707bd53429c66189d60c01b611747565b61065767e26c6d01ede51a8660c01b611747565b61066b67e73cc72d42c4819760c01b611747565b61067f673b333634cef0a35760c01b611747565b8160035461068d9190612d8e565b600260009054906101000a900473ffffffffffffffffffffffffffffffffffffffff1673ffffffffffffffffffffffffffffffffffffffff166370a08231336040518263ffffffff1660e01b81526004016106e89190612702565b602060405180830381865afa158015610705573d6000803e3d6000fd5b505050506040513d601f19601f820116820180604052508101906107299190612c8f565b11610769576040517f08c379a000000000000000000000000000000000000000000000000000000000815260040161076090612e42565b60405180910390fd5b61077d670475c9ef4ca4d29860c01b611747565b61079167ca5e350fcd548edb60c01b611747565b6107a5674ceb33ff3af7c97d60c01b611747565b600260009054906101000a900473ffffffffffffffffffffffffffffffffffffffff1673ffffffffffffffffffffffffffffffffffffffff166323b872dd3330856003546107f39190612d8e565b6040518463ffffffff1660e01b815260040161081193929190612e62565b6020604051808303816000875af1158015610830573d6000803e3d6000fd5b505050506040513d601f19601f820116820180604052508101906108549190612ec5565b5061086967a6a38e26df605fc060c01b611747565b61087d67b6cd19361797261560c01b611747565b600160009054906101000a900473ffffffffffffffffffffffffffffffffffffffff1673ffffffffffffffffffffffffffffffffffffffff1663f242432a303384866040518563ffffffff1660e01b81526004016108de9493929190612f29565b600060405180830381600087803b1580156108f857600080fd5b505af115801561090c573d6000803e3d6000fd5b505050505050565b606061092a67d8b778ae0cf19d2660c01b611747565b61093e67c93e0a1850eeee8160c01b611747565b61095267bc902a4d6637a95d60c01b611747565b6000600160009054906101000a900473ffffffffffffffffffffffffffffffffffffffff1673ffffffffffffffffffffffffffffffffffffffff1663ea2a17306040518163ffffffff1660e01b8152600401602060405180830381865afa1580156109c1573d6000803e3d6000fd5b505050506040513d601f19601f820116820180604052508101906109e59190612bf3565b90506109fb67592f414ff45e31dc60c01b611747565b610a0f6707cc2476d7f2395e60c01b611747565b610a2367f5eaa7c9aa7cf09760c01b611747565b6000600160009054906101000a900473ffffffffffffffffffffffffffffffffffffffff1673ffffffffffffffffffffffffffffffffffffffff1662fdd58e33846040518363ffffffff1660e01b8152600401610a81929190612c51565b602060405180830381865afa158015610a9e573d6000803e3d6000fd5b505050506040513d601f19601f82011682018060405250810190610ac29190612c8f565b11610b02576040517f08c379a0000000000000000000000000000000000000000000000000000000008152600401610af990612ff3565b60405180910390fd5b610b16678d89c92b9029b7b460c01b611747565b610b2a674c71aaf92a56d98d60c01b611747565b610b3e67fccc6b84e9a54dfd60c01b611747565b6000600560009054906101000a900460ff1660ff1667ffffffffffffffff811115610b6c57610b6b612773565b5b604051908082528060200260200182016040528015610b9a5781602001602082028036833780820191505090505b509050610bb167a636f94c87f9958560c01b611747565b610bc567baa69b912e4dc57560c01b611747565b6000600560009054906101000a900460ff1660ff1667ffffffffffffffff811115610bf357610bf2612773565b5b604051908082528060200260200182016040528015610c215781602001602082028036833780820191505090505b509050610c38675ff5fa4ee222bc9e60c01b611747565b610c4c677a36aa5dd11040a360c01b611747565b60005b600560009054906101000a900460ff1660ff16811015610f1957610c7d675cee07b7123966c160c01b611747565b610c9167af81014625119a9560c01b611747565b6000610c9b6117c8565b9050610cb167dfc291b0aab4a66060c01b611747565b610cc567cd49055b829daea160c01b611747565b6000600160009054906101000a900473ffffffffffffffffffffffffffffffffffffffff1673ffffffffffffffffffffffffffffffffffffffff1662fdd58e30846040518363ffffffff1660e01b8152600401610d23929190613013565b602060405180830381865afa158015610d40573d6000803e3d6000fd5b505050506040513d601f19601f82011682018060405250810190610d649190612c8f565b9050610d7a67fdd0c594483a08d960c01b611747565b610d8e67cfae4fff0d3b2e0d60c01b611747565b6000811115610ea057610dab676a49b7957ebdf15b60c01b611747565b610dbf67e133695f688deb4860c01b611747565b81858481518110610dd357610dd261303c565b5b602002602001018181525050610df3671b933c2b05060a9d60c01b611747565b610e0767bd156823450f46b460c01b611747565b600160009054906101000a900473ffffffffffffffffffffffffffffffffffffffff1673ffffffffffffffffffffffffffffffffffffffff1663f242432a30338560016040518563ffffffff1660e01b8152600401610e6994939291906130a6565b600060405180830381600087803b158015610e8357600080fd5b505af1158015610e97573d6000803e3d6000fd5b50505050610f03565b610eb467ab31824fb0edddf460c01b611747565b610ec86788a5009948d3028760c01b611747565b81848481518110610edc57610edb61303c565b5b602002602001018181525050610efc6747d78f30a919f74f60c01b611747565b5050610f06565b50505b8080610f11906130fe565b915050610c4f565b50610f2e67a03e28e91dea6b3e60c01b611747565b610f4267297f9dafbd71834d60c01b611747565b600160009054906101000a900473ffffffffffffffffffffffffffffffffffffffff1673ffffffffffffffffffffffffffffffffffffffff1663f242432a33308660016040518563ffffffff1660e01b8152600401610fa49493929190613146565b600060405180830381600087803b158015610fbe57600080fd5b505af1158015610fd2573d6000803e3d6000fd5b50505050610fea671f48dff3fb8eccc860c01b611747565b610ffe67d4b2f5668507a6a660c01b611747565b7f1ab84bce784ba927df23bef9279723d9bbad6dec82728fb92e2aebfac01f666d3383836040516110319392919061319e565b60405180910390a161104d674637f015dd52cd7360c01b611747565b61106167b193886e4fa5322560c01b611747565b81935050505090565b61107261174a565b61107c60006121ee565b565b6110926763513375fad11e3d60c01b611747565b61109a61174a565b6110ae676282bd2c9c1de11460c01b611747565b6110c2673e91aeeb042452ca60c01b611747565b6110d667c1e92c4c5cc201ae60c01b611747565b6110ea67e28b6dde5b178e1260c01b611747565b6110fe6799db6212ed6c927660c01b611747565b6064818385878961110f91906131e3565b61111991906131e3565b61112391906131e3565b61112d91906131e3565b60ff1614611170576040517f08c379a00000000000000000000000000000000000000000000000000000000081526004016111679061328a565b60405180910390fd5b61118467bc05811d7ac5d81160c01b611747565b611198678cbda42f2be8204e60c01b611747565b84600560016101000a81548160ff021916908360ff1602179055506111c76794c5b025b307173460c01b611747565b83600560026101000a81548160ff021916908360ff1602179055506111f66777f86a9579df466c60c01b611747565b82600560036101000a81548160ff021916908360ff16021790555061122567b560b8b4cd73c3d660c01b611747565b81600560046101000a81548160ff021916908360ff16021790555061125467c00acb3d65a732b660c01b611747565b806005806101000a81548160ff021916908360ff1602179055505050505050565b60008060009054906101000a900473ffffffffffffffffffffffffffffffffffffffff16905090565b6112b267f1b021b8013669d960c01b611747565b6112ba61174a565b6112ce67e6d59d1419b099d660c01b611747565b6112e2677f00511073a0e1db60c01b611747565b6112f667595b3740aaeffaae60c01b611747565b61130a677ff3140df2fa311560c01b611747565b61131e67e4074369381b718f60c01b611747565b80600260009054906101000a900473ffffffffffffffffffffffffffffffffffffffff1673ffffffffffffffffffffffffffffffffffffffff166370a08231306040518263ffffffff1660e01b815260040161137a9190612702565b602060405180830381865afa158015611397573d6000803e3d6000fd5b505050506040513d601f19601f820116820180604052508101906113bb9190612c8f565b116113fb576040517f08c379a00000000000000000000000000000000000000000000000000000000081526004016113f29061331c565b60405180910390fd5b61140f67631024d7fd71d14f60c01b611747565b61142367cec5b123ecb7440e60c01b611747565b61143767102c4e9ed0bc27a460c01b611747565b600260009054906101000a900473ffffffffffffffffffffffffffffffffffffffff1673ffffffffffffffffffffffffffffffffffffffff1663a9059cbb83836040518363ffffffff1660e01b8152600401611494929190613013565b6020604051808303816000875af11580156114b3573d6000803e3d6000fd5b505050506040513d601f19601f820116820180604052508101906114d79190612ec5565b505050565b600063bc197c8160e01b905095945050505050565b600160009054906101000a900473ffffffffffffffffffffffffffffffffffffffff1681565b600063f23a6e6160e01b905095945050505050565b61154067877e9a96bcc74cb460c01b611747565b61154861174a565b61155c67633e687b1edb52ec60c01b611747565b6115706703bf52cac4364eea60c01b611747565b611584672cf0ba72597222cc60c01b611747565b611598671e9e773e7088248b60c01b611747565b600160009054906101000a900473ffffffffffffffffffffffffffffffffffffffff1673ffffffffffffffffffffffffffffffffffffffff1663f242432a86868686866040518663ffffffff1660e01b81526004016115fb9594939291906133aa565b600060405180830381600087803b15801561161557600080fd5b505af1158015611629573d6000803e3d6000fd5b505050505050505050565b61163c61174a565b600073ffffffffffffffffffffffffffffffffffffffff168173ffffffffffffffffffffffffffffffffffffffff16036116ab576040517f08c379a00000000000000000000000000000000000000000000000000000000081526004016116a290613476565b60405180910390fd5b6116b4816121ee565b50565b600260009054906101000a900473ffffffffffffffffffffffffffffffffffffffff1681565b60007f01ffc9a7000000000000000000000000000000000000000000000000000000007bffffffffffffffffffffffffffffffffffffffffffffffffffffffff1916827bffffffffffffffffffffffffffffffffffffffffffffffffffffffff1916149050919050565b50565b6117526122b2565b73ffffffffffffffffffffffffffffffffffffffff16611770611275565b73ffffffffffffffffffffffffffffffffffffffff16146117c6576040517f08c379a00000000000000000000000000000000000000000000000000000000081526004016117bd906134e2565b60405180910390fd5b565b60006117de6719cc4ac858fdbe1b60c01b611747565b6117f26715a6cfd0de806f6260c01b611747565b61180667569d3775086981bc60c01b611747565b60006118106122ba565b905061182667e62b387536422cf260c01b611747565b61183a6712c22b050c4b98a260c01b611747565b6000611850675184355fd72240df60c01b611747565b611864671cc8c9d0b58f8e9860c01b611747565b600560019054906101000a900460ff1660ff168210156118af576118926726475625ab656fe960c01b611747565b6118a6677f6bf41ed7274f3d60c01b611747565b60009050611c90565b6118c367bafe70e019d8dc2a60c01b611747565b6118d767119ca99b0ebaff4760c01b611747565b600560019054906101000a900460ff1660ff1682101580156119245750600560029054906101000a900460ff16600560019054906101000a900460ff1661191e91906131e3565b60ff1682105b1561195a5761193d671808d9a65b5e0d2460c01b611747565b61195167dac35fd9959cbd1d60c01b611747565b60019050611c8f565b61196e679b12a5160fd73cad60c01b611747565b6119826721d471e1d80b40a760c01b611747565b600560029054906101000a900460ff16600560019054906101000a900460ff166119ac91906131e3565b60ff168210158015611a035750600560039054906101000a900460ff16600560029054906101000a900460ff16600560019054906101000a900460ff166119f391906131e3565b6119fd91906131e3565b60ff1682105b15611a3957611a1c6782efc3e29515e4ec60c01b611747565b611a30671eb3cde20e4e12fa60c01b611747565b60029050611c8e565b611a4d67ee59a35abb51f9d760c01b611747565b611a6167c34a47d2b1ec9cc460c01b611747565b600560039054906101000a900460ff16600560029054906101000a900460ff16600560019054906101000a900460ff16611a9b91906131e3565b611aa591906131e3565b60ff168210158015611b165750600560049054906101000a900460ff16600560039054906101000a900460ff16600560029054906101000a900460ff16600560019054906101000a900460ff16611afc91906131e3565b611b0691906131e3565b611b1091906131e3565b60ff1682105b15611b4c57611b2f67daa23a5f744a86a360c01b611747565b611b4367d9de11bd5ebcb7f060c01b611747565b60039050611c8d565b611b60674138f0ffcfc9b72e60c01b611747565b611b74678bcb1e60dd40732060c01b611747565b600560049054906101000a900460ff16600560039054906101000a900460ff16600560029054906101000a900460ff16600560019054906101000a900460ff16611bbe91906131e3565b611bc891906131e3565b611bd291906131e3565b60ff168210158015611c41575060058054906101000a900460ff16600560039054906101000a900460ff16600560029054906101000a900460ff16600560019054906101000a900460ff16611c2791906131e3565b611c3191906131e3565b611c3b91906131e3565b60ff1682105b15611c7757611c5a673db4241e8dab416d60c01b611747565b611c6e675011e6c25b7738b460c01b611747565b60049050611c8c565b611c8b6777a5b6b73d49125a60c01b611747565b5b5b5b5b5b611ca46737e6c3c92933878260c01b611747565b611cac6122ba565b9150611cc26795ee255fee66a5e660c01b611747565b611cd667c47f2b40960353de60c01b611747565b600060019050611cf0676a37398743a88af860c01b611747565b611d0467735740aed29260e060c01b611747565b6021831015611d3e57611d2167095afc7f1f3b604760c01b611747565b611d35671d8aec5406dfd88e60c01b611747565b60019050611e24565b611d526797aecac50b55923160c01b611747565b611d6667a97c8f172b9a0d6360c01b611747565b60218310158015611d775750604283105b15611dad57611d906784b90b3b10e5b41260c01b611747565b611da467e19bd14ada21d10560c01b611747565b60029050611e23565b611dc16747712a06ae4da0a360c01b611747565b611dd4660cb97e000ff4c760c01b611747565b60428310611e0d57611df0676a14bb71d22b10ec60c01b611747565b611e0467ec8314347a26d43b60c01b611747565b60039050611e22565b611e216768814c59ea602f9a60c01b611747565b5b5b5b611e3867fad7608f1eaec17260c01b611747565b611e4c67b952cfcd1cda504860c01b611747565b600060019050611e66678b86fd43f43c187960c01b611747565b611e7a671f8e72257f0c1ec760c01b611747565b600060019050611e946733bb052593852cdb60c01b611747565b611e9c6122ba565b9450611eb26719a486c29ea7387a60c01b611747565b611ec66726dfe420cb0984ef60c01b611747565b6011851015611f0057611ee36719f70f21a61dcc3460c01b611747565b611ef767e7a47a8cf073405c60c01b611747565b60019050612137565b611f1467d3262bf813adfa3960c01b611747565b611f286779766b07b940bed760c01b611747565b60118510158015611f395750602285105b15611f6f57611f5267e229d8243168250f60c01b611747565b611f6667437a980b686884bc60c01b611747565b60029050612136565b611f83678492acad79f05bd360c01b611747565b611f9767c6f3b33151b93eaf60c01b611747565b60228510158015611fa85750603385105b15611fde57611fc1671eafc9ec6f065ca960c01b611747565b611fd567de9790778cc71c9560c01b611747565b60039050612135565b611ff267fd4b8124994dea0060c01b611747565b6120066756be331b2fbdc67560c01b611747565b603385101580156120175750604485105b1561204d5761203067e68022a2e8c4f9b560c01b611747565b61204467647bc5f723edbb3460c01b611747565b60049050612134565b61206167ca4c393c131d38f460c01b611747565b612075672dd5aad29310227c60c01b611747565b604485101580156120865750605485105b156120bc5761209f6789d577c02487d78460c01b611747565b6120b367434949847ec706a860c01b611747565b60059050612133565b6120d0672ca90d7ebbefc45f60c01b611747565b6120e467cc3ab5beb845003260c01b611747565b6054851061211d57612100676242e858e94b06d760c01b611747565b61211467e58f55603d9cd55160c01b611747565b60069050612132565b612131677c9068564b9b99c060c01b611747565b5b5b5b5b5b5b61214b6765f898681bfefe7a60c01b611747565b61215f670fa7908d810f892260c01b611747565b60008460ff16600a836121729190613502565b60ff166064856121829190613502565b60ff166103e88760ff16612196919061354d565b6121a0919061358a565b6121aa919061358a565b6121b4919061358a565b61ffff1690506121ce67250993be99d685b560c01b611747565b6121e267943645982c9bc63660c01b611747565b80965050505050505090565b60008060009054906101000a900473ffffffffffffffffffffffffffffffffffffffff169050816000806101000a81548173ffffffffffffffffffffffffffffffffffffffff021916908373ffffffffffffffffffffffffffffffffffffffff1602179055508173ffffffffffffffffffffffffffffffffffffffff168173ffffffffffffffffffffffffffffffffffffffff167f8be0079c531659141344cd1fd0a4f28419497f9722a3daafe3b4186f6b6457e060405160405180910390a35050565b600033905090565b60006122d06748c65f368aabe2fc60c01b611747565b6122e467384b6b6781afc1d660c01b611747565b600460008154809291906122f7906130fe565b9190505550612310670b79da30eb55f5fa60c01b611747565b6123246736c74221b0517d1660c01b611747565b6064423360045460405160200161233d93929190613629565b6040516020818303038152906040528051906020012060001c6123609190613695565b905090565b6000604051905090565b600080fd5b600080fd5b60007fffffffff0000000000000000000000000000000000000000000000000000000082169050919050565b6123ae81612379565b81146123b957600080fd5b50565b6000813590506123cb816123a5565b92915050565b6000602082840312156123e7576123e661236f565b5b60006123f5848285016123bc565b91505092915050565b60008115159050919050565b612413816123fe565b82525050565b600060208201905061242e600083018461240a565b92915050565b6000819050919050565b61244781612434565b82525050565b6000602082019050612462600083018461243e565b92915050565b600073ffffffffffffffffffffffffffffffffffffffff82169050919050565b600061249382612468565b9050919050565b6124a381612488565b81146124ae57600080fd5b50565b6000813590506124c08161249a565b92915050565b600080604083850312156124dd576124dc61236f565b5b60006124eb858286016124b1565b92505060206124fc858286016124b1565b9150509250929050565b61250f81612434565b811461251a57600080fd5b50565b60008135905061252c81612506565b92915050565b6000602082840312156125485761254761236f565b5b60006125568482850161251d565b91505092915050565b600081519050919050565b600082825260208201905092915050565b6000819050602082019050919050565b61259481612434565b82525050565b60006125a6838361258b565b60208301905092915050565b6000602082019050919050565b60006125ca8261255f565b6125d4818561256a565b93506125df8361257b565b8060005b838110156126105781516125f7888261259a565b9750612602836125b2565b9250506001810190506125e3565b5085935050505092915050565b6000602082019050818103600083015261263781846125bf565b905092915050565b600060ff82169050919050565b6126558161263f565b811461266057600080fd5b50565b6000813590506126728161264c565b92915050565b600080600080600060a086880312156126945761269361236f565b5b60006126a288828901612663565b95505060206126b388828901612663565b94505060406126c488828901612663565b93505060606126d588828901612663565b92505060806126e688828901612663565b9150509295509295909350565b6126fc81612488565b82525050565b600060208201905061271760008301846126f3565b92915050565b600080604083850312156127345761273361236f565b5b6000612742858286016124b1565b92505060206127538582860161251d565b9150509250929050565b600080fd5b6000601f19601f8301169050919050565b7f4e487b7100000000000000000000000000000000000000000000000000000000600052604160045260246000fd5b6127ab82612762565b810181811067ffffffffffffffff821117156127ca576127c9612773565b5b80604052505050565b60006127dd612365565b90506127e982826127a2565b919050565b600067ffffffffffffffff82111561280957612808612773565b5b602082029050602081019050919050565b600080fd5b600061283261282d846127ee565b6127d3565b905080838252602082019050602084028301858111156128555761285461281a565b5b835b8181101561287e578061286a888261251d565b845260208401935050602081019050612857565b5050509392505050565b600082601f83011261289d5761289c61275d565b5b81356128ad84826020860161281f565b91505092915050565b600080fd5b600067ffffffffffffffff8211156128d6576128d5612773565b5b6128df82612762565b9050602081019050919050565b82818337600083830152505050565b600061290e612909846128bb565b6127d3565b90508281526020810184848401111561292a576129296128b6565b5b6129358482856128ec565b509392505050565b600082601f8301126129525761295161275d565b5b81356129628482602086016128fb565b91505092915050565b600080600080600060a086880312156129875761298661236f565b5b6000612995888289016124b1565b95505060206129a6888289016124b1565b945050604086013567ffffffffffffffff8111156129c7576129c6612374565b5b6129d388828901612888565b935050606086013567ffffffffffffffff8111156129f4576129f3612374565b5b612a0088828901612888565b925050608086013567ffffffffffffffff811115612a2157612a20612374565b5b612a2d8882890161293d565b9150509295509295909350565b612a4381612379565b82525050565b6000602082019050612a5e6000830184612a3a565b92915050565b6000819050919050565b6000612a89612a84612a7f84612468565b612a64565b612468565b9050919050565b6000612a9b82612a6e565b9050919050565b6000612aad82612a90565b9050919050565b612abd81612aa2565b82525050565b6000602082019050612ad86000830184612ab4565b92915050565b600080600080600060a08688031215612afa57612af961236f565b5b6000612b08888289016124b1565b9550506020612b19888289016124b1565b9450506040612b2a8882890161251d565b9350506060612b3b8882890161251d565b925050608086013567ffffffffffffffff811115612b5c57612b5b612374565b5b612b688882890161293d565b9150509295509295909350565b600060208284031215612b8b57612b8a61236f565b5b6000612b99848285016124b1565b91505092915050565b6000612bad82612a90565b9050919050565b612bbd81612ba2565b82525050565b6000602082019050612bd86000830184612bb4565b92915050565b600081519050612bed8161264c565b92915050565b600060208284031215612c0957612c0861236f565b5b6000612c1784828501612bde565b91505092915050565b6000612c3b612c36612c318461263f565b612a64565b612434565b9050919050565b612c4b81612c20565b82525050565b6000604082019050612c6660008301856126f3565b612c736020830184612c42565b9392505050565b600081519050612c8981612506565b92915050565b600060208284031215612ca557612ca461236f565b5b6000612cb384828501612c7a565b91505092915050565b600082825260208201905092915050565b7f536f72727920477561726469616e2c20746865726520617265206e6f7420656e60008201527f6f75676820636865737473206c6566742e000000000000000000000000000000602082015250565b6000612d29603183612cbc565b9150612d3482612ccd565b604082019050919050565b60006020820190508181036000830152612d5881612d1c565b9050919050565b7f4e487b7100000000000000000000000000000000000000000000000000000000600052601160045260246000fd5b6000612d9982612434565b9150612da483612434565b9250828202612db281612434565b91508282048414831517612dc957612dc8612d5f565b5b5092915050565b7f536f72727920477561726469616e2c20796f7520646f206e6f7420686176652060008201527f656e6f756768206d6f6e65792e00000000000000000000000000000000000000602082015250565b6000612e2c602d83612cbc565b9150612e3782612dd0565b604082019050919050565b60006020820190508181036000830152612e5b81612e1f565b9050919050565b6000606082019050612e7760008301866126f3565b612e8460208301856126f3565b612e91604083018461243e565b949350505050565b612ea2816123fe565b8114612ead57600080fd5b50565b600081519050612ebf81612e99565b92915050565b600060208284031215612edb57612eda61236f565b5b6000612ee984828501612eb0565b91505092915050565b600082825260208201905092915050565b50565b6000612f13600083612ef2565b9150612f1e82612f03565b600082019050919050565b600060a082019050612f3e60008301876126f3565b612f4b60208301866126f3565b612f586040830185612c42565b612f65606083018461243e565b8181036080830152612f7681612f06565b905095945050505050565b7f536f72727920477561726469616e2c20796f7520646f206e6f7420686176652060008201527f616e7920636865737420696e20796f757220696e76656e746f72792e00000000602082015250565b6000612fdd603c83612cbc565b9150612fe882612f81565b604082019050919050565b6000602082019050818103600083015261300c81612fd0565b9050919050565b600060408201905061302860008301856126f3565b613035602083018461243e565b9392505050565b7f4e487b7100000000000000000000000000000000000000000000000000000000600052603260045260246000fd5b6000819050919050565b600061309061308b6130868461306b565b612a64565b612434565b9050919050565b6130a081613075565b82525050565b600060a0820190506130bb60008301876126f3565b6130c860208301866126f3565b6130d5604083018561243e565b6130e26060830184613097565b81810360808301526130f381612f06565b905095945050505050565b600061310982612434565b91507fffffffffffffffffffffffffffffffffffffffffffffffffffffffffffffffff820361313b5761313a612d5f565b5b600182019050919050565b600060a08201905061315b60008301876126f3565b61316860208301866126f3565b6131756040830185612c42565b6131826060830184613097565b818103608083015261319381612f06565b905095945050505050565b60006060820190506131b360008301866126f3565b81810360208301526131c581856125bf565b905081810360408301526131d981846125bf565b9050949350505050565b60006131ee8261263f565b91506131f98361263f565b9250828201905060ff81111561321257613211612d5f565b5b92915050565b7f53756d206f66207468652064726f702072617465206d7573742062652065676160008201527f6c20746f20313030000000000000000000000000000000000000000000000000602082015250565b6000613274602883612cbc565b915061327f82613218565b604082019050919050565b600060208201905081810360008301526132a381613267565b9050919050565b7f536f72727920477561726469616e2c207468657265206973206e6f206d6f726560008201527f206d6f6e657920696e2074686520747265617375726500000000000000000000602082015250565b6000613306603683612cbc565b9150613311826132aa565b604082019050919050565b60006020820190508181036000830152613335816132f9565b9050919050565b600081519050919050565b60005b8381101561336557808201518184015260208101905061334a565b60008484015250505050565b600061337c8261333c565b6133868185612ef2565b9350613396818560208601613347565b61339f81612762565b840191505092915050565b600060a0820190506133bf60008301886126f3565b6133cc60208301876126f3565b6133d9604083018661243e565b6133e6606083018561243e565b81810360808301526133f88184613371565b90509695505050505050565b7f4f776e61626c653a206e6577206f776e657220697320746865207a65726f206160008201527f6464726573730000000000000000000000000000000000000000000000000000602082015250565b6000613460602683612cbc565b915061346b82613404565b604082019050919050565b6000602082019050818103600083015261348f81613453565b9050919050565b7f4f776e61626c653a2063616c6c6572206973206e6f7420746865206f776e6572600082015250565b60006134cc602083612cbc565b91506134d782613496565b602082019050919050565b600060208201905081810360008301526134fb816134bf565b9050919050565b600061350d8261263f565b91506135188361263f565b92508282026135268161263f565b915080821461353857613537612d5f565b5b5092915050565b600061ffff82169050919050565b60006135588261353f565b91506135638361353f565b92508282026135718161353f565b915080821461358357613582612d5f565b5b5092915050565b60006135958261353f565b91506135a08361353f565b9250828201905061ffff8111156135ba576135b9612d5f565b5b92915050565b6000819050919050565b6135db6135d682612434565b6135c0565b82525050565b60008160601b9050919050565b60006135f9826135e1565b9050919050565b600061360b826135ee565b9050919050565b61362361361e82612488565b613600565b82525050565b600061363582866135ca565b6020820191506136458285613612565b60148201915061365582846135ca565b602082019150819050949350505050565b7f4e487b7100000000000000000000000000000000000000000000000000000000600052601260045260246000fd5b60006136a082612434565b91506136ab83612434565b9250826136bb576136ba613666565b5b82820690509291505056fea26469706673582212208d01c321fb22ef661fd22efe958957adc7f9fb910d91d7f9b22c0b8be925950664736f6c63430008120033",
  "linkReferences": {},
  "deployedLinkReferences": {}
}