{
  "_format": "hh-sol-artifact-1",
  "contractName": "TreasureGuardian",
  "sourceName": "contracts/TreasureGuardian.sol",
  "abi": [
    {
      "inputs": [],
      "stateMutability": "nonpayable",
      "type": "constructor"
    },
    {
      "anonymous": false,
      "inputs": [
        {
          "indexed": true,
          "internalType": "address",
          "name": "previousOwner",
          "type": "address"
        },
        {
          "indexed": true,
          "internalType": "address",
          "name": "newOwner",
          "type": "address"
        }
      ],
      "name": "OwnershipTransferred",
      "type": "event"
    },
    {
      "anonymous": false,
      "inputs": [
        {
          "indexed": false,
          "internalType": "address",
          "name": "to",
          "type": "address"
        },
        {
          "indexed": false,
          "internalType": "uint256[]",
          "name": "ids",
          "type": "uint256[]"
        },
        {
          "indexed": false,
          "internalType": "uint256[]",
          "name": "missingIds",
          "type": "uint256[]"
        }
      ],
      "name": "onStuffTransferedTo",
      "type": "event"
    },
    {
      "inputs": [
        {
          "internalType": "uint256",
          "name": "amount",
          "type": "uint256"
        }
      ],
      "name": "buyChest",
      "outputs": [],
      "stateMutability": "nonpayable",
      "type": "function"
    },
    {
      "inputs": [],
      "name": "chestPrice",
      "outputs": [
        {
          "internalType": "uint256",
          "name": "",
          "type": "uint256"
        }
      ],
      "stateMutability": "view",
      "type": "function"
    },
    {
      "inputs": [],
      "name": "createCollection",
      "outputs": [],
      "stateMutability": "nonpayable",
      "type": "function"
    },
    {
      "inputs": [],
      "name": "factory",
      "outputs": [
        {
          "internalType": "contract ForgeMaster",
          "name": "",
          "type": "address"
        }
      ],
      "stateMutability": "view",
      "type": "function"
    },
    {
      "inputs": [],
      "name": "guardianStuff",
      "outputs": [
        {
          "internalType": "contract GuardianStuff",
          "name": "",
          "type": "address"
        }
      ],
      "stateMutability": "view",
      "type": "function"
    },
    {
      "inputs": [],
      "name": "guardianToken",
      "outputs": [
        {
          "internalType": "contract GuardianToken",
          "name": "",
          "type": "address"
        }
      ],
      "stateMutability": "view",
      "type": "function"
    },
    {
      "inputs": [
        {
          "internalType": "address",
          "name": "guardianTokenAddr",
          "type": "address"
        }
      ],
      "name": "initialize",
      "outputs": [],
      "stateMutability": "nonpayable",
      "type": "function"
    },
    {
      "inputs": [
        {
          "internalType": "uint8",
          "name": "dropRateCommon",
          "type": "uint8"
        },
        {
          "internalType": "uint8",
          "name": "dropRateUncommon",
          "type": "uint8"
        },
        {
          "internalType": "uint8",
          "name": "dropRateRare",
          "type": "uint8"
        },
        {
          "internalType": "uint8",
          "name": "dropRateEpic",
          "type": "uint8"
        },
        {
          "internalType": "uint8",
          "name": "dropRateLegendary",
          "type": "uint8"
        }
      ],
      "name": "modifyDropRate",
      "outputs": [],
      "stateMutability": "nonpayable",
      "type": "function"
    },
    {
      "inputs": [
        {
          "internalType": "address",
          "name": "",
          "type": "address"
        },
        {
          "internalType": "address",
          "name": "",
          "type": "address"
        },
        {
          "internalType": "uint256[]",
          "name": "",
          "type": "uint256[]"
        },
        {
          "internalType": "uint256[]",
          "name": "",
          "type": "uint256[]"
        },
        {
          "internalType": "bytes",
          "name": "",
          "type": "bytes"
        }
      ],
      "name": "onERC1155BatchReceived",
      "outputs": [
        {
          "internalType": "bytes4",
          "name": "",
          "type": "bytes4"
        }
      ],
      "stateMutability": "nonpayable",
      "type": "function"
    },
    {
      "inputs": [
        {
          "internalType": "address",
          "name": "",
          "type": "address"
        },
        {
          "internalType": "address",
          "name": "",
          "type": "address"
        },
        {
          "internalType": "uint256",
          "name": "",
          "type": "uint256"
        },
        {
          "internalType": "uint256",
          "name": "",
          "type": "uint256"
        },
        {
          "internalType": "bytes",
          "name": "",
          "type": "bytes"
        }
      ],
      "name": "onERC1155Received",
      "outputs": [
        {
          "internalType": "bytes4",
          "name": "",
          "type": "bytes4"
        }
      ],
      "stateMutability": "nonpayable",
      "type": "function"
    },
    {
      "inputs": [],
      "name": "openChest",
      "outputs": [
        {
          "internalType": "uint256[]",
          "name": "ids",
          "type": "uint256[]"
        }
      ],
      "stateMutability": "nonpayable",
      "type": "function"
    },
    {
      "inputs": [],
      "name": "owner",
      "outputs": [
        {
          "internalType": "address",
          "name": "",
          "type": "address"
        }
      ],
      "stateMutability": "view",
      "type": "function"
    },
    {
      "inputs": [],
      "name": "renounceOwnership",
      "outputs": [],
      "stateMutability": "nonpayable",
      "type": "function"
    },
    {
      "inputs": [
        {
          "internalType": "address",
          "name": "guardianAddress",
          "type": "address"
        },
        {
          "internalType": "uint256",
          "name": "amount",
          "type": "uint256"
        }
      ],
      "name": "rewardGuardianWithToken",
      "outputs": [],
      "stateMutability": "nonpayable",
      "type": "function"
    },
    {
      "inputs": [
        {
          "internalType": "address",
          "name": "from",
          "type": "address"
        },
        {
          "internalType": "address",
          "name": "to",
          "type": "address"
        },
        {
          "internalType": "uint256",
          "name": "id",
          "type": "uint256"
        },
        {
          "internalType": "uint256",
          "name": "amount",
          "type": "uint256"
        },
        {
          "internalType": "bytes",
          "name": "data",
          "type": "bytes"
        }
      ],
      "name": "safeTransferFrom",
      "outputs": [],
      "stateMutability": "nonpayable",
      "type": "function"
    },
    {
      "inputs": [
        {
          "internalType": "bytes4",
          "name": "interfaceId",
          "type": "bytes4"
        }
      ],
      "name": "supportsInterface",
      "outputs": [
        {
          "internalType": "bool",
          "name": "",
          "type": "bool"
        }
      ],
      "stateMutability": "view",
      "type": "function"
    },
    {
      "inputs": [
        {
          "internalType": "address",
          "name": "newOwner",
          "type": "address"
        }
      ],
      "name": "transferOwnership",
      "outputs": [],
      "stateMutability": "nonpayable",
      "type": "function"
    }
  ],
  "bytecode": "0x608060405268015af1d78b58c400006004556005600660006101000a81548160ff021916908360ff160217905550603c600660016101000a81548160ff021916908360ff1602179055506019600660026101000a81548160ff021916908360ff160217905550600a600660036101000a81548160ff021916908360ff1602179055506004600660046101000a81548160ff021916908360ff1602179055506001600660056101000a81548160ff021916908360ff160217905550348015620000c657600080fd5b50620000e7620000db6200019160201b60201c565b6200019960201b60201c565b6200010367e8d551d466011eb960c01b6200025d60201b60201c565b6200011f67f86ee319022cc3eb60c01b6200025d60201b60201c565b6040516200012d9062000260565b604051809103906000f0801580156200014a573d6000803e3d6000fd5b50600160006101000a81548173ffffffffffffffffffffffffffffffffffffffff021916908373ffffffffffffffffffffffffffffffffffffffff1602179055506200026e565b600033905090565b60008060009054906101000a900473ffffffffffffffffffffffffffffffffffffffff169050816000806101000a81548173ffffffffffffffffffffffffffffffffffffffff021916908373ffffffffffffffffffffffffffffffffffffffff1602179055508173ffffffffffffffffffffffffffffffffffffffff168173ffffffffffffffffffffffffffffffffffffffff167f8be0079c531659141344cd1fd0a4f28419497f9722a3daafe3b4186f6b6457e060405160405180910390a35050565b50565b614e0e8062003c4383390190565b6139c5806200027e6000396000f3fe608060405234801561001057600080fd5b506004361061010b5760003560e01c8063ae196ec8116100a2578063f154730411610071578063f15473041461026c578063f23a6e611461028a578063f242432a146102ba578063f2fde38b146102d6578063fa180dc9146102f25761010b565b8063ae196ec8146101e6578063bc197c8114610202578063c45a015514610232578063c4d66de8146102505761010b565b80636f49a3c0116100de5780636f49a3c014610184578063715018a6146101a2578063829a826a146101ac5780638da5cb5b146101c85761010b565b806301ffc9a714610110578063444e56ed146101405780634e1925481461015e578063647f1a9c1461017a575b600080fd5b61012a600480360381019061012591906125f0565b610310565b6040516101379190612638565b60405180910390f35b61014861038a565b604051610155919061266c565b60405180910390f35b610178600480360381019061017391906126b3565b610390565b005b610182610860565b005b61018c610a6e565b604051610199919061279e565b60405180910390f35b6101aa6111c4565b005b6101c660048036038101906101c191906127f9565b6111d8565b005b6101d06113d0565b6040516101dd91906128b5565b60405180910390f35b61020060048036038101906101fb91906128fc565b6113f9565b005b61021c60048036038101906102179190612b4a565b611637565b6040516102299190612c28565b60405180910390f35b61023a61164c565b6040516102479190612ca2565b60405180910390f35b61026a60048036038101906102659190612cbd565b611672565b005b61027461170e565b6040516102819190612d0b565b60405180910390f35b6102a4600480360381019061029f9190612d26565b611734565b6040516102b19190612c28565b60405180910390f35b6102d460048036038101906102cf9190612d26565b611749565b005b6102f060048036038101906102eb9190612cbd565b611851565b005b6102fa6118d4565b6040516103079190612dde565b60405180910390f35b60007f4e2312e0000000000000000000000000000000000000000000000000000000007bffffffffffffffffffffffffffffffffffffffffffffffffffffffff1916827bffffffffffffffffffffffffffffffffffffffffffffffffffffffff191614806103835750610382826118fa565b5b9050919050565b60045481565b6103a467f76e5387ebe48f9960c01b611964565b6103b867ca8957557184a42960c01b611964565b6103cc6707bd53429c66189d60c01b611964565b6000600260009054906101000a900473ffffffffffffffffffffffffffffffffffffffff1673ffffffffffffffffffffffffffffffffffffffff1663ea2a17306040518163ffffffff1660e01b8152600401602060405180830381865afa15801561043b573d6000803e3d6000fd5b505050506040513d601f19601f8201168201806040525081019061045f9190612e0e565b905061047567e26c6d01ede51a8660c01b611964565b61048967e73cc72d42c4819760c01b611964565b61049d673b333634cef0a35760c01b611964565b81600260009054906101000a900473ffffffffffffffffffffffffffffffffffffffff1673ffffffffffffffffffffffffffffffffffffffff1662fdd58e30846040518363ffffffff1660e01b81526004016104fa929190612e6c565b602060405180830381865afa158015610517573d6000803e3d6000fd5b505050506040513d601f19601f8201168201806040525081019061053b9190612eaa565b1161057b576040517f08c379a000000000000000000000000000000000000000000000000000000000815260040161057290612f5a565b60405180910390fd5b61058f670475c9ef4ca4d29860c01b611964565b6105a367ca5e350fcd548edb60c01b611964565b6105b7674ceb33ff3af7c97d60c01b611964565b6105cb67a6a38e26df605fc060c01b611964565b816004546105d99190612fa9565b600360009054906101000a900473ffffffffffffffffffffffffffffffffffffffff1673ffffffffffffffffffffffffffffffffffffffff166370a08231336040518263ffffffff1660e01b815260040161063491906128b5565b602060405180830381865afa158015610651573d6000803e3d6000fd5b505050506040513d601f19601f820116820180604052508101906106759190612eaa565b116106b5576040517f08c379a00000000000000000000000000000000000000000000000000000000081526004016106ac9061305d565b60405180910390fd5b6106c967b6cd19361797261560c01b611964565b6106dd677ea5d342d3f5f86960c01b611964565b6106f167d9d4498ea09ec96660c01b611964565b600360009054906101000a900473ffffffffffffffffffffffffffffffffffffffff1673ffffffffffffffffffffffffffffffffffffffff166323b872dd33308560045461073f9190612fa9565b6040518463ffffffff1660e01b815260040161075d9392919061307d565b6020604051808303816000875af115801561077c573d6000803e3d6000fd5b505050506040513d601f19601f820116820180604052508101906107a091906130e0565b506107b5673e91aeeb042452ca60c01b611964565b6107c967c1e92c4c5cc201ae60c01b611964565b600260009054906101000a900473ffffffffffffffffffffffffffffffffffffffff1673ffffffffffffffffffffffffffffffffffffffff1663f242432a303384866040518563ffffffff1660e01b815260040161082a9493929190613144565b600060405180830381600087803b15801561084457600080fd5b505af1158015610858573d6000803e3d6000fd5b505050505050565b610874673b6a46d0c306dd4660c01b611964565b61087c611967565b6108906784755bea8c253c7d60c01b611964565b6108a46733c7e3ec42f2e3c360c01b611964565b6108b8674c48c240c2bbe53c60c01b611964565b6108cc671fba41e966541c4d60c01b611964565b6000600160009054906101000a900473ffffffffffffffffffffffffffffffffffffffff1673ffffffffffffffffffffffffffffffffffffffff1663059dfe136040518163ffffffff1660e01b8152600401610927906131e8565b6020604051808303816000875af1158015610946573d6000803e3d6000fd5b505050506040513d601f19601f8201168201806040525081019061096a919061321d565b905061098067ca63f443d670d61d60c01b611964565b6109946703bf52cac4364eea60c01b611964565b600160009054906101000a900473ffffffffffffffffffffffffffffffffffffffff1673ffffffffffffffffffffffffffffffffffffffff16630f7deecb6040518163ffffffff1660e01b8152600401600060405180830381600087803b1580156109fe57600080fd5b505af1158015610a12573d6000803e3d6000fd5b50505050610a2a672cf0ba72597222cc60c01b611964565b80600260006101000a81548173ffffffffffffffffffffffffffffffffffffffff021916908373ffffffffffffffffffffffffffffffffffffffff16021790555050565b6060610a846707cc2476d7f2395e60c01b611964565b610a9867f5eaa7c9aa7cf09760c01b611964565b610aac678d89c92b9029b7b460c01b611964565b6000600260009054906101000a900473ffffffffffffffffffffffffffffffffffffffff1673ffffffffffffffffffffffffffffffffffffffff1663ea2a17306040518163ffffffff1660e01b8152600401602060405180830381865afa158015610b1b573d6000803e3d6000fd5b505050506040513d601f19601f82011682018060405250810190610b3f9190612e0e565b9050610b55674c71aaf92a56d98d60c01b611964565b610b6967fccc6b84e9a54dfd60c01b611964565b610b7d67a636f94c87f9958560c01b611964565b6000600260009054906101000a900473ffffffffffffffffffffffffffffffffffffffff1673ffffffffffffffffffffffffffffffffffffffff1662fdd58e33846040518363ffffffff1660e01b8152600401610bdb929190612e6c565b602060405180830381865afa158015610bf8573d6000803e3d6000fd5b505050506040513d601f19601f82011682018060405250810190610c1c9190612eaa565b11610c5c576040517f08c379a0000000000000000000000000000000000000000000000000000000008152600401610c53906132bc565b60405180910390fd5b610c7067baa69b912e4dc57560c01b611964565b610c84675ff5fa4ee222bc9e60c01b611964565b610c98677a36aa5dd11040a360c01b611964565b6000600660009054906101000a900460ff1660ff1667ffffffffffffffff811115610cc657610cc5612952565b5b604051908082528060200260200182016040528015610cf45781602001602082028036833780820191505090505b509050610d0b675cee07b7123966c160c01b611964565b610d1f67af81014625119a9560c01b611964565b6000600660009054906101000a900460ff1660ff1667ffffffffffffffff811115610d4d57610d4c612952565b5b604051908082528060200260200182016040528015610d7b5781602001602082028036833780820191505090505b509050610d9267dfc291b0aab4a66060c01b611964565b610da667cd49055b829daea160c01b611964565b60005b600660009054906101000a900460ff1660ff1681101561107357610dd767fdd0c594483a08d960c01b611964565b610deb67cfae4fff0d3b2e0d60c01b611964565b6000610df56119e5565b9050610e0b676a49b7957ebdf15b60c01b611964565b610e1f67e133695f688deb4860c01b611964565b6000600260009054906101000a900473ffffffffffffffffffffffffffffffffffffffff1673ffffffffffffffffffffffffffffffffffffffff1662fdd58e30846040518363ffffffff1660e01b8152600401610e7d9291906132dc565b602060405180830381865afa158015610e9a573d6000803e3d6000fd5b505050506040513d601f19601f82011682018060405250810190610ebe9190612eaa565b9050610ed4671b933c2b05060a9d60c01b611964565b610ee867bd156823450f46b460c01b611964565b6000811115610ffa57610f0567ab31824fb0edddf460c01b611964565b610f196788a5009948d3028760c01b611964565b81858481518110610f2d57610f2c613305565b5b602002602001018181525050610f4d6747d78f30a919f74f60c01b611964565b610f6167a03e28e91dea6b3e60c01b611964565b600260009054906101000a900473ffffffffffffffffffffffffffffffffffffffff1673ffffffffffffffffffffffffffffffffffffffff1663f242432a30338560016040518563ffffffff1660e01b8152600401610fc3949392919061336f565b600060405180830381600087803b158015610fdd57600080fd5b505af1158015610ff1573d6000803e3d6000fd5b5050505061105d565b61100e67297f9dafbd71834d60c01b611964565b611022671f48dff3fb8eccc860c01b611964565b8184848151811061103657611035613305565b5b60200260200101818152505061105667d4b2f5668507a6a660c01b611964565b5050611060565b50505b808061106b906133c7565b915050610da9565b50611088674637f015dd52cd7360c01b611964565b61109c67b193886e4fa5322560c01b611964565b600260009054906101000a900473ffffffffffffffffffffffffffffffffffffffff1673ffffffffffffffffffffffffffffffffffffffff1663f242432a33308660016040518563ffffffff1660e01b81526004016110fe949392919061340f565b600060405180830381600087803b15801561111857600080fd5b505af115801561112c573d6000803e3d6000fd5b505050506111446719cc4ac858fdbe1b60c01b611964565b6111586715a6cfd0de806f6260c01b611964565b7f1ab84bce784ba927df23bef9279723d9bbad6dec82728fb92e2aebfac01f666d33838360405161118b93929190613467565b60405180910390a16111a767569d3775086981bc60c01b611964565b6111bb67e62b387536422cf260c01b611964565b81935050505090565b6111cc611967565b6111d6600061240d565b565b6111ec6732c5951fe176abae60c01b611964565b6111f4611967565b61120867d02effd01834049860c01b611964565b61121c67bc05811d7ac5d81160c01b611964565b611230678cbda42f2be8204e60c01b611964565b6112446794c5b025b307173460c01b611964565b6112586777f86a9579df466c60c01b611964565b6064818385878961126991906134ac565b61127391906134ac565b61127d91906134ac565b61128791906134ac565b60ff16146112ca576040517f08c379a00000000000000000000000000000000000000000000000000000000081526004016112c190613553565b60405180910390fd5b6112de67b560b8b4cd73c3d660c01b611964565b6112f267c00acb3d65a732b660c01b611964565b84600660016101000a81548160ff021916908360ff16021790555061132167d8b778ae0cf19d2660c01b611964565b83600660026101000a81548160ff021916908360ff16021790555061135067c93e0a1850eeee8160c01b611964565b82600660036101000a81548160ff021916908360ff16021790555061137f67bc902a4d6637a95d60c01b611964565b81600660046101000a81548160ff021916908360ff1602179055506113ae67592f414ff45e31dc60c01b611964565b80600660056101000a81548160ff021916908360ff1602179055505050505050565b60008060009054906101000a900473ffffffffffffffffffffffffffffffffffffffff16905090565b61140d671fd2e486d8aa90aa60c01b611964565b611415611967565b6114296703e8ee8b8ac2a90660c01b611964565b61143d67631024d7fd71d14f60c01b611964565b61145167cec5b123ecb7440e60c01b611964565b61146567102c4e9ed0bc27a460c01b611964565b61147967ab46bf908678e38660c01b611964565b80600360009054906101000a900473ffffffffffffffffffffffffffffffffffffffff1673ffffffffffffffffffffffffffffffffffffffff166370a08231306040518263ffffffff1660e01b81526004016114d591906128b5565b602060405180830381865afa1580156114f2573d6000803e3d6000fd5b505050506040513d601f19601f820116820180604052508101906115169190612eaa565b11611556576040517f08c379a000000000000000000000000000000000000000000000000000000000815260040161154d906135e5565b60405180910390fd5b61156a67602e46af16ab5a9b60c01b611964565b61157e67fbab76020f28833260c01b611964565b61159267f929e5911bc98ee660c01b611964565b600360009054906101000a900473ffffffffffffffffffffffffffffffffffffffff1673ffffffffffffffffffffffffffffffffffffffff1663a9059cbb83836040518363ffffffff1660e01b81526004016115ef9291906132dc565b6020604051808303816000875af115801561160e573d6000803e3d6000fd5b505050506040513d601f19601f8201168201806040525081019061163291906130e0565b505050565b600063bc197c8160e01b905095945050505050565b600160009054906101000a900473ffffffffffffffffffffffffffffffffffffffff1681565b61168667a2726ffddc1601f360c01b611964565b61168e611967565b6116a2679d3cdd1184f380e760c01b611964565b6116b667f5a0432ed57b872260c01b611964565b6116ca67e875185c975eee5f60c01b611964565b80600360006101000a81548173ffffffffffffffffffffffffffffffffffffffff021916908373ffffffffffffffffffffffffffffffffffffffff16021790555050565b600260009054906101000a900473ffffffffffffffffffffffffffffffffffffffff1681565b600063f23a6e6160e01b905095945050505050565b61175d67daffcbcea6c2dc5960c01b611964565b611765611967565b611779671b18d47b0d3afdf860c01b611964565b61178d6769677c6e104f0ad060c01b611964565b6117a1677f00511073a0e1db60c01b611964565b6117b567595b3740aaeffaae60c01b611964565b600260009054906101000a900473ffffffffffffffffffffffffffffffffffffffff1673ffffffffffffffffffffffffffffffffffffffff1663f242432a86868686866040518663ffffffff1660e01b8152600401611818959493929190613673565b600060405180830381600087803b15801561183257600080fd5b505af1158015611846573d6000803e3d6000fd5b505050505050505050565b611859611967565b600073ffffffffffffffffffffffffffffffffffffffff168173ffffffffffffffffffffffffffffffffffffffff16036118c8576040517f08c379a00000000000000000000000000000000000000000000000000000000081526004016118bf9061373f565b60405180910390fd5b6118d18161240d565b50565b600360009054906101000a900473ffffffffffffffffffffffffffffffffffffffff1681565b60007f01ffc9a7000000000000000000000000000000000000000000000000000000007bffffffffffffffffffffffffffffffffffffffffffffffffffffffff1916827bffffffffffffffffffffffffffffffffffffffffffffffffffffffff1916149050919050565b50565b61196f6124d1565b73ffffffffffffffffffffffffffffffffffffffff1661198d6113d0565b73ffffffffffffffffffffffffffffffffffffffff16146119e3576040517f08c379a00000000000000000000000000000000000000000000000000000000081526004016119da906137ab565b60405180910390fd5b565b60006119fb6712c22b050c4b98a260c01b611964565b611a0f675184355fd72240df60c01b611964565b611a23671cc8c9d0b58f8e9860c01b611964565b6000611a2d6124d9565b9050611a436726475625ab656fe960c01b611964565b611a57677f6bf41ed7274f3d60c01b611964565b6000611a6d67bafe70e019d8dc2a60c01b611964565b611a8167119ca99b0ebaff4760c01b611964565b600660019054906101000a900460ff1660ff16821015611acc57611aaf671808d9a65b5e0d2460c01b611964565b611ac367dac35fd9959cbd1d60c01b611964565b60009050611eaf565b611ae0679b12a5160fd73cad60c01b611964565b611af46721d471e1d80b40a760c01b611964565b600660019054906101000a900460ff1660ff168210158015611b415750600660029054906101000a900460ff16600660019054906101000a900460ff16611b3b91906134ac565b60ff1682105b15611b7757611b5a6782efc3e29515e4ec60c01b611964565b611b6e671eb3cde20e4e12fa60c01b611964565b60019050611eae565b611b8b67ee59a35abb51f9d760c01b611964565b611b9f67c34a47d2b1ec9cc460c01b611964565b600660029054906101000a900460ff16600660019054906101000a900460ff16611bc991906134ac565b60ff168210158015611c205750600660039054906101000a900460ff16600660029054906101000a900460ff16600660019054906101000a900460ff16611c1091906134ac565b611c1a91906134ac565b60ff1682105b15611c5657611c3967daa23a5f744a86a360c01b611964565b611c4d67d9de11bd5ebcb7f060c01b611964565b60029050611ead565b611c6a674138f0ffcfc9b72e60c01b611964565b611c7e678bcb1e60dd40732060c01b611964565b600660039054906101000a900460ff16600660029054906101000a900460ff16600660019054906101000a900460ff16611cb891906134ac565b611cc291906134ac565b60ff168210158015611d335750600660049054906101000a900460ff16600660039054906101000a900460ff16600660029054906101000a900460ff16600660019054906101000a900460ff16611d1991906134ac565b611d2391906134ac565b611d2d91906134ac565b60ff1682105b15611d6957611d4c673db4241e8dab416d60c01b611964565b611d60675011e6c25b7738b460c01b611964565b60039050611eac565b611d7d6777a5b6b73d49125a60c01b611964565b611d916737e6c3c92933878260c01b611964565b600660049054906101000a900460ff16600660039054906101000a900460ff16600660029054906101000a900460ff16600660019054906101000a900460ff16611ddb91906134ac565b611de591906134ac565b611def91906134ac565b60ff168210158015611e605750600660059054906101000a900460ff16600660039054906101000a900460ff16600660029054906101000a900460ff16600660019054906101000a900460ff16611e4691906134ac565b611e5091906134ac565b611e5a91906134ac565b60ff1682105b15611e9657611e796795ee255fee66a5e660c01b611964565b611e8d67c47f2b40960353de60c01b611964565b60049050611eab565b611eaa676a37398743a88af860c01b611964565b5b5b5b5b5b611ec367735740aed29260e060c01b611964565b611ecb6124d9565b9150611ee167095afc7f1f3b604760c01b611964565b611ef5671d8aec5406dfd88e60c01b611964565b600060019050611f0f6797aecac50b55923160c01b611964565b611f2367a97c8f172b9a0d6360c01b611964565b6021831015611f5d57611f406784b90b3b10e5b41260c01b611964565b611f5467e19bd14ada21d10560c01b611964565b60019050612043565b611f716747712a06ae4da0a360c01b611964565b611f84660cb97e000ff4c760c01b611964565b60218310158015611f955750604283105b15611fcb57611fae676a14bb71d22b10ec60c01b611964565b611fc267ec8314347a26d43b60c01b611964565b60029050612042565b611fdf6768814c59ea602f9a60c01b611964565b611ff367fad7608f1eaec17260c01b611964565b6042831061202c5761200f67b952cfcd1cda504860c01b611964565b612023678b86fd43f43c187960c01b611964565b60039050612041565b612040671f8e72257f0c1ec760c01b611964565b5b5b5b6120576733bb052593852cdb60c01b611964565b61206b6719a486c29ea7387a60c01b611964565b6000600190506120856726dfe420cb0984ef60c01b611964565b6120996719f70f21a61dcc3460c01b611964565b6000600190506120b367e7a47a8cf073405c60c01b611964565b6120bb6124d9565b94506120d167d3262bf813adfa3960c01b611964565b6120e56779766b07b940bed760c01b611964565b601185101561211f5761210267e229d8243168250f60c01b611964565b61211667437a980b686884bc60c01b611964565b60019050612356565b612133678492acad79f05bd360c01b611964565b61214767c6f3b33151b93eaf60c01b611964565b601185101580156121585750602285105b1561218e57612171671eafc9ec6f065ca960c01b611964565b61218567de9790778cc71c9560c01b611964565b60029050612355565b6121a267fd4b8124994dea0060c01b611964565b6121b66756be331b2fbdc67560c01b611964565b602285101580156121c75750603385105b156121fd576121e067e68022a2e8c4f9b560c01b611964565b6121f467647bc5f723edbb3460c01b611964565b60039050612354565b61221167ca4c393c131d38f460c01b611964565b612225672dd5aad29310227c60c01b611964565b603385101580156122365750604485105b1561226c5761224f6789d577c02487d78460c01b611964565b61226367434949847ec706a860c01b611964565b60049050612353565b612280672ca90d7ebbefc45f60c01b611964565b61229467cc3ab5beb845003260c01b611964565b604485101580156122a55750605485105b156122db576122be676242e858e94b06d760c01b611964565b6122d267e58f55603d9cd55160c01b611964565b60059050612352565b6122ef677c9068564b9b99c060c01b611964565b6123036765f898681bfefe7a60c01b611964565b6054851061233c5761231f670fa7908d810f892260c01b611964565b61233367250993be99d685b560c01b611964565b60069050612351565b61235067943645982c9bc63660c01b611964565b5b5b5b5b5b5b61236a6748c65f368aabe2fc60c01b611964565b61237e67384b6b6781afc1d660c01b611964565b60008460ff16600a8361239191906137cb565b60ff166064856123a191906137cb565b60ff166103e88760ff166123b59190613816565b6123bf9190613853565b6123c99190613853565b6123d39190613853565b61ffff1690506123ed670b79da30eb55f5fa60c01b611964565b6124016736c74221b0517d1660c01b611964565b80965050505050505090565b60008060009054906101000a900473ffffffffffffffffffffffffffffffffffffffff169050816000806101000a81548173ffffffffffffffffffffffffffffffffffffffff021916908373ffffffffffffffffffffffffffffffffffffffff1602179055508173ffffffffffffffffffffffffffffffffffffffff168173ffffffffffffffffffffffffffffffffffffffff167f8be0079c531659141344cd1fd0a4f28419497f9722a3daafe3b4186f6b6457e060405160405180910390a35050565b600033905090565b60006124ef67e7b513aed049024660c01b611964565b61250367ecf86a383a69003660c01b611964565b60056000815480929190612516906133c7565b919050555061252f671c54cc4966e75b5a60c01b611964565b61254367b8bc9545707251da60c01b611964565b6064423360055460405160200161255c939291906138f2565b6040516020818303038152906040528051906020012060001c61257f919061395e565b905090565b6000604051905090565b600080fd5b600080fd5b60007fffffffff0000000000000000000000000000000000000000000000000000000082169050919050565b6125cd81612598565b81146125d857600080fd5b50565b6000813590506125ea816125c4565b92915050565b6000602082840312156126065761260561258e565b5b6000612614848285016125db565b91505092915050565b60008115159050919050565b6126328161261d565b82525050565b600060208201905061264d6000830184612629565b92915050565b6000819050919050565b61266681612653565b82525050565b6000602082019050612681600083018461265d565b92915050565b61269081612653565b811461269b57600080fd5b50565b6000813590506126ad81612687565b92915050565b6000602082840312156126c9576126c861258e565b5b60006126d78482850161269e565b91505092915050565b600081519050919050565b600082825260208201905092915050565b6000819050602082019050919050565b61271581612653565b82525050565b6000612727838361270c565b60208301905092915050565b6000602082019050919050565b600061274b826126e0565b61275581856126eb565b9350612760836126fc565b8060005b83811015612791578151612778888261271b565b975061278383612733565b925050600181019050612764565b5085935050505092915050565b600060208201905081810360008301526127b88184612740565b905092915050565b600060ff82169050919050565b6127d6816127c0565b81146127e157600080fd5b50565b6000813590506127f3816127cd565b92915050565b600080600080600060a086880312156128155761281461258e565b5b6000612823888289016127e4565b9550506020612834888289016127e4565b9450506040612845888289016127e4565b9350506060612856888289016127e4565b9250506080612867888289016127e4565b9150509295509295909350565b600073ffffffffffffffffffffffffffffffffffffffff82169050919050565b600061289f82612874565b9050919050565b6128af81612894565b82525050565b60006020820190506128ca60008301846128a6565b92915050565b6128d981612894565b81146128e457600080fd5b50565b6000813590506128f6816128d0565b92915050565b600080604083850312156129135761291261258e565b5b6000612921858286016128e7565b92505060206129328582860161269e565b9150509250929050565b600080fd5b6000601f19601f8301169050919050565b7f4e487b7100000000000000000000000000000000000000000000000000000000600052604160045260246000fd5b61298a82612941565b810181811067ffffffffffffffff821117156129a9576129a8612952565b5b80604052505050565b60006129bc612584565b90506129c88282612981565b919050565b600067ffffffffffffffff8211156129e8576129e7612952565b5b602082029050602081019050919050565b600080fd5b6000612a11612a0c846129cd565b6129b2565b90508083825260208201905060208402830185811115612a3457612a336129f9565b5b835b81811015612a5d5780612a49888261269e565b845260208401935050602081019050612a36565b5050509392505050565b600082601f830112612a7c57612a7b61293c565b5b8135612a8c8482602086016129fe565b91505092915050565b600080fd5b600067ffffffffffffffff821115612ab557612ab4612952565b5b612abe82612941565b9050602081019050919050565b82818337600083830152505050565b6000612aed612ae884612a9a565b6129b2565b905082815260208101848484011115612b0957612b08612a95565b5b612b14848285612acb565b509392505050565b600082601f830112612b3157612b3061293c565b5b8135612b41848260208601612ada565b91505092915050565b600080600080600060a08688031215612b6657612b6561258e565b5b6000612b74888289016128e7565b9550506020612b85888289016128e7565b945050604086013567ffffffffffffffff811115612ba657612ba5612593565b5b612bb288828901612a67565b935050606086013567ffffffffffffffff811115612bd357612bd2612593565b5b612bdf88828901612a67565b925050608086013567ffffffffffffffff811115612c0057612bff612593565b5b612c0c88828901612b1c565b9150509295509295909350565b612c2281612598565b82525050565b6000602082019050612c3d6000830184612c19565b92915050565b6000819050919050565b6000612c68612c63612c5e84612874565b612c43565b612874565b9050919050565b6000612c7a82612c4d565b9050919050565b6000612c8c82612c6f565b9050919050565b612c9c81612c81565b82525050565b6000602082019050612cb76000830184612c93565b92915050565b600060208284031215612cd357612cd261258e565b5b6000612ce1848285016128e7565b91505092915050565b6000612cf582612c6f565b9050919050565b612d0581612cea565b82525050565b6000602082019050612d206000830184612cfc565b92915050565b600080600080600060a08688031215612d4257612d4161258e565b5b6000612d50888289016128e7565b9550506020612d61888289016128e7565b9450506040612d728882890161269e565b9350506060612d838882890161269e565b925050608086013567ffffffffffffffff811115612da457612da3612593565b5b612db088828901612b1c565b9150509295509295909350565b6000612dc882612c6f565b9050919050565b612dd881612dbd565b82525050565b6000602082019050612df36000830184612dcf565b92915050565b600081519050612e08816127cd565b92915050565b600060208284031215612e2457612e2361258e565b5b6000612e3284828501612df9565b91505092915050565b6000612e56612e51612e4c846127c0565b612c43565b612653565b9050919050565b612e6681612e3b565b82525050565b6000604082019050612e8160008301856128a6565b612e8e6020830184612e5d565b9392505050565b600081519050612ea481612687565b92915050565b600060208284031215612ec057612ebf61258e565b5b6000612ece84828501612e95565b91505092915050565b600082825260208201905092915050565b7f536f72727920477561726469616e2c20746865726520617265206e6f7420656e60008201527f6f75676820636865737473206c6566742e000000000000000000000000000000602082015250565b6000612f44603183612ed7565b9150612f4f82612ee8565b604082019050919050565b60006020820190508181036000830152612f7381612f37565b9050919050565b7f4e487b7100000000000000000000000000000000000000000000000000000000600052601160045260246000fd5b6000612fb482612653565b9150612fbf83612653565b9250828202612fcd81612653565b91508282048414831517612fe457612fe3612f7a565b5b5092915050565b7f536f72727920477561726469616e2c20796f7520646f206e6f7420686176652060008201527f656e6f756768206d6f6e65792e00000000000000000000000000000000000000602082015250565b6000613047602d83612ed7565b915061305282612feb565b604082019050919050565b600060208201905081810360008301526130768161303a565b9050919050565b600060608201905061309260008301866128a6565b61309f60208301856128a6565b6130ac604083018461265d565b949350505050565b6130bd8161261d565b81146130c857600080fd5b50565b6000815190506130da816130b4565b92915050565b6000602082840312156130f6576130f561258e565b5b6000613104848285016130cb565b91505092915050565b600082825260208201905092915050565b50565b600061312e60008361310d565b91506131398261311e565b600082019050919050565b600060a08201905061315960008301876128a6565b61316660208301866128a6565b6131736040830185612e5d565b613180606083018461265d565b818103608083015261319181613121565b905095945050505050565b7f4e6f646520477561726469616e7320416c79726120436f6c6c656374696f6e00600082015250565b60006131d2601f83612ed7565b91506131dd8261319c565b602082019050919050565b60006020820190508181036000830152613201816131c5565b9050919050565b600081519050613217816128d0565b92915050565b6000602082840312156132335761323261258e565b5b600061324184828501613208565b91505092915050565b7f536f72727920477561726469616e2c20796f7520646f206e6f7420686176652060008201527f616e7920636865737420696e20796f757220696e76656e746f72792e00000000602082015250565b60006132a6603c83612ed7565b91506132b18261324a565b604082019050919050565b600060208201905081810360008301526132d581613299565b9050919050565b60006040820190506132f160008301856128a6565b6132fe602083018461265d565b9392505050565b7f4e487b7100000000000000000000000000000000000000000000000000000000600052603260045260246000fd5b6000819050919050565b600061335961335461334f84613334565b612c43565b612653565b9050919050565b6133698161333e565b82525050565b600060a08201905061338460008301876128a6565b61339160208301866128a6565b61339e604083018561265d565b6133ab6060830184613360565b81810360808301526133bc81613121565b905095945050505050565b60006133d282612653565b91507fffffffffffffffffffffffffffffffffffffffffffffffffffffffffffffffff820361340457613403612f7a565b5b600182019050919050565b600060a08201905061342460008301876128a6565b61343160208301866128a6565b61343e6040830185612e5d565b61344b6060830184613360565b818103608083015261345c81613121565b905095945050505050565b600060608201905061347c60008301866128a6565b818103602083015261348e8185612740565b905081810360408301526134a28184612740565b9050949350505050565b60006134b7826127c0565b91506134c2836127c0565b9250828201905060ff8111156134db576134da612f7a565b5b92915050565b7f53756d206f66207468652064726f702072617465206d7573742062652065676160008201527f6c20746f20313030000000000000000000000000000000000000000000000000602082015250565b600061353d602883612ed7565b9150613548826134e1565b604082019050919050565b6000602082019050818103600083015261356c81613530565b9050919050565b7f536f72727920477561726469616e2c207468657265206973206e6f206d6f726560008201527f206d6f6e657920696e2074686520747265617375726500000000000000000000602082015250565b60006135cf603683612ed7565b91506135da82613573565b604082019050919050565b600060208201905081810360008301526135fe816135c2565b9050919050565b600081519050919050565b60005b8381101561362e578082015181840152602081019050613613565b60008484015250505050565b600061364582613605565b61364f818561310d565b935061365f818560208601613610565b61366881612941565b840191505092915050565b600060a08201905061368860008301886128a6565b61369560208301876128a6565b6136a2604083018661265d565b6136af606083018561265d565b81810360808301526136c1818461363a565b90509695505050505050565b7f4f776e61626c653a206e6577206f776e657220697320746865207a65726f206160008201527f6464726573730000000000000000000000000000000000000000000000000000602082015250565b6000613729602683612ed7565b9150613734826136cd565b604082019050919050565b600060208201905081810360008301526137588161371c565b9050919050565b7f4f776e61626c653a2063616c6c6572206973206e6f7420746865206f776e6572600082015250565b6000613795602083612ed7565b91506137a08261375f565b602082019050919050565b600060208201905081810360008301526137c481613788565b9050919050565b60006137d6826127c0565b91506137e1836127c0565b92508282026137ef816127c0565b915080821461380157613800612f7a565b5b5092915050565b600061ffff82169050919050565b600061382182613808565b915061382c83613808565b925082820261383a81613808565b915080821461384c5761384b612f7a565b5b5092915050565b600061385e82613808565b915061386983613808565b9250828201905061ffff81111561388357613882612f7a565b5b92915050565b6000819050919050565b6138a461389f82612653565b613889565b82525050565b60008160601b9050919050565b60006138c2826138aa565b9050919050565b60006138d4826138b7565b9050919050565b6138ec6138e782612894565b6138c9565b82525050565b60006138fe8286613893565b60208201915061390e82856138db565b60148201915061391e8284613893565b602082019150819050949350505050565b7f4e487b7100000000000000000000000000000000000000000000000000000000600052601260045260246000fd5b600061396982612653565b915061397483612653565b9250826139845761398361392f565b5b82820690509291505056fea26469706673582212200b7e5135a85691b120da17271e136409979bf326a05ff59a39f743074bac008764736f6c63430008120033608060405234801561001057600080fd5b5061002d61002261003260201b60201c565b61003a60201b60201c565b6100fe565b600033905090565b60008060009054906101000a900473ffffffffffffffffffffffffffffffffffffffff169050816000806101000a81548173ffffffffffffffffffffffffffffffffffffffff021916908373ffffffffffffffffffffffffffffffffffffffff1602179055508173ffffffffffffffffffffffffffffffffffffffff168173ffffffffffffffffffffffffffffffffffffffff167f8be0079c531659141344cd1fd0a4f28419497f9722a3daafe3b4186f6b6457e060405160405180910390a35050565b614d018061010d6000396000f3fe60806040523480156200001157600080fd5b5060043610620000ac5760003560e01c80638da5cb5b116200006f5780638da5cb5b1462000157578063bc197c811462000179578063e5326ab114620001af578063f23a6e6114620001d1578063f2fde38b146200020757620000ac565b806301ffc9a714620000b1578063059dfe1314620000e75780630f7deecb146200011d5780636aa003711462000129578063715018a6146200014b575b600080fd5b620000cf6004803603810190620000c9919062000a11565b62000227565b604051620000de919062000a60565b60405180910390f35b620001056004803603810190620000ff919062000bdf565b620002a4565b60405162000114919062000c75565b60405180910390f35b620001276200044b565b005b6200013362000623565b60405162000142919062000c75565b60405180910390f35b6200015562000649565b005b6200016162000661565b60405162000170919062000c75565b60405180910390f35b62000197600480360381019062000191919062000e8d565b6200068a565b604051620001a6919062000f83565b60405180910390f35b620001b96200069f565b604051620001c8919062001029565b60405180910390f35b620001ef6004803603810190620001e991906200104d565b62000735565b604051620001fe919062000f83565b60405180910390f35b6200022560048036038101906200021f9190620010f4565b6200074a565b005b60007f4e2312e0000000000000000000000000000000000000000000000000000000007bffffffffffffffffffffffffffffffffffffffffffffffffffffffff1916827bffffffffffffffffffffffffffffffffffffffffffffffffffffffff191614806200029d57506200029c82620007d4565b5b9050919050565b6000620002bc671c7ca9583836ce4e60c01b6200083e565b620002d2675fcb465c5ed20c9060c01b6200083e565b620002e86723d34002f8057e6460c01b6200083e565b600060405180602001620002fc9062000992565b6020820181038252601f19601f82011660405250905062000328673044e3a62236febc60c01b6200083e565b6200033e677ed6a199b1d0a33360c01b6200083e565b60008360405160200162000353919062001168565b60405160208183030381529060405280519060200120905062000381673d96d1c1012dee0060c01b6200083e565b808251602084016000f59250823b6200039957600080fd5b620003af671a707ec230ddf27060c01b6200083e565b8360019081620003c09190620013b7565b50620003d76705cfdfb2aa5d79f660c01b6200083e565b82600260006101000a81548173ffffffffffffffffffffffffffffffffffffffff021916908373ffffffffffffffffffffffffffffffffffffffff1602179055506200042e671de146c69034af5e60c01b6200083e565b62000444670cd68e5bba4257a160c01b6200083e565b5050919050565b62000461671337ab48b4cff03560c01b6200083e565b6200046b62000841565b62000481671e3bd852eceefe0560c01b6200083e565b6200049767693d95b637d36c4760c01b6200083e565b620004ad67db79eab1427f0edd60c01b6200083e565b620004c367f6816eefc38dda2e60c01b6200083e565b6000600260009054906101000a900473ffffffffffffffffffffffffffffffffffffffff16905062000500670a012b12e22f58ba60c01b6200083e565b62000516675b65ffe66f878bee60c01b6200083e565b8073ffffffffffffffffffffffffffffffffffffffff166306f36e87336040518263ffffffff1660e01b815260040162000551919062000c75565b600060405180830381600087803b1580156200056c57600080fd5b505af115801562000581573d6000803e3d6000fd5b505050506200059b67938a11ea0fd2aebc60c01b6200083e565b620005b167b5925ddf9703857160c01b6200083e565b8073ffffffffffffffffffffffffffffffffffffffff166344dfb6bc336040518263ffffffff1660e01b8152600401620005ec919062000c75565b600060405180830381600087803b1580156200060757600080fd5b505af11580156200061c573d6000803e3d6000fd5b5050505050565b600260009054906101000a900473ffffffffffffffffffffffffffffffffffffffff1681565b6200065362000841565b6200065f6000620008c6565b565b60008060009054906101000a900473ffffffffffffffffffffffffffffffffffffffff16905090565b600063bc197c8160e01b905095945050505050565b60018054620006ae90620011b0565b80601f0160208091040260200160405190810160405280929190818152602001828054620006dc90620011b0565b80156200072d5780601f1062000701576101008083540402835291602001916200072d565b820191906000526020600020905b8154815290600101906020018083116200070f57829003601f168201915b505050505081565b600063f23a6e6160e01b905095945050505050565b6200075462000841565b600073ffffffffffffffffffffffffffffffffffffffff168173ffffffffffffffffffffffffffffffffffffffff1603620007c6576040517f08c379a0000000000000000000000000000000000000000000000000000000008152600401620007bd9062001514565b60405180910390fd5b620007d181620008c6565b50565b60007f01ffc9a7000000000000000000000000000000000000000000000000000000007bffffffffffffffffffffffffffffffffffffffffffffffffffffffff1916827bffffffffffffffffffffffffffffffffffffffffffffffffffffffff1916149050919050565b50565b6200084b6200098a565b73ffffffffffffffffffffffffffffffffffffffff166200086b62000661565b73ffffffffffffffffffffffffffffffffffffffff1614620008c4576040517f08c379a0000000000000000000000000000000000000000000000000000000008152600401620008bb9062001586565b60405180910390fd5b565b60008060009054906101000a900473ffffffffffffffffffffffffffffffffffffffff169050816000806101000a81548173ffffffffffffffffffffffffffffffffffffffff021916908373ffffffffffffffffffffffffffffffffffffffff1602179055508173ffffffffffffffffffffffffffffffffffffffff168173ffffffffffffffffffffffffffffffffffffffff167f8be0079c531659141344cd1fd0a4f28419497f9722a3daafe3b4186f6b6457e060405160405180910390a35050565b600033905090565b61372380620015a983390190565b6000604051905090565b600080fd5b600080fd5b60007fffffffff0000000000000000000000000000000000000000000000000000000082169050919050565b620009eb81620009b4565b8114620009f757600080fd5b50565b60008135905062000a0b81620009e0565b92915050565b60006020828403121562000a2a5762000a29620009aa565b5b600062000a3a84828501620009fa565b91505092915050565b60008115159050919050565b62000a5a8162000a43565b82525050565b600060208201905062000a77600083018462000a4f565b92915050565b600080fd5b600080fd5b6000601f19601f8301169050919050565b7f4e487b7100000000000000000000000000000000000000000000000000000000600052604160045260246000fd5b62000ad28262000a87565b810181811067ffffffffffffffff8211171562000af45762000af362000a98565b5b80604052505050565b600062000b09620009a0565b905062000b17828262000ac7565b919050565b600067ffffffffffffffff82111562000b3a5762000b3962000a98565b5b62000b458262000a87565b9050602081019050919050565b82818337600083830152505050565b600062000b7862000b728462000b1c565b62000afd565b90508281526020810184848401111562000b975762000b9662000a82565b5b62000ba484828562000b52565b509392505050565b600082601f83011262000bc45762000bc362000a7d565b5b813562000bd684826020860162000b61565b91505092915050565b60006020828403121562000bf85762000bf7620009aa565b5b600082013567ffffffffffffffff81111562000c195762000c18620009af565b5b62000c278482850162000bac565b91505092915050565b600073ffffffffffffffffffffffffffffffffffffffff82169050919050565b600062000c5d8262000c30565b9050919050565b62000c6f8162000c50565b82525050565b600060208201905062000c8c600083018462000c64565b92915050565b62000c9d8162000c50565b811462000ca957600080fd5b50565b60008135905062000cbd8162000c92565b92915050565b600067ffffffffffffffff82111562000ce15762000ce062000a98565b5b602082029050602081019050919050565b600080fd5b6000819050919050565b62000d0c8162000cf7565b811462000d1857600080fd5b50565b60008135905062000d2c8162000d01565b92915050565b600062000d4962000d438462000cc3565b62000afd565b9050808382526020820190506020840283018581111562000d6f5762000d6e62000cf2565b5b835b8181101562000d9c578062000d87888262000d1b565b84526020840193505060208101905062000d71565b5050509392505050565b600082601f83011262000dbe5762000dbd62000a7d565b5b813562000dd084826020860162000d32565b91505092915050565b600067ffffffffffffffff82111562000df75762000df662000a98565b5b62000e028262000a87565b9050602081019050919050565b600062000e2662000e208462000dd9565b62000afd565b90508281526020810184848401111562000e455762000e4462000a82565b5b62000e5284828562000b52565b509392505050565b600082601f83011262000e725762000e7162000a7d565b5b813562000e8484826020860162000e0f565b91505092915050565b600080600080600060a0868803121562000eac5762000eab620009aa565b5b600062000ebc8882890162000cac565b955050602062000ecf8882890162000cac565b945050604086013567ffffffffffffffff81111562000ef35762000ef2620009af565b5b62000f018882890162000da6565b935050606086013567ffffffffffffffff81111562000f255762000f24620009af565b5b62000f338882890162000da6565b925050608086013567ffffffffffffffff81111562000f575762000f56620009af565b5b62000f658882890162000e5a565b9150509295509295909350565b62000f7d81620009b4565b82525050565b600060208201905062000f9a600083018462000f72565b92915050565b600081519050919050565b600082825260208201905092915050565b60005b8381101562000fdc57808201518184015260208101905062000fbf565b60008484015250505050565b600062000ff58262000fa0565b62001001818562000fab565b93506200101381856020860162000fbc565b6200101e8162000a87565b840191505092915050565b6000602082019050818103600083015262001045818462000fe8565b905092915050565b600080600080600060a086880312156200106c576200106b620009aa565b5b60006200107c8882890162000cac565b95505060206200108f8882890162000cac565b9450506040620010a28882890162000d1b565b9350506060620010b58882890162000d1b565b925050608086013567ffffffffffffffff811115620010d957620010d8620009af565b5b620010e78882890162000e5a565b9150509295509295909350565b6000602082840312156200110d576200110c620009aa565b5b60006200111d8482850162000cac565b91505092915050565b600081905092915050565b60006200113e8262000fa0565b6200114a818562001126565b93506200115c81856020860162000fbc565b80840191505092915050565b600062001176828462001131565b915081905092915050565b7f4e487b7100000000000000000000000000000000000000000000000000000000600052602260045260246000fd5b60006002820490506001821680620011c957607f821691505b602082108103620011df57620011de62001181565b5b50919050565b60008190508160005260206000209050919050565b60006020601f8301049050919050565b600082821b905092915050565b600060088302620012497fffffffffffffffffffffffffffffffffffffffffffffffffffffffffffffffff826200120a565b6200125586836200120a565b95508019841693508086168417925050509392505050565b6000819050919050565b600062001298620012926200128c8462000cf7565b6200126d565b62000cf7565b9050919050565b6000819050919050565b620012b48362001277565b620012cc620012c3826200129f565b84845462001217565b825550505050565b600090565b620012e3620012d4565b620012f0818484620012a9565b505050565b5b8181101562001318576200130c600082620012d9565b600181019050620012f6565b5050565b601f82111562001367576200133181620011e5565b6200133c84620011fa565b810160208510156200134c578190505b620013646200135b85620011fa565b830182620012f5565b50505b505050565b600082821c905092915050565b60006200138c600019846008026200136c565b1980831691505092915050565b6000620013a7838362001379565b9150826002028217905092915050565b620013c28262000fa0565b67ffffffffffffffff811115620013de57620013dd62000a98565b5b620013ea8254620011b0565b620013f78282856200131c565b600060209050601f8311600181146200142f57600084156200141a578287015190505b62001426858262001399565b86555062001496565b601f1984166200143f86620011e5565b60005b82811015620014695784890151825560018201915060208501945060208101905062001442565b8683101562001489578489015162001485601f89168262001379565b8355505b6001600288020188555050505b505050505050565b7f4f776e61626c653a206e6577206f776e657220697320746865207a65726f206160008201527f6464726573730000000000000000000000000000000000000000000000000000602082015250565b6000620014fc60268362000fab565b915062001509826200149e565b604082019050919050565b600060208201905081810360008301526200152f81620014ed565b9050919050565b7f4f776e61626c653a2063616c6c6572206973206e6f7420746865206f776e6572600082015250565b60006200156e60208362000fab565b91506200157b8262001536565b602082019050919050565b60006020820190508181036000830152620015a1816200155f565b905091905056fe60806040526000600560006101000a81548160ff021916908360ff1602179055503480156200002d57600080fd5b506040518060800160405280604d8152602001620036d6604d913962000059816200009c60201b60201c565b506200007a6200006e620000b160201b60201c565b620000b960201b60201c565b6200009667d5657efe082faaa860c01b6200017f60201b60201c565b620004e3565b8060029081620000ad9190620003fc565b5050565b600033905090565b6000600360009054906101000a900473ffffffffffffffffffffffffffffffffffffffff16905081600360006101000a81548173ffffffffffffffffffffffffffffffffffffffff021916908373ffffffffffffffffffffffffffffffffffffffff1602179055508173ffffffffffffffffffffffffffffffffffffffff168173ffffffffffffffffffffffffffffffffffffffff167f8be0079c531659141344cd1fd0a4f28419497f9722a3daafe3b4186f6b6457e060405160405180910390a35050565b50565b600081519050919050565b7f4e487b7100000000000000000000000000000000000000000000000000000000600052604160045260246000fd5b7f4e487b7100000000000000000000000000000000000000000000000000000000600052602260045260246000fd5b600060028204905060018216806200020457607f821691505b6020821081036200021a5762000219620001bc565b5b50919050565b60008190508160005260206000209050919050565b60006020601f8301049050919050565b600082821b905092915050565b600060088302620002847fffffffffffffffffffffffffffffffffffffffffffffffffffffffffffffffff8262000245565b62000290868362000245565b95508019841693508086168417925050509392505050565b6000819050919050565b6000819050919050565b6000620002dd620002d7620002d184620002a8565b620002b2565b620002a8565b9050919050565b6000819050919050565b620002f983620002bc565b620003116200030882620002e4565b84845462000252565b825550505050565b600090565b6200032862000319565b62000335818484620002ee565b505050565b5b818110156200035d57620003516000826200031e565b6001810190506200033b565b5050565b601f821115620003ac57620003768162000220565b620003818462000235565b8101602085101562000391578190505b620003a9620003a08562000235565b8301826200033a565b50505b505050565b600082821c905092915050565b6000620003d160001984600802620003b1565b1980831691505092915050565b6000620003ec8383620003be565b9150826002028217905092915050565b620004078262000182565b67ffffffffffffffff8111156200042357620004226200018d565b5b6200042f8254620001eb565b6200043c82828562000361565b600060209050601f8311600181146200047457600084156200045f578287015190505b6200046b8582620003de565b865550620004db565b601f198416620004848662000220565b60005b82811015620004ae5784890151825560018201915060208501945060208101905062000487565b86831015620004ce5784890151620004ca601f891682620003be565b8355505b6001600288020188555050505b505050505050565b6131e380620004f36000396000f3fe608060405234801561001057600080fd5b50600436106100f45760003560e01c8063715018a611610097578063e985e9c511610066578063e985e9c51461026f578063ea2a17301461029f578063f242432a146102bd578063f2fde38b146102d9576100f4565b8063715018a61461020d5780638da5cb5b14610217578063a22cb46514610235578063ab2da89914610251576100f4565b80630e89341c116100d35780630e89341c146101755780632eb2c2d6146101a557806344dfb6bc146101c15780634e1273f4146101dd576100f4565b8062fdd58e146100f957806301ffc9a71461012957806306f36e8714610159575b600080fd5b610113600480360381019061010e9190611e4b565b6102f5565b6040516101209190611e9a565b60405180910390f35b610143600480360381019061013e9190611f0d565b6103bd565b6040516101509190611f55565b60405180910390f35b610173600480360381019061016e9190611f70565b61049f565b005b61018f600480360381019061018a9190611f9d565b610945565b60405161019c919061205a565b60405180910390f35b6101bf60048036038101906101ba9190612279565b6109d9565b005b6101db60048036038101906101d69190611f70565b610a7a565b005b6101f760048036038101906101f2919061240b565b610aeb565b6040516102049190612541565b60405180910390f35b610215610c04565b005b61021f610c18565b60405161022c9190612572565b60405180910390f35b61024f600480360381019061024a91906125b9565b610c42565b005b610259610c58565b6040516102669190612541565b60405180910390f35b610289600480360381019061028491906125f9565b610cec565b6040516102969190611f55565b60405180910390f35b6102a7610d80565b6040516102b49190612655565b60405180910390f35b6102d760048036038101906102d29190612670565b610d93565b005b6102f360048036038101906102ee9190611f70565b610e34565b005b60008073ffffffffffffffffffffffffffffffffffffffff168373ffffffffffffffffffffffffffffffffffffffff1603610365576040517f08c379a000000000000000000000000000000000000000000000000000000000815260040161035c90612779565b60405180910390fd5b60008083815260200190815260200160002060008473ffffffffffffffffffffffffffffffffffffffff1673ffffffffffffffffffffffffffffffffffffffff16815260200190815260200160002054905092915050565b60007fd9b67a26000000000000000000000000000000000000000000000000000000007bffffffffffffffffffffffffffffffffffffffffffffffffffffffff1916827bffffffffffffffffffffffffffffffffffffffffffffffffffffffff1916148061048857507f0e89341c000000000000000000000000000000000000000000000000000000007bffffffffffffffffffffffffffffffffffffffffffffffffffffffff1916827bffffffffffffffffffffffffffffffffffffffffffffffffffffffff1916145b80610498575061049782610eb7565b5b9050919050565b6104b3677f3b753a61c1895660c01b610f21565b6104c767873e597b9a010aeb60c01b610f21565b6104db678368dbacd6ea763960c01b610f21565b6000600190506104f567caca742361d6247660c01b610f21565b61050967f1d6712341fe0b2c60c01b610f21565b600061051f677b6db4532445cbc660c01b610f21565b61053367e5741baa22b28a8f60c01b610f21565b6000600190505b6003811161093f576105566790992f9d8320595660c01b610f21565b61056a67bc869ef3c4c1128960c01b610f21565b6000600190505b83811161092b5761058c67845c94fc74c98dce60c01b610f21565b6105a067156bf94ac09d771160c01b610f21565b6000600190505b6007811015610917576105c4673e6d45737040f2b460c01b610f21565b6105d867678962f99d37b20960c01b610f21565b60005b6005811015610903576105f86730c0aafc135147b660c01b610f21565b61060c67aea0270da210173060c01b610f21565b600081600a8461061c91906127c8565b60648661062991906127c8565b6103e88861063791906127c8565b610641919061280a565b61064b919061280a565b610655919061280a565b905061066b677cf138dbb8f953b860c01b610f21565b61067f67669939ab283b10d060c01b610f21565b600082036106ba5761069b67971788c1274a15ef60c01b610f21565b6106af67f9fda7a04120a4a860c01b610f21565b620f4240955061085b565b6106ce67f544133c4e47cf8360c01b610f21565b6106e26752af8143ed316b7560c01b610f21565b6001820361071d576106fe67184ba4fe578e3d3c60c01b610f21565b610712675d433a647dcd4f8a60c01b610f21565b620186a0955061085a565b610731678e03662d01085dda60c01b610f21565b61074567d41b529b630b320f60c01b610f21565b6002820361077f57610761677b610656be88669160c01b610f21565b6107756799321db6fbfe2dfa60c01b610f21565b6127109550610859565b610793675c6a48ad08939d8960c01b610f21565b6107a7672e28bb3f96a35f6460c01b610f21565b600382036107e1576107c3679549732c25d7c49960c01b610f21565b6107d7677e4ea30261e949a560c01b610f21565b6103e89550610858565b6107f567b55cbacb038f33fe60c01b610f21565b610809677cfddc16ab6f229860c01b610f21565b6004820361084257610825677d3c9cb6f100d96c60c01b610f21565b61083967e79b5f821dc52d4260c01b610f21565b60649550610857565b6108566717f6ee206788db8660c01b610f21565b5b5b5b5b5b61086f676294981e8fe9d82160c01b610f21565b6108836721a8a5ba53baea1d60c01b610f21565b61089e88828860405180602001604052806000815250610f24565b6108b267043c8b145cd3a26e60c01b610f21565b6108c66789576b570e664f6c60c01b610f21565b60048190806001815401808255809150506001900390600052602060002001600090919091909150555080806108fb9061283e565b9150506105db565b50808061090f9061283e565b9150506105a7565b5080806109239061283e565b915050610571565b5080806109379061283e565b91505061053a565b50505050565b606060028054610954906128b5565b80601f0160208091040260200160405190810160405280929190818152602001828054610980906128b5565b80156109cd5780601f106109a2576101008083540402835291602001916109cd565b820191906000526020600020905b8154815290600101906020018083116109b057829003601f168201915b50505050509050919050565b6109e16110d4565b73ffffffffffffffffffffffffffffffffffffffff168573ffffffffffffffffffffffffffffffffffffffff161480610a275750610a2685610a216110d4565b610cec565b5b610a66576040517f08c379a0000000000000000000000000000000000000000000000000000000008152600401610a5d90612958565b60405180910390fd5b610a7385858585856110dc565b5050505050565b610a8e672020ae2cf543896660c01b610f21565b610aa267bc750aaf370a068b60c01b610f21565b610ab667effd3edadb469f9860c01b610f21565b610ae881600560009054906101000a900460ff1660ff1664e8d4a5100060405180602001604052806000815250610f24565b50565b60608151835114610b31576040517f08c379a0000000000000000000000000000000000000000000000000000000008152600401610b28906129ea565b60405180910390fd5b6000835167ffffffffffffffff811115610b4e57610b4d612081565b5b604051908082528060200260200182016040528015610b7c5781602001602082028036833780820191505090505b50905060005b8451811015610bf957610bc9858281518110610ba157610ba0612a0a565b5b6020026020010151858381518110610bbc57610bbb612a0a565b5b60200260200101516102f5565b828281518110610bdc57610bdb612a0a565b5b60200260200101818152505080610bf29061283e565b9050610b82565b508091505092915050565b610c0c6113fd565b610c16600061147b565b565b6000600360009054906101000a900473ffffffffffffffffffffffffffffffffffffffff16905090565b610c54610c4d6110d4565b8383611541565b5050565b6060610c6e679d65ddd3f736312a60c01b610f21565b610c82678ddb059c01d7a67960c01b610f21565b610c96671fc9f175748ac62f60c01b610f21565b6004805480602002602001604051908101604052809291908181526020018280548015610ce257602002820191906000526020600020905b815481526020019060010190808311610cce575b5050505050905090565b6000600160008473ffffffffffffffffffffffffffffffffffffffff1673ffffffffffffffffffffffffffffffffffffffff16815260200190815260200160002060008373ffffffffffffffffffffffffffffffffffffffff1673ffffffffffffffffffffffffffffffffffffffff16815260200190815260200160002060009054906101000a900460ff16905092915050565b600560009054906101000a900460ff1681565b610d9b6110d4565b73ffffffffffffffffffffffffffffffffffffffff168573ffffffffffffffffffffffffffffffffffffffff161480610de15750610de085610ddb6110d4565b610cec565b5b610e20576040517f08c379a0000000000000000000000000000000000000000000000000000000008152600401610e1790612958565b60405180910390fd5b610e2d85858585856116ad565b5050505050565b610e3c6113fd565b600073ffffffffffffffffffffffffffffffffffffffff168173ffffffffffffffffffffffffffffffffffffffff1603610eab576040517f08c379a0000000000000000000000000000000000000000000000000000000008152600401610ea290612aab565b60405180910390fd5b610eb48161147b565b50565b60007f01ffc9a7000000000000000000000000000000000000000000000000000000007bffffffffffffffffffffffffffffffffffffffffffffffffffffffff1916827bffffffffffffffffffffffffffffffffffffffffffffffffffffffff1916149050919050565b50565b600073ffffffffffffffffffffffffffffffffffffffff168473ffffffffffffffffffffffffffffffffffffffff1603610f93576040517f08c379a0000000000000000000000000000000000000000000000000000000008152600401610f8a90612b3d565b60405180910390fd5b6000610f9d6110d4565b90506000610faa85611948565b90506000610fb785611948565b9050610fc8836000898585896119c2565b8460008088815260200190815260200160002060008973ffffffffffffffffffffffffffffffffffffffff1673ffffffffffffffffffffffffffffffffffffffff1681526020019081526020016000206000828254611027919061280a565b925050819055508673ffffffffffffffffffffffffffffffffffffffff16600073ffffffffffffffffffffffffffffffffffffffff168473ffffffffffffffffffffffffffffffffffffffff167fc3d58168c5ae7397731d063d5bbf3d657854427343f4c083240f7aacaa2d0f6289896040516110a5929190612b5d565b60405180910390a46110bc836000898585896119ca565b6110cb836000898989896119d2565b50505050505050565b600033905090565b8151835114611120576040517f08c379a000000000000000000000000000000000000000000000000000000000815260040161111790612bf8565b60405180910390fd5b600073ffffffffffffffffffffffffffffffffffffffff168473ffffffffffffffffffffffffffffffffffffffff160361118f576040517f08c379a000000000000000000000000000000000000000000000000000000000815260040161118690612c8a565b60405180910390fd5b60006111996110d4565b90506111a98187878787876119c2565b60005b845181101561135a5760008582815181106111ca576111c9612a0a565b5b6020026020010151905060008583815181106111e9576111e8612a0a565b5b60200260200101519050600080600084815260200190815260200160002060008b73ffffffffffffffffffffffffffffffffffffffff1673ffffffffffffffffffffffffffffffffffffffff1681526020019081526020016000205490508181101561128a576040517f08c379a000000000000000000000000000000000000000000000000000000000815260040161128190612d1c565b60405180910390fd5b81810360008085815260200190815260200160002060008c73ffffffffffffffffffffffffffffffffffffffff1673ffffffffffffffffffffffffffffffffffffffff168152602001908152602001600020819055508160008085815260200190815260200160002060008b73ffffffffffffffffffffffffffffffffffffffff1673ffffffffffffffffffffffffffffffffffffffff168152602001908152602001600020600082825461133f919061280a565b92505081905550505050806113539061283e565b90506111ac565b508473ffffffffffffffffffffffffffffffffffffffff168673ffffffffffffffffffffffffffffffffffffffff168273ffffffffffffffffffffffffffffffffffffffff167f4a39dc06d4c0dbc64b70af90fd698a233a518aa5d07e595d983b8c0526c8f7fb87876040516113d1929190612d3c565b60405180910390a46113e78187878787876119ca565b6113f5818787878787611ba9565b505050505050565b6114056110d4565b73ffffffffffffffffffffffffffffffffffffffff16611423610c18565b73ffffffffffffffffffffffffffffffffffffffff1614611479576040517f08c379a000000000000000000000000000000000000000000000000000000000815260040161147090612dbf565b60405180910390fd5b565b6000600360009054906101000a900473ffffffffffffffffffffffffffffffffffffffff16905081600360006101000a81548173ffffffffffffffffffffffffffffffffffffffff021916908373ffffffffffffffffffffffffffffffffffffffff1602179055508173ffffffffffffffffffffffffffffffffffffffff168173ffffffffffffffffffffffffffffffffffffffff167f8be0079c531659141344cd1fd0a4f28419497f9722a3daafe3b4186f6b6457e060405160405180910390a35050565b8173ffffffffffffffffffffffffffffffffffffffff168373ffffffffffffffffffffffffffffffffffffffff16036115af576040517f08c379a00000000000000000000000000000000000000000000000000000000081526004016115a690612e51565b60405180910390fd5b80600160008573ffffffffffffffffffffffffffffffffffffffff1673ffffffffffffffffffffffffffffffffffffffff16815260200190815260200160002060008473ffffffffffffffffffffffffffffffffffffffff1673ffffffffffffffffffffffffffffffffffffffff16815260200190815260200160002060006101000a81548160ff0219169083151502179055508173ffffffffffffffffffffffffffffffffffffffff168373ffffffffffffffffffffffffffffffffffffffff167f17307eab39ab6107e8899845ad3d59bd9653f200f220920489ca2b5937696c31836040516116a09190611f55565b60405180910390a3505050565b600073ffffffffffffffffffffffffffffffffffffffff168473ffffffffffffffffffffffffffffffffffffffff160361171c576040517f08c379a000000000000000000000000000000000000000000000000000000000815260040161171390612c8a565b60405180910390fd5b60006117266110d4565b9050600061173385611948565b9050600061174085611948565b90506117508389898585896119c2565b600080600088815260200190815260200160002060008a73ffffffffffffffffffffffffffffffffffffffff1673ffffffffffffffffffffffffffffffffffffffff168152602001908152602001600020549050858110156117e7576040517f08c379a00000000000000000000000000000000000000000000000000000000081526004016117de90612d1c565b60405180910390fd5b85810360008089815260200190815260200160002060008b73ffffffffffffffffffffffffffffffffffffffff1673ffffffffffffffffffffffffffffffffffffffff168152602001908152602001600020819055508560008089815260200190815260200160002060008a73ffffffffffffffffffffffffffffffffffffffff1673ffffffffffffffffffffffffffffffffffffffff168152602001908152602001600020600082825461189c919061280a565b925050819055508773ffffffffffffffffffffffffffffffffffffffff168973ffffffffffffffffffffffffffffffffffffffff168573ffffffffffffffffffffffffffffffffffffffff167fc3d58168c5ae7397731d063d5bbf3d657854427343f4c083240f7aacaa2d0f628a8a604051611919929190612b5d565b60405180910390a461192f848a8a86868a6119ca565b61193d848a8a8a8a8a6119d2565b505050505050505050565b60606000600167ffffffffffffffff81111561196757611966612081565b5b6040519080825280602002602001820160405280156119955781602001602082028036833780820191505090505b50905082816000815181106119ad576119ac612a0a565b5b60200260200101818152505080915050919050565b505050505050565b505050505050565b6119f18473ffffffffffffffffffffffffffffffffffffffff16611d80565b15611ba1578373ffffffffffffffffffffffffffffffffffffffff1663f23a6e6187878686866040518663ffffffff1660e01b8152600401611a37959493929190612ec6565b6020604051808303816000875af1925050508015611a7357506040513d601f19601f82011682018060405250810190611a709190612f35565b60015b611b1857611a7f612f6f565b806308c379a003611adb5750611a93612f91565b80611a9e5750611add565b806040517f08c379a0000000000000000000000000000000000000000000000000000000008152600401611ad2919061205a565b60405180910390fd5b505b6040517f08c379a0000000000000000000000000000000000000000000000000000000008152600401611b0f90613093565b60405180910390fd5b63f23a6e6160e01b7bffffffffffffffffffffffffffffffffffffffffffffffffffffffff1916817bffffffffffffffffffffffffffffffffffffffffffffffffffffffff191614611b9f576040517f08c379a0000000000000000000000000000000000000000000000000000000008152600401611b9690613125565b60405180910390fd5b505b505050505050565b611bc88473ffffffffffffffffffffffffffffffffffffffff16611d80565b15611d78578373ffffffffffffffffffffffffffffffffffffffff1663bc197c8187878686866040518663ffffffff1660e01b8152600401611c0e959493929190613145565b6020604051808303816000875af1925050508015611c4a57506040513d601f19601f82011682018060405250810190611c479190612f35565b60015b611cef57611c56612f6f565b806308c379a003611cb25750611c6a612f91565b80611c755750611cb4565b806040517f08c379a0000000000000000000000000000000000000000000000000000000008152600401611ca9919061205a565b60405180910390fd5b505b6040517f08c379a0000000000000000000000000000000000000000000000000000000008152600401611ce690613093565b60405180910390fd5b63bc197c8160e01b7bffffffffffffffffffffffffffffffffffffffffffffffffffffffff1916817bffffffffffffffffffffffffffffffffffffffffffffffffffffffff191614611d76576040517f08c379a0000000000000000000000000000000000000000000000000000000008152600401611d6d90613125565b60405180910390fd5b505b505050505050565b6000808273ffffffffffffffffffffffffffffffffffffffff163b119050919050565b6000604051905090565b600080fd5b600080fd5b600073ffffffffffffffffffffffffffffffffffffffff82169050919050565b6000611de282611db7565b9050919050565b611df281611dd7565b8114611dfd57600080fd5b50565b600081359050611e0f81611de9565b92915050565b6000819050919050565b611e2881611e15565b8114611e3357600080fd5b50565b600081359050611e4581611e1f565b92915050565b60008060408385031215611e6257611e61611dad565b5b6000611e7085828601611e00565b9250506020611e8185828601611e36565b9150509250929050565b611e9481611e15565b82525050565b6000602082019050611eaf6000830184611e8b565b92915050565b60007fffffffff0000000000000000000000000000000000000000000000000000000082169050919050565b611eea81611eb5565b8114611ef557600080fd5b50565b600081359050611f0781611ee1565b92915050565b600060208284031215611f2357611f22611dad565b5b6000611f3184828501611ef8565b91505092915050565b60008115159050919050565b611f4f81611f3a565b82525050565b6000602082019050611f6a6000830184611f46565b92915050565b600060208284031215611f8657611f85611dad565b5b6000611f9484828501611e00565b91505092915050565b600060208284031215611fb357611fb2611dad565b5b6000611fc184828501611e36565b91505092915050565b600081519050919050565b600082825260208201905092915050565b60005b83811015612004578082015181840152602081019050611fe9565b60008484015250505050565b6000601f19601f8301169050919050565b600061202c82611fca565b6120368185611fd5565b9350612046818560208601611fe6565b61204f81612010565b840191505092915050565b600060208201905081810360008301526120748184612021565b905092915050565b600080fd5b7f4e487b7100000000000000000000000000000000000000000000000000000000600052604160045260246000fd5b6120b982612010565b810181811067ffffffffffffffff821117156120d8576120d7612081565b5b80604052505050565b60006120eb611da3565b90506120f782826120b0565b919050565b600067ffffffffffffffff82111561211757612116612081565b5b602082029050602081019050919050565b600080fd5b600061214061213b846120fc565b6120e1565b9050808382526020820190506020840283018581111561216357612162612128565b5b835b8181101561218c57806121788882611e36565b845260208401935050602081019050612165565b5050509392505050565b600082601f8301126121ab576121aa61207c565b5b81356121bb84826020860161212d565b91505092915050565b600080fd5b600067ffffffffffffffff8211156121e4576121e3612081565b5b6121ed82612010565b9050602081019050919050565b82818337600083830152505050565b600061221c612217846121c9565b6120e1565b905082815260208101848484011115612238576122376121c4565b5b6122438482856121fa565b509392505050565b600082601f8301126122605761225f61207c565b5b8135612270848260208601612209565b91505092915050565b600080600080600060a0868803121561229557612294611dad565b5b60006122a388828901611e00565b95505060206122b488828901611e00565b945050604086013567ffffffffffffffff8111156122d5576122d4611db2565b5b6122e188828901612196565b935050606086013567ffffffffffffffff81111561230257612301611db2565b5b61230e88828901612196565b925050608086013567ffffffffffffffff81111561232f5761232e611db2565b5b61233b8882890161224b565b9150509295509295909350565b600067ffffffffffffffff82111561236357612362612081565b5b602082029050602081019050919050565b600061238761238284612348565b6120e1565b905080838252602082019050602084028301858111156123aa576123a9612128565b5b835b818110156123d357806123bf8882611e00565b8452602084019350506020810190506123ac565b5050509392505050565b600082601f8301126123f2576123f161207c565b5b8135612402848260208601612374565b91505092915050565b6000806040838503121561242257612421611dad565b5b600083013567ffffffffffffffff8111156124405761243f611db2565b5b61244c858286016123dd565b925050602083013567ffffffffffffffff81111561246d5761246c611db2565b5b61247985828601612196565b9150509250929050565b600081519050919050565b600082825260208201905092915050565b6000819050602082019050919050565b6124b881611e15565b82525050565b60006124ca83836124af565b60208301905092915050565b6000602082019050919050565b60006124ee82612483565b6124f8818561248e565b93506125038361249f565b8060005b8381101561253457815161251b88826124be565b9750612526836124d6565b925050600181019050612507565b5085935050505092915050565b6000602082019050818103600083015261255b81846124e3565b905092915050565b61256c81611dd7565b82525050565b60006020820190506125876000830184612563565b92915050565b61259681611f3a565b81146125a157600080fd5b50565b6000813590506125b38161258d565b92915050565b600080604083850312156125d0576125cf611dad565b5b60006125de85828601611e00565b92505060206125ef858286016125a4565b9150509250929050565b600080604083850312156126105761260f611dad565b5b600061261e85828601611e00565b925050602061262f85828601611e00565b9150509250929050565b600060ff82169050919050565b61264f81612639565b82525050565b600060208201905061266a6000830184612646565b92915050565b600080600080600060a0868803121561268c5761268b611dad565b5b600061269a88828901611e00565b95505060206126ab88828901611e00565b94505060406126bc88828901611e36565b93505060606126cd88828901611e36565b925050608086013567ffffffffffffffff8111156126ee576126ed611db2565b5b6126fa8882890161224b565b9150509295509295909350565b7f455243313135353a2061646472657373207a65726f206973206e6f742061207660008201527f616c6964206f776e657200000000000000000000000000000000000000000000602082015250565b6000612763602a83611fd5565b915061276e82612707565b604082019050919050565b6000602082019050818103600083015261279281612756565b9050919050565b7f4e487b7100000000000000000000000000000000000000000000000000000000600052601160045260246000fd5b60006127d382611e15565b91506127de83611e15565b92508282026127ec81611e15565b9150828204841483151761280357612802612799565b5b5092915050565b600061281582611e15565b915061282083611e15565b925082820190508082111561283857612837612799565b5b92915050565b600061284982611e15565b91507fffffffffffffffffffffffffffffffffffffffffffffffffffffffffffffffff820361287b5761287a612799565b5b600182019050919050565b7f4e487b7100000000000000000000000000000000000000000000000000000000600052602260045260246000fd5b600060028204905060018216806128cd57607f821691505b6020821081036128e0576128df612886565b5b50919050565b7f455243313135353a2063616c6c6572206973206e6f7420746f6b656e206f776e60008201527f6572206f7220617070726f766564000000000000000000000000000000000000602082015250565b6000612942602e83611fd5565b915061294d826128e6565b604082019050919050565b6000602082019050818103600083015261297181612935565b9050919050565b7f455243313135353a206163636f756e747320616e6420696473206c656e67746860008201527f206d69736d617463680000000000000000000000000000000000000000000000602082015250565b60006129d4602983611fd5565b91506129df82612978565b604082019050919050565b60006020820190508181036000830152612a03816129c7565b9050919050565b7f4e487b7100000000000000000000000000000000000000000000000000000000600052603260045260246000fd5b7f4f776e61626c653a206e6577206f776e657220697320746865207a65726f206160008201527f6464726573730000000000000000000000000000000000000000000000000000602082015250565b6000612a95602683611fd5565b9150612aa082612a39565b604082019050919050565b60006020820190508181036000830152612ac481612a88565b9050919050565b7f455243313135353a206d696e7420746f20746865207a65726f2061646472657360008201527f7300000000000000000000000000000000000000000000000000000000000000602082015250565b6000612b27602183611fd5565b9150612b3282612acb565b604082019050919050565b60006020820190508181036000830152612b5681612b1a565b9050919050565b6000604082019050612b726000830185611e8b565b612b7f6020830184611e8b565b9392505050565b7f455243313135353a2069647320616e6420616d6f756e7473206c656e6774682060008201527f6d69736d61746368000000000000000000000000000000000000000000000000602082015250565b6000612be2602883611fd5565b9150612bed82612b86565b604082019050919050565b60006020820190508181036000830152612c1181612bd5565b9050919050565b7f455243313135353a207472616e7366657220746f20746865207a65726f20616460008201527f6472657373000000000000000000000000000000000000000000000000000000602082015250565b6000612c74602583611fd5565b9150612c7f82612c18565b604082019050919050565b60006020820190508181036000830152612ca381612c67565b9050919050565b7f455243313135353a20696e73756666696369656e742062616c616e636520666f60008201527f72207472616e7366657200000000000000000000000000000000000000000000602082015250565b6000612d06602a83611fd5565b9150612d1182612caa565b604082019050919050565b60006020820190508181036000830152612d3581612cf9565b9050919050565b60006040820190508181036000830152612d5681856124e3565b90508181036020830152612d6a81846124e3565b90509392505050565b7f4f776e61626c653a2063616c6c6572206973206e6f7420746865206f776e6572600082015250565b6000612da9602083611fd5565b9150612db482612d73565b602082019050919050565b60006020820190508181036000830152612dd881612d9c565b9050919050565b7f455243313135353a2073657474696e6720617070726f76616c2073746174757360008201527f20666f722073656c660000000000000000000000000000000000000000000000602082015250565b6000612e3b602983611fd5565b9150612e4682612ddf565b604082019050919050565b60006020820190508181036000830152612e6a81612e2e565b9050919050565b600081519050919050565b600082825260208201905092915050565b6000612e9882612e71565b612ea28185612e7c565b9350612eb2818560208601611fe6565b612ebb81612010565b840191505092915050565b600060a082019050612edb6000830188612563565b612ee86020830187612563565b612ef56040830186611e8b565b612f026060830185611e8b565b8181036080830152612f148184612e8d565b90509695505050505050565b600081519050612f2f81611ee1565b92915050565b600060208284031215612f4b57612f4a611dad565b5b6000612f5984828501612f20565b91505092915050565b60008160e01c9050919050565b600060033d1115612f8e5760046000803e612f8b600051612f62565b90505b90565b600060443d1061301e57612fa3611da3565b60043d036004823e80513d602482011167ffffffffffffffff82111715612fcb57505061301e565b808201805167ffffffffffffffff811115612fe9575050505061301e565b80602083010160043d03850181111561300657505050505061301e565b613015826020018501866120b0565b82955050505050505b90565b7f455243313135353a207472616e7366657220746f206e6f6e2d4552433131353560008201527f526563656976657220696d706c656d656e746572000000000000000000000000602082015250565b600061307d603483611fd5565b915061308882613021565b604082019050919050565b600060208201905081810360008301526130ac81613070565b9050919050565b7f455243313135353a204552433131353552656365697665722072656a6563746560008201527f6420746f6b656e73000000000000000000000000000000000000000000000000602082015250565b600061310f602883611fd5565b915061311a826130b3565b604082019050919050565b6000602082019050818103600083015261313e81613102565b9050919050565b600060a08201905061315a6000830188612563565b6131676020830187612563565b818103604083015261317981866124e3565b9050818103606083015261318d81856124e3565b905081810360808301526131a18184612e8d565b9050969550505050505056fea26469706673582212203930c85f91f3e3c9acc4e02f47f030df18295b1e0317dc05141a2aa2a5c9733064736f6c6343000812003368747470733a2f2f697066732e696f2f697066732f516d5469784e5a506f644c677264676a633248596d5255715252364856344a776e57535365675a6f6d76453345782f7b69647d2e6a736f6ea26469706673582212201a533183b0b73774316f81171edc114098e3927fa76e484d0bc4d19d3f5bc28d64736f6c63430008120033",
  "linkReferences": {},
  "deployedLinkReferences": {}
}