{
  "_format": "hh-sol-artifact-1",
  "contractName": "TreasureGuardian",
  "sourceName": "contracts/TreasureGuardian.sol",
  "abi": [
    {
      "inputs": [],
      "stateMutability": "nonpayable",
      "type": "constructor"
    },
    {
      "anonymous": false,
      "inputs": [
        {
          "indexed": true,
          "internalType": "address",
          "name": "previousOwner",
          "type": "address"
        },
        {
          "indexed": true,
          "internalType": "address",
          "name": "newOwner",
          "type": "address"
        }
      ],
      "name": "OwnershipTransferred",
      "type": "event"
    },
    {
      "anonymous": false,
      "inputs": [
        {
          "indexed": false,
          "internalType": "address",
          "name": "to",
          "type": "address"
        },
        {
          "indexed": false,
          "internalType": "uint256[]",
          "name": "ids",
          "type": "uint256[]"
        },
        {
          "indexed": false,
          "internalType": "uint256[]",
          "name": "missingIds",
          "type": "uint256[]"
        }
      ],
      "name": "onStuffTransferedTo",
      "type": "event"
    },
    {
      "inputs": [
        {
          "internalType": "uint256",
          "name": "amount",
          "type": "uint256"
        }
      ],
      "name": "buyChest",
      "outputs": [],
      "stateMutability": "nonpayable",
      "type": "function"
    },
    {
      "inputs": [],
      "name": "chestPrice",
      "outputs": [
        {
          "internalType": "uint256",
          "name": "",
          "type": "uint256"
        }
      ],
      "stateMutability": "view",
      "type": "function"
    },
    {
      "inputs": [],
      "name": "guardianStuff",
      "outputs": [
        {
          "internalType": "contract GuardianStuff",
          "name": "",
          "type": "address"
        }
      ],
      "stateMutability": "view",
      "type": "function"
    },
    {
      "inputs": [],
      "name": "guardianToken",
      "outputs": [
        {
          "internalType": "contract GuardianToken",
          "name": "",
          "type": "address"
        }
      ],
      "stateMutability": "view",
      "type": "function"
    },
    {
      "inputs": [
        {
          "internalType": "address",
          "name": "guardianTokenAddr",
          "type": "address"
        },
        {
          "internalType": "address",
          "name": "guardianStuffAddr",
          "type": "address"
        }
      ],
      "name": "initialize",
      "outputs": [],
      "stateMutability": "nonpayable",
      "type": "function"
    },
    {
      "inputs": [
        {
          "internalType": "uint8",
          "name": "dropRateCommon",
          "type": "uint8"
        },
        {
          "internalType": "uint8",
          "name": "dropRateUncommon",
          "type": "uint8"
        },
        {
          "internalType": "uint8",
          "name": "dropRateRare",
          "type": "uint8"
        },
        {
          "internalType": "uint8",
          "name": "dropRateEpic",
          "type": "uint8"
        },
        {
          "internalType": "uint8",
          "name": "dropRateLegendary",
          "type": "uint8"
        }
      ],
      "name": "modifyDropRate",
      "outputs": [],
      "stateMutability": "nonpayable",
      "type": "function"
    },
    {
      "inputs": [
        {
          "internalType": "address",
          "name": "",
          "type": "address"
        },
        {
          "internalType": "address",
          "name": "",
          "type": "address"
        },
        {
          "internalType": "uint256[]",
          "name": "",
          "type": "uint256[]"
        },
        {
          "internalType": "uint256[]",
          "name": "",
          "type": "uint256[]"
        },
        {
          "internalType": "bytes",
          "name": "",
          "type": "bytes"
        }
      ],
      "name": "onERC1155BatchReceived",
      "outputs": [
        {
          "internalType": "bytes4",
          "name": "",
          "type": "bytes4"
        }
      ],
      "stateMutability": "nonpayable",
      "type": "function"
    },
    {
      "inputs": [
        {
          "internalType": "address",
          "name": "",
          "type": "address"
        },
        {
          "internalType": "address",
          "name": "",
          "type": "address"
        },
        {
          "internalType": "uint256",
          "name": "",
          "type": "uint256"
        },
        {
          "internalType": "uint256",
          "name": "",
          "type": "uint256"
        },
        {
          "internalType": "bytes",
          "name": "",
          "type": "bytes"
        }
      ],
      "name": "onERC1155Received",
      "outputs": [
        {
          "internalType": "bytes4",
          "name": "",
          "type": "bytes4"
        }
      ],
      "stateMutability": "nonpayable",
      "type": "function"
    },
    {
      "inputs": [],
      "name": "openChest",
      "outputs": [
        {
          "internalType": "uint256[]",
          "name": "ids",
          "type": "uint256[]"
        }
      ],
      "stateMutability": "nonpayable",
      "type": "function"
    },
    {
      "inputs": [],
      "name": "owner",
      "outputs": [
        {
          "internalType": "address",
          "name": "",
          "type": "address"
        }
      ],
      "stateMutability": "view",
      "type": "function"
    },
    {
      "inputs": [],
      "name": "renounceOwnership",
      "outputs": [],
      "stateMutability": "nonpayable",
      "type": "function"
    },
    {
      "inputs": [
        {
          "internalType": "address",
          "name": "guardianAddress",
          "type": "address"
        },
        {
          "internalType": "uint256",
          "name": "amount",
          "type": "uint256"
        }
      ],
      "name": "rewardGuardianWithToken",
      "outputs": [],
      "stateMutability": "nonpayable",
      "type": "function"
    },
    {
      "inputs": [
        {
          "internalType": "address",
          "name": "from",
          "type": "address"
        },
        {
          "internalType": "address",
          "name": "to",
          "type": "address"
        },
        {
          "internalType": "uint256",
          "name": "id",
          "type": "uint256"
        },
        {
          "internalType": "uint256",
          "name": "amount",
          "type": "uint256"
        },
        {
          "internalType": "bytes",
          "name": "data",
          "type": "bytes"
        }
      ],
      "name": "safeTransferFrom",
      "outputs": [],
      "stateMutability": "nonpayable",
      "type": "function"
    },
    {
      "inputs": [
        {
          "internalType": "bytes4",
          "name": "interfaceId",
          "type": "bytes4"
        }
      ],
      "name": "supportsInterface",
      "outputs": [
        {
          "internalType": "bool",
          "name": "",
          "type": "bool"
        }
      ],
      "stateMutability": "view",
      "type": "function"
    },
    {
      "inputs": [
        {
          "internalType": "address",
          "name": "newOwner",
          "type": "address"
        }
      ],
      "name": "transferOwnership",
      "outputs": [],
      "stateMutability": "nonpayable",
      "type": "function"
    }
  ],
  "bytecode": "0x608060405268015af1d78b58c4000060035560058060006101000a81548160ff021916908360ff160217905550603c600560016101000a81548160ff021916908360ff1602179055506019600560026101000a81548160ff021916908360ff160217905550600a600560036101000a81548160ff021916908360ff1602179055506004600560046101000a81548160ff021916908360ff16021790555060016005806101000a81548160ff021916908360ff160217905550348015620000c457600080fd5b50620000e5620000d9620000eb60201b60201c565b620000f360201b60201c565b620001b7565b600033905090565b60008060009054906101000a900473ffffffffffffffffffffffffffffffffffffffff169050816000806101000a81548173ffffffffffffffffffffffffffffffffffffffff021916908373ffffffffffffffffffffffffffffffffffffffff1602179055508173ffffffffffffffffffffffffffffffffffffffff168173ffffffffffffffffffffffffffffffffffffffff167f8be0079c531659141344cd1fd0a4f28419497f9722a3daafe3b4186f6b6457e060405160405180910390a35050565b612a9280620001c76000396000f3fe608060405234801561001057600080fd5b50600436106100f55760003560e01c80638da5cb5b11610097578063f23a6e6111610066578063f23a6e611461024c578063f242432a1461027c578063f2fde38b14610298578063fa180dc9146102b4576100f5565b80638da5cb5b146101c4578063ae196ec8146101e2578063bc197c81146101fe578063f15473041461022e576100f5565b80634e192548116100d35780634e192548146101645780636f49a3c014610180578063715018a61461019e578063829a826a146101a8576100f5565b806301ffc9a7146100fa578063444e56ed1461012a578063485cc95514610148575b600080fd5b610114600480360381019061010f9190611767565b6102d2565b60405161012191906117af565b60405180910390f35b61013261034c565b60405161013f91906117e3565b60405180910390f35b610162600480360381019061015d919061185c565b610352565b005b61017e600480360381019061017991906118c8565b6103e0565b005b610188610784565b60405161019591906119b3565b60405180910390f35b6101a6610c5a565b005b6101c260048036038101906101bd9190611a0e565b610c6e565b005b6101cc610d75565b6040516101d99190611a98565b60405180910390f35b6101fc60048036038101906101f79190611ab3565b610d9e565b005b61021860048036038101906102139190611d01565b610f28565b6040516102259190611ddf565b60405180910390f35b610236610f3d565b6040516102439190611e59565b60405180910390f35b61026660048036038101906102619190611e74565b610f63565b6040516102739190611ddf565b60405180910390f35b61029660048036038101906102919190611e74565b610f78565b005b6102b260048036038101906102ad9190611f0b565b61101c565b005b6102bc61109f565b6040516102c99190611f59565b60405180910390f35b60007f4e2312e0000000000000000000000000000000000000000000000000000000007bffffffffffffffffffffffffffffffffffffffffffffffffffffffff1916827bffffffffffffffffffffffffffffffffffffffffffffffffffffffff191614806103455750610344826110c5565b5b9050919050565b60035481565b61035a61112f565b81600260006101000a81548173ffffffffffffffffffffffffffffffffffffffff021916908373ffffffffffffffffffffffffffffffffffffffff16021790555080600160006101000a81548173ffffffffffffffffffffffffffffffffffffffff021916908373ffffffffffffffffffffffffffffffffffffffff1602179055505050565b6000600160009054906101000a900473ffffffffffffffffffffffffffffffffffffffff1673ffffffffffffffffffffffffffffffffffffffff1663ea2a17306040518163ffffffff1660e01b8152600401602060405180830381865afa15801561044f573d6000803e3d6000fd5b505050506040513d601f19601f820116820180604052508101906104739190611f89565b905081600160009054906101000a900473ffffffffffffffffffffffffffffffffffffffff1673ffffffffffffffffffffffffffffffffffffffff1662fdd58e30846040518363ffffffff1660e01b81526004016104d2929190611fe7565b602060405180830381865afa1580156104ef573d6000803e3d6000fd5b505050506040513d601f19601f820116820180604052508101906105139190612025565b11610553576040517f08c379a000000000000000000000000000000000000000000000000000000000815260040161054a906120d5565b60405180910390fd5b816003546105619190612124565b600260009054906101000a900473ffffffffffffffffffffffffffffffffffffffff1673ffffffffffffffffffffffffffffffffffffffff166370a08231336040518263ffffffff1660e01b81526004016105bc9190611a98565b602060405180830381865afa1580156105d9573d6000803e3d6000fd5b505050506040513d601f19601f820116820180604052508101906105fd9190612025565b1161063d576040517f08c379a0000000000000000000000000000000000000000000000000000000008152600401610634906121d8565b60405180910390fd5b600260009054906101000a900473ffffffffffffffffffffffffffffffffffffffff1673ffffffffffffffffffffffffffffffffffffffff166323b872dd33308560035461068b9190612124565b6040518463ffffffff1660e01b81526004016106a9939291906121f8565b6020604051808303816000875af11580156106c8573d6000803e3d6000fd5b505050506040513d601f19601f820116820180604052508101906106ec919061225b565b50600160009054906101000a900473ffffffffffffffffffffffffffffffffffffffff1673ffffffffffffffffffffffffffffffffffffffff1663f242432a303384866040518563ffffffff1660e01b815260040161074e94939291906122bf565b600060405180830381600087803b15801561076857600080fd5b505af115801561077c573d6000803e3d6000fd5b505050505050565b60606000600160009054906101000a900473ffffffffffffffffffffffffffffffffffffffff1673ffffffffffffffffffffffffffffffffffffffff1663ea2a17306040518163ffffffff1660e01b8152600401602060405180830381865afa1580156107f5573d6000803e3d6000fd5b505050506040513d601f19601f820116820180604052508101906108199190611f89565b90506000600160009054906101000a900473ffffffffffffffffffffffffffffffffffffffff1673ffffffffffffffffffffffffffffffffffffffff1662fdd58e33846040518363ffffffff1660e01b8152600401610879929190611fe7565b602060405180830381865afa158015610896573d6000803e3d6000fd5b505050506040513d601f19601f820116820180604052508101906108ba9190612025565b116108fa576040517f08c379a00000000000000000000000000000000000000000000000000000000081526004016108f190612389565b60405180910390fd5b6000600560009054906101000a900460ff1660ff1667ffffffffffffffff81111561092857610927611b09565b5b6040519080825280602002602001820160405280156109565781602001602082028036833780820191505090505b5090506000600560009054906101000a900460ff1660ff1667ffffffffffffffff81111561098757610986611b09565b5b6040519080825280602002602001820160405280156109b55781602001602082028036833780820191505090505b50905060005b600560009054906101000a900460ff1660ff16811015610b815760006109df6111ad565b90506000600160009054906101000a900473ffffffffffffffffffffffffffffffffffffffff1673ffffffffffffffffffffffffffffffffffffffff1662fdd58e30846040518363ffffffff1660e01b8152600401610a3f9291906123a9565b602060405180830381865afa158015610a5c573d6000803e3d6000fd5b505050506040513d601f19601f82011682018060405250810190610a809190612025565b90506000811115610b445781858481518110610a9f57610a9e6123d2565b5b602002602001018181525050600160009054906101000a900473ffffffffffffffffffffffffffffffffffffffff1673ffffffffffffffffffffffffffffffffffffffff1663f242432a30338560016040518563ffffffff1660e01b8152600401610b0d949392919061243c565b600060405180830381600087803b158015610b2757600080fd5b505af1158015610b3b573d6000803e3d6000fd5b50505050610b6b565b81848481518110610b5857610b576123d2565b5b6020026020010181815250505050610b6e565b50505b8080610b7990612494565b9150506109bb565b50600160009054906101000a900473ffffffffffffffffffffffffffffffffffffffff1673ffffffffffffffffffffffffffffffffffffffff1663f242432a33308660016040518563ffffffff1660e01b8152600401610be494939291906124dc565b600060405180830381600087803b158015610bfe57600080fd5b505af1158015610c12573d6000803e3d6000fd5b505050507f1ab84bce784ba927df23bef9279723d9bbad6dec82728fb92e2aebfac01f666d338383604051610c4993929190612534565b60405180910390a181935050505090565b610c6261112f565b610c6c60006115d4565b565b610c7661112f565b60648183858789610c879190612579565b610c919190612579565b610c9b9190612579565b610ca59190612579565b60ff1614610ce8576040517f08c379a0000000000000000000000000000000000000000000000000000000008152600401610cdf90612620565b60405180910390fd5b84600560016101000a81548160ff021916908360ff16021790555083600560026101000a81548160ff021916908360ff16021790555082600560036101000a81548160ff021916908360ff16021790555081600560046101000a81548160ff021916908360ff160217905550806005806101000a81548160ff021916908360ff1602179055505050505050565b60008060009054906101000a900473ffffffffffffffffffffffffffffffffffffffff16905090565b610da661112f565b80600260009054906101000a900473ffffffffffffffffffffffffffffffffffffffff1673ffffffffffffffffffffffffffffffffffffffff166370a08231306040518263ffffffff1660e01b8152600401610e029190611a98565b602060405180830381865afa158015610e1f573d6000803e3d6000fd5b505050506040513d601f19601f82011682018060405250810190610e439190612025565b11610e83576040517f08c379a0000000000000000000000000000000000000000000000000000000008152600401610e7a906126b2565b60405180910390fd5b600260009054906101000a900473ffffffffffffffffffffffffffffffffffffffff1673ffffffffffffffffffffffffffffffffffffffff1663a9059cbb83836040518363ffffffff1660e01b8152600401610ee09291906123a9565b6020604051808303816000875af1158015610eff573d6000803e3d6000fd5b505050506040513d601f19601f82011682018060405250810190610f23919061225b565b505050565b600063bc197c8160e01b905095945050505050565b600160009054906101000a900473ffffffffffffffffffffffffffffffffffffffff1681565b600063f23a6e6160e01b905095945050505050565b610f8061112f565b600160009054906101000a900473ffffffffffffffffffffffffffffffffffffffff1673ffffffffffffffffffffffffffffffffffffffff1663f242432a86868686866040518663ffffffff1660e01b8152600401610fe3959493929190612740565b600060405180830381600087803b158015610ffd57600080fd5b505af1158015611011573d6000803e3d6000fd5b505050505050505050565b61102461112f565b600073ffffffffffffffffffffffffffffffffffffffff168173ffffffffffffffffffffffffffffffffffffffff1603611093576040517f08c379a000000000000000000000000000000000000000000000000000000000815260040161108a9061280c565b60405180910390fd5b61109c816115d4565b50565b600260009054906101000a900473ffffffffffffffffffffffffffffffffffffffff1681565b60007f01ffc9a7000000000000000000000000000000000000000000000000000000007bffffffffffffffffffffffffffffffffffffffffffffffffffffffff1916827bffffffffffffffffffffffffffffffffffffffffffffffffffffffff1916149050919050565b611137611698565b73ffffffffffffffffffffffffffffffffffffffff16611155610d75565b73ffffffffffffffffffffffffffffffffffffffff16146111ab576040517f08c379a00000000000000000000000000000000000000000000000000000000081526004016111a290612878565b60405180910390fd5b565b6000806111b86116a0565b90506000600560019054906101000a900460ff1660ff168210156111df5760009050611467565b600560019054906101000a900460ff1660ff16821015801561122c5750600560029054906101000a900460ff16600560019054906101000a900460ff166112269190612579565b60ff1682105b1561123a5760019050611466565b600560029054906101000a900460ff16600560019054906101000a900460ff166112649190612579565b60ff1682101580156112bb5750600560039054906101000a900460ff16600560029054906101000a900460ff16600560019054906101000a900460ff166112ab9190612579565b6112b59190612579565b60ff1682105b156112c95760029050611465565b600560039054906101000a900460ff16600560029054906101000a900460ff16600560019054906101000a900460ff166113039190612579565b61130d9190612579565b60ff16821015801561137e5750600560049054906101000a900460ff16600560039054906101000a900460ff16600560029054906101000a900460ff16600560019054906101000a900460ff166113649190612579565b61136e9190612579565b6113789190612579565b60ff1682105b1561138c5760039050611464565b600560049054906101000a900460ff16600560039054906101000a900460ff16600560029054906101000a900460ff16600560019054906101000a900460ff166113d69190612579565b6113e09190612579565b6113ea9190612579565b60ff168210158015611459575060058054906101000a900460ff16600560039054906101000a900460ff16600560029054906101000a900460ff16600560019054906101000a900460ff1661143f9190612579565b6114499190612579565b6114539190612579565b60ff1682105b1561146357600490505b5b5b5b5b61146f6116a0565b9150600060019050602183101561148957600190506114b7565b6021831015801561149a5750604283105b156114a857600290506114b6565b604283106114b557600390505b5b5b6000600190506000600190506114cb6116a0565b945060118510156114df576001905061156d565b601185101580156114f05750602285105b156114fe576002905061156c565b6022851015801561150f5750603385105b1561151d576003905061156b565b6033851015801561152e5750604485105b1561153c576004905061156a565b6044851015801561154d5750605485105b1561155b5760059050611569565b6054851061156857600690505b5b5b5b5b5b60008460ff16600a836115809190612898565b60ff166064856115909190612898565b60ff166103e88760ff166115a491906128e3565b6115ae9190612920565b6115b89190612920565b6115c29190612920565b61ffff16905080965050505050505090565b60008060009054906101000a900473ffffffffffffffffffffffffffffffffffffffff169050816000806101000a81548173ffffffffffffffffffffffffffffffffffffffff021916908373ffffffffffffffffffffffffffffffffffffffff1602179055508173ffffffffffffffffffffffffffffffffffffffff168173ffffffffffffffffffffffffffffffffffffffff167f8be0079c531659141344cd1fd0a4f28419497f9722a3daafe3b4186f6b6457e060405160405180910390a35050565b600033905090565b6000600460008154809291906116b590612494565b9190505550606442336004546040516020016116d3939291906129bf565b6040516020818303038152906040528051906020012060001c6116f69190612a2b565b905090565b6000604051905090565b600080fd5b600080fd5b60007fffffffff0000000000000000000000000000000000000000000000000000000082169050919050565b6117448161170f565b811461174f57600080fd5b50565b6000813590506117618161173b565b92915050565b60006020828403121561177d5761177c611705565b5b600061178b84828501611752565b91505092915050565b60008115159050919050565b6117a981611794565b82525050565b60006020820190506117c460008301846117a0565b92915050565b6000819050919050565b6117dd816117ca565b82525050565b60006020820190506117f860008301846117d4565b92915050565b600073ffffffffffffffffffffffffffffffffffffffff82169050919050565b6000611829826117fe565b9050919050565b6118398161181e565b811461184457600080fd5b50565b60008135905061185681611830565b92915050565b6000806040838503121561187357611872611705565b5b600061188185828601611847565b925050602061189285828601611847565b9150509250929050565b6118a5816117ca565b81146118b057600080fd5b50565b6000813590506118c28161189c565b92915050565b6000602082840312156118de576118dd611705565b5b60006118ec848285016118b3565b91505092915050565b600081519050919050565b600082825260208201905092915050565b6000819050602082019050919050565b61192a816117ca565b82525050565b600061193c8383611921565b60208301905092915050565b6000602082019050919050565b6000611960826118f5565b61196a8185611900565b935061197583611911565b8060005b838110156119a657815161198d8882611930565b975061199883611948565b925050600181019050611979565b5085935050505092915050565b600060208201905081810360008301526119cd8184611955565b905092915050565b600060ff82169050919050565b6119eb816119d5565b81146119f657600080fd5b50565b600081359050611a08816119e2565b92915050565b600080600080600060a08688031215611a2a57611a29611705565b5b6000611a38888289016119f9565b9550506020611a49888289016119f9565b9450506040611a5a888289016119f9565b9350506060611a6b888289016119f9565b9250506080611a7c888289016119f9565b9150509295509295909350565b611a928161181e565b82525050565b6000602082019050611aad6000830184611a89565b92915050565b60008060408385031215611aca57611ac9611705565b5b6000611ad885828601611847565b9250506020611ae9858286016118b3565b9150509250929050565b600080fd5b6000601f19601f8301169050919050565b7f4e487b7100000000000000000000000000000000000000000000000000000000600052604160045260246000fd5b611b4182611af8565b810181811067ffffffffffffffff82111715611b6057611b5f611b09565b5b80604052505050565b6000611b736116fb565b9050611b7f8282611b38565b919050565b600067ffffffffffffffff821115611b9f57611b9e611b09565b5b602082029050602081019050919050565b600080fd5b6000611bc8611bc384611b84565b611b69565b90508083825260208201905060208402830185811115611beb57611bea611bb0565b5b835b81811015611c145780611c0088826118b3565b845260208401935050602081019050611bed565b5050509392505050565b600082601f830112611c3357611c32611af3565b5b8135611c43848260208601611bb5565b91505092915050565b600080fd5b600067ffffffffffffffff821115611c6c57611c6b611b09565b5b611c7582611af8565b9050602081019050919050565b82818337600083830152505050565b6000611ca4611c9f84611c51565b611b69565b905082815260208101848484011115611cc057611cbf611c4c565b5b611ccb848285611c82565b509392505050565b600082601f830112611ce857611ce7611af3565b5b8135611cf8848260208601611c91565b91505092915050565b600080600080600060a08688031215611d1d57611d1c611705565b5b6000611d2b88828901611847565b9550506020611d3c88828901611847565b945050604086013567ffffffffffffffff811115611d5d57611d5c61170a565b5b611d6988828901611c1e565b935050606086013567ffffffffffffffff811115611d8a57611d8961170a565b5b611d9688828901611c1e565b925050608086013567ffffffffffffffff811115611db757611db661170a565b5b611dc388828901611cd3565b9150509295509295909350565b611dd98161170f565b82525050565b6000602082019050611df46000830184611dd0565b92915050565b6000819050919050565b6000611e1f611e1a611e15846117fe565b611dfa565b6117fe565b9050919050565b6000611e3182611e04565b9050919050565b6000611e4382611e26565b9050919050565b611e5381611e38565b82525050565b6000602082019050611e6e6000830184611e4a565b92915050565b600080600080600060a08688031215611e9057611e8f611705565b5b6000611e9e88828901611847565b9550506020611eaf88828901611847565b9450506040611ec0888289016118b3565b9350506060611ed1888289016118b3565b925050608086013567ffffffffffffffff811115611ef257611ef161170a565b5b611efe88828901611cd3565b9150509295509295909350565b600060208284031215611f2157611f20611705565b5b6000611f2f84828501611847565b91505092915050565b6000611f4382611e26565b9050919050565b611f5381611f38565b82525050565b6000602082019050611f6e6000830184611f4a565b92915050565b600081519050611f83816119e2565b92915050565b600060208284031215611f9f57611f9e611705565b5b6000611fad84828501611f74565b91505092915050565b6000611fd1611fcc611fc7846119d5565b611dfa565b6117ca565b9050919050565b611fe181611fb6565b82525050565b6000604082019050611ffc6000830185611a89565b6120096020830184611fd8565b9392505050565b60008151905061201f8161189c565b92915050565b60006020828403121561203b5761203a611705565b5b600061204984828501612010565b91505092915050565b600082825260208201905092915050565b7f536f72727920477561726469616e2c20746865726520617265206e6f7420656e60008201527f6f75676820636865737473206c6566742e000000000000000000000000000000602082015250565b60006120bf603183612052565b91506120ca82612063565b604082019050919050565b600060208201905081810360008301526120ee816120b2565b9050919050565b7f4e487b7100000000000000000000000000000000000000000000000000000000600052601160045260246000fd5b600061212f826117ca565b915061213a836117ca565b9250828202612148816117ca565b9150828204841483151761215f5761215e6120f5565b5b5092915050565b7f536f72727920477561726469616e2c20796f7520646f206e6f7420686176652060008201527f656e6f756768206d6f6e65792e00000000000000000000000000000000000000602082015250565b60006121c2602d83612052565b91506121cd82612166565b604082019050919050565b600060208201905081810360008301526121f1816121b5565b9050919050565b600060608201905061220d6000830186611a89565b61221a6020830185611a89565b61222760408301846117d4565b949350505050565b61223881611794565b811461224357600080fd5b50565b6000815190506122558161222f565b92915050565b60006020828403121561227157612270611705565b5b600061227f84828501612246565b91505092915050565b600082825260208201905092915050565b50565b60006122a9600083612288565b91506122b482612299565b600082019050919050565b600060a0820190506122d46000830187611a89565b6122e16020830186611a89565b6122ee6040830185611fd8565b6122fb60608301846117d4565b818103608083015261230c8161229c565b905095945050505050565b7f536f72727920477561726469616e2c20796f7520646f206e6f7420686176652060008201527f616e7920636865737420696e20796f757220696e76656e746f72792e00000000602082015250565b6000612373603c83612052565b915061237e82612317565b604082019050919050565b600060208201905081810360008301526123a281612366565b9050919050565b60006040820190506123be6000830185611a89565b6123cb60208301846117d4565b9392505050565b7f4e487b7100000000000000000000000000000000000000000000000000000000600052603260045260246000fd5b6000819050919050565b600061242661242161241c84612401565b611dfa565b6117ca565b9050919050565b6124368161240b565b82525050565b600060a0820190506124516000830187611a89565b61245e6020830186611a89565b61246b60408301856117d4565b612478606083018461242d565b81810360808301526124898161229c565b905095945050505050565b600061249f826117ca565b91507fffffffffffffffffffffffffffffffffffffffffffffffffffffffffffffffff82036124d1576124d06120f5565b5b600182019050919050565b600060a0820190506124f16000830187611a89565b6124fe6020830186611a89565b61250b6040830185611fd8565b612518606083018461242d565b81810360808301526125298161229c565b905095945050505050565b60006060820190506125496000830186611a89565b818103602083015261255b8185611955565b9050818103604083015261256f8184611955565b9050949350505050565b6000612584826119d5565b915061258f836119d5565b9250828201905060ff8111156125a8576125a76120f5565b5b92915050565b7f53756d206f66207468652064726f702072617465206d7573742062652065676160008201527f6c20746f20313030000000000000000000000000000000000000000000000000602082015250565b600061260a602883612052565b9150612615826125ae565b604082019050919050565b60006020820190508181036000830152612639816125fd565b9050919050565b7f536f72727920477561726469616e2c207468657265206973206e6f206d6f726560008201527f206d6f6e657920696e2074686520747265617375726500000000000000000000602082015250565b600061269c603683612052565b91506126a782612640565b604082019050919050565b600060208201905081810360008301526126cb8161268f565b9050919050565b600081519050919050565b60005b838110156126fb5780820151818401526020810190506126e0565b60008484015250505050565b6000612712826126d2565b61271c8185612288565b935061272c8185602086016126dd565b61273581611af8565b840191505092915050565b600060a0820190506127556000830188611a89565b6127626020830187611a89565b61276f60408301866117d4565b61277c60608301856117d4565b818103608083015261278e8184612707565b90509695505050505050565b7f4f776e61626c653a206e6577206f776e657220697320746865207a65726f206160008201527f6464726573730000000000000000000000000000000000000000000000000000602082015250565b60006127f6602683612052565b91506128018261279a565b604082019050919050565b60006020820190508181036000830152612825816127e9565b9050919050565b7f4f776e61626c653a2063616c6c6572206973206e6f7420746865206f776e6572600082015250565b6000612862602083612052565b915061286d8261282c565b602082019050919050565b6000602082019050818103600083015261289181612855565b9050919050565b60006128a3826119d5565b91506128ae836119d5565b92508282026128bc816119d5565b91508082146128ce576128cd6120f5565b5b5092915050565b600061ffff82169050919050565b60006128ee826128d5565b91506128f9836128d5565b9250828202612907816128d5565b9150808214612919576129186120f5565b5b5092915050565b600061292b826128d5565b9150612936836128d5565b9250828201905061ffff8111156129505761294f6120f5565b5b92915050565b6000819050919050565b61297161296c826117ca565b612956565b82525050565b60008160601b9050919050565b600061298f82612977565b9050919050565b60006129a182612984565b9050919050565b6129b96129b48261181e565b612996565b82525050565b60006129cb8286612960565b6020820191506129db82856129a8565b6014820191506129eb8284612960565b602082019150819050949350505050565b7f4e487b7100000000000000000000000000000000000000000000000000000000600052601260045260246000fd5b6000612a36826117ca565b9150612a41836117ca565b925082612a5157612a506129fc565b5b82820690509291505056fea2646970667358221220d9f575492e3ed3ac00679b612adcdbeb82fd7ce6d6c302ca94209349465c52c064736f6c63430008120033",
  "linkReferences": {},
  "deployedLinkReferences": {}
}