{
  "_format": "hh-sol-artifact-1",
  "contractName": "GuardianToken",
  "sourceName": "contracts/Token/GuardianToken.sol",
  "abi": [
    {
      "inputs": [],
      "stateMutability": "nonpayable",
      "type": "constructor"
    },
    {
      "anonymous": false,
      "inputs": [
        {
          "indexed": true,
          "internalType": "address",
          "name": "owner",
          "type": "address"
        },
        {
          "indexed": true,
          "internalType": "address",
          "name": "spender",
          "type": "address"
        },
        {
          "indexed": false,
          "internalType": "uint256",
          "name": "value",
          "type": "uint256"
        }
      ],
      "name": "Approval",
      "type": "event"
    },
    {
      "anonymous": false,
      "inputs": [
        {
          "indexed": true,
          "internalType": "address",
          "name": "previousOwner",
          "type": "address"
        },
        {
          "indexed": true,
          "internalType": "address",
          "name": "newOwner",
          "type": "address"
        }
      ],
      "name": "OwnershipTransferred",
      "type": "event"
    },
    {
      "anonymous": false,
      "inputs": [
        {
          "indexed": true,
          "internalType": "address",
          "name": "from",
          "type": "address"
        },
        {
          "indexed": true,
          "internalType": "address",
          "name": "to",
          "type": "address"
        },
        {
          "indexed": false,
          "internalType": "uint256",
          "name": "value",
          "type": "uint256"
        }
      ],
      "name": "Transfer",
      "type": "event"
    },
    {
      "inputs": [
        {
          "internalType": "address",
          "name": "owner",
          "type": "address"
        },
        {
          "internalType": "address",
          "name": "spender",
          "type": "address"
        }
      ],
      "name": "allowance",
      "outputs": [
        {
          "internalType": "uint256",
          "name": "",
          "type": "uint256"
        }
      ],
      "stateMutability": "view",
      "type": "function"
    },
    {
      "inputs": [
        {
          "internalType": "address",
          "name": "spender",
          "type": "address"
        },
        {
          "internalType": "uint256",
          "name": "amount",
          "type": "uint256"
        }
      ],
      "name": "approve",
      "outputs": [
        {
          "internalType": "bool",
          "name": "",
          "type": "bool"
        }
      ],
      "stateMutability": "nonpayable",
      "type": "function"
    },
    {
      "inputs": [
        {
          "internalType": "address",
          "name": "account",
          "type": "address"
        }
      ],
      "name": "balanceOf",
      "outputs": [
        {
          "internalType": "uint256",
          "name": "",
          "type": "uint256"
        }
      ],
      "stateMutability": "view",
      "type": "function"
    },
    {
      "inputs": [],
      "name": "decimals",
      "outputs": [
        {
          "internalType": "uint8",
          "name": "",
          "type": "uint8"
        }
      ],
      "stateMutability": "view",
      "type": "function"
    },
    {
      "inputs": [
        {
          "internalType": "address",
          "name": "spender",
          "type": "address"
        },
        {
          "internalType": "uint256",
          "name": "subtractedValue",
          "type": "uint256"
        }
      ],
      "name": "decreaseAllowance",
      "outputs": [
        {
          "internalType": "bool",
          "name": "",
          "type": "bool"
        }
      ],
      "stateMutability": "nonpayable",
      "type": "function"
    },
    {
      "inputs": [
        {
          "internalType": "address",
          "name": "spender",
          "type": "address"
        },
        {
          "internalType": "uint256",
          "name": "addedValue",
          "type": "uint256"
        }
      ],
      "name": "increaseAllowance",
      "outputs": [
        {
          "internalType": "bool",
          "name": "",
          "type": "bool"
        }
      ],
      "stateMutability": "nonpayable",
      "type": "function"
    },
    {
      "inputs": [
        {
          "internalType": "address",
          "name": "addr",
          "type": "address"
        }
      ],
      "name": "mint",
      "outputs": [],
      "stateMutability": "nonpayable",
      "type": "function"
    },
    {
      "inputs": [],
      "name": "name",
      "outputs": [
        {
          "internalType": "string",
          "name": "",
          "type": "string"
        }
      ],
      "stateMutability": "view",
      "type": "function"
    },
    {
      "inputs": [],
      "name": "owner",
      "outputs": [
        {
          "internalType": "address",
          "name": "",
          "type": "address"
        }
      ],
      "stateMutability": "view",
      "type": "function"
    },
    {
      "inputs": [],
      "name": "renounceOwnership",
      "outputs": [],
      "stateMutability": "nonpayable",
      "type": "function"
    },
    {
      "inputs": [],
      "name": "symbol",
      "outputs": [
        {
          "internalType": "string",
          "name": "",
          "type": "string"
        }
      ],
      "stateMutability": "view",
      "type": "function"
    },
    {
      "inputs": [],
      "name": "totalSupply",
      "outputs": [
        {
          "internalType": "uint256",
          "name": "",
          "type": "uint256"
        }
      ],
      "stateMutability": "view",
      "type": "function"
    },
    {
      "inputs": [
        {
          "internalType": "address",
          "name": "to",
          "type": "address"
        },
        {
          "internalType": "uint256",
          "name": "amount",
          "type": "uint256"
        }
      ],
      "name": "transfer",
      "outputs": [
        {
          "internalType": "bool",
          "name": "",
          "type": "bool"
        }
      ],
      "stateMutability": "nonpayable",
      "type": "function"
    },
    {
      "inputs": [
        {
          "internalType": "address",
          "name": "from",
          "type": "address"
        },
        {
          "internalType": "address",
          "name": "to",
          "type": "address"
        },
        {
          "internalType": "uint256",
          "name": "amount",
          "type": "uint256"
        }
      ],
      "name": "transferFrom",
      "outputs": [
        {
          "internalType": "bool",
          "name": "",
          "type": "bool"
        }
      ],
      "stateMutability": "nonpayable",
      "type": "function"
    },
    {
      "inputs": [
        {
          "internalType": "address",
          "name": "newOwner",
          "type": "address"
        }
      ],
      "name": "transferOwnership",
      "outputs": [],
      "stateMutability": "nonpayable",
      "type": "function"
    }
  ],
  "bytecode": "0x60806040526b033b2e3c9fd0803ce80000006006553480156200002157600080fd5b506040518060400160405280600881526020017f475541524449414e0000000000000000000000000000000000000000000000008152506040518060400160405280600481526020017f475552440000000000000000000000000000000000000000000000000000000081525081600390816200009f919062000441565b508060049081620000b1919062000441565b505050620000d4620000c8620000f660201b60201c565b620000fe60201b60201c565b620000f0670c0574c166008c2a60c01b620001c460201b60201c565b62000528565b600033905090565b6000600560009054906101000a900473ffffffffffffffffffffffffffffffffffffffff16905081600560006101000a81548173ffffffffffffffffffffffffffffffffffffffff021916908373ffffffffffffffffffffffffffffffffffffffff1602179055508173ffffffffffffffffffffffffffffffffffffffff168173ffffffffffffffffffffffffffffffffffffffff167f8be0079c531659141344cd1fd0a4f28419497f9722a3daafe3b4186f6b6457e060405160405180910390a35050565b50565b600081519050919050565b7f4e487b7100000000000000000000000000000000000000000000000000000000600052604160045260246000fd5b7f4e487b7100000000000000000000000000000000000000000000000000000000600052602260045260246000fd5b600060028204905060018216806200024957607f821691505b6020821081036200025f576200025e62000201565b5b50919050565b60008190508160005260206000209050919050565b60006020601f8301049050919050565b600082821b905092915050565b600060088302620002c97fffffffffffffffffffffffffffffffffffffffffffffffffffffffffffffffff826200028a565b620002d586836200028a565b95508019841693508086168417925050509392505050565b6000819050919050565b6000819050919050565b6000620003226200031c6200031684620002ed565b620002f7565b620002ed565b9050919050565b6000819050919050565b6200033e8362000301565b620003566200034d8262000329565b84845462000297565b825550505050565b600090565b6200036d6200035e565b6200037a81848462000333565b505050565b5b81811015620003a2576200039660008262000363565b60018101905062000380565b5050565b601f821115620003f157620003bb8162000265565b620003c6846200027a565b81016020851015620003d6578190505b620003ee620003e5856200027a565b8301826200037f565b50505b505050565b600082821c905092915050565b60006200041660001984600802620003f6565b1980831691505092915050565b600062000431838362000403565b9150826002028217905092915050565b6200044c82620001c7565b67ffffffffffffffff811115620004685762000467620001d2565b5b62000474825462000230565b62000481828285620003a6565b600060209050601f831160018114620004b95760008415620004a4578287015190505b620004b0858262000423565b86555062000520565b601f198416620004c98662000265565b60005b82811015620004f357848901518255600182019150602085019450602081019050620004cc565b868310156200051357848901516200050f601f89168262000403565b8355505b6001600288020188555050505b505050505050565b61184880620005386000396000f3fe608060405234801561001057600080fd5b50600436106100f55760003560e01c806370a0823111610097578063a457c2d711610066578063a457c2d714610276578063a9059cbb146102a6578063dd62ed3e146102d6578063f2fde38b14610306576100f5565b806370a0823114610200578063715018a6146102305780638da5cb5b1461023a57806395d89b4114610258576100f5565b806323b872dd116100d357806323b872dd14610166578063313ce5671461019657806339509351146101b45780636a627842146101e4576100f5565b806306fdde03146100fa578063095ea7b31461011857806318160ddd14610148575b600080fd5b610102610322565b60405161010f9190610f91565b60405180910390f35b610132600480360381019061012d919061104c565b6103b4565b60405161013f91906110a7565b60405180910390f35b6101506103d7565b60405161015d91906110d1565b60405180910390f35b610180600480360381019061017b91906110ec565b6103e1565b60405161018d91906110a7565b60405180910390f35b61019e610410565b6040516101ab919061115b565b60405180910390f35b6101ce60048036038101906101c9919061104c565b610419565b6040516101db91906110a7565b60405180910390f35b6101fe60048036038101906101f99190611176565b610450565b005b61021a60048036038101906102159190611176565b6104cb565b60405161022791906110d1565b60405180910390f35b610238610513565b005b610242610527565b60405161024f91906111b2565b60405180910390f35b610260610551565b60405161026d9190610f91565b60405180910390f35b610290600480360381019061028b919061104c565b6105e3565b60405161029d91906110a7565b60405180910390f35b6102c060048036038101906102bb919061104c565b61065a565b6040516102cd91906110a7565b60405180910390f35b6102f060048036038101906102eb91906111cd565b61067d565b6040516102fd91906110d1565b60405180910390f35b610320600480360381019061031b9190611176565b610704565b005b6060600380546103319061123c565b80601f016020809104026020016040519081016040528092919081815260200182805461035d9061123c565b80156103aa5780601f1061037f576101008083540402835291602001916103aa565b820191906000526020600020905b81548152906001019060200180831161038d57829003601f168201915b5050505050905090565b6000806103bf610787565b90506103cc81858561078f565b600191505092915050565b6000600254905090565b6000806103ec610787565b90506103f9858285610958565b6104048585856109e4565b60019150509392505050565b60006012905090565b600080610424610787565b9050610445818585610436858961067d565b610440919061129c565b61078f565b600191505092915050565b61046467fbf9a575aa6a196a60c01b610c5a565b61046c610c5d565b610480673ad15660984c11ea60c01b610c5a565b6104946743b243adda98302560c01b610c5a565b6104a867ad18bc4d5c2d842160c01b610c5a565b6104bc675fcc21774b7985ac60c01b610c5a565b6104c881600654610cdb565b50565b60008060008373ffffffffffffffffffffffffffffffffffffffff1673ffffffffffffffffffffffffffffffffffffffff168152602001908152602001600020549050919050565b61051b610c5d565b6105256000610e31565b565b6000600560009054906101000a900473ffffffffffffffffffffffffffffffffffffffff16905090565b6060600480546105609061123c565b80601f016020809104026020016040519081016040528092919081815260200182805461058c9061123c565b80156105d95780601f106105ae576101008083540402835291602001916105d9565b820191906000526020600020905b8154815290600101906020018083116105bc57829003601f168201915b5050505050905090565b6000806105ee610787565b905060006105fc828661067d565b905083811015610641576040517f08c379a000000000000000000000000000000000000000000000000000000000815260040161063890611342565b60405180910390fd5b61064e828686840361078f565b60019250505092915050565b600080610665610787565b90506106728185856109e4565b600191505092915050565b6000600160008473ffffffffffffffffffffffffffffffffffffffff1673ffffffffffffffffffffffffffffffffffffffff16815260200190815260200160002060008373ffffffffffffffffffffffffffffffffffffffff1673ffffffffffffffffffffffffffffffffffffffff16815260200190815260200160002054905092915050565b61070c610c5d565b600073ffffffffffffffffffffffffffffffffffffffff168173ffffffffffffffffffffffffffffffffffffffff160361077b576040517f08c379a0000000000000000000000000000000000000000000000000000000008152600401610772906113d4565b60405180910390fd5b61078481610e31565b50565b600033905090565b600073ffffffffffffffffffffffffffffffffffffffff168373ffffffffffffffffffffffffffffffffffffffff16036107fe576040517f08c379a00000000000000000000000000000000000000000000000000000000081526004016107f590611466565b60405180910390fd5b600073ffffffffffffffffffffffffffffffffffffffff168273ffffffffffffffffffffffffffffffffffffffff160361086d576040517f08c379a0000000000000000000000000000000000000000000000000000000008152600401610864906114f8565b60405180910390fd5b80600160008573ffffffffffffffffffffffffffffffffffffffff1673ffffffffffffffffffffffffffffffffffffffff16815260200190815260200160002060008473ffffffffffffffffffffffffffffffffffffffff1673ffffffffffffffffffffffffffffffffffffffff168152602001908152602001600020819055508173ffffffffffffffffffffffffffffffffffffffff168373ffffffffffffffffffffffffffffffffffffffff167f8c5be1e5ebec7d5bd14f71427d1e84f3dd0314c0f7b2291e5b200ac8c7c3b9258360405161094b91906110d1565b60405180910390a3505050565b6000610964848461067d565b90507fffffffffffffffffffffffffffffffffffffffffffffffffffffffffffffffff81146109de57818110156109d0576040517f08c379a00000000000000000000000000000000000000000000000000000000081526004016109c790611564565b60405180910390fd5b6109dd848484840361078f565b5b50505050565b600073ffffffffffffffffffffffffffffffffffffffff168373ffffffffffffffffffffffffffffffffffffffff1603610a53576040517f08c379a0000000000000000000000000000000000000000000000000000000008152600401610a4a906115f6565b60405180910390fd5b600073ffffffffffffffffffffffffffffffffffffffff168273ffffffffffffffffffffffffffffffffffffffff1603610ac2576040517f08c379a0000000000000000000000000000000000000000000000000000000008152600401610ab990611688565b60405180910390fd5b610acd838383610ef7565b60008060008573ffffffffffffffffffffffffffffffffffffffff1673ffffffffffffffffffffffffffffffffffffffff16815260200190815260200160002054905081811015610b53576040517f08c379a0000000000000000000000000000000000000000000000000000000008152600401610b4a9061171a565b60405180910390fd5b8181036000808673ffffffffffffffffffffffffffffffffffffffff1673ffffffffffffffffffffffffffffffffffffffff16815260200190815260200160002081905550816000808573ffffffffffffffffffffffffffffffffffffffff1673ffffffffffffffffffffffffffffffffffffffff168152602001908152602001600020600082825401925050819055508273ffffffffffffffffffffffffffffffffffffffff168473ffffffffffffffffffffffffffffffffffffffff167fddf252ad1be2c89b69c2b068fc378daa952ba7f163c4a11628f55a4df523b3ef84604051610c4191906110d1565b60405180910390a3610c54848484610efc565b50505050565b50565b610c65610787565b73ffffffffffffffffffffffffffffffffffffffff16610c83610527565b73ffffffffffffffffffffffffffffffffffffffff1614610cd9576040517f08c379a0000000000000000000000000000000000000000000000000000000008152600401610cd090611786565b60405180910390fd5b565b600073ffffffffffffffffffffffffffffffffffffffff168273ffffffffffffffffffffffffffffffffffffffff1603610d4a576040517f08c379a0000000000000000000000000000000000000000000000000000000008152600401610d41906117f2565b60405180910390fd5b610d5660008383610ef7565b8060026000828254610d68919061129c565b92505081905550806000808473ffffffffffffffffffffffffffffffffffffffff1673ffffffffffffffffffffffffffffffffffffffff168152602001908152602001600020600082825401925050819055508173ffffffffffffffffffffffffffffffffffffffff16600073ffffffffffffffffffffffffffffffffffffffff167fddf252ad1be2c89b69c2b068fc378daa952ba7f163c4a11628f55a4df523b3ef83604051610e1991906110d1565b60405180910390a3610e2d60008383610efc565b5050565b6000600560009054906101000a900473ffffffffffffffffffffffffffffffffffffffff16905081600560006101000a81548173ffffffffffffffffffffffffffffffffffffffff021916908373ffffffffffffffffffffffffffffffffffffffff1602179055508173ffffffffffffffffffffffffffffffffffffffff168173ffffffffffffffffffffffffffffffffffffffff167f8be0079c531659141344cd1fd0a4f28419497f9722a3daafe3b4186f6b6457e060405160405180910390a35050565b505050565b505050565b600081519050919050565b600082825260208201905092915050565b60005b83811015610f3b578082015181840152602081019050610f20565b60008484015250505050565b6000601f19601f8301169050919050565b6000610f6382610f01565b610f6d8185610f0c565b9350610f7d818560208601610f1d565b610f8681610f47565b840191505092915050565b60006020820190508181036000830152610fab8184610f58565b905092915050565b600080fd5b600073ffffffffffffffffffffffffffffffffffffffff82169050919050565b6000610fe382610fb8565b9050919050565b610ff381610fd8565b8114610ffe57600080fd5b50565b60008135905061101081610fea565b92915050565b6000819050919050565b61102981611016565b811461103457600080fd5b50565b60008135905061104681611020565b92915050565b6000806040838503121561106357611062610fb3565b5b600061107185828601611001565b925050602061108285828601611037565b9150509250929050565b60008115159050919050565b6110a18161108c565b82525050565b60006020820190506110bc6000830184611098565b92915050565b6110cb81611016565b82525050565b60006020820190506110e660008301846110c2565b92915050565b60008060006060848603121561110557611104610fb3565b5b600061111386828701611001565b935050602061112486828701611001565b925050604061113586828701611037565b9150509250925092565b600060ff82169050919050565b6111558161113f565b82525050565b6000602082019050611170600083018461114c565b92915050565b60006020828403121561118c5761118b610fb3565b5b600061119a84828501611001565b91505092915050565b6111ac81610fd8565b82525050565b60006020820190506111c760008301846111a3565b92915050565b600080604083850312156111e4576111e3610fb3565b5b60006111f285828601611001565b925050602061120385828601611001565b9150509250929050565b7f4e487b7100000000000000000000000000000000000000000000000000000000600052602260045260246000fd5b6000600282049050600182168061125457607f821691505b6020821081036112675761126661120d565b5b50919050565b7f4e487b7100000000000000000000000000000000000000000000000000000000600052601160045260246000fd5b60006112a782611016565b91506112b283611016565b92508282019050808211156112ca576112c961126d565b5b92915050565b7f45524332303a2064656372656173656420616c6c6f77616e63652062656c6f7760008201527f207a65726f000000000000000000000000000000000000000000000000000000602082015250565b600061132c602583610f0c565b9150611337826112d0565b604082019050919050565b6000602082019050818103600083015261135b8161131f565b9050919050565b7f4f776e61626c653a206e6577206f776e657220697320746865207a65726f206160008201527f6464726573730000000000000000000000000000000000000000000000000000602082015250565b60006113be602683610f0c565b91506113c982611362565b604082019050919050565b600060208201905081810360008301526113ed816113b1565b9050919050565b7f45524332303a20617070726f76652066726f6d20746865207a65726f2061646460008201527f7265737300000000000000000000000000000000000000000000000000000000602082015250565b6000611450602483610f0c565b915061145b826113f4565b604082019050919050565b6000602082019050818103600083015261147f81611443565b9050919050565b7f45524332303a20617070726f766520746f20746865207a65726f20616464726560008201527f7373000000000000000000000000000000000000000000000000000000000000602082015250565b60006114e2602283610f0c565b91506114ed82611486565b604082019050919050565b60006020820190508181036000830152611511816114d5565b9050919050565b7f45524332303a20696e73756666696369656e7420616c6c6f77616e6365000000600082015250565b600061154e601d83610f0c565b915061155982611518565b602082019050919050565b6000602082019050818103600083015261157d81611541565b9050919050565b7f45524332303a207472616e736665722066726f6d20746865207a65726f20616460008201527f6472657373000000000000000000000000000000000000000000000000000000602082015250565b60006115e0602583610f0c565b91506115eb82611584565b604082019050919050565b6000602082019050818103600083015261160f816115d3565b9050919050565b7f45524332303a207472616e7366657220746f20746865207a65726f206164647260008201527f6573730000000000000000000000000000000000000000000000000000000000602082015250565b6000611672602383610f0c565b915061167d82611616565b604082019050919050565b600060208201905081810360008301526116a181611665565b9050919050565b7f45524332303a207472616e7366657220616d6f756e742065786365656473206260008201527f616c616e63650000000000000000000000000000000000000000000000000000602082015250565b6000611704602683610f0c565b915061170f826116a8565b604082019050919050565b60006020820190508181036000830152611733816116f7565b9050919050565b7f4f776e61626c653a2063616c6c6572206973206e6f7420746865206f776e6572600082015250565b6000611770602083610f0c565b915061177b8261173a565b602082019050919050565b6000602082019050818103600083015261179f81611763565b9050919050565b7f45524332303a206d696e7420746f20746865207a65726f206164647265737300600082015250565b60006117dc601f83610f0c565b91506117e7826117a6565b602082019050919050565b6000602082019050818103600083015261180b816117cf565b905091905056fea2646970667358221220b9a4ce2fa5c1aeb4b6b82ed90984e04e5b70b94c940e020f18522bdad6de39b864736f6c63430008120033",
  "linkReferences": {},
  "deployedLinkReferences": {}
}