{
  "_format": "hh-sol-artifact-1",
  "contractName": "AuctionHouse",
  "sourceName": "contracts/AuctionHouse/AuctionHouse.sol",
  "abi": [
    {
      "inputs": [
        {
          "internalType": "address",
          "name": "_tokenAddress",
          "type": "address"
        }
      ],
      "stateMutability": "nonpayable",
      "type": "constructor"
    },
    {
      "anonymous": false,
      "inputs": [],
      "name": "ItemCanceledSuccess",
      "type": "event"
    },
    {
      "anonymous": false,
      "inputs": [
        {
          "indexed": true,
          "internalType": "uint256",
          "name": "itemId",
          "type": "uint256"
        },
        {
          "indexed": false,
          "internalType": "address",
          "name": "seller",
          "type": "address"
        },
        {
          "indexed": false,
          "internalType": "uint256",
          "name": "price",
          "type": "uint256"
        }
      ],
      "name": "ItemListedSuccess",
      "type": "event"
    },
    {
      "anonymous": false,
      "inputs": [
        {
          "indexed": true,
          "internalType": "uint256",
          "name": "itemId",
          "type": "uint256"
        },
        {
          "indexed": false,
          "internalType": "address",
          "name": "seller",
          "type": "address"
        },
        {
          "indexed": false,
          "internalType": "address",
          "name": "buyer",
          "type": "address"
        },
        {
          "indexed": false,
          "internalType": "uint256",
          "name": "price",
          "type": "uint256"
        }
      ],
      "name": "ItemSoldSuccess",
      "type": "event"
    },
    {
      "anonymous": false,
      "inputs": [
        {
          "indexed": true,
          "internalType": "address",
          "name": "previousOwner",
          "type": "address"
        },
        {
          "indexed": true,
          "internalType": "address",
          "name": "newOwner",
          "type": "address"
        }
      ],
      "name": "OwnershipTransferred",
      "type": "event"
    },
    {
      "inputs": [],
      "name": "auctionHouseFunds",
      "outputs": [
        {
          "internalType": "uint256",
          "name": "",
          "type": "uint256"
        }
      ],
      "stateMutability": "view",
      "type": "function"
    },
    {
      "inputs": [
        {
          "internalType": "uint256",
          "name": "marketplaceId",
          "type": "uint256"
        }
      ],
      "name": "cancelSale",
      "outputs": [],
      "stateMutability": "nonpayable",
      "type": "function"
    },
    {
      "inputs": [
        {
          "internalType": "uint256",
          "name": "listedItemId",
          "type": "uint256"
        }
      ],
      "name": "executeSale",
      "outputs": [],
      "stateMutability": "payable",
      "type": "function"
    },
    {
      "inputs": [],
      "name": "getListedItems",
      "outputs": [
        {
          "components": [
            {
              "internalType": "uint256",
              "name": "listedItemId",
              "type": "uint256"
            },
            {
              "internalType": "uint256",
              "name": "itemId",
              "type": "uint256"
            },
            {
              "internalType": "address payable",
              "name": "seller",
              "type": "address"
            },
            {
              "internalType": "address",
              "name": "buyer",
              "type": "address"
            },
            {
              "internalType": "uint256",
              "name": "price",
              "type": "uint256"
            },
            {
              "internalType": "bool",
              "name": "isSold",
              "type": "bool"
            }
          ],
          "internalType": "struct AuctionHouse.ListedItem[]",
          "name": "",
          "type": "tuple[]"
        }
      ],
      "stateMutability": "view",
      "type": "function"
    },
    {
      "inputs": [],
      "name": "getlistingFee",
      "outputs": [
        {
          "internalType": "uint256",
          "name": "",
          "type": "uint256"
        }
      ],
      "stateMutability": "view",
      "type": "function"
    },
    {
      "inputs": [
        {
          "internalType": "uint256",
          "name": "itemId",
          "type": "uint256"
        },
        {
          "internalType": "uint256",
          "name": "sellingPrice",
          "type": "uint256"
        }
      ],
      "name": "listItem",
      "outputs": [],
      "stateMutability": "payable",
      "type": "function"
    },
    {
      "inputs": [
        {
          "internalType": "uint256",
          "name": "",
          "type": "uint256"
        }
      ],
      "name": "listedItems",
      "outputs": [
        {
          "internalType": "uint256",
          "name": "listedItemId",
          "type": "uint256"
        },
        {
          "internalType": "uint256",
          "name": "itemId",
          "type": "uint256"
        },
        {
          "internalType": "address payable",
          "name": "seller",
          "type": "address"
        },
        {
          "internalType": "address",
          "name": "buyer",
          "type": "address"
        },
        {
          "internalType": "uint256",
          "name": "price",
          "type": "uint256"
        },
        {
          "internalType": "bool",
          "name": "isSold",
          "type": "bool"
        }
      ],
      "stateMutability": "view",
      "type": "function"
    },
    {
      "inputs": [],
      "name": "listedItemsCount",
      "outputs": [
        {
          "internalType": "uint256",
          "name": "_value",
          "type": "uint256"
        }
      ],
      "stateMutability": "view",
      "type": "function"
    },
    {
      "inputs": [],
      "name": "listingFee",
      "outputs": [
        {
          "internalType": "uint256",
          "name": "",
          "type": "uint256"
        }
      ],
      "stateMutability": "view",
      "type": "function"
    },
    {
      "inputs": [
        {
          "internalType": "address",
          "name": "",
          "type": "address"
        },
        {
          "internalType": "address",
          "name": "",
          "type": "address"
        },
        {
          "internalType": "uint256[]",
          "name": "",
          "type": "uint256[]"
        },
        {
          "internalType": "uint256[]",
          "name": "",
          "type": "uint256[]"
        },
        {
          "internalType": "bytes",
          "name": "",
          "type": "bytes"
        }
      ],
      "name": "onERC1155BatchReceived",
      "outputs": [
        {
          "internalType": "bytes4",
          "name": "",
          "type": "bytes4"
        }
      ],
      "stateMutability": "nonpayable",
      "type": "function"
    },
    {
      "inputs": [
        {
          "internalType": "address",
          "name": "",
          "type": "address"
        },
        {
          "internalType": "address",
          "name": "",
          "type": "address"
        },
        {
          "internalType": "uint256",
          "name": "",
          "type": "uint256"
        },
        {
          "internalType": "uint256",
          "name": "",
          "type": "uint256"
        },
        {
          "internalType": "bytes",
          "name": "",
          "type": "bytes"
        }
      ],
      "name": "onERC1155Received",
      "outputs": [
        {
          "internalType": "bytes4",
          "name": "",
          "type": "bytes4"
        }
      ],
      "stateMutability": "nonpayable",
      "type": "function"
    },
    {
      "inputs": [],
      "name": "owner",
      "outputs": [
        {
          "internalType": "address",
          "name": "",
          "type": "address"
        }
      ],
      "stateMutability": "view",
      "type": "function"
    },
    {
      "inputs": [],
      "name": "renounceOwnership",
      "outputs": [],
      "stateMutability": "nonpayable",
      "type": "function"
    },
    {
      "inputs": [
        {
          "internalType": "bytes4",
          "name": "interfaceId",
          "type": "bytes4"
        }
      ],
      "name": "supportsInterface",
      "outputs": [
        {
          "internalType": "bool",
          "name": "",
          "type": "bool"
        }
      ],
      "stateMutability": "view",
      "type": "function"
    },
    {
      "inputs": [],
      "name": "tokenAddress",
      "outputs": [
        {
          "internalType": "address",
          "name": "",
          "type": "address"
        }
      ],
      "stateMutability": "view",
      "type": "function"
    },
    {
      "inputs": [
        {
          "internalType": "address",
          "name": "newOwner",
          "type": "address"
        }
      ],
      "name": "transferOwnership",
      "outputs": [],
      "stateMutability": "nonpayable",
      "type": "function"
    },
    {
      "inputs": [
        {
          "internalType": "uint256",
          "name": "newListingFee",
          "type": "uint256"
        }
      ],
      "name": "updatelistingFee",
      "outputs": [],
      "stateMutability": "payable",
      "type": "function"
    }
  ],
  "bytecode": "0x6080604052662386f26fc100006003553480156200001c57600080fd5b5060405162002d8a38038062002d8a8339818101604052810190620000429190620001e7565b6200006262000056620000b160201b60201c565b620000b960201b60201c565b6001808190555080600460006101000a81548173ffffffffffffffffffffffffffffffffffffffff021916908373ffffffffffffffffffffffffffffffffffffffff1602179055505062000219565b600033905090565b60008060009054906101000a900473ffffffffffffffffffffffffffffffffffffffff169050816000806101000a81548173ffffffffffffffffffffffffffffffffffffffff021916908373ffffffffffffffffffffffffffffffffffffffff1602179055508173ffffffffffffffffffffffffffffffffffffffff168173ffffffffffffffffffffffffffffffffffffffff167f8be0079c531659141344cd1fd0a4f28419497f9722a3daafe3b4186f6b6457e060405160405180910390a35050565b600080fd5b600073ffffffffffffffffffffffffffffffffffffffff82169050919050565b6000620001af8262000182565b9050919050565b620001c181620001a2565b8114620001cd57600080fd5b50565b600081519050620001e181620001b6565b92915050565b6000602082840312156200020057620001ff6200017d565b5b60006200021084828501620001d0565b91505092915050565b612b6180620002296000396000f3fe6080604052600436106100fe5760003560e01c8063bc197c8111610095578063ccb4918d11610064578063ccb4918d146102e8578063cdaf072414610313578063d23470611461033e578063f23a6e6114610380578063f2fde38b146103bd576100fe565b8063bc197c811461022c578063bd94b00514610269578063c1fec9e414610292578063caf50690146102bd576100fe565b8063883efa67116100d1578063883efa671461019e5780638da5cb5b146101ba5780639b1225c4146101e55780639d76ea5814610201576100fe565b806301ffc9a71461010357806342444ed4146101405780636a1b7ecc1461015c578063715018a614610187575b600080fd5b34801561010f57600080fd5b5061012a60048036038101906101259190611aaf565b6103e6565b6040516101379190611af7565b60405180910390f35b61015a60048036038101906101559190611b48565b610460565b005b34801561016857600080fd5b506101716104c5565b60405161017e9190611b84565b60405180910390f35b34801561019357600080fd5b5061019c6104cb565b005b6101b860048036038101906101b39190611b9f565b6104df565b005b3480156101c657600080fd5b506101cf6108b9565b6040516101dc9190611c20565b60405180910390f35b6101ff60048036038101906101fa9190611b48565b6108e2565b005b34801561020d57600080fd5b50610216610ef0565b6040516102239190611c20565b60405180910390f35b34801561023857600080fd5b50610253600480360381019061024e9190611e75565b610f16565b6040516102609190611f53565b60405180910390f35b34801561027557600080fd5b50610290600480360381019061028b9190611b48565b610f2b565b005b34801561029e57600080fd5b506102a7611526565b6040516102b49190611b84565b60405180910390f35b3480156102c957600080fd5b506102d261152c565b6040516102df91906120e6565b60405180910390f35b3480156102f457600080fd5b506102fd611670565b60405161030a9190611b84565b60405180910390f35b34801561031f57600080fd5b5061032861167c565b6040516103359190611b84565b60405180910390f35b34801561034a57600080fd5b5061036560048036038101906103609190611b48565b611686565b60405161037796959493929190612117565b60405180910390f35b34801561038c57600080fd5b506103a760048036038101906103a29190612178565b61171f565b6040516103b49190611f53565b60405180910390f35b3480156103c957600080fd5b506103e460048036038101906103df919061220f565b611734565b005b60007f4e2312e0000000000000000000000000000000000000000000000000000000007bffffffffffffffffffffffffffffffffffffffffffffffffffffffff1916827bffffffffffffffffffffffffffffffffffffffffffffffffffffffff191614806104595750610458826117b7565b5b9050919050565b610468611821565b61047061189f565b600081116104b3576040517f08c379a00000000000000000000000000000000000000000000000000000000081526004016104aa90612299565b60405180910390fd5b806003819055506104c26118ee565b50565b60035481565b6104d3611821565b6104dd60006118f7565b565b6104e761189f565b600354341461052b576040517f08c379a000000000000000000000000000000000000000000000000000000000815260040161052290612305565b60405180910390fd5b6000811161056e576040517f08c379a000000000000000000000000000000000000000000000000000000000815260040161056590612397565b60405180910390fd5b600061057a60066119bb565b905060006040518060c001604052808381526020018581526020013373ffffffffffffffffffffffffffffffffffffffff168152602001600073ffffffffffffffffffffffffffffffffffffffff16815260200184815260200160001515815250905034600260008282546105ef91906123e6565b925050819055508060076000848152602001908152602001600020600082015181600001556020820151816001015560408201518160020160006101000a81548173ffffffffffffffffffffffffffffffffffffffff021916908373ffffffffffffffffffffffffffffffffffffffff16021790555060608201518160030160006101000a81548173ffffffffffffffffffffffffffffffffffffffff021916908373ffffffffffffffffffffffffffffffffffffffff1602179055506080820151816004015560a08201518160050160006101000a81548160ff0219169083151502179055509050506008819080600181540180825580915050600190039060005260206000209060060201600090919091909150600082015181600001556020820151816001015560408201518160020160006101000a81548173ffffffffffffffffffffffffffffffffffffffff021916908373ffffffffffffffffffffffffffffffffffffffff16021790555060608201518160030160006101000a81548173ffffffffffffffffffffffffffffffffffffffff021916908373ffffffffffffffffffffffffffffffffffffffff1602179055506080820151816004015560a08201518160050160006101000a81548160ff0219169083151502179055505050600460009054906101000a900473ffffffffffffffffffffffffffffffffffffffff1673ffffffffffffffffffffffffffffffffffffffff1663f242432a33308760016040518563ffffffff1660e01b815260040161083594939291906124bc565b600060405180830381600087803b15801561084f57600080fd5b505af1158015610863573d6000803e3d6000fd5b5050505061087160066119c9565b837fd31b349e5e268b6e7a8cc3b703e827bb3854e2763ec42a7300faf5d9c3e9c3f633856040516108a3929190612514565b60405180910390a250506108b56118ee565b5050565b60008060009054906101000a900473ffffffffffffffffffffffffffffffffffffffff16905090565b6108ea61189f565b60006007600083815260200190815260200160002060040154905060006007600084815260200190815260200160002060020160009054906101000a900473ffffffffffffffffffffffffffffffffffffffff169050813414610982576040517f08c379a0000000000000000000000000000000000000000000000000000000008152600401610979906125af565b60405180910390fd5b3373ffffffffffffffffffffffffffffffffffffffff168173ffffffffffffffffffffffffffffffffffffffff16036109f0576040517f08c379a00000000000000000000000000000000000000000000000000000000081526004016109e79061261b565b60405180910390fd5b6000600760008581526020019081526020016000206040518060c001604052908160008201548152602001600182015481526020016002820160009054906101000a900473ffffffffffffffffffffffffffffffffffffffff1673ffffffffffffffffffffffffffffffffffffffff1673ffffffffffffffffffffffffffffffffffffffff1681526020016003820160009054906101000a900473ffffffffffffffffffffffffffffffffffffffff1673ffffffffffffffffffffffffffffffffffffffff1673ffffffffffffffffffffffffffffffffffffffff168152602001600482015481526020016005820160009054906101000a900460ff161515151581525050905033816060019073ffffffffffffffffffffffffffffffffffffffff16908173ffffffffffffffffffffffffffffffffffffffff168152505060018160a00190151590811515815250508060088581548110610b5557610b5461263b565b5b9060005260206000209060060201600082015181600001556020820151816001015560408201518160020160006101000a81548173ffffffffffffffffffffffffffffffffffffffff021916908373ffffffffffffffffffffffffffffffffffffffff16021790555060608201518160030160006101000a81548173ffffffffffffffffffffffffffffffffffffffff021916908373ffffffffffffffffffffffffffffffffffffffff1602179055506080820151816004015560a08201518160050160006101000a81548160ff0219169083151502179055509050508060076000868152602001908152602001600020600082015181600001556020820151816001015560408201518160020160006101000a81548173ffffffffffffffffffffffffffffffffffffffff021916908373ffffffffffffffffffffffffffffffffffffffff16021790555060608201518160030160006101000a81548173ffffffffffffffffffffffffffffffffffffffff021916908373ffffffffffffffffffffffffffffffffffffffff1602179055506080820151816004015560a08201518160050160006101000a81548160ff021916908315150217905550905050610d1f60056119c9565b600460009054906101000a900473ffffffffffffffffffffffffffffffffffffffff1673ffffffffffffffffffffffffffffffffffffffff1663f242432a3033846020015160016040518563ffffffff1660e01b8152600401610d8594939291906124bc565b600060405180830381600087803b158015610d9f57600080fd5b505af1158015610db3573d6000803e3d6000fd5b5050505060006007600086815260200190815260200160002060020160009054906101000a900473ffffffffffffffffffffffffffffffffffffffff1673ffffffffffffffffffffffffffffffffffffffff1634604051610e139061269b565b60006040518083038185875af1925050503d8060008114610e50576040519150601f19603f3d011682016040523d82523d6000602084013e610e55565b606091505b5050905080610e99576040517f08c379a0000000000000000000000000000000000000000000000000000000008152600401610e9090612722565b60405180910390fd5b81602001517fec7b3e53b13d8aed24b32d71dabfb6afd1ee879d5c762345fb58ef82ce95cf8a8360400151338560800151604051610ed993929190612797565b60405180910390a250505050610eed6118ee565b50565b600460009054906101000a900473ffffffffffffffffffffffffffffffffffffffff1681565b600063bc197c8160e01b905095945050505050565b6000600760008381526020019081526020016000206040518060c001604052908160008201548152602001600182015481526020016002820160009054906101000a900473ffffffffffffffffffffffffffffffffffffffff1673ffffffffffffffffffffffffffffffffffffffff1673ffffffffffffffffffffffffffffffffffffffff1681526020016003820160009054906101000a900473ffffffffffffffffffffffffffffffffffffffff1673ffffffffffffffffffffffffffffffffffffffff1673ffffffffffffffffffffffffffffffffffffffff168152602001600482015481526020016005820160009054906101000a900460ff16151515158152505090506000816020015103611079576040517f08c379a000000000000000000000000000000000000000000000000000000000815260040161107090612840565b60405180910390fd5b3373ffffffffffffffffffffffffffffffffffffffff16816040015173ffffffffffffffffffffffffffffffffffffffff16146110eb576040517f08c379a00000000000000000000000000000000000000000000000000000000081526004016110e2906128d2565b60405180910390fd5b600460009054906101000a900473ffffffffffffffffffffffffffffffffffffffff1673ffffffffffffffffffffffffffffffffffffffff1663f242432a3033846020015160016040518563ffffffff1660e01b815260040161115194939291906124bc565b600060405180830381600087803b15801561116b57600080fd5b505af115801561117f573d6000803e3d6000fd5b50505050600061118f60066119bb565b9050600181111561144657600060086001836111ab91906128f2565b815481106111bc576111bb61263b565b5b90600052602060002090600602019050838160000181905550806007600086815260200190815260200160002060008201548160000155600182015481600101556002820160009054906101000a900473ffffffffffffffffffffffffffffffffffffffff168160020160006101000a81548173ffffffffffffffffffffffffffffffffffffffff021916908373ffffffffffffffffffffffffffffffffffffffff1602179055506003820160009054906101000a900473ffffffffffffffffffffffffffffffffffffffff168160030160006101000a81548173ffffffffffffffffffffffffffffffffffffffff021916908373ffffffffffffffffffffffffffffffffffffffff160217905550600482015481600401556005820160009054906101000a900460ff168160050160006101000a81548160ff021916908315150217905550905050806008858154811061131a5761131961263b565b5b906000526020600020906006020160008201548160000155600182015481600101556002820160009054906101000a900473ffffffffffffffffffffffffffffffffffffffff168160020160006101000a81548173ffffffffffffffffffffffffffffffffffffffff021916908373ffffffffffffffffffffffffffffffffffffffff1602179055506003820160009054906101000a900473ffffffffffffffffffffffffffffffffffffffff168160030160006101000a81548173ffffffffffffffffffffffffffffffffffffffff021916908373ffffffffffffffffffffffffffffffffffffffff160217905550600482015481600401556005820160009054906101000a900460ff168160050160006101000a81548160ff021916908315150217905550905050505b600880548061145857611457612926565b5b600190038181906000526020600020906006020160008082016000905560018201600090556002820160006101000a81549073ffffffffffffffffffffffffffffffffffffffff02191690556003820160006101000a81549073ffffffffffffffffffffffffffffffffffffffff021916905560048201600090556005820160006101000a81549060ff0219169055505090556114f560066119df565b7f283a04f61781e055ec52ded2e9384e6b26de77267210dd081e76092d2410def160405160405180910390a1505050565b60025481565b60606008805480602002602001604051908101604052809291908181526020016000905b8282101561166757838290600052602060002090600602016040518060c001604052908160008201548152602001600182015481526020016002820160009054906101000a900473ffffffffffffffffffffffffffffffffffffffff1673ffffffffffffffffffffffffffffffffffffffff1673ffffffffffffffffffffffffffffffffffffffff1681526020016003820160009054906101000a900473ffffffffffffffffffffffffffffffffffffffff1673ffffffffffffffffffffffffffffffffffffffff1673ffffffffffffffffffffffffffffffffffffffff168152602001600482015481526020016005820160009054906101000a900460ff16151515158152505081526020019060010190611550565b50505050905090565b60068060000154905081565b6000600354905090565b6008818154811061169657600080fd5b90600052602060002090600602016000915090508060000154908060010154908060020160009054906101000a900473ffffffffffffffffffffffffffffffffffffffff16908060030160009054906101000a900473ffffffffffffffffffffffffffffffffffffffff16908060040154908060050160009054906101000a900460ff16905086565b600063f23a6e6160e01b905095945050505050565b61173c611821565b600073ffffffffffffffffffffffffffffffffffffffff168173ffffffffffffffffffffffffffffffffffffffff16036117ab576040517f08c379a00000000000000000000000000000000000000000000000000000000081526004016117a2906129c7565b60405180910390fd5b6117b4816118f7565b50565b60007f01ffc9a7000000000000000000000000000000000000000000000000000000007bffffffffffffffffffffffffffffffffffffffffffffffffffffffff1916827bffffffffffffffffffffffffffffffffffffffffffffffffffffffff1916149050919050565b611829611a3b565b73ffffffffffffffffffffffffffffffffffffffff166118476108b9565b73ffffffffffffffffffffffffffffffffffffffff161461189d576040517f08c379a000000000000000000000000000000000000000000000000000000000815260040161189490612a33565b60405180910390fd5b565b6002600154036118e4576040517f08c379a00000000000000000000000000000000000000000000000000000000081526004016118db90612a9f565b60405180910390fd5b6002600181905550565b60018081905550565b60008060009054906101000a900473ffffffffffffffffffffffffffffffffffffffff169050816000806101000a81548173ffffffffffffffffffffffffffffffffffffffff021916908373ffffffffffffffffffffffffffffffffffffffff1602179055508173ffffffffffffffffffffffffffffffffffffffff168173ffffffffffffffffffffffffffffffffffffffff167f8be0079c531659141344cd1fd0a4f28419497f9722a3daafe3b4186f6b6457e060405160405180910390a35050565b600081600001549050919050565b6001816000016000828254019250508190555050565b60008160000154905060008111611a2b576040517f08c379a0000000000000000000000000000000000000000000000000000000008152600401611a2290612b0b565b60405180910390fd5b6001810382600001819055505050565b600033905090565b6000604051905090565b600080fd5b600080fd5b60007fffffffff0000000000000000000000000000000000000000000000000000000082169050919050565b611a8c81611a57565b8114611a9757600080fd5b50565b600081359050611aa981611a83565b92915050565b600060208284031215611ac557611ac4611a4d565b5b6000611ad384828501611a9a565b91505092915050565b60008115159050919050565b611af181611adc565b82525050565b6000602082019050611b0c6000830184611ae8565b92915050565b6000819050919050565b611b2581611b12565b8114611b3057600080fd5b50565b600081359050611b4281611b1c565b92915050565b600060208284031215611b5e57611b5d611a4d565b5b6000611b6c84828501611b33565b91505092915050565b611b7e81611b12565b82525050565b6000602082019050611b996000830184611b75565b92915050565b60008060408385031215611bb657611bb5611a4d565b5b6000611bc485828601611b33565b9250506020611bd585828601611b33565b9150509250929050565b600073ffffffffffffffffffffffffffffffffffffffff82169050919050565b6000611c0a82611bdf565b9050919050565b611c1a81611bff565b82525050565b6000602082019050611c356000830184611c11565b92915050565b611c4481611bff565b8114611c4f57600080fd5b50565b600081359050611c6181611c3b565b92915050565b600080fd5b6000601f19601f8301169050919050565b7f4e487b7100000000000000000000000000000000000000000000000000000000600052604160045260246000fd5b611cb582611c6c565b810181811067ffffffffffffffff82111715611cd457611cd3611c7d565b5b80604052505050565b6000611ce7611a43565b9050611cf38282611cac565b919050565b600067ffffffffffffffff821115611d1357611d12611c7d565b5b602082029050602081019050919050565b600080fd5b6000611d3c611d3784611cf8565b611cdd565b90508083825260208201905060208402830185811115611d5f57611d5e611d24565b5b835b81811015611d885780611d748882611b33565b845260208401935050602081019050611d61565b5050509392505050565b600082601f830112611da757611da6611c67565b5b8135611db7848260208601611d29565b91505092915050565b600080fd5b600067ffffffffffffffff821115611de057611ddf611c7d565b5b611de982611c6c565b9050602081019050919050565b82818337600083830152505050565b6000611e18611e1384611dc5565b611cdd565b905082815260208101848484011115611e3457611e33611dc0565b5b611e3f848285611df6565b509392505050565b600082601f830112611e5c57611e5b611c67565b5b8135611e6c848260208601611e05565b91505092915050565b600080600080600060a08688031215611e9157611e90611a4d565b5b6000611e9f88828901611c52565b9550506020611eb088828901611c52565b945050604086013567ffffffffffffffff811115611ed157611ed0611a52565b5b611edd88828901611d92565b935050606086013567ffffffffffffffff811115611efe57611efd611a52565b5b611f0a88828901611d92565b925050608086013567ffffffffffffffff811115611f2b57611f2a611a52565b5b611f3788828901611e47565b9150509295509295909350565b611f4d81611a57565b82525050565b6000602082019050611f686000830184611f44565b92915050565b600081519050919050565b600082825260208201905092915050565b6000819050602082019050919050565b611fa381611b12565b82525050565b6000611fb482611bdf565b9050919050565b611fc481611fa9565b82525050565b611fd381611bff565b82525050565b611fe281611adc565b82525050565b60c082016000820151611ffe6000850182611f9a565b5060208201516120116020850182611f9a565b5060408201516120246040850182611fbb565b5060608201516120376060850182611fca565b50608082015161204a6080850182611f9a565b5060a082015161205d60a0850182611fd9565b50505050565b600061206f8383611fe8565b60c08301905092915050565b6000602082019050919050565b600061209382611f6e565b61209d8185611f79565b93506120a883611f8a565b8060005b838110156120d95781516120c08882612063565b97506120cb8361207b565b9250506001810190506120ac565b5085935050505092915050565b600060208201905081810360008301526121008184612088565b905092915050565b61211181611fa9565b82525050565b600060c08201905061212c6000830189611b75565b6121396020830188611b75565b6121466040830187612108565b6121536060830186611c11565b6121606080830185611b75565b61216d60a0830184611ae8565b979650505050505050565b600080600080600060a0868803121561219457612193611a4d565b5b60006121a288828901611c52565b95505060206121b388828901611c52565b94505060406121c488828901611b33565b93505060606121d588828901611b33565b925050608086013567ffffffffffffffff8111156121f6576121f5611a52565b5b61220288828901611e47565b9150509295509295909350565b60006020828403121561222557612224611a4d565b5b600061223384828501611c52565b91505092915050565b600082825260208201905092915050565b7f4e6577206c697374696e67206665652063616e6e6f7420626520300000000000600082015250565b6000612283601b8361223c565b915061228e8261224d565b602082019050919050565b600060208201905081810360008301526122b281612276565b9050919050565b7f596f75206e65656420746f20706179206c697374696e67206665657300000000600082015250565b60006122ef601c8361223c565b91506122fa826122b9565b602082019050919050565b6000602082019050818103600083015261231e816122e2565b9050919050565b7f596f75206e65656420746f2073706563696679206120636f727265637420707260008201527f6963650000000000000000000000000000000000000000000000000000000000602082015250565b600061238160238361223c565b915061238c82612325565b604082019050919050565b600060208201905081810360008301526123b081612374565b9050919050565b7f4e487b7100000000000000000000000000000000000000000000000000000000600052601160045260246000fd5b60006123f182611b12565b91506123fc83611b12565b9250828201905080821115612414576124136123b7565b5b92915050565b6000819050919050565b6000819050919050565b600061244961244461243f8461241a565b612424565b611b12565b9050919050565b6124598161242e565b82525050565b600082825260208201905092915050565b7f3078300000000000000000000000000000000000000000000000000000000000600082015250565b60006124a660038361245f565b91506124b182612470565b602082019050919050565b600060a0820190506124d16000830187611c11565b6124de6020830186611c11565b6124eb6040830185611b75565b6124f86060830184612450565b818103608083015261250981612499565b905095945050505050565b60006040820190506125296000830185611c11565b6125366020830184611b75565b9392505050565b7f496e737566666963656e742070726963652076616c756520666f72207468697360008201527f206974656d2e0000000000000000000000000000000000000000000000000000602082015250565b600061259960268361223c565b91506125a48261253d565b604082019050919050565b600060208201905081810360008301526125c88161258c565b9050919050565b7f596f752063616e6e6f742062757920796f7572206f776e206974656d00000000600082015250565b6000612605601c8361223c565b9150612610826125cf565b602082019050919050565b60006020820190508181036000830152612634816125f8565b9050919050565b7f4e487b7100000000000000000000000000000000000000000000000000000000600052603260045260246000fd5b600081905092915050565b50565b600061268560008361266a565b915061269082612675565b600082019050919050565b60006126a682612678565b9150819050919050565b7f4661696c656420746f2073656e64206d6f6e657920746f207468652073656c6c60008201527f6572000000000000000000000000000000000000000000000000000000000000602082015250565b600061270c60228361223c565b9150612717826126b0565b604082019050919050565b6000602082019050818103600083015261273b816126ff565b9050919050565b600061275d61275861275384611bdf565b612424565b611bdf565b9050919050565b600061276f82612742565b9050919050565b600061278182612764565b9050919050565b61279181612776565b82525050565b60006060820190506127ac6000830186612788565b6127b96020830185611c11565b6127c66040830184611b75565b949350505050565b7f4974656d206e6f7420666f756e6420696e20746865206d61726b6574706c616360008201527f6500000000000000000000000000000000000000000000000000000000000000602082015250565b600061282a60218361223c565b9150612835826127ce565b604082019050919050565b600060208201905081810360008301526128598161281d565b9050919050565b7f596f7520617265206e6f74207468652073656c6c6572206f662074686520697460008201527f656d000000000000000000000000000000000000000000000000000000000000602082015250565b60006128bc60228361223c565b91506128c782612860565b604082019050919050565b600060208201905081810360008301526128eb816128af565b9050919050565b60006128fd82611b12565b915061290883611b12565b92508282039050818111156129205761291f6123b7565b5b92915050565b7f4e487b7100000000000000000000000000000000000000000000000000000000600052603160045260246000fd5b7f4f776e61626c653a206e6577206f776e657220697320746865207a65726f206160008201527f6464726573730000000000000000000000000000000000000000000000000000602082015250565b60006129b160268361223c565b91506129bc82612955565b604082019050919050565b600060208201905081810360008301526129e0816129a4565b9050919050565b7f4f776e61626c653a2063616c6c6572206973206e6f7420746865206f776e6572600082015250565b6000612a1d60208361223c565b9150612a28826129e7565b602082019050919050565b60006020820190508181036000830152612a4c81612a10565b9050919050565b7f5265656e7472616e637947756172643a207265656e7472616e742063616c6c00600082015250565b6000612a89601f8361223c565b9150612a9482612a53565b602082019050919050565b60006020820190508181036000830152612ab881612a7c565b9050919050565b7f436f756e7465723a2064656372656d656e74206f766572666c6f770000000000600082015250565b6000612af5601b8361223c565b9150612b0082612abf565b602082019050919050565b60006020820190508181036000830152612b2481612ae8565b905091905056fea2646970667358221220692c78ce004d7f4f493fb6228968f650a94b663f82f025f06204a0676e4f740764736f6c63430008120033",
  "linkReferences": {},
  "deployedLinkReferences": {}
}