{
  "_format": "hh-sol-artifact-1",
  "contractName": "TreasureGuardian",
  "sourceName": "contracts/TreasureGuardian.sol",
  "abi": [
    {
      "inputs": [],
      "stateMutability": "nonpayable",
      "type": "constructor"
    },
    {
      "anonymous": false,
      "inputs": [
        {
          "indexed": true,
          "internalType": "address",
          "name": "previousOwner",
          "type": "address"
        },
        {
          "indexed": true,
          "internalType": "address",
          "name": "newOwner",
          "type": "address"
        }
      ],
      "name": "OwnershipTransferred",
      "type": "event"
    },
    {
      "anonymous": false,
      "inputs": [
        {
          "indexed": false,
          "internalType": "address",
          "name": "to",
          "type": "address"
        },
        {
          "indexed": false,
          "internalType": "uint256[]",
          "name": "ids",
          "type": "uint256[]"
        },
        {
          "indexed": false,
          "internalType": "uint256[]",
          "name": "missingIds",
          "type": "uint256[]"
        }
      ],
      "name": "onStuffTransferedTo",
      "type": "event"
    },
    {
      "inputs": [
        {
          "internalType": "uint256",
          "name": "amount",
          "type": "uint256"
        }
      ],
      "name": "buyChest",
      "outputs": [],
      "stateMutability": "nonpayable",
      "type": "function"
    },
    {
      "inputs": [],
      "name": "chestPrice",
      "outputs": [
        {
          "internalType": "uint256",
          "name": "",
          "type": "uint256"
        }
      ],
      "stateMutability": "view",
      "type": "function"
    },
    {
      "inputs": [],
      "name": "createCollection",
      "outputs": [],
      "stateMutability": "nonpayable",
      "type": "function"
    },
    {
      "inputs": [],
      "name": "factory",
      "outputs": [
        {
          "internalType": "contract ForgeMaster",
          "name": "",
          "type": "address"
        }
      ],
      "stateMutability": "view",
      "type": "function"
    },
    {
      "inputs": [],
      "name": "guardianStuff",
      "outputs": [
        {
          "internalType": "contract GuardianStuff",
          "name": "",
          "type": "address"
        }
      ],
      "stateMutability": "view",
      "type": "function"
    },
    {
      "inputs": [],
      "name": "guardianToken",
      "outputs": [
        {
          "internalType": "contract GuardianToken",
          "name": "",
          "type": "address"
        }
      ],
      "stateMutability": "view",
      "type": "function"
    },
    {
      "inputs": [
        {
          "internalType": "address",
          "name": "guardianTokenAddr",
          "type": "address"
        }
      ],
      "name": "initialize",
      "outputs": [],
      "stateMutability": "nonpayable",
      "type": "function"
    },
    {
      "inputs": [
        {
          "internalType": "address",
          "name": "guardianStuffAddr",
          "type": "address"
        }
      ],
      "name": "initializeGuardianStuff",
      "outputs": [],
      "stateMutability": "nonpayable",
      "type": "function"
    },
    {
      "inputs": [
        {
          "internalType": "uint8",
          "name": "dropRateCommon",
          "type": "uint8"
        },
        {
          "internalType": "uint8",
          "name": "dropRateUncommon",
          "type": "uint8"
        },
        {
          "internalType": "uint8",
          "name": "dropRateRare",
          "type": "uint8"
        },
        {
          "internalType": "uint8",
          "name": "dropRateEpic",
          "type": "uint8"
        },
        {
          "internalType": "uint8",
          "name": "dropRateLegendary",
          "type": "uint8"
        }
      ],
      "name": "modifyDropRate",
      "outputs": [],
      "stateMutability": "nonpayable",
      "type": "function"
    },
    {
      "inputs": [
        {
          "internalType": "address",
          "name": "",
          "type": "address"
        },
        {
          "internalType": "address",
          "name": "",
          "type": "address"
        },
        {
          "internalType": "uint256[]",
          "name": "",
          "type": "uint256[]"
        },
        {
          "internalType": "uint256[]",
          "name": "",
          "type": "uint256[]"
        },
        {
          "internalType": "bytes",
          "name": "",
          "type": "bytes"
        }
      ],
      "name": "onERC1155BatchReceived",
      "outputs": [
        {
          "internalType": "bytes4",
          "name": "",
          "type": "bytes4"
        }
      ],
      "stateMutability": "nonpayable",
      "type": "function"
    },
    {
      "inputs": [
        {
          "internalType": "address",
          "name": "",
          "type": "address"
        },
        {
          "internalType": "address",
          "name": "",
          "type": "address"
        },
        {
          "internalType": "uint256",
          "name": "",
          "type": "uint256"
        },
        {
          "internalType": "uint256",
          "name": "",
          "type": "uint256"
        },
        {
          "internalType": "bytes",
          "name": "",
          "type": "bytes"
        }
      ],
      "name": "onERC1155Received",
      "outputs": [
        {
          "internalType": "bytes4",
          "name": "",
          "type": "bytes4"
        }
      ],
      "stateMutability": "nonpayable",
      "type": "function"
    },
    {
      "inputs": [],
      "name": "openChest",
      "outputs": [
        {
          "internalType": "uint256[]",
          "name": "ids",
          "type": "uint256[]"
        }
      ],
      "stateMutability": "nonpayable",
      "type": "function"
    },
    {
      "inputs": [],
      "name": "owner",
      "outputs": [
        {
          "internalType": "address",
          "name": "",
          "type": "address"
        }
      ],
      "stateMutability": "view",
      "type": "function"
    },
    {
      "inputs": [],
      "name": "renounceOwnership",
      "outputs": [],
      "stateMutability": "nonpayable",
      "type": "function"
    },
    {
      "inputs": [
        {
          "internalType": "address",
          "name": "guardianAddress",
          "type": "address"
        },
        {
          "internalType": "uint256",
          "name": "amount",
          "type": "uint256"
        }
      ],
      "name": "rewardGuardianWithToken",
      "outputs": [],
      "stateMutability": "nonpayable",
      "type": "function"
    },
    {
      "inputs": [
        {
          "internalType": "address",
          "name": "from",
          "type": "address"
        },
        {
          "internalType": "address",
          "name": "to",
          "type": "address"
        },
        {
          "internalType": "uint256",
          "name": "id",
          "type": "uint256"
        },
        {
          "internalType": "uint256",
          "name": "amount",
          "type": "uint256"
        },
        {
          "internalType": "bytes",
          "name": "data",
          "type": "bytes"
        }
      ],
      "name": "safeTransferFrom",
      "outputs": [],
      "stateMutability": "nonpayable",
      "type": "function"
    },
    {
      "inputs": [
        {
          "internalType": "bytes4",
          "name": "interfaceId",
          "type": "bytes4"
        }
      ],
      "name": "supportsInterface",
      "outputs": [
        {
          "internalType": "bool",
          "name": "",
          "type": "bool"
        }
      ],
      "stateMutability": "view",
      "type": "function"
    },
    {
      "inputs": [
        {
          "internalType": "address",
          "name": "newOwner",
          "type": "address"
        }
      ],
      "name": "transferOwnership",
      "outputs": [],
      "stateMutability": "nonpayable",
      "type": "function"
    }
  ],
  "bytecode": "0x608060405268015af1d78b58c400006004556005600660006101000a81548160ff021916908360ff160217905550603c600660016101000a81548160ff021916908360ff1602179055506019600660026101000a81548160ff021916908360ff160217905550600a600660036101000a81548160ff021916908360ff1602179055506004600660046101000a81548160ff021916908360ff1602179055506001600660056101000a81548160ff021916908360ff160217905550348015620000c657600080fd5b50620000e7620000db6200015960201b60201c565b6200016160201b60201c565b604051620000f59062000225565b604051809103906000f08015801562000112573d6000803e3d6000fd5b50600160006101000a81548173ffffffffffffffffffffffffffffffffffffffff021916908373ffffffffffffffffffffffffffffffffffffffff16021790555062000233565b600033905090565b60008060009054906101000a900473ffffffffffffffffffffffffffffffffffffffff169050816000806101000a81548173ffffffffffffffffffffffffffffffffffffffff021916908373ffffffffffffffffffffffffffffffffffffffff1602179055508173ffffffffffffffffffffffffffffffffffffffff168173ffffffffffffffffffffffffffffffffffffffff167f8be0079c531659141344cd1fd0a4f28419497f9722a3daafe3b4186f6b6457e060405160405180910390a35050565b614ba7806200301183390190565b612dce80620002436000396000f3fe608060405234801561001057600080fd5b50600436106101165760003560e01c8063ae196ec8116100a2578063f154730411610071578063f154730414610293578063f23a6e61146102b1578063f242432a146102e1578063f2fde38b146102fd578063fa180dc91461031957610116565b8063ae196ec81461020d578063bc197c8114610229578063c45a015514610259578063c4d66de81461027757610116565b80636f49a3c0116100e95780636f49a3c01461018f578063715018a6146101ad5780637f45aa0c146101b7578063829a826a146101d35780638da5cb5b146101ef57610116565b806301ffc9a71461011b578063444e56ed1461014b5780634e19254814610169578063647f1a9c14610185575b600080fd5b610135600480360381019061013091906119f9565b610337565b6040516101429190611a41565b60405180910390f35b6101536103b1565b6040516101609190611a75565b60405180910390f35b610183600480360381019061017e9190611abc565b6103b7565b005b61018d61075b565b005b610197610955565b6040516101a49190611ba7565b60405180910390f35b6101b5610e2b565b005b6101d160048036038101906101cc9190611c27565b610e3f565b005b6101ed60048036038101906101e89190611c8d565b610e8b565b005b6101f7610f93565b6040516102049190611d17565b60405180910390f35b61022760048036038101906102229190611d32565b610fbc565b005b610243600480360381019061023e9190611f80565b611146565b604051610250919061205e565b60405180910390f35b61026161115b565b60405161026e91906120d8565b60405180910390f35b610291600480360381019061028c9190611c27565b611181565b005b61029b6111cd565b6040516102a89190612114565b60405180910390f35b6102cb60048036038101906102c6919061212f565b6111f3565b6040516102d8919061205e565b60405180910390f35b6102fb60048036038101906102f6919061212f565b611208565b005b61031760048036038101906103129190611c27565b6112ac565b005b61032161132f565b60405161032e91906121e7565b60405180910390f35b60007f4e2312e0000000000000000000000000000000000000000000000000000000007bffffffffffffffffffffffffffffffffffffffffffffffffffffffff1916827bffffffffffffffffffffffffffffffffffffffffffffffffffffffff191614806103aa57506103a982611355565b5b9050919050565b60045481565b6000600260009054906101000a900473ffffffffffffffffffffffffffffffffffffffff1673ffffffffffffffffffffffffffffffffffffffff1663ea2a17306040518163ffffffff1660e01b8152600401602060405180830381865afa158015610426573d6000803e3d6000fd5b505050506040513d601f19601f8201168201806040525081019061044a9190612217565b905081600260009054906101000a900473ffffffffffffffffffffffffffffffffffffffff1673ffffffffffffffffffffffffffffffffffffffff1662fdd58e30846040518363ffffffff1660e01b81526004016104a9929190612275565b602060405180830381865afa1580156104c6573d6000803e3d6000fd5b505050506040513d601f19601f820116820180604052508101906104ea91906122b3565b1161052a576040517f08c379a000000000000000000000000000000000000000000000000000000000815260040161052190612363565b60405180910390fd5b8160045461053891906123b2565b600360009054906101000a900473ffffffffffffffffffffffffffffffffffffffff1673ffffffffffffffffffffffffffffffffffffffff166370a08231336040518263ffffffff1660e01b81526004016105939190611d17565b602060405180830381865afa1580156105b0573d6000803e3d6000fd5b505050506040513d601f19601f820116820180604052508101906105d491906122b3565b11610614576040517f08c379a000000000000000000000000000000000000000000000000000000000815260040161060b90612466565b60405180910390fd5b600360009054906101000a900473ffffffffffffffffffffffffffffffffffffffff1673ffffffffffffffffffffffffffffffffffffffff166323b872dd33308560045461066291906123b2565b6040518463ffffffff1660e01b815260040161068093929190612486565b6020604051808303816000875af115801561069f573d6000803e3d6000fd5b505050506040513d601f19601f820116820180604052508101906106c391906124e9565b50600260009054906101000a900473ffffffffffffffffffffffffffffffffffffffff1673ffffffffffffffffffffffffffffffffffffffff1663f242432a303384866040518563ffffffff1660e01b8152600401610725949392919061254d565b600060405180830381600087803b15801561073f57600080fd5b505af1158015610753573d6000803e3d6000fd5b505050505050565b6107636113bf565b600160009054906101000a900473ffffffffffffffffffffffffffffffffffffffff1673ffffffffffffffffffffffffffffffffffffffff1663059dfe136040518163ffffffff1660e01b81526004016107bc906125f1565b6020604051808303816000875af11580156107db573d6000803e3d6000fd5b505050506040513d601f19601f820116820180604052508101906107ff9190612626565b50600160009054906101000a900473ffffffffffffffffffffffffffffffffffffffff1673ffffffffffffffffffffffffffffffffffffffff16630f7deecb6040518163ffffffff1660e01b8152600401600060405180830381600087803b15801561086a57600080fd5b505af115801561087e573d6000803e3d6000fd5b50505050600160009054906101000a900473ffffffffffffffffffffffffffffffffffffffff1673ffffffffffffffffffffffffffffffffffffffff16636aa003716040518163ffffffff1660e01b8152600401602060405180830381865afa1580156108ef573d6000803e3d6000fd5b505050506040513d601f19601f820116820180604052508101906109139190612626565b600260006101000a81548173ffffffffffffffffffffffffffffffffffffffff021916908373ffffffffffffffffffffffffffffffffffffffff160217905550565b60606000600260009054906101000a900473ffffffffffffffffffffffffffffffffffffffff1673ffffffffffffffffffffffffffffffffffffffff1663ea2a17306040518163ffffffff1660e01b8152600401602060405180830381865afa1580156109c6573d6000803e3d6000fd5b505050506040513d601f19601f820116820180604052508101906109ea9190612217565b90506000600260009054906101000a900473ffffffffffffffffffffffffffffffffffffffff1673ffffffffffffffffffffffffffffffffffffffff1662fdd58e33846040518363ffffffff1660e01b8152600401610a4a929190612275565b602060405180830381865afa158015610a67573d6000803e3d6000fd5b505050506040513d601f19601f82011682018060405250810190610a8b91906122b3565b11610acb576040517f08c379a0000000000000000000000000000000000000000000000000000000008152600401610ac2906126c5565b60405180910390fd5b6000600660009054906101000a900460ff1660ff1667ffffffffffffffff811115610af957610af8611d88565b5b604051908082528060200260200182016040528015610b275781602001602082028036833780820191505090505b5090506000600660009054906101000a900460ff1660ff1667ffffffffffffffff811115610b5857610b57611d88565b5b604051908082528060200260200182016040528015610b865781602001602082028036833780820191505090505b50905060005b600660009054906101000a900460ff1660ff16811015610d52576000610bb061143d565b90506000600260009054906101000a900473ffffffffffffffffffffffffffffffffffffffff1673ffffffffffffffffffffffffffffffffffffffff1662fdd58e30846040518363ffffffff1660e01b8152600401610c109291906126e5565b602060405180830381865afa158015610c2d573d6000803e3d6000fd5b505050506040513d601f19601f82011682018060405250810190610c5191906122b3565b90506000811115610d155781858481518110610c7057610c6f61270e565b5b602002602001018181525050600260009054906101000a900473ffffffffffffffffffffffffffffffffffffffff1673ffffffffffffffffffffffffffffffffffffffff1663f242432a30338560016040518563ffffffff1660e01b8152600401610cde9493929190612778565b600060405180830381600087803b158015610cf857600080fd5b505af1158015610d0c573d6000803e3d6000fd5b50505050610d3c565b81848481518110610d2957610d2861270e565b5b6020026020010181815250505050610d3f565b50505b8080610d4a906127d0565b915050610b8c565b50600260009054906101000a900473ffffffffffffffffffffffffffffffffffffffff1673ffffffffffffffffffffffffffffffffffffffff1663f242432a33308660016040518563ffffffff1660e01b8152600401610db59493929190612818565b600060405180830381600087803b158015610dcf57600080fd5b505af1158015610de3573d6000803e3d6000fd5b505050507f1ab84bce784ba927df23bef9279723d9bbad6dec82728fb92e2aebfac01f666d338383604051610e1a93929190612870565b60405180910390a181935050505090565b610e336113bf565b610e3d6000611866565b565b610e476113bf565b80600260006101000a81548173ffffffffffffffffffffffffffffffffffffffff021916908373ffffffffffffffffffffffffffffffffffffffff16021790555050565b610e936113bf565b60648183858789610ea491906128b5565b610eae91906128b5565b610eb891906128b5565b610ec291906128b5565b60ff1614610f05576040517f08c379a0000000000000000000000000000000000000000000000000000000008152600401610efc9061295c565b60405180910390fd5b84600660016101000a81548160ff021916908360ff16021790555083600660026101000a81548160ff021916908360ff16021790555082600660036101000a81548160ff021916908360ff16021790555081600660046101000a81548160ff021916908360ff16021790555080600660056101000a81548160ff021916908360ff1602179055505050505050565b60008060009054906101000a900473ffffffffffffffffffffffffffffffffffffffff16905090565b610fc46113bf565b80600360009054906101000a900473ffffffffffffffffffffffffffffffffffffffff1673ffffffffffffffffffffffffffffffffffffffff166370a08231306040518263ffffffff1660e01b81526004016110209190611d17565b602060405180830381865afa15801561103d573d6000803e3d6000fd5b505050506040513d601f19601f8201168201806040525081019061106191906122b3565b116110a1576040517f08c379a0000000000000000000000000000000000000000000000000000000008152600401611098906129ee565b60405180910390fd5b600360009054906101000a900473ffffffffffffffffffffffffffffffffffffffff1673ffffffffffffffffffffffffffffffffffffffff1663a9059cbb83836040518363ffffffff1660e01b81526004016110fe9291906126e5565b6020604051808303816000875af115801561111d573d6000803e3d6000fd5b505050506040513d601f19601f8201168201806040525081019061114191906124e9565b505050565b600063bc197c8160e01b905095945050505050565b600160009054906101000a900473ffffffffffffffffffffffffffffffffffffffff1681565b6111896113bf565b80600360006101000a81548173ffffffffffffffffffffffffffffffffffffffff021916908373ffffffffffffffffffffffffffffffffffffffff16021790555050565b600260009054906101000a900473ffffffffffffffffffffffffffffffffffffffff1681565b600063f23a6e6160e01b905095945050505050565b6112106113bf565b600260009054906101000a900473ffffffffffffffffffffffffffffffffffffffff1673ffffffffffffffffffffffffffffffffffffffff1663f242432a86868686866040518663ffffffff1660e01b8152600401611273959493929190612a7c565b600060405180830381600087803b15801561128d57600080fd5b505af11580156112a1573d6000803e3d6000fd5b505050505050505050565b6112b46113bf565b600073ffffffffffffffffffffffffffffffffffffffff168173ffffffffffffffffffffffffffffffffffffffff1603611323576040517f08c379a000000000000000000000000000000000000000000000000000000000815260040161131a90612b48565b60405180910390fd5b61132c81611866565b50565b600360009054906101000a900473ffffffffffffffffffffffffffffffffffffffff1681565b60007f01ffc9a7000000000000000000000000000000000000000000000000000000007bffffffffffffffffffffffffffffffffffffffffffffffffffffffff1916827bffffffffffffffffffffffffffffffffffffffffffffffffffffffff1916149050919050565b6113c761192a565b73ffffffffffffffffffffffffffffffffffffffff166113e5610f93565b73ffffffffffffffffffffffffffffffffffffffff161461143b576040517f08c379a000000000000000000000000000000000000000000000000000000000815260040161143290612bb4565b60405180910390fd5b565b600080611448611932565b90506000600660019054906101000a900460ff1660ff1682101561146f57600090506116f9565b600660019054906101000a900460ff1660ff1682101580156114bc5750600660029054906101000a900460ff16600660019054906101000a900460ff166114b691906128b5565b60ff1682105b156114ca57600190506116f8565b600660029054906101000a900460ff16600660019054906101000a900460ff166114f491906128b5565b60ff16821015801561154b5750600660039054906101000a900460ff16600660029054906101000a900460ff16600660019054906101000a900460ff1661153b91906128b5565b61154591906128b5565b60ff1682105b1561155957600290506116f7565b600660039054906101000a900460ff16600660029054906101000a900460ff16600660019054906101000a900460ff1661159391906128b5565b61159d91906128b5565b60ff16821015801561160e5750600660049054906101000a900460ff16600660039054906101000a900460ff16600660029054906101000a900460ff16600660019054906101000a900460ff166115f491906128b5565b6115fe91906128b5565b61160891906128b5565b60ff1682105b1561161c57600390506116f6565b600660049054906101000a900460ff16600660039054906101000a900460ff16600660029054906101000a900460ff16600660019054906101000a900460ff1661166691906128b5565b61167091906128b5565b61167a91906128b5565b60ff1682101580156116eb5750600660059054906101000a900460ff16600660039054906101000a900460ff16600660029054906101000a900460ff16600660019054906101000a900460ff166116d191906128b5565b6116db91906128b5565b6116e591906128b5565b60ff1682105b156116f557600490505b5b5b5b5b611701611932565b9150600060019050602183101561171b5760019050611749565b6021831015801561172c5750604283105b1561173a5760029050611748565b6042831061174757600390505b5b5b60006001905060006001905061175d611932565b9450601185101561177157600190506117ff565b601185101580156117825750602285105b1561179057600290506117fe565b602285101580156117a15750603385105b156117af57600390506117fd565b603385101580156117c05750604485105b156117ce57600490506117fc565b604485101580156117df5750605485105b156117ed57600590506117fb565b605485106117fa57600690505b5b5b5b5b5b60008460ff16600a836118129190612bd4565b60ff166064856118229190612bd4565b60ff166103e88760ff166118369190612c1f565b6118409190612c5c565b61184a9190612c5c565b6118549190612c5c565b61ffff16905080965050505050505090565b60008060009054906101000a900473ffffffffffffffffffffffffffffffffffffffff169050816000806101000a81548173ffffffffffffffffffffffffffffffffffffffff021916908373ffffffffffffffffffffffffffffffffffffffff1602179055508173ffffffffffffffffffffffffffffffffffffffff168173ffffffffffffffffffffffffffffffffffffffff167f8be0079c531659141344cd1fd0a4f28419497f9722a3daafe3b4186f6b6457e060405160405180910390a35050565b600033905090565b600060056000815480929190611947906127d0565b91905055506064423360055460405160200161196593929190612cfb565b6040516020818303038152906040528051906020012060001c6119889190612d67565b905090565b6000604051905090565b600080fd5b600080fd5b60007fffffffff0000000000000000000000000000000000000000000000000000000082169050919050565b6119d6816119a1565b81146119e157600080fd5b50565b6000813590506119f3816119cd565b92915050565b600060208284031215611a0f57611a0e611997565b5b6000611a1d848285016119e4565b91505092915050565b60008115159050919050565b611a3b81611a26565b82525050565b6000602082019050611a566000830184611a32565b92915050565b6000819050919050565b611a6f81611a5c565b82525050565b6000602082019050611a8a6000830184611a66565b92915050565b611a9981611a5c565b8114611aa457600080fd5b50565b600081359050611ab681611a90565b92915050565b600060208284031215611ad257611ad1611997565b5b6000611ae084828501611aa7565b91505092915050565b600081519050919050565b600082825260208201905092915050565b6000819050602082019050919050565b611b1e81611a5c565b82525050565b6000611b308383611b15565b60208301905092915050565b6000602082019050919050565b6000611b5482611ae9565b611b5e8185611af4565b9350611b6983611b05565b8060005b83811015611b9a578151611b818882611b24565b9750611b8c83611b3c565b925050600181019050611b6d565b5085935050505092915050565b60006020820190508181036000830152611bc18184611b49565b905092915050565b600073ffffffffffffffffffffffffffffffffffffffff82169050919050565b6000611bf482611bc9565b9050919050565b611c0481611be9565b8114611c0f57600080fd5b50565b600081359050611c2181611bfb565b92915050565b600060208284031215611c3d57611c3c611997565b5b6000611c4b84828501611c12565b91505092915050565b600060ff82169050919050565b611c6a81611c54565b8114611c7557600080fd5b50565b600081359050611c8781611c61565b92915050565b600080600080600060a08688031215611ca957611ca8611997565b5b6000611cb788828901611c78565b9550506020611cc888828901611c78565b9450506040611cd988828901611c78565b9350506060611cea88828901611c78565b9250506080611cfb88828901611c78565b9150509295509295909350565b611d1181611be9565b82525050565b6000602082019050611d2c6000830184611d08565b92915050565b60008060408385031215611d4957611d48611997565b5b6000611d5785828601611c12565b9250506020611d6885828601611aa7565b9150509250929050565b600080fd5b6000601f19601f8301169050919050565b7f4e487b7100000000000000000000000000000000000000000000000000000000600052604160045260246000fd5b611dc082611d77565b810181811067ffffffffffffffff82111715611ddf57611dde611d88565b5b80604052505050565b6000611df261198d565b9050611dfe8282611db7565b919050565b600067ffffffffffffffff821115611e1e57611e1d611d88565b5b602082029050602081019050919050565b600080fd5b6000611e47611e4284611e03565b611de8565b90508083825260208201905060208402830185811115611e6a57611e69611e2f565b5b835b81811015611e935780611e7f8882611aa7565b845260208401935050602081019050611e6c565b5050509392505050565b600082601f830112611eb257611eb1611d72565b5b8135611ec2848260208601611e34565b91505092915050565b600080fd5b600067ffffffffffffffff821115611eeb57611eea611d88565b5b611ef482611d77565b9050602081019050919050565b82818337600083830152505050565b6000611f23611f1e84611ed0565b611de8565b905082815260208101848484011115611f3f57611f3e611ecb565b5b611f4a848285611f01565b509392505050565b600082601f830112611f6757611f66611d72565b5b8135611f77848260208601611f10565b91505092915050565b600080600080600060a08688031215611f9c57611f9b611997565b5b6000611faa88828901611c12565b9550506020611fbb88828901611c12565b945050604086013567ffffffffffffffff811115611fdc57611fdb61199c565b5b611fe888828901611e9d565b935050606086013567ffffffffffffffff8111156120095761200861199c565b5b61201588828901611e9d565b925050608086013567ffffffffffffffff8111156120365761203561199c565b5b61204288828901611f52565b9150509295509295909350565b612058816119a1565b82525050565b6000602082019050612073600083018461204f565b92915050565b6000819050919050565b600061209e61209961209484611bc9565b612079565b611bc9565b9050919050565b60006120b082612083565b9050919050565b60006120c2826120a5565b9050919050565b6120d2816120b7565b82525050565b60006020820190506120ed60008301846120c9565b92915050565b60006120fe826120a5565b9050919050565b61210e816120f3565b82525050565b60006020820190506121296000830184612105565b92915050565b600080600080600060a0868803121561214b5761214a611997565b5b600061215988828901611c12565b955050602061216a88828901611c12565b945050604061217b88828901611aa7565b935050606061218c88828901611aa7565b925050608086013567ffffffffffffffff8111156121ad576121ac61199c565b5b6121b988828901611f52565b9150509295509295909350565b60006121d1826120a5565b9050919050565b6121e1816121c6565b82525050565b60006020820190506121fc60008301846121d8565b92915050565b60008151905061221181611c61565b92915050565b60006020828403121561222d5761222c611997565b5b600061223b84828501612202565b91505092915050565b600061225f61225a61225584611c54565b612079565b611a5c565b9050919050565b61226f81612244565b82525050565b600060408201905061228a6000830185611d08565b6122976020830184612266565b9392505050565b6000815190506122ad81611a90565b92915050565b6000602082840312156122c9576122c8611997565b5b60006122d78482850161229e565b91505092915050565b600082825260208201905092915050565b7f536f72727920477561726469616e2c20746865726520617265206e6f7420656e60008201527f6f75676820636865737473206c6566742e000000000000000000000000000000602082015250565b600061234d6031836122e0565b9150612358826122f1565b604082019050919050565b6000602082019050818103600083015261237c81612340565b9050919050565b7f4e487b7100000000000000000000000000000000000000000000000000000000600052601160045260246000fd5b60006123bd82611a5c565b91506123c883611a5c565b92508282026123d681611a5c565b915082820484148315176123ed576123ec612383565b5b5092915050565b7f536f72727920477561726469616e2c20796f7520646f206e6f7420686176652060008201527f656e6f756768206d6f6e65792e00000000000000000000000000000000000000602082015250565b6000612450602d836122e0565b915061245b826123f4565b604082019050919050565b6000602082019050818103600083015261247f81612443565b9050919050565b600060608201905061249b6000830186611d08565b6124a86020830185611d08565b6124b56040830184611a66565b949350505050565b6124c681611a26565b81146124d157600080fd5b50565b6000815190506124e3816124bd565b92915050565b6000602082840312156124ff576124fe611997565b5b600061250d848285016124d4565b91505092915050565b600082825260208201905092915050565b50565b6000612537600083612516565b915061254282612527565b600082019050919050565b600060a0820190506125626000830187611d08565b61256f6020830186611d08565b61257c6040830185612266565b6125896060830184611a66565b818103608083015261259a8161252a565b905095945050505050565b7f4e6f646520477561726469616e7320416c79726120436f6c6c656374696f6e00600082015250565b60006125db601f836122e0565b91506125e6826125a5565b602082019050919050565b6000602082019050818103600083015261260a816125ce565b9050919050565b60008151905061262081611bfb565b92915050565b60006020828403121561263c5761263b611997565b5b600061264a84828501612611565b91505092915050565b7f536f72727920477561726469616e2c20796f7520646f206e6f7420686176652060008201527f616e7920636865737420696e20796f757220696e76656e746f72792e00000000602082015250565b60006126af603c836122e0565b91506126ba82612653565b604082019050919050565b600060208201905081810360008301526126de816126a2565b9050919050565b60006040820190506126fa6000830185611d08565b6127076020830184611a66565b9392505050565b7f4e487b7100000000000000000000000000000000000000000000000000000000600052603260045260246000fd5b6000819050919050565b600061276261275d6127588461273d565b612079565b611a5c565b9050919050565b61277281612747565b82525050565b600060a08201905061278d6000830187611d08565b61279a6020830186611d08565b6127a76040830185611a66565b6127b46060830184612769565b81810360808301526127c58161252a565b905095945050505050565b60006127db82611a5c565b91507fffffffffffffffffffffffffffffffffffffffffffffffffffffffffffffffff820361280d5761280c612383565b5b600182019050919050565b600060a08201905061282d6000830187611d08565b61283a6020830186611d08565b6128476040830185612266565b6128546060830184612769565b81810360808301526128658161252a565b905095945050505050565b60006060820190506128856000830186611d08565b81810360208301526128978185611b49565b905081810360408301526128ab8184611b49565b9050949350505050565b60006128c082611c54565b91506128cb83611c54565b9250828201905060ff8111156128e4576128e3612383565b5b92915050565b7f53756d206f66207468652064726f702072617465206d7573742062652065676160008201527f6c20746f20313030000000000000000000000000000000000000000000000000602082015250565b60006129466028836122e0565b9150612951826128ea565b604082019050919050565b6000602082019050818103600083015261297581612939565b9050919050565b7f536f72727920477561726469616e2c207468657265206973206e6f206d6f726560008201527f206d6f6e657920696e2074686520747265617375726500000000000000000000602082015250565b60006129d86036836122e0565b91506129e38261297c565b604082019050919050565b60006020820190508181036000830152612a07816129cb565b9050919050565b600081519050919050565b60005b83811015612a37578082015181840152602081019050612a1c565b60008484015250505050565b6000612a4e82612a0e565b612a588185612516565b9350612a68818560208601612a19565b612a7181611d77565b840191505092915050565b600060a082019050612a916000830188611d08565b612a9e6020830187611d08565b612aab6040830186611a66565b612ab86060830185611a66565b8181036080830152612aca8184612a43565b90509695505050505050565b7f4f776e61626c653a206e6577206f776e657220697320746865207a65726f206160008201527f6464726573730000000000000000000000000000000000000000000000000000602082015250565b6000612b326026836122e0565b9150612b3d82612ad6565b604082019050919050565b60006020820190508181036000830152612b6181612b25565b9050919050565b7f4f776e61626c653a2063616c6c6572206973206e6f7420746865206f776e6572600082015250565b6000612b9e6020836122e0565b9150612ba982612b68565b602082019050919050565b60006020820190508181036000830152612bcd81612b91565b9050919050565b6000612bdf82611c54565b9150612bea83611c54565b9250828202612bf881611c54565b9150808214612c0a57612c09612383565b5b5092915050565b600061ffff82169050919050565b6000612c2a82612c11565b9150612c3583612c11565b9250828202612c4381612c11565b9150808214612c5557612c54612383565b5b5092915050565b6000612c6782612c11565b9150612c7283612c11565b9250828201905061ffff811115612c8c57612c8b612383565b5b92915050565b6000819050919050565b612cad612ca882611a5c565b612c92565b82525050565b60008160601b9050919050565b6000612ccb82612cb3565b9050919050565b6000612cdd82612cc0565b9050919050565b612cf5612cf082611be9565b612cd2565b82525050565b6000612d078286612c9c565b602082019150612d178285612ce4565b601482019150612d278284612c9c565b602082019150819050949350505050565b7f4e487b7100000000000000000000000000000000000000000000000000000000600052601260045260246000fd5b6000612d7282611a5c565b9150612d7d83611a5c565b925082612d8d57612d8c612d38565b5b82820690509291505056fea26469706673582212204fa04832d26e341363f37518f613c9a10026a48bdf407231d0684e3bc23e45a164736f6c63430008120033608060405234801561001057600080fd5b5061002d61002261003260201b60201c565b61003a60201b60201c565b6100fe565b600033905090565b60008060009054906101000a900473ffffffffffffffffffffffffffffffffffffffff169050816000806101000a81548173ffffffffffffffffffffffffffffffffffffffff021916908373ffffffffffffffffffffffffffffffffffffffff1602179055508173ffffffffffffffffffffffffffffffffffffffff168173ffffffffffffffffffffffffffffffffffffffff167f8be0079c531659141344cd1fd0a4f28419497f9722a3daafe3b4186f6b6457e060405160405180910390a35050565b614a9a8061010d6000396000f3fe60806040523480156200001157600080fd5b5060043610620000b85760003560e01c80637ad26670116200007b5780637ad2667014620001635780638da5cb5b1462000183578063bc197c8114620001a5578063e5326ab114620001db578063f23a6e6114620001fd578063f2fde38b146200023357620000b8565b806301ffc9a714620000bd578063059dfe1314620000f35780630f7deecb14620001295780636aa003711462000135578063715018a61462000157575b600080fd5b620000db6004803603810190620000d5919062000ad2565b62000253565b604051620000ea919062000b21565b60405180910390f35b6200011160048036038101906200010b919062000ca0565b620002d0565b60405162000120919062000d36565b60405180910390f35b620001336200039a565b005b6200013f62000540565b6040516200014e919062000d36565b60405180910390f35b6200016162000566565b005b6200018160048036038101906200017b919062000d84565b6200057e565b005b6200018d62000725565b6040516200019c919062000d36565b60405180910390f35b620001c36004803603810190620001bd919062000f80565b6200074e565b604051620001d2919062001076565b60405180910390f35b620001e562000763565b604051620001f491906200111c565b60405180910390f35b6200021b600480360381019062000215919062001140565b620007f9565b6040516200022a919062001076565b60405180910390f35b6200025160048036038101906200024b919062000d84565b6200080e565b005b60007f4e2312e0000000000000000000000000000000000000000000000000000000007bffffffffffffffffffffffffffffffffffffffffffffffffffffffff1916827bffffffffffffffffffffffffffffffffffffffffffffffffffffffff19161480620002c95750620002c88262000898565b5b9050919050565b60008060405180602001620002e59062000a53565b6020820181038252601f19601f82011660405250905060008360405160200162000310919062001229565b604051602081830303815290604052805190602001209050808251602084016000f59250823b6200034057600080fd5b836001908162000351919062001478565b5082600260006101000a81548173ffffffffffffffffffffffffffffffffffffffff021916908373ffffffffffffffffffffffffffffffffffffffff1602179055505050919050565b620003a462000902565b600073ffffffffffffffffffffffffffffffffffffffff16600260009054906101000a900473ffffffffffffffffffffffffffffffffffffffff1673ffffffffffffffffffffffffffffffffffffffff160362000438576040517f08c379a00000000000000000000000000000000000000000000000000000000081526004016200042f90620015d5565b60405180910390fd5b6000600260009054906101000a900473ffffffffffffffffffffffffffffffffffffffff1690508073ffffffffffffffffffffffffffffffffffffffff166306f36e87336040518263ffffffff1660e01b81526004016200049a919062000d36565b600060405180830381600087803b158015620004b557600080fd5b505af1158015620004ca573d6000803e3d6000fd5b505050508073ffffffffffffffffffffffffffffffffffffffff166344dfb6bc336040518263ffffffff1660e01b815260040162000509919062000d36565b600060405180830381600087803b1580156200052457600080fd5b505af115801562000539573d6000803e3d6000fd5b5050505050565b600260009054906101000a900473ffffffffffffffffffffffffffffffffffffffff1681565b6200057062000902565b6200057c600062000987565b565b6200058862000902565b600073ffffffffffffffffffffffffffffffffffffffff16600260009054906101000a900473ffffffffffffffffffffffffffffffffffffffff1673ffffffffffffffffffffffffffffffffffffffff16036200061c576040517f08c379a00000000000000000000000000000000000000000000000000000000081526004016200061390620015d5565b60405180910390fd5b6000600260009054906101000a900473ffffffffffffffffffffffffffffffffffffffff1690508073ffffffffffffffffffffffffffffffffffffffff166306f36e87836040518263ffffffff1660e01b81526004016200067e919062000d36565b600060405180830381600087803b1580156200069957600080fd5b505af1158015620006ae573d6000803e3d6000fd5b505050508073ffffffffffffffffffffffffffffffffffffffff166344dfb6bc836040518263ffffffff1660e01b8152600401620006ed919062000d36565b600060405180830381600087803b1580156200070857600080fd5b505af11580156200071d573d6000803e3d6000fd5b505050505050565b60008060009054906101000a900473ffffffffffffffffffffffffffffffffffffffff16905090565b600063bc197c8160e01b905095945050505050565b60018054620007729062001271565b80601f0160208091040260200160405190810160405280929190818152602001828054620007a09062001271565b8015620007f15780601f10620007c557610100808354040283529160200191620007f1565b820191906000526020600020905b815481529060010190602001808311620007d357829003601f168201915b505050505081565b600063f23a6e6160e01b905095945050505050565b6200081862000902565b600073ffffffffffffffffffffffffffffffffffffffff168173ffffffffffffffffffffffffffffffffffffffff16036200088a576040517f08c379a000000000000000000000000000000000000000000000000000000000815260040162000881906200166d565b60405180910390fd5b620008958162000987565b50565b60007f01ffc9a7000000000000000000000000000000000000000000000000000000007bffffffffffffffffffffffffffffffffffffffffffffffffffffffff1916827bffffffffffffffffffffffffffffffffffffffffffffffffffffffff1916149050919050565b6200090c62000a4b565b73ffffffffffffffffffffffffffffffffffffffff166200092c62000725565b73ffffffffffffffffffffffffffffffffffffffff161462000985576040517f08c379a00000000000000000000000000000000000000000000000000000000081526004016200097c90620016df565b60405180910390fd5b565b60008060009054906101000a900473ffffffffffffffffffffffffffffffffffffffff169050816000806101000a81548173ffffffffffffffffffffffffffffffffffffffff021916908373ffffffffffffffffffffffffffffffffffffffff1602179055508173ffffffffffffffffffffffffffffffffffffffff168173ffffffffffffffffffffffffffffffffffffffff167f8be0079c531659141344cd1fd0a4f28419497f9722a3daafe3b4186f6b6457e060405160405180910390a35050565b600033905090565b613363806200170283390190565b6000604051905090565b600080fd5b600080fd5b60007fffffffff0000000000000000000000000000000000000000000000000000000082169050919050565b62000aac8162000a75565b811462000ab857600080fd5b50565b60008135905062000acc8162000aa1565b92915050565b60006020828403121562000aeb5762000aea62000a6b565b5b600062000afb8482850162000abb565b91505092915050565b60008115159050919050565b62000b1b8162000b04565b82525050565b600060208201905062000b38600083018462000b10565b92915050565b600080fd5b600080fd5b6000601f19601f8301169050919050565b7f4e487b7100000000000000000000000000000000000000000000000000000000600052604160045260246000fd5b62000b938262000b48565b810181811067ffffffffffffffff8211171562000bb55762000bb462000b59565b5b80604052505050565b600062000bca62000a61565b905062000bd8828262000b88565b919050565b600067ffffffffffffffff82111562000bfb5762000bfa62000b59565b5b62000c068262000b48565b9050602081019050919050565b82818337600083830152505050565b600062000c3962000c338462000bdd565b62000bbe565b90508281526020810184848401111562000c585762000c5762000b43565b5b62000c6584828562000c13565b509392505050565b600082601f83011262000c855762000c8462000b3e565b5b813562000c9784826020860162000c22565b91505092915050565b60006020828403121562000cb95762000cb862000a6b565b5b600082013567ffffffffffffffff81111562000cda5762000cd962000a70565b5b62000ce88482850162000c6d565b91505092915050565b600073ffffffffffffffffffffffffffffffffffffffff82169050919050565b600062000d1e8262000cf1565b9050919050565b62000d308162000d11565b82525050565b600060208201905062000d4d600083018462000d25565b92915050565b62000d5e8162000d11565b811462000d6a57600080fd5b50565b60008135905062000d7e8162000d53565b92915050565b60006020828403121562000d9d5762000d9c62000a6b565b5b600062000dad8482850162000d6d565b91505092915050565b600067ffffffffffffffff82111562000dd45762000dd362000b59565b5b602082029050602081019050919050565b600080fd5b6000819050919050565b62000dff8162000dea565b811462000e0b57600080fd5b50565b60008135905062000e1f8162000df4565b92915050565b600062000e3c62000e368462000db6565b62000bbe565b9050808382526020820190506020840283018581111562000e625762000e6162000de5565b5b835b8181101562000e8f578062000e7a888262000e0e565b84526020840193505060208101905062000e64565b5050509392505050565b600082601f83011262000eb15762000eb062000b3e565b5b813562000ec384826020860162000e25565b91505092915050565b600067ffffffffffffffff82111562000eea5762000ee962000b59565b5b62000ef58262000b48565b9050602081019050919050565b600062000f1962000f138462000ecc565b62000bbe565b90508281526020810184848401111562000f385762000f3762000b43565b5b62000f4584828562000c13565b509392505050565b600082601f83011262000f655762000f6462000b3e565b5b813562000f7784826020860162000f02565b91505092915050565b600080600080600060a0868803121562000f9f5762000f9e62000a6b565b5b600062000faf8882890162000d6d565b955050602062000fc28882890162000d6d565b945050604086013567ffffffffffffffff81111562000fe65762000fe562000a70565b5b62000ff48882890162000e99565b935050606086013567ffffffffffffffff81111562001018576200101762000a70565b5b620010268882890162000e99565b925050608086013567ffffffffffffffff8111156200104a576200104962000a70565b5b620010588882890162000f4d565b9150509295509295909350565b620010708162000a75565b82525050565b60006020820190506200108d600083018462001065565b92915050565b600081519050919050565b600082825260208201905092915050565b60005b83811015620010cf578082015181840152602081019050620010b2565b60008484015250505050565b6000620010e88262001093565b620010f481856200109e565b935062001106818560208601620010af565b620011118162000b48565b840191505092915050565b60006020820190508181036000830152620011388184620010db565b905092915050565b600080600080600060a086880312156200115f576200115e62000a6b565b5b60006200116f8882890162000d6d565b9550506020620011828882890162000d6d565b9450506040620011958882890162000e0e565b9350506060620011a88882890162000e0e565b925050608086013567ffffffffffffffff811115620011cc57620011cb62000a70565b5b620011da8882890162000f4d565b9150509295509295909350565b600081905092915050565b6000620011ff8262001093565b6200120b8185620011e7565b93506200121d818560208601620010af565b80840191505092915050565b6000620012378284620011f2565b915081905092915050565b7f4e487b7100000000000000000000000000000000000000000000000000000000600052602260045260246000fd5b600060028204905060018216806200128a57607f821691505b602082108103620012a0576200129f62001242565b5b50919050565b60008190508160005260206000209050919050565b60006020601f8301049050919050565b600082821b905092915050565b6000600883026200130a7fffffffffffffffffffffffffffffffffffffffffffffffffffffffffffffffff82620012cb565b620013168683620012cb565b95508019841693508086168417925050509392505050565b6000819050919050565b600062001359620013536200134d8462000dea565b6200132e565b62000dea565b9050919050565b6000819050919050565b620013758362001338565b6200138d620013848262001360565b848454620012d8565b825550505050565b600090565b620013a462001395565b620013b18184846200136a565b505050565b5b81811015620013d957620013cd6000826200139a565b600181019050620013b7565b5050565b601f8211156200142857620013f281620012a6565b620013fd84620012bb565b810160208510156200140d578190505b620014256200141c85620012bb565b830182620013b6565b50505b505050565b600082821c905092915050565b60006200144d600019846008026200142d565b1980831691505092915050565b60006200146883836200143a565b9150826002028217905092915050565b620014838262001093565b67ffffffffffffffff8111156200149f576200149e62000b59565b5b620014ab825462001271565b620014b8828285620013dd565b600060209050601f831160018114620014f05760008415620014db578287015190505b620014e785826200145a565b86555062001557565b601f1984166200150086620012a6565b60005b828110156200152a5784890151825560018201915060208501945060208101905062001503565b868310156200154a578489015162001546601f8916826200143a565b8355505b6001600288020188555050505b505050505050565b7f596f75206e65656420746f2063726561746520636f6c6c656374696f6e20666960008201527f7273740000000000000000000000000000000000000000000000000000000000602082015250565b6000620015bd6023836200109e565b9150620015ca826200155f565b604082019050919050565b60006020820190508181036000830152620015f081620015ae565b9050919050565b7f4f776e61626c653a206e6577206f776e657220697320746865207a65726f206160008201527f6464726573730000000000000000000000000000000000000000000000000000602082015250565b6000620016556026836200109e565b91506200166282620015f7565b604082019050919050565b60006020820190508181036000830152620016888162001646565b9050919050565b7f4f776e61626c653a2063616c6c6572206973206e6f7420746865206f776e6572600082015250565b6000620016c76020836200109e565b9150620016d4826200168f565b602082019050919050565b60006020820190508181036000830152620016fa81620016b8565b905091905056fe60806040526000600560006101000a81548160ff021916908360ff1602179055503480156200002d57600080fd5b506040518060800160405280604d815260200162003316604d913962000059816200008060201b60201c565b506200007a6200006e6200009560201b60201c565b6200009d60201b60201c565b620004c4565b8060029081620000919190620003dd565b5050565b600033905090565b6000600360009054906101000a900473ffffffffffffffffffffffffffffffffffffffff16905081600360006101000a81548173ffffffffffffffffffffffffffffffffffffffff021916908373ffffffffffffffffffffffffffffffffffffffff1602179055508173ffffffffffffffffffffffffffffffffffffffff168173ffffffffffffffffffffffffffffffffffffffff167f8be0079c531659141344cd1fd0a4f28419497f9722a3daafe3b4186f6b6457e060405160405180910390a35050565b600081519050919050565b7f4e487b7100000000000000000000000000000000000000000000000000000000600052604160045260246000fd5b7f4e487b7100000000000000000000000000000000000000000000000000000000600052602260045260246000fd5b60006002820490506001821680620001e557607f821691505b602082108103620001fb57620001fa6200019d565b5b50919050565b60008190508160005260206000209050919050565b60006020601f8301049050919050565b600082821b905092915050565b600060088302620002657fffffffffffffffffffffffffffffffffffffffffffffffffffffffffffffffff8262000226565b62000271868362000226565b95508019841693508086168417925050509392505050565b6000819050919050565b6000819050919050565b6000620002be620002b8620002b28462000289565b62000293565b62000289565b9050919050565b6000819050919050565b620002da836200029d565b620002f2620002e982620002c5565b84845462000233565b825550505050565b600090565b62000309620002fa565b62000316818484620002cf565b505050565b5b818110156200033e5762000332600082620002ff565b6001810190506200031c565b5050565b601f8211156200038d57620003578162000201565b620003628462000216565b8101602085101562000372578190505b6200038a620003818562000216565b8301826200031b565b50505b505050565b600082821c905092915050565b6000620003b26000198460080262000392565b1980831691505092915050565b6000620003cd83836200039f565b9150826002028217905092915050565b620003e88262000163565b67ffffffffffffffff8111156200040457620004036200016e565b5b620004108254620001cc565b6200041d82828562000342565b600060209050601f83116001811462000455576000841562000440578287015190505b6200044c8582620003bf565b865550620004bc565b601f198416620004658662000201565b60005b828110156200048f5784890151825560018201915060208501945060208101905062000468565b86831015620004af5784890151620004ab601f8916826200039f565b8355505b6001600288020188555050505b505050505050565b612e4280620004d46000396000f3fe608060405234801561001057600080fd5b50600436106100f45760003560e01c8063715018a611610097578063e985e9c511610066578063e985e9c51461026f578063ea2a17301461029f578063f242432a146102bd578063f2fde38b146102d9576100f4565b8063715018a61461020d5780638da5cb5b14610217578063a22cb46514610235578063ab2da89914610251576100f4565b80630e89341c116100d35780630e89341c146101755780632eb2c2d6146101a557806344dfb6bc146101c15780634e1273f4146101dd576100f4565b8062fdd58e146100f957806301ffc9a71461012957806306f36e8714610159575b600080fd5b610113600480360381019061010e9190611aaa565b6102f5565b6040516101209190611af9565b60405180910390f35b610143600480360381019061013e9190611b6c565b6103bd565b6040516101509190611bb4565b60405180910390f35b610173600480360381019061016e9190611bcf565b61049f565b005b61018f600480360381019061018a9190611bfc565b61061f565b60405161019c9190611cb9565b60405180910390f35b6101bf60048036038101906101ba9190611ed8565b6106b3565b005b6101db60048036038101906101d69190611bcf565b610754565b005b6101f760048036038101906101f2919061206a565b610789565b60405161020491906121a0565b60405180910390f35b6102156108a2565b005b61021f6108b6565b60405161022c91906121d1565b60405180910390f35b61024f600480360381019061024a9190612218565b6108e0565b005b6102596108f6565b60405161026691906121a0565b60405180910390f35b61028960048036038101906102849190612258565b61094e565b6040516102969190611bb4565b60405180910390f35b6102a76109e2565b6040516102b491906122b4565b60405180910390f35b6102d760048036038101906102d291906122cf565b6109f5565b005b6102f360048036038101906102ee9190611bcf565b610a96565b005b60008073ffffffffffffffffffffffffffffffffffffffff168373ffffffffffffffffffffffffffffffffffffffff1603610365576040517f08c379a000000000000000000000000000000000000000000000000000000000815260040161035c906123d8565b60405180910390fd5b60008083815260200190815260200160002060008473ffffffffffffffffffffffffffffffffffffffff1673ffffffffffffffffffffffffffffffffffffffff16815260200190815260200160002054905092915050565b60007fd9b67a26000000000000000000000000000000000000000000000000000000007bffffffffffffffffffffffffffffffffffffffffffffffffffffffff1916827bffffffffffffffffffffffffffffffffffffffffffffffffffffffff1916148061048857507f0e89341c000000000000000000000000000000000000000000000000000000007bffffffffffffffffffffffffffffffffffffffffffffffffffffffff1916827bffffffffffffffffffffffffffffffffffffffffffffffffffffffff1916145b80610498575061049782610b19565b5b9050919050565b600060019050600080600190505b60038111610619576000600190505b838111610605576000600190505b60078110156105f15760005b60058110156105dd57600081600a846104ef9190612427565b6064866104fc9190612427565b6103e88861050a9190612427565b6105149190612469565b61051e9190612469565b6105289190612469565b90506000820361053d57620f42409550610585565b6001820361055057620186a09550610584565b60028203610562576127109550610583565b60038203610574576103e89550610582565b6004820361058157606495505b5b5b5b5b6105a088828860405180602001604052806000815250610b83565b60048190806001815401808255809150506001900390600052602060002001600090919091909150555080806105d59061249d565b9150506104d6565b5080806105e99061249d565b9150506104ca565b5080806105fd9061249d565b9150506104bc565b5080806106119061249d565b9150506104ad565b50505050565b60606002805461062e90612514565b80601f016020809104026020016040519081016040528092919081815260200182805461065a90612514565b80156106a75780601f1061067c576101008083540402835291602001916106a7565b820191906000526020600020905b81548152906001019060200180831161068a57829003601f168201915b50505050509050919050565b6106bb610d33565b73ffffffffffffffffffffffffffffffffffffffff168573ffffffffffffffffffffffffffffffffffffffff1614806107015750610700856106fb610d33565b61094e565b5b610740576040517f08c379a0000000000000000000000000000000000000000000000000000000008152600401610737906125b7565b60405180910390fd5b61074d8585858585610d3b565b5050505050565b61078681600560009054906101000a900460ff1660ff1664e8d4a5100060405180602001604052806000815250610b83565b50565b606081518351146107cf576040517f08c379a00000000000000000000000000000000000000000000000000000000081526004016107c690612649565b60405180910390fd5b6000835167ffffffffffffffff8111156107ec576107eb611ce0565b5b60405190808252806020026020018201604052801561081a5781602001602082028036833780820191505090505b50905060005b84518110156108975761086785828151811061083f5761083e612669565b5b602002602001015185838151811061085a57610859612669565b5b60200260200101516102f5565b82828151811061087a57610879612669565b5b602002602001018181525050806108909061249d565b9050610820565b508091505092915050565b6108aa61105c565b6108b460006110da565b565b6000600360009054906101000a900473ffffffffffffffffffffffffffffffffffffffff16905090565b6108f26108eb610d33565b83836111a0565b5050565b6060600480548060200260200160405190810160405280929190818152602001828054801561094457602002820191906000526020600020905b815481526020019060010190808311610930575b5050505050905090565b6000600160008473ffffffffffffffffffffffffffffffffffffffff1673ffffffffffffffffffffffffffffffffffffffff16815260200190815260200160002060008373ffffffffffffffffffffffffffffffffffffffff1673ffffffffffffffffffffffffffffffffffffffff16815260200190815260200160002060009054906101000a900460ff16905092915050565b600560009054906101000a900460ff1681565b6109fd610d33565b73ffffffffffffffffffffffffffffffffffffffff168573ffffffffffffffffffffffffffffffffffffffff161480610a435750610a4285610a3d610d33565b61094e565b5b610a82576040517f08c379a0000000000000000000000000000000000000000000000000000000008152600401610a79906125b7565b60405180910390fd5b610a8f858585858561130c565b5050505050565b610a9e61105c565b600073ffffffffffffffffffffffffffffffffffffffff168173ffffffffffffffffffffffffffffffffffffffff1603610b0d576040517f08c379a0000000000000000000000000000000000000000000000000000000008152600401610b049061270a565b60405180910390fd5b610b16816110da565b50565b60007f01ffc9a7000000000000000000000000000000000000000000000000000000007bffffffffffffffffffffffffffffffffffffffffffffffffffffffff1916827bffffffffffffffffffffffffffffffffffffffffffffffffffffffff1916149050919050565b600073ffffffffffffffffffffffffffffffffffffffff168473ffffffffffffffffffffffffffffffffffffffff1603610bf2576040517f08c379a0000000000000000000000000000000000000000000000000000000008152600401610be99061279c565b60405180910390fd5b6000610bfc610d33565b90506000610c09856115a7565b90506000610c16856115a7565b9050610c2783600089858589611621565b8460008088815260200190815260200160002060008973ffffffffffffffffffffffffffffffffffffffff1673ffffffffffffffffffffffffffffffffffffffff1681526020019081526020016000206000828254610c869190612469565b925050819055508673ffffffffffffffffffffffffffffffffffffffff16600073ffffffffffffffffffffffffffffffffffffffff168473ffffffffffffffffffffffffffffffffffffffff167fc3d58168c5ae7397731d063d5bbf3d657854427343f4c083240f7aacaa2d0f628989604051610d049291906127bc565b60405180910390a4610d1b83600089858589611629565b610d2a83600089898989611631565b50505050505050565b600033905090565b8151835114610d7f576040517f08c379a0000000000000000000000000000000000000000000000000000000008152600401610d7690612857565b60405180910390fd5b600073ffffffffffffffffffffffffffffffffffffffff168473ffffffffffffffffffffffffffffffffffffffff1603610dee576040517f08c379a0000000000000000000000000000000000000000000000000000000008152600401610de5906128e9565b60405180910390fd5b6000610df8610d33565b9050610e08818787878787611621565b60005b8451811015610fb9576000858281518110610e2957610e28612669565b5b602002602001015190506000858381518110610e4857610e47612669565b5b60200260200101519050600080600084815260200190815260200160002060008b73ffffffffffffffffffffffffffffffffffffffff1673ffffffffffffffffffffffffffffffffffffffff16815260200190815260200160002054905081811015610ee9576040517f08c379a0000000000000000000000000000000000000000000000000000000008152600401610ee09061297b565b60405180910390fd5b81810360008085815260200190815260200160002060008c73ffffffffffffffffffffffffffffffffffffffff1673ffffffffffffffffffffffffffffffffffffffff168152602001908152602001600020819055508160008085815260200190815260200160002060008b73ffffffffffffffffffffffffffffffffffffffff1673ffffffffffffffffffffffffffffffffffffffff1681526020019081526020016000206000828254610f9e9190612469565b9250508190555050505080610fb29061249d565b9050610e0b565b508473ffffffffffffffffffffffffffffffffffffffff168673ffffffffffffffffffffffffffffffffffffffff168273ffffffffffffffffffffffffffffffffffffffff167f4a39dc06d4c0dbc64b70af90fd698a233a518aa5d07e595d983b8c0526c8f7fb878760405161103092919061299b565b60405180910390a4611046818787878787611629565b611054818787878787611808565b505050505050565b611064610d33565b73ffffffffffffffffffffffffffffffffffffffff166110826108b6565b73ffffffffffffffffffffffffffffffffffffffff16146110d8576040517f08c379a00000000000000000000000000000000000000000000000000000000081526004016110cf90612a1e565b60405180910390fd5b565b6000600360009054906101000a900473ffffffffffffffffffffffffffffffffffffffff16905081600360006101000a81548173ffffffffffffffffffffffffffffffffffffffff021916908373ffffffffffffffffffffffffffffffffffffffff1602179055508173ffffffffffffffffffffffffffffffffffffffff168173ffffffffffffffffffffffffffffffffffffffff167f8be0079c531659141344cd1fd0a4f28419497f9722a3daafe3b4186f6b6457e060405160405180910390a35050565b8173ffffffffffffffffffffffffffffffffffffffff168373ffffffffffffffffffffffffffffffffffffffff160361120e576040517f08c379a000000000000000000000000000000000000000000000000000000000815260040161120590612ab0565b60405180910390fd5b80600160008573ffffffffffffffffffffffffffffffffffffffff1673ffffffffffffffffffffffffffffffffffffffff16815260200190815260200160002060008473ffffffffffffffffffffffffffffffffffffffff1673ffffffffffffffffffffffffffffffffffffffff16815260200190815260200160002060006101000a81548160ff0219169083151502179055508173ffffffffffffffffffffffffffffffffffffffff168373ffffffffffffffffffffffffffffffffffffffff167f17307eab39ab6107e8899845ad3d59bd9653f200f220920489ca2b5937696c31836040516112ff9190611bb4565b60405180910390a3505050565b600073ffffffffffffffffffffffffffffffffffffffff168473ffffffffffffffffffffffffffffffffffffffff160361137b576040517f08c379a0000000000000000000000000000000000000000000000000000000008152600401611372906128e9565b60405180910390fd5b6000611385610d33565b90506000611392856115a7565b9050600061139f856115a7565b90506113af838989858589611621565b600080600088815260200190815260200160002060008a73ffffffffffffffffffffffffffffffffffffffff1673ffffffffffffffffffffffffffffffffffffffff16815260200190815260200160002054905085811015611446576040517f08c379a000000000000000000000000000000000000000000000000000000000815260040161143d9061297b565b60405180910390fd5b85810360008089815260200190815260200160002060008b73ffffffffffffffffffffffffffffffffffffffff1673ffffffffffffffffffffffffffffffffffffffff168152602001908152602001600020819055508560008089815260200190815260200160002060008a73ffffffffffffffffffffffffffffffffffffffff1673ffffffffffffffffffffffffffffffffffffffff16815260200190815260200160002060008282546114fb9190612469565b925050819055508773ffffffffffffffffffffffffffffffffffffffff168973ffffffffffffffffffffffffffffffffffffffff168573ffffffffffffffffffffffffffffffffffffffff167fc3d58168c5ae7397731d063d5bbf3d657854427343f4c083240f7aacaa2d0f628a8a6040516115789291906127bc565b60405180910390a461158e848a8a86868a611629565b61159c848a8a8a8a8a611631565b505050505050505050565b60606000600167ffffffffffffffff8111156115c6576115c5611ce0565b5b6040519080825280602002602001820160405280156115f45781602001602082028036833780820191505090505b509050828160008151811061160c5761160b612669565b5b60200260200101818152505080915050919050565b505050505050565b505050505050565b6116508473ffffffffffffffffffffffffffffffffffffffff166119df565b15611800578373ffffffffffffffffffffffffffffffffffffffff1663f23a6e6187878686866040518663ffffffff1660e01b8152600401611696959493929190612b25565b6020604051808303816000875af19250505080156116d257506040513d601f19601f820116820180604052508101906116cf9190612b94565b60015b611777576116de612bce565b806308c379a00361173a57506116f2612bf0565b806116fd575061173c565b806040517f08c379a00000000000000000000000000000000000000000000000000000000081526004016117319190611cb9565b60405180910390fd5b505b6040517f08c379a000000000000000000000000000000000000000000000000000000000815260040161176e90612cf2565b60405180910390fd5b63f23a6e6160e01b7bffffffffffffffffffffffffffffffffffffffffffffffffffffffff1916817bffffffffffffffffffffffffffffffffffffffffffffffffffffffff1916146117fe576040517f08c379a00000000000000000000000000000000000000000000000000000000081526004016117f590612d84565b60405180910390fd5b505b505050505050565b6118278473ffffffffffffffffffffffffffffffffffffffff166119df565b156119d7578373ffffffffffffffffffffffffffffffffffffffff1663bc197c8187878686866040518663ffffffff1660e01b815260040161186d959493929190612da4565b6020604051808303816000875af19250505080156118a957506040513d601f19601f820116820180604052508101906118a69190612b94565b60015b61194e576118b5612bce565b806308c379a00361191157506118c9612bf0565b806118d45750611913565b806040517f08c379a00000000000000000000000000000000000000000000000000000000081526004016119089190611cb9565b60405180910390fd5b505b6040517f08c379a000000000000000000000000000000000000000000000000000000000815260040161194590612cf2565b60405180910390fd5b63bc197c8160e01b7bffffffffffffffffffffffffffffffffffffffffffffffffffffffff1916817bffffffffffffffffffffffffffffffffffffffffffffffffffffffff1916146119d5576040517f08c379a00000000000000000000000000000000000000000000000000000000081526004016119cc90612d84565b60405180910390fd5b505b505050505050565b6000808273ffffffffffffffffffffffffffffffffffffffff163b119050919050565b6000604051905090565b600080fd5b600080fd5b600073ffffffffffffffffffffffffffffffffffffffff82169050919050565b6000611a4182611a16565b9050919050565b611a5181611a36565b8114611a5c57600080fd5b50565b600081359050611a6e81611a48565b92915050565b6000819050919050565b611a8781611a74565b8114611a9257600080fd5b50565b600081359050611aa481611a7e565b92915050565b60008060408385031215611ac157611ac0611a0c565b5b6000611acf85828601611a5f565b9250506020611ae085828601611a95565b9150509250929050565b611af381611a74565b82525050565b6000602082019050611b0e6000830184611aea565b92915050565b60007fffffffff0000000000000000000000000000000000000000000000000000000082169050919050565b611b4981611b14565b8114611b5457600080fd5b50565b600081359050611b6681611b40565b92915050565b600060208284031215611b8257611b81611a0c565b5b6000611b9084828501611b57565b91505092915050565b60008115159050919050565b611bae81611b99565b82525050565b6000602082019050611bc96000830184611ba5565b92915050565b600060208284031215611be557611be4611a0c565b5b6000611bf384828501611a5f565b91505092915050565b600060208284031215611c1257611c11611a0c565b5b6000611c2084828501611a95565b91505092915050565b600081519050919050565b600082825260208201905092915050565b60005b83811015611c63578082015181840152602081019050611c48565b60008484015250505050565b6000601f19601f8301169050919050565b6000611c8b82611c29565b611c958185611c34565b9350611ca5818560208601611c45565b611cae81611c6f565b840191505092915050565b60006020820190508181036000830152611cd38184611c80565b905092915050565b600080fd5b7f4e487b7100000000000000000000000000000000000000000000000000000000600052604160045260246000fd5b611d1882611c6f565b810181811067ffffffffffffffff82111715611d3757611d36611ce0565b5b80604052505050565b6000611d4a611a02565b9050611d568282611d0f565b919050565b600067ffffffffffffffff821115611d7657611d75611ce0565b5b602082029050602081019050919050565b600080fd5b6000611d9f611d9a84611d5b565b611d40565b90508083825260208201905060208402830185811115611dc257611dc1611d87565b5b835b81811015611deb5780611dd78882611a95565b845260208401935050602081019050611dc4565b5050509392505050565b600082601f830112611e0a57611e09611cdb565b5b8135611e1a848260208601611d8c565b91505092915050565b600080fd5b600067ffffffffffffffff821115611e4357611e42611ce0565b5b611e4c82611c6f565b9050602081019050919050565b82818337600083830152505050565b6000611e7b611e7684611e28565b611d40565b905082815260208101848484011115611e9757611e96611e23565b5b611ea2848285611e59565b509392505050565b600082601f830112611ebf57611ebe611cdb565b5b8135611ecf848260208601611e68565b91505092915050565b600080600080600060a08688031215611ef457611ef3611a0c565b5b6000611f0288828901611a5f565b9550506020611f1388828901611a5f565b945050604086013567ffffffffffffffff811115611f3457611f33611a11565b5b611f4088828901611df5565b935050606086013567ffffffffffffffff811115611f6157611f60611a11565b5b611f6d88828901611df5565b925050608086013567ffffffffffffffff811115611f8e57611f8d611a11565b5b611f9a88828901611eaa565b9150509295509295909350565b600067ffffffffffffffff821115611fc257611fc1611ce0565b5b602082029050602081019050919050565b6000611fe6611fe184611fa7565b611d40565b9050808382526020820190506020840283018581111561200957612008611d87565b5b835b81811015612032578061201e8882611a5f565b84526020840193505060208101905061200b565b5050509392505050565b600082601f83011261205157612050611cdb565b5b8135612061848260208601611fd3565b91505092915050565b6000806040838503121561208157612080611a0c565b5b600083013567ffffffffffffffff81111561209f5761209e611a11565b5b6120ab8582860161203c565b925050602083013567ffffffffffffffff8111156120cc576120cb611a11565b5b6120d885828601611df5565b9150509250929050565b600081519050919050565b600082825260208201905092915050565b6000819050602082019050919050565b61211781611a74565b82525050565b6000612129838361210e565b60208301905092915050565b6000602082019050919050565b600061214d826120e2565b61215781856120ed565b9350612162836120fe565b8060005b8381101561219357815161217a888261211d565b975061218583612135565b925050600181019050612166565b5085935050505092915050565b600060208201905081810360008301526121ba8184612142565b905092915050565b6121cb81611a36565b82525050565b60006020820190506121e660008301846121c2565b92915050565b6121f581611b99565b811461220057600080fd5b50565b600081359050612212816121ec565b92915050565b6000806040838503121561222f5761222e611a0c565b5b600061223d85828601611a5f565b925050602061224e85828601612203565b9150509250929050565b6000806040838503121561226f5761226e611a0c565b5b600061227d85828601611a5f565b925050602061228e85828601611a5f565b9150509250929050565b600060ff82169050919050565b6122ae81612298565b82525050565b60006020820190506122c960008301846122a5565b92915050565b600080600080600060a086880312156122eb576122ea611a0c565b5b60006122f988828901611a5f565b955050602061230a88828901611a5f565b945050604061231b88828901611a95565b935050606061232c88828901611a95565b925050608086013567ffffffffffffffff81111561234d5761234c611a11565b5b61235988828901611eaa565b9150509295509295909350565b7f455243313135353a2061646472657373207a65726f206973206e6f742061207660008201527f616c6964206f776e657200000000000000000000000000000000000000000000602082015250565b60006123c2602a83611c34565b91506123cd82612366565b604082019050919050565b600060208201905081810360008301526123f1816123b5565b9050919050565b7f4e487b7100000000000000000000000000000000000000000000000000000000600052601160045260246000fd5b600061243282611a74565b915061243d83611a74565b925082820261244b81611a74565b91508282048414831517612462576124616123f8565b5b5092915050565b600061247482611a74565b915061247f83611a74565b9250828201905080821115612497576124966123f8565b5b92915050565b60006124a882611a74565b91507fffffffffffffffffffffffffffffffffffffffffffffffffffffffffffffffff82036124da576124d96123f8565b5b600182019050919050565b7f4e487b7100000000000000000000000000000000000000000000000000000000600052602260045260246000fd5b6000600282049050600182168061252c57607f821691505b60208210810361253f5761253e6124e5565b5b50919050565b7f455243313135353a2063616c6c6572206973206e6f7420746f6b656e206f776e60008201527f6572206f7220617070726f766564000000000000000000000000000000000000602082015250565b60006125a1602e83611c34565b91506125ac82612545565b604082019050919050565b600060208201905081810360008301526125d081612594565b9050919050565b7f455243313135353a206163636f756e747320616e6420696473206c656e67746860008201527f206d69736d617463680000000000000000000000000000000000000000000000602082015250565b6000612633602983611c34565b915061263e826125d7565b604082019050919050565b6000602082019050818103600083015261266281612626565b9050919050565b7f4e487b7100000000000000000000000000000000000000000000000000000000600052603260045260246000fd5b7f4f776e61626c653a206e6577206f776e657220697320746865207a65726f206160008201527f6464726573730000000000000000000000000000000000000000000000000000602082015250565b60006126f4602683611c34565b91506126ff82612698565b604082019050919050565b60006020820190508181036000830152612723816126e7565b9050919050565b7f455243313135353a206d696e7420746f20746865207a65726f2061646472657360008201527f7300000000000000000000000000000000000000000000000000000000000000602082015250565b6000612786602183611c34565b91506127918261272a565b604082019050919050565b600060208201905081810360008301526127b581612779565b9050919050565b60006040820190506127d16000830185611aea565b6127de6020830184611aea565b9392505050565b7f455243313135353a2069647320616e6420616d6f756e7473206c656e6774682060008201527f6d69736d61746368000000000000000000000000000000000000000000000000602082015250565b6000612841602883611c34565b915061284c826127e5565b604082019050919050565b6000602082019050818103600083015261287081612834565b9050919050565b7f455243313135353a207472616e7366657220746f20746865207a65726f20616460008201527f6472657373000000000000000000000000000000000000000000000000000000602082015250565b60006128d3602583611c34565b91506128de82612877565b604082019050919050565b60006020820190508181036000830152612902816128c6565b9050919050565b7f455243313135353a20696e73756666696369656e742062616c616e636520666f60008201527f72207472616e7366657200000000000000000000000000000000000000000000602082015250565b6000612965602a83611c34565b915061297082612909565b604082019050919050565b6000602082019050818103600083015261299481612958565b9050919050565b600060408201905081810360008301526129b58185612142565b905081810360208301526129c98184612142565b90509392505050565b7f4f776e61626c653a2063616c6c6572206973206e6f7420746865206f776e6572600082015250565b6000612a08602083611c34565b9150612a13826129d2565b602082019050919050565b60006020820190508181036000830152612a37816129fb565b9050919050565b7f455243313135353a2073657474696e6720617070726f76616c2073746174757360008201527f20666f722073656c660000000000000000000000000000000000000000000000602082015250565b6000612a9a602983611c34565b9150612aa582612a3e565b604082019050919050565b60006020820190508181036000830152612ac981612a8d565b9050919050565b600081519050919050565b600082825260208201905092915050565b6000612af782612ad0565b612b018185612adb565b9350612b11818560208601611c45565b612b1a81611c6f565b840191505092915050565b600060a082019050612b3a60008301886121c2565b612b4760208301876121c2565b612b546040830186611aea565b612b616060830185611aea565b8181036080830152612b738184612aec565b90509695505050505050565b600081519050612b8e81611b40565b92915050565b600060208284031215612baa57612ba9611a0c565b5b6000612bb884828501612b7f565b91505092915050565b60008160e01c9050919050565b600060033d1115612bed5760046000803e612bea600051612bc1565b90505b90565b600060443d10612c7d57612c02611a02565b60043d036004823e80513d602482011167ffffffffffffffff82111715612c2a575050612c7d565b808201805167ffffffffffffffff811115612c485750505050612c7d565b80602083010160043d038501811115612c65575050505050612c7d565b612c7482602001850186611d0f565b82955050505050505b90565b7f455243313135353a207472616e7366657220746f206e6f6e2d4552433131353560008201527f526563656976657220696d706c656d656e746572000000000000000000000000602082015250565b6000612cdc603483611c34565b9150612ce782612c80565b604082019050919050565b60006020820190508181036000830152612d0b81612ccf565b9050919050565b7f455243313135353a204552433131353552656365697665722072656a6563746560008201527f6420746f6b656e73000000000000000000000000000000000000000000000000602082015250565b6000612d6e602883611c34565b9150612d7982612d12565b604082019050919050565b60006020820190508181036000830152612d9d81612d61565b9050919050565b600060a082019050612db960008301886121c2565b612dc660208301876121c2565b8181036040830152612dd88186612142565b90508181036060830152612dec8185612142565b90508181036080830152612e008184612aec565b9050969550505050505056fea2646970667358221220a964bc9bd5708954d8479a67212d73518b461c7e1cf3a28cc30549560e02e60764736f6c6343000812003368747470733a2f2f697066732e696f2f697066732f516d5469784e5a506f644c677264676a633248596d5255715252364856344a776e57535365675a6f6d76453345782f7b69647d2e6a736f6ea264697066735822122011d8aebabbc47d1a9647b21766673378ba1f29734c290d7ba2ce0c07d11f64c764736f6c63430008120033",
  "linkReferences": {},
  "deployedLinkReferences": {}
}