{
  "_format": "hh-sol-artifact-1",
  "contractName": "AuctionHouse",
  "sourceName": "contracts/AuctionHouse/AuctionHouse.sol",
  "abi": [
    {
      "inputs": [
        {
          "internalType": "address",
          "name": "_tokenAddress",
          "type": "address"
        }
      ],
      "stateMutability": "nonpayable",
      "type": "constructor"
    },
    {
      "anonymous": false,
      "inputs": [
        {
          "indexed": true,
          "internalType": "uint256",
          "name": "itemId",
          "type": "uint256"
        },
        {
          "indexed": false,
          "internalType": "address",
          "name": "seller",
          "type": "address"
        },
        {
          "indexed": false,
          "internalType": "uint256",
          "name": "price",
          "type": "uint256"
        }
      ],
      "name": "ItemListedSuccess",
      "type": "event"
    },
    {
      "anonymous": false,
      "inputs": [
        {
          "indexed": true,
          "internalType": "uint256",
          "name": "itemId",
          "type": "uint256"
        },
        {
          "indexed": false,
          "internalType": "address",
          "name": "seller",
          "type": "address"
        },
        {
          "indexed": false,
          "internalType": "address",
          "name": "buyer",
          "type": "address"
        },
        {
          "indexed": false,
          "internalType": "uint256",
          "name": "price",
          "type": "uint256"
        }
      ],
      "name": "ItemSoldSuccess",
      "type": "event"
    },
    {
      "anonymous": false,
      "inputs": [
        {
          "indexed": true,
          "internalType": "address",
          "name": "previousOwner",
          "type": "address"
        },
        {
          "indexed": true,
          "internalType": "address",
          "name": "newOwner",
          "type": "address"
        }
      ],
      "name": "OwnershipTransferred",
      "type": "event"
    },
    {
      "inputs": [],
      "name": "auctionHouseFunds",
      "outputs": [
        {
          "internalType": "uint256",
          "name": "",
          "type": "uint256"
        }
      ],
      "stateMutability": "view",
      "type": "function"
    },
    {
      "inputs": [
        {
          "internalType": "uint256",
          "name": "listedItemId",
          "type": "uint256"
        }
      ],
      "name": "executeSale",
      "outputs": [],
      "stateMutability": "payable",
      "type": "function"
    },
    {
      "inputs": [],
      "name": "getListedItems",
      "outputs": [
        {
          "components": [
            {
              "internalType": "uint256",
              "name": "listedItemId",
              "type": "uint256"
            },
            {
              "internalType": "uint256",
              "name": "itemId",
              "type": "uint256"
            },
            {
              "internalType": "address payable",
              "name": "seller",
              "type": "address"
            },
            {
              "internalType": "address",
              "name": "buyer",
              "type": "address"
            },
            {
              "internalType": "uint256",
              "name": "price",
              "type": "uint256"
            },
            {
              "internalType": "bool",
              "name": "isSold",
              "type": "bool"
            }
          ],
          "internalType": "struct AuctionHouse.ListedItem[]",
          "name": "",
          "type": "tuple[]"
        }
      ],
      "stateMutability": "view",
      "type": "function"
    },
    {
      "inputs": [],
      "name": "getlistingFee",
      "outputs": [
        {
          "internalType": "uint256",
          "name": "",
          "type": "uint256"
        }
      ],
      "stateMutability": "view",
      "type": "function"
    },
    {
      "inputs": [
        {
          "internalType": "uint256",
          "name": "itemId",
          "type": "uint256"
        },
        {
          "internalType": "uint256",
          "name": "sellingPrice",
          "type": "uint256"
        }
      ],
      "name": "listItem",
      "outputs": [],
      "stateMutability": "payable",
      "type": "function"
    },
    {
      "inputs": [
        {
          "internalType": "uint256",
          "name": "",
          "type": "uint256"
        }
      ],
      "name": "listedItems",
      "outputs": [
        {
          "internalType": "uint256",
          "name": "listedItemId",
          "type": "uint256"
        },
        {
          "internalType": "uint256",
          "name": "itemId",
          "type": "uint256"
        },
        {
          "internalType": "address payable",
          "name": "seller",
          "type": "address"
        },
        {
          "internalType": "address",
          "name": "buyer",
          "type": "address"
        },
        {
          "internalType": "uint256",
          "name": "price",
          "type": "uint256"
        },
        {
          "internalType": "bool",
          "name": "isSold",
          "type": "bool"
        }
      ],
      "stateMutability": "view",
      "type": "function"
    },
    {
      "inputs": [],
      "name": "listedItemsCount",
      "outputs": [
        {
          "internalType": "uint256",
          "name": "_value",
          "type": "uint256"
        }
      ],
      "stateMutability": "view",
      "type": "function"
    },
    {
      "inputs": [],
      "name": "listingFee",
      "outputs": [
        {
          "internalType": "uint256",
          "name": "",
          "type": "uint256"
        }
      ],
      "stateMutability": "view",
      "type": "function"
    },
    {
      "inputs": [
        {
          "internalType": "address",
          "name": "",
          "type": "address"
        },
        {
          "internalType": "address",
          "name": "",
          "type": "address"
        },
        {
          "internalType": "uint256[]",
          "name": "",
          "type": "uint256[]"
        },
        {
          "internalType": "uint256[]",
          "name": "",
          "type": "uint256[]"
        },
        {
          "internalType": "bytes",
          "name": "",
          "type": "bytes"
        }
      ],
      "name": "onERC1155BatchReceived",
      "outputs": [
        {
          "internalType": "bytes4",
          "name": "",
          "type": "bytes4"
        }
      ],
      "stateMutability": "nonpayable",
      "type": "function"
    },
    {
      "inputs": [
        {
          "internalType": "address",
          "name": "",
          "type": "address"
        },
        {
          "internalType": "address",
          "name": "",
          "type": "address"
        },
        {
          "internalType": "uint256",
          "name": "",
          "type": "uint256"
        },
        {
          "internalType": "uint256",
          "name": "",
          "type": "uint256"
        },
        {
          "internalType": "bytes",
          "name": "",
          "type": "bytes"
        }
      ],
      "name": "onERC1155Received",
      "outputs": [
        {
          "internalType": "bytes4",
          "name": "",
          "type": "bytes4"
        }
      ],
      "stateMutability": "nonpayable",
      "type": "function"
    },
    {
      "inputs": [],
      "name": "owner",
      "outputs": [
        {
          "internalType": "address",
          "name": "",
          "type": "address"
        }
      ],
      "stateMutability": "view",
      "type": "function"
    },
    {
      "inputs": [],
      "name": "renounceOwnership",
      "outputs": [],
      "stateMutability": "nonpayable",
      "type": "function"
    },
    {
      "inputs": [
        {
          "internalType": "bytes4",
          "name": "interfaceId",
          "type": "bytes4"
        }
      ],
      "name": "supportsInterface",
      "outputs": [
        {
          "internalType": "bool",
          "name": "",
          "type": "bool"
        }
      ],
      "stateMutability": "view",
      "type": "function"
    },
    {
      "inputs": [],
      "name": "tokenAddress",
      "outputs": [
        {
          "internalType": "address",
          "name": "",
          "type": "address"
        }
      ],
      "stateMutability": "view",
      "type": "function"
    },
    {
      "inputs": [
        {
          "internalType": "address",
          "name": "newOwner",
          "type": "address"
        }
      ],
      "name": "transferOwnership",
      "outputs": [],
      "stateMutability": "nonpayable",
      "type": "function"
    },
    {
      "inputs": [
        {
          "internalType": "uint256",
          "name": "newListingFee",
          "type": "uint256"
        }
      ],
      "name": "updatelistingFee",
      "outputs": [],
      "stateMutability": "payable",
      "type": "function"
    }
  ],
  "bytecode": "0x6080604052662386f26fc100006003553480156200001c57600080fd5b506040516200250c3803806200250c8339818101604052810190620000429190620001e7565b6200006262000056620000b160201b60201c565b620000b960201b60201c565b6001808190555080600460006101000a81548173ffffffffffffffffffffffffffffffffffffffff021916908373ffffffffffffffffffffffffffffffffffffffff1602179055505062000219565b600033905090565b60008060009054906101000a900473ffffffffffffffffffffffffffffffffffffffff169050816000806101000a81548173ffffffffffffffffffffffffffffffffffffffff021916908373ffffffffffffffffffffffffffffffffffffffff1602179055508173ffffffffffffffffffffffffffffffffffffffff168173ffffffffffffffffffffffffffffffffffffffff167f8be0079c531659141344cd1fd0a4f28419497f9722a3daafe3b4186f6b6457e060405160405180910390a35050565b600080fd5b600073ffffffffffffffffffffffffffffffffffffffff82169050919050565b6000620001af8262000182565b9050919050565b620001c181620001a2565b8114620001cd57600080fd5b50565b600081519050620001e181620001b6565b92915050565b6000602082840312156200020057620001ff6200017d565b5b60006200021084828501620001d0565b91505092915050565b6122e380620002296000396000f3fe6080604052600436106100f35760003560e01c8063bc197c811161008a578063cdaf072411610059578063cdaf0724146102df578063d23470611461030a578063f23a6e611461034c578063f2fde38b14610389576100f3565b8063bc197c8114610221578063c1fec9e41461025e578063caf5069014610289578063ccb4918d146102b4576100f3565b8063883efa67116100c6578063883efa67146101935780638da5cb5b146101af5780639b1225c4146101da5780639d76ea58146101f6576100f3565b806301ffc9a7146100f857806342444ed4146101355780636a1b7ecc14610151578063715018a61461017c575b600080fd5b34801561010457600080fd5b5061011f600480360381019061011a9190611424565b6103b2565b60405161012c919061146c565b60405180910390f35b61014f600480360381019061014a91906114bd565b61042c565b005b34801561015d57600080fd5b50610166610491565b60405161017391906114f9565b60405180910390f35b34801561018857600080fd5b50610191610497565b005b6101ad60048036038101906101a89190611514565b6104ab565b005b3480156101bb57600080fd5b506101c4610885565b6040516101d19190611595565b60405180910390f35b6101f460048036038101906101ef91906114bd565b6108ae565b005b34801561020257600080fd5b5061020b610ebc565b6040516102189190611595565b60405180910390f35b34801561022d57600080fd5b50610248600480360381019061024391906117ea565b610ee2565b60405161025591906118c8565b60405180910390f35b34801561026a57600080fd5b50610273610ef7565b60405161028091906114f9565b60405180910390f35b34801561029557600080fd5b5061029e610efd565b6040516102ab9190611a5b565b60405180910390f35b3480156102c057600080fd5b506102c9611041565b6040516102d691906114f9565b60405180910390f35b3480156102eb57600080fd5b506102f461104d565b60405161030191906114f9565b60405180910390f35b34801561031657600080fd5b50610331600480360381019061032c91906114bd565b611057565b60405161034396959493929190611a8c565b60405180910390f35b34801561035857600080fd5b50610373600480360381019061036e9190611aed565b6110f0565b60405161038091906118c8565b60405180910390f35b34801561039557600080fd5b506103b060048036038101906103ab9190611b84565b611105565b005b60007f4e2312e0000000000000000000000000000000000000000000000000000000007bffffffffffffffffffffffffffffffffffffffffffffffffffffffff1916827bffffffffffffffffffffffffffffffffffffffffffffffffffffffff19161480610425575061042482611188565b5b9050919050565b6104346111f2565b61043c611270565b6000811161047f576040517f08c379a000000000000000000000000000000000000000000000000000000000815260040161047690611c0e565b60405180910390fd5b8060038190555061048e6112bf565b50565b60035481565b61049f6111f2565b6104a960006112c8565b565b6104b3611270565b60035434146104f7576040517f08c379a00000000000000000000000000000000000000000000000000000000081526004016104ee90611c7a565b60405180910390fd5b6000811161053a576040517f08c379a000000000000000000000000000000000000000000000000000000000815260040161053190611d0c565b60405180910390fd5b6000610546600661138c565b905060006040518060c001604052808381526020018581526020013373ffffffffffffffffffffffffffffffffffffffff168152602001600073ffffffffffffffffffffffffffffffffffffffff16815260200184815260200160001515815250905034600260008282546105bb9190611d5b565b925050819055508060076000848152602001908152602001600020600082015181600001556020820151816001015560408201518160020160006101000a81548173ffffffffffffffffffffffffffffffffffffffff021916908373ffffffffffffffffffffffffffffffffffffffff16021790555060608201518160030160006101000a81548173ffffffffffffffffffffffffffffffffffffffff021916908373ffffffffffffffffffffffffffffffffffffffff1602179055506080820151816004015560a08201518160050160006101000a81548160ff0219169083151502179055509050506008819080600181540180825580915050600190039060005260206000209060060201600090919091909150600082015181600001556020820151816001015560408201518160020160006101000a81548173ffffffffffffffffffffffffffffffffffffffff021916908373ffffffffffffffffffffffffffffffffffffffff16021790555060608201518160030160006101000a81548173ffffffffffffffffffffffffffffffffffffffff021916908373ffffffffffffffffffffffffffffffffffffffff1602179055506080820151816004015560a08201518160050160006101000a81548160ff0219169083151502179055505050600460009054906101000a900473ffffffffffffffffffffffffffffffffffffffff1673ffffffffffffffffffffffffffffffffffffffff1663f242432a33308760016040518563ffffffff1660e01b81526004016108019493929190611e31565b600060405180830381600087803b15801561081b57600080fd5b505af115801561082f573d6000803e3d6000fd5b5050505061083d600661139a565b837fd31b349e5e268b6e7a8cc3b703e827bb3854e2763ec42a7300faf5d9c3e9c3f6338560405161086f929190611e89565b60405180910390a250506108816112bf565b5050565b60008060009054906101000a900473ffffffffffffffffffffffffffffffffffffffff16905090565b6108b6611270565b60006007600083815260200190815260200160002060040154905060006007600084815260200190815260200160002060020160009054906101000a900473ffffffffffffffffffffffffffffffffffffffff16905081341461094e576040517f08c379a000000000000000000000000000000000000000000000000000000000815260040161094590611f24565b60405180910390fd5b3373ffffffffffffffffffffffffffffffffffffffff168173ffffffffffffffffffffffffffffffffffffffff16036109bc576040517f08c379a00000000000000000000000000000000000000000000000000000000081526004016109b390611f90565b60405180910390fd5b6000600760008581526020019081526020016000206040518060c001604052908160008201548152602001600182015481526020016002820160009054906101000a900473ffffffffffffffffffffffffffffffffffffffff1673ffffffffffffffffffffffffffffffffffffffff1673ffffffffffffffffffffffffffffffffffffffff1681526020016003820160009054906101000a900473ffffffffffffffffffffffffffffffffffffffff1673ffffffffffffffffffffffffffffffffffffffff1673ffffffffffffffffffffffffffffffffffffffff168152602001600482015481526020016005820160009054906101000a900460ff161515151581525050905033816060019073ffffffffffffffffffffffffffffffffffffffff16908173ffffffffffffffffffffffffffffffffffffffff168152505060018160a00190151590811515815250508060088581548110610b2157610b20611fb0565b5b9060005260206000209060060201600082015181600001556020820151816001015560408201518160020160006101000a81548173ffffffffffffffffffffffffffffffffffffffff021916908373ffffffffffffffffffffffffffffffffffffffff16021790555060608201518160030160006101000a81548173ffffffffffffffffffffffffffffffffffffffff021916908373ffffffffffffffffffffffffffffffffffffffff1602179055506080820151816004015560a08201518160050160006101000a81548160ff0219169083151502179055509050508060076000868152602001908152602001600020600082015181600001556020820151816001015560408201518160020160006101000a81548173ffffffffffffffffffffffffffffffffffffffff021916908373ffffffffffffffffffffffffffffffffffffffff16021790555060608201518160030160006101000a81548173ffffffffffffffffffffffffffffffffffffffff021916908373ffffffffffffffffffffffffffffffffffffffff1602179055506080820151816004015560a08201518160050160006101000a81548160ff021916908315150217905550905050610ceb600561139a565b600460009054906101000a900473ffffffffffffffffffffffffffffffffffffffff1673ffffffffffffffffffffffffffffffffffffffff1663f242432a3033846020015160016040518563ffffffff1660e01b8152600401610d519493929190611e31565b600060405180830381600087803b158015610d6b57600080fd5b505af1158015610d7f573d6000803e3d6000fd5b5050505060006007600086815260200190815260200160002060020160009054906101000a900473ffffffffffffffffffffffffffffffffffffffff1673ffffffffffffffffffffffffffffffffffffffff1634604051610ddf90612010565b60006040518083038185875af1925050503d8060008114610e1c576040519150601f19603f3d011682016040523d82523d6000602084013e610e21565b606091505b5050905080610e65576040517f08c379a0000000000000000000000000000000000000000000000000000000008152600401610e5c90612097565b60405180910390fd5b81602001517fec7b3e53b13d8aed24b32d71dabfb6afd1ee879d5c762345fb58ef82ce95cf8a8360400151338560800151604051610ea59392919061210c565b60405180910390a250505050610eb96112bf565b50565b600460009054906101000a900473ffffffffffffffffffffffffffffffffffffffff1681565b600063bc197c8160e01b905095945050505050565b60025481565b60606008805480602002602001604051908101604052809291908181526020016000905b8282101561103857838290600052602060002090600602016040518060c001604052908160008201548152602001600182015481526020016002820160009054906101000a900473ffffffffffffffffffffffffffffffffffffffff1673ffffffffffffffffffffffffffffffffffffffff1673ffffffffffffffffffffffffffffffffffffffff1681526020016003820160009054906101000a900473ffffffffffffffffffffffffffffffffffffffff1673ffffffffffffffffffffffffffffffffffffffff1673ffffffffffffffffffffffffffffffffffffffff168152602001600482015481526020016005820160009054906101000a900460ff16151515158152505081526020019060010190610f21565b50505050905090565b60068060000154905081565b6000600354905090565b6008818154811061106757600080fd5b90600052602060002090600602016000915090508060000154908060010154908060020160009054906101000a900473ffffffffffffffffffffffffffffffffffffffff16908060030160009054906101000a900473ffffffffffffffffffffffffffffffffffffffff16908060040154908060050160009054906101000a900460ff16905086565b600063f23a6e6160e01b905095945050505050565b61110d6111f2565b600073ffffffffffffffffffffffffffffffffffffffff168173ffffffffffffffffffffffffffffffffffffffff160361117c576040517f08c379a0000000000000000000000000000000000000000000000000000000008152600401611173906121b5565b60405180910390fd5b611185816112c8565b50565b60007f01ffc9a7000000000000000000000000000000000000000000000000000000007bffffffffffffffffffffffffffffffffffffffffffffffffffffffff1916827bffffffffffffffffffffffffffffffffffffffffffffffffffffffff1916149050919050565b6111fa6113b0565b73ffffffffffffffffffffffffffffffffffffffff16611218610885565b73ffffffffffffffffffffffffffffffffffffffff161461126e576040517f08c379a000000000000000000000000000000000000000000000000000000000815260040161126590612221565b60405180910390fd5b565b6002600154036112b5576040517f08c379a00000000000000000000000000000000000000000000000000000000081526004016112ac9061228d565b60405180910390fd5b6002600181905550565b60018081905550565b60008060009054906101000a900473ffffffffffffffffffffffffffffffffffffffff169050816000806101000a81548173ffffffffffffffffffffffffffffffffffffffff021916908373ffffffffffffffffffffffffffffffffffffffff1602179055508173ffffffffffffffffffffffffffffffffffffffff168173ffffffffffffffffffffffffffffffffffffffff167f8be0079c531659141344cd1fd0a4f28419497f9722a3daafe3b4186f6b6457e060405160405180910390a35050565b600081600001549050919050565b6001816000016000828254019250508190555050565b600033905090565b6000604051905090565b600080fd5b600080fd5b60007fffffffff0000000000000000000000000000000000000000000000000000000082169050919050565b611401816113cc565b811461140c57600080fd5b50565b60008135905061141e816113f8565b92915050565b60006020828403121561143a576114396113c2565b5b60006114488482850161140f565b91505092915050565b60008115159050919050565b61146681611451565b82525050565b6000602082019050611481600083018461145d565b92915050565b6000819050919050565b61149a81611487565b81146114a557600080fd5b50565b6000813590506114b781611491565b92915050565b6000602082840312156114d3576114d26113c2565b5b60006114e1848285016114a8565b91505092915050565b6114f381611487565b82525050565b600060208201905061150e60008301846114ea565b92915050565b6000806040838503121561152b5761152a6113c2565b5b6000611539858286016114a8565b925050602061154a858286016114a8565b9150509250929050565b600073ffffffffffffffffffffffffffffffffffffffff82169050919050565b600061157f82611554565b9050919050565b61158f81611574565b82525050565b60006020820190506115aa6000830184611586565b92915050565b6115b981611574565b81146115c457600080fd5b50565b6000813590506115d6816115b0565b92915050565b600080fd5b6000601f19601f8301169050919050565b7f4e487b7100000000000000000000000000000000000000000000000000000000600052604160045260246000fd5b61162a826115e1565b810181811067ffffffffffffffff82111715611649576116486115f2565b5b80604052505050565b600061165c6113b8565b90506116688282611621565b919050565b600067ffffffffffffffff821115611688576116876115f2565b5b602082029050602081019050919050565b600080fd5b60006116b16116ac8461166d565b611652565b905080838252602082019050602084028301858111156116d4576116d3611699565b5b835b818110156116fd57806116e988826114a8565b8452602084019350506020810190506116d6565b5050509392505050565b600082601f83011261171c5761171b6115dc565b5b813561172c84826020860161169e565b91505092915050565b600080fd5b600067ffffffffffffffff821115611755576117546115f2565b5b61175e826115e1565b9050602081019050919050565b82818337600083830152505050565b600061178d6117888461173a565b611652565b9050828152602081018484840111156117a9576117a8611735565b5b6117b484828561176b565b509392505050565b600082601f8301126117d1576117d06115dc565b5b81356117e184826020860161177a565b91505092915050565b600080600080600060a08688031215611806576118056113c2565b5b6000611814888289016115c7565b9550506020611825888289016115c7565b945050604086013567ffffffffffffffff811115611846576118456113c7565b5b61185288828901611707565b935050606086013567ffffffffffffffff811115611873576118726113c7565b5b61187f88828901611707565b925050608086013567ffffffffffffffff8111156118a05761189f6113c7565b5b6118ac888289016117bc565b9150509295509295909350565b6118c2816113cc565b82525050565b60006020820190506118dd60008301846118b9565b92915050565b600081519050919050565b600082825260208201905092915050565b6000819050602082019050919050565b61191881611487565b82525050565b600061192982611554565b9050919050565b6119398161191e565b82525050565b61194881611574565b82525050565b61195781611451565b82525050565b60c082016000820151611973600085018261190f565b506020820151611986602085018261190f565b5060408201516119996040850182611930565b5060608201516119ac606085018261193f565b5060808201516119bf608085018261190f565b5060a08201516119d260a085018261194e565b50505050565b60006119e4838361195d565b60c08301905092915050565b6000602082019050919050565b6000611a08826118e3565b611a1281856118ee565b9350611a1d836118ff565b8060005b83811015611a4e578151611a3588826119d8565b9750611a40836119f0565b925050600181019050611a21565b5085935050505092915050565b60006020820190508181036000830152611a7581846119fd565b905092915050565b611a868161191e565b82525050565b600060c082019050611aa160008301896114ea565b611aae60208301886114ea565b611abb6040830187611a7d565b611ac86060830186611586565b611ad560808301856114ea565b611ae260a083018461145d565b979650505050505050565b600080600080600060a08688031215611b0957611b086113c2565b5b6000611b17888289016115c7565b9550506020611b28888289016115c7565b9450506040611b39888289016114a8565b9350506060611b4a888289016114a8565b925050608086013567ffffffffffffffff811115611b6b57611b6a6113c7565b5b611b77888289016117bc565b9150509295509295909350565b600060208284031215611b9a57611b996113c2565b5b6000611ba8848285016115c7565b91505092915050565b600082825260208201905092915050565b7f4e6577206c697374696e67206665652063616e6e6f7420626520300000000000600082015250565b6000611bf8601b83611bb1565b9150611c0382611bc2565b602082019050919050565b60006020820190508181036000830152611c2781611beb565b9050919050565b7f596f75206e65656420746f20706179206c697374696e67206665657300000000600082015250565b6000611c64601c83611bb1565b9150611c6f82611c2e565b602082019050919050565b60006020820190508181036000830152611c9381611c57565b9050919050565b7f596f75206e65656420746f2073706563696679206120636f727265637420707260008201527f6963650000000000000000000000000000000000000000000000000000000000602082015250565b6000611cf6602383611bb1565b9150611d0182611c9a565b604082019050919050565b60006020820190508181036000830152611d2581611ce9565b9050919050565b7f4e487b7100000000000000000000000000000000000000000000000000000000600052601160045260246000fd5b6000611d6682611487565b9150611d7183611487565b9250828201905080821115611d8957611d88611d2c565b5b92915050565b6000819050919050565b6000819050919050565b6000611dbe611db9611db484611d8f565b611d99565b611487565b9050919050565b611dce81611da3565b82525050565b600082825260208201905092915050565b7f3078300000000000000000000000000000000000000000000000000000000000600082015250565b6000611e1b600383611dd4565b9150611e2682611de5565b602082019050919050565b600060a082019050611e466000830187611586565b611e536020830186611586565b611e6060408301856114ea565b611e6d6060830184611dc5565b8181036080830152611e7e81611e0e565b905095945050505050565b6000604082019050611e9e6000830185611586565b611eab60208301846114ea565b9392505050565b7f496e737566666963656e742070726963652076616c756520666f72207468697360008201527f206974656d2e0000000000000000000000000000000000000000000000000000602082015250565b6000611f0e602683611bb1565b9150611f1982611eb2565b604082019050919050565b60006020820190508181036000830152611f3d81611f01565b9050919050565b7f596f752063616e6e6f742062757920796f7572206f776e206974656d00000000600082015250565b6000611f7a601c83611bb1565b9150611f8582611f44565b602082019050919050565b60006020820190508181036000830152611fa981611f6d565b9050919050565b7f4e487b7100000000000000000000000000000000000000000000000000000000600052603260045260246000fd5b600081905092915050565b50565b6000611ffa600083611fdf565b915061200582611fea565b600082019050919050565b600061201b82611fed565b9150819050919050565b7f4661696c656420746f2073656e64206d6f6e657920746f207468652073656c6c60008201527f6572000000000000000000000000000000000000000000000000000000000000602082015250565b6000612081602283611bb1565b915061208c82612025565b604082019050919050565b600060208201905081810360008301526120b081612074565b9050919050565b60006120d26120cd6120c884611554565b611d99565b611554565b9050919050565b60006120e4826120b7565b9050919050565b60006120f6826120d9565b9050919050565b612106816120eb565b82525050565b600060608201905061212160008301866120fd565b61212e6020830185611586565b61213b60408301846114ea565b949350505050565b7f4f776e61626c653a206e6577206f776e657220697320746865207a65726f206160008201527f6464726573730000000000000000000000000000000000000000000000000000602082015250565b600061219f602683611bb1565b91506121aa82612143565b604082019050919050565b600060208201905081810360008301526121ce81612192565b9050919050565b7f4f776e61626c653a2063616c6c6572206973206e6f7420746865206f776e6572600082015250565b600061220b602083611bb1565b9150612216826121d5565b602082019050919050565b6000602082019050818103600083015261223a816121fe565b9050919050565b7f5265656e7472616e637947756172643a207265656e7472616e742063616c6c00600082015250565b6000612277601f83611bb1565b915061228282612241565b602082019050919050565b600060208201905081810360008301526122a68161226a565b905091905056fea2646970667358221220744473d391879c4ec7be9ea10a517cf8c80f0fe5adc577bd7d26ad2e32a18f2464736f6c63430008120033",
  "linkReferences": {},
  "deployedLinkReferences": {}
}