{
  "_format": "hh-sol-artifact-1",
  "contractName": "GuardianToken",
  "sourceName": "contracts/Token/GuardianToken.sol",
  "abi": [
    {
      "inputs": [],
      "stateMutability": "nonpayable",
      "type": "constructor"
    },
    {
      "anonymous": false,
      "inputs": [
        {
          "indexed": true,
          "internalType": "address",
          "name": "owner",
          "type": "address"
        },
        {
          "indexed": true,
          "internalType": "address",
          "name": "spender",
          "type": "address"
        },
        {
          "indexed": false,
          "internalType": "uint256",
          "name": "value",
          "type": "uint256"
        }
      ],
      "name": "Approval",
      "type": "event"
    },
    {
      "anonymous": false,
      "inputs": [
        {
          "indexed": true,
          "internalType": "address",
          "name": "previousOwner",
          "type": "address"
        },
        {
          "indexed": true,
          "internalType": "address",
          "name": "newOwner",
          "type": "address"
        }
      ],
      "name": "OwnershipTransferred",
      "type": "event"
    },
    {
      "anonymous": false,
      "inputs": [
        {
          "indexed": true,
          "internalType": "address",
          "name": "from",
          "type": "address"
        },
        {
          "indexed": true,
          "internalType": "address",
          "name": "to",
          "type": "address"
        },
        {
          "indexed": false,
          "internalType": "uint256",
          "name": "value",
          "type": "uint256"
        }
      ],
      "name": "Transfer",
      "type": "event"
    },
    {
      "inputs": [
        {
          "internalType": "address",
          "name": "owner",
          "type": "address"
        },
        {
          "internalType": "address",
          "name": "spender",
          "type": "address"
        }
      ],
      "name": "allowance",
      "outputs": [
        {
          "internalType": "uint256",
          "name": "",
          "type": "uint256"
        }
      ],
      "stateMutability": "view",
      "type": "function"
    },
    {
      "inputs": [
        {
          "internalType": "address",
          "name": "spender",
          "type": "address"
        },
        {
          "internalType": "uint256",
          "name": "amount",
          "type": "uint256"
        }
      ],
      "name": "approve",
      "outputs": [
        {
          "internalType": "bool",
          "name": "",
          "type": "bool"
        }
      ],
      "stateMutability": "nonpayable",
      "type": "function"
    },
    {
      "inputs": [
        {
          "internalType": "address",
          "name": "account",
          "type": "address"
        }
      ],
      "name": "balanceOf",
      "outputs": [
        {
          "internalType": "uint256",
          "name": "",
          "type": "uint256"
        }
      ],
      "stateMutability": "view",
      "type": "function"
    },
    {
      "inputs": [],
      "name": "decimals",
      "outputs": [
        {
          "internalType": "uint8",
          "name": "",
          "type": "uint8"
        }
      ],
      "stateMutability": "view",
      "type": "function"
    },
    {
      "inputs": [
        {
          "internalType": "address",
          "name": "spender",
          "type": "address"
        },
        {
          "internalType": "uint256",
          "name": "subtractedValue",
          "type": "uint256"
        }
      ],
      "name": "decreaseAllowance",
      "outputs": [
        {
          "internalType": "bool",
          "name": "",
          "type": "bool"
        }
      ],
      "stateMutability": "nonpayable",
      "type": "function"
    },
    {
      "inputs": [
        {
          "internalType": "address",
          "name": "spender",
          "type": "address"
        },
        {
          "internalType": "uint256",
          "name": "addedValue",
          "type": "uint256"
        }
      ],
      "name": "increaseAllowance",
      "outputs": [
        {
          "internalType": "bool",
          "name": "",
          "type": "bool"
        }
      ],
      "stateMutability": "nonpayable",
      "type": "function"
    },
    {
      "inputs": [
        {
          "internalType": "address",
          "name": "addr",
          "type": "address"
        }
      ],
      "name": "mint",
      "outputs": [],
      "stateMutability": "nonpayable",
      "type": "function"
    },
    {
      "inputs": [],
      "name": "name",
      "outputs": [
        {
          "internalType": "string",
          "name": "",
          "type": "string"
        }
      ],
      "stateMutability": "view",
      "type": "function"
    },
    {
      "inputs": [],
      "name": "owner",
      "outputs": [
        {
          "internalType": "address",
          "name": "",
          "type": "address"
        }
      ],
      "stateMutability": "view",
      "type": "function"
    },
    {
      "inputs": [],
      "name": "renounceOwnership",
      "outputs": [],
      "stateMutability": "nonpayable",
      "type": "function"
    },
    {
      "inputs": [],
      "name": "symbol",
      "outputs": [
        {
          "internalType": "string",
          "name": "",
          "type": "string"
        }
      ],
      "stateMutability": "view",
      "type": "function"
    },
    {
      "inputs": [],
      "name": "totalSupply",
      "outputs": [
        {
          "internalType": "uint256",
          "name": "",
          "type": "uint256"
        }
      ],
      "stateMutability": "view",
      "type": "function"
    },
    {
      "inputs": [
        {
          "internalType": "address",
          "name": "to",
          "type": "address"
        },
        {
          "internalType": "uint256",
          "name": "amount",
          "type": "uint256"
        }
      ],
      "name": "transfer",
      "outputs": [
        {
          "internalType": "bool",
          "name": "",
          "type": "bool"
        }
      ],
      "stateMutability": "nonpayable",
      "type": "function"
    },
    {
      "inputs": [
        {
          "internalType": "address",
          "name": "from",
          "type": "address"
        },
        {
          "internalType": "address",
          "name": "to",
          "type": "address"
        },
        {
          "internalType": "uint256",
          "name": "amount",
          "type": "uint256"
        }
      ],
      "name": "transferFrom",
      "outputs": [
        {
          "internalType": "bool",
          "name": "",
          "type": "bool"
        }
      ],
      "stateMutability": "nonpayable",
      "type": "function"
    },
    {
      "inputs": [
        {
          "internalType": "address",
          "name": "newOwner",
          "type": "address"
        }
      ],
      "name": "transferOwnership",
      "outputs": [],
      "stateMutability": "nonpayable",
      "type": "function"
    }
  ],
  "bytecode": "0x60806040526b033b2e3c9fd0803ce80000006006553480156200002157600080fd5b506040518060400160405280600881526020017f475541524449414e0000000000000000000000000000000000000000000000008152506040518060400160405280600481526020017f475552440000000000000000000000000000000000000000000000000000000081525081600390816200009f919062000422565b508060049081620000b1919062000422565b505050620000d4620000c8620000da60201b60201c565b620000e260201b60201c565b62000509565b600033905090565b6000600560009054906101000a900473ffffffffffffffffffffffffffffffffffffffff16905081600560006101000a81548173ffffffffffffffffffffffffffffffffffffffff021916908373ffffffffffffffffffffffffffffffffffffffff1602179055508173ffffffffffffffffffffffffffffffffffffffff168173ffffffffffffffffffffffffffffffffffffffff167f8be0079c531659141344cd1fd0a4f28419497f9722a3daafe3b4186f6b6457e060405160405180910390a35050565b600081519050919050565b7f4e487b7100000000000000000000000000000000000000000000000000000000600052604160045260246000fd5b7f4e487b7100000000000000000000000000000000000000000000000000000000600052602260045260246000fd5b600060028204905060018216806200022a57607f821691505b60208210810362000240576200023f620001e2565b5b50919050565b60008190508160005260206000209050919050565b60006020601f8301049050919050565b600082821b905092915050565b600060088302620002aa7fffffffffffffffffffffffffffffffffffffffffffffffffffffffffffffffff826200026b565b620002b686836200026b565b95508019841693508086168417925050509392505050565b6000819050919050565b6000819050919050565b600062000303620002fd620002f784620002ce565b620002d8565b620002ce565b9050919050565b6000819050919050565b6200031f83620002e2565b620003376200032e826200030a565b84845462000278565b825550505050565b600090565b6200034e6200033f565b6200035b81848462000314565b505050565b5b8181101562000383576200037760008262000344565b60018101905062000361565b5050565b601f821115620003d2576200039c8162000246565b620003a7846200025b565b81016020851015620003b7578190505b620003cf620003c6856200025b565b83018262000360565b50505b505050565b600082821c905092915050565b6000620003f760001984600802620003d7565b1980831691505092915050565b6000620004128383620003e4565b9150826002028217905092915050565b6200042d82620001a8565b67ffffffffffffffff811115620004495762000448620001b3565b5b62000455825462000211565b6200046282828562000387565b600060209050601f8311600181146200049a576000841562000485578287015190505b62000491858262000404565b86555062000501565b601f198416620004aa8662000246565b60005b82811015620004d457848901518255600182019150602085019450602081019050620004ad565b86831015620004f45784890151620004f0601f891682620003e4565b8355505b6001600288020188555050505b505050505050565b6117e180620005196000396000f3fe608060405234801561001057600080fd5b50600436106100f55760003560e01c806370a0823111610097578063a457c2d711610066578063a457c2d714610276578063a9059cbb146102a6578063dd62ed3e146102d6578063f2fde38b14610306576100f5565b806370a0823114610200578063715018a6146102305780638da5cb5b1461023a57806395d89b4114610258576100f5565b806323b872dd116100d357806323b872dd14610166578063313ce5671461019657806339509351146101b45780636a627842146101e4576100f5565b806306fdde03146100fa578063095ea7b31461011857806318160ddd14610148575b600080fd5b610102610322565b60405161010f9190610f2a565b60405180910390f35b610132600480360381019061012d9190610fe5565b6103b4565b60405161013f9190611040565b60405180910390f35b6101506103d7565b60405161015d919061106a565b60405180910390f35b610180600480360381019061017b9190611085565b6103e1565b60405161018d9190611040565b60405180910390f35b61019e610410565b6040516101ab91906110f4565b60405180910390f35b6101ce60048036038101906101c99190610fe5565b610419565b6040516101db9190611040565b60405180910390f35b6101fe60048036038101906101f9919061110f565b610450565b005b61021a6004803603810190610215919061110f565b610467565b604051610227919061106a565b60405180910390f35b6102386104af565b005b6102426104c3565b60405161024f919061114b565b60405180910390f35b6102606104ed565b60405161026d9190610f2a565b60405180910390f35b610290600480360381019061028b9190610fe5565b61057f565b60405161029d9190611040565b60405180910390f35b6102c060048036038101906102bb9190610fe5565b6105f6565b6040516102cd9190611040565b60405180910390f35b6102f060048036038101906102eb9190611166565b610619565b6040516102fd919061106a565b60405180910390f35b610320600480360381019061031b919061110f565b6106a0565b005b606060038054610331906111d5565b80601f016020809104026020016040519081016040528092919081815260200182805461035d906111d5565b80156103aa5780601f1061037f576101008083540402835291602001916103aa565b820191906000526020600020905b81548152906001019060200180831161038d57829003601f168201915b5050505050905090565b6000806103bf610723565b90506103cc81858561072b565b600191505092915050565b6000600254905090565b6000806103ec610723565b90506103f98582856108f4565b610404858585610980565b60019150509392505050565b60006012905090565b600080610424610723565b90506104458185856104368589610619565b6104409190611235565b61072b565b600191505092915050565b610458610bf6565b61046481600654610c74565b50565b60008060008373ffffffffffffffffffffffffffffffffffffffff1673ffffffffffffffffffffffffffffffffffffffff168152602001908152602001600020549050919050565b6104b7610bf6565b6104c16000610dca565b565b6000600560009054906101000a900473ffffffffffffffffffffffffffffffffffffffff16905090565b6060600480546104fc906111d5565b80601f0160208091040260200160405190810160405280929190818152602001828054610528906111d5565b80156105755780601f1061054a57610100808354040283529160200191610575565b820191906000526020600020905b81548152906001019060200180831161055857829003601f168201915b5050505050905090565b60008061058a610723565b905060006105988286610619565b9050838110156105dd576040517f08c379a00000000000000000000000000000000000000000000000000000000081526004016105d4906112db565b60405180910390fd5b6105ea828686840361072b565b60019250505092915050565b600080610601610723565b905061060e818585610980565b600191505092915050565b6000600160008473ffffffffffffffffffffffffffffffffffffffff1673ffffffffffffffffffffffffffffffffffffffff16815260200190815260200160002060008373ffffffffffffffffffffffffffffffffffffffff1673ffffffffffffffffffffffffffffffffffffffff16815260200190815260200160002054905092915050565b6106a8610bf6565b600073ffffffffffffffffffffffffffffffffffffffff168173ffffffffffffffffffffffffffffffffffffffff1603610717576040517f08c379a000000000000000000000000000000000000000000000000000000000815260040161070e9061136d565b60405180910390fd5b61072081610dca565b50565b600033905090565b600073ffffffffffffffffffffffffffffffffffffffff168373ffffffffffffffffffffffffffffffffffffffff160361079a576040517f08c379a0000000000000000000000000000000000000000000000000000000008152600401610791906113ff565b60405180910390fd5b600073ffffffffffffffffffffffffffffffffffffffff168273ffffffffffffffffffffffffffffffffffffffff1603610809576040517f08c379a000000000000000000000000000000000000000000000000000000000815260040161080090611491565b60405180910390fd5b80600160008573ffffffffffffffffffffffffffffffffffffffff1673ffffffffffffffffffffffffffffffffffffffff16815260200190815260200160002060008473ffffffffffffffffffffffffffffffffffffffff1673ffffffffffffffffffffffffffffffffffffffff168152602001908152602001600020819055508173ffffffffffffffffffffffffffffffffffffffff168373ffffffffffffffffffffffffffffffffffffffff167f8c5be1e5ebec7d5bd14f71427d1e84f3dd0314c0f7b2291e5b200ac8c7c3b925836040516108e7919061106a565b60405180910390a3505050565b60006109008484610619565b90507fffffffffffffffffffffffffffffffffffffffffffffffffffffffffffffffff811461097a578181101561096c576040517f08c379a0000000000000000000000000000000000000000000000000000000008152600401610963906114fd565b60405180910390fd5b610979848484840361072b565b5b50505050565b600073ffffffffffffffffffffffffffffffffffffffff168373ffffffffffffffffffffffffffffffffffffffff16036109ef576040517f08c379a00000000000000000000000000000000000000000000000000000000081526004016109e69061158f565b60405180910390fd5b600073ffffffffffffffffffffffffffffffffffffffff168273ffffffffffffffffffffffffffffffffffffffff1603610a5e576040517f08c379a0000000000000000000000000000000000000000000000000000000008152600401610a5590611621565b60405180910390fd5b610a69838383610e90565b60008060008573ffffffffffffffffffffffffffffffffffffffff1673ffffffffffffffffffffffffffffffffffffffff16815260200190815260200160002054905081811015610aef576040517f08c379a0000000000000000000000000000000000000000000000000000000008152600401610ae6906116b3565b60405180910390fd5b8181036000808673ffffffffffffffffffffffffffffffffffffffff1673ffffffffffffffffffffffffffffffffffffffff16815260200190815260200160002081905550816000808573ffffffffffffffffffffffffffffffffffffffff1673ffffffffffffffffffffffffffffffffffffffff168152602001908152602001600020600082825401925050819055508273ffffffffffffffffffffffffffffffffffffffff168473ffffffffffffffffffffffffffffffffffffffff167fddf252ad1be2c89b69c2b068fc378daa952ba7f163c4a11628f55a4df523b3ef84604051610bdd919061106a565b60405180910390a3610bf0848484610e95565b50505050565b610bfe610723565b73ffffffffffffffffffffffffffffffffffffffff16610c1c6104c3565b73ffffffffffffffffffffffffffffffffffffffff1614610c72576040517f08c379a0000000000000000000000000000000000000000000000000000000008152600401610c699061171f565b60405180910390fd5b565b600073ffffffffffffffffffffffffffffffffffffffff168273ffffffffffffffffffffffffffffffffffffffff1603610ce3576040517f08c379a0000000000000000000000000000000000000000000000000000000008152600401610cda9061178b565b60405180910390fd5b610cef60008383610e90565b8060026000828254610d019190611235565b92505081905550806000808473ffffffffffffffffffffffffffffffffffffffff1673ffffffffffffffffffffffffffffffffffffffff168152602001908152602001600020600082825401925050819055508173ffffffffffffffffffffffffffffffffffffffff16600073ffffffffffffffffffffffffffffffffffffffff167fddf252ad1be2c89b69c2b068fc378daa952ba7f163c4a11628f55a4df523b3ef83604051610db2919061106a565b60405180910390a3610dc660008383610e95565b5050565b6000600560009054906101000a900473ffffffffffffffffffffffffffffffffffffffff16905081600560006101000a81548173ffffffffffffffffffffffffffffffffffffffff021916908373ffffffffffffffffffffffffffffffffffffffff1602179055508173ffffffffffffffffffffffffffffffffffffffff168173ffffffffffffffffffffffffffffffffffffffff167f8be0079c531659141344cd1fd0a4f28419497f9722a3daafe3b4186f6b6457e060405160405180910390a35050565b505050565b505050565b600081519050919050565b600082825260208201905092915050565b60005b83811015610ed4578082015181840152602081019050610eb9565b60008484015250505050565b6000601f19601f8301169050919050565b6000610efc82610e9a565b610f068185610ea5565b9350610f16818560208601610eb6565b610f1f81610ee0565b840191505092915050565b60006020820190508181036000830152610f448184610ef1565b905092915050565b600080fd5b600073ffffffffffffffffffffffffffffffffffffffff82169050919050565b6000610f7c82610f51565b9050919050565b610f8c81610f71565b8114610f9757600080fd5b50565b600081359050610fa981610f83565b92915050565b6000819050919050565b610fc281610faf565b8114610fcd57600080fd5b50565b600081359050610fdf81610fb9565b92915050565b60008060408385031215610ffc57610ffb610f4c565b5b600061100a85828601610f9a565b925050602061101b85828601610fd0565b9150509250929050565b60008115159050919050565b61103a81611025565b82525050565b60006020820190506110556000830184611031565b92915050565b61106481610faf565b82525050565b600060208201905061107f600083018461105b565b92915050565b60008060006060848603121561109e5761109d610f4c565b5b60006110ac86828701610f9a565b93505060206110bd86828701610f9a565b92505060406110ce86828701610fd0565b9150509250925092565b600060ff82169050919050565b6110ee816110d8565b82525050565b600060208201905061110960008301846110e5565b92915050565b60006020828403121561112557611124610f4c565b5b600061113384828501610f9a565b91505092915050565b61114581610f71565b82525050565b6000602082019050611160600083018461113c565b92915050565b6000806040838503121561117d5761117c610f4c565b5b600061118b85828601610f9a565b925050602061119c85828601610f9a565b9150509250929050565b7f4e487b7100000000000000000000000000000000000000000000000000000000600052602260045260246000fd5b600060028204905060018216806111ed57607f821691505b602082108103611200576111ff6111a6565b5b50919050565b7f4e487b7100000000000000000000000000000000000000000000000000000000600052601160045260246000fd5b600061124082610faf565b915061124b83610faf565b925082820190508082111561126357611262611206565b5b92915050565b7f45524332303a2064656372656173656420616c6c6f77616e63652062656c6f7760008201527f207a65726f000000000000000000000000000000000000000000000000000000602082015250565b60006112c5602583610ea5565b91506112d082611269565b604082019050919050565b600060208201905081810360008301526112f4816112b8565b9050919050565b7f4f776e61626c653a206e6577206f776e657220697320746865207a65726f206160008201527f6464726573730000000000000000000000000000000000000000000000000000602082015250565b6000611357602683610ea5565b9150611362826112fb565b604082019050919050565b600060208201905081810360008301526113868161134a565b9050919050565b7f45524332303a20617070726f76652066726f6d20746865207a65726f2061646460008201527f7265737300000000000000000000000000000000000000000000000000000000602082015250565b60006113e9602483610ea5565b91506113f48261138d565b604082019050919050565b60006020820190508181036000830152611418816113dc565b9050919050565b7f45524332303a20617070726f766520746f20746865207a65726f20616464726560008201527f7373000000000000000000000000000000000000000000000000000000000000602082015250565b600061147b602283610ea5565b91506114868261141f565b604082019050919050565b600060208201905081810360008301526114aa8161146e565b9050919050565b7f45524332303a20696e73756666696369656e7420616c6c6f77616e6365000000600082015250565b60006114e7601d83610ea5565b91506114f2826114b1565b602082019050919050565b60006020820190508181036000830152611516816114da565b9050919050565b7f45524332303a207472616e736665722066726f6d20746865207a65726f20616460008201527f6472657373000000000000000000000000000000000000000000000000000000602082015250565b6000611579602583610ea5565b91506115848261151d565b604082019050919050565b600060208201905081810360008301526115a88161156c565b9050919050565b7f45524332303a207472616e7366657220746f20746865207a65726f206164647260008201527f6573730000000000000000000000000000000000000000000000000000000000602082015250565b600061160b602383610ea5565b9150611616826115af565b604082019050919050565b6000602082019050818103600083015261163a816115fe565b9050919050565b7f45524332303a207472616e7366657220616d6f756e742065786365656473206260008201527f616c616e63650000000000000000000000000000000000000000000000000000602082015250565b600061169d602683610ea5565b91506116a882611641565b604082019050919050565b600060208201905081810360008301526116cc81611690565b9050919050565b7f4f776e61626c653a2063616c6c6572206973206e6f7420746865206f776e6572600082015250565b6000611709602083610ea5565b9150611714826116d3565b602082019050919050565b60006020820190508181036000830152611738816116fc565b9050919050565b7f45524332303a206d696e7420746f20746865207a65726f206164647265737300600082015250565b6000611775601f83610ea5565b91506117808261173f565b602082019050919050565b600060208201905081810360008301526117a481611768565b905091905056fea2646970667358221220b35c8e4e9bedcf0b3ba79ed8c89f3801232a1cceeb7cbef2586e25bcdf9d922864736f6c63430008120033",
  "linkReferences": {},
  "deployedLinkReferences": {}
}