{
  "_format": "hh-sol-artifact-1",
  "contractName": "TreasureGuardian",
  "sourceName": "contracts/TreasureGuardian.sol",
  "abi": [
    {
      "inputs": [],
      "stateMutability": "nonpayable",
      "type": "constructor"
    },
    {
      "anonymous": false,
      "inputs": [
        {
          "indexed": true,
          "internalType": "address",
          "name": "previousOwner",
          "type": "address"
        },
        {
          "indexed": true,
          "internalType": "address",
          "name": "newOwner",
          "type": "address"
        }
      ],
      "name": "OwnershipTransferred",
      "type": "event"
    },
    {
      "anonymous": false,
      "inputs": [
        {
          "indexed": false,
          "internalType": "address",
          "name": "to",
          "type": "address"
        },
        {
          "indexed": false,
          "internalType": "uint256[]",
          "name": "ids",
          "type": "uint256[]"
        },
        {
          "indexed": false,
          "internalType": "uint256[]",
          "name": "missingIds",
          "type": "uint256[]"
        }
      ],
      "name": "onStuffTransferedTo",
      "type": "event"
    },
    {
      "inputs": [
        {
          "internalType": "uint256",
          "name": "amount",
          "type": "uint256"
        }
      ],
      "name": "buyChest",
      "outputs": [],
      "stateMutability": "nonpayable",
      "type": "function"
    },
    {
      "inputs": [],
      "name": "chestPrice",
      "outputs": [
        {
          "internalType": "uint256",
          "name": "",
          "type": "uint256"
        }
      ],
      "stateMutability": "view",
      "type": "function"
    },
    {
      "inputs": [],
      "name": "createCollection",
      "outputs": [],
      "stateMutability": "nonpayable",
      "type": "function"
    },
    {
      "inputs": [],
      "name": "factory",
      "outputs": [
        {
          "internalType": "contract ForgeMaster",
          "name": "",
          "type": "address"
        }
      ],
      "stateMutability": "view",
      "type": "function"
    },
    {
      "inputs": [],
      "name": "guardianStuff",
      "outputs": [
        {
          "internalType": "contract GuardianStuff",
          "name": "",
          "type": "address"
        }
      ],
      "stateMutability": "view",
      "type": "function"
    },
    {
      "inputs": [],
      "name": "guardianToken",
      "outputs": [
        {
          "internalType": "contract GuardianToken",
          "name": "",
          "type": "address"
        }
      ],
      "stateMutability": "view",
      "type": "function"
    },
    {
      "inputs": [
        {
          "internalType": "address",
          "name": "guardianTokenAddr",
          "type": "address"
        }
      ],
      "name": "initialize",
      "outputs": [],
      "stateMutability": "nonpayable",
      "type": "function"
    },
    {
      "inputs": [
        {
          "internalType": "uint8",
          "name": "dropRateCommon",
          "type": "uint8"
        },
        {
          "internalType": "uint8",
          "name": "dropRateUncommon",
          "type": "uint8"
        },
        {
          "internalType": "uint8",
          "name": "dropRateRare",
          "type": "uint8"
        },
        {
          "internalType": "uint8",
          "name": "dropRateEpic",
          "type": "uint8"
        },
        {
          "internalType": "uint8",
          "name": "dropRateLegendary",
          "type": "uint8"
        }
      ],
      "name": "modifyDropRate",
      "outputs": [],
      "stateMutability": "nonpayable",
      "type": "function"
    },
    {
      "inputs": [
        {
          "internalType": "address",
          "name": "",
          "type": "address"
        },
        {
          "internalType": "address",
          "name": "",
          "type": "address"
        },
        {
          "internalType": "uint256[]",
          "name": "",
          "type": "uint256[]"
        },
        {
          "internalType": "uint256[]",
          "name": "",
          "type": "uint256[]"
        },
        {
          "internalType": "bytes",
          "name": "",
          "type": "bytes"
        }
      ],
      "name": "onERC1155BatchReceived",
      "outputs": [
        {
          "internalType": "bytes4",
          "name": "",
          "type": "bytes4"
        }
      ],
      "stateMutability": "nonpayable",
      "type": "function"
    },
    {
      "inputs": [
        {
          "internalType": "address",
          "name": "",
          "type": "address"
        },
        {
          "internalType": "address",
          "name": "",
          "type": "address"
        },
        {
          "internalType": "uint256",
          "name": "",
          "type": "uint256"
        },
        {
          "internalType": "uint256",
          "name": "",
          "type": "uint256"
        },
        {
          "internalType": "bytes",
          "name": "",
          "type": "bytes"
        }
      ],
      "name": "onERC1155Received",
      "outputs": [
        {
          "internalType": "bytes4",
          "name": "",
          "type": "bytes4"
        }
      ],
      "stateMutability": "nonpayable",
      "type": "function"
    },
    {
      "inputs": [],
      "name": "openChest",
      "outputs": [
        {
          "internalType": "uint256[]",
          "name": "ids",
          "type": "uint256[]"
        }
      ],
      "stateMutability": "nonpayable",
      "type": "function"
    },
    {
      "inputs": [],
      "name": "owner",
      "outputs": [
        {
          "internalType": "address",
          "name": "",
          "type": "address"
        }
      ],
      "stateMutability": "view",
      "type": "function"
    },
    {
      "inputs": [],
      "name": "renounceOwnership",
      "outputs": [],
      "stateMutability": "nonpayable",
      "type": "function"
    },
    {
      "inputs": [
        {
          "internalType": "address",
          "name": "guardianAddress",
          "type": "address"
        },
        {
          "internalType": "uint256",
          "name": "amount",
          "type": "uint256"
        }
      ],
      "name": "rewardGuardianWithToken",
      "outputs": [],
      "stateMutability": "nonpayable",
      "type": "function"
    },
    {
      "inputs": [
        {
          "internalType": "address",
          "name": "from",
          "type": "address"
        },
        {
          "internalType": "address",
          "name": "to",
          "type": "address"
        },
        {
          "internalType": "uint256",
          "name": "id",
          "type": "uint256"
        },
        {
          "internalType": "uint256",
          "name": "amount",
          "type": "uint256"
        },
        {
          "internalType": "bytes",
          "name": "data",
          "type": "bytes"
        }
      ],
      "name": "safeTransferFrom",
      "outputs": [],
      "stateMutability": "nonpayable",
      "type": "function"
    },
    {
      "inputs": [
        {
          "internalType": "bytes4",
          "name": "interfaceId",
          "type": "bytes4"
        }
      ],
      "name": "supportsInterface",
      "outputs": [
        {
          "internalType": "bool",
          "name": "",
          "type": "bool"
        }
      ],
      "stateMutability": "view",
      "type": "function"
    },
    {
      "inputs": [
        {
          "internalType": "address",
          "name": "newOwner",
          "type": "address"
        }
      ],
      "name": "transferOwnership",
      "outputs": [],
      "stateMutability": "nonpayable",
      "type": "function"
    }
  ],
  "bytecode": "0x608060405268015af1d78b58c400006004556005600660006101000a81548160ff021916908360ff160217905550603c600660016101000a81548160ff021916908360ff1602179055506019600660026101000a81548160ff021916908360ff160217905550600a600660036101000a81548160ff021916908360ff1602179055506004600660046101000a81548160ff021916908360ff1602179055506001600660056101000a81548160ff021916908360ff160217905550348015620000c657600080fd5b50620000e7620000db6200015960201b60201c565b6200016160201b60201c565b604051620000f59062000225565b604051809103906000f08015801562000112573d6000803e3d6000fd5b50600160006101000a81548173ffffffffffffffffffffffffffffffffffffffff021916908373ffffffffffffffffffffffffffffffffffffffff16021790555062000233565b600033905090565b60008060009054906101000a900473ffffffffffffffffffffffffffffffffffffffff169050816000806101000a81548173ffffffffffffffffffffffffffffffffffffffff021916908373ffffffffffffffffffffffffffffffffffffffff1602179055508173ffffffffffffffffffffffffffffffffffffffff168173ffffffffffffffffffffffffffffffffffffffff167f8be0079c531659141344cd1fd0a4f28419497f9722a3daafe3b4186f6b6457e060405160405180910390a35050565b6148a88062002f1283390190565b612ccf80620002436000396000f3fe608060405234801561001057600080fd5b506004361061010b5760003560e01c8063ae196ec8116100a2578063f154730411610071578063f15473041461026c578063f23a6e611461028a578063f242432a146102ba578063f2fde38b146102d6578063fa180dc9146102f25761010b565b8063ae196ec8146101e6578063bc197c8114610202578063c45a015514610232578063c4d66de8146102505761010b565b80636f49a3c0116100de5780636f49a3c014610184578063715018a6146101a2578063829a826a146101ac5780638da5cb5b146101c85761010b565b806301ffc9a714610110578063444e56ed146101405780634e1925481461015e578063647f1a9c1461017a575b600080fd5b61012a600480360381019061012591906118fa565b610310565b6040516101379190611942565b60405180910390f35b61014861038a565b6040516101559190611976565b60405180910390f35b610178600480360381019061017391906119bd565b610390565b005b610182610734565b005b61018c6108a2565b6040516101999190611aa8565b60405180910390f35b6101aa610d78565b005b6101c660048036038101906101c19190611b03565b610d8c565b005b6101d0610e94565b6040516101dd9190611bbf565b60405180910390f35b61020060048036038101906101fb9190611c06565b610ebd565b005b61021c60048036038101906102179190611e54565b611047565b6040516102299190611f32565b60405180910390f35b61023a61105c565b6040516102479190611fac565b60405180910390f35b61026a60048036038101906102659190611fc7565b611082565b005b6102746110ce565b6040516102819190612015565b60405180910390f35b6102a4600480360381019061029f9190612030565b6110f4565b6040516102b19190611f32565b60405180910390f35b6102d460048036038101906102cf9190612030565b611109565b005b6102f060048036038101906102eb9190611fc7565b6111ad565b005b6102fa611230565b60405161030791906120e8565b60405180910390f35b60007f4e2312e0000000000000000000000000000000000000000000000000000000007bffffffffffffffffffffffffffffffffffffffffffffffffffffffff1916827bffffffffffffffffffffffffffffffffffffffffffffffffffffffff19161480610383575061038282611256565b5b9050919050565b60045481565b6000600260009054906101000a900473ffffffffffffffffffffffffffffffffffffffff1673ffffffffffffffffffffffffffffffffffffffff1663ea2a17306040518163ffffffff1660e01b8152600401602060405180830381865afa1580156103ff573d6000803e3d6000fd5b505050506040513d601f19601f820116820180604052508101906104239190612118565b905081600260009054906101000a900473ffffffffffffffffffffffffffffffffffffffff1673ffffffffffffffffffffffffffffffffffffffff1662fdd58e30846040518363ffffffff1660e01b8152600401610482929190612176565b602060405180830381865afa15801561049f573d6000803e3d6000fd5b505050506040513d601f19601f820116820180604052508101906104c391906121b4565b11610503576040517f08c379a00000000000000000000000000000000000000000000000000000000081526004016104fa90612264565b60405180910390fd5b8160045461051191906122b3565b600360009054906101000a900473ffffffffffffffffffffffffffffffffffffffff1673ffffffffffffffffffffffffffffffffffffffff166370a08231336040518263ffffffff1660e01b815260040161056c9190611bbf565b602060405180830381865afa158015610589573d6000803e3d6000fd5b505050506040513d601f19601f820116820180604052508101906105ad91906121b4565b116105ed576040517f08c379a00000000000000000000000000000000000000000000000000000000081526004016105e490612367565b60405180910390fd5b600360009054906101000a900473ffffffffffffffffffffffffffffffffffffffff1673ffffffffffffffffffffffffffffffffffffffff166323b872dd33308560045461063b91906122b3565b6040518463ffffffff1660e01b815260040161065993929190612387565b6020604051808303816000875af1158015610678573d6000803e3d6000fd5b505050506040513d601f19601f8201168201806040525081019061069c91906123ea565b50600260009054906101000a900473ffffffffffffffffffffffffffffffffffffffff1673ffffffffffffffffffffffffffffffffffffffff1663f242432a303384866040518563ffffffff1660e01b81526004016106fe949392919061244e565b600060405180830381600087803b15801561071857600080fd5b505af115801561072c573d6000803e3d6000fd5b505050505050565b61073c6112c0565b6000600160009054906101000a900473ffffffffffffffffffffffffffffffffffffffff1673ffffffffffffffffffffffffffffffffffffffff1663059dfe136040518163ffffffff1660e01b8152600401610797906124f2565b6020604051808303816000875af11580156107b6573d6000803e3d6000fd5b505050506040513d601f19601f820116820180604052508101906107da9190612527565b9050600160009054906101000a900473ffffffffffffffffffffffffffffffffffffffff1673ffffffffffffffffffffffffffffffffffffffff16630f7deecb6040518163ffffffff1660e01b8152600401600060405180830381600087803b15801561084657600080fd5b505af115801561085a573d6000803e3d6000fd5b5050505080600260006101000a81548173ffffffffffffffffffffffffffffffffffffffff021916908373ffffffffffffffffffffffffffffffffffffffff16021790555050565b60606000600260009054906101000a900473ffffffffffffffffffffffffffffffffffffffff1673ffffffffffffffffffffffffffffffffffffffff1663ea2a17306040518163ffffffff1660e01b8152600401602060405180830381865afa158015610913573d6000803e3d6000fd5b505050506040513d601f19601f820116820180604052508101906109379190612118565b90506000600260009054906101000a900473ffffffffffffffffffffffffffffffffffffffff1673ffffffffffffffffffffffffffffffffffffffff1662fdd58e33846040518363ffffffff1660e01b8152600401610997929190612176565b602060405180830381865afa1580156109b4573d6000803e3d6000fd5b505050506040513d601f19601f820116820180604052508101906109d891906121b4565b11610a18576040517f08c379a0000000000000000000000000000000000000000000000000000000008152600401610a0f906125c6565b60405180910390fd5b6000600660009054906101000a900460ff1660ff1667ffffffffffffffff811115610a4657610a45611c5c565b5b604051908082528060200260200182016040528015610a745781602001602082028036833780820191505090505b5090506000600660009054906101000a900460ff1660ff1667ffffffffffffffff811115610aa557610aa4611c5c565b5b604051908082528060200260200182016040528015610ad35781602001602082028036833780820191505090505b50905060005b600660009054906101000a900460ff1660ff16811015610c9f576000610afd61133e565b90506000600260009054906101000a900473ffffffffffffffffffffffffffffffffffffffff1673ffffffffffffffffffffffffffffffffffffffff1662fdd58e30846040518363ffffffff1660e01b8152600401610b5d9291906125e6565b602060405180830381865afa158015610b7a573d6000803e3d6000fd5b505050506040513d601f19601f82011682018060405250810190610b9e91906121b4565b90506000811115610c625781858481518110610bbd57610bbc61260f565b5b602002602001018181525050600260009054906101000a900473ffffffffffffffffffffffffffffffffffffffff1673ffffffffffffffffffffffffffffffffffffffff1663f242432a30338560016040518563ffffffff1660e01b8152600401610c2b9493929190612679565b600060405180830381600087803b158015610c4557600080fd5b505af1158015610c59573d6000803e3d6000fd5b50505050610c89565b81848481518110610c7657610c7561260f565b5b6020026020010181815250505050610c8c565b50505b8080610c97906126d1565b915050610ad9565b50600260009054906101000a900473ffffffffffffffffffffffffffffffffffffffff1673ffffffffffffffffffffffffffffffffffffffff1663f242432a33308660016040518563ffffffff1660e01b8152600401610d029493929190612719565b600060405180830381600087803b158015610d1c57600080fd5b505af1158015610d30573d6000803e3d6000fd5b505050507f1ab84bce784ba927df23bef9279723d9bbad6dec82728fb92e2aebfac01f666d338383604051610d6793929190612771565b60405180910390a181935050505090565b610d806112c0565b610d8a6000611767565b565b610d946112c0565b60648183858789610da591906127b6565b610daf91906127b6565b610db991906127b6565b610dc391906127b6565b60ff1614610e06576040517f08c379a0000000000000000000000000000000000000000000000000000000008152600401610dfd9061285d565b60405180910390fd5b84600660016101000a81548160ff021916908360ff16021790555083600660026101000a81548160ff021916908360ff16021790555082600660036101000a81548160ff021916908360ff16021790555081600660046101000a81548160ff021916908360ff16021790555080600660056101000a81548160ff021916908360ff1602179055505050505050565b60008060009054906101000a900473ffffffffffffffffffffffffffffffffffffffff16905090565b610ec56112c0565b80600360009054906101000a900473ffffffffffffffffffffffffffffffffffffffff1673ffffffffffffffffffffffffffffffffffffffff166370a08231306040518263ffffffff1660e01b8152600401610f219190611bbf565b602060405180830381865afa158015610f3e573d6000803e3d6000fd5b505050506040513d601f19601f82011682018060405250810190610f6291906121b4565b11610fa2576040517f08c379a0000000000000000000000000000000000000000000000000000000008152600401610f99906128ef565b60405180910390fd5b600360009054906101000a900473ffffffffffffffffffffffffffffffffffffffff1673ffffffffffffffffffffffffffffffffffffffff1663a9059cbb83836040518363ffffffff1660e01b8152600401610fff9291906125e6565b6020604051808303816000875af115801561101e573d6000803e3d6000fd5b505050506040513d601f19601f8201168201806040525081019061104291906123ea565b505050565b600063bc197c8160e01b905095945050505050565b600160009054906101000a900473ffffffffffffffffffffffffffffffffffffffff1681565b61108a6112c0565b80600360006101000a81548173ffffffffffffffffffffffffffffffffffffffff021916908373ffffffffffffffffffffffffffffffffffffffff16021790555050565b600260009054906101000a900473ffffffffffffffffffffffffffffffffffffffff1681565b600063f23a6e6160e01b905095945050505050565b6111116112c0565b600260009054906101000a900473ffffffffffffffffffffffffffffffffffffffff1673ffffffffffffffffffffffffffffffffffffffff1663f242432a86868686866040518663ffffffff1660e01b815260040161117495949392919061297d565b600060405180830381600087803b15801561118e57600080fd5b505af11580156111a2573d6000803e3d6000fd5b505050505050505050565b6111b56112c0565b600073ffffffffffffffffffffffffffffffffffffffff168173ffffffffffffffffffffffffffffffffffffffff1603611224576040517f08c379a000000000000000000000000000000000000000000000000000000000815260040161121b90612a49565b60405180910390fd5b61122d81611767565b50565b600360009054906101000a900473ffffffffffffffffffffffffffffffffffffffff1681565b60007f01ffc9a7000000000000000000000000000000000000000000000000000000007bffffffffffffffffffffffffffffffffffffffffffffffffffffffff1916827bffffffffffffffffffffffffffffffffffffffffffffffffffffffff1916149050919050565b6112c861182b565b73ffffffffffffffffffffffffffffffffffffffff166112e6610e94565b73ffffffffffffffffffffffffffffffffffffffff161461133c576040517f08c379a000000000000000000000000000000000000000000000000000000000815260040161133390612ab5565b60405180910390fd5b565b600080611349611833565b90506000600660019054906101000a900460ff1660ff1682101561137057600090506115fa565b600660019054906101000a900460ff1660ff1682101580156113bd5750600660029054906101000a900460ff16600660019054906101000a900460ff166113b791906127b6565b60ff1682105b156113cb57600190506115f9565b600660029054906101000a900460ff16600660019054906101000a900460ff166113f591906127b6565b60ff16821015801561144c5750600660039054906101000a900460ff16600660029054906101000a900460ff16600660019054906101000a900460ff1661143c91906127b6565b61144691906127b6565b60ff1682105b1561145a57600290506115f8565b600660039054906101000a900460ff16600660029054906101000a900460ff16600660019054906101000a900460ff1661149491906127b6565b61149e91906127b6565b60ff16821015801561150f5750600660049054906101000a900460ff16600660039054906101000a900460ff16600660029054906101000a900460ff16600660019054906101000a900460ff166114f591906127b6565b6114ff91906127b6565b61150991906127b6565b60ff1682105b1561151d57600390506115f7565b600660049054906101000a900460ff16600660039054906101000a900460ff16600660029054906101000a900460ff16600660019054906101000a900460ff1661156791906127b6565b61157191906127b6565b61157b91906127b6565b60ff1682101580156115ec5750600660059054906101000a900460ff16600660039054906101000a900460ff16600660029054906101000a900460ff16600660019054906101000a900460ff166115d291906127b6565b6115dc91906127b6565b6115e691906127b6565b60ff1682105b156115f657600490505b5b5b5b5b611602611833565b9150600060019050602183101561161c576001905061164a565b6021831015801561162d5750604283105b1561163b5760029050611649565b6042831061164857600390505b5b5b60006001905060006001905061165e611833565b945060118510156116725760019050611700565b601185101580156116835750602285105b1561169157600290506116ff565b602285101580156116a25750603385105b156116b057600390506116fe565b603385101580156116c15750604485105b156116cf57600490506116fd565b604485101580156116e05750605485105b156116ee57600590506116fc565b605485106116fb57600690505b5b5b5b5b5b60008460ff16600a836117139190612ad5565b60ff166064856117239190612ad5565b60ff166103e88760ff166117379190612b20565b6117419190612b5d565b61174b9190612b5d565b6117559190612b5d565b61ffff16905080965050505050505090565b60008060009054906101000a900473ffffffffffffffffffffffffffffffffffffffff169050816000806101000a81548173ffffffffffffffffffffffffffffffffffffffff021916908373ffffffffffffffffffffffffffffffffffffffff1602179055508173ffffffffffffffffffffffffffffffffffffffff168173ffffffffffffffffffffffffffffffffffffffff167f8be0079c531659141344cd1fd0a4f28419497f9722a3daafe3b4186f6b6457e060405160405180910390a35050565b600033905090565b600060056000815480929190611848906126d1565b91905055506064423360055460405160200161186693929190612bfc565b6040516020818303038152906040528051906020012060001c6118899190612c68565b905090565b6000604051905090565b600080fd5b600080fd5b60007fffffffff0000000000000000000000000000000000000000000000000000000082169050919050565b6118d7816118a2565b81146118e257600080fd5b50565b6000813590506118f4816118ce565b92915050565b6000602082840312156119105761190f611898565b5b600061191e848285016118e5565b91505092915050565b60008115159050919050565b61193c81611927565b82525050565b60006020820190506119576000830184611933565b92915050565b6000819050919050565b6119708161195d565b82525050565b600060208201905061198b6000830184611967565b92915050565b61199a8161195d565b81146119a557600080fd5b50565b6000813590506119b781611991565b92915050565b6000602082840312156119d3576119d2611898565b5b60006119e1848285016119a8565b91505092915050565b600081519050919050565b600082825260208201905092915050565b6000819050602082019050919050565b611a1f8161195d565b82525050565b6000611a318383611a16565b60208301905092915050565b6000602082019050919050565b6000611a55826119ea565b611a5f81856119f5565b9350611a6a83611a06565b8060005b83811015611a9b578151611a828882611a25565b9750611a8d83611a3d565b925050600181019050611a6e565b5085935050505092915050565b60006020820190508181036000830152611ac28184611a4a565b905092915050565b600060ff82169050919050565b611ae081611aca565b8114611aeb57600080fd5b50565b600081359050611afd81611ad7565b92915050565b600080600080600060a08688031215611b1f57611b1e611898565b5b6000611b2d88828901611aee565b9550506020611b3e88828901611aee565b9450506040611b4f88828901611aee565b9350506060611b6088828901611aee565b9250506080611b7188828901611aee565b9150509295509295909350565b600073ffffffffffffffffffffffffffffffffffffffff82169050919050565b6000611ba982611b7e565b9050919050565b611bb981611b9e565b82525050565b6000602082019050611bd46000830184611bb0565b92915050565b611be381611b9e565b8114611bee57600080fd5b50565b600081359050611c0081611bda565b92915050565b60008060408385031215611c1d57611c1c611898565b5b6000611c2b85828601611bf1565b9250506020611c3c858286016119a8565b9150509250929050565b600080fd5b6000601f19601f8301169050919050565b7f4e487b7100000000000000000000000000000000000000000000000000000000600052604160045260246000fd5b611c9482611c4b565b810181811067ffffffffffffffff82111715611cb357611cb2611c5c565b5b80604052505050565b6000611cc661188e565b9050611cd28282611c8b565b919050565b600067ffffffffffffffff821115611cf257611cf1611c5c565b5b602082029050602081019050919050565b600080fd5b6000611d1b611d1684611cd7565b611cbc565b90508083825260208201905060208402830185811115611d3e57611d3d611d03565b5b835b81811015611d675780611d5388826119a8565b845260208401935050602081019050611d40565b5050509392505050565b600082601f830112611d8657611d85611c46565b5b8135611d96848260208601611d08565b91505092915050565b600080fd5b600067ffffffffffffffff821115611dbf57611dbe611c5c565b5b611dc882611c4b565b9050602081019050919050565b82818337600083830152505050565b6000611df7611df284611da4565b611cbc565b905082815260208101848484011115611e1357611e12611d9f565b5b611e1e848285611dd5565b509392505050565b600082601f830112611e3b57611e3a611c46565b5b8135611e4b848260208601611de4565b91505092915050565b600080600080600060a08688031215611e7057611e6f611898565b5b6000611e7e88828901611bf1565b9550506020611e8f88828901611bf1565b945050604086013567ffffffffffffffff811115611eb057611eaf61189d565b5b611ebc88828901611d71565b935050606086013567ffffffffffffffff811115611edd57611edc61189d565b5b611ee988828901611d71565b925050608086013567ffffffffffffffff811115611f0a57611f0961189d565b5b611f1688828901611e26565b9150509295509295909350565b611f2c816118a2565b82525050565b6000602082019050611f476000830184611f23565b92915050565b6000819050919050565b6000611f72611f6d611f6884611b7e565b611f4d565b611b7e565b9050919050565b6000611f8482611f57565b9050919050565b6000611f9682611f79565b9050919050565b611fa681611f8b565b82525050565b6000602082019050611fc16000830184611f9d565b92915050565b600060208284031215611fdd57611fdc611898565b5b6000611feb84828501611bf1565b91505092915050565b6000611fff82611f79565b9050919050565b61200f81611ff4565b82525050565b600060208201905061202a6000830184612006565b92915050565b600080600080600060a0868803121561204c5761204b611898565b5b600061205a88828901611bf1565b955050602061206b88828901611bf1565b945050604061207c888289016119a8565b935050606061208d888289016119a8565b925050608086013567ffffffffffffffff8111156120ae576120ad61189d565b5b6120ba88828901611e26565b9150509295509295909350565b60006120d282611f79565b9050919050565b6120e2816120c7565b82525050565b60006020820190506120fd60008301846120d9565b92915050565b60008151905061211281611ad7565b92915050565b60006020828403121561212e5761212d611898565b5b600061213c84828501612103565b91505092915050565b600061216061215b61215684611aca565b611f4d565b61195d565b9050919050565b61217081612145565b82525050565b600060408201905061218b6000830185611bb0565b6121986020830184612167565b9392505050565b6000815190506121ae81611991565b92915050565b6000602082840312156121ca576121c9611898565b5b60006121d88482850161219f565b91505092915050565b600082825260208201905092915050565b7f536f72727920477561726469616e2c20746865726520617265206e6f7420656e60008201527f6f75676820636865737473206c6566742e000000000000000000000000000000602082015250565b600061224e6031836121e1565b9150612259826121f2565b604082019050919050565b6000602082019050818103600083015261227d81612241565b9050919050565b7f4e487b7100000000000000000000000000000000000000000000000000000000600052601160045260246000fd5b60006122be8261195d565b91506122c98361195d565b92508282026122d78161195d565b915082820484148315176122ee576122ed612284565b5b5092915050565b7f536f72727920477561726469616e2c20796f7520646f206e6f7420686176652060008201527f656e6f756768206d6f6e65792e00000000000000000000000000000000000000602082015250565b6000612351602d836121e1565b915061235c826122f5565b604082019050919050565b6000602082019050818103600083015261238081612344565b9050919050565b600060608201905061239c6000830186611bb0565b6123a96020830185611bb0565b6123b66040830184611967565b949350505050565b6123c781611927565b81146123d257600080fd5b50565b6000815190506123e4816123be565b92915050565b600060208284031215612400576123ff611898565b5b600061240e848285016123d5565b91505092915050565b600082825260208201905092915050565b50565b6000612438600083612417565b915061244382612428565b600082019050919050565b600060a0820190506124636000830187611bb0565b6124706020830186611bb0565b61247d6040830185612167565b61248a6060830184611967565b818103608083015261249b8161242b565b905095945050505050565b7f4e6f646520477561726469616e7320416c79726120436f6c6c656374696f6e00600082015250565b60006124dc601f836121e1565b91506124e7826124a6565b602082019050919050565b6000602082019050818103600083015261250b816124cf565b9050919050565b60008151905061252181611bda565b92915050565b60006020828403121561253d5761253c611898565b5b600061254b84828501612512565b91505092915050565b7f536f72727920477561726469616e2c20796f7520646f206e6f7420686176652060008201527f616e7920636865737420696e20796f757220696e76656e746f72792e00000000602082015250565b60006125b0603c836121e1565b91506125bb82612554565b604082019050919050565b600060208201905081810360008301526125df816125a3565b9050919050565b60006040820190506125fb6000830185611bb0565b6126086020830184611967565b9392505050565b7f4e487b7100000000000000000000000000000000000000000000000000000000600052603260045260246000fd5b6000819050919050565b600061266361265e6126598461263e565b611f4d565b61195d565b9050919050565b61267381612648565b82525050565b600060a08201905061268e6000830187611bb0565b61269b6020830186611bb0565b6126a86040830185611967565b6126b5606083018461266a565b81810360808301526126c68161242b565b905095945050505050565b60006126dc8261195d565b91507fffffffffffffffffffffffffffffffffffffffffffffffffffffffffffffffff820361270e5761270d612284565b5b600182019050919050565b600060a08201905061272e6000830187611bb0565b61273b6020830186611bb0565b6127486040830185612167565b612755606083018461266a565b81810360808301526127668161242b565b905095945050505050565b60006060820190506127866000830186611bb0565b81810360208301526127988185611a4a565b905081810360408301526127ac8184611a4a565b9050949350505050565b60006127c182611aca565b91506127cc83611aca565b9250828201905060ff8111156127e5576127e4612284565b5b92915050565b7f53756d206f66207468652064726f702072617465206d7573742062652065676160008201527f6c20746f20313030000000000000000000000000000000000000000000000000602082015250565b60006128476028836121e1565b9150612852826127eb565b604082019050919050565b600060208201905081810360008301526128768161283a565b9050919050565b7f536f72727920477561726469616e2c207468657265206973206e6f206d6f726560008201527f206d6f6e657920696e2074686520747265617375726500000000000000000000602082015250565b60006128d96036836121e1565b91506128e48261287d565b604082019050919050565b60006020820190508181036000830152612908816128cc565b9050919050565b600081519050919050565b60005b8381101561293857808201518184015260208101905061291d565b60008484015250505050565b600061294f8261290f565b6129598185612417565b935061296981856020860161291a565b61297281611c4b565b840191505092915050565b600060a0820190506129926000830188611bb0565b61299f6020830187611bb0565b6129ac6040830186611967565b6129b96060830185611967565b81810360808301526129cb8184612944565b90509695505050505050565b7f4f776e61626c653a206e6577206f776e657220697320746865207a65726f206160008201527f6464726573730000000000000000000000000000000000000000000000000000602082015250565b6000612a336026836121e1565b9150612a3e826129d7565b604082019050919050565b60006020820190508181036000830152612a6281612a26565b9050919050565b7f4f776e61626c653a2063616c6c6572206973206e6f7420746865206f776e6572600082015250565b6000612a9f6020836121e1565b9150612aaa82612a69565b602082019050919050565b60006020820190508181036000830152612ace81612a92565b9050919050565b6000612ae082611aca565b9150612aeb83611aca565b9250828202612af981611aca565b9150808214612b0b57612b0a612284565b5b5092915050565b600061ffff82169050919050565b6000612b2b82612b12565b9150612b3683612b12565b9250828202612b4481612b12565b9150808214612b5657612b55612284565b5b5092915050565b6000612b6882612b12565b9150612b7383612b12565b9250828201905061ffff811115612b8d57612b8c612284565b5b92915050565b6000819050919050565b612bae612ba98261195d565b612b93565b82525050565b60008160601b9050919050565b6000612bcc82612bb4565b9050919050565b6000612bde82612bc1565b9050919050565b612bf6612bf182611b9e565b612bd3565b82525050565b6000612c088286612b9d565b602082019150612c188285612be5565b601482019150612c288284612b9d565b602082019150819050949350505050565b7f4e487b7100000000000000000000000000000000000000000000000000000000600052601260045260246000fd5b6000612c738261195d565b9150612c7e8361195d565b925082612c8e57612c8d612c39565b5b82820690509291505056fea264697066735822122090c58e0b3aca755d32c471ae326e4a9b1017ec47efbb8a9dfe9c827d60c636b364736f6c63430008120033608060405234801561001057600080fd5b5061002d61002261003260201b60201c565b61003a60201b60201c565b6100fe565b600033905090565b60008060009054906101000a900473ffffffffffffffffffffffffffffffffffffffff169050816000806101000a81548173ffffffffffffffffffffffffffffffffffffffff021916908373ffffffffffffffffffffffffffffffffffffffff1602179055508173ffffffffffffffffffffffffffffffffffffffff168173ffffffffffffffffffffffffffffffffffffffff167f8be0079c531659141344cd1fd0a4f28419497f9722a3daafe3b4186f6b6457e060405160405180910390a35050565b61479b8061010d6000396000f3fe60806040523480156200001157600080fd5b5060043610620000ac5760003560e01c80638da5cb5b116200006f5780638da5cb5b1462000157578063bc197c811462000179578063e5326ab114620001af578063f23a6e6114620001d1578063f2fde38b146200020757620000ac565b806301ffc9a714620000b1578063059dfe1314620000e75780630f7deecb146200011d5780636aa003711462000129578063715018a6146200014b575b600080fd5b620000cf6004803603810190620000c991906200086b565b62000227565b604051620000de9190620008ba565b60405180910390f35b620001056004803603810190620000ff919062000a39565b620002a4565b60405162000114919062000acf565b60405180910390f35b620001276200036e565b005b6200013362000480565b60405162000142919062000acf565b60405180910390f35b62000155620004a6565b005b62000161620004be565b60405162000170919062000acf565b60405180910390f35b62000197600480360381019062000191919062000ce7565b620004e7565b604051620001a6919062000ddd565b60405180910390f35b620001b9620004fc565b604051620001c8919062000e83565b60405180910390f35b620001ef6004803603810190620001e9919062000ea7565b62000592565b604051620001fe919062000ddd565b60405180910390f35b6200022560048036038101906200021f919062000f4e565b620005a7565b005b60007f4e2312e0000000000000000000000000000000000000000000000000000000007bffffffffffffffffffffffffffffffffffffffffffffffffffffffff1916827bffffffffffffffffffffffffffffffffffffffffffffffffffffffff191614806200029d57506200029c8262000631565b5b9050919050565b60008060405180602001620002b990620007ec565b6020820181038252601f19601f820116604052509050600083604051602001620002e4919062000fc2565b604051602081830303815290604052805190602001209050808251602084016000f59250823b6200031457600080fd5b836001908162000325919062001211565b5082600260006101000a81548173ffffffffffffffffffffffffffffffffffffffff021916908373ffffffffffffffffffffffffffffffffffffffff1602179055505050919050565b620003786200069b565b6000600260009054906101000a900473ffffffffffffffffffffffffffffffffffffffff1690508073ffffffffffffffffffffffffffffffffffffffff166306f36e87336040518263ffffffff1660e01b8152600401620003da919062000acf565b600060405180830381600087803b158015620003f557600080fd5b505af11580156200040a573d6000803e3d6000fd5b505050508073ffffffffffffffffffffffffffffffffffffffff166344dfb6bc336040518263ffffffff1660e01b815260040162000449919062000acf565b600060405180830381600087803b1580156200046457600080fd5b505af115801562000479573d6000803e3d6000fd5b5050505050565b600260009054906101000a900473ffffffffffffffffffffffffffffffffffffffff1681565b620004b06200069b565b620004bc600062000720565b565b60008060009054906101000a900473ffffffffffffffffffffffffffffffffffffffff16905090565b600063bc197c8160e01b905095945050505050565b600180546200050b906200100a565b80601f016020809104026020016040519081016040528092919081815260200182805462000539906200100a565b80156200058a5780601f106200055e576101008083540402835291602001916200058a565b820191906000526020600020905b8154815290600101906020018083116200056c57829003601f168201915b505050505081565b600063f23a6e6160e01b905095945050505050565b620005b16200069b565b600073ffffffffffffffffffffffffffffffffffffffff168173ffffffffffffffffffffffffffffffffffffffff160362000623576040517f08c379a00000000000000000000000000000000000000000000000000000000081526004016200061a906200136e565b60405180910390fd5b6200062e8162000720565b50565b60007f01ffc9a7000000000000000000000000000000000000000000000000000000007bffffffffffffffffffffffffffffffffffffffffffffffffffffffff1916827bffffffffffffffffffffffffffffffffffffffffffffffffffffffff1916149050919050565b620006a5620007e4565b73ffffffffffffffffffffffffffffffffffffffff16620006c5620004be565b73ffffffffffffffffffffffffffffffffffffffff16146200071e576040517f08c379a00000000000000000000000000000000000000000000000000000000081526004016200071590620013e0565b60405180910390fd5b565b60008060009054906101000a900473ffffffffffffffffffffffffffffffffffffffff169050816000806101000a81548173ffffffffffffffffffffffffffffffffffffffff021916908373ffffffffffffffffffffffffffffffffffffffff1602179055508173ffffffffffffffffffffffffffffffffffffffff168173ffffffffffffffffffffffffffffffffffffffff167f8be0079c531659141344cd1fd0a4f28419497f9722a3daafe3b4186f6b6457e060405160405180910390a35050565b600033905090565b613363806200140383390190565b6000604051905090565b600080fd5b600080fd5b60007fffffffff0000000000000000000000000000000000000000000000000000000082169050919050565b62000845816200080e565b81146200085157600080fd5b50565b60008135905062000865816200083a565b92915050565b60006020828403121562000884576200088362000804565b5b6000620008948482850162000854565b91505092915050565b60008115159050919050565b620008b4816200089d565b82525050565b6000602082019050620008d16000830184620008a9565b92915050565b600080fd5b600080fd5b6000601f19601f8301169050919050565b7f4e487b7100000000000000000000000000000000000000000000000000000000600052604160045260246000fd5b6200092c82620008e1565b810181811067ffffffffffffffff821117156200094e576200094d620008f2565b5b80604052505050565b600062000963620007fa565b905062000971828262000921565b919050565b600067ffffffffffffffff821115620009945762000993620008f2565b5b6200099f82620008e1565b9050602081019050919050565b82818337600083830152505050565b6000620009d2620009cc8462000976565b62000957565b905082815260208101848484011115620009f157620009f0620008dc565b5b620009fe848285620009ac565b509392505050565b600082601f83011262000a1e5762000a1d620008d7565b5b813562000a30848260208601620009bb565b91505092915050565b60006020828403121562000a525762000a5162000804565b5b600082013567ffffffffffffffff81111562000a735762000a7262000809565b5b62000a818482850162000a06565b91505092915050565b600073ffffffffffffffffffffffffffffffffffffffff82169050919050565b600062000ab78262000a8a565b9050919050565b62000ac98162000aaa565b82525050565b600060208201905062000ae6600083018462000abe565b92915050565b62000af78162000aaa565b811462000b0357600080fd5b50565b60008135905062000b178162000aec565b92915050565b600067ffffffffffffffff82111562000b3b5762000b3a620008f2565b5b602082029050602081019050919050565b600080fd5b6000819050919050565b62000b668162000b51565b811462000b7257600080fd5b50565b60008135905062000b868162000b5b565b92915050565b600062000ba362000b9d8462000b1d565b62000957565b9050808382526020820190506020840283018581111562000bc95762000bc862000b4c565b5b835b8181101562000bf6578062000be1888262000b75565b84526020840193505060208101905062000bcb565b5050509392505050565b600082601f83011262000c185762000c17620008d7565b5b813562000c2a84826020860162000b8c565b91505092915050565b600067ffffffffffffffff82111562000c515762000c50620008f2565b5b62000c5c82620008e1565b9050602081019050919050565b600062000c8062000c7a8462000c33565b62000957565b90508281526020810184848401111562000c9f5762000c9e620008dc565b5b62000cac848285620009ac565b509392505050565b600082601f83011262000ccc5762000ccb620008d7565b5b813562000cde84826020860162000c69565b91505092915050565b600080600080600060a0868803121562000d065762000d0562000804565b5b600062000d168882890162000b06565b955050602062000d298882890162000b06565b945050604086013567ffffffffffffffff81111562000d4d5762000d4c62000809565b5b62000d5b8882890162000c00565b935050606086013567ffffffffffffffff81111562000d7f5762000d7e62000809565b5b62000d8d8882890162000c00565b925050608086013567ffffffffffffffff81111562000db15762000db062000809565b5b62000dbf8882890162000cb4565b9150509295509295909350565b62000dd7816200080e565b82525050565b600060208201905062000df4600083018462000dcc565b92915050565b600081519050919050565b600082825260208201905092915050565b60005b8381101562000e3657808201518184015260208101905062000e19565b60008484015250505050565b600062000e4f8262000dfa565b62000e5b818562000e05565b935062000e6d81856020860162000e16565b62000e7881620008e1565b840191505092915050565b6000602082019050818103600083015262000e9f818462000e42565b905092915050565b600080600080600060a0868803121562000ec65762000ec562000804565b5b600062000ed68882890162000b06565b955050602062000ee98882890162000b06565b945050604062000efc8882890162000b75565b935050606062000f0f8882890162000b75565b925050608086013567ffffffffffffffff81111562000f335762000f3262000809565b5b62000f418882890162000cb4565b9150509295509295909350565b60006020828403121562000f675762000f6662000804565b5b600062000f778482850162000b06565b91505092915050565b600081905092915050565b600062000f988262000dfa565b62000fa4818562000f80565b935062000fb681856020860162000e16565b80840191505092915050565b600062000fd0828462000f8b565b915081905092915050565b7f4e487b7100000000000000000000000000000000000000000000000000000000600052602260045260246000fd5b600060028204905060018216806200102357607f821691505b60208210810362001039576200103862000fdb565b5b50919050565b60008190508160005260206000209050919050565b60006020601f8301049050919050565b600082821b905092915050565b600060088302620010a37fffffffffffffffffffffffffffffffffffffffffffffffffffffffffffffffff8262001064565b620010af868362001064565b95508019841693508086168417925050509392505050565b6000819050919050565b6000620010f2620010ec620010e68462000b51565b620010c7565b62000b51565b9050919050565b6000819050919050565b6200110e83620010d1565b620011266200111d82620010f9565b84845462001071565b825550505050565b600090565b6200113d6200112e565b6200114a81848462001103565b505050565b5b8181101562001172576200116660008262001133565b60018101905062001150565b5050565b601f821115620011c1576200118b816200103f565b620011968462001054565b81016020851015620011a6578190505b620011be620011b58562001054565b8301826200114f565b50505b505050565b600082821c905092915050565b6000620011e660001984600802620011c6565b1980831691505092915050565b6000620012018383620011d3565b9150826002028217905092915050565b6200121c8262000dfa565b67ffffffffffffffff811115620012385762001237620008f2565b5b6200124482546200100a565b6200125182828562001176565b600060209050601f83116001811462001289576000841562001274578287015190505b620012808582620011f3565b865550620012f0565b601f19841662001299866200103f565b60005b82811015620012c3578489015182556001820191506020850194506020810190506200129c565b86831015620012e35784890151620012df601f891682620011d3565b8355505b6001600288020188555050505b505050505050565b7f4f776e61626c653a206e6577206f776e657220697320746865207a65726f206160008201527f6464726573730000000000000000000000000000000000000000000000000000602082015250565b60006200135660268362000e05565b91506200136382620012f8565b604082019050919050565b60006020820190508181036000830152620013898162001347565b9050919050565b7f4f776e61626c653a2063616c6c6572206973206e6f7420746865206f776e6572600082015250565b6000620013c860208362000e05565b9150620013d58262001390565b602082019050919050565b60006020820190508181036000830152620013fb81620013b9565b905091905056fe60806040526000600560006101000a81548160ff021916908360ff1602179055503480156200002d57600080fd5b506040518060800160405280604d815260200162003316604d913962000059816200008060201b60201c565b506200007a6200006e6200009560201b60201c565b6200009d60201b60201c565b620004c4565b8060029081620000919190620003dd565b5050565b600033905090565b6000600360009054906101000a900473ffffffffffffffffffffffffffffffffffffffff16905081600360006101000a81548173ffffffffffffffffffffffffffffffffffffffff021916908373ffffffffffffffffffffffffffffffffffffffff1602179055508173ffffffffffffffffffffffffffffffffffffffff168173ffffffffffffffffffffffffffffffffffffffff167f8be0079c531659141344cd1fd0a4f28419497f9722a3daafe3b4186f6b6457e060405160405180910390a35050565b600081519050919050565b7f4e487b7100000000000000000000000000000000000000000000000000000000600052604160045260246000fd5b7f4e487b7100000000000000000000000000000000000000000000000000000000600052602260045260246000fd5b60006002820490506001821680620001e557607f821691505b602082108103620001fb57620001fa6200019d565b5b50919050565b60008190508160005260206000209050919050565b60006020601f8301049050919050565b600082821b905092915050565b600060088302620002657fffffffffffffffffffffffffffffffffffffffffffffffffffffffffffffffff8262000226565b62000271868362000226565b95508019841693508086168417925050509392505050565b6000819050919050565b6000819050919050565b6000620002be620002b8620002b28462000289565b62000293565b62000289565b9050919050565b6000819050919050565b620002da836200029d565b620002f2620002e982620002c5565b84845462000233565b825550505050565b600090565b62000309620002fa565b62000316818484620002cf565b505050565b5b818110156200033e5762000332600082620002ff565b6001810190506200031c565b5050565b601f8211156200038d57620003578162000201565b620003628462000216565b8101602085101562000372578190505b6200038a620003818562000216565b8301826200031b565b50505b505050565b600082821c905092915050565b6000620003b26000198460080262000392565b1980831691505092915050565b6000620003cd83836200039f565b9150826002028217905092915050565b620003e88262000163565b67ffffffffffffffff8111156200040457620004036200016e565b5b620004108254620001cc565b6200041d82828562000342565b600060209050601f83116001811462000455576000841562000440578287015190505b6200044c8582620003bf565b865550620004bc565b601f198416620004658662000201565b60005b828110156200048f5784890151825560018201915060208501945060208101905062000468565b86831015620004af5784890151620004ab601f8916826200039f565b8355505b6001600288020188555050505b505050505050565b612e4280620004d46000396000f3fe608060405234801561001057600080fd5b50600436106100f45760003560e01c8063715018a611610097578063e985e9c511610066578063e985e9c51461026f578063ea2a17301461029f578063f242432a146102bd578063f2fde38b146102d9576100f4565b8063715018a61461020d5780638da5cb5b14610217578063a22cb46514610235578063ab2da89914610251576100f4565b80630e89341c116100d35780630e89341c146101755780632eb2c2d6146101a557806344dfb6bc146101c15780634e1273f4146101dd576100f4565b8062fdd58e146100f957806301ffc9a71461012957806306f36e8714610159575b600080fd5b610113600480360381019061010e9190611aaa565b6102f5565b6040516101209190611af9565b60405180910390f35b610143600480360381019061013e9190611b6c565b6103bd565b6040516101509190611bb4565b60405180910390f35b610173600480360381019061016e9190611bcf565b61049f565b005b61018f600480360381019061018a9190611bfc565b61061f565b60405161019c9190611cb9565b60405180910390f35b6101bf60048036038101906101ba9190611ed8565b6106b3565b005b6101db60048036038101906101d69190611bcf565b610754565b005b6101f760048036038101906101f2919061206a565b610789565b60405161020491906121a0565b60405180910390f35b6102156108a2565b005b61021f6108b6565b60405161022c91906121d1565b60405180910390f35b61024f600480360381019061024a9190612218565b6108e0565b005b6102596108f6565b60405161026691906121a0565b60405180910390f35b61028960048036038101906102849190612258565b61094e565b6040516102969190611bb4565b60405180910390f35b6102a76109e2565b6040516102b491906122b4565b60405180910390f35b6102d760048036038101906102d291906122cf565b6109f5565b005b6102f360048036038101906102ee9190611bcf565b610a96565b005b60008073ffffffffffffffffffffffffffffffffffffffff168373ffffffffffffffffffffffffffffffffffffffff1603610365576040517f08c379a000000000000000000000000000000000000000000000000000000000815260040161035c906123d8565b60405180910390fd5b60008083815260200190815260200160002060008473ffffffffffffffffffffffffffffffffffffffff1673ffffffffffffffffffffffffffffffffffffffff16815260200190815260200160002054905092915050565b60007fd9b67a26000000000000000000000000000000000000000000000000000000007bffffffffffffffffffffffffffffffffffffffffffffffffffffffff1916827bffffffffffffffffffffffffffffffffffffffffffffffffffffffff1916148061048857507f0e89341c000000000000000000000000000000000000000000000000000000007bffffffffffffffffffffffffffffffffffffffffffffffffffffffff1916827bffffffffffffffffffffffffffffffffffffffffffffffffffffffff1916145b80610498575061049782610b19565b5b9050919050565b600060019050600080600190505b60038111610619576000600190505b838111610605576000600190505b60078110156105f15760005b60058110156105dd57600081600a846104ef9190612427565b6064866104fc9190612427565b6103e88861050a9190612427565b6105149190612469565b61051e9190612469565b6105289190612469565b90506000820361053d57620f42409550610585565b6001820361055057620186a09550610584565b60028203610562576127109550610583565b60038203610574576103e89550610582565b6004820361058157606495505b5b5b5b5b6105a088828860405180602001604052806000815250610b83565b60048190806001815401808255809150506001900390600052602060002001600090919091909150555080806105d59061249d565b9150506104d6565b5080806105e99061249d565b9150506104ca565b5080806105fd9061249d565b9150506104bc565b5080806106119061249d565b9150506104ad565b50505050565b60606002805461062e90612514565b80601f016020809104026020016040519081016040528092919081815260200182805461065a90612514565b80156106a75780601f1061067c576101008083540402835291602001916106a7565b820191906000526020600020905b81548152906001019060200180831161068a57829003601f168201915b50505050509050919050565b6106bb610d33565b73ffffffffffffffffffffffffffffffffffffffff168573ffffffffffffffffffffffffffffffffffffffff1614806107015750610700856106fb610d33565b61094e565b5b610740576040517f08c379a0000000000000000000000000000000000000000000000000000000008152600401610737906125b7565b60405180910390fd5b61074d8585858585610d3b565b5050505050565b61078681600560009054906101000a900460ff1660ff1664e8d4a5100060405180602001604052806000815250610b83565b50565b606081518351146107cf576040517f08c379a00000000000000000000000000000000000000000000000000000000081526004016107c690612649565b60405180910390fd5b6000835167ffffffffffffffff8111156107ec576107eb611ce0565b5b60405190808252806020026020018201604052801561081a5781602001602082028036833780820191505090505b50905060005b84518110156108975761086785828151811061083f5761083e612669565b5b602002602001015185838151811061085a57610859612669565b5b60200260200101516102f5565b82828151811061087a57610879612669565b5b602002602001018181525050806108909061249d565b9050610820565b508091505092915050565b6108aa61105c565b6108b460006110da565b565b6000600360009054906101000a900473ffffffffffffffffffffffffffffffffffffffff16905090565b6108f26108eb610d33565b83836111a0565b5050565b6060600480548060200260200160405190810160405280929190818152602001828054801561094457602002820191906000526020600020905b815481526020019060010190808311610930575b5050505050905090565b6000600160008473ffffffffffffffffffffffffffffffffffffffff1673ffffffffffffffffffffffffffffffffffffffff16815260200190815260200160002060008373ffffffffffffffffffffffffffffffffffffffff1673ffffffffffffffffffffffffffffffffffffffff16815260200190815260200160002060009054906101000a900460ff16905092915050565b600560009054906101000a900460ff1681565b6109fd610d33565b73ffffffffffffffffffffffffffffffffffffffff168573ffffffffffffffffffffffffffffffffffffffff161480610a435750610a4285610a3d610d33565b61094e565b5b610a82576040517f08c379a0000000000000000000000000000000000000000000000000000000008152600401610a79906125b7565b60405180910390fd5b610a8f858585858561130c565b5050505050565b610a9e61105c565b600073ffffffffffffffffffffffffffffffffffffffff168173ffffffffffffffffffffffffffffffffffffffff1603610b0d576040517f08c379a0000000000000000000000000000000000000000000000000000000008152600401610b049061270a565b60405180910390fd5b610b16816110da565b50565b60007f01ffc9a7000000000000000000000000000000000000000000000000000000007bffffffffffffffffffffffffffffffffffffffffffffffffffffffff1916827bffffffffffffffffffffffffffffffffffffffffffffffffffffffff1916149050919050565b600073ffffffffffffffffffffffffffffffffffffffff168473ffffffffffffffffffffffffffffffffffffffff1603610bf2576040517f08c379a0000000000000000000000000000000000000000000000000000000008152600401610be99061279c565b60405180910390fd5b6000610bfc610d33565b90506000610c09856115a7565b90506000610c16856115a7565b9050610c2783600089858589611621565b8460008088815260200190815260200160002060008973ffffffffffffffffffffffffffffffffffffffff1673ffffffffffffffffffffffffffffffffffffffff1681526020019081526020016000206000828254610c869190612469565b925050819055508673ffffffffffffffffffffffffffffffffffffffff16600073ffffffffffffffffffffffffffffffffffffffff168473ffffffffffffffffffffffffffffffffffffffff167fc3d58168c5ae7397731d063d5bbf3d657854427343f4c083240f7aacaa2d0f628989604051610d049291906127bc565b60405180910390a4610d1b83600089858589611629565b610d2a83600089898989611631565b50505050505050565b600033905090565b8151835114610d7f576040517f08c379a0000000000000000000000000000000000000000000000000000000008152600401610d7690612857565b60405180910390fd5b600073ffffffffffffffffffffffffffffffffffffffff168473ffffffffffffffffffffffffffffffffffffffff1603610dee576040517f08c379a0000000000000000000000000000000000000000000000000000000008152600401610de5906128e9565b60405180910390fd5b6000610df8610d33565b9050610e08818787878787611621565b60005b8451811015610fb9576000858281518110610e2957610e28612669565b5b602002602001015190506000858381518110610e4857610e47612669565b5b60200260200101519050600080600084815260200190815260200160002060008b73ffffffffffffffffffffffffffffffffffffffff1673ffffffffffffffffffffffffffffffffffffffff16815260200190815260200160002054905081811015610ee9576040517f08c379a0000000000000000000000000000000000000000000000000000000008152600401610ee09061297b565b60405180910390fd5b81810360008085815260200190815260200160002060008c73ffffffffffffffffffffffffffffffffffffffff1673ffffffffffffffffffffffffffffffffffffffff168152602001908152602001600020819055508160008085815260200190815260200160002060008b73ffffffffffffffffffffffffffffffffffffffff1673ffffffffffffffffffffffffffffffffffffffff1681526020019081526020016000206000828254610f9e9190612469565b9250508190555050505080610fb29061249d565b9050610e0b565b508473ffffffffffffffffffffffffffffffffffffffff168673ffffffffffffffffffffffffffffffffffffffff168273ffffffffffffffffffffffffffffffffffffffff167f4a39dc06d4c0dbc64b70af90fd698a233a518aa5d07e595d983b8c0526c8f7fb878760405161103092919061299b565b60405180910390a4611046818787878787611629565b611054818787878787611808565b505050505050565b611064610d33565b73ffffffffffffffffffffffffffffffffffffffff166110826108b6565b73ffffffffffffffffffffffffffffffffffffffff16146110d8576040517f08c379a00000000000000000000000000000000000000000000000000000000081526004016110cf90612a1e565b60405180910390fd5b565b6000600360009054906101000a900473ffffffffffffffffffffffffffffffffffffffff16905081600360006101000a81548173ffffffffffffffffffffffffffffffffffffffff021916908373ffffffffffffffffffffffffffffffffffffffff1602179055508173ffffffffffffffffffffffffffffffffffffffff168173ffffffffffffffffffffffffffffffffffffffff167f8be0079c531659141344cd1fd0a4f28419497f9722a3daafe3b4186f6b6457e060405160405180910390a35050565b8173ffffffffffffffffffffffffffffffffffffffff168373ffffffffffffffffffffffffffffffffffffffff160361120e576040517f08c379a000000000000000000000000000000000000000000000000000000000815260040161120590612ab0565b60405180910390fd5b80600160008573ffffffffffffffffffffffffffffffffffffffff1673ffffffffffffffffffffffffffffffffffffffff16815260200190815260200160002060008473ffffffffffffffffffffffffffffffffffffffff1673ffffffffffffffffffffffffffffffffffffffff16815260200190815260200160002060006101000a81548160ff0219169083151502179055508173ffffffffffffffffffffffffffffffffffffffff168373ffffffffffffffffffffffffffffffffffffffff167f17307eab39ab6107e8899845ad3d59bd9653f200f220920489ca2b5937696c31836040516112ff9190611bb4565b60405180910390a3505050565b600073ffffffffffffffffffffffffffffffffffffffff168473ffffffffffffffffffffffffffffffffffffffff160361137b576040517f08c379a0000000000000000000000000000000000000000000000000000000008152600401611372906128e9565b60405180910390fd5b6000611385610d33565b90506000611392856115a7565b9050600061139f856115a7565b90506113af838989858589611621565b600080600088815260200190815260200160002060008a73ffffffffffffffffffffffffffffffffffffffff1673ffffffffffffffffffffffffffffffffffffffff16815260200190815260200160002054905085811015611446576040517f08c379a000000000000000000000000000000000000000000000000000000000815260040161143d9061297b565b60405180910390fd5b85810360008089815260200190815260200160002060008b73ffffffffffffffffffffffffffffffffffffffff1673ffffffffffffffffffffffffffffffffffffffff168152602001908152602001600020819055508560008089815260200190815260200160002060008a73ffffffffffffffffffffffffffffffffffffffff1673ffffffffffffffffffffffffffffffffffffffff16815260200190815260200160002060008282546114fb9190612469565b925050819055508773ffffffffffffffffffffffffffffffffffffffff168973ffffffffffffffffffffffffffffffffffffffff168573ffffffffffffffffffffffffffffffffffffffff167fc3d58168c5ae7397731d063d5bbf3d657854427343f4c083240f7aacaa2d0f628a8a6040516115789291906127bc565b60405180910390a461158e848a8a86868a611629565b61159c848a8a8a8a8a611631565b505050505050505050565b60606000600167ffffffffffffffff8111156115c6576115c5611ce0565b5b6040519080825280602002602001820160405280156115f45781602001602082028036833780820191505090505b509050828160008151811061160c5761160b612669565b5b60200260200101818152505080915050919050565b505050505050565b505050505050565b6116508473ffffffffffffffffffffffffffffffffffffffff166119df565b15611800578373ffffffffffffffffffffffffffffffffffffffff1663f23a6e6187878686866040518663ffffffff1660e01b8152600401611696959493929190612b25565b6020604051808303816000875af19250505080156116d257506040513d601f19601f820116820180604052508101906116cf9190612b94565b60015b611777576116de612bce565b806308c379a00361173a57506116f2612bf0565b806116fd575061173c565b806040517f08c379a00000000000000000000000000000000000000000000000000000000081526004016117319190611cb9565b60405180910390fd5b505b6040517f08c379a000000000000000000000000000000000000000000000000000000000815260040161176e90612cf2565b60405180910390fd5b63f23a6e6160e01b7bffffffffffffffffffffffffffffffffffffffffffffffffffffffff1916817bffffffffffffffffffffffffffffffffffffffffffffffffffffffff1916146117fe576040517f08c379a00000000000000000000000000000000000000000000000000000000081526004016117f590612d84565b60405180910390fd5b505b505050505050565b6118278473ffffffffffffffffffffffffffffffffffffffff166119df565b156119d7578373ffffffffffffffffffffffffffffffffffffffff1663bc197c8187878686866040518663ffffffff1660e01b815260040161186d959493929190612da4565b6020604051808303816000875af19250505080156118a957506040513d601f19601f820116820180604052508101906118a69190612b94565b60015b61194e576118b5612bce565b806308c379a00361191157506118c9612bf0565b806118d45750611913565b806040517f08c379a00000000000000000000000000000000000000000000000000000000081526004016119089190611cb9565b60405180910390fd5b505b6040517f08c379a000000000000000000000000000000000000000000000000000000000815260040161194590612cf2565b60405180910390fd5b63bc197c8160e01b7bffffffffffffffffffffffffffffffffffffffffffffffffffffffff1916817bffffffffffffffffffffffffffffffffffffffffffffffffffffffff1916146119d5576040517f08c379a00000000000000000000000000000000000000000000000000000000081526004016119cc90612d84565b60405180910390fd5b505b505050505050565b6000808273ffffffffffffffffffffffffffffffffffffffff163b119050919050565b6000604051905090565b600080fd5b600080fd5b600073ffffffffffffffffffffffffffffffffffffffff82169050919050565b6000611a4182611a16565b9050919050565b611a5181611a36565b8114611a5c57600080fd5b50565b600081359050611a6e81611a48565b92915050565b6000819050919050565b611a8781611a74565b8114611a9257600080fd5b50565b600081359050611aa481611a7e565b92915050565b60008060408385031215611ac157611ac0611a0c565b5b6000611acf85828601611a5f565b9250506020611ae085828601611a95565b9150509250929050565b611af381611a74565b82525050565b6000602082019050611b0e6000830184611aea565b92915050565b60007fffffffff0000000000000000000000000000000000000000000000000000000082169050919050565b611b4981611b14565b8114611b5457600080fd5b50565b600081359050611b6681611b40565b92915050565b600060208284031215611b8257611b81611a0c565b5b6000611b9084828501611b57565b91505092915050565b60008115159050919050565b611bae81611b99565b82525050565b6000602082019050611bc96000830184611ba5565b92915050565b600060208284031215611be557611be4611a0c565b5b6000611bf384828501611a5f565b91505092915050565b600060208284031215611c1257611c11611a0c565b5b6000611c2084828501611a95565b91505092915050565b600081519050919050565b600082825260208201905092915050565b60005b83811015611c63578082015181840152602081019050611c48565b60008484015250505050565b6000601f19601f8301169050919050565b6000611c8b82611c29565b611c958185611c34565b9350611ca5818560208601611c45565b611cae81611c6f565b840191505092915050565b60006020820190508181036000830152611cd38184611c80565b905092915050565b600080fd5b7f4e487b7100000000000000000000000000000000000000000000000000000000600052604160045260246000fd5b611d1882611c6f565b810181811067ffffffffffffffff82111715611d3757611d36611ce0565b5b80604052505050565b6000611d4a611a02565b9050611d568282611d0f565b919050565b600067ffffffffffffffff821115611d7657611d75611ce0565b5b602082029050602081019050919050565b600080fd5b6000611d9f611d9a84611d5b565b611d40565b90508083825260208201905060208402830185811115611dc257611dc1611d87565b5b835b81811015611deb5780611dd78882611a95565b845260208401935050602081019050611dc4565b5050509392505050565b600082601f830112611e0a57611e09611cdb565b5b8135611e1a848260208601611d8c565b91505092915050565b600080fd5b600067ffffffffffffffff821115611e4357611e42611ce0565b5b611e4c82611c6f565b9050602081019050919050565b82818337600083830152505050565b6000611e7b611e7684611e28565b611d40565b905082815260208101848484011115611e9757611e96611e23565b5b611ea2848285611e59565b509392505050565b600082601f830112611ebf57611ebe611cdb565b5b8135611ecf848260208601611e68565b91505092915050565b600080600080600060a08688031215611ef457611ef3611a0c565b5b6000611f0288828901611a5f565b9550506020611f1388828901611a5f565b945050604086013567ffffffffffffffff811115611f3457611f33611a11565b5b611f4088828901611df5565b935050606086013567ffffffffffffffff811115611f6157611f60611a11565b5b611f6d88828901611df5565b925050608086013567ffffffffffffffff811115611f8e57611f8d611a11565b5b611f9a88828901611eaa565b9150509295509295909350565b600067ffffffffffffffff821115611fc257611fc1611ce0565b5b602082029050602081019050919050565b6000611fe6611fe184611fa7565b611d40565b9050808382526020820190506020840283018581111561200957612008611d87565b5b835b81811015612032578061201e8882611a5f565b84526020840193505060208101905061200b565b5050509392505050565b600082601f83011261205157612050611cdb565b5b8135612061848260208601611fd3565b91505092915050565b6000806040838503121561208157612080611a0c565b5b600083013567ffffffffffffffff81111561209f5761209e611a11565b5b6120ab8582860161203c565b925050602083013567ffffffffffffffff8111156120cc576120cb611a11565b5b6120d885828601611df5565b9150509250929050565b600081519050919050565b600082825260208201905092915050565b6000819050602082019050919050565b61211781611a74565b82525050565b6000612129838361210e565b60208301905092915050565b6000602082019050919050565b600061214d826120e2565b61215781856120ed565b9350612162836120fe565b8060005b8381101561219357815161217a888261211d565b975061218583612135565b925050600181019050612166565b5085935050505092915050565b600060208201905081810360008301526121ba8184612142565b905092915050565b6121cb81611a36565b82525050565b60006020820190506121e660008301846121c2565b92915050565b6121f581611b99565b811461220057600080fd5b50565b600081359050612212816121ec565b92915050565b6000806040838503121561222f5761222e611a0c565b5b600061223d85828601611a5f565b925050602061224e85828601612203565b9150509250929050565b6000806040838503121561226f5761226e611a0c565b5b600061227d85828601611a5f565b925050602061228e85828601611a5f565b9150509250929050565b600060ff82169050919050565b6122ae81612298565b82525050565b60006020820190506122c960008301846122a5565b92915050565b600080600080600060a086880312156122eb576122ea611a0c565b5b60006122f988828901611a5f565b955050602061230a88828901611a5f565b945050604061231b88828901611a95565b935050606061232c88828901611a95565b925050608086013567ffffffffffffffff81111561234d5761234c611a11565b5b61235988828901611eaa565b9150509295509295909350565b7f455243313135353a2061646472657373207a65726f206973206e6f742061207660008201527f616c6964206f776e657200000000000000000000000000000000000000000000602082015250565b60006123c2602a83611c34565b91506123cd82612366565b604082019050919050565b600060208201905081810360008301526123f1816123b5565b9050919050565b7f4e487b7100000000000000000000000000000000000000000000000000000000600052601160045260246000fd5b600061243282611a74565b915061243d83611a74565b925082820261244b81611a74565b91508282048414831517612462576124616123f8565b5b5092915050565b600061247482611a74565b915061247f83611a74565b9250828201905080821115612497576124966123f8565b5b92915050565b60006124a882611a74565b91507fffffffffffffffffffffffffffffffffffffffffffffffffffffffffffffffff82036124da576124d96123f8565b5b600182019050919050565b7f4e487b7100000000000000000000000000000000000000000000000000000000600052602260045260246000fd5b6000600282049050600182168061252c57607f821691505b60208210810361253f5761253e6124e5565b5b50919050565b7f455243313135353a2063616c6c6572206973206e6f7420746f6b656e206f776e60008201527f6572206f7220617070726f766564000000000000000000000000000000000000602082015250565b60006125a1602e83611c34565b91506125ac82612545565b604082019050919050565b600060208201905081810360008301526125d081612594565b9050919050565b7f455243313135353a206163636f756e747320616e6420696473206c656e67746860008201527f206d69736d617463680000000000000000000000000000000000000000000000602082015250565b6000612633602983611c34565b915061263e826125d7565b604082019050919050565b6000602082019050818103600083015261266281612626565b9050919050565b7f4e487b7100000000000000000000000000000000000000000000000000000000600052603260045260246000fd5b7f4f776e61626c653a206e6577206f776e657220697320746865207a65726f206160008201527f6464726573730000000000000000000000000000000000000000000000000000602082015250565b60006126f4602683611c34565b91506126ff82612698565b604082019050919050565b60006020820190508181036000830152612723816126e7565b9050919050565b7f455243313135353a206d696e7420746f20746865207a65726f2061646472657360008201527f7300000000000000000000000000000000000000000000000000000000000000602082015250565b6000612786602183611c34565b91506127918261272a565b604082019050919050565b600060208201905081810360008301526127b581612779565b9050919050565b60006040820190506127d16000830185611aea565b6127de6020830184611aea565b9392505050565b7f455243313135353a2069647320616e6420616d6f756e7473206c656e6774682060008201527f6d69736d61746368000000000000000000000000000000000000000000000000602082015250565b6000612841602883611c34565b915061284c826127e5565b604082019050919050565b6000602082019050818103600083015261287081612834565b9050919050565b7f455243313135353a207472616e7366657220746f20746865207a65726f20616460008201527f6472657373000000000000000000000000000000000000000000000000000000602082015250565b60006128d3602583611c34565b91506128de82612877565b604082019050919050565b60006020820190508181036000830152612902816128c6565b9050919050565b7f455243313135353a20696e73756666696369656e742062616c616e636520666f60008201527f72207472616e7366657200000000000000000000000000000000000000000000602082015250565b6000612965602a83611c34565b915061297082612909565b604082019050919050565b6000602082019050818103600083015261299481612958565b9050919050565b600060408201905081810360008301526129b58185612142565b905081810360208301526129c98184612142565b90509392505050565b7f4f776e61626c653a2063616c6c6572206973206e6f7420746865206f776e6572600082015250565b6000612a08602083611c34565b9150612a13826129d2565b602082019050919050565b60006020820190508181036000830152612a37816129fb565b9050919050565b7f455243313135353a2073657474696e6720617070726f76616c2073746174757360008201527f20666f722073656c660000000000000000000000000000000000000000000000602082015250565b6000612a9a602983611c34565b9150612aa582612a3e565b604082019050919050565b60006020820190508181036000830152612ac981612a8d565b9050919050565b600081519050919050565b600082825260208201905092915050565b6000612af782612ad0565b612b018185612adb565b9350612b11818560208601611c45565b612b1a81611c6f565b840191505092915050565b600060a082019050612b3a60008301886121c2565b612b4760208301876121c2565b612b546040830186611aea565b612b616060830185611aea565b8181036080830152612b738184612aec565b90509695505050505050565b600081519050612b8e81611b40565b92915050565b600060208284031215612baa57612ba9611a0c565b5b6000612bb884828501612b7f565b91505092915050565b60008160e01c9050919050565b600060033d1115612bed5760046000803e612bea600051612bc1565b90505b90565b600060443d10612c7d57612c02611a02565b60043d036004823e80513d602482011167ffffffffffffffff82111715612c2a575050612c7d565b808201805167ffffffffffffffff811115612c485750505050612c7d565b80602083010160043d038501811115612c65575050505050612c7d565b612c7482602001850186611d0f565b82955050505050505b90565b7f455243313135353a207472616e7366657220746f206e6f6e2d4552433131353560008201527f526563656976657220696d706c656d656e746572000000000000000000000000602082015250565b6000612cdc603483611c34565b9150612ce782612c80565b604082019050919050565b60006020820190508181036000830152612d0b81612ccf565b9050919050565b7f455243313135353a204552433131353552656365697665722072656a6563746560008201527f6420746f6b656e73000000000000000000000000000000000000000000000000602082015250565b6000612d6e602883611c34565b9150612d7982612d12565b604082019050919050565b60006020820190508181036000830152612d9d81612d61565b9050919050565b600060a082019050612db960008301886121c2565b612dc660208301876121c2565b8181036040830152612dd88186612142565b90508181036060830152612dec8185612142565b90508181036080830152612e008184612aec565b9050969550505050505056fea2646970667358221220a964bc9bd5708954d8479a67212d73518b461c7e1cf3a28cc30549560e02e60764736f6c6343000812003368747470733a2f2f697066732e696f2f697066732f516d5469784e5a506f644c677264676a633248596d5255715252364856344a776e57535365675a6f6d76453345782f7b69647d2e6a736f6ea264697066735822122042d20379abea7a7db44269429b6e94abd66e4863ddafb3901b3a8d4d8a92565164736f6c63430008120033",
  "linkReferences": {},
  "deployedLinkReferences": {}
}