{
  "_format": "hh-sol-artifact-1",
  "contractName": "AuctionHouse",
  "sourceName": "contracts/AuctionHouse/AuctionHouse.sol",
  "abi": [
    {
      "inputs": [
        {
          "internalType": "address",
          "name": "_tokenAddress",
          "type": "address"
        }
      ],
      "stateMutability": "nonpayable",
      "type": "constructor"
    },
    {
      "anonymous": false,
      "inputs": [],
      "name": "ItemCanceledSuccess",
      "type": "event"
    },
    {
      "anonymous": false,
      "inputs": [
        {
          "indexed": true,
          "internalType": "uint256",
          "name": "itemId",
          "type": "uint256"
        },
        {
          "indexed": false,
          "internalType": "address",
          "name": "seller",
          "type": "address"
        },
        {
          "indexed": false,
          "internalType": "uint256",
          "name": "price",
          "type": "uint256"
        }
      ],
      "name": "ItemListedSuccess",
      "type": "event"
    },
    {
      "anonymous": false,
      "inputs": [
        {
          "indexed": true,
          "internalType": "uint256",
          "name": "itemId",
          "type": "uint256"
        },
        {
          "indexed": false,
          "internalType": "address",
          "name": "seller",
          "type": "address"
        },
        {
          "indexed": false,
          "internalType": "address",
          "name": "buyer",
          "type": "address"
        },
        {
          "indexed": false,
          "internalType": "uint256",
          "name": "price",
          "type": "uint256"
        }
      ],
      "name": "ItemSoldSuccess",
      "type": "event"
    },
    {
      "anonymous": false,
      "inputs": [
        {
          "indexed": true,
          "internalType": "address",
          "name": "previousOwner",
          "type": "address"
        },
        {
          "indexed": true,
          "internalType": "address",
          "name": "newOwner",
          "type": "address"
        }
      ],
      "name": "OwnershipTransferred",
      "type": "event"
    },
    {
      "inputs": [],
      "name": "auctionHouseFunds",
      "outputs": [
        {
          "internalType": "uint256",
          "name": "",
          "type": "uint256"
        }
      ],
      "stateMutability": "view",
      "type": "function"
    },
    {
      "inputs": [
        {
          "internalType": "uint256",
          "name": "marketplaceId",
          "type": "uint256"
        }
      ],
      "name": "cancelSale",
      "outputs": [],
      "stateMutability": "nonpayable",
      "type": "function"
    },
    {
      "inputs": [
        {
          "internalType": "uint256",
          "name": "listedItemId",
          "type": "uint256"
        }
      ],
      "name": "executeSale",
      "outputs": [],
      "stateMutability": "payable",
      "type": "function"
    },
    {
      "inputs": [],
      "name": "getListedItems",
      "outputs": [
        {
          "components": [
            {
              "internalType": "uint256",
              "name": "listedItemId",
              "type": "uint256"
            },
            {
              "internalType": "uint256",
              "name": "itemId",
              "type": "uint256"
            },
            {
              "internalType": "address payable",
              "name": "seller",
              "type": "address"
            },
            {
              "internalType": "address",
              "name": "buyer",
              "type": "address"
            },
            {
              "internalType": "uint256",
              "name": "price",
              "type": "uint256"
            },
            {
              "internalType": "bool",
              "name": "isSold",
              "type": "bool"
            }
          ],
          "internalType": "struct AuctionHouse.ListedItem[]",
          "name": "",
          "type": "tuple[]"
        }
      ],
      "stateMutability": "view",
      "type": "function"
    },
    {
      "inputs": [],
      "name": "getlistingFee",
      "outputs": [
        {
          "internalType": "uint256",
          "name": "",
          "type": "uint256"
        }
      ],
      "stateMutability": "view",
      "type": "function"
    },
    {
      "inputs": [
        {
          "internalType": "uint256",
          "name": "itemId",
          "type": "uint256"
        },
        {
          "internalType": "uint256",
          "name": "sellingPrice",
          "type": "uint256"
        }
      ],
      "name": "listItem",
      "outputs": [],
      "stateMutability": "payable",
      "type": "function"
    },
    {
      "inputs": [
        {
          "internalType": "uint256",
          "name": "",
          "type": "uint256"
        }
      ],
      "name": "listedItems",
      "outputs": [
        {
          "internalType": "uint256",
          "name": "listedItemId",
          "type": "uint256"
        },
        {
          "internalType": "uint256",
          "name": "itemId",
          "type": "uint256"
        },
        {
          "internalType": "address payable",
          "name": "seller",
          "type": "address"
        },
        {
          "internalType": "address",
          "name": "buyer",
          "type": "address"
        },
        {
          "internalType": "uint256",
          "name": "price",
          "type": "uint256"
        },
        {
          "internalType": "bool",
          "name": "isSold",
          "type": "bool"
        }
      ],
      "stateMutability": "view",
      "type": "function"
    },
    {
      "inputs": [],
      "name": "listedItemsCount",
      "outputs": [
        {
          "internalType": "uint256",
          "name": "_value",
          "type": "uint256"
        }
      ],
      "stateMutability": "view",
      "type": "function"
    },
    {
      "inputs": [],
      "name": "listingFee",
      "outputs": [
        {
          "internalType": "uint256",
          "name": "",
          "type": "uint256"
        }
      ],
      "stateMutability": "view",
      "type": "function"
    },
    {
      "inputs": [
        {
          "internalType": "address",
          "name": "",
          "type": "address"
        },
        {
          "internalType": "address",
          "name": "",
          "type": "address"
        },
        {
          "internalType": "uint256[]",
          "name": "",
          "type": "uint256[]"
        },
        {
          "internalType": "uint256[]",
          "name": "",
          "type": "uint256[]"
        },
        {
          "internalType": "bytes",
          "name": "",
          "type": "bytes"
        }
      ],
      "name": "onERC1155BatchReceived",
      "outputs": [
        {
          "internalType": "bytes4",
          "name": "",
          "type": "bytes4"
        }
      ],
      "stateMutability": "nonpayable",
      "type": "function"
    },
    {
      "inputs": [
        {
          "internalType": "address",
          "name": "",
          "type": "address"
        },
        {
          "internalType": "address",
          "name": "",
          "type": "address"
        },
        {
          "internalType": "uint256",
          "name": "",
          "type": "uint256"
        },
        {
          "internalType": "uint256",
          "name": "",
          "type": "uint256"
        },
        {
          "internalType": "bytes",
          "name": "",
          "type": "bytes"
        }
      ],
      "name": "onERC1155Received",
      "outputs": [
        {
          "internalType": "bytes4",
          "name": "",
          "type": "bytes4"
        }
      ],
      "stateMutability": "nonpayable",
      "type": "function"
    },
    {
      "inputs": [],
      "name": "owner",
      "outputs": [
        {
          "internalType": "address",
          "name": "",
          "type": "address"
        }
      ],
      "stateMutability": "view",
      "type": "function"
    },
    {
      "inputs": [],
      "name": "renounceOwnership",
      "outputs": [],
      "stateMutability": "nonpayable",
      "type": "function"
    },
    {
      "inputs": [
        {
          "internalType": "bytes4",
          "name": "interfaceId",
          "type": "bytes4"
        }
      ],
      "name": "supportsInterface",
      "outputs": [
        {
          "internalType": "bool",
          "name": "",
          "type": "bool"
        }
      ],
      "stateMutability": "view",
      "type": "function"
    },
    {
      "inputs": [],
      "name": "tokenAddress",
      "outputs": [
        {
          "internalType": "address",
          "name": "",
          "type": "address"
        }
      ],
      "stateMutability": "view",
      "type": "function"
    },
    {
      "inputs": [
        {
          "internalType": "address",
          "name": "newOwner",
          "type": "address"
        }
      ],
      "name": "transferOwnership",
      "outputs": [],
      "stateMutability": "nonpayable",
      "type": "function"
    },
    {
      "inputs": [
        {
          "internalType": "uint256",
          "name": "newListingFee",
          "type": "uint256"
        }
      ],
      "name": "updatelistingFee",
      "outputs": [],
      "stateMutability": "payable",
      "type": "function"
    }
  ],
  "bytecode": "0x6080604052662386f26fc100006003553480156200001c57600080fd5b50604051620035ed380380620035ed833981810160405281019062000042919062000222565b6200006262000056620000e960201b60201c565b620000f160201b60201c565b600180819055506200008567ac72b7ea6676076160c01b620001b560201b60201c565b620000a167bf1e267db7db9ba760c01b620001b560201b60201c565b80600460006101000a81548173ffffffffffffffffffffffffffffffffffffffff021916908373ffffffffffffffffffffffffffffffffffffffff1602179055505062000254565b600033905090565b60008060009054906101000a900473ffffffffffffffffffffffffffffffffffffffff169050816000806101000a81548173ffffffffffffffffffffffffffffffffffffffff021916908373ffffffffffffffffffffffffffffffffffffffff1602179055508173ffffffffffffffffffffffffffffffffffffffff168173ffffffffffffffffffffffffffffffffffffffff167f8be0079c531659141344cd1fd0a4f28419497f9722a3daafe3b4186f6b6457e060405160405180910390a35050565b50565b600080fd5b600073ffffffffffffffffffffffffffffffffffffffff82169050919050565b6000620001ea82620001bd565b9050919050565b620001fc81620001dd565b81146200020857600080fd5b50565b6000815190506200021c81620001f1565b92915050565b6000602082840312156200023b576200023a620001b8565b5b60006200024b848285016200020b565b91505092915050565b61338980620002646000396000f3fe6080604052600436106100fe5760003560e01c8063bc197c8111610095578063ccb4918d11610064578063ccb4918d146102e8578063cdaf072414610313578063d23470611461033e578063f23a6e6114610380578063f2fde38b146103bd576100fe565b8063bc197c811461022c578063bd94b00514610269578063c1fec9e414610292578063caf50690146102bd576100fe565b8063883efa67116100d1578063883efa671461019e5780638da5cb5b146101ba5780639b1225c4146101e55780639d76ea5814610201576100fe565b806301ffc9a71461010357806342444ed4146101405780636a1b7ecc1461015c578063715018a614610187575b600080fd5b34801561010f57600080fd5b5061012a600480360381019061012591906122d7565b6103e6565b604051610137919061231f565b60405180910390f35b61015a60048036038101906101559190612370565b610460565b005b34801561016857600080fd5b5061017161058d565b60405161017e91906123ac565b60405180910390f35b34801561019357600080fd5b5061019c610593565b005b6101b860048036038101906101b391906123c7565b6105a7565b005b3480156101c657600080fd5b506101cf610b75565b6040516101dc9190612448565b60405180910390f35b6101ff60048036038101906101fa9190612370565b610b9e565b005b34801561020d57600080fd5b50610216611440565b6040516102239190612448565b60405180910390f35b34801561023857600080fd5b50610253600480360381019061024e919061269d565b611466565b604051610260919061277b565b60405180910390f35b34801561027557600080fd5b50610290600480360381019061028b9190612370565b61147b565b005b34801561029e57600080fd5b506102a7611cd3565b6040516102b491906123ac565b60405180910390f35b3480156102c957600080fd5b506102d2611cd9565b6040516102df919061290e565b60405180910390f35b3480156102f457600080fd5b506102fd611e59565b60405161030a91906123ac565b60405180910390f35b34801561031f57600080fd5b50610328611e65565b60405161033591906123ac565b60405180910390f35b34801561034a57600080fd5b5061036560048036038101906103609190612370565b611eab565b6040516103779695949392919061293f565b60405180910390f35b34801561038c57600080fd5b506103a760048036038101906103a291906129a0565b611f44565b6040516103b4919061277b565b60405180910390f35b3480156103c957600080fd5b506103e460048036038101906103df9190612a37565b611f59565b005b60007f4e2312e0000000000000000000000000000000000000000000000000000000007bffffffffffffffffffffffffffffffffffffffffffffffffffffffff1916827bffffffffffffffffffffffffffffffffffffffffffffffffffffffff19161480610459575061045882611fdc565b5b9050919050565b61047467a8aef7c3b0309dc860c01b612046565b61047c612049565b6104906785699db21d7573b960c01b612046565b6104a46737c9b0c1e319a61660c01b612046565b6104ac6120c7565b6104c06743f0d2bee9562f6e60c01b612046565b6104d4675d116c446a7afb4c60c01b612046565b6104e8678a93f5749814429d60c01b612046565b6104fc67249126514f32ca0260c01b612046565b6105106708de380b0c80eb0260c01b612046565b60008111610553576040517f08c379a000000000000000000000000000000000000000000000000000000000815260040161054a90612ac1565b60405180910390fd5b6105676726601004ce34b07a60c01b612046565b61057b678c0e585e871d254e60c01b612046565b8060038190555061058a612116565b50565b60035481565b61059b612049565b6105a5600061211f565b565b6105bb67f372903e532be78960c01b612046565b6105c36120c7565b6105d767c1c95812e497d00e60c01b612046565b6105eb673b40afcc7d58911760c01b612046565b6105ff6737527b9a68edf68c60c01b612046565b61061367678caa98906e566360c01b612046565b610627679a8cb2b46805ea1460c01b612046565b600354341461066b576040517f08c379a000000000000000000000000000000000000000000000000000000000815260040161066290612b2d565b60405180910390fd5b61067f67bb8edd8356bdbab460c01b612046565b61069367fc8671cc7017c02e60c01b612046565b6106a76742a3e4d28f93bd3a60c01b612046565b6106bb6709e2edca547b58ef60c01b612046565b600081116106fe576040517f08c379a00000000000000000000000000000000000000000000000000000000081526004016106f590612bbf565b60405180910390fd5b61071267c91555ce280984f260c01b612046565b610726676429579681cf846160c01b612046565b61073a673166a2d7816c3cec60c01b612046565b600061074660066121e3565b905061075c6748f1ee5d14adf40f60c01b612046565b61077067c6996442de7a3c9660c01b612046565b60006040518060c001604052808381526020018581526020013373ffffffffffffffffffffffffffffffffffffffff168152602001600073ffffffffffffffffffffffffffffffffffffffff1681526020018481526020016000151581525090506107e567503a9ba5df42cc9660c01b612046565b34600260008282546107f79190612c0e565b92505081905550610812677ab29aec339fc5f760c01b612046565b8060076000848152602001908152602001600020600082015181600001556020820151816001015560408201518160020160006101000a81548173ffffffffffffffffffffffffffffffffffffffff021916908373ffffffffffffffffffffffffffffffffffffffff16021790555060608201518160030160006101000a81548173ffffffffffffffffffffffffffffffffffffffff021916908373ffffffffffffffffffffffffffffffffffffffff1602179055506080820151816004015560a08201518160050160006101000a81548160ff02191690831515021790555090505061090967bbe49eac27da052460c01b612046565b61091d67b33f70d657619ce060c01b612046565b6008819080600181540180825580915050600190039060005260206000209060060201600090919091909150600082015181600001556020820151816001015560408201518160020160006101000a81548173ffffffffffffffffffffffffffffffffffffffff021916908373ffffffffffffffffffffffffffffffffffffffff16021790555060608201518160030160006101000a81548173ffffffffffffffffffffffffffffffffffffffff021916908373ffffffffffffffffffffffffffffffffffffffff1602179055506080820151816004015560a08201518160050160006101000a81548160ff0219169083151502179055505050610a2b676d76aa2aaaac502160c01b612046565b610a3f6720cffda73ecd2ebc60c01b612046565b600460009054906101000a900473ffffffffffffffffffffffffffffffffffffffff1673ffffffffffffffffffffffffffffffffffffffff1663f242432a33308760016040518563ffffffff1660e01b8152600401610aa19493929190612ce4565b600060405180830381600087803b158015610abb57600080fd5b505af1158015610acf573d6000803e3d6000fd5b50505050610ae767a4e4b7bd10ac3b5f60c01b612046565b610afb67654371de907404a760c01b612046565b610b0560066121f1565b610b196798aab7a3526ec88260c01b612046565b610b2d676fdf04e49f5e586360c01b612046565b837fd31b349e5e268b6e7a8cc3b703e827bb3854e2763ec42a7300faf5d9c3e9c3f63385604051610b5f929190612d3c565b60405180910390a25050610b71612116565b5050565b60008060009054906101000a900473ffffffffffffffffffffffffffffffffffffffff16905090565b610bb267f37ac63ae5b4d66860c01b612046565b610bba6120c7565b610bce67893b4ccadede6df260c01b612046565b610be267b39b0145228d6cba60c01b612046565b610bf667e91995aa5ab09c8660c01b612046565b610c0a672cbea28af206855860c01b612046565b600060076000838152602001908152602001600020600401549050610c39672fd17d419326bae360c01b612046565b610c4d67313782cc0074858060c01b612046565b60006007600084815260200190815260200160002060020160009054906101000a900473ffffffffffffffffffffffffffffffffffffffff169050610c9c675be03794b4be003860c01b612046565b610cb0679a3d6e9a8c4e76a860c01b612046565b610cc467c8c7d1285bf70ec860c01b612046565b813414610d06576040517f08c379a0000000000000000000000000000000000000000000000000000000008152600401610cfd90612dd7565b60405180910390fd5b610d1a676e4d3dd28f16898e60c01b612046565b610d2e67e9964c02caa2137160c01b612046565b610d4267d83375511e735df660c01b612046565b610d5667188ceb6bd57471dc60c01b612046565b3373ffffffffffffffffffffffffffffffffffffffff168173ffffffffffffffffffffffffffffffffffffffff1603610dc4576040517f08c379a0000000000000000000000000000000000000000000000000000000008152600401610dbb90612e43565b60405180910390fd5b610dd867fd36a5fbf990f69660c01b612046565b610dec673cd629079da473ea60c01b612046565b610e006723a408c595b33bb760c01b612046565b6000600760008581526020019081526020016000206040518060c001604052908160008201548152602001600182015481526020016002820160009054906101000a900473ffffffffffffffffffffffffffffffffffffffff1673ffffffffffffffffffffffffffffffffffffffff1673ffffffffffffffffffffffffffffffffffffffff1681526020016003820160009054906101000a900473ffffffffffffffffffffffffffffffffffffffff1673ffffffffffffffffffffffffffffffffffffffff1673ffffffffffffffffffffffffffffffffffffffff168152602001600482015481526020016005820160009054906101000a900460ff1615151515815250509050610f1b677d42e7b387c0205060c01b612046565b33816060019073ffffffffffffffffffffffffffffffffffffffff16908173ffffffffffffffffffffffffffffffffffffffff1681525050610f676796ff144208857fb760c01b612046565b60018160a0019015159081151581525050610f8c67920d37e60228091760c01b612046565b8060088581548110610fa157610fa0612e63565b5b9060005260206000209060060201600082015181600001556020820151816001015560408201518160020160006101000a81548173ffffffffffffffffffffffffffffffffffffffff021916908373ffffffffffffffffffffffffffffffffffffffff16021790555060608201518160030160006101000a81548173ffffffffffffffffffffffffffffffffffffffff021916908373ffffffffffffffffffffffffffffffffffffffff1602179055506080820151816004015560a08201518160050160006101000a81548160ff02191690831515021790555090505061109267475c9a87ae14ce2560c01b612046565b8060076000868152602001908152602001600020600082015181600001556020820151816001015560408201518160020160006101000a81548173ffffffffffffffffffffffffffffffffffffffff021916908373ffffffffffffffffffffffffffffffffffffffff16021790555060608201518160030160006101000a81548173ffffffffffffffffffffffffffffffffffffffff021916908373ffffffffffffffffffffffffffffffffffffffff1602179055506080820151816004015560a08201518160050160006101000a81548160ff021916908315150217905550905050611189671c9d293df63d0c3b60c01b612046565b61119d676dd69739d924d4a060c01b612046565b6111a760056121f1565b6111bb67b3682681e7ebcbcf60c01b612046565b6111cf67d8d8700f5cc1dd1460c01b612046565b600460009054906101000a900473ffffffffffffffffffffffffffffffffffffffff1673ffffffffffffffffffffffffffffffffffffffff1663f242432a3033846020015160016040518563ffffffff1660e01b81526004016112359493929190612ce4565b600060405180830381600087803b15801561124f57600080fd5b505af1158015611263573d6000803e3d6000fd5b5050505061127b67c068028cc65c377160c01b612046565b61128f671c13556bcdb89aa660c01b612046565b60006007600086815260200190815260200160002060020160009054906101000a900473ffffffffffffffffffffffffffffffffffffffff1673ffffffffffffffffffffffffffffffffffffffff16346040516112eb90612ec3565b60006040518083038185875af1925050503d8060008114611328576040519150601f19603f3d011682016040523d82523d6000602084013e61132d565b606091505b5050905061134567b7a03100c64401c560c01b612046565b61135967fe4df35d95c61bcb60c01b612046565b61136d6797e46571a247f7db60c01b612046565b806113ad576040517f08c379a00000000000000000000000000000000000000000000000000000000081526004016113a490612f4a565b60405180910390fd5b6113c1679d6a1e860f02129960c01b612046565b6113d567ae9e47c968efc9cc60c01b612046565b6113e967e4c311fe7ae9c7d060c01b612046565b81602001517fec7b3e53b13d8aed24b32d71dabfb6afd1ee879d5c762345fb58ef82ce95cf8a836040015133856080015160405161142993929190612fbf565b60405180910390a25050505061143d612116565b50565b600460009054906101000a900473ffffffffffffffffffffffffffffffffffffffff1681565b600063bc197c8160e01b905095945050505050565b61148f672a9c8b7f90d330bf60c01b612046565b6114a367d474424093b044b060c01b612046565b6114b767c55038a93041441460c01b612046565b6000600760008381526020019081526020016000206040518060c001604052908160008201548152602001600182015481526020016002820160009054906101000a900473ffffffffffffffffffffffffffffffffffffffff1673ffffffffffffffffffffffffffffffffffffffff1673ffffffffffffffffffffffffffffffffffffffff1681526020016003820160009054906101000a900473ffffffffffffffffffffffffffffffffffffffff1673ffffffffffffffffffffffffffffffffffffffff1673ffffffffffffffffffffffffffffffffffffffff168152602001600482015481526020016005820160009054906101000a900460ff16151515158152505090506115d267c25321c98263671860c01b612046565b6115e667e3c299415468fdf360c01b612046565b6115fa67963fff0707e2b39060c01b612046565b6000816020015103611641576040517f08c379a000000000000000000000000000000000000000000000000000000000815260040161163890613068565b60405180910390fd5b61165567044c4d3c79a7304660c01b612046565b611669675aa03b17421cdcee60c01b612046565b61167d67d1add47cfffa619d60c01b612046565b611691671540a1c9ad8dbda460c01b612046565b3373ffffffffffffffffffffffffffffffffffffffff16816040015173ffffffffffffffffffffffffffffffffffffffff1614611703576040517f08c379a00000000000000000000000000000000000000000000000000000000081526004016116fa906130fa565b60405180910390fd5b6117176791dfc2a3df2d166160c01b612046565b61172b67deb4337e54a8d6d660c01b612046565b61173f678d0db108138da5dd60c01b612046565b600460009054906101000a900473ffffffffffffffffffffffffffffffffffffffff1673ffffffffffffffffffffffffffffffffffffffff1663f242432a3033846020015160016040518563ffffffff1660e01b81526004016117a59493929190612ce4565b600060405180830381600087803b1580156117bf57600080fd5b505af11580156117d3573d6000803e3d6000fd5b505050506117eb67a1d7814d8c25022960c01b612046565b6117ff672380c23a018fd0eb60c01b612046565b600061180b60066121e3565b905061182167c95fbb8185d6117c60c01b612046565b61183567c730e59491fa7ab760c01b612046565b6001811115611b665761185267db22f556d368ce8f60c01b612046565b611866672b7311428f244fc960c01b612046565b61187a67e15ee0bd0404554b60c01b612046565b6000600860018361188b919061311a565b8154811061189c5761189b612e63565b5b906000526020600020906006020190506118c067b227b15ecb86c41260c01b612046565b8381600001819055506118dd673923893276144e6a60c01b612046565b806007600086815260200190815260200160002060008201548160000155600182015481600101556002820160009054906101000a900473ffffffffffffffffffffffffffffffffffffffff168160020160006101000a81548173ffffffffffffffffffffffffffffffffffffffff021916908373ffffffffffffffffffffffffffffffffffffffff1602179055506003820160009054906101000a900473ffffffffffffffffffffffffffffffffffffffff168160030160006101000a81548173ffffffffffffffffffffffffffffffffffffffff021916908373ffffffffffffffffffffffffffffffffffffffff160217905550600482015481600401556005820160009054906101000a900460ff168160050160006101000a81548160ff021916908315150217905550905050611a2167b83163b86634efe460c01b612046565b8060088581548110611a3657611a35612e63565b5b906000526020600020906006020160008201548160000155600182015481600101556002820160009054906101000a900473ffffffffffffffffffffffffffffffffffffffff168160020160006101000a81548173ffffffffffffffffffffffffffffffffffffffff021916908373ffffffffffffffffffffffffffffffffffffffff1602179055506003820160009054906101000a900473ffffffffffffffffffffffffffffffffffffffff168160030160006101000a81548173ffffffffffffffffffffffffffffffffffffffff021916908373ffffffffffffffffffffffffffffffffffffffff160217905550600482015481600401556005820160009054906101000a900460ff168160050160006101000a81548160ff02191690831515021790555090505050611b7b565b611b7a675139e85e043818f160c01b612046565b5b611b8f67320ab80a3eab497360c01b612046565b611ba36722e02d61e98a87d760c01b612046565b6008805480611bb557611bb461314e565b5b600190038181906000526020600020906006020160008082016000905560018201600090556002820160006101000a81549073ffffffffffffffffffffffffffffffffffffffff02191690556003820160006101000a81549073ffffffffffffffffffffffffffffffffffffffff021916905560048201600090556005820160006101000a81549060ff021916905550509055611c5c67250b88bd549cec0860c01b612046565b611c70676ebc68228fbeca0f60c01b612046565b611c7a6006612207565b611c8e67556a3fe219d5c65360c01b612046565b611ca267ee8e0c3660ed7b2860c01b612046565b7f283a04f61781e055ec52ded2e9384e6b26de77267210dd081e76092d2410def160405160405180910390a1505050565b60025481565b6060611cef67245b9b767791a5cd60c01b612046565b611d0367aa9b37a1c06937ee60c01b612046565b611d1767019e935b818d96c860c01b612046565b6008805480602002602001604051908101604052809291908181526020016000905b82821015611e5057838290600052602060002090600602016040518060c001604052908160008201548152602001600182015481526020016002820160009054906101000a900473ffffffffffffffffffffffffffffffffffffffff1673ffffffffffffffffffffffffffffffffffffffff1673ffffffffffffffffffffffffffffffffffffffff1681526020016003820160009054906101000a900473ffffffffffffffffffffffffffffffffffffffff1673ffffffffffffffffffffffffffffffffffffffff1673ffffffffffffffffffffffffffffffffffffffff168152602001600482015481526020016005820160009054906101000a900460ff16151515158152505081526020019060010190611d39565b50505050905090565b60068060000154905081565b6000611e7b6736511722157dff7460c01b612046565b611e8f673a7a43d9393879b360c01b612046565b611ea3671d81808eed6d128d60c01b612046565b600354905090565b60088181548110611ebb57600080fd5b90600052602060002090600602016000915090508060000154908060010154908060020160009054906101000a900473ffffffffffffffffffffffffffffffffffffffff16908060030160009054906101000a900473ffffffffffffffffffffffffffffffffffffffff16908060040154908060050160009054906101000a900460ff16905086565b600063f23a6e6160e01b905095945050505050565b611f61612049565b600073ffffffffffffffffffffffffffffffffffffffff168173ffffffffffffffffffffffffffffffffffffffff1603611fd0576040517f08c379a0000000000000000000000000000000000000000000000000000000008152600401611fc7906131ef565b60405180910390fd5b611fd98161211f565b50565b60007f01ffc9a7000000000000000000000000000000000000000000000000000000007bffffffffffffffffffffffffffffffffffffffffffffffffffffffff1916827bffffffffffffffffffffffffffffffffffffffffffffffffffffffff1916149050919050565b50565b612051612263565b73ffffffffffffffffffffffffffffffffffffffff1661206f610b75565b73ffffffffffffffffffffffffffffffffffffffff16146120c5576040517f08c379a00000000000000000000000000000000000000000000000000000000081526004016120bc9061325b565b60405180910390fd5b565b60026001540361210c576040517f08c379a0000000000000000000000000000000000000000000000000000000008152600401612103906132c7565b60405180910390fd5b6002600181905550565b60018081905550565b60008060009054906101000a900473ffffffffffffffffffffffffffffffffffffffff169050816000806101000a81548173ffffffffffffffffffffffffffffffffffffffff021916908373ffffffffffffffffffffffffffffffffffffffff1602179055508173ffffffffffffffffffffffffffffffffffffffff168173ffffffffffffffffffffffffffffffffffffffff167f8be0079c531659141344cd1fd0a4f28419497f9722a3daafe3b4186f6b6457e060405160405180910390a35050565b600081600001549050919050565b6001816000016000828254019250508190555050565b60008160000154905060008111612253576040517f08c379a000000000000000000000000000000000000000000000000000000000815260040161224a90613333565b60405180910390fd5b6001810382600001819055505050565b600033905090565b6000604051905090565b600080fd5b600080fd5b60007fffffffff0000000000000000000000000000000000000000000000000000000082169050919050565b6122b48161227f565b81146122bf57600080fd5b50565b6000813590506122d1816122ab565b92915050565b6000602082840312156122ed576122ec612275565b5b60006122fb848285016122c2565b91505092915050565b60008115159050919050565b61231981612304565b82525050565b60006020820190506123346000830184612310565b92915050565b6000819050919050565b61234d8161233a565b811461235857600080fd5b50565b60008135905061236a81612344565b92915050565b60006020828403121561238657612385612275565b5b60006123948482850161235b565b91505092915050565b6123a68161233a565b82525050565b60006020820190506123c1600083018461239d565b92915050565b600080604083850312156123de576123dd612275565b5b60006123ec8582860161235b565b92505060206123fd8582860161235b565b9150509250929050565b600073ffffffffffffffffffffffffffffffffffffffff82169050919050565b600061243282612407565b9050919050565b61244281612427565b82525050565b600060208201905061245d6000830184612439565b92915050565b61246c81612427565b811461247757600080fd5b50565b60008135905061248981612463565b92915050565b600080fd5b6000601f19601f8301169050919050565b7f4e487b7100000000000000000000000000000000000000000000000000000000600052604160045260246000fd5b6124dd82612494565b810181811067ffffffffffffffff821117156124fc576124fb6124a5565b5b80604052505050565b600061250f61226b565b905061251b82826124d4565b919050565b600067ffffffffffffffff82111561253b5761253a6124a5565b5b602082029050602081019050919050565b600080fd5b600061256461255f84612520565b612505565b905080838252602082019050602084028301858111156125875761258661254c565b5b835b818110156125b0578061259c888261235b565b845260208401935050602081019050612589565b5050509392505050565b600082601f8301126125cf576125ce61248f565b5b81356125df848260208601612551565b91505092915050565b600080fd5b600067ffffffffffffffff821115612608576126076124a5565b5b61261182612494565b9050602081019050919050565b82818337600083830152505050565b600061264061263b846125ed565b612505565b90508281526020810184848401111561265c5761265b6125e8565b5b61266784828561261e565b509392505050565b600082601f8301126126845761268361248f565b5b813561269484826020860161262d565b91505092915050565b600080600080600060a086880312156126b9576126b8612275565b5b60006126c78882890161247a565b95505060206126d88882890161247a565b945050604086013567ffffffffffffffff8111156126f9576126f861227a565b5b612705888289016125ba565b935050606086013567ffffffffffffffff8111156127265761272561227a565b5b612732888289016125ba565b925050608086013567ffffffffffffffff8111156127535761275261227a565b5b61275f8882890161266f565b9150509295509295909350565b6127758161227f565b82525050565b6000602082019050612790600083018461276c565b92915050565b600081519050919050565b600082825260208201905092915050565b6000819050602082019050919050565b6127cb8161233a565b82525050565b60006127dc82612407565b9050919050565b6127ec816127d1565b82525050565b6127fb81612427565b82525050565b61280a81612304565b82525050565b60c08201600082015161282660008501826127c2565b50602082015161283960208501826127c2565b50604082015161284c60408501826127e3565b50606082015161285f60608501826127f2565b50608082015161287260808501826127c2565b5060a082015161288560a0850182612801565b50505050565b60006128978383612810565b60c08301905092915050565b6000602082019050919050565b60006128bb82612796565b6128c581856127a1565b93506128d0836127b2565b8060005b838110156129015781516128e8888261288b565b97506128f3836128a3565b9250506001810190506128d4565b5085935050505092915050565b6000602082019050818103600083015261292881846128b0565b905092915050565b612939816127d1565b82525050565b600060c082019050612954600083018961239d565b612961602083018861239d565b61296e6040830187612930565b61297b6060830186612439565b612988608083018561239d565b61299560a0830184612310565b979650505050505050565b600080600080600060a086880312156129bc576129bb612275565b5b60006129ca8882890161247a565b95505060206129db8882890161247a565b94505060406129ec8882890161235b565b93505060606129fd8882890161235b565b925050608086013567ffffffffffffffff811115612a1e57612a1d61227a565b5b612a2a8882890161266f565b9150509295509295909350565b600060208284031215612a4d57612a4c612275565b5b6000612a5b8482850161247a565b91505092915050565b600082825260208201905092915050565b7f4e6577206c697374696e67206665652063616e6e6f7420626520300000000000600082015250565b6000612aab601b83612a64565b9150612ab682612a75565b602082019050919050565b60006020820190508181036000830152612ada81612a9e565b9050919050565b7f596f75206e65656420746f20706179206c697374696e67206665657300000000600082015250565b6000612b17601c83612a64565b9150612b2282612ae1565b602082019050919050565b60006020820190508181036000830152612b4681612b0a565b9050919050565b7f596f75206e65656420746f2073706563696679206120636f727265637420707260008201527f6963650000000000000000000000000000000000000000000000000000000000602082015250565b6000612ba9602383612a64565b9150612bb482612b4d565b604082019050919050565b60006020820190508181036000830152612bd881612b9c565b9050919050565b7f4e487b7100000000000000000000000000000000000000000000000000000000600052601160045260246000fd5b6000612c198261233a565b9150612c248361233a565b9250828201905080821115612c3c57612c3b612bdf565b5b92915050565b6000819050919050565b6000819050919050565b6000612c71612c6c612c6784612c42565b612c4c565b61233a565b9050919050565b612c8181612c56565b82525050565b600082825260208201905092915050565b7f3078300000000000000000000000000000000000000000000000000000000000600082015250565b6000612cce600383612c87565b9150612cd982612c98565b602082019050919050565b600060a082019050612cf96000830187612439565b612d066020830186612439565b612d13604083018561239d565b612d206060830184612c78565b8181036080830152612d3181612cc1565b905095945050505050565b6000604082019050612d516000830185612439565b612d5e602083018461239d565b9392505050565b7f496e737566666963656e742070726963652076616c756520666f72207468697360008201527f206974656d2e0000000000000000000000000000000000000000000000000000602082015250565b6000612dc1602683612a64565b9150612dcc82612d65565b604082019050919050565b60006020820190508181036000830152612df081612db4565b9050919050565b7f596f752063616e6e6f742062757920796f7572206f776e206974656d00000000600082015250565b6000612e2d601c83612a64565b9150612e3882612df7565b602082019050919050565b60006020820190508181036000830152612e5c81612e20565b9050919050565b7f4e487b7100000000000000000000000000000000000000000000000000000000600052603260045260246000fd5b600081905092915050565b50565b6000612ead600083612e92565b9150612eb882612e9d565b600082019050919050565b6000612ece82612ea0565b9150819050919050565b7f4661696c656420746f2073656e64206d6f6e657920746f207468652073656c6c60008201527f6572000000000000000000000000000000000000000000000000000000000000602082015250565b6000612f34602283612a64565b9150612f3f82612ed8565b604082019050919050565b60006020820190508181036000830152612f6381612f27565b9050919050565b6000612f85612f80612f7b84612407565b612c4c565b612407565b9050919050565b6000612f9782612f6a565b9050919050565b6000612fa982612f8c565b9050919050565b612fb981612f9e565b82525050565b6000606082019050612fd46000830186612fb0565b612fe16020830185612439565b612fee604083018461239d565b949350505050565b7f4974656d206e6f7420666f756e6420696e20746865206d61726b6574706c616360008201527f6500000000000000000000000000000000000000000000000000000000000000602082015250565b6000613052602183612a64565b915061305d82612ff6565b604082019050919050565b6000602082019050818103600083015261308181613045565b9050919050565b7f596f7520617265206e6f74207468652073656c6c6572206f662074686520697460008201527f656d000000000000000000000000000000000000000000000000000000000000602082015250565b60006130e4602283612a64565b91506130ef82613088565b604082019050919050565b60006020820190508181036000830152613113816130d7565b9050919050565b60006131258261233a565b91506131308361233a565b925082820390508181111561314857613147612bdf565b5b92915050565b7f4e487b7100000000000000000000000000000000000000000000000000000000600052603160045260246000fd5b7f4f776e61626c653a206e6577206f776e657220697320746865207a65726f206160008201527f6464726573730000000000000000000000000000000000000000000000000000602082015250565b60006131d9602683612a64565b91506131e48261317d565b604082019050919050565b60006020820190508181036000830152613208816131cc565b9050919050565b7f4f776e61626c653a2063616c6c6572206973206e6f7420746865206f776e6572600082015250565b6000613245602083612a64565b91506132508261320f565b602082019050919050565b6000602082019050818103600083015261327481613238565b9050919050565b7f5265656e7472616e637947756172643a207265656e7472616e742063616c6c00600082015250565b60006132b1601f83612a64565b91506132bc8261327b565b602082019050919050565b600060208201905081810360008301526132e0816132a4565b9050919050565b7f436f756e7465723a2064656372656d656e74206f766572666c6f770000000000600082015250565b600061331d601b83612a64565b9150613328826132e7565b602082019050919050565b6000602082019050818103600083015261334c81613310565b905091905056fea26469706673582212207e4bd41c023d491f14fa6c9e49cbc3eeb2c92f100da0510718abba787b10658864736f6c63430008120033",
  "linkReferences": {},
  "deployedLinkReferences": {}
}