{
  "_format": "hh-sol-artifact-1",
  "contractName": "AuctionHouse",
  "sourceName": "contracts/AuctionHouse/AuctionHouse.sol",
  "abi": [
    {
      "inputs": [
        {
          "internalType": "address",
          "name": "_tokenAddress",
          "type": "address"
        }
      ],
      "stateMutability": "nonpayable",
      "type": "constructor"
    },
    {
      "anonymous": false,
      "inputs": [
        {
          "indexed": true,
          "internalType": "uint256",
          "name": "itemId",
          "type": "uint256"
        },
        {
          "indexed": false,
          "internalType": "address",
          "name": "seller",
          "type": "address"
        },
        {
          "indexed": false,
          "internalType": "uint256",
          "name": "price",
          "type": "uint256"
        }
      ],
      "name": "ItemListedSuccess",
      "type": "event"
    },
    {
      "anonymous": false,
      "inputs": [
        {
          "indexed": true,
          "internalType": "uint256",
          "name": "itemId",
          "type": "uint256"
        },
        {
          "indexed": false,
          "internalType": "address",
          "name": "seller",
          "type": "address"
        },
        {
          "indexed": false,
          "internalType": "address",
          "name": "buyer",
          "type": "address"
        },
        {
          "indexed": false,
          "internalType": "uint256",
          "name": "price",
          "type": "uint256"
        }
      ],
      "name": "ItemSoldSuccess",
      "type": "event"
    },
    {
      "anonymous": false,
      "inputs": [
        {
          "indexed": true,
          "internalType": "address",
          "name": "previousOwner",
          "type": "address"
        },
        {
          "indexed": true,
          "internalType": "address",
          "name": "newOwner",
          "type": "address"
        }
      ],
      "name": "OwnershipTransferred",
      "type": "event"
    },
    {
      "inputs": [],
      "name": "auctionHouseFunds",
      "outputs": [
        {
          "internalType": "uint256",
          "name": "",
          "type": "uint256"
        }
      ],
      "stateMutability": "view",
      "type": "function"
    },
    {
      "inputs": [
        {
          "internalType": "uint256",
          "name": "listedItemId",
          "type": "uint256"
        }
      ],
      "name": "executeSale",
      "outputs": [],
      "stateMutability": "payable",
      "type": "function"
    },
    {
      "inputs": [],
      "name": "getListedItems",
      "outputs": [
        {
          "components": [
            {
              "internalType": "uint256",
              "name": "listedItemId",
              "type": "uint256"
            },
            {
              "internalType": "uint256",
              "name": "itemId",
              "type": "uint256"
            },
            {
              "internalType": "address payable",
              "name": "seller",
              "type": "address"
            },
            {
              "internalType": "address",
              "name": "buyer",
              "type": "address"
            },
            {
              "internalType": "uint256",
              "name": "price",
              "type": "uint256"
            },
            {
              "internalType": "bool",
              "name": "currentlyListed",
              "type": "bool"
            },
            {
              "internalType": "bool",
              "name": "isSold",
              "type": "bool"
            }
          ],
          "internalType": "struct AuctionHouse.ListedItem[]",
          "name": "",
          "type": "tuple[]"
        }
      ],
      "stateMutability": "view",
      "type": "function"
    },
    {
      "inputs": [],
      "name": "getlistingFee",
      "outputs": [
        {
          "internalType": "uint256",
          "name": "",
          "type": "uint256"
        }
      ],
      "stateMutability": "view",
      "type": "function"
    },
    {
      "inputs": [
        {
          "internalType": "uint256",
          "name": "itemId",
          "type": "uint256"
        },
        {
          "internalType": "uint256",
          "name": "sellingPrice",
          "type": "uint256"
        }
      ],
      "name": "listItem",
      "outputs": [],
      "stateMutability": "payable",
      "type": "function"
    },
    {
      "inputs": [
        {
          "internalType": "uint256",
          "name": "",
          "type": "uint256"
        }
      ],
      "name": "listedItems",
      "outputs": [
        {
          "internalType": "uint256",
          "name": "listedItemId",
          "type": "uint256"
        },
        {
          "internalType": "uint256",
          "name": "itemId",
          "type": "uint256"
        },
        {
          "internalType": "address payable",
          "name": "seller",
          "type": "address"
        },
        {
          "internalType": "address",
          "name": "buyer",
          "type": "address"
        },
        {
          "internalType": "uint256",
          "name": "price",
          "type": "uint256"
        },
        {
          "internalType": "bool",
          "name": "currentlyListed",
          "type": "bool"
        },
        {
          "internalType": "bool",
          "name": "isSold",
          "type": "bool"
        }
      ],
      "stateMutability": "view",
      "type": "function"
    },
    {
      "inputs": [],
      "name": "listedItemsCount",
      "outputs": [
        {
          "internalType": "uint256",
          "name": "_value",
          "type": "uint256"
        }
      ],
      "stateMutability": "view",
      "type": "function"
    },
    {
      "inputs": [],
      "name": "listingFee",
      "outputs": [
        {
          "internalType": "uint256",
          "name": "",
          "type": "uint256"
        }
      ],
      "stateMutability": "view",
      "type": "function"
    },
    {
      "inputs": [
        {
          "internalType": "address",
          "name": "",
          "type": "address"
        },
        {
          "internalType": "address",
          "name": "",
          "type": "address"
        },
        {
          "internalType": "uint256[]",
          "name": "",
          "type": "uint256[]"
        },
        {
          "internalType": "uint256[]",
          "name": "",
          "type": "uint256[]"
        },
        {
          "internalType": "bytes",
          "name": "",
          "type": "bytes"
        }
      ],
      "name": "onERC1155BatchReceived",
      "outputs": [
        {
          "internalType": "bytes4",
          "name": "",
          "type": "bytes4"
        }
      ],
      "stateMutability": "nonpayable",
      "type": "function"
    },
    {
      "inputs": [
        {
          "internalType": "address",
          "name": "",
          "type": "address"
        },
        {
          "internalType": "address",
          "name": "",
          "type": "address"
        },
        {
          "internalType": "uint256",
          "name": "",
          "type": "uint256"
        },
        {
          "internalType": "uint256",
          "name": "",
          "type": "uint256"
        },
        {
          "internalType": "bytes",
          "name": "",
          "type": "bytes"
        }
      ],
      "name": "onERC1155Received",
      "outputs": [
        {
          "internalType": "bytes4",
          "name": "",
          "type": "bytes4"
        }
      ],
      "stateMutability": "nonpayable",
      "type": "function"
    },
    {
      "inputs": [],
      "name": "owner",
      "outputs": [
        {
          "internalType": "address",
          "name": "",
          "type": "address"
        }
      ],
      "stateMutability": "view",
      "type": "function"
    },
    {
      "inputs": [],
      "name": "renounceOwnership",
      "outputs": [],
      "stateMutability": "nonpayable",
      "type": "function"
    },
    {
      "inputs": [
        {
          "internalType": "bytes4",
          "name": "interfaceId",
          "type": "bytes4"
        }
      ],
      "name": "supportsInterface",
      "outputs": [
        {
          "internalType": "bool",
          "name": "",
          "type": "bool"
        }
      ],
      "stateMutability": "view",
      "type": "function"
    },
    {
      "inputs": [],
      "name": "tokenAddress",
      "outputs": [
        {
          "internalType": "address",
          "name": "",
          "type": "address"
        }
      ],
      "stateMutability": "view",
      "type": "function"
    },
    {
      "inputs": [
        {
          "internalType": "address",
          "name": "newOwner",
          "type": "address"
        }
      ],
      "name": "transferOwnership",
      "outputs": [],
      "stateMutability": "nonpayable",
      "type": "function"
    },
    {
      "inputs": [
        {
          "internalType": "uint256",
          "name": "newListingFee",
          "type": "uint256"
        }
      ],
      "name": "updatelistingFee",
      "outputs": [],
      "stateMutability": "payable",
      "type": "function"
    }
  ],
  "bytecode": "0x6080604052662386f26fc100006003553480156200001c57600080fd5b506040516200250e3803806200250e8339818101604052810190620000429190620001e7565b6200006262000056620000b160201b60201c565b620000b960201b60201c565b6001808190555080600460006101000a81548173ffffffffffffffffffffffffffffffffffffffff021916908373ffffffffffffffffffffffffffffffffffffffff1602179055505062000219565b600033905090565b60008060009054906101000a900473ffffffffffffffffffffffffffffffffffffffff169050816000806101000a81548173ffffffffffffffffffffffffffffffffffffffff021916908373ffffffffffffffffffffffffffffffffffffffff1602179055508173ffffffffffffffffffffffffffffffffffffffff168173ffffffffffffffffffffffffffffffffffffffff167f8be0079c531659141344cd1fd0a4f28419497f9722a3daafe3b4186f6b6457e060405160405180910390a35050565b600080fd5b600073ffffffffffffffffffffffffffffffffffffffff82169050919050565b6000620001af8262000182565b9050919050565b620001c181620001a2565b8114620001cd57600080fd5b50565b600081519050620001e181620001b6565b92915050565b6000602082840312156200020057620001ff6200017d565b5b60006200021084828501620001d0565b91505092915050565b6122e580620002296000396000f3fe6080604052600436106100f35760003560e01c8063bc197c811161008a578063cdaf072411610059578063cdaf0724146102df578063d23470611461030a578063f23a6e611461034d578063f2fde38b1461038a576100f3565b8063bc197c8114610221578063c1fec9e41461025e578063caf5069014610289578063ccb4918d146102b4576100f3565b8063883efa67116100c6578063883efa67146101935780638da5cb5b146101af5780639b1225c4146101da5780639d76ea58146101f6576100f3565b806301ffc9a7146100f857806342444ed4146101355780636a1b7ecc14610151578063715018a61461017c575b600080fd5b34801561010457600080fd5b5061011f600480360381019061011a9190611405565b6103b3565b60405161012c919061144d565b60405180910390f35b61014f600480360381019061014a919061149e565b61042d565b005b34801561015d57600080fd5b50610166610492565b60405161017391906114da565b60405180910390f35b34801561018857600080fd5b50610191610498565b005b6101ad60048036038101906101a891906114f5565b6104ac565b005b3480156101bb57600080fd5b506101c46108cf565b6040516101d19190611576565b60405180910390f35b6101f460048036038101906101ef919061149e565b6108f8565b005b34801561020257600080fd5b5061020b610e6f565b6040516102189190611576565b60405180910390f35b34801561022d57600080fd5b50610248600480360381019061024391906117cb565b610e95565b60405161025591906118a9565b60405180910390f35b34801561026a57600080fd5b50610273610eaa565b60405161028091906114da565b60405180910390f35b34801561029557600080fd5b5061029e610eb0565b6040516102ab9190611a4f565b60405180910390f35b3480156102c057600080fd5b506102c961100f565b6040516102d691906114da565b60405180910390f35b3480156102eb57600080fd5b506102f461101b565b60405161030191906114da565b60405180910390f35b34801561031657600080fd5b50610331600480360381019061032c919061149e565b611025565b6040516103449796959493929190611a80565b60405180910390f35b34801561035957600080fd5b50610374600480360381019061036f9190611aef565b6110d1565b60405161038191906118a9565b60405180910390f35b34801561039657600080fd5b506103b160048036038101906103ac9190611b86565b6110e6565b005b60007f4e2312e0000000000000000000000000000000000000000000000000000000007bffffffffffffffffffffffffffffffffffffffffffffffffffffffff1916827bffffffffffffffffffffffffffffffffffffffffffffffffffffffff19161480610426575061042582611169565b5b9050919050565b6104356111d3565b61043d611251565b60008111610480576040517f08c379a000000000000000000000000000000000000000000000000000000000815260040161047790611c10565b60405180910390fd5b8060038190555061048f6112a0565b50565b60035481565b6104a06111d3565b6104aa60006112a9565b565b6104b4611251565b60035434146104f8576040517f08c379a00000000000000000000000000000000000000000000000000000000081526004016104ef90611c7c565b60405180910390fd5b6000811161053b576040517f08c379a000000000000000000000000000000000000000000000000000000000815260040161053290611d0e565b60405180910390fd5b6000610547600661136d565b905060006040518060e001604052808381526020018581526020013373ffffffffffffffffffffffffffffffffffffffff168152602001600073ffffffffffffffffffffffffffffffffffffffff16815260200184815260200160011515815260200160001515815250905034600260008282546105c59190611d5d565b925050819055508060076000848152602001908152602001600020600082015181600001556020820151816001015560408201518160020160006101000a81548173ffffffffffffffffffffffffffffffffffffffff021916908373ffffffffffffffffffffffffffffffffffffffff16021790555060608201518160030160006101000a81548173ffffffffffffffffffffffffffffffffffffffff021916908373ffffffffffffffffffffffffffffffffffffffff1602179055506080820151816004015560a08201518160050160006101000a81548160ff02191690831515021790555060c08201518160050160016101000a81548160ff0219169083151502179055509050506008819080600181540180825580915050600190039060005260206000209060060201600090919091909150600082015181600001556020820151816001015560408201518160020160006101000a81548173ffffffffffffffffffffffffffffffffffffffff021916908373ffffffffffffffffffffffffffffffffffffffff16021790555060608201518160030160006101000a81548173ffffffffffffffffffffffffffffffffffffffff021916908373ffffffffffffffffffffffffffffffffffffffff1602179055506080820151816004015560a08201518160050160006101000a81548160ff02191690831515021790555060c08201518160050160016101000a81548160ff0219169083151502179055505050600460009054906101000a900473ffffffffffffffffffffffffffffffffffffffff1673ffffffffffffffffffffffffffffffffffffffff1663f242432a33308760016040518563ffffffff1660e01b815260040161084b9493929190611e33565b600060405180830381600087803b15801561086557600080fd5b505af1158015610879573d6000803e3d6000fd5b50505050610887600661137b565b837fd31b349e5e268b6e7a8cc3b703e827bb3854e2763ec42a7300faf5d9c3e9c3f633856040516108b9929190611e8b565b60405180910390a250506108cb6112a0565b5050565b60008060009054906101000a900473ffffffffffffffffffffffffffffffffffffffff16905090565b610900611251565b60006007600083815260200190815260200160002060040154905060006007600084815260200190815260200160002060020160009054906101000a900473ffffffffffffffffffffffffffffffffffffffff169050813414610998576040517f08c379a000000000000000000000000000000000000000000000000000000000815260040161098f90611f26565b60405180910390fd5b3373ffffffffffffffffffffffffffffffffffffffff168173ffffffffffffffffffffffffffffffffffffffff1603610a06576040517f08c379a00000000000000000000000000000000000000000000000000000000081526004016109fd90611f92565b60405180910390fd5b6000600760008581526020019081526020016000206040518060e001604052908160008201548152602001600182015481526020016002820160009054906101000a900473ffffffffffffffffffffffffffffffffffffffff1673ffffffffffffffffffffffffffffffffffffffff1673ffffffffffffffffffffffffffffffffffffffff1681526020016003820160009054906101000a900473ffffffffffffffffffffffffffffffffffffffff1673ffffffffffffffffffffffffffffffffffffffff1673ffffffffffffffffffffffffffffffffffffffff168152602001600482015481526020016005820160009054906101000a900460ff161515151581526020016005820160019054906101000a900460ff161515151581525050905060008160a001901515908115158152505033816060019073ffffffffffffffffffffffffffffffffffffffff16908173ffffffffffffffffffffffffffffffffffffffff168152505060018160c00190151590811515815250508060088581548110610b9757610b96611fb2565b5b9060005260206000209060060201600082015181600001556020820151816001015560408201518160020160006101000a81548173ffffffffffffffffffffffffffffffffffffffff021916908373ffffffffffffffffffffffffffffffffffffffff16021790555060608201518160030160006101000a81548173ffffffffffffffffffffffffffffffffffffffff021916908373ffffffffffffffffffffffffffffffffffffffff1602179055506080820151816004015560a08201518160050160006101000a81548160ff02191690831515021790555060c08201518160050160016101000a81548160ff021916908315150217905550905050610c9e600561137b565b600460009054906101000a900473ffffffffffffffffffffffffffffffffffffffff1673ffffffffffffffffffffffffffffffffffffffff1663f242432a3033846020015160016040518563ffffffff1660e01b8152600401610d049493929190611e33565b600060405180830381600087803b158015610d1e57600080fd5b505af1158015610d32573d6000803e3d6000fd5b5050505060006007600086815260200190815260200160002060020160009054906101000a900473ffffffffffffffffffffffffffffffffffffffff1673ffffffffffffffffffffffffffffffffffffffff1634604051610d9290612012565b60006040518083038185875af1925050503d8060008114610dcf576040519150601f19603f3d011682016040523d82523d6000602084013e610dd4565b606091505b5050905080610e18576040517f08c379a0000000000000000000000000000000000000000000000000000000008152600401610e0f90612099565b60405180910390fd5b81602001517fec7b3e53b13d8aed24b32d71dabfb6afd1ee879d5c762345fb58ef82ce95cf8a8360400151338560800151604051610e589392919061210e565b60405180910390a250505050610e6c6112a0565b50565b600460009054906101000a900473ffffffffffffffffffffffffffffffffffffffff1681565b600063bc197c8160e01b905095945050505050565b60025481565b60606008805480602002602001604051908101604052809291908181526020016000905b8282101561100657838290600052602060002090600602016040518060e001604052908160008201548152602001600182015481526020016002820160009054906101000a900473ffffffffffffffffffffffffffffffffffffffff1673ffffffffffffffffffffffffffffffffffffffff1673ffffffffffffffffffffffffffffffffffffffff1681526020016003820160009054906101000a900473ffffffffffffffffffffffffffffffffffffffff1673ffffffffffffffffffffffffffffffffffffffff1673ffffffffffffffffffffffffffffffffffffffff168152602001600482015481526020016005820160009054906101000a900460ff161515151581526020016005820160019054906101000a900460ff16151515158152505081526020019060010190610ed4565b50505050905090565b60068060000154905081565b6000600354905090565b6008818154811061103557600080fd5b90600052602060002090600602016000915090508060000154908060010154908060020160009054906101000a900473ffffffffffffffffffffffffffffffffffffffff16908060030160009054906101000a900473ffffffffffffffffffffffffffffffffffffffff16908060040154908060050160009054906101000a900460ff16908060050160019054906101000a900460ff16905087565b600063f23a6e6160e01b905095945050505050565b6110ee6111d3565b600073ffffffffffffffffffffffffffffffffffffffff168173ffffffffffffffffffffffffffffffffffffffff160361115d576040517f08c379a0000000000000000000000000000000000000000000000000000000008152600401611154906121b7565b60405180910390fd5b611166816112a9565b50565b60007f01ffc9a7000000000000000000000000000000000000000000000000000000007bffffffffffffffffffffffffffffffffffffffffffffffffffffffff1916827bffffffffffffffffffffffffffffffffffffffffffffffffffffffff1916149050919050565b6111db611391565b73ffffffffffffffffffffffffffffffffffffffff166111f96108cf565b73ffffffffffffffffffffffffffffffffffffffff161461124f576040517f08c379a000000000000000000000000000000000000000000000000000000000815260040161124690612223565b60405180910390fd5b565b600260015403611296576040517f08c379a000000000000000000000000000000000000000000000000000000000815260040161128d9061228f565b60405180910390fd5b6002600181905550565b60018081905550565b60008060009054906101000a900473ffffffffffffffffffffffffffffffffffffffff169050816000806101000a81548173ffffffffffffffffffffffffffffffffffffffff021916908373ffffffffffffffffffffffffffffffffffffffff1602179055508173ffffffffffffffffffffffffffffffffffffffff168173ffffffffffffffffffffffffffffffffffffffff167f8be0079c531659141344cd1fd0a4f28419497f9722a3daafe3b4186f6b6457e060405160405180910390a35050565b600081600001549050919050565b6001816000016000828254019250508190555050565b600033905090565b6000604051905090565b600080fd5b600080fd5b60007fffffffff0000000000000000000000000000000000000000000000000000000082169050919050565b6113e2816113ad565b81146113ed57600080fd5b50565b6000813590506113ff816113d9565b92915050565b60006020828403121561141b5761141a6113a3565b5b6000611429848285016113f0565b91505092915050565b60008115159050919050565b61144781611432565b82525050565b6000602082019050611462600083018461143e565b92915050565b6000819050919050565b61147b81611468565b811461148657600080fd5b50565b60008135905061149881611472565b92915050565b6000602082840312156114b4576114b36113a3565b5b60006114c284828501611489565b91505092915050565b6114d481611468565b82525050565b60006020820190506114ef60008301846114cb565b92915050565b6000806040838503121561150c5761150b6113a3565b5b600061151a85828601611489565b925050602061152b85828601611489565b9150509250929050565b600073ffffffffffffffffffffffffffffffffffffffff82169050919050565b600061156082611535565b9050919050565b61157081611555565b82525050565b600060208201905061158b6000830184611567565b92915050565b61159a81611555565b81146115a557600080fd5b50565b6000813590506115b781611591565b92915050565b600080fd5b6000601f19601f8301169050919050565b7f4e487b7100000000000000000000000000000000000000000000000000000000600052604160045260246000fd5b61160b826115c2565b810181811067ffffffffffffffff8211171561162a576116296115d3565b5b80604052505050565b600061163d611399565b90506116498282611602565b919050565b600067ffffffffffffffff821115611669576116686115d3565b5b602082029050602081019050919050565b600080fd5b600061169261168d8461164e565b611633565b905080838252602082019050602084028301858111156116b5576116b461167a565b5b835b818110156116de57806116ca8882611489565b8452602084019350506020810190506116b7565b5050509392505050565b600082601f8301126116fd576116fc6115bd565b5b813561170d84826020860161167f565b91505092915050565b600080fd5b600067ffffffffffffffff821115611736576117356115d3565b5b61173f826115c2565b9050602081019050919050565b82818337600083830152505050565b600061176e6117698461171b565b611633565b90508281526020810184848401111561178a57611789611716565b5b61179584828561174c565b509392505050565b600082601f8301126117b2576117b16115bd565b5b81356117c284826020860161175b565b91505092915050565b600080600080600060a086880312156117e7576117e66113a3565b5b60006117f5888289016115a8565b9550506020611806888289016115a8565b945050604086013567ffffffffffffffff811115611827576118266113a8565b5b611833888289016116e8565b935050606086013567ffffffffffffffff811115611854576118536113a8565b5b611860888289016116e8565b925050608086013567ffffffffffffffff811115611881576118806113a8565b5b61188d8882890161179d565b9150509295509295909350565b6118a3816113ad565b82525050565b60006020820190506118be600083018461189a565b92915050565b600081519050919050565b600082825260208201905092915050565b6000819050602082019050919050565b6118f981611468565b82525050565b600061190a82611535565b9050919050565b61191a816118ff565b82525050565b61192981611555565b82525050565b61193881611432565b82525050565b60e08201600082015161195460008501826118f0565b50602082015161196760208501826118f0565b50604082015161197a6040850182611911565b50606082015161198d6060850182611920565b5060808201516119a060808501826118f0565b5060a08201516119b360a085018261192f565b5060c08201516119c660c085018261192f565b50505050565b60006119d8838361193e565b60e08301905092915050565b6000602082019050919050565b60006119fc826118c4565b611a0681856118cf565b9350611a11836118e0565b8060005b83811015611a42578151611a2988826119cc565b9750611a34836119e4565b925050600181019050611a15565b5085935050505092915050565b60006020820190508181036000830152611a6981846119f1565b905092915050565b611a7a816118ff565b82525050565b600060e082019050611a95600083018a6114cb565b611aa260208301896114cb565b611aaf6040830188611a71565b611abc6060830187611567565b611ac960808301866114cb565b611ad660a083018561143e565b611ae360c083018461143e565b98975050505050505050565b600080600080600060a08688031215611b0b57611b0a6113a3565b5b6000611b19888289016115a8565b9550506020611b2a888289016115a8565b9450506040611b3b88828901611489565b9350506060611b4c88828901611489565b925050608086013567ffffffffffffffff811115611b6d57611b6c6113a8565b5b611b798882890161179d565b9150509295509295909350565b600060208284031215611b9c57611b9b6113a3565b5b6000611baa848285016115a8565b91505092915050565b600082825260208201905092915050565b7f4e6577206c697374696e67206665652063616e6e6f7420626520300000000000600082015250565b6000611bfa601b83611bb3565b9150611c0582611bc4565b602082019050919050565b60006020820190508181036000830152611c2981611bed565b9050919050565b7f596f75206e65656420746f20706179206c697374696e67206665657300000000600082015250565b6000611c66601c83611bb3565b9150611c7182611c30565b602082019050919050565b60006020820190508181036000830152611c9581611c59565b9050919050565b7f596f75206e65656420746f2073706563696679206120636f727265637420707260008201527f6963650000000000000000000000000000000000000000000000000000000000602082015250565b6000611cf8602383611bb3565b9150611d0382611c9c565b604082019050919050565b60006020820190508181036000830152611d2781611ceb565b9050919050565b7f4e487b7100000000000000000000000000000000000000000000000000000000600052601160045260246000fd5b6000611d6882611468565b9150611d7383611468565b9250828201905080821115611d8b57611d8a611d2e565b5b92915050565b6000819050919050565b6000819050919050565b6000611dc0611dbb611db684611d91565b611d9b565b611468565b9050919050565b611dd081611da5565b82525050565b600082825260208201905092915050565b7f3078300000000000000000000000000000000000000000000000000000000000600082015250565b6000611e1d600383611dd6565b9150611e2882611de7565b602082019050919050565b600060a082019050611e486000830187611567565b611e556020830186611567565b611e6260408301856114cb565b611e6f6060830184611dc7565b8181036080830152611e8081611e10565b905095945050505050565b6000604082019050611ea06000830185611567565b611ead60208301846114cb565b9392505050565b7f496e737566666963656e742070726963652076616c756520666f72207468697360008201527f206974656d2e0000000000000000000000000000000000000000000000000000602082015250565b6000611f10602683611bb3565b9150611f1b82611eb4565b604082019050919050565b60006020820190508181036000830152611f3f81611f03565b9050919050565b7f596f752063616e6e6f742062757920796f7572206f776e206974656d00000000600082015250565b6000611f7c601c83611bb3565b9150611f8782611f46565b602082019050919050565b60006020820190508181036000830152611fab81611f6f565b9050919050565b7f4e487b7100000000000000000000000000000000000000000000000000000000600052603260045260246000fd5b600081905092915050565b50565b6000611ffc600083611fe1565b915061200782611fec565b600082019050919050565b600061201d82611fef565b9150819050919050565b7f4661696c656420746f2073656e64206d6f6e657920746f207468652073656c6c60008201527f6572000000000000000000000000000000000000000000000000000000000000602082015250565b6000612083602283611bb3565b915061208e82612027565b604082019050919050565b600060208201905081810360008301526120b281612076565b9050919050565b60006120d46120cf6120ca84611535565b611d9b565b611535565b9050919050565b60006120e6826120b9565b9050919050565b60006120f8826120db565b9050919050565b612108816120ed565b82525050565b600060608201905061212360008301866120ff565b6121306020830185611567565b61213d60408301846114cb565b949350505050565b7f4f776e61626c653a206e6577206f776e657220697320746865207a65726f206160008201527f6464726573730000000000000000000000000000000000000000000000000000602082015250565b60006121a1602683611bb3565b91506121ac82612145565b604082019050919050565b600060208201905081810360008301526121d081612194565b9050919050565b7f4f776e61626c653a2063616c6c6572206973206e6f7420746865206f776e6572600082015250565b600061220d602083611bb3565b9150612218826121d7565b602082019050919050565b6000602082019050818103600083015261223c81612200565b9050919050565b7f5265656e7472616e637947756172643a207265656e7472616e742063616c6c00600082015250565b6000612279601f83611bb3565b915061228482612243565b602082019050919050565b600060208201905081810360008301526122a88161226c565b905091905056fea26469706673582212201e26a7f8ab1f59e20942421fe43270cc5f4131646ab26388e63b844333eb3ebf64736f6c63430008120033",
  "linkReferences": {},
  "deployedLinkReferences": {}
}