{
  "contractName": "AuctionHouse",
  "abi": [
    {
      "inputs": [
        {
          "internalType": "address",
          "name": "_tokenAddress",
          "type": "address"
        }
      ],
      "stateMutability": "nonpayable",
      "type": "constructor"
    },
    {
      "anonymous": false,
      "inputs": [
        {
          "indexed": true,
          "internalType": "uint256",
          "name": "tokenId",
          "type": "uint256"
        },
        {
          "indexed": false,
          "internalType": "address",
          "name": "owner",
          "type": "address"
        },
        {
          "indexed": false,
          "internalType": "address",
          "name": "seller",
          "type": "address"
        },
        {
          "indexed": false,
          "internalType": "uint256",
          "name": "price",
          "type": "uint256"
        }
      ],
      "name": "ItemListedSuccess",
      "type": "event"
    },
    {
      "anonymous": false,
      "inputs": [
        {
          "indexed": true,
          "internalType": "address",
          "name": "previousOwner",
          "type": "address"
        },
        {
          "indexed": true,
          "internalType": "address",
          "name": "newOwner",
          "type": "address"
        }
      ],
      "name": "OwnershipTransferred",
      "type": "event"
    },
    {
      "inputs": [],
      "name": "listedItemsCount",
      "outputs": [
        {
          "internalType": "uint256",
          "name": "_value",
          "type": "uint256"
        }
      ],
      "stateMutability": "view",
      "type": "function",
      "constant": true
    },
    {
      "inputs": [
        {
          "internalType": "address",
          "name": "",
          "type": "address"
        },
        {
          "internalType": "address",
          "name": "",
          "type": "address"
        },
        {
          "internalType": "uint256[]",
          "name": "",
          "type": "uint256[]"
        },
        {
          "internalType": "uint256[]",
          "name": "",
          "type": "uint256[]"
        },
        {
          "internalType": "bytes",
          "name": "",
          "type": "bytes"
        }
      ],
      "name": "onERC1155BatchReceived",
      "outputs": [
        {
          "internalType": "bytes4",
          "name": "",
          "type": "bytes4"
        }
      ],
      "stateMutability": "nonpayable",
      "type": "function"
    },
    {
      "inputs": [
        {
          "internalType": "address",
          "name": "",
          "type": "address"
        },
        {
          "internalType": "address",
          "name": "",
          "type": "address"
        },
        {
          "internalType": "uint256",
          "name": "",
          "type": "uint256"
        },
        {
          "internalType": "uint256",
          "name": "",
          "type": "uint256"
        },
        {
          "internalType": "bytes",
          "name": "",
          "type": "bytes"
        }
      ],
      "name": "onERC1155Received",
      "outputs": [
        {
          "internalType": "bytes4",
          "name": "",
          "type": "bytes4"
        }
      ],
      "stateMutability": "nonpayable",
      "type": "function"
    },
    {
      "inputs": [],
      "name": "owner",
      "outputs": [
        {
          "internalType": "address",
          "name": "",
          "type": "address"
        }
      ],
      "stateMutability": "view",
      "type": "function",
      "constant": true
    },
    {
      "inputs": [],
      "name": "renounceOwnership",
      "outputs": [],
      "stateMutability": "nonpayable",
      "type": "function"
    },
    {
      "inputs": [
        {
          "internalType": "bytes4",
          "name": "interfaceId",
          "type": "bytes4"
        }
      ],
      "name": "supportsInterface",
      "outputs": [
        {
          "internalType": "bool",
          "name": "",
          "type": "bool"
        }
      ],
      "stateMutability": "view",
      "type": "function",
      "constant": true
    },
    {
      "inputs": [],
      "name": "tokenAddress",
      "outputs": [
        {
          "internalType": "address",
          "name": "",
          "type": "address"
        }
      ],
      "stateMutability": "view",
      "type": "function",
      "constant": true
    },
    {
      "inputs": [
        {
          "internalType": "address",
          "name": "newOwner",
          "type": "address"
        }
      ],
      "name": "transferOwnership",
      "outputs": [],
      "stateMutability": "nonpayable",
      "type": "function"
    },
    {
      "inputs": [
        {
          "internalType": "uint256",
          "name": "newPrice",
          "type": "uint256"
        }
      ],
      "name": "updateListingPrice",
      "outputs": [],
      "stateMutability": "payable",
      "type": "function",
      "payable": true
    },
    {
      "inputs": [],
      "name": "getListingPrice",
      "outputs": [
        {
          "internalType": "uint256",
          "name": "",
          "type": "uint256"
        }
      ],
      "stateMutability": "view",
      "type": "function",
      "constant": true
    },
    {
      "inputs": [
        {
          "internalType": "uint256",
          "name": "itemId",
          "type": "uint256"
        },
        {
          "internalType": "uint256",
          "name": "sellingPrice",
          "type": "uint256"
        },
        {
          "internalType": "uint256",
          "name": "deadline",
          "type": "uint256"
        }
      ],
      "name": "listItem",
      "outputs": [],
      "stateMutability": "payable",
      "type": "function",
      "payable": true
    },
    {
      "inputs": [
        {
          "internalType": "uint256",
          "name": "listedItemId",
          "type": "uint256"
        }
      ],
      "name": "executeSale",
      "outputs": [],
      "stateMutability": "payable",
      "type": "function",
      "payable": true
    }
  ],
  "bytecode": "0x6080604052662386f26fc100006002553480156200001c57600080fd5b506040516200181f3803806200181f8339818101604052810190620000429190620001e0565b6200006262000056620000aa60201b60201c565b620000b260201b60201c565b80600160006101000a81548173ffffffffffffffffffffffffffffffffffffffff021916908373ffffffffffffffffffffffffffffffffffffffff1602179055505062000212565b600033905090565b60008060009054906101000a900473ffffffffffffffffffffffffffffffffffffffff169050816000806101000a81548173ffffffffffffffffffffffffffffffffffffffff021916908373ffffffffffffffffffffffffffffffffffffffff1602179055508173ffffffffffffffffffffffffffffffffffffffff168173ffffffffffffffffffffffffffffffffffffffff167f8be0079c531659141344cd1fd0a4f28419497f9722a3daafe3b4186f6b6457e060405160405180910390a35050565b600080fd5b600073ffffffffffffffffffffffffffffffffffffffff82169050919050565b6000620001a8826200017b565b9050919050565b620001ba816200019b565b8114620001c657600080fd5b50565b600081519050620001da81620001af565b92915050565b600060208284031215620001f957620001f862000176565b5b60006200020984828501620001c9565b91505092915050565b6115fd80620002226000396000f3fe6080604052600436106100a75760003560e01c8063ae677aa311610064578063ae677aa31461019d578063bc197c81146101b9578063ccb4918d146101f6578063ec16b94a14610221578063f23a6e611461023d578063f2fde38b1461027a576100a7565b806301ffc9a7146100ac57806312e85585146100e9578063715018a6146101145780638da5cb5b1461012b5780639b1225c4146101565780639d76ea5814610172575b600080fd5b3480156100b857600080fd5b506100d360048036038101906100ce9190610c2c565b6102a3565b6040516100e09190610c74565b60405180910390f35b3480156100f557600080fd5b506100fe61031d565b60405161010b9190610ca8565b60405180910390f35b34801561012057600080fd5b50610129610327565b005b34801561013757600080fd5b5061014061033b565b60405161014d9190610d04565b60405180910390f35b610170600480360381019061016b9190610d4b565b610364565b005b34801561017e57600080fd5b506101876105af565b6040516101949190610d04565b60405180910390f35b6101b760048036038101906101b29190610d4b565b6105d5565b005b3480156101c557600080fd5b506101e060048036038101906101db9190610fb2565b61062a565b6040516101ed9190611090565b60405180910390f35b34801561020257600080fd5b5061020b61063f565b6040516102189190610ca8565b60405180910390f35b61023b600480360381019061023691906110ab565b61064b565b005b34801561024957600080fd5b50610264600480360381019061025f91906110fe565b610950565b6040516102719190611090565b60405180910390f35b34801561028657600080fd5b506102a1600480360381019061029c9190611195565b610965565b005b60007f4e2312e0000000000000000000000000000000000000000000000000000000007bffffffffffffffffffffffffffffffffffffffffffffffffffffffff1916827bffffffffffffffffffffffffffffffffffffffffffffffffffffffff191614806103165750610315826109e8565b5b9050919050565b6000600254905090565b61032f610a52565b6103396000610ad0565b565b60008060009054906101000a900473ffffffffffffffffffffffffffffffffffffffff16905090565b60006006600083815260200190815260200160002060040154905060006006600084815260200190815260200160002060020160009054906101000a900473ffffffffffffffffffffffffffffffffffffffff1690508134146103fc576040517f08c379a00000000000000000000000000000000000000000000000000000000081526004016103f390611245565b60405180910390fd5b60006006600085815260200190815260200160002060060160006101000a81548160ff021916908315150217905550336006600085815260200190815260200160002060030160006101000a81548173ffffffffffffffffffffffffffffffffffffffff021916908373ffffffffffffffffffffffffffffffffffffffff16021790555060016006600085815260200190815260200160002060060160016101000a81548160ff0219169083151502179055506104b96004610b94565b600160009054906101000a900473ffffffffffffffffffffffffffffffffffffffff1673ffffffffffffffffffffffffffffffffffffffff1663f242432a3033600660008881526020019081526020016000206000015460016040518563ffffffff1660e01b81526004016105319493929190611307565b600060405180830381600087803b15801561054b57600080fd5b505af115801561055f573d6000803e3d6000fd5b505050508073ffffffffffffffffffffffffffffffffffffffff166108fc349081150290604051600060405180830381858888f193505050501580156105a9573d6000803e3d6000fd5b50505050565b600160009054906101000a900473ffffffffffffffffffffffffffffffffffffffff1681565b6105dd610a52565b60008111610620576040517f08c379a0000000000000000000000000000000000000000000000000000000008152600401610617906113ab565b60405180910390fd5b8060028190555050565b600063bc197c8160e01b905095945050505050565b60058060000154905081565b600254341461068f576040517f08c379a000000000000000000000000000000000000000000000000000000000815260040161068690611417565b60405180910390fd5b600082116106d2576040517f08c379a00000000000000000000000000000000000000000000000000000000081526004016106c9906114a9565b60405180910390fd5b60006106de6005610baa565b90506040518061010001604052808581526020013373ffffffffffffffffffffffffffffffffffffffff1681526020013073ffffffffffffffffffffffffffffffffffffffff168152602001600073ffffffffffffffffffffffffffffffffffffffff16815260200184815260200183815260200160011515815260200160001515815250600660008381526020019081526020016000206000820151816000015560208201518160010160006101000a81548173ffffffffffffffffffffffffffffffffffffffff021916908373ffffffffffffffffffffffffffffffffffffffff16021790555060408201518160020160006101000a81548173ffffffffffffffffffffffffffffffffffffffff021916908373ffffffffffffffffffffffffffffffffffffffff16021790555060608201518160030160006101000a81548173ffffffffffffffffffffffffffffffffffffffff021916908373ffffffffffffffffffffffffffffffffffffffff1602179055506080820151816004015560a0820151816005015560c08201518160060160006101000a81548160ff02191690831515021790555060e08201518160060160016101000a81548160ff021916908315150217905550905050600160009054906101000a900473ffffffffffffffffffffffffffffffffffffffff1673ffffffffffffffffffffffffffffffffffffffff1663f242432a33308760016040518563ffffffff1660e01b815260040161090e9493929190611307565b600060405180830381600087803b15801561092857600080fd5b505af115801561093c573d6000803e3d6000fd5b5050505061094a6005610b94565b50505050565b600063f23a6e6160e01b905095945050505050565b61096d610a52565b600073ffffffffffffffffffffffffffffffffffffffff168173ffffffffffffffffffffffffffffffffffffffff16036109dc576040517f08c379a00000000000000000000000000000000000000000000000000000000081526004016109d39061153b565b60405180910390fd5b6109e581610ad0565b50565b60007f01ffc9a7000000000000000000000000000000000000000000000000000000007bffffffffffffffffffffffffffffffffffffffffffffffffffffffff1916827bffffffffffffffffffffffffffffffffffffffffffffffffffffffff1916149050919050565b610a5a610bb8565b73ffffffffffffffffffffffffffffffffffffffff16610a7861033b565b73ffffffffffffffffffffffffffffffffffffffff1614610ace576040517f08c379a0000000000000000000000000000000000000000000000000000000008152600401610ac5906115a7565b60405180910390fd5b565b60008060009054906101000a900473ffffffffffffffffffffffffffffffffffffffff169050816000806101000a81548173ffffffffffffffffffffffffffffffffffffffff021916908373ffffffffffffffffffffffffffffffffffffffff1602179055508173ffffffffffffffffffffffffffffffffffffffff168173ffffffffffffffffffffffffffffffffffffffff167f8be0079c531659141344cd1fd0a4f28419497f9722a3daafe3b4186f6b6457e060405160405180910390a35050565b6001816000016000828254019250508190555050565b600081600001549050919050565b600033905090565b6000604051905090565b600080fd5b600080fd5b60007fffffffff0000000000000000000000000000000000000000000000000000000082169050919050565b610c0981610bd4565b8114610c1457600080fd5b50565b600081359050610c2681610c00565b92915050565b600060208284031215610c4257610c41610bca565b5b6000610c5084828501610c17565b91505092915050565b60008115159050919050565b610c6e81610c59565b82525050565b6000602082019050610c896000830184610c65565b92915050565b6000819050919050565b610ca281610c8f565b82525050565b6000602082019050610cbd6000830184610c99565b92915050565b600073ffffffffffffffffffffffffffffffffffffffff82169050919050565b6000610cee82610cc3565b9050919050565b610cfe81610ce3565b82525050565b6000602082019050610d196000830184610cf5565b92915050565b610d2881610c8f565b8114610d3357600080fd5b50565b600081359050610d4581610d1f565b92915050565b600060208284031215610d6157610d60610bca565b5b6000610d6f84828501610d36565b91505092915050565b610d8181610ce3565b8114610d8c57600080fd5b50565b600081359050610d9e81610d78565b92915050565b600080fd5b6000601f19601f8301169050919050565b7f4e487b7100000000000000000000000000000000000000000000000000000000600052604160045260246000fd5b610df282610da9565b810181811067ffffffffffffffff82111715610e1157610e10610dba565b5b80604052505050565b6000610e24610bc0565b9050610e308282610de9565b919050565b600067ffffffffffffffff821115610e5057610e4f610dba565b5b602082029050602081019050919050565b600080fd5b6000610e79610e7484610e35565b610e1a565b90508083825260208201905060208402830185811115610e9c57610e9b610e61565b5b835b81811015610ec55780610eb18882610d36565b845260208401935050602081019050610e9e565b5050509392505050565b600082601f830112610ee457610ee3610da4565b5b8135610ef4848260208601610e66565b91505092915050565b600080fd5b600067ffffffffffffffff821115610f1d57610f1c610dba565b5b610f2682610da9565b9050602081019050919050565b82818337600083830152505050565b6000610f55610f5084610f02565b610e1a565b905082815260208101848484011115610f7157610f70610efd565b5b610f7c848285610f33565b509392505050565b600082601f830112610f9957610f98610da4565b5b8135610fa9848260208601610f42565b91505092915050565b600080600080600060a08688031215610fce57610fcd610bca565b5b6000610fdc88828901610d8f565b9550506020610fed88828901610d8f565b945050604086013567ffffffffffffffff81111561100e5761100d610bcf565b5b61101a88828901610ecf565b935050606086013567ffffffffffffffff81111561103b5761103a610bcf565b5b61104788828901610ecf565b925050608086013567ffffffffffffffff81111561106857611067610bcf565b5b61107488828901610f84565b9150509295509295909350565b61108a81610bd4565b82525050565b60006020820190506110a56000830184611081565b92915050565b6000806000606084860312156110c4576110c3610bca565b5b60006110d286828701610d36565b93505060206110e386828701610d36565b92505060406110f486828701610d36565b9150509250925092565b600080600080600060a0868803121561111a57611119610bca565b5b600061112888828901610d8f565b955050602061113988828901610d8f565b945050604061114a88828901610d36565b935050606061115b88828901610d36565b925050608086013567ffffffffffffffff81111561117c5761117b610bcf565b5b61118888828901610f84565b9150509295509295909350565b6000602082840312156111ab576111aa610bca565b5b60006111b984828501610d8f565b91505092915050565b600082825260208201905092915050565b7f496e737566666963656e742070726963652076616c756520666f72207468697360008201527f206974656d2e0000000000000000000000000000000000000000000000000000602082015250565b600061122f6026836111c2565b915061123a826111d3565b604082019050919050565b6000602082019050818103600083015261125e81611222565b9050919050565b6000819050919050565b6000819050919050565b600061129461128f61128a84611265565b61126f565b610c8f565b9050919050565b6112a481611279565b82525050565b600082825260208201905092915050565b7f3078300000000000000000000000000000000000000000000000000000000000600082015250565b60006112f16003836112aa565b91506112fc826112bb565b602082019050919050565b600060a08201905061131c6000830187610cf5565b6113296020830186610cf5565b6113366040830185610c99565b611343606083018461129b565b8181036080830152611354816112e4565b905095945050505050565b7f4e6577206c697374696e672070726963652063616e6e6f742062652030000000600082015250565b6000611395601d836111c2565b91506113a08261135f565b602082019050919050565b600060208201905081810360008301526113c481611388565b9050919050565b7f596f75206e65656420746f20706179206c697374696e67206665657300000000600082015250565b6000611401601c836111c2565b915061140c826113cb565b602082019050919050565b60006020820190508181036000830152611430816113f4565b9050919050565b7f596f75206e65656420746f2073706563696679206120636f727265637420707260008201527f6963650000000000000000000000000000000000000000000000000000000000602082015250565b60006114936023836111c2565b915061149e82611437565b604082019050919050565b600060208201905081810360008301526114c281611486565b9050919050565b7f4f776e61626c653a206e6577206f776e657220697320746865207a65726f206160008201527f6464726573730000000000000000000000000000000000000000000000000000602082015250565b60006115256026836111c2565b9150611530826114c9565b604082019050919050565b6000602082019050818103600083015261155481611518565b9050919050565b7f4f776e61626c653a2063616c6c6572206973206e6f7420746865206f776e6572600082015250565b60006115916020836111c2565b915061159c8261155b565b602082019050919050565b600060208201905081810360008301526115c081611584565b905091905056fea2646970667358221220f6f7a89389ef5b6479f550318387c4f8e6e07ce8c2768e20d6ba6aaef4267cd364736f6c63430008120033",
  "immutableReferences": {},
  "source": "// SPDX-License-Identifier: MIT\r\npragma solidity ^0.8.18;\r\n\r\nimport \"../../node_modules/@openzeppelin/contracts/token/ERC1155/IERC1155.sol\";\r\nimport \"../../node_modules/@openzeppelin/contracts/utils/Counters.sol\";\r\nimport \"../../node_modules/@openzeppelin/contracts/access/Ownable.sol\";\r\nimport \"../../node_modules/@openzeppelin/contracts/token/ERC1155/utils/ERC1155Holder.sol\";\r\n\r\ncontract AuctionHouse is Ownable, ERC1155Holder {\r\n    using Counters for Counters.Counter;\r\n\r\n    // Only this token address is allowed on this marketplace for now\r\n    address public tokenAddress;\r\n\r\n    //The fee charged by the marketplace to be allowed to list an NFT\r\n    uint256 listingPrice = 0.01 ether;\r\n\r\n    //_itemIds variable has the most recent minted tokenId\r\n    Counters.Counter private _itemIds;\r\n\r\n    // Number of item sold on the marketplace\r\n    Counters.Counter private _itemsSoldCount;\r\n\r\n    // Number of item listed on the marketplace\r\n    Counters.Counter public listedItemsCount;\r\n\r\n    // Lited token Informations\r\n    struct ListedItem {\r\n        uint256 itemId;\r\n        address payable owner;\r\n        address payable seller;\r\n        address buyer;\r\n        uint256 price;\r\n        uint256 deadline;\r\n        bool currentlyListed;\r\n        bool isSold;\r\n    }\r\n\r\n    // Event listing successfull\r\n    event ItemListedSuccess(\r\n        uint256 indexed tokenId,\r\n        address owner,\r\n        address seller,\r\n        uint256 price\r\n    );\r\n\r\n    // Map listedItem by itemId\r\n    mapping(uint256 => ListedItem) private idToListedItem;\r\n\r\n    constructor(address _tokenAddress) {\r\n        // Set the token address in the constructor\r\n        // to only be able to list/buy/sell this specific token\r\n        tokenAddress = _tokenAddress;\r\n    }\r\n\r\n    function updateListingPrice(uint256 newPrice) public payable onlyOwner {\r\n        require(newPrice > 0, \"New listing price cannot be 0\");\r\n        listingPrice = newPrice;\r\n    }\r\n\r\n    function getListingPrice() public view returns (uint256) {\r\n        return listingPrice;\r\n    }\r\n\r\n    // function getLatestIdToListedItem()\r\n    //     public\r\n    //     view\r\n    //     returns (ListedItem memory)\r\n    // {\r\n    //     uint256 currentItemId = _itemIds.current();\r\n    //     return idToListedItem[currentItemId];\r\n    // }\r\n\r\n    // function getListedItemForId(\r\n    //     uint256 tokenId\r\n    // ) public view returns (ListedItem memory) {\r\n    //     return idToListedItem[tokenId];\r\n    // }\r\n\r\n    // function getCurrentItem() public view returns (uint256) {\r\n    //     return _itemIds.current();\r\n    // }\r\n\r\n    function listItem(\r\n        uint256 itemId,\r\n        uint256 sellingPrice,\r\n        uint256 deadline\r\n    ) external payable {\r\n        //Make sure the sender sent enough ETH to pay for listing\r\n        require(msg.value == listingPrice, \"You need to pay listing fees\");\r\n        require(sellingPrice > 0, \"You need to specify a correct price\");\r\n        // require(\r\n        //     _deadline > 3600,\r\n        //     \"The deadline needs to be greater than 1 hour\"\r\n        // );\r\n\r\n        uint256 listedItemCount = listedItemsCount.current();\r\n\r\n        //Update the mapping of tokenId's to Item details, useful for retrieval functions\r\n        idToListedItem[listedItemCount] = ListedItem(\r\n            itemId,\r\n            payable(msg.sender), // owner\r\n            payable(address(this)), // seller\r\n            address(0), // buyer\r\n            sellingPrice,\r\n            deadline,\r\n            true,\r\n            false\r\n        );\r\n\r\n        IERC1155(tokenAddress).safeTransferFrom(\r\n            msg.sender, // from\r\n            address(this), // to\r\n            itemId,\r\n            1,\r\n            \"0x0\"\r\n        );\r\n\r\n        // _marketOwner.transfer(LISTING_FEE);\r\n        listedItemsCount.increment();\r\n\r\n        //Emit the event for successful transfer. The frontend parses this message and updates the end user\r\n        // emit ItemListedSuccess(\r\n        //     tokenId,\r\n        //     address(this),\r\n        //     msg.sender,\r\n        //     price,\r\n        //     true\r\n        // );\r\n    }\r\n\r\n    //This will return all the NFTs currently listed to be sold on the marketplace\r\n    // function getAllNFTs() public view returns (ListedItem[] memory) {\r\n    //     uint nftCount = _itemIds.current();\r\n    //     ListedItem[] memory tokens = new ListedItem[](nftCount);\r\n    //     uint currentIndex = 0;\r\n\r\n    //     //at the moment currentlyListed is true for all, if it becomes false in the future we will\r\n    //     //filter out currentlyListed == false over here\r\n    //     for (uint i = 0; i < nftCount; i++) {\r\n    //         uint currentId = i + 1;\r\n    //         ListedItem storage currentItem = idToListedItem[currentId];\r\n    //         tokens[currentIndex] = currentItem;\r\n    //         currentIndex += 1;\r\n    //     }\r\n    //     //the array 'tokens' has the list of all NFTs in the marketplace\r\n    //     return tokens;\r\n    // }\r\n\r\n    // //Returns all the NFTs that the current user is owner or seller in\r\n    // function getMyNFTs() public view returns (ListedItem[] memory) {\r\n    //     uint totalItemCount = _itemIds.current();\r\n    //     uint itemCount = 0;\r\n    //     uint currentIndex = 0;\r\n\r\n    //     //Important to get a count of all the NFTs that belong to the user before we can make an array for them\r\n    //     for (uint i = 0; i < totalItemCount; i++) {\r\n    //         if (\r\n    //             idToListedItem[i + 1].owner == msg.sender ||\r\n    //             idToListedItem[i + 1].seller == msg.sender\r\n    //         ) {\r\n    //             itemCount += 1;\r\n    //         }\r\n    //     }\r\n\r\n    //     //Once you have the count of relevant NFTs, create an array then store all the NFTs in it\r\n    //     ListedItem[] memory items = new ListedItem[](itemCount);\r\n    //     for (uint i = 0; i < totalItemCount; i++) {\r\n    //         if (\r\n    //             idToListedItem[i + 1].owner == msg.sender ||\r\n    //             idToListedItem[i + 1].seller == msg.sender\r\n    //         ) {\r\n    //             uint currentId = i + 1;\r\n    //             ListedItem storage currentItem = idToListedItem[currentId];\r\n    //             items[currentIndex] = currentItem;\r\n    //             currentIndex += 1;\r\n    //         }\r\n    //     }\r\n    //     return items;\r\n    // }\r\n\r\n    function executeSale(uint256 listedItemId) public payable {\r\n        uint itemPrice = idToListedItem[listedItemId].price;\r\n        address seller = idToListedItem[listedItemId].seller;\r\n\r\n        require(\r\n            msg.value == itemPrice,\r\n            \"Insufficent price value for this item.\"\r\n        );\r\n\r\n        // Update item informations\r\n        idToListedItem[listedItemId].currentlyListed = false;\r\n        idToListedItem[listedItemId].buyer = payable(msg.sender);\r\n        idToListedItem[listedItemId].isSold = true;\r\n\r\n        _itemsSoldCount.increment();\r\n\r\n        // Transfer item to the new owner\r\n        IERC1155(tokenAddress).safeTransferFrom(\r\n            address(this), // from\r\n            msg.sender, // to\r\n            idToListedItem[listedItemId].itemId,\r\n            1,\r\n            \"0x0\"\r\n        );\r\n\r\n        // TODO\r\n        //Transfer the listing fee to the marketplace creator\r\n        // payable(owner).transfer(listPrice);\r\n\r\n        // Transfer money to the seller\r\n        payable(seller).transfer(msg.value);\r\n    }\r\n}\r\n",
  "sourcePath": "C:\\Users\\Alex\\Documents\\Travail\\Alyra\\NG-Marketplace\\truffle\\contracts\\AuctionHouse\\AuctionHouse.sol",
  "compiler": {
    "name": "solc",
    "version": "0.8.18+commit.87f61d96.Emscripten.clang"
  },
  "schemaVersion": "3.4.7",
  "updatedAt": "2023-04-04T09:03:00.706Z",
  "networkType": "ethereum",
  "devdoc": {
    "kind": "dev",
    "methods": {
      "owner()": {
        "details": "Returns the address of the current owner."
      },
      "renounceOwnership()": {
        "details": "Leaves the contract without owner. It will not be possible to call `onlyOwner` functions anymore. Can only be called by the current owner. NOTE: Renouncing ownership will leave the contract without an owner, thereby removing any functionality that is only available to the owner."
      },
      "supportsInterface(bytes4)": {
        "details": "See {IERC165-supportsInterface}."
      },
      "transferOwnership(address)": {
        "details": "Transfers ownership of the contract to a new account (`newOwner`). Can only be called by the current owner."
      }
    },
    "version": 1
  },
  "userdoc": {
    "kind": "user",
    "methods": {},
    "version": 1
  }
}