{
  "contractName": "AuctionHouse",
  "abi": [
    {
      "inputs": [
        {
          "internalType": "address",
          "name": "_tokenAddress",
          "type": "address"
        }
      ],
      "stateMutability": "nonpayable",
      "type": "constructor"
    },
    {
      "anonymous": false,
      "inputs": [
        {
          "indexed": true,
          "internalType": "uint256",
          "name": "tokenId",
          "type": "uint256"
        },
        {
          "indexed": false,
          "internalType": "address",
          "name": "owner",
          "type": "address"
        },
        {
          "indexed": false,
          "internalType": "address",
          "name": "seller",
          "type": "address"
        },
        {
          "indexed": false,
          "internalType": "uint256",
          "name": "price",
          "type": "uint256"
        }
      ],
      "name": "ItemListedSuccess",
      "type": "event"
    },
    {
      "anonymous": false,
      "inputs": [
        {
          "indexed": true,
          "internalType": "address",
          "name": "previousOwner",
          "type": "address"
        },
        {
          "indexed": true,
          "internalType": "address",
          "name": "newOwner",
          "type": "address"
        }
      ],
      "name": "OwnershipTransferred",
      "type": "event"
    },
    {
      "inputs": [
        {
          "internalType": "uint256",
          "name": "",
          "type": "uint256"
        }
      ],
      "name": "listedItems",
      "outputs": [
        {
          "internalType": "uint256",
          "name": "itemId",
          "type": "uint256"
        },
        {
          "internalType": "address payable",
          "name": "owner",
          "type": "address"
        },
        {
          "internalType": "address payable",
          "name": "seller",
          "type": "address"
        },
        {
          "internalType": "address",
          "name": "buyer",
          "type": "address"
        },
        {
          "internalType": "uint256",
          "name": "price",
          "type": "uint256"
        },
        {
          "internalType": "uint256",
          "name": "deadline",
          "type": "uint256"
        },
        {
          "internalType": "bool",
          "name": "currentlyListed",
          "type": "bool"
        },
        {
          "internalType": "bool",
          "name": "isSold",
          "type": "bool"
        }
      ],
      "stateMutability": "view",
      "type": "function",
      "constant": true
    },
    {
      "inputs": [],
      "name": "listedItemsCount",
      "outputs": [
        {
          "internalType": "uint256",
          "name": "_value",
          "type": "uint256"
        }
      ],
      "stateMutability": "view",
      "type": "function",
      "constant": true
    },
    {
      "inputs": [],
      "name": "listingPrice",
      "outputs": [
        {
          "internalType": "uint256",
          "name": "",
          "type": "uint256"
        }
      ],
      "stateMutability": "view",
      "type": "function",
      "constant": true
    },
    {
      "inputs": [
        {
          "internalType": "address",
          "name": "",
          "type": "address"
        },
        {
          "internalType": "address",
          "name": "",
          "type": "address"
        },
        {
          "internalType": "uint256[]",
          "name": "",
          "type": "uint256[]"
        },
        {
          "internalType": "uint256[]",
          "name": "",
          "type": "uint256[]"
        },
        {
          "internalType": "bytes",
          "name": "",
          "type": "bytes"
        }
      ],
      "name": "onERC1155BatchReceived",
      "outputs": [
        {
          "internalType": "bytes4",
          "name": "",
          "type": "bytes4"
        }
      ],
      "stateMutability": "nonpayable",
      "type": "function"
    },
    {
      "inputs": [
        {
          "internalType": "address",
          "name": "",
          "type": "address"
        },
        {
          "internalType": "address",
          "name": "",
          "type": "address"
        },
        {
          "internalType": "uint256",
          "name": "",
          "type": "uint256"
        },
        {
          "internalType": "uint256",
          "name": "",
          "type": "uint256"
        },
        {
          "internalType": "bytes",
          "name": "",
          "type": "bytes"
        }
      ],
      "name": "onERC1155Received",
      "outputs": [
        {
          "internalType": "bytes4",
          "name": "",
          "type": "bytes4"
        }
      ],
      "stateMutability": "nonpayable",
      "type": "function"
    },
    {
      "inputs": [],
      "name": "owner",
      "outputs": [
        {
          "internalType": "address",
          "name": "",
          "type": "address"
        }
      ],
      "stateMutability": "view",
      "type": "function",
      "constant": true
    },
    {
      "inputs": [],
      "name": "renounceOwnership",
      "outputs": [],
      "stateMutability": "nonpayable",
      "type": "function"
    },
    {
      "inputs": [
        {
          "internalType": "bytes4",
          "name": "interfaceId",
          "type": "bytes4"
        }
      ],
      "name": "supportsInterface",
      "outputs": [
        {
          "internalType": "bool",
          "name": "",
          "type": "bool"
        }
      ],
      "stateMutability": "view",
      "type": "function",
      "constant": true
    },
    {
      "inputs": [],
      "name": "tokenAddress",
      "outputs": [
        {
          "internalType": "address",
          "name": "",
          "type": "address"
        }
      ],
      "stateMutability": "view",
      "type": "function",
      "constant": true
    },
    {
      "inputs": [
        {
          "internalType": "address",
          "name": "newOwner",
          "type": "address"
        }
      ],
      "name": "transferOwnership",
      "outputs": [],
      "stateMutability": "nonpayable",
      "type": "function"
    },
    {
      "inputs": [
        {
          "internalType": "uint256",
          "name": "newPrice",
          "type": "uint256"
        }
      ],
      "name": "updateListingPrice",
      "outputs": [],
      "stateMutability": "payable",
      "type": "function",
      "payable": true
    },
    {
      "inputs": [],
      "name": "getListingPrice",
      "outputs": [
        {
          "internalType": "uint256",
          "name": "",
          "type": "uint256"
        }
      ],
      "stateMutability": "view",
      "type": "function",
      "constant": true
    },
    {
      "inputs": [
        {
          "internalType": "uint256",
          "name": "itemId",
          "type": "uint256"
        },
        {
          "internalType": "uint256",
          "name": "sellingPrice",
          "type": "uint256"
        },
        {
          "internalType": "uint256",
          "name": "deadline",
          "type": "uint256"
        }
      ],
      "name": "listItem",
      "outputs": [],
      "stateMutability": "payable",
      "type": "function",
      "payable": true
    },
    {
      "inputs": [
        {
          "internalType": "bool",
          "name": "ownedByCaller",
          "type": "bool"
        },
        {
          "internalType": "bool",
          "name": "stillListed",
          "type": "bool"
        },
        {
          "internalType": "bool",
          "name": "isSold",
          "type": "bool"
        }
      ],
      "name": "getListedItems",
      "outputs": [
        {
          "components": [
            {
              "internalType": "uint256",
              "name": "itemId",
              "type": "uint256"
            },
            {
              "internalType": "address payable",
              "name": "owner",
              "type": "address"
            },
            {
              "internalType": "address payable",
              "name": "seller",
              "type": "address"
            },
            {
              "internalType": "address",
              "name": "buyer",
              "type": "address"
            },
            {
              "internalType": "uint256",
              "name": "price",
              "type": "uint256"
            },
            {
              "internalType": "uint256",
              "name": "deadline",
              "type": "uint256"
            },
            {
              "internalType": "bool",
              "name": "currentlyListed",
              "type": "bool"
            },
            {
              "internalType": "bool",
              "name": "isSold",
              "type": "bool"
            }
          ],
          "internalType": "struct AuctionHouse.ListedItem[]",
          "name": "",
          "type": "tuple[]"
        }
      ],
      "stateMutability": "view",
      "type": "function",
      "constant": true
    },
    {
      "inputs": [
        {
          "internalType": "uint256",
          "name": "listedItemId",
          "type": "uint256"
        }
      ],
      "name": "executeSale",
      "outputs": [],
      "stateMutability": "payable",
      "type": "function",
      "payable": true
    }
  ],
  "bytecode": "0x6080604052662386f26fc100006002553480156200001c57600080fd5b50604051620022db380380620022db8339818101604052810190620000429190620001e0565b6200006262000056620000aa60201b60201c565b620000b260201b60201c565b80600160006101000a81548173ffffffffffffffffffffffffffffffffffffffff021916908373ffffffffffffffffffffffffffffffffffffffff1602179055505062000212565b600033905090565b60008060009054906101000a900473ffffffffffffffffffffffffffffffffffffffff169050816000806101000a81548173ffffffffffffffffffffffffffffffffffffffff021916908373ffffffffffffffffffffffffffffffffffffffff1602179055508173ffffffffffffffffffffffffffffffffffffffff168173ffffffffffffffffffffffffffffffffffffffff167f8be0079c531659141344cd1fd0a4f28419497f9722a3daafe3b4186f6b6457e060405160405180910390a35050565b600080fd5b600073ffffffffffffffffffffffffffffffffffffffff82169050919050565b6000620001a8826200017b565b9050919050565b620001ba816200019b565b8114620001c657600080fd5b50565b600081519050620001da81620001af565b92915050565b600060208284031215620001f957620001f862000176565b5b60006200020984828501620001c9565b91505092915050565b6120b980620002226000396000f3fe6080604052600436106100e75760003560e01c8063ae677aa31161008a578063d234706111610059578063d2347061146102c9578063ec16b94a1461030d578063f23a6e6114610329578063f2fde38b14610366576100e7565b8063ae677aa31461021a578063bc197c8114610236578063c78f19f914610273578063ccb4918d1461029e576100e7565b8063715018a6116100c6578063715018a6146101915780638da5cb5b146101a85780639b1225c4146101d35780639d76ea58146101ef576100e7565b8062ba8382146100ec57806301ffc9a71461012957806312e8558514610166575b600080fd5b3480156100f857600080fd5b50610113600480360381019061010e9190611354565b61038f565b6040516101209190611583565b60405180910390f35b34801561013557600080fd5b50610150600480360381019061014b91906115fd565b610688565b60405161015d9190611639565b60405180910390f35b34801561017257600080fd5b5061017b610702565b6040516101889190611663565b60405180910390f35b34801561019d57600080fd5b506101a661070c565b005b3480156101b457600080fd5b506101bd610720565b6040516101ca919061168d565b60405180910390f35b6101ed60048036038101906101e891906116d4565b610749565b005b3480156101fb57600080fd5b50610204610a2d565b604051610211919061168d565b60405180910390f35b610234600480360381019061022f91906116d4565b610a53565b005b34801561024257600080fd5b5061025d6004803603810190610258919061193b565b610aa8565b60405161026a9190611a19565b60405180910390f35b34801561027f57600080fd5b50610288610abd565b6040516102959190611663565b60405180910390f35b3480156102aa57600080fd5b506102b3610ac3565b6040516102c09190611663565b60405180910390f35b3480156102d557600080fd5b506102f060048036038101906102eb91906116d4565b610acf565b604051610304989796959493929190611a43565b60405180910390f35b61032760048036038101906103229190611ac1565b610ba1565b005b34801561033557600080fd5b50610350600480360381019061034b9190611b14565b61100d565b60405161035d9190611a19565b60405180910390f35b34801561037257600080fd5b5061038d60048036038101906103889190611bab565b611022565b005b6060600061039d60046110a5565b67ffffffffffffffff8111156103b6576103b5611743565b5b6040519080825280602002602001820160405280156103ef57816020015b6103dc61127d565b8152602001906001900390816103d45790505b5090506000805b61040060046110a5565b81101561067b5760006006828154811061041d5761041c611bd8565b5b906000526020600020906007020190508715610491573373ffffffffffffffffffffffffffffffffffffffff168160010160009054906101000a900473ffffffffffffffffffffffffffffffffffffffff1673ffffffffffffffffffffffffffffffffffffffff16146104905750610668565b5b86156104b4578060060160009054906101000a900460ff166104b35750610668565b5b85156104d7578060060160019054906101000a900460ff166104d65750610668565b5b8060405180610100016040529081600082015481526020016001820160009054906101000a900473ffffffffffffffffffffffffffffffffffffffff1673ffffffffffffffffffffffffffffffffffffffff1673ffffffffffffffffffffffffffffffffffffffff1681526020016002820160009054906101000a900473ffffffffffffffffffffffffffffffffffffffff1673ffffffffffffffffffffffffffffffffffffffff1673ffffffffffffffffffffffffffffffffffffffff1681526020016003820160009054906101000a900473ffffffffffffffffffffffffffffffffffffffff1673ffffffffffffffffffffffffffffffffffffffff1673ffffffffffffffffffffffffffffffffffffffff16815260200160048201548152602001600582015481526020016006820160009054906101000a900460ff161515151581526020016006820160019054906101000a900460ff16151515158152505084848151811061064d5761064c611bd8565b5b6020026020010181905250828061066390611c36565b935050505b808061067390611c36565b9150506103f6565b5081925050509392505050565b60007f4e2312e0000000000000000000000000000000000000000000000000000000007bffffffffffffffffffffffffffffffffffffffffffffffffffffffff1916827bffffffffffffffffffffffffffffffffffffffffffffffffffffffff191614806106fb57506106fa826110b3565b5b9050919050565b6000600254905090565b61071461111d565b61071e600061119b565b565b60008060009054906101000a900473ffffffffffffffffffffffffffffffffffffffff16905090565b60006005600083815260200190815260200160002060040154905060006005600084815260200190815260200160002060020160009054906101000a900473ffffffffffffffffffffffffffffffffffffffff1690508134146107e1576040517f08c379a00000000000000000000000000000000000000000000000000000000081526004016107d890611d01565b60405180910390fd5b60006005600085815260200190815260200160002060060160006101000a81548160ff021916908315150217905550336005600085815260200190815260200160002060030160006101000a81548173ffffffffffffffffffffffffffffffffffffffff021916908373ffffffffffffffffffffffffffffffffffffffff16021790555060016005600085815260200190815260200160002060060160016101000a81548160ff0219169083151502179055506000600684815481106108aa576108a9611bd8565b5b906000526020600020906007020160060160006101000a81548160ff02191690831515021790555033600684815481106108e7576108e6611bd8565b5b906000526020600020906007020160030160006101000a81548173ffffffffffffffffffffffffffffffffffffffff021916908373ffffffffffffffffffffffffffffffffffffffff16021790555060016006848154811061094c5761094b611bd8565b5b906000526020600020906007020160060160016101000a81548160ff02191690831515021790555061097e600361125f565b600160009054906101000a900473ffffffffffffffffffffffffffffffffffffffff1673ffffffffffffffffffffffffffffffffffffffff1663f242432a3033600560008881526020019081526020016000206000015460016040518563ffffffff1660e01b81526004016109f69493929190611dc3565b600060405180830381600087803b158015610a1057600080fd5b505af1158015610a24573d6000803e3d6000fd5b50505050505050565b600160009054906101000a900473ffffffffffffffffffffffffffffffffffffffff1681565b610a5b61111d565b60008111610a9e576040517f08c379a0000000000000000000000000000000000000000000000000000000008152600401610a9590611e67565b60405180910390fd5b8060028190555050565b600063bc197c8160e01b905095945050505050565b60025481565b60048060000154905081565b60068181548110610adf57600080fd5b90600052602060002090600702016000915090508060000154908060010160009054906101000a900473ffffffffffffffffffffffffffffffffffffffff16908060020160009054906101000a900473ffffffffffffffffffffffffffffffffffffffff16908060030160009054906101000a900473ffffffffffffffffffffffffffffffffffffffff16908060040154908060050154908060060160009054906101000a900460ff16908060060160019054906101000a900460ff16905088565b6002543414610be5576040517f08c379a0000000000000000000000000000000000000000000000000000000008152600401610bdc90611ed3565b60405180910390fd5b60008211610c28576040517f08c379a0000000000000000000000000000000000000000000000000000000008152600401610c1f90611f65565b60405180910390fd5b6000610c3460046110a5565b905060006040518061010001604052808681526020013373ffffffffffffffffffffffffffffffffffffffff1681526020013073ffffffffffffffffffffffffffffffffffffffff168152602001600073ffffffffffffffffffffffffffffffffffffffff16815260200185815260200184815260200160011515815260200160001515815250905080600560008481526020019081526020016000206000820151816000015560208201518160010160006101000a81548173ffffffffffffffffffffffffffffffffffffffff021916908373ffffffffffffffffffffffffffffffffffffffff16021790555060408201518160020160006101000a81548173ffffffffffffffffffffffffffffffffffffffff021916908373ffffffffffffffffffffffffffffffffffffffff16021790555060608201518160030160006101000a81548173ffffffffffffffffffffffffffffffffffffffff021916908373ffffffffffffffffffffffffffffffffffffffff1602179055506080820151816004015560a0820151816005015560c08201518160060160006101000a81548160ff02191690831515021790555060e08201518160060160016101000a81548160ff02191690831515021790555090505060068190806001815401808255809150506001900390600052602060002090600702016000909190919091506000820151816000015560208201518160010160006101000a81548173ffffffffffffffffffffffffffffffffffffffff021916908373ffffffffffffffffffffffffffffffffffffffff16021790555060408201518160020160006101000a81548173ffffffffffffffffffffffffffffffffffffffff021916908373ffffffffffffffffffffffffffffffffffffffff16021790555060608201518160030160006101000a81548173ffffffffffffffffffffffffffffffffffffffff021916908373ffffffffffffffffffffffffffffffffffffffff1602179055506080820151816004015560a0820151816005015560c08201518160060160006101000a81548160ff02191690831515021790555060e08201518160060160016101000a81548160ff0219169083151502179055505050600160009054906101000a900473ffffffffffffffffffffffffffffffffffffffff1673ffffffffffffffffffffffffffffffffffffffff1663f242432a33308860016040518563ffffffff1660e01b8152600401610fca9493929190611dc3565b600060405180830381600087803b158015610fe457600080fd5b505af1158015610ff8573d6000803e3d6000fd5b50505050611006600461125f565b5050505050565b600063f23a6e6160e01b905095945050505050565b61102a61111d565b600073ffffffffffffffffffffffffffffffffffffffff168173ffffffffffffffffffffffffffffffffffffffff1603611099576040517f08c379a000000000000000000000000000000000000000000000000000000000815260040161109090611ff7565b60405180910390fd5b6110a28161119b565b50565b600081600001549050919050565b60007f01ffc9a7000000000000000000000000000000000000000000000000000000007bffffffffffffffffffffffffffffffffffffffffffffffffffffffff1916827bffffffffffffffffffffffffffffffffffffffffffffffffffffffff1916149050919050565b611125611275565b73ffffffffffffffffffffffffffffffffffffffff16611143610720565b73ffffffffffffffffffffffffffffffffffffffff1614611199576040517f08c379a000000000000000000000000000000000000000000000000000000000815260040161119090612063565b60405180910390fd5b565b60008060009054906101000a900473ffffffffffffffffffffffffffffffffffffffff169050816000806101000a81548173ffffffffffffffffffffffffffffffffffffffff021916908373ffffffffffffffffffffffffffffffffffffffff1602179055508173ffffffffffffffffffffffffffffffffffffffff168173ffffffffffffffffffffffffffffffffffffffff167f8be0079c531659141344cd1fd0a4f28419497f9722a3daafe3b4186f6b6457e060405160405180910390a35050565b6001816000016000828254019250508190555050565b600033905090565b60405180610100016040528060008152602001600073ffffffffffffffffffffffffffffffffffffffff168152602001600073ffffffffffffffffffffffffffffffffffffffff168152602001600073ffffffffffffffffffffffffffffffffffffffff16815260200160008152602001600081526020016000151581526020016000151581525090565b6000604051905090565b600080fd5b600080fd5b60008115159050919050565b6113318161131c565b811461133c57600080fd5b50565b60008135905061134e81611328565b92915050565b60008060006060848603121561136d5761136c611312565b5b600061137b8682870161133f565b935050602061138c8682870161133f565b925050604061139d8682870161133f565b9150509250925092565b600081519050919050565b600082825260208201905092915050565b6000819050602082019050919050565b6000819050919050565b6113e6816113d3565b82525050565b600073ffffffffffffffffffffffffffffffffffffffff82169050919050565b6000611417826113ec565b9050919050565b6114278161140c565b82525050565b6000611438826113ec565b9050919050565b6114488161142d565b82525050565b6114578161131c565b82525050565b6101008201600082015161147460008501826113dd565b506020820151611487602085018261141e565b50604082015161149a604085018261141e565b5060608201516114ad606085018261143f565b5060808201516114c060808501826113dd565b5060a08201516114d360a08501826113dd565b5060c08201516114e660c085018261144e565b5060e08201516114f960e085018261144e565b50505050565b600061150b838361145d565b6101008301905092915050565b6000602082019050919050565b6000611530826113a7565b61153a81856113b2565b9350611545836113c3565b8060005b8381101561157657815161155d88826114ff565b975061156883611518565b925050600181019050611549565b5085935050505092915050565b6000602082019050818103600083015261159d8184611525565b905092915050565b60007fffffffff0000000000000000000000000000000000000000000000000000000082169050919050565b6115da816115a5565b81146115e557600080fd5b50565b6000813590506115f7816115d1565b92915050565b60006020828403121561161357611612611312565b5b6000611621848285016115e8565b91505092915050565b6116338161131c565b82525050565b600060208201905061164e600083018461162a565b92915050565b61165d816113d3565b82525050565b60006020820190506116786000830184611654565b92915050565b6116878161142d565b82525050565b60006020820190506116a2600083018461167e565b92915050565b6116b1816113d3565b81146116bc57600080fd5b50565b6000813590506116ce816116a8565b92915050565b6000602082840312156116ea576116e9611312565b5b60006116f8848285016116bf565b91505092915050565b61170a8161142d565b811461171557600080fd5b50565b60008135905061172781611701565b92915050565b600080fd5b6000601f19601f8301169050919050565b7f4e487b7100000000000000000000000000000000000000000000000000000000600052604160045260246000fd5b61177b82611732565b810181811067ffffffffffffffff8211171561179a57611799611743565b5b80604052505050565b60006117ad611308565b90506117b98282611772565b919050565b600067ffffffffffffffff8211156117d9576117d8611743565b5b602082029050602081019050919050565b600080fd5b60006118026117fd846117be565b6117a3565b90508083825260208201905060208402830185811115611825576118246117ea565b5b835b8181101561184e578061183a88826116bf565b845260208401935050602081019050611827565b5050509392505050565b600082601f83011261186d5761186c61172d565b5b813561187d8482602086016117ef565b91505092915050565b600080fd5b600067ffffffffffffffff8211156118a6576118a5611743565b5b6118af82611732565b9050602081019050919050565b82818337600083830152505050565b60006118de6118d98461188b565b6117a3565b9050828152602081018484840111156118fa576118f9611886565b5b6119058482856118bc565b509392505050565b600082601f8301126119225761192161172d565b5b81356119328482602086016118cb565b91505092915050565b600080600080600060a0868803121561195757611956611312565b5b600061196588828901611718565b955050602061197688828901611718565b945050604086013567ffffffffffffffff81111561199757611996611317565b5b6119a388828901611858565b935050606086013567ffffffffffffffff8111156119c4576119c3611317565b5b6119d088828901611858565b925050608086013567ffffffffffffffff8111156119f1576119f0611317565b5b6119fd8882890161190d565b9150509295509295909350565b611a13816115a5565b82525050565b6000602082019050611a2e6000830184611a0a565b92915050565b611a3d8161140c565b82525050565b600061010082019050611a59600083018b611654565b611a66602083018a611a34565b611a736040830189611a34565b611a80606083018861167e565b611a8d6080830187611654565b611a9a60a0830186611654565b611aa760c083018561162a565b611ab460e083018461162a565b9998505050505050505050565b600080600060608486031215611ada57611ad9611312565b5b6000611ae8868287016116bf565b9350506020611af9868287016116bf565b9250506040611b0a868287016116bf565b9150509250925092565b600080600080600060a08688031215611b3057611b2f611312565b5b6000611b3e88828901611718565b9550506020611b4f88828901611718565b9450506040611b60888289016116bf565b9350506060611b71888289016116bf565b925050608086013567ffffffffffffffff811115611b9257611b91611317565b5b611b9e8882890161190d565b9150509295509295909350565b600060208284031215611bc157611bc0611312565b5b6000611bcf84828501611718565b91505092915050565b7f4e487b7100000000000000000000000000000000000000000000000000000000600052603260045260246000fd5b7f4e487b7100000000000000000000000000000000000000000000000000000000600052601160045260246000fd5b6000611c41826113d3565b91507fffffffffffffffffffffffffffffffffffffffffffffffffffffffffffffffff8203611c7357611c72611c07565b5b600182019050919050565b600082825260208201905092915050565b7f496e737566666963656e742070726963652076616c756520666f72207468697360008201527f206974656d2e0000000000000000000000000000000000000000000000000000602082015250565b6000611ceb602683611c7e565b9150611cf682611c8f565b604082019050919050565b60006020820190508181036000830152611d1a81611cde565b9050919050565b6000819050919050565b6000819050919050565b6000611d50611d4b611d4684611d21565b611d2b565b6113d3565b9050919050565b611d6081611d35565b82525050565b600082825260208201905092915050565b7f3078300000000000000000000000000000000000000000000000000000000000600082015250565b6000611dad600383611d66565b9150611db882611d77565b602082019050919050565b600060a082019050611dd8600083018761167e565b611de5602083018661167e565b611df26040830185611654565b611dff6060830184611d57565b8181036080830152611e1081611da0565b905095945050505050565b7f4e6577206c697374696e672070726963652063616e6e6f742062652030000000600082015250565b6000611e51601d83611c7e565b9150611e5c82611e1b565b602082019050919050565b60006020820190508181036000830152611e8081611e44565b9050919050565b7f596f75206e65656420746f20706179206c697374696e67206665657300000000600082015250565b6000611ebd601c83611c7e565b9150611ec882611e87565b602082019050919050565b60006020820190508181036000830152611eec81611eb0565b9050919050565b7f596f75206e65656420746f2073706563696679206120636f727265637420707260008201527f6963650000000000000000000000000000000000000000000000000000000000602082015250565b6000611f4f602383611c7e565b9150611f5a82611ef3565b604082019050919050565b60006020820190508181036000830152611f7e81611f42565b9050919050565b7f4f776e61626c653a206e6577206f776e657220697320746865207a65726f206160008201527f6464726573730000000000000000000000000000000000000000000000000000602082015250565b6000611fe1602683611c7e565b9150611fec82611f85565b604082019050919050565b6000602082019050818103600083015261201081611fd4565b9050919050565b7f4f776e61626c653a2063616c6c6572206973206e6f7420746865206f776e6572600082015250565b600061204d602083611c7e565b915061205882612017565b602082019050919050565b6000602082019050818103600083015261207c81612040565b905091905056fea26469706673582212203c4a7d4f176dcdfed56cf5b78e6871c27ba70e6eba2ee4fe303adcb5fdaabeb964736f6c63430008120033",
  "immutableReferences": {},
  "source": "// SPDX-License-Identifier: MIT\r\npragma solidity ^0.8.18;\r\n\r\nimport \"../../node_modules/@openzeppelin/contracts/token/ERC1155/IERC1155.sol\";\r\nimport \"../../node_modules/@openzeppelin/contracts/utils/Counters.sol\";\r\nimport \"../../node_modules/@openzeppelin/contracts/access/Ownable.sol\";\r\nimport \"../../node_modules/@openzeppelin/contracts/token/ERC1155/utils/ERC1155Holder.sol\";\r\n\r\ncontract AuctionHouse is Ownable, ERC1155Holder {\r\n    using Counters for Counters.Counter;\r\n\r\n    // Only this token address is allowed on this marketplace for now\r\n    address public tokenAddress;\r\n\r\n    //The fee charged by the marketplace to be allowed to list an NFT\r\n    uint256 public listingPrice = 0.01 ether;\r\n\r\n    // uint floorPrice\r\n\r\n    // Number of item sold on the marketplace\r\n    Counters.Counter private _itemsSoldCount;\r\n\r\n    // Number of item listed on the marketplace\r\n    Counters.Counter public listedItemsCount;\r\n\r\n    // Lited token Informations\r\n    struct ListedItem {\r\n        uint256 itemId;\r\n        address payable owner;\r\n        address payable seller;\r\n        address buyer;\r\n        uint256 price;\r\n        uint256 deadline;\r\n        bool currentlyListed;\r\n        bool isSold;\r\n    }\r\n\r\n    // Event listing successfull\r\n    event ItemListedSuccess(\r\n        uint256 indexed tokenId,\r\n        address owner,\r\n        address seller,\r\n        uint256 price\r\n    );\r\n\r\n    // Map listedItem by itemId\r\n    mapping(uint256 => ListedItem) private idToListedItem;\r\n\r\n    ListedItem[] public listedItems;\r\n\r\n    constructor(address _tokenAddress) {\r\n        // Set the token address in the constructor\r\n        // to only be able to list/buy/sell this specific token\r\n        tokenAddress = _tokenAddress;\r\n    }\r\n\r\n    function updateListingPrice(uint256 newPrice) external payable onlyOwner {\r\n        require(newPrice > 0, \"New listing price cannot be 0\");\r\n        listingPrice = newPrice;\r\n    }\r\n\r\n    function getListingPrice() external view returns (uint256) {\r\n        return listingPrice;\r\n    }\r\n\r\n    // function getLatestIdToListedItem()\r\n    //     public\r\n    //     view\r\n    //     returns (ListedItem memory)\r\n    // {\r\n    //     uint256 currentItemId = _itemIds.current();\r\n    //     return idToListedItem[currentItemId];\r\n    // }\r\n\r\n    // function getListedItemForId(\r\n    //     uint256 tokenId\r\n    // ) public view returns (ListedItem memory) {\r\n    //     return idToListedItem[tokenId];\r\n    // }\r\n\r\n    // function getCurrentItem() public view returns (uint256) {\r\n    //     return _itemIds.current();\r\n    // }\r\n\r\n    function listItem(\r\n        uint256 itemId,\r\n        uint256 sellingPrice,\r\n        uint256 deadline\r\n    ) external payable {\r\n        //Make sure the sender sent enough ETH to pay for listing\r\n        require(msg.value == listingPrice, \"You need to pay listing fees\");\r\n        require(sellingPrice > 0, \"You need to specify a correct price\");\r\n        // require(\r\n        //     _deadline > 3600,\r\n        //     \"The deadline needs to be greater than 1 hour\"\r\n        // );\r\n\r\n        uint256 listedItemCount = listedItemsCount.current();\r\n\r\n        ListedItem memory newListedItem = ListedItem(\r\n            itemId,\r\n            payable(msg.sender), // owner\r\n            payable(address(this)), // seller\r\n            address(0), // buyer\r\n            sellingPrice,\r\n            deadline,\r\n            true,\r\n            false\r\n        );\r\n\r\n        //Update the mapping of tokenId's to Item details, useful for retrieval functions\r\n        idToListedItem[listedItemCount] = newListedItem;\r\n        listedItems.push(newListedItem);\r\n\r\n        IERC1155(tokenAddress).safeTransferFrom(\r\n            msg.sender, // from\r\n            address(this), // to\r\n            itemId,\r\n            1,\r\n            \"0x0\"\r\n        );\r\n\r\n        // _marketOwner.transfer(LISTING_FEE);\r\n        listedItemsCount.increment();\r\n\r\n        //Emit the event for successful transfer. The frontend parses this message and updates the end user\r\n        // emit ItemListedSuccess(\r\n        //     tokenId,\r\n        //     address(this),\r\n        //     msg.sender,\r\n        //     price,\r\n        //     true\r\n        // );\r\n    }\r\n\r\n    // This will return all the NFTs currently listed to be sold on the marketplace\r\n    function getListedItems(\r\n        bool ownedByCaller,\r\n        bool stillListed,\r\n        bool isSold\r\n    ) public view returns (ListedItem[] memory) {\r\n        ListedItem[] memory filteredListedItems = new ListedItem[](\r\n            listedItemsCount.current()\r\n        );\r\n        uint filteredListedItemIndex = 0;\r\n\r\n        for (uint i = 0; i < listedItemsCount.current(); i++) {\r\n            ListedItem storage listedItem = listedItems[i];\r\n\r\n            if (ownedByCaller) {\r\n                if (listedItem.owner != msg.sender) {\r\n                    continue;\r\n                }\r\n            }\r\n\r\n            // item can be not listed and not sold if the user cancel the listing\r\n\r\n            if (stillListed) {\r\n                if (!listedItem.currentlyListed) {\r\n                    continue;\r\n                }\r\n            }\r\n\r\n            if (isSold) {\r\n                if (!listedItem.isSold) {\r\n                    continue;\r\n                }\r\n            }\r\n\r\n            filteredListedItems[filteredListedItemIndex] = listedItem;\r\n            filteredListedItemIndex++;\r\n\r\n            // uint currentId = i + 1;\r\n            // ListedItem storage currentItem = idToListedItem[currentId];\r\n            // tokens[currentIndex] = currentItem;\r\n            // currentIndex += 1;\r\n        }\r\n\r\n        return filteredListedItems;\r\n    }\r\n\r\n    // //Returns all the NFTs that the current user is owner or seller in\r\n    // function getMyNFTs() public view returns (ListedItem[] memory) {\r\n    //     uint totalItemCount = _itemIds.current();\r\n    //     uint itemCount = 0;\r\n    //     uint currentIndex = 0;\r\n\r\n    //     //Important to get a count of all the NFTs that belong to the user before we can make an array for them\r\n    //     for (uint i = 0; i < totalItemCount; i++) {\r\n    //         if (\r\n    //             idToListedItem[i + 1].owner == msg.sender ||\r\n    //             idToListedItem[i + 1].seller == msg.sender\r\n    //         ) {\r\n    //             itemCount += 1;\r\n    //         }\r\n    //     }\r\n\r\n    //     //Once you have the count of relevant NFTs, create an array then store all the NFTs in it\r\n    //     ListedItem[] memory items = new ListedItem[](itemCount);\r\n    //     for (uint i = 0; i < totalItemCount; i++) {\r\n    //         if (\r\n    //             idToListedItem[i + 1].owner == msg.sender ||\r\n    //             idToListedItem[i + 1].seller == msg.sender\r\n    //         ) {\r\n    //             uint currentId = i + 1;\r\n    //             ListedItem storage currentItem = idToListedItem[currentId];\r\n    //             items[currentIndex] = currentItem;\r\n    //             currentIndex += 1;\r\n    //         }\r\n    //     }\r\n    //     return items;\r\n    // }\r\n\r\n    function executeSale(uint256 listedItemId) public payable {\r\n        uint itemPrice = idToListedItem[listedItemId].price;\r\n        address seller = idToListedItem[listedItemId].seller;\r\n\r\n        require(\r\n            msg.value == itemPrice,\r\n            \"Insufficent price value for this item.\"\r\n        );\r\n\r\n        // Update item informations\r\n        idToListedItem[listedItemId].currentlyListed = false;\r\n        idToListedItem[listedItemId].buyer = payable(msg.sender);\r\n        idToListedItem[listedItemId].isSold = true;\r\n\r\n        listedItems[listedItemId].currentlyListed = false;\r\n        listedItems[listedItemId].buyer = payable(msg.sender);\r\n        listedItems[listedItemId].isSold = true;\r\n\r\n        _itemsSoldCount.increment();\r\n\r\n        // Transfer item to the new owner\r\n        IERC1155(tokenAddress).safeTransferFrom(\r\n            address(this), // from\r\n            msg.sender, // to\r\n            idToListedItem[listedItemId].itemId,\r\n            1,\r\n            \"0x0\"\r\n        );\r\n\r\n        // // TODO\r\n        // //Transfer the listing fee to the marketplace creator\r\n        // // payable(owner).transfer(listPrice);\r\n\r\n        // // Transfer money to the seller\r\n        // payable(seller).transfer(msg.value);\r\n    }\r\n}\r\n",
  "sourcePath": "C:\\Users\\Alex\\Documents\\Travail\\Alyra\\NG-Marketplace\\truffle\\contracts\\AuctionHouse\\AuctionHouse.sol",
  "compiler": {
    "name": "solc",
    "version": "0.8.18+commit.87f61d96.Emscripten.clang"
  },
  "schemaVersion": "3.4.7",
  "updatedAt": "2023-04-08T07:20:59.211Z",
  "networkType": "ethereum",
  "devdoc": {
    "kind": "dev",
    "methods": {
      "owner()": {
        "details": "Returns the address of the current owner."
      },
      "renounceOwnership()": {
        "details": "Leaves the contract without owner. It will not be possible to call `onlyOwner` functions anymore. Can only be called by the current owner. NOTE: Renouncing ownership will leave the contract without an owner, thereby removing any functionality that is only available to the owner."
      },
      "supportsInterface(bytes4)": {
        "details": "See {IERC165-supportsInterface}."
      },
      "transferOwnership(address)": {
        "details": "Transfers ownership of the contract to a new account (`newOwner`). Can only be called by the current owner."
      }
    },
    "version": 1
  },
  "userdoc": {
    "kind": "user",
    "methods": {},
    "version": 1
  }
}