{
  "contractName": "AuctionHouse",
  "abi": [
    {
      "inputs": [
        {
          "internalType": "address",
          "name": "_tokenAddress",
          "type": "address"
        }
      ],
      "stateMutability": "nonpayable",
      "type": "constructor"
    },
    {
      "anonymous": false,
      "inputs": [
        {
          "indexed": true,
          "internalType": "address",
          "name": "previousOwner",
          "type": "address"
        },
        {
          "indexed": true,
          "internalType": "address",
          "name": "newOwner",
          "type": "address"
        }
      ],
      "name": "OwnershipTransferred",
      "type": "event"
    },
    {
      "inputs": [],
      "name": "listedItemsCount",
      "outputs": [
        {
          "internalType": "uint256",
          "name": "_value",
          "type": "uint256"
        }
      ],
      "stateMutability": "view",
      "type": "function",
      "constant": true
    },
    {
      "inputs": [
        {
          "internalType": "address",
          "name": "",
          "type": "address"
        },
        {
          "internalType": "address",
          "name": "",
          "type": "address"
        },
        {
          "internalType": "uint256[]",
          "name": "",
          "type": "uint256[]"
        },
        {
          "internalType": "uint256[]",
          "name": "",
          "type": "uint256[]"
        },
        {
          "internalType": "bytes",
          "name": "",
          "type": "bytes"
        }
      ],
      "name": "onERC1155BatchReceived",
      "outputs": [
        {
          "internalType": "bytes4",
          "name": "",
          "type": "bytes4"
        }
      ],
      "stateMutability": "nonpayable",
      "type": "function"
    },
    {
      "inputs": [
        {
          "internalType": "address",
          "name": "",
          "type": "address"
        },
        {
          "internalType": "address",
          "name": "",
          "type": "address"
        },
        {
          "internalType": "uint256",
          "name": "",
          "type": "uint256"
        },
        {
          "internalType": "uint256",
          "name": "",
          "type": "uint256"
        },
        {
          "internalType": "bytes",
          "name": "",
          "type": "bytes"
        }
      ],
      "name": "onERC1155Received",
      "outputs": [
        {
          "internalType": "bytes4",
          "name": "",
          "type": "bytes4"
        }
      ],
      "stateMutability": "nonpayable",
      "type": "function"
    },
    {
      "inputs": [],
      "name": "owner",
      "outputs": [
        {
          "internalType": "address",
          "name": "",
          "type": "address"
        }
      ],
      "stateMutability": "view",
      "type": "function",
      "constant": true
    },
    {
      "inputs": [],
      "name": "renounceOwnership",
      "outputs": [],
      "stateMutability": "nonpayable",
      "type": "function"
    },
    {
      "inputs": [
        {
          "internalType": "bytes4",
          "name": "interfaceId",
          "type": "bytes4"
        }
      ],
      "name": "supportsInterface",
      "outputs": [
        {
          "internalType": "bool",
          "name": "",
          "type": "bool"
        }
      ],
      "stateMutability": "view",
      "type": "function",
      "constant": true
    },
    {
      "inputs": [],
      "name": "tokenAddress",
      "outputs": [
        {
          "internalType": "address",
          "name": "",
          "type": "address"
        }
      ],
      "stateMutability": "view",
      "type": "function",
      "constant": true
    },
    {
      "inputs": [
        {
          "internalType": "address",
          "name": "newOwner",
          "type": "address"
        }
      ],
      "name": "transferOwnership",
      "outputs": [],
      "stateMutability": "nonpayable",
      "type": "function"
    },
    {
      "inputs": [
        {
          "internalType": "uint256",
          "name": "itemId",
          "type": "uint256"
        },
        {
          "internalType": "uint256",
          "name": "price",
          "type": "uint256"
        },
        {
          "internalType": "uint256",
          "name": "deadline",
          "type": "uint256"
        }
      ],
      "name": "listItem",
      "outputs": [],
      "stateMutability": "nonpayable",
      "type": "function"
    },
    {
      "inputs": [
        {
          "internalType": "uint256",
          "name": "listedItemId",
          "type": "uint256"
        }
      ],
      "name": "executeSale",
      "outputs": [],
      "stateMutability": "payable",
      "type": "function",
      "payable": true
    }
  ],
  "bytecode": "0x6080604052662386f26fc100006003553480156200001c57600080fd5b5060405162001377380380620013778339818101604052810190620000429190620001e0565b6200006262000056620000aa60201b60201c565b620000b260201b60201c565b80600460006101000a81548173ffffffffffffffffffffffffffffffffffffffff021916908373ffffffffffffffffffffffffffffffffffffffff1602179055505062000212565b600033905090565b60008060009054906101000a900473ffffffffffffffffffffffffffffffffffffffff169050816000806101000a81548173ffffffffffffffffffffffffffffffffffffffff021916908373ffffffffffffffffffffffffffffffffffffffff1602179055508173ffffffffffffffffffffffffffffffffffffffff168173ffffffffffffffffffffffffffffffffffffffff167f8be0079c531659141344cd1fd0a4f28419497f9722a3daafe3b4186f6b6457e060405160405180910390a35050565b600080fd5b600073ffffffffffffffffffffffffffffffffffffffff82169050919050565b6000620001a8826200017b565b9050919050565b620001ba816200019b565b8114620001c657600080fd5b50565b600081519050620001da81620001af565b92915050565b600060208284031215620001f957620001f862000176565b5b60006200020984828501620001c9565b91505092915050565b61115580620002226000396000f3fe6080604052600436106100915760003560e01c8063bc197c8111610059578063bc197c811461015c578063ccb4918d14610199578063ec16b94a146101c4578063f23a6e61146101ed578063f2fde38b1461022a57610091565b806301ffc9a714610096578063715018a6146100d35780638da5cb5b146100ea5780639b1225c4146101155780639d76ea5814610131575b600080fd5b3480156100a257600080fd5b506100bd60048036038101906100b89190610980565b610253565b6040516100ca91906109c8565b60405180910390f35b3480156100df57600080fd5b506100e86102cd565b005b3480156100f657600080fd5b506100ff6102e1565b60405161010c9190610a24565b60405180910390f35b61012f600480360381019061012a9190610a75565b61030a565b005b34801561013d57600080fd5b5061014661046d565b6040516101539190610a24565b60405180910390f35b34801561016857600080fd5b50610183600480360381019061017e9190610cdc565b610493565b6040516101909190610dba565b60405180910390f35b3480156101a557600080fd5b506101ae6104a8565b6040516101bb9190610de4565b60405180910390f35b3480156101d057600080fd5b506101eb60048036038101906101e69190610dff565b6104b4565b005b3480156101f957600080fd5b50610214600480360381019061020f9190610e52565b6106a4565b6040516102219190610dba565b60405180910390f35b34801561023657600080fd5b50610251600480360381019061024c9190610ee9565b6106b9565b005b60007f4e2312e0000000000000000000000000000000000000000000000000000000007bffffffffffffffffffffffffffffffffffffffffffffffffffffffff1916827bffffffffffffffffffffffffffffffffffffffffffffffffffffffff191614806102c657506102c58261073c565b5b9050919050565b6102d56107a6565b6102df6000610824565b565b60008060009054906101000a900473ffffffffffffffffffffffffffffffffffffffff16905090565b60016006600083815260200190815260200160002060050160006101000a81548160ff02191690831515021790555061034360026108e8565b600460009054906101000a900473ffffffffffffffffffffffffffffffffffffffff1673ffffffffffffffffffffffffffffffffffffffff1663f242432a3033600660008681526020019081526020016000206000015460016040518563ffffffff1660e01b81526004016103bb9493929190610fb8565b600060405180830381600087803b1580156103d557600080fd5b505af11580156103e9573d6000803e3d6000fd5b505050506006600082815260200190815260200160002060020160009054906101000a900473ffffffffffffffffffffffffffffffffffffffff1673ffffffffffffffffffffffffffffffffffffffff166108fc349081150290604051600060405180830381858888f19350505050158015610469573d6000803e3d6000fd5b5050565b600460009054906101000a900473ffffffffffffffffffffffffffffffffffffffff1681565b600063bc197c8160e01b905095945050505050565b60058060000154905081565b60006104c060056108fe565b90506040518060c001604052808581526020013073ffffffffffffffffffffffffffffffffffffffff1681526020013373ffffffffffffffffffffffffffffffffffffffff16815260200184815260200183815260200160011515815250600660008381526020019081526020016000206000820151816000015560208201518160010160006101000a81548173ffffffffffffffffffffffffffffffffffffffff021916908373ffffffffffffffffffffffffffffffffffffffff16021790555060408201518160020160006101000a81548173ffffffffffffffffffffffffffffffffffffffff021916908373ffffffffffffffffffffffffffffffffffffffff160217905550606082015181600301556080820151816004015560a08201518160050160006101000a81548160ff021916908315150217905550905050600460009054906101000a900473ffffffffffffffffffffffffffffffffffffffff1673ffffffffffffffffffffffffffffffffffffffff1663f242432a33308760016040518563ffffffff1660e01b81526004016106629493929190610fb8565b600060405180830381600087803b15801561067c57600080fd5b505af1158015610690573d6000803e3d6000fd5b5050505061069e60056108e8565b50505050565b600063f23a6e6160e01b905095945050505050565b6106c16107a6565b600073ffffffffffffffffffffffffffffffffffffffff168173ffffffffffffffffffffffffffffffffffffffff1603610730576040517f08c379a000000000000000000000000000000000000000000000000000000000815260040161072790611093565b60405180910390fd5b61073981610824565b50565b60007f01ffc9a7000000000000000000000000000000000000000000000000000000007bffffffffffffffffffffffffffffffffffffffffffffffffffffffff1916827bffffffffffffffffffffffffffffffffffffffffffffffffffffffff1916149050919050565b6107ae61090c565b73ffffffffffffffffffffffffffffffffffffffff166107cc6102e1565b73ffffffffffffffffffffffffffffffffffffffff1614610822576040517f08c379a0000000000000000000000000000000000000000000000000000000008152600401610819906110ff565b60405180910390fd5b565b60008060009054906101000a900473ffffffffffffffffffffffffffffffffffffffff169050816000806101000a81548173ffffffffffffffffffffffffffffffffffffffff021916908373ffffffffffffffffffffffffffffffffffffffff1602179055508173ffffffffffffffffffffffffffffffffffffffff168173ffffffffffffffffffffffffffffffffffffffff167f8be0079c531659141344cd1fd0a4f28419497f9722a3daafe3b4186f6b6457e060405160405180910390a35050565b6001816000016000828254019250508190555050565b600081600001549050919050565b600033905090565b6000604051905090565b600080fd5b600080fd5b60007fffffffff0000000000000000000000000000000000000000000000000000000082169050919050565b61095d81610928565b811461096857600080fd5b50565b60008135905061097a81610954565b92915050565b6000602082840312156109965761099561091e565b5b60006109a48482850161096b565b91505092915050565b60008115159050919050565b6109c2816109ad565b82525050565b60006020820190506109dd60008301846109b9565b92915050565b600073ffffffffffffffffffffffffffffffffffffffff82169050919050565b6000610a0e826109e3565b9050919050565b610a1e81610a03565b82525050565b6000602082019050610a396000830184610a15565b92915050565b6000819050919050565b610a5281610a3f565b8114610a5d57600080fd5b50565b600081359050610a6f81610a49565b92915050565b600060208284031215610a8b57610a8a61091e565b5b6000610a9984828501610a60565b91505092915050565b610aab81610a03565b8114610ab657600080fd5b50565b600081359050610ac881610aa2565b92915050565b600080fd5b6000601f19601f8301169050919050565b7f4e487b7100000000000000000000000000000000000000000000000000000000600052604160045260246000fd5b610b1c82610ad3565b810181811067ffffffffffffffff82111715610b3b57610b3a610ae4565b5b80604052505050565b6000610b4e610914565b9050610b5a8282610b13565b919050565b600067ffffffffffffffff821115610b7a57610b79610ae4565b5b602082029050602081019050919050565b600080fd5b6000610ba3610b9e84610b5f565b610b44565b90508083825260208201905060208402830185811115610bc657610bc5610b8b565b5b835b81811015610bef5780610bdb8882610a60565b845260208401935050602081019050610bc8565b5050509392505050565b600082601f830112610c0e57610c0d610ace565b5b8135610c1e848260208601610b90565b91505092915050565b600080fd5b600067ffffffffffffffff821115610c4757610c46610ae4565b5b610c5082610ad3565b9050602081019050919050565b82818337600083830152505050565b6000610c7f610c7a84610c2c565b610b44565b905082815260208101848484011115610c9b57610c9a610c27565b5b610ca6848285610c5d565b509392505050565b600082601f830112610cc357610cc2610ace565b5b8135610cd3848260208601610c6c565b91505092915050565b600080600080600060a08688031215610cf857610cf761091e565b5b6000610d0688828901610ab9565b9550506020610d1788828901610ab9565b945050604086013567ffffffffffffffff811115610d3857610d37610923565b5b610d4488828901610bf9565b935050606086013567ffffffffffffffff811115610d6557610d64610923565b5b610d7188828901610bf9565b925050608086013567ffffffffffffffff811115610d9257610d91610923565b5b610d9e88828901610cae565b9150509295509295909350565b610db481610928565b82525050565b6000602082019050610dcf6000830184610dab565b92915050565b610dde81610a3f565b82525050565b6000602082019050610df96000830184610dd5565b92915050565b600080600060608486031215610e1857610e1761091e565b5b6000610e2686828701610a60565b9350506020610e3786828701610a60565b9250506040610e4886828701610a60565b9150509250925092565b600080600080600060a08688031215610e6e57610e6d61091e565b5b6000610e7c88828901610ab9565b9550506020610e8d88828901610ab9565b9450506040610e9e88828901610a60565b9350506060610eaf88828901610a60565b925050608086013567ffffffffffffffff811115610ed057610ecf610923565b5b610edc88828901610cae565b9150509295509295909350565b600060208284031215610eff57610efe61091e565b5b6000610f0d84828501610ab9565b91505092915050565b6000819050919050565b6000819050919050565b6000610f45610f40610f3b84610f16565b610f20565b610a3f565b9050919050565b610f5581610f2a565b82525050565b600082825260208201905092915050565b7f3078300000000000000000000000000000000000000000000000000000000000600082015250565b6000610fa2600383610f5b565b9150610fad82610f6c565b602082019050919050565b600060a082019050610fcd6000830187610a15565b610fda6020830186610a15565b610fe76040830185610dd5565b610ff46060830184610f4c565b818103608083015261100581610f95565b905095945050505050565b600082825260208201905092915050565b7f4f776e61626c653a206e6577206f776e657220697320746865207a65726f206160008201527f6464726573730000000000000000000000000000000000000000000000000000602082015250565b600061107d602683611010565b915061108882611021565b604082019050919050565b600060208201905081810360008301526110ac81611070565b9050919050565b7f4f776e61626c653a2063616c6c6572206973206e6f7420746865206f776e6572600082015250565b60006110e9602083611010565b91506110f4826110b3565b602082019050919050565b60006020820190508181036000830152611118816110dc565b905091905056fea2646970667358221220c87c1eb65a039a31ec0727987be5debdf7e51d2d23709acb34dffc725b6f35d664736f6c63430008120033",
  "immutableReferences": {},
  "source": "// SPDX-License-Identifier: MIT\r\npragma solidity ^0.8.18;\r\n\r\nimport \"../../node_modules/@openzeppelin/contracts/token/ERC1155/IERC1155.sol\";\r\nimport \"../../node_modules/@openzeppelin/contracts/utils/Counters.sol\";\r\nimport \"../../node_modules/@openzeppelin/contracts/access/Ownable.sol\";\r\nimport \"../../node_modules/@openzeppelin/contracts/token/ERC1155/utils/ERC1155Holder.sol\";\r\n\r\ncontract AuctionHouse is Ownable, ERC1155Holder {\r\n    using Counters for Counters.Counter;\r\n    //_itemIds variable has the most recent minted tokenId\r\n    Counters.Counter private _itemIds;\r\n    //Keeps track of the number of items sold on the marketplace\r\n    Counters.Counter private _itemsSold;\r\n    // //owner is the contract address that created the smart contract\r\n    // address payable owner;\r\n    //The fee charged by the marketplace to be allowed to list an NFT\r\n    uint256 listPrice = 0.01 ether;\r\n\r\n    address public tokenAddress;\r\n\r\n    Counters.Counter public listedItemsCount;\r\n\r\n    //The structure to store info about a listed token\r\n    struct ListedItem {\r\n        uint256 itemId;\r\n        address payable owner;\r\n        address payable seller;\r\n        uint256 price;\r\n        uint256 deadline;\r\n        bool currentlyListed;\r\n    }\r\n\r\n    //the event emitted when a token is successfully listed\r\n    // event ItemListedSuccess (\r\n    //     uint256 indexed tokenId,\r\n    //     address owner,\r\n    //     address seller,\r\n    //     uint256 price,\r\n    //     bool currentlyListed\r\n    // );\r\n\r\n    //This mapping maps tokenId to token info and is helpful when retrieving details about a tokenId\r\n    mapping(uint256 => ListedItem) private idToListedItem;\r\n\r\n    constructor(address _tokenAddress) {\r\n        // Set the token address in the constructor\r\n        // to only be able to list/buy/sell this specific token\r\n        tokenAddress = _tokenAddress;\r\n    }\r\n\r\n    // function updateListPrice(uint256 _listPrice) public payable {\r\n    //     require(owner == msg.sender, \"Only owner can update listing price\");\r\n    //     listPrice = _listPrice;\r\n    // }\r\n\r\n    // function getListPrice() public view returns (uint256) {\r\n    //     return listPrice;\r\n    // }\r\n\r\n    // function getLatestIdToListedItem()\r\n    //     public\r\n    //     view\r\n    //     returns (ListedItem memory)\r\n    // {\r\n    //     uint256 currentItemId = _itemIds.current();\r\n    //     return idToListedItem[currentItemId];\r\n    // }\r\n\r\n    // function getListedItemForId(\r\n    //     uint256 tokenId\r\n    // ) public view returns (ListedItem memory) {\r\n    //     return idToListedItem[tokenId];\r\n    // }\r\n\r\n    // function getCurrentItem() public view returns (uint256) {\r\n    //     return _itemIds.current();\r\n    // }\r\n\r\n    function listItem(\r\n        uint256 itemId,\r\n        uint256 price,\r\n        uint256 deadline\r\n    ) external {\r\n        //Make sure the sender sent enough ETH to pay for listing\r\n        // require(msg.value == listPrice, \"Hopefully sending the correct price\");\r\n        // //Just sanity check\r\n        // require(price > 0, \"Make sure the price isn't negative\");\r\n        // require(\r\n        //     _deadline > 3600,\r\n        //     \"The deadline needs to be greater than 1 hour\"\r\n        // );\r\n\r\n        uint256 listedItemCount = listedItemsCount.current();\r\n\r\n        // IERC1155(tokenAddress).setApprovalForAll(address(this), true);\r\n\r\n        //Update the mapping of tokenId's to Item details, useful for retrieval functions\r\n        idToListedItem[listedItemCount] = ListedItem(\r\n            itemId,\r\n            payable(address(this)),\r\n            payable(msg.sender),\r\n            price,\r\n            deadline,\r\n            true\r\n        );\r\n\r\n        IERC1155(tokenAddress).safeTransferFrom(\r\n            msg.sender,\r\n            address(this),\r\n            itemId,\r\n            1,\r\n            \"0x0\"\r\n        );\r\n        // _marketOwner.transfer(LISTING_FEE);\r\n        listedItemsCount.increment();\r\n\r\n        //Emit the event for successful transfer. The frontend parses this message and updates the end user\r\n        // emit ItemListedSuccess(\r\n        //     tokenId,\r\n        //     address(this),\r\n        //     msg.sender,\r\n        //     price,\r\n        //     true\r\n        // );\r\n    }\r\n\r\n    //This will return all the NFTs currently listed to be sold on the marketplace\r\n    // function getAllNFTs() public view returns (ListedItem[] memory) {\r\n    //     uint nftCount = _itemIds.current();\r\n    //     ListedItem[] memory tokens = new ListedItem[](nftCount);\r\n    //     uint currentIndex = 0;\r\n\r\n    //     //at the moment currentlyListed is true for all, if it becomes false in the future we will\r\n    //     //filter out currentlyListed == false over here\r\n    //     for (uint i = 0; i < nftCount; i++) {\r\n    //         uint currentId = i + 1;\r\n    //         ListedItem storage currentItem = idToListedItem[currentId];\r\n    //         tokens[currentIndex] = currentItem;\r\n    //         currentIndex += 1;\r\n    //     }\r\n    //     //the array 'tokens' has the list of all NFTs in the marketplace\r\n    //     return tokens;\r\n    // }\r\n\r\n    // //Returns all the NFTs that the current user is owner or seller in\r\n    // function getMyNFTs() public view returns (ListedItem[] memory) {\r\n    //     uint totalItemCount = _itemIds.current();\r\n    //     uint itemCount = 0;\r\n    //     uint currentIndex = 0;\r\n\r\n    //     //Important to get a count of all the NFTs that belong to the user before we can make an array for them\r\n    //     for (uint i = 0; i < totalItemCount; i++) {\r\n    //         if (\r\n    //             idToListedItem[i + 1].owner == msg.sender ||\r\n    //             idToListedItem[i + 1].seller == msg.sender\r\n    //         ) {\r\n    //             itemCount += 1;\r\n    //         }\r\n    //     }\r\n\r\n    //     //Once you have the count of relevant NFTs, create an array then store all the NFTs in it\r\n    //     ListedItem[] memory items = new ListedItem[](itemCount);\r\n    //     for (uint i = 0; i < totalItemCount; i++) {\r\n    //         if (\r\n    //             idToListedItem[i + 1].owner == msg.sender ||\r\n    //             idToListedItem[i + 1].seller == msg.sender\r\n    //         ) {\r\n    //             uint currentId = i + 1;\r\n    //             ListedItem storage currentItem = idToListedItem[currentId];\r\n    //             items[currentIndex] = currentItem;\r\n    //             currentIndex += 1;\r\n    //         }\r\n    //     }\r\n    //     return items;\r\n    // }\r\n\r\n    function executeSale(uint256 listedItemId) public payable {\r\n        // uint price = idToListedItem[tokenId].price;\r\n        // address seller = idToListedItem[tokenId].seller;\r\n        // require(\r\n        //     msg.value == price,\r\n        //     \"Please submit the asking price in order to complete the purchase\"\r\n        // );\r\n\r\n        //update the details of the token\r\n        idToListedItem[listedItemId].currentlyListed = true;\r\n        // idToListedItem[listedItemId].seller = payable(msg.sender);\r\n        _itemsSold.increment();\r\n\r\n        //Actually transfer the token to the new owner\r\n        // _transfer(address(this), msg.sender, tokenId);\r\n        // //approve the marketplace to sell NFTs on your behalf\r\n        // approve(address(this), tokenId);\r\n\r\n        IERC1155(tokenAddress).safeTransferFrom(\r\n            address(this),\r\n            msg.sender,\r\n            idToListedItem[listedItemId].itemId,\r\n            1,\r\n            \"0x0\"\r\n        );\r\n\r\n        // IERC1155(tokenAddress).setApprovalForAll(address(this), true);\r\n\r\n        //Transfer the listing fee to the marketplace creator\r\n        // payable(owner).transfer(listPrice);\r\n        //Transfer the proceeds from the sale to the seller of the NFT\r\n        payable(idToListedItem[listedItemId].seller).transfer(msg.value);\r\n    }\r\n}\r\n",
  "sourcePath": "C:\\Users\\Alex\\Documents\\Travail\\Alyra\\NG-Marketplace\\truffle\\contracts\\AuctionHouse\\AuctionHouse.sol",
  "compiler": {
    "name": "solc",
    "version": "0.8.18+commit.87f61d96.Emscripten.clang"
  },
  "schemaVersion": "3.4.7",
  "updatedAt": "2023-04-01T07:52:29.448Z",
  "networkType": "ethereum",
  "devdoc": {
    "kind": "dev",
    "methods": {
      "owner()": {
        "details": "Returns the address of the current owner."
      },
      "renounceOwnership()": {
        "details": "Leaves the contract without owner. It will not be possible to call `onlyOwner` functions anymore. Can only be called by the current owner. NOTE: Renouncing ownership will leave the contract without an owner, thereby removing any functionality that is only available to the owner."
      },
      "supportsInterface(bytes4)": {
        "details": "See {IERC165-supportsInterface}."
      },
      "transferOwnership(address)": {
        "details": "Transfers ownership of the contract to a new account (`newOwner`). Can only be called by the current owner."
      }
    },
    "version": 1
  },
  "userdoc": {
    "kind": "user",
    "methods": {},
    "version": 1
  }
}