{
  "contractName": "AuctionHouse",
  "abi": [
    {
      "inputs": [
        {
          "internalType": "address",
          "name": "_tokenAddress",
          "type": "address"
        }
      ],
      "stateMutability": "nonpayable",
      "type": "constructor"
    },
    {
      "anonymous": false,
      "inputs": [
        {
          "indexed": true,
          "internalType": "uint256",
          "name": "itemId",
          "type": "uint256"
        },
        {
          "indexed": false,
          "internalType": "address",
          "name": "seller",
          "type": "address"
        },
        {
          "indexed": false,
          "internalType": "uint256",
          "name": "price",
          "type": "uint256"
        }
      ],
      "name": "ItemListedSuccess",
      "type": "event"
    },
    {
      "anonymous": false,
      "inputs": [
        {
          "indexed": true,
          "internalType": "uint256",
          "name": "itemId",
          "type": "uint256"
        },
        {
          "indexed": false,
          "internalType": "address",
          "name": "seller",
          "type": "address"
        },
        {
          "indexed": false,
          "internalType": "address",
          "name": "buyer",
          "type": "address"
        },
        {
          "indexed": false,
          "internalType": "uint256",
          "name": "price",
          "type": "uint256"
        }
      ],
      "name": "ItemSoldSuccess",
      "type": "event"
    },
    {
      "anonymous": false,
      "inputs": [
        {
          "indexed": true,
          "internalType": "address",
          "name": "previousOwner",
          "type": "address"
        },
        {
          "indexed": true,
          "internalType": "address",
          "name": "newOwner",
          "type": "address"
        }
      ],
      "name": "OwnershipTransferred",
      "type": "event"
    },
    {
      "inputs": [
        {
          "internalType": "uint256",
          "name": "",
          "type": "uint256"
        }
      ],
      "name": "listedItems",
      "outputs": [
        {
          "internalType": "uint256",
          "name": "listedItemId",
          "type": "uint256"
        },
        {
          "internalType": "uint256",
          "name": "itemId",
          "type": "uint256"
        },
        {
          "internalType": "address payable",
          "name": "seller",
          "type": "address"
        },
        {
          "internalType": "address",
          "name": "buyer",
          "type": "address"
        },
        {
          "internalType": "uint256",
          "name": "price",
          "type": "uint256"
        },
        {
          "internalType": "bool",
          "name": "currentlyListed",
          "type": "bool"
        },
        {
          "internalType": "bool",
          "name": "isSold",
          "type": "bool"
        }
      ],
      "stateMutability": "view",
      "type": "function",
      "constant": true
    },
    {
      "inputs": [],
      "name": "listedItemsCount",
      "outputs": [
        {
          "internalType": "uint256",
          "name": "_value",
          "type": "uint256"
        }
      ],
      "stateMutability": "view",
      "type": "function",
      "constant": true
    },
    {
      "inputs": [],
      "name": "listingFee",
      "outputs": [
        {
          "internalType": "uint256",
          "name": "",
          "type": "uint256"
        }
      ],
      "stateMutability": "view",
      "type": "function",
      "constant": true
    },
    {
      "inputs": [
        {
          "internalType": "address",
          "name": "",
          "type": "address"
        },
        {
          "internalType": "address",
          "name": "",
          "type": "address"
        },
        {
          "internalType": "uint256[]",
          "name": "",
          "type": "uint256[]"
        },
        {
          "internalType": "uint256[]",
          "name": "",
          "type": "uint256[]"
        },
        {
          "internalType": "bytes",
          "name": "",
          "type": "bytes"
        }
      ],
      "name": "onERC1155BatchReceived",
      "outputs": [
        {
          "internalType": "bytes4",
          "name": "",
          "type": "bytes4"
        }
      ],
      "stateMutability": "nonpayable",
      "type": "function"
    },
    {
      "inputs": [
        {
          "internalType": "address",
          "name": "",
          "type": "address"
        },
        {
          "internalType": "address",
          "name": "",
          "type": "address"
        },
        {
          "internalType": "uint256",
          "name": "",
          "type": "uint256"
        },
        {
          "internalType": "uint256",
          "name": "",
          "type": "uint256"
        },
        {
          "internalType": "bytes",
          "name": "",
          "type": "bytes"
        }
      ],
      "name": "onERC1155Received",
      "outputs": [
        {
          "internalType": "bytes4",
          "name": "",
          "type": "bytes4"
        }
      ],
      "stateMutability": "nonpayable",
      "type": "function"
    },
    {
      "inputs": [],
      "name": "owner",
      "outputs": [
        {
          "internalType": "address",
          "name": "",
          "type": "address"
        }
      ],
      "stateMutability": "view",
      "type": "function",
      "constant": true
    },
    {
      "inputs": [],
      "name": "renounceOwnership",
      "outputs": [],
      "stateMutability": "nonpayable",
      "type": "function"
    },
    {
      "inputs": [
        {
          "internalType": "bytes4",
          "name": "interfaceId",
          "type": "bytes4"
        }
      ],
      "name": "supportsInterface",
      "outputs": [
        {
          "internalType": "bool",
          "name": "",
          "type": "bool"
        }
      ],
      "stateMutability": "view",
      "type": "function",
      "constant": true
    },
    {
      "inputs": [],
      "name": "tokenAddress",
      "outputs": [
        {
          "internalType": "address",
          "name": "",
          "type": "address"
        }
      ],
      "stateMutability": "view",
      "type": "function",
      "constant": true
    },
    {
      "inputs": [
        {
          "internalType": "address",
          "name": "newOwner",
          "type": "address"
        }
      ],
      "name": "transferOwnership",
      "outputs": [],
      "stateMutability": "nonpayable",
      "type": "function"
    },
    {
      "inputs": [
        {
          "internalType": "uint256",
          "name": "newListingFee",
          "type": "uint256"
        }
      ],
      "name": "updatelistingFee",
      "outputs": [],
      "stateMutability": "payable",
      "type": "function",
      "payable": true
    },
    {
      "inputs": [],
      "name": "getlistingFee",
      "outputs": [
        {
          "internalType": "uint256",
          "name": "",
          "type": "uint256"
        }
      ],
      "stateMutability": "view",
      "type": "function",
      "constant": true
    },
    {
      "inputs": [],
      "name": "getListedItems",
      "outputs": [
        {
          "components": [
            {
              "internalType": "uint256",
              "name": "listedItemId",
              "type": "uint256"
            },
            {
              "internalType": "uint256",
              "name": "itemId",
              "type": "uint256"
            },
            {
              "internalType": "address payable",
              "name": "seller",
              "type": "address"
            },
            {
              "internalType": "address",
              "name": "buyer",
              "type": "address"
            },
            {
              "internalType": "uint256",
              "name": "price",
              "type": "uint256"
            },
            {
              "internalType": "bool",
              "name": "currentlyListed",
              "type": "bool"
            },
            {
              "internalType": "bool",
              "name": "isSold",
              "type": "bool"
            }
          ],
          "internalType": "struct AuctionHouse.ListedItem[]",
          "name": "",
          "type": "tuple[]"
        }
      ],
      "stateMutability": "view",
      "type": "function",
      "constant": true
    },
    {
      "inputs": [
        {
          "internalType": "uint256",
          "name": "itemId",
          "type": "uint256"
        },
        {
          "internalType": "uint256",
          "name": "sellingPrice",
          "type": "uint256"
        }
      ],
      "name": "listItem",
      "outputs": [],
      "stateMutability": "payable",
      "type": "function",
      "payable": true
    },
    {
      "inputs": [
        {
          "internalType": "uint256",
          "name": "listedItemId",
          "type": "uint256"
        }
      ],
      "name": "executeSale",
      "outputs": [],
      "stateMutability": "payable",
      "type": "function",
      "payable": true
    }
  ],
  "bytecode": "0x6080604052662386f26fc100006002553480156200001c57600080fd5b5060405162002308380380620023088339818101604052810190620000429190620001e7565b6200006262000056620000b160201b60201c565b620000b960201b60201c565b6001808190555080600360006101000a81548173ffffffffffffffffffffffffffffffffffffffff021916908373ffffffffffffffffffffffffffffffffffffffff1602179055505062000219565b600033905090565b60008060009054906101000a900473ffffffffffffffffffffffffffffffffffffffff169050816000806101000a81548173ffffffffffffffffffffffffffffffffffffffff021916908373ffffffffffffffffffffffffffffffffffffffff1602179055508173ffffffffffffffffffffffffffffffffffffffff168173ffffffffffffffffffffffffffffffffffffffff167f8be0079c531659141344cd1fd0a4f28419497f9722a3daafe3b4186f6b6457e060405160405180910390a35050565b600080fd5b600073ffffffffffffffffffffffffffffffffffffffff82169050919050565b6000620001af8262000182565b9050919050565b620001c181620001a2565b8114620001cd57600080fd5b50565b600081519050620001e181620001b6565b92915050565b6000602082840312156200020057620001ff6200017d565b5b60006200021084828501620001d0565b91505092915050565b6120df80620002296000396000f3fe6080604052600436106100e85760003560e01c80639d76ea581161008a578063cdaf072411610059578063cdaf0724146102a9578063d2347061146102d4578063f23a6e6114610317578063f2fde38b14610354576100e8565b80639d76ea58146101eb578063bc197c8114610216578063caf5069014610253578063ccb4918d1461027e576100e8565b8063715018a6116100c6578063715018a614610171578063883efa67146101885780638da5cb5b146101a45780639b1225c4146101cf576100e8565b806301ffc9a7146100ed57806342444ed41461012a5780636a1b7ecc14610146575b600080fd5b3480156100f957600080fd5b50610114600480360381019061010f919061133a565b61037d565b6040516101219190611382565b60405180910390f35b610144600480360381019061013f91906113d3565b6103f7565b005b34801561015257600080fd5b5061015b61045c565b604051610168919061140f565b60405180910390f35b34801561017d57600080fd5b50610186610462565b005b6101a2600480360381019061019d919061142a565b610476565b005b3480156101b057600080fd5b506101b9610880565b6040516101c691906114ab565b60405180910390f35b6101e960048036038101906101e491906113d3565b6108a9565b005b3480156101f757600080fd5b50610200610daa565b60405161020d91906114ab565b60405180910390f35b34801561022257600080fd5b5061023d60048036038101906102389190611700565b610dd0565b60405161024a91906117de565b60405180910390f35b34801561025f57600080fd5b50610268610de5565b6040516102759190611984565b60405180910390f35b34801561028a57600080fd5b50610293610f44565b6040516102a0919061140f565b60405180910390f35b3480156102b557600080fd5b506102be610f50565b6040516102cb919061140f565b60405180910390f35b3480156102e057600080fd5b506102fb60048036038101906102f691906113d3565b610f5a565b60405161030e97969594939291906119b5565b60405180910390f35b34801561032357600080fd5b5061033e60048036038101906103399190611a24565b611006565b60405161034b91906117de565b60405180910390f35b34801561036057600080fd5b5061037b60048036038101906103769190611abb565b61101b565b005b60007f4e2312e0000000000000000000000000000000000000000000000000000000007bffffffffffffffffffffffffffffffffffffffffffffffffffffffff1916827bffffffffffffffffffffffffffffffffffffffffffffffffffffffff191614806103f057506103ef8261109e565b5b9050919050565b6103ff611108565b610407611186565b6000811161044a576040517f08c379a000000000000000000000000000000000000000000000000000000000815260040161044190611b45565b60405180910390fd5b806002819055506104596111d5565b50565b60025481565b61046a611108565b61047460006111de565b565b61047e611186565b60025434146104c2576040517f08c379a00000000000000000000000000000000000000000000000000000000081526004016104b990611bb1565b60405180910390fd5b60008111610505576040517f08c379a00000000000000000000000000000000000000000000000000000000081526004016104fc90611c43565b60405180910390fd5b600061051160056112a2565b905060006040518060e001604052808381526020018581526020013373ffffffffffffffffffffffffffffffffffffffff168152602001600073ffffffffffffffffffffffffffffffffffffffff1681526020018481526020016001151581526020016000151581525090508060066000848152602001908152602001600020600082015181600001556020820151816001015560408201518160020160006101000a81548173ffffffffffffffffffffffffffffffffffffffff021916908373ffffffffffffffffffffffffffffffffffffffff16021790555060608201518160030160006101000a81548173ffffffffffffffffffffffffffffffffffffffff021916908373ffffffffffffffffffffffffffffffffffffffff1602179055506080820151816004015560a08201518160050160006101000a81548160ff02191690831515021790555060c08201518160050160016101000a81548160ff0219169083151502179055509050506007819080600181540180825580915050600190039060005260206000209060060201600090919091909150600082015181600001556020820151816001015560408201518160020160006101000a81548173ffffffffffffffffffffffffffffffffffffffff021916908373ffffffffffffffffffffffffffffffffffffffff16021790555060608201518160030160006101000a81548173ffffffffffffffffffffffffffffffffffffffff021916908373ffffffffffffffffffffffffffffffffffffffff1602179055506080820151816004015560a08201518160050160006101000a81548160ff02191690831515021790555060c08201518160050160016101000a81548160ff0219169083151502179055505050600360009054906101000a900473ffffffffffffffffffffffffffffffffffffffff1673ffffffffffffffffffffffffffffffffffffffff1663f242432a33308760016040518563ffffffff1660e01b81526004016107fc9493929190611d05565b600060405180830381600087803b15801561081657600080fd5b505af115801561082a573d6000803e3d6000fd5b5050505061083860056112b0565b837fd31b349e5e268b6e7a8cc3b703e827bb3854e2763ec42a7300faf5d9c3e9c3f6338560405161086a929190611d5d565b60405180910390a2505061087c6111d5565b5050565b60008060009054906101000a900473ffffffffffffffffffffffffffffffffffffffff16905090565b60006006600083815260200190815260200160002060040154905060006006600084815260200190815260200160002060020160009054906101000a900473ffffffffffffffffffffffffffffffffffffffff169050813414610941576040517f08c379a000000000000000000000000000000000000000000000000000000000815260040161093890611df8565b60405180910390fd5b3373ffffffffffffffffffffffffffffffffffffffff168173ffffffffffffffffffffffffffffffffffffffff16036109af576040517f08c379a00000000000000000000000000000000000000000000000000000000081526004016109a690611e64565b60405180910390fd5b6000600660008581526020019081526020016000206040518060e001604052908160008201548152602001600182015481526020016002820160009054906101000a900473ffffffffffffffffffffffffffffffffffffffff1673ffffffffffffffffffffffffffffffffffffffff1673ffffffffffffffffffffffffffffffffffffffff1681526020016003820160009054906101000a900473ffffffffffffffffffffffffffffffffffffffff1673ffffffffffffffffffffffffffffffffffffffff1673ffffffffffffffffffffffffffffffffffffffff168152602001600482015481526020016005820160009054906101000a900460ff161515151581526020016005820160019054906101000a900460ff161515151581525050905060008160a001901515908115158152505033816060019073ffffffffffffffffffffffffffffffffffffffff16908173ffffffffffffffffffffffffffffffffffffffff168152505060018160c00190151590811515815250508060078581548110610b4057610b3f611e84565b5b9060005260206000209060060201600082015181600001556020820151816001015560408201518160020160006101000a81548173ffffffffffffffffffffffffffffffffffffffff021916908373ffffffffffffffffffffffffffffffffffffffff16021790555060608201518160030160006101000a81548173ffffffffffffffffffffffffffffffffffffffff021916908373ffffffffffffffffffffffffffffffffffffffff1602179055506080820151816004015560a08201518160050160006101000a81548160ff02191690831515021790555060c08201518160050160016101000a81548160ff021916908315150217905550905050610c4760046112b0565b600360009054906101000a900473ffffffffffffffffffffffffffffffffffffffff1673ffffffffffffffffffffffffffffffffffffffff1663f242432a3033846020015160016040518563ffffffff1660e01b8152600401610cad9493929190611d05565b600060405180830381600087803b158015610cc757600080fd5b505af1158015610cdb573d6000803e3d6000fd5b505050506006600085815260200190815260200160002060020160009054906101000a900473ffffffffffffffffffffffffffffffffffffffff1673ffffffffffffffffffffffffffffffffffffffff166108fc349081150290604051600060405180830381858888f19350505050158015610d5b573d6000803e3d6000fd5b5080602001517fec7b3e53b13d8aed24b32d71dabfb6afd1ee879d5c762345fb58ef82ce95cf8a8260400151338460800151604051610d9c93929190611f08565b60405180910390a250505050565b600360009054906101000a900473ffffffffffffffffffffffffffffffffffffffff1681565b600063bc197c8160e01b905095945050505050565b60606007805480602002602001604051908101604052809291908181526020016000905b82821015610f3b57838290600052602060002090600602016040518060e001604052908160008201548152602001600182015481526020016002820160009054906101000a900473ffffffffffffffffffffffffffffffffffffffff1673ffffffffffffffffffffffffffffffffffffffff1673ffffffffffffffffffffffffffffffffffffffff1681526020016003820160009054906101000a900473ffffffffffffffffffffffffffffffffffffffff1673ffffffffffffffffffffffffffffffffffffffff1673ffffffffffffffffffffffffffffffffffffffff168152602001600482015481526020016005820160009054906101000a900460ff161515151581526020016005820160019054906101000a900460ff16151515158152505081526020019060010190610e09565b50505050905090565b60058060000154905081565b6000600254905090565b60078181548110610f6a57600080fd5b90600052602060002090600602016000915090508060000154908060010154908060020160009054906101000a900473ffffffffffffffffffffffffffffffffffffffff16908060030160009054906101000a900473ffffffffffffffffffffffffffffffffffffffff16908060040154908060050160009054906101000a900460ff16908060050160019054906101000a900460ff16905087565b600063f23a6e6160e01b905095945050505050565b611023611108565b600073ffffffffffffffffffffffffffffffffffffffff168173ffffffffffffffffffffffffffffffffffffffff1603611092576040517f08c379a000000000000000000000000000000000000000000000000000000000815260040161108990611fb1565b60405180910390fd5b61109b816111de565b50565b60007f01ffc9a7000000000000000000000000000000000000000000000000000000007bffffffffffffffffffffffffffffffffffffffffffffffffffffffff1916827bffffffffffffffffffffffffffffffffffffffffffffffffffffffff1916149050919050565b6111106112c6565b73ffffffffffffffffffffffffffffffffffffffff1661112e610880565b73ffffffffffffffffffffffffffffffffffffffff1614611184576040517f08c379a000000000000000000000000000000000000000000000000000000000815260040161117b9061201d565b60405180910390fd5b565b6002600154036111cb576040517f08c379a00000000000000000000000000000000000000000000000000000000081526004016111c290612089565b60405180910390fd5b6002600181905550565b60018081905550565b60008060009054906101000a900473ffffffffffffffffffffffffffffffffffffffff169050816000806101000a81548173ffffffffffffffffffffffffffffffffffffffff021916908373ffffffffffffffffffffffffffffffffffffffff1602179055508173ffffffffffffffffffffffffffffffffffffffff168173ffffffffffffffffffffffffffffffffffffffff167f8be0079c531659141344cd1fd0a4f28419497f9722a3daafe3b4186f6b6457e060405160405180910390a35050565b600081600001549050919050565b6001816000016000828254019250508190555050565b600033905090565b6000604051905090565b600080fd5b600080fd5b60007fffffffff0000000000000000000000000000000000000000000000000000000082169050919050565b611317816112e2565b811461132257600080fd5b50565b6000813590506113348161130e565b92915050565b6000602082840312156113505761134f6112d8565b5b600061135e84828501611325565b91505092915050565b60008115159050919050565b61137c81611367565b82525050565b60006020820190506113976000830184611373565b92915050565b6000819050919050565b6113b08161139d565b81146113bb57600080fd5b50565b6000813590506113cd816113a7565b92915050565b6000602082840312156113e9576113e86112d8565b5b60006113f7848285016113be565b91505092915050565b6114098161139d565b82525050565b60006020820190506114246000830184611400565b92915050565b60008060408385031215611441576114406112d8565b5b600061144f858286016113be565b9250506020611460858286016113be565b9150509250929050565b600073ffffffffffffffffffffffffffffffffffffffff82169050919050565b60006114958261146a565b9050919050565b6114a58161148a565b82525050565b60006020820190506114c0600083018461149c565b92915050565b6114cf8161148a565b81146114da57600080fd5b50565b6000813590506114ec816114c6565b92915050565b600080fd5b6000601f19601f8301169050919050565b7f4e487b7100000000000000000000000000000000000000000000000000000000600052604160045260246000fd5b611540826114f7565b810181811067ffffffffffffffff8211171561155f5761155e611508565b5b80604052505050565b60006115726112ce565b905061157e8282611537565b919050565b600067ffffffffffffffff82111561159e5761159d611508565b5b602082029050602081019050919050565b600080fd5b60006115c76115c284611583565b611568565b905080838252602082019050602084028301858111156115ea576115e96115af565b5b835b8181101561161357806115ff88826113be565b8452602084019350506020810190506115ec565b5050509392505050565b600082601f830112611632576116316114f2565b5b81356116428482602086016115b4565b91505092915050565b600080fd5b600067ffffffffffffffff82111561166b5761166a611508565b5b611674826114f7565b9050602081019050919050565b82818337600083830152505050565b60006116a361169e84611650565b611568565b9050828152602081018484840111156116bf576116be61164b565b5b6116ca848285611681565b509392505050565b600082601f8301126116e7576116e66114f2565b5b81356116f7848260208601611690565b91505092915050565b600080600080600060a0868803121561171c5761171b6112d8565b5b600061172a888289016114dd565b955050602061173b888289016114dd565b945050604086013567ffffffffffffffff81111561175c5761175b6112dd565b5b6117688882890161161d565b935050606086013567ffffffffffffffff811115611789576117886112dd565b5b6117958882890161161d565b925050608086013567ffffffffffffffff8111156117b6576117b56112dd565b5b6117c2888289016116d2565b9150509295509295909350565b6117d8816112e2565b82525050565b60006020820190506117f360008301846117cf565b92915050565b600081519050919050565b600082825260208201905092915050565b6000819050602082019050919050565b61182e8161139d565b82525050565b600061183f8261146a565b9050919050565b61184f81611834565b82525050565b61185e8161148a565b82525050565b61186d81611367565b82525050565b60e0820160008201516118896000850182611825565b50602082015161189c6020850182611825565b5060408201516118af6040850182611846565b5060608201516118c26060850182611855565b5060808201516118d56080850182611825565b5060a08201516118e860a0850182611864565b5060c08201516118fb60c0850182611864565b50505050565b600061190d8383611873565b60e08301905092915050565b6000602082019050919050565b6000611931826117f9565b61193b8185611804565b935061194683611815565b8060005b8381101561197757815161195e8882611901565b975061196983611919565b92505060018101905061194a565b5085935050505092915050565b6000602082019050818103600083015261199e8184611926565b905092915050565b6119af81611834565b82525050565b600060e0820190506119ca600083018a611400565b6119d76020830189611400565b6119e460408301886119a6565b6119f1606083018761149c565b6119fe6080830186611400565b611a0b60a0830185611373565b611a1860c0830184611373565b98975050505050505050565b600080600080600060a08688031215611a4057611a3f6112d8565b5b6000611a4e888289016114dd565b9550506020611a5f888289016114dd565b9450506040611a70888289016113be565b9350506060611a81888289016113be565b925050608086013567ffffffffffffffff811115611aa257611aa16112dd565b5b611aae888289016116d2565b9150509295509295909350565b600060208284031215611ad157611ad06112d8565b5b6000611adf848285016114dd565b91505092915050565b600082825260208201905092915050565b7f4e6577206c697374696e67206665652063616e6e6f7420626520300000000000600082015250565b6000611b2f601b83611ae8565b9150611b3a82611af9565b602082019050919050565b60006020820190508181036000830152611b5e81611b22565b9050919050565b7f596f75206e65656420746f20706179206c697374696e67206665657300000000600082015250565b6000611b9b601c83611ae8565b9150611ba682611b65565b602082019050919050565b60006020820190508181036000830152611bca81611b8e565b9050919050565b7f596f75206e65656420746f2073706563696679206120636f727265637420707260008201527f6963650000000000000000000000000000000000000000000000000000000000602082015250565b6000611c2d602383611ae8565b9150611c3882611bd1565b604082019050919050565b60006020820190508181036000830152611c5c81611c20565b9050919050565b6000819050919050565b6000819050919050565b6000611c92611c8d611c8884611c63565b611c6d565b61139d565b9050919050565b611ca281611c77565b82525050565b600082825260208201905092915050565b7f3078300000000000000000000000000000000000000000000000000000000000600082015250565b6000611cef600383611ca8565b9150611cfa82611cb9565b602082019050919050565b600060a082019050611d1a600083018761149c565b611d27602083018661149c565b611d346040830185611400565b611d416060830184611c99565b8181036080830152611d5281611ce2565b905095945050505050565b6000604082019050611d72600083018561149c565b611d7f6020830184611400565b9392505050565b7f496e737566666963656e742070726963652076616c756520666f72207468697360008201527f206974656d2e0000000000000000000000000000000000000000000000000000602082015250565b6000611de2602683611ae8565b9150611ded82611d86565b604082019050919050565b60006020820190508181036000830152611e1181611dd5565b9050919050565b7f596f752063616e6e6f742062757920796f7572206f776e206974656d00000000600082015250565b6000611e4e601c83611ae8565b9150611e5982611e18565b602082019050919050565b60006020820190508181036000830152611e7d81611e41565b9050919050565b7f4e487b7100000000000000000000000000000000000000000000000000000000600052603260045260246000fd5b6000611ece611ec9611ec48461146a565b611c6d565b61146a565b9050919050565b6000611ee082611eb3565b9050919050565b6000611ef282611ed5565b9050919050565b611f0281611ee7565b82525050565b6000606082019050611f1d6000830186611ef9565b611f2a602083018561149c565b611f376040830184611400565b949350505050565b7f4f776e61626c653a206e6577206f776e657220697320746865207a65726f206160008201527f6464726573730000000000000000000000000000000000000000000000000000602082015250565b6000611f9b602683611ae8565b9150611fa682611f3f565b604082019050919050565b60006020820190508181036000830152611fca81611f8e565b9050919050565b7f4f776e61626c653a2063616c6c6572206973206e6f7420746865206f776e6572600082015250565b6000612007602083611ae8565b915061201282611fd1565b602082019050919050565b6000602082019050818103600083015261203681611ffa565b9050919050565b7f5265656e7472616e637947756172643a207265656e7472616e742063616c6c00600082015250565b6000612073601f83611ae8565b915061207e8261203d565b602082019050919050565b600060208201905081810360008301526120a281612066565b905091905056fea264697066735822122084707512ce1d9f1c3363cfc92f5ef0139998cdef5f5081a711d638f694c7cad364736f6c63430008120033",
  "immutableReferences": {},
  "source": "// SPDX-License-Identifier: MIT\r\npragma solidity ^0.8.18;\r\n\r\nimport \"../../node_modules/@openzeppelin/contracts/token/ERC1155/IERC1155.sol\";\r\nimport \"../../node_modules/@openzeppelin/contracts/utils/Counters.sol\";\r\nimport \"../../node_modules/@openzeppelin/contracts/access/Ownable.sol\";\r\nimport \"../../node_modules/@openzeppelin/contracts/token/ERC1155/utils/ERC1155Holder.sol\";\r\nimport \"../../node_modules/@openzeppelin/contracts/security/ReentrancyGuard.sol\";\r\n\r\ncontract AuctionHouse is Ownable, ERC1155Holder, ReentrancyGuard {\r\n    using Counters for Counters.Counter;\r\n\r\n    /**\r\n     * @notice The fee charged to be able to list an item\r\n     */\r\n    uint256 public listingFee = 0.01 ether;\r\n\r\n    /**\r\n     * @notice Only this token address is allowed on this marketplace for now\r\n     */\r\n    address public tokenAddress;\r\n\r\n    /**\r\n     * @notice Number of item sold on the marketplace\r\n     */\r\n    Counters.Counter private _itemsSoldCount;\r\n\r\n    /**\r\n     * @notice Number of item listed on the marketplace\r\n     */\r\n    Counters.Counter public listedItemsCount;\r\n\r\n    /**\r\n     * @notice The fee charged to be able to list an item\r\n     */\r\n    // Listed token Informations\r\n    struct ListedItem {\r\n        uint256 listedItemId; // Id in the marketplace list\r\n        uint256 itemId; // token id\r\n        address payable seller;\r\n        address buyer;\r\n        uint256 price;\r\n        bool currentlyListed;\r\n        bool isSold;\r\n    }\r\n\r\n    /**\r\n     * @notice Event listing successfull\r\n     */\r\n    event ItemListedSuccess(\r\n        uint256 indexed itemId,\r\n        address seller,\r\n        uint256 price\r\n    );\r\n\r\n    /**\r\n     * @notice Event sell successfull\r\n     */\r\n    event ItemSoldSuccess(\r\n        uint256 indexed itemId,\r\n        address seller,\r\n        address buyer,\r\n        uint256 price\r\n    );\r\n    /**\r\n     * @notice Map listedItem by itemId\r\n     */\r\n    mapping(uint256 => ListedItem) private idToListedItem;\r\n\r\n    /**\r\n     * @notice All lited items\r\n     */\r\n    ListedItem[] public listedItems;\r\n\r\n    /**\r\n     * @notice Set the token address in the constructor to only be able to list/buy/sell this specific token\r\n     * @param _tokenAddress: Address of the marketplace token\r\n     */\r\n    constructor(address _tokenAddress) {\r\n        tokenAddress = _tokenAddress;\r\n    }\r\n\r\n    /**\r\n     * @notice Allows a registered voter to check informations of another voter.\r\n     * Requirements:\r\n     *  - The caller must be the owner.\r\n     * @param newListingFee: New marketplace listing fee\r\n     */\r\n    function updatelistingFee(\r\n        uint256 newListingFee\r\n    ) external payable onlyOwner nonReentrant {\r\n        require(newListingFee > 0, \"New listing fee cannot be 0\");\r\n        listingFee = newListingFee;\r\n    }\r\n\r\n    /**\r\n     * @notice Allows to know the current listing fees\r\n     */\r\n    function getlistingFee() external view returns (uint256) {\r\n        return listingFee;\r\n    }\r\n\r\n    /**\r\n     * @notice Allows to list all the items that is sell on the marketplace\r\n     * @return Items listed on the marketplace.\r\n     */\r\n    function getListedItems() external view returns (ListedItem[] memory) {\r\n        return listedItems;\r\n    }\r\n\r\n    /**\r\n     * @notice Allow a user to sell an item on the marketplace\r\n     * @param itemId: Collection item ID to sell\r\n     * @param sellingPrice: Sell price of the item\r\n     */\r\n    function listItem(\r\n        uint256 itemId,\r\n        uint256 sellingPrice\r\n    ) external payable nonReentrant {\r\n        //Make sure the user sent enough money to pay for the listing fee\r\n        require(msg.value == listingFee, \"You need to pay listing fees\");\r\n        require(sellingPrice > 0, \"You need to specify a correct price\");\r\n\r\n        uint256 listedItemCount = listedItemsCount.current();\r\n\r\n        ListedItem memory newListedItem = ListedItem(\r\n            listedItemCount,\r\n            itemId,\r\n            payable(msg.sender), // seller\r\n            address(0), // buyer\r\n            sellingPrice,\r\n            true,\r\n            false\r\n        );\r\n\r\n        //Update the mapping of tokenId's to Item details, useful for retrieval functions\r\n        idToListedItem[listedItemCount] = newListedItem;\r\n        listedItems.push(newListedItem);\r\n\r\n        IERC1155(tokenAddress).safeTransferFrom(\r\n            msg.sender, // from\r\n            address(this), // to\r\n            itemId,\r\n            1,\r\n            \"0x0\"\r\n        );\r\n\r\n        // _marketOwner.transfer(LISTING_FEE);\r\n        listedItemsCount.increment();\r\n\r\n        // Trigger the event\r\n        emit ItemListedSuccess(itemId, msg.sender, sellingPrice);\r\n    }\r\n\r\n    function executeSale(uint256 listedItemId) external payable {\r\n        uint itemPrice = idToListedItem[listedItemId].price;\r\n        address seller = idToListedItem[listedItemId].seller;\r\n\r\n        require(\r\n            msg.value == itemPrice,\r\n            \"Insufficent price value for this item.\"\r\n        );\r\n\r\n        require(seller != msg.sender, \"You cannot buy your own item\");\r\n\r\n        // Update item informations\r\n        ListedItem memory listedItem = idToListedItem[listedItemId];\r\n        listedItem.currentlyListed = false;\r\n        listedItem.buyer = payable(msg.sender);\r\n        listedItem.isSold = true;\r\n\r\n        listedItems[listedItemId] = listedItem;\r\n\r\n        _itemsSoldCount.increment();\r\n\r\n        // Transfer item to the new owner\r\n        IERC1155(tokenAddress).safeTransferFrom(\r\n            address(this), // from\r\n            msg.sender, // to\r\n            listedItem.itemId,\r\n            1,\r\n            \"0x0\"\r\n        );\r\n\r\n        // // TODO\r\n        // //Transfer the listing fee to the marketplace creator\r\n        // // payable(owner).transfer(listPrice);\r\n\r\n        // // Transfer money to the seller\r\n        payable(idToListedItem[listedItemId].seller).transfer(msg.value);\r\n\r\n        emit ItemSoldSuccess(\r\n            listedItem.itemId,\r\n            listedItem.seller,\r\n            msg.sender,\r\n            listedItem.price\r\n        );\r\n    }\r\n}\r\n",
  "sourcePath": "C:\\Users\\Alex\\Documents\\Travail\\Alyra\\NG-Marketplace\\truffle\\contracts\\AuctionHouse\\AuctionHouse.sol",
  "compiler": {
    "name": "solc",
    "version": "0.8.18+commit.87f61d96.Emscripten.clang"
  },
  "schemaVersion": "3.4.7",
  "updatedAt": "2023-04-09T16:30:10.006Z",
  "networkType": "ethereum",
  "devdoc": {
    "kind": "dev",
    "methods": {
      "constructor": {
        "params": {
          "_tokenAddress": ": Address of the marketplace token"
        }
      },
      "getListedItems()": {
        "returns": {
          "_0": "Items listed on the marketplace."
        }
      },
      "listItem(uint256,uint256)": {
        "params": {
          "itemId": ": Collection item ID to sell",
          "sellingPrice": ": Sell price of the item"
        }
      },
      "owner()": {
        "details": "Returns the address of the current owner."
      },
      "renounceOwnership()": {
        "details": "Leaves the contract without owner. It will not be possible to call `onlyOwner` functions anymore. Can only be called by the current owner. NOTE: Renouncing ownership will leave the contract without an owner, thereby removing any functionality that is only available to the owner."
      },
      "supportsInterface(bytes4)": {
        "details": "See {IERC165-supportsInterface}."
      },
      "transferOwnership(address)": {
        "details": "Transfers ownership of the contract to a new account (`newOwner`). Can only be called by the current owner."
      },
      "updatelistingFee(uint256)": {
        "params": {
          "newListingFee": ": New marketplace listing fee"
        }
      }
    },
    "version": 1
  },
  "userdoc": {
    "events": {
      "ItemListedSuccess(uint256,address,uint256)": {
        "notice": "Event listing successfull"
      },
      "ItemSoldSuccess(uint256,address,address,uint256)": {
        "notice": "Event sell successfull"
      }
    },
    "kind": "user",
    "methods": {
      "constructor": {
        "notice": "Set the token address in the constructor to only be able to list/buy/sell this specific token"
      },
      "getListedItems()": {
        "notice": "Allows to list all the items that is sell on the marketplace"
      },
      "getlistingFee()": {
        "notice": "Allows to know the current listing fees"
      },
      "listItem(uint256,uint256)": {
        "notice": "Allow a user to sell an item on the marketplace"
      },
      "listedItems(uint256)": {
        "notice": "All lited items"
      },
      "listedItemsCount()": {
        "notice": "Number of item listed on the marketplace"
      },
      "listingFee()": {
        "notice": "The fee charged to be able to list an item"
      },
      "tokenAddress()": {
        "notice": "Only this token address is allowed on this marketplace for now"
      },
      "updatelistingFee(uint256)": {
        "notice": "Allows a registered voter to check informations of another voter. Requirements:  - The caller must be the owner."
      }
    },
    "version": 1
  }
}