{
  "contractName": "AuctionHouse",
  "abi": [
    {
      "inputs": [
        {
          "internalType": "address",
          "name": "_tokenAddress",
          "type": "address"
        }
      ],
      "stateMutability": "nonpayable",
      "type": "constructor"
    },
    {
      "anonymous": false,
      "inputs": [
        {
          "indexed": true,
          "internalType": "address",
          "name": "previousOwner",
          "type": "address"
        },
        {
          "indexed": true,
          "internalType": "address",
          "name": "newOwner",
          "type": "address"
        }
      ],
      "name": "OwnershipTransferred",
      "type": "event"
    },
    {
      "inputs": [
        {
          "internalType": "address",
          "name": "",
          "type": "address"
        },
        {
          "internalType": "address",
          "name": "",
          "type": "address"
        },
        {
          "internalType": "uint256[]",
          "name": "",
          "type": "uint256[]"
        },
        {
          "internalType": "uint256[]",
          "name": "",
          "type": "uint256[]"
        },
        {
          "internalType": "bytes",
          "name": "",
          "type": "bytes"
        }
      ],
      "name": "onERC1155BatchReceived",
      "outputs": [
        {
          "internalType": "bytes4",
          "name": "",
          "type": "bytes4"
        }
      ],
      "stateMutability": "nonpayable",
      "type": "function"
    },
    {
      "inputs": [
        {
          "internalType": "address",
          "name": "",
          "type": "address"
        },
        {
          "internalType": "address",
          "name": "",
          "type": "address"
        },
        {
          "internalType": "uint256",
          "name": "",
          "type": "uint256"
        },
        {
          "internalType": "uint256",
          "name": "",
          "type": "uint256"
        },
        {
          "internalType": "bytes",
          "name": "",
          "type": "bytes"
        }
      ],
      "name": "onERC1155Received",
      "outputs": [
        {
          "internalType": "bytes4",
          "name": "",
          "type": "bytes4"
        }
      ],
      "stateMutability": "nonpayable",
      "type": "function"
    },
    {
      "inputs": [],
      "name": "owner",
      "outputs": [
        {
          "internalType": "address",
          "name": "",
          "type": "address"
        }
      ],
      "stateMutability": "view",
      "type": "function",
      "constant": true
    },
    {
      "inputs": [],
      "name": "renounceOwnership",
      "outputs": [],
      "stateMutability": "nonpayable",
      "type": "function"
    },
    {
      "inputs": [
        {
          "internalType": "bytes4",
          "name": "interfaceId",
          "type": "bytes4"
        }
      ],
      "name": "supportsInterface",
      "outputs": [
        {
          "internalType": "bool",
          "name": "",
          "type": "bool"
        }
      ],
      "stateMutability": "view",
      "type": "function",
      "constant": true
    },
    {
      "inputs": [],
      "name": "tokenAddress",
      "outputs": [
        {
          "internalType": "address",
          "name": "",
          "type": "address"
        }
      ],
      "stateMutability": "view",
      "type": "function",
      "constant": true
    },
    {
      "inputs": [
        {
          "internalType": "address",
          "name": "newOwner",
          "type": "address"
        }
      ],
      "name": "transferOwnership",
      "outputs": [],
      "stateMutability": "nonpayable",
      "type": "function"
    },
    {
      "inputs": [
        {
          "internalType": "uint256",
          "name": "itemId",
          "type": "uint256"
        },
        {
          "internalType": "uint256",
          "name": "price",
          "type": "uint256"
        },
        {
          "internalType": "uint256",
          "name": "deadline",
          "type": "uint256"
        }
      ],
      "name": "listItem",
      "outputs": [],
      "stateMutability": "nonpayable",
      "type": "function"
    }
  ],
  "bytecode": "0x6080604052662386f26fc100006003553480156200001c57600080fd5b50604051620010cb380380620010cb8339818101604052810190620000429190620001e0565b6200006262000056620000aa60201b60201c565b620000b260201b60201c565b80600460006101000a81548173ffffffffffffffffffffffffffffffffffffffff021916908373ffffffffffffffffffffffffffffffffffffffff1602179055505062000212565b600033905090565b60008060009054906101000a900473ffffffffffffffffffffffffffffffffffffffff169050816000806101000a81548173ffffffffffffffffffffffffffffffffffffffff021916908373ffffffffffffffffffffffffffffffffffffffff1602179055508173ffffffffffffffffffffffffffffffffffffffff168173ffffffffffffffffffffffffffffffffffffffff167f8be0079c531659141344cd1fd0a4f28419497f9722a3daafe3b4186f6b6457e060405160405180910390a35050565b600080fd5b600073ffffffffffffffffffffffffffffffffffffffff82169050919050565b6000620001a8826200017b565b9050919050565b620001ba816200019b565b8114620001c657600080fd5b50565b600081519050620001da81620001af565b92915050565b600060208284031215620001f957620001f862000176565b5b60006200020984828501620001c9565b91505092915050565b610ea980620002226000396000f3fe608060405234801561001057600080fd5b50600436106100885760003560e01c8063bc197c811161005b578063bc197c8114610103578063ec16b94a14610133578063f23a6e611461014f578063f2fde38b1461017f57610088565b806301ffc9a71461008d578063715018a6146100bd5780638da5cb5b146100c75780639d76ea58146100e5575b600080fd5b6100a760048036038101906100a2919061071c565b61019b565b6040516100b49190610764565b60405180910390f35b6100c5610215565b005b6100cf610229565b6040516100dc91906107c0565b60405180910390f35b6100ed610252565b6040516100fa91906107c0565b60405180910390f35b61011d60048036038101906101189190610a4b565b610278565b60405161012a9190610b29565b60405180910390f35b61014d60048036038101906101489190610b44565b61028d565b005b61016960048036038101906101649190610b97565b610464565b6040516101769190610b29565b60405180910390f35b61019960048036038101906101949190610c2e565b610479565b005b60007f4e2312e0000000000000000000000000000000000000000000000000000000007bffffffffffffffffffffffffffffffffffffffffffffffffffffffff1916827bffffffffffffffffffffffffffffffffffffffffffffffffffffffff1916148061020e575061020d826104fc565b5b9050919050565b61021d610566565b61022760006105e4565b565b60008060009054906101000a900473ffffffffffffffffffffffffffffffffffffffff16905090565b600460009054906101000a900473ffffffffffffffffffffffffffffffffffffffff1681565b600063bc197c8160e01b905095945050505050565b6040518060c001604052808481526020013073ffffffffffffffffffffffffffffffffffffffff1681526020013373ffffffffffffffffffffffffffffffffffffffff16815260200183815260200182815260200160011515815250600560008581526020019081526020016000206000820151816000015560208201518160010160006101000a81548173ffffffffffffffffffffffffffffffffffffffff021916908373ffffffffffffffffffffffffffffffffffffffff16021790555060408201518160020160006101000a81548173ffffffffffffffffffffffffffffffffffffffff021916908373ffffffffffffffffffffffffffffffffffffffff160217905550606082015181600301556080820151816004015560a08201518160050160006101000a81548160ff021916908315150217905550905050600460009054906101000a900473ffffffffffffffffffffffffffffffffffffffff1673ffffffffffffffffffffffffffffffffffffffff1663f242432a33308660016040518563ffffffff1660e01b815260040161042d9493929190610d0c565b600060405180830381600087803b15801561044757600080fd5b505af115801561045b573d6000803e3d6000fd5b50505050505050565b600063f23a6e6160e01b905095945050505050565b610481610566565b600073ffffffffffffffffffffffffffffffffffffffff168173ffffffffffffffffffffffffffffffffffffffff16036104f0576040517f08c379a00000000000000000000000000000000000000000000000000000000081526004016104e790610de7565b60405180910390fd5b6104f9816105e4565b50565b60007f01ffc9a7000000000000000000000000000000000000000000000000000000007bffffffffffffffffffffffffffffffffffffffffffffffffffffffff1916827bffffffffffffffffffffffffffffffffffffffffffffffffffffffff1916149050919050565b61056e6106a8565b73ffffffffffffffffffffffffffffffffffffffff1661058c610229565b73ffffffffffffffffffffffffffffffffffffffff16146105e2576040517f08c379a00000000000000000000000000000000000000000000000000000000081526004016105d990610e53565b60405180910390fd5b565b60008060009054906101000a900473ffffffffffffffffffffffffffffffffffffffff169050816000806101000a81548173ffffffffffffffffffffffffffffffffffffffff021916908373ffffffffffffffffffffffffffffffffffffffff1602179055508173ffffffffffffffffffffffffffffffffffffffff168173ffffffffffffffffffffffffffffffffffffffff167f8be0079c531659141344cd1fd0a4f28419497f9722a3daafe3b4186f6b6457e060405160405180910390a35050565b600033905090565b6000604051905090565b600080fd5b600080fd5b60007fffffffff0000000000000000000000000000000000000000000000000000000082169050919050565b6106f9816106c4565b811461070457600080fd5b50565b600081359050610716816106f0565b92915050565b600060208284031215610732576107316106ba565b5b600061074084828501610707565b91505092915050565b60008115159050919050565b61075e81610749565b82525050565b60006020820190506107796000830184610755565b92915050565b600073ffffffffffffffffffffffffffffffffffffffff82169050919050565b60006107aa8261077f565b9050919050565b6107ba8161079f565b82525050565b60006020820190506107d560008301846107b1565b92915050565b6107e48161079f565b81146107ef57600080fd5b50565b600081359050610801816107db565b92915050565b600080fd5b6000601f19601f8301169050919050565b7f4e487b7100000000000000000000000000000000000000000000000000000000600052604160045260246000fd5b6108558261080c565b810181811067ffffffffffffffff821117156108745761087361081d565b5b80604052505050565b60006108876106b0565b9050610893828261084c565b919050565b600067ffffffffffffffff8211156108b3576108b261081d565b5b602082029050602081019050919050565b600080fd5b6000819050919050565b6108dc816108c9565b81146108e757600080fd5b50565b6000813590506108f9816108d3565b92915050565b600061091261090d84610898565b61087d565b90508083825260208201905060208402830185811115610935576109346108c4565b5b835b8181101561095e578061094a88826108ea565b845260208401935050602081019050610937565b5050509392505050565b600082601f83011261097d5761097c610807565b5b813561098d8482602086016108ff565b91505092915050565b600080fd5b600067ffffffffffffffff8211156109b6576109b561081d565b5b6109bf8261080c565b9050602081019050919050565b82818337600083830152505050565b60006109ee6109e98461099b565b61087d565b905082815260208101848484011115610a0a57610a09610996565b5b610a158482856109cc565b509392505050565b600082601f830112610a3257610a31610807565b5b8135610a428482602086016109db565b91505092915050565b600080600080600060a08688031215610a6757610a666106ba565b5b6000610a75888289016107f2565b9550506020610a86888289016107f2565b945050604086013567ffffffffffffffff811115610aa757610aa66106bf565b5b610ab388828901610968565b935050606086013567ffffffffffffffff811115610ad457610ad36106bf565b5b610ae088828901610968565b925050608086013567ffffffffffffffff811115610b0157610b006106bf565b5b610b0d88828901610a1d565b9150509295509295909350565b610b23816106c4565b82525050565b6000602082019050610b3e6000830184610b1a565b92915050565b600080600060608486031215610b5d57610b5c6106ba565b5b6000610b6b868287016108ea565b9350506020610b7c868287016108ea565b9250506040610b8d868287016108ea565b9150509250925092565b600080600080600060a08688031215610bb357610bb26106ba565b5b6000610bc1888289016107f2565b9550506020610bd2888289016107f2565b9450506040610be3888289016108ea565b9350506060610bf4888289016108ea565b925050608086013567ffffffffffffffff811115610c1557610c146106bf565b5b610c2188828901610a1d565b9150509295509295909350565b600060208284031215610c4457610c436106ba565b5b6000610c52848285016107f2565b91505092915050565b610c64816108c9565b82525050565b6000819050919050565b6000819050919050565b6000610c99610c94610c8f84610c6a565b610c74565b6108c9565b9050919050565b610ca981610c7e565b82525050565b600082825260208201905092915050565b7f3078300000000000000000000000000000000000000000000000000000000000600082015250565b6000610cf6600383610caf565b9150610d0182610cc0565b602082019050919050565b600060a082019050610d2160008301876107b1565b610d2e60208301866107b1565b610d3b6040830185610c5b565b610d486060830184610ca0565b8181036080830152610d5981610ce9565b905095945050505050565b600082825260208201905092915050565b7f4f776e61626c653a206e6577206f776e657220697320746865207a65726f206160008201527f6464726573730000000000000000000000000000000000000000000000000000602082015250565b6000610dd1602683610d64565b9150610ddc82610d75565b604082019050919050565b60006020820190508181036000830152610e0081610dc4565b9050919050565b7f4f776e61626c653a2063616c6c6572206973206e6f7420746865206f776e6572600082015250565b6000610e3d602083610d64565b9150610e4882610e07565b602082019050919050565b60006020820190508181036000830152610e6c81610e30565b905091905056fea2646970667358221220b9d527984a6305fa0eff2fc15b5933e05b2d7d80ac57891239690768be4df37164736f6c63430008120033",
  "immutableReferences": {},
  "source": "// SPDX-License-Identifier: MIT\r\npragma solidity ^0.8.18;\r\n\r\nimport \"../../node_modules/@openzeppelin/contracts/token/ERC1155/IERC1155.sol\";\r\nimport \"../../node_modules/@openzeppelin/contracts/utils/Counters.sol\";\r\nimport \"../../node_modules/@openzeppelin/contracts/access/Ownable.sol\";\r\nimport \"../../node_modules/@openzeppelin/contracts/token/ERC1155/utils/ERC1155Holder.sol\";\r\n\r\ncontract AuctionHouse is Ownable, ERC1155Holder {\r\n    using Counters for Counters.Counter;\r\n    //_itemIds variable has the most recent minted tokenId\r\n    Counters.Counter private _itemIds;\r\n    //Keeps track of the number of items sold on the marketplace\r\n    Counters.Counter private _itemsSold;\r\n    // //owner is the contract address that created the smart contract\r\n    // address payable owner;\r\n    //The fee charged by the marketplace to be allowed to list an NFT\r\n    uint256 listPrice = 0.01 ether;\r\n\r\n    address public tokenAddress;\r\n\r\n    //The structure to store info about a listed token\r\n    struct ListedItem {\r\n        uint256 itemId;\r\n        address payable owner;\r\n        address payable seller;\r\n        uint256 price;\r\n        uint256 deadline;\r\n        bool currentlyListed;\r\n    }\r\n\r\n    //the event emitted when a token is successfully listed\r\n    // event ItemListedSuccess (\r\n    //     uint256 indexed tokenId,\r\n    //     address owner,\r\n    //     address seller,\r\n    //     uint256 price,\r\n    //     bool currentlyListed\r\n    // );\r\n\r\n    //This mapping maps tokenId to token info and is helpful when retrieving details about a tokenId\r\n    mapping(uint256 => ListedItem) private idToListedItem;\r\n\r\n    constructor(address _tokenAddress) {\r\n        // Set the token address in the constructor\r\n        // to only be able to list/buy/sell this specific token\r\n        tokenAddress = _tokenAddress;\r\n    }\r\n\r\n    // function updateListPrice(uint256 _listPrice) public payable {\r\n    //     require(owner == msg.sender, \"Only owner can update listing price\");\r\n    //     listPrice = _listPrice;\r\n    // }\r\n\r\n    // function getListPrice() public view returns (uint256) {\r\n    //     return listPrice;\r\n    // }\r\n\r\n    // function getLatestIdToListedItem()\r\n    //     public\r\n    //     view\r\n    //     returns (ListedItem memory)\r\n    // {\r\n    //     uint256 currentItemId = _itemIds.current();\r\n    //     return idToListedItem[currentItemId];\r\n    // }\r\n\r\n    // function getListedItemForId(\r\n    //     uint256 tokenId\r\n    // ) public view returns (ListedItem memory) {\r\n    //     return idToListedItem[tokenId];\r\n    // }\r\n\r\n    // function getCurrentItem() public view returns (uint256) {\r\n    //     return _itemIds.current();\r\n    // }\r\n\r\n    function listItem(\r\n        uint256 itemId,\r\n        uint256 price,\r\n        uint256 deadline\r\n    ) external {\r\n        //Make sure the sender sent enough ETH to pay for listing\r\n        // require(msg.value == listPrice, \"Hopefully sending the correct price\");\r\n        // //Just sanity check\r\n        // require(price > 0, \"Make sure the price isn't negative\");\r\n        // require(\r\n        //     _deadline > 3600,\r\n        //     \"The deadline needs to be greater than 1 hour\"\r\n        // );\r\n\r\n        //Update the mapping of tokenId's to Item details, useful for retrieval functions\r\n        idToListedItem[itemId] = ListedItem(\r\n            itemId,\r\n            payable(address(this)),\r\n            payable(msg.sender),\r\n            price,\r\n            deadline,\r\n            true\r\n        );\r\n\r\n        // IERC1155(nftContract).safeTransferFrom(\r\n        //     msg.sender,\r\n        //     _receiver,\r\n        //     _itemId,\r\n        //     _amountOfItem,\r\n        //     \"0x0\"\r\n        // );\r\n\r\n        IERC1155(tokenAddress).safeTransferFrom(\r\n            msg.sender,\r\n            address(this),\r\n            itemId,\r\n            1,\r\n            \"0x0\"\r\n        );\r\n        // _marketOwner.transfer(LISTING_FEE);\r\n        // _nftCount.increment();\r\n\r\n        //Emit the event for successful transfer. The frontend parses this message and updates the end user\r\n        // emit ItemListedSuccess(\r\n        //     tokenId,\r\n        //     address(this),\r\n        //     msg.sender,\r\n        //     price,\r\n        //     true\r\n        // );\r\n    }\r\n\r\n    //This will return all the NFTs currently listed to be sold on the marketplace\r\n    // function getAllNFTs() public view returns (ListedItem[] memory) {\r\n    //     uint nftCount = _itemIds.current();\r\n    //     ListedItem[] memory tokens = new ListedItem[](nftCount);\r\n    //     uint currentIndex = 0;\r\n\r\n    //     //at the moment currentlyListed is true for all, if it becomes false in the future we will\r\n    //     //filter out currentlyListed == false over here\r\n    //     for (uint i = 0; i < nftCount; i++) {\r\n    //         uint currentId = i + 1;\r\n    //         ListedItem storage currentItem = idToListedItem[currentId];\r\n    //         tokens[currentIndex] = currentItem;\r\n    //         currentIndex += 1;\r\n    //     }\r\n    //     //the array 'tokens' has the list of all NFTs in the marketplace\r\n    //     return tokens;\r\n    // }\r\n\r\n    // //Returns all the NFTs that the current user is owner or seller in\r\n    // function getMyNFTs() public view returns (ListedItem[] memory) {\r\n    //     uint totalItemCount = _itemIds.current();\r\n    //     uint itemCount = 0;\r\n    //     uint currentIndex = 0;\r\n\r\n    //     //Important to get a count of all the NFTs that belong to the user before we can make an array for them\r\n    //     for (uint i = 0; i < totalItemCount; i++) {\r\n    //         if (\r\n    //             idToListedItem[i + 1].owner == msg.sender ||\r\n    //             idToListedItem[i + 1].seller == msg.sender\r\n    //         ) {\r\n    //             itemCount += 1;\r\n    //         }\r\n    //     }\r\n\r\n    //     //Once you have the count of relevant NFTs, create an array then store all the NFTs in it\r\n    //     ListedItem[] memory items = new ListedItem[](itemCount);\r\n    //     for (uint i = 0; i < totalItemCount; i++) {\r\n    //         if (\r\n    //             idToListedItem[i + 1].owner == msg.sender ||\r\n    //             idToListedItem[i + 1].seller == msg.sender\r\n    //         ) {\r\n    //             uint currentId = i + 1;\r\n    //             ListedItem storage currentItem = idToListedItem[currentId];\r\n    //             items[currentIndex] = currentItem;\r\n    //             currentIndex += 1;\r\n    //         }\r\n    //     }\r\n    //     return items;\r\n    // }\r\n\r\n    // function executeSale(uint256 tokenId) public payable {\r\n    //     uint price = idToListedItem[tokenId].price;\r\n    //     address seller = idToListedItem[tokenId].seller;\r\n    //     require(\r\n    //         msg.value == price,\r\n    //         \"Please submit the asking price in order to complete the purchase\"\r\n    //     );\r\n\r\n    //     //update the details of the token\r\n    //     idToListedItem[tokenId].currentlyListed = true;\r\n    //     idToListedItem[tokenId].seller = payable(msg.sender);\r\n    //     _itemsSold.increment();\r\n\r\n    //     //Actually transfer the token to the new owner\r\n    //     _transfer(address(this), msg.sender, tokenId);\r\n    //     //approve the marketplace to sell NFTs on your behalf\r\n    //     approve(address(this), tokenId);\r\n\r\n    //     //Transfer the listing fee to the marketplace creator\r\n    //     payable(owner).transfer(listPrice);\r\n    //     //Transfer the proceeds from the sale to the seller of the NFT\r\n    //     payable(seller).transfer(msg.value);\r\n    // }\r\n}\r\n",
  "sourcePath": "C:\\Users\\Alex\\Documents\\Travail\\Alyra\\NG-Marketplace\\truffle\\contracts\\AuctionHouse\\AuctionHouse.sol",
  "compiler": {
    "name": "solc",
    "version": "0.8.18+commit.87f61d96.Emscripten.clang"
  },
  "schemaVersion": "3.4.7",
  "updatedAt": "2023-04-01T06:23:33.504Z",
  "networkType": "ethereum",
  "devdoc": {
    "kind": "dev",
    "methods": {
      "owner()": {
        "details": "Returns the address of the current owner."
      },
      "renounceOwnership()": {
        "details": "Leaves the contract without owner. It will not be possible to call `onlyOwner` functions anymore. Can only be called by the current owner. NOTE: Renouncing ownership will leave the contract without an owner, thereby removing any functionality that is only available to the owner."
      },
      "supportsInterface(bytes4)": {
        "details": "See {IERC165-supportsInterface}."
      },
      "transferOwnership(address)": {
        "details": "Transfers ownership of the contract to a new account (`newOwner`). Can only be called by the current owner."
      }
    },
    "version": 1
  },
  "userdoc": {
    "kind": "user",
    "methods": {},
    "version": 1
  }
}