{
  "contractName": "AuctionHouse",
  "abi": [
    {
      "inputs": [
        {
          "internalType": "address",
          "name": "_tokenAddress",
          "type": "address"
        }
      ],
      "stateMutability": "nonpayable",
      "type": "constructor"
    },
    {
      "anonymous": false,
      "inputs": [
        {
          "indexed": true,
          "internalType": "uint256",
          "name": "tokenId",
          "type": "uint256"
        },
        {
          "indexed": false,
          "internalType": "address",
          "name": "owner",
          "type": "address"
        },
        {
          "indexed": false,
          "internalType": "address",
          "name": "seller",
          "type": "address"
        },
        {
          "indexed": false,
          "internalType": "uint256",
          "name": "price",
          "type": "uint256"
        }
      ],
      "name": "ItemListedSuccess",
      "type": "event"
    },
    {
      "anonymous": false,
      "inputs": [
        {
          "indexed": true,
          "internalType": "address",
          "name": "previousOwner",
          "type": "address"
        },
        {
          "indexed": true,
          "internalType": "address",
          "name": "newOwner",
          "type": "address"
        }
      ],
      "name": "OwnershipTransferred",
      "type": "event"
    },
    {
      "inputs": [
        {
          "internalType": "uint256",
          "name": "",
          "type": "uint256"
        }
      ],
      "name": "listedItems",
      "outputs": [
        {
          "internalType": "uint256",
          "name": "itemId",
          "type": "uint256"
        },
        {
          "internalType": "address payable",
          "name": "owner",
          "type": "address"
        },
        {
          "internalType": "address payable",
          "name": "seller",
          "type": "address"
        },
        {
          "internalType": "address",
          "name": "buyer",
          "type": "address"
        },
        {
          "internalType": "uint256",
          "name": "price",
          "type": "uint256"
        },
        {
          "internalType": "uint256",
          "name": "deadline",
          "type": "uint256"
        },
        {
          "internalType": "bool",
          "name": "currentlyListed",
          "type": "bool"
        },
        {
          "internalType": "bool",
          "name": "isSold",
          "type": "bool"
        }
      ],
      "stateMutability": "view",
      "type": "function",
      "constant": true
    },
    {
      "inputs": [],
      "name": "listedItemsCount",
      "outputs": [
        {
          "internalType": "uint256",
          "name": "_value",
          "type": "uint256"
        }
      ],
      "stateMutability": "view",
      "type": "function",
      "constant": true
    },
    {
      "inputs": [],
      "name": "listingPrice",
      "outputs": [
        {
          "internalType": "uint256",
          "name": "",
          "type": "uint256"
        }
      ],
      "stateMutability": "view",
      "type": "function",
      "constant": true
    },
    {
      "inputs": [
        {
          "internalType": "address",
          "name": "",
          "type": "address"
        },
        {
          "internalType": "address",
          "name": "",
          "type": "address"
        },
        {
          "internalType": "uint256[]",
          "name": "",
          "type": "uint256[]"
        },
        {
          "internalType": "uint256[]",
          "name": "",
          "type": "uint256[]"
        },
        {
          "internalType": "bytes",
          "name": "",
          "type": "bytes"
        }
      ],
      "name": "onERC1155BatchReceived",
      "outputs": [
        {
          "internalType": "bytes4",
          "name": "",
          "type": "bytes4"
        }
      ],
      "stateMutability": "nonpayable",
      "type": "function"
    },
    {
      "inputs": [
        {
          "internalType": "address",
          "name": "",
          "type": "address"
        },
        {
          "internalType": "address",
          "name": "",
          "type": "address"
        },
        {
          "internalType": "uint256",
          "name": "",
          "type": "uint256"
        },
        {
          "internalType": "uint256",
          "name": "",
          "type": "uint256"
        },
        {
          "internalType": "bytes",
          "name": "",
          "type": "bytes"
        }
      ],
      "name": "onERC1155Received",
      "outputs": [
        {
          "internalType": "bytes4",
          "name": "",
          "type": "bytes4"
        }
      ],
      "stateMutability": "nonpayable",
      "type": "function"
    },
    {
      "inputs": [],
      "name": "owner",
      "outputs": [
        {
          "internalType": "address",
          "name": "",
          "type": "address"
        }
      ],
      "stateMutability": "view",
      "type": "function",
      "constant": true
    },
    {
      "inputs": [],
      "name": "renounceOwnership",
      "outputs": [],
      "stateMutability": "nonpayable",
      "type": "function"
    },
    {
      "inputs": [
        {
          "internalType": "bytes4",
          "name": "interfaceId",
          "type": "bytes4"
        }
      ],
      "name": "supportsInterface",
      "outputs": [
        {
          "internalType": "bool",
          "name": "",
          "type": "bool"
        }
      ],
      "stateMutability": "view",
      "type": "function",
      "constant": true
    },
    {
      "inputs": [],
      "name": "tokenAddress",
      "outputs": [
        {
          "internalType": "address",
          "name": "",
          "type": "address"
        }
      ],
      "stateMutability": "view",
      "type": "function",
      "constant": true
    },
    {
      "inputs": [
        {
          "internalType": "address",
          "name": "newOwner",
          "type": "address"
        }
      ],
      "name": "transferOwnership",
      "outputs": [],
      "stateMutability": "nonpayable",
      "type": "function"
    },
    {
      "inputs": [
        {
          "internalType": "uint256",
          "name": "newPrice",
          "type": "uint256"
        }
      ],
      "name": "updateListingPrice",
      "outputs": [],
      "stateMutability": "payable",
      "type": "function",
      "payable": true
    },
    {
      "inputs": [],
      "name": "getListingPrice",
      "outputs": [
        {
          "internalType": "uint256",
          "name": "",
          "type": "uint256"
        }
      ],
      "stateMutability": "view",
      "type": "function",
      "constant": true
    },
    {
      "inputs": [
        {
          "internalType": "uint256",
          "name": "itemId",
          "type": "uint256"
        },
        {
          "internalType": "uint256",
          "name": "sellingPrice",
          "type": "uint256"
        },
        {
          "internalType": "uint256",
          "name": "deadline",
          "type": "uint256"
        }
      ],
      "name": "listItem",
      "outputs": [],
      "stateMutability": "payable",
      "type": "function",
      "payable": true
    },
    {
      "inputs": [
        {
          "internalType": "bool",
          "name": "ownedByCaller",
          "type": "bool"
        },
        {
          "internalType": "bool",
          "name": "stillListed",
          "type": "bool"
        },
        {
          "internalType": "bool",
          "name": "isSold",
          "type": "bool"
        }
      ],
      "name": "getListedItems",
      "outputs": [
        {
          "components": [
            {
              "internalType": "uint256",
              "name": "itemId",
              "type": "uint256"
            },
            {
              "internalType": "address payable",
              "name": "owner",
              "type": "address"
            },
            {
              "internalType": "address payable",
              "name": "seller",
              "type": "address"
            },
            {
              "internalType": "address",
              "name": "buyer",
              "type": "address"
            },
            {
              "internalType": "uint256",
              "name": "price",
              "type": "uint256"
            },
            {
              "internalType": "uint256",
              "name": "deadline",
              "type": "uint256"
            },
            {
              "internalType": "bool",
              "name": "currentlyListed",
              "type": "bool"
            },
            {
              "internalType": "bool",
              "name": "isSold",
              "type": "bool"
            }
          ],
          "internalType": "struct AuctionHouse.ListedItem[]",
          "name": "",
          "type": "tuple[]"
        }
      ],
      "stateMutability": "view",
      "type": "function",
      "constant": true
    },
    {
      "inputs": [
        {
          "internalType": "uint256",
          "name": "listedItemId",
          "type": "uint256"
        }
      ],
      "name": "executeSale",
      "outputs": [],
      "stateMutability": "payable",
      "type": "function",
      "payable": true
    }
  ],
  "bytecode": "0x6080604052662386f26fc100006002553480156200001c57600080fd5b5060405162002242380380620022428339818101604052810190620000429190620001e0565b6200006262000056620000aa60201b60201c565b620000b260201b60201c565b80600160006101000a81548173ffffffffffffffffffffffffffffffffffffffff021916908373ffffffffffffffffffffffffffffffffffffffff1602179055505062000212565b600033905090565b60008060009054906101000a900473ffffffffffffffffffffffffffffffffffffffff169050816000806101000a81548173ffffffffffffffffffffffffffffffffffffffff021916908373ffffffffffffffffffffffffffffffffffffffff1602179055508173ffffffffffffffffffffffffffffffffffffffff168173ffffffffffffffffffffffffffffffffffffffff167f8be0079c531659141344cd1fd0a4f28419497f9722a3daafe3b4186f6b6457e060405160405180910390a35050565b600080fd5b600073ffffffffffffffffffffffffffffffffffffffff82169050919050565b6000620001a8826200017b565b9050919050565b620001ba816200019b565b8114620001c657600080fd5b50565b600081519050620001da81620001af565b92915050565b600060208284031215620001f957620001f862000176565b5b60006200020984828501620001c9565b91505092915050565b61202080620002226000396000f3fe6080604052600436106100e75760003560e01c8063ae677aa31161008a578063d234706111610059578063d2347061146102c9578063ec16b94a1461030d578063f23a6e6114610329578063f2fde38b14610366576100e7565b8063ae677aa31461021a578063bc197c8114610236578063c78f19f914610273578063ccb4918d1461029e576100e7565b8063715018a6116100c6578063715018a6146101915780638da5cb5b146101a85780639b1225c4146101d35780639d76ea58146101ef576100e7565b8062ba8382146100ec57806301ffc9a71461012957806312e8558514610166575b600080fd5b3480156100f857600080fd5b50610113600480360381019061010e91906112bb565b61038f565b60405161012091906114ea565b60405180910390f35b34801561013557600080fd5b50610150600480360381019061014b9190611564565b610688565b60405161015d91906115a0565b60405180910390f35b34801561017257600080fd5b5061017b610702565b60405161018891906115ca565b60405180910390f35b34801561019d57600080fd5b506101a661070c565b005b3480156101b457600080fd5b506101bd610720565b6040516101ca91906115f4565b60405180910390f35b6101ed60048036038101906101e8919061163b565b610749565b005b3480156101fb57600080fd5b50610204610994565b60405161021191906115f4565b60405180910390f35b610234600480360381019061022f919061163b565b6109ba565b005b34801561024257600080fd5b5061025d600480360381019061025891906118a2565b610a0f565b60405161026a9190611980565b60405180910390f35b34801561027f57600080fd5b50610288610a24565b60405161029591906115ca565b60405180910390f35b3480156102aa57600080fd5b506102b3610a2a565b6040516102c091906115ca565b60405180910390f35b3480156102d557600080fd5b506102f060048036038101906102eb919061163b565b610a36565b6040516103049897969594939291906119aa565b60405180910390f35b61032760048036038101906103229190611a28565b610b08565b005b34801561033557600080fd5b50610350600480360381019061034b9190611a7b565b610f74565b60405161035d9190611980565b60405180910390f35b34801561037257600080fd5b5061038d60048036038101906103889190611b12565b610f89565b005b6060600061039d600461100c565b67ffffffffffffffff8111156103b6576103b56116aa565b5b6040519080825280602002602001820160405280156103ef57816020015b6103dc6111e4565b8152602001906001900390816103d45790505b5090506000805b610400600461100c565b81101561067b5760006006828154811061041d5761041c611b3f565b5b906000526020600020906007020190508715610491573373ffffffffffffffffffffffffffffffffffffffff168160010160009054906101000a900473ffffffffffffffffffffffffffffffffffffffff1673ffffffffffffffffffffffffffffffffffffffff16146104905750610668565b5b86156104b4578060060160009054906101000a900460ff166104b35750610668565b5b85156104d7578060060160019054906101000a900460ff166104d65750610668565b5b8060405180610100016040529081600082015481526020016001820160009054906101000a900473ffffffffffffffffffffffffffffffffffffffff1673ffffffffffffffffffffffffffffffffffffffff1673ffffffffffffffffffffffffffffffffffffffff1681526020016002820160009054906101000a900473ffffffffffffffffffffffffffffffffffffffff1673ffffffffffffffffffffffffffffffffffffffff1673ffffffffffffffffffffffffffffffffffffffff1681526020016003820160009054906101000a900473ffffffffffffffffffffffffffffffffffffffff1673ffffffffffffffffffffffffffffffffffffffff1673ffffffffffffffffffffffffffffffffffffffff16815260200160048201548152602001600582015481526020016006820160009054906101000a900460ff161515151581526020016006820160019054906101000a900460ff16151515158152505084848151811061064d5761064c611b3f565b5b6020026020010181905250828061066390611b9d565b935050505b808061067390611b9d565b9150506103f6565b5081925050509392505050565b60007f4e2312e0000000000000000000000000000000000000000000000000000000007bffffffffffffffffffffffffffffffffffffffffffffffffffffffff1916827bffffffffffffffffffffffffffffffffffffffffffffffffffffffff191614806106fb57506106fa8261101a565b5b9050919050565b6000600254905090565b610714611084565b61071e6000611102565b565b60008060009054906101000a900473ffffffffffffffffffffffffffffffffffffffff16905090565b60006005600083815260200190815260200160002060040154905060006005600084815260200190815260200160002060020160009054906101000a900473ffffffffffffffffffffffffffffffffffffffff1690508134146107e1576040517f08c379a00000000000000000000000000000000000000000000000000000000081526004016107d890611c68565b60405180910390fd5b60006005600085815260200190815260200160002060060160006101000a81548160ff021916908315150217905550336005600085815260200190815260200160002060030160006101000a81548173ffffffffffffffffffffffffffffffffffffffff021916908373ffffffffffffffffffffffffffffffffffffffff16021790555060016005600085815260200190815260200160002060060160016101000a81548160ff02191690831515021790555061089e60036111c6565b600160009054906101000a900473ffffffffffffffffffffffffffffffffffffffff1673ffffffffffffffffffffffffffffffffffffffff1663f242432a3033600560008881526020019081526020016000206000015460016040518563ffffffff1660e01b81526004016109169493929190611d2a565b600060405180830381600087803b15801561093057600080fd5b505af1158015610944573d6000803e3d6000fd5b505050508073ffffffffffffffffffffffffffffffffffffffff166108fc349081150290604051600060405180830381858888f1935050505015801561098e573d6000803e3d6000fd5b50505050565b600160009054906101000a900473ffffffffffffffffffffffffffffffffffffffff1681565b6109c2611084565b60008111610a05576040517f08c379a00000000000000000000000000000000000000000000000000000000081526004016109fc90611dce565b60405180910390fd5b8060028190555050565b600063bc197c8160e01b905095945050505050565b60025481565b60048060000154905081565b60068181548110610a4657600080fd5b90600052602060002090600702016000915090508060000154908060010160009054906101000a900473ffffffffffffffffffffffffffffffffffffffff16908060020160009054906101000a900473ffffffffffffffffffffffffffffffffffffffff16908060030160009054906101000a900473ffffffffffffffffffffffffffffffffffffffff16908060040154908060050154908060060160009054906101000a900460ff16908060060160019054906101000a900460ff16905088565b6002543414610b4c576040517f08c379a0000000000000000000000000000000000000000000000000000000008152600401610b4390611e3a565b60405180910390fd5b60008211610b8f576040517f08c379a0000000000000000000000000000000000000000000000000000000008152600401610b8690611ecc565b60405180910390fd5b6000610b9b600461100c565b905060006040518061010001604052808681526020013373ffffffffffffffffffffffffffffffffffffffff1681526020013073ffffffffffffffffffffffffffffffffffffffff168152602001600073ffffffffffffffffffffffffffffffffffffffff16815260200185815260200184815260200160011515815260200160001515815250905080600560008481526020019081526020016000206000820151816000015560208201518160010160006101000a81548173ffffffffffffffffffffffffffffffffffffffff021916908373ffffffffffffffffffffffffffffffffffffffff16021790555060408201518160020160006101000a81548173ffffffffffffffffffffffffffffffffffffffff021916908373ffffffffffffffffffffffffffffffffffffffff16021790555060608201518160030160006101000a81548173ffffffffffffffffffffffffffffffffffffffff021916908373ffffffffffffffffffffffffffffffffffffffff1602179055506080820151816004015560a0820151816005015560c08201518160060160006101000a81548160ff02191690831515021790555060e08201518160060160016101000a81548160ff02191690831515021790555090505060068190806001815401808255809150506001900390600052602060002090600702016000909190919091506000820151816000015560208201518160010160006101000a81548173ffffffffffffffffffffffffffffffffffffffff021916908373ffffffffffffffffffffffffffffffffffffffff16021790555060408201518160020160006101000a81548173ffffffffffffffffffffffffffffffffffffffff021916908373ffffffffffffffffffffffffffffffffffffffff16021790555060608201518160030160006101000a81548173ffffffffffffffffffffffffffffffffffffffff021916908373ffffffffffffffffffffffffffffffffffffffff1602179055506080820151816004015560a0820151816005015560c08201518160060160006101000a81548160ff02191690831515021790555060e08201518160060160016101000a81548160ff0219169083151502179055505050600160009054906101000a900473ffffffffffffffffffffffffffffffffffffffff1673ffffffffffffffffffffffffffffffffffffffff1663f242432a33308860016040518563ffffffff1660e01b8152600401610f319493929190611d2a565b600060405180830381600087803b158015610f4b57600080fd5b505af1158015610f5f573d6000803e3d6000fd5b50505050610f6d60046111c6565b5050505050565b600063f23a6e6160e01b905095945050505050565b610f91611084565b600073ffffffffffffffffffffffffffffffffffffffff168173ffffffffffffffffffffffffffffffffffffffff1603611000576040517f08c379a0000000000000000000000000000000000000000000000000000000008152600401610ff790611f5e565b60405180910390fd5b61100981611102565b50565b600081600001549050919050565b60007f01ffc9a7000000000000000000000000000000000000000000000000000000007bffffffffffffffffffffffffffffffffffffffffffffffffffffffff1916827bffffffffffffffffffffffffffffffffffffffffffffffffffffffff1916149050919050565b61108c6111dc565b73ffffffffffffffffffffffffffffffffffffffff166110aa610720565b73ffffffffffffffffffffffffffffffffffffffff1614611100576040517f08c379a00000000000000000000000000000000000000000000000000000000081526004016110f790611fca565b60405180910390fd5b565b60008060009054906101000a900473ffffffffffffffffffffffffffffffffffffffff169050816000806101000a81548173ffffffffffffffffffffffffffffffffffffffff021916908373ffffffffffffffffffffffffffffffffffffffff1602179055508173ffffffffffffffffffffffffffffffffffffffff168173ffffffffffffffffffffffffffffffffffffffff167f8be0079c531659141344cd1fd0a4f28419497f9722a3daafe3b4186f6b6457e060405160405180910390a35050565b6001816000016000828254019250508190555050565b600033905090565b60405180610100016040528060008152602001600073ffffffffffffffffffffffffffffffffffffffff168152602001600073ffffffffffffffffffffffffffffffffffffffff168152602001600073ffffffffffffffffffffffffffffffffffffffff16815260200160008152602001600081526020016000151581526020016000151581525090565b6000604051905090565b600080fd5b600080fd5b60008115159050919050565b61129881611283565b81146112a357600080fd5b50565b6000813590506112b58161128f565b92915050565b6000806000606084860312156112d4576112d3611279565b5b60006112e2868287016112a6565b93505060206112f3868287016112a6565b9250506040611304868287016112a6565b9150509250925092565b600081519050919050565b600082825260208201905092915050565b6000819050602082019050919050565b6000819050919050565b61134d8161133a565b82525050565b600073ffffffffffffffffffffffffffffffffffffffff82169050919050565b600061137e82611353565b9050919050565b61138e81611373565b82525050565b600061139f82611353565b9050919050565b6113af81611394565b82525050565b6113be81611283565b82525050565b610100820160008201516113db6000850182611344565b5060208201516113ee6020850182611385565b5060408201516114016040850182611385565b50606082015161141460608501826113a6565b5060808201516114276080850182611344565b5060a082015161143a60a0850182611344565b5060c082015161144d60c08501826113b5565b5060e082015161146060e08501826113b5565b50505050565b600061147283836113c4565b6101008301905092915050565b6000602082019050919050565b60006114978261130e565b6114a18185611319565b93506114ac8361132a565b8060005b838110156114dd5781516114c48882611466565b97506114cf8361147f565b9250506001810190506114b0565b5085935050505092915050565b60006020820190508181036000830152611504818461148c565b905092915050565b60007fffffffff0000000000000000000000000000000000000000000000000000000082169050919050565b6115418161150c565b811461154c57600080fd5b50565b60008135905061155e81611538565b92915050565b60006020828403121561157a57611579611279565b5b60006115888482850161154f565b91505092915050565b61159a81611283565b82525050565b60006020820190506115b56000830184611591565b92915050565b6115c48161133a565b82525050565b60006020820190506115df60008301846115bb565b92915050565b6115ee81611394565b82525050565b600060208201905061160960008301846115e5565b92915050565b6116188161133a565b811461162357600080fd5b50565b6000813590506116358161160f565b92915050565b60006020828403121561165157611650611279565b5b600061165f84828501611626565b91505092915050565b61167181611394565b811461167c57600080fd5b50565b60008135905061168e81611668565b92915050565b600080fd5b6000601f19601f8301169050919050565b7f4e487b7100000000000000000000000000000000000000000000000000000000600052604160045260246000fd5b6116e282611699565b810181811067ffffffffffffffff82111715611701576117006116aa565b5b80604052505050565b600061171461126f565b905061172082826116d9565b919050565b600067ffffffffffffffff8211156117405761173f6116aa565b5b602082029050602081019050919050565b600080fd5b600061176961176484611725565b61170a565b9050808382526020820190506020840283018581111561178c5761178b611751565b5b835b818110156117b557806117a18882611626565b84526020840193505060208101905061178e565b5050509392505050565b600082601f8301126117d4576117d3611694565b5b81356117e4848260208601611756565b91505092915050565b600080fd5b600067ffffffffffffffff82111561180d5761180c6116aa565b5b61181682611699565b9050602081019050919050565b82818337600083830152505050565b6000611845611840846117f2565b61170a565b905082815260208101848484011115611861576118606117ed565b5b61186c848285611823565b509392505050565b600082601f83011261188957611888611694565b5b8135611899848260208601611832565b91505092915050565b600080600080600060a086880312156118be576118bd611279565b5b60006118cc8882890161167f565b95505060206118dd8882890161167f565b945050604086013567ffffffffffffffff8111156118fe576118fd61127e565b5b61190a888289016117bf565b935050606086013567ffffffffffffffff81111561192b5761192a61127e565b5b611937888289016117bf565b925050608086013567ffffffffffffffff8111156119585761195761127e565b5b61196488828901611874565b9150509295509295909350565b61197a8161150c565b82525050565b60006020820190506119956000830184611971565b92915050565b6119a481611373565b82525050565b6000610100820190506119c0600083018b6115bb565b6119cd602083018a61199b565b6119da604083018961199b565b6119e760608301886115e5565b6119f460808301876115bb565b611a0160a08301866115bb565b611a0e60c0830185611591565b611a1b60e0830184611591565b9998505050505050505050565b600080600060608486031215611a4157611a40611279565b5b6000611a4f86828701611626565b9350506020611a6086828701611626565b9250506040611a7186828701611626565b9150509250925092565b600080600080600060a08688031215611a9757611a96611279565b5b6000611aa58882890161167f565b9550506020611ab68882890161167f565b9450506040611ac788828901611626565b9350506060611ad888828901611626565b925050608086013567ffffffffffffffff811115611af957611af861127e565b5b611b0588828901611874565b9150509295509295909350565b600060208284031215611b2857611b27611279565b5b6000611b368482850161167f565b91505092915050565b7f4e487b7100000000000000000000000000000000000000000000000000000000600052603260045260246000fd5b7f4e487b7100000000000000000000000000000000000000000000000000000000600052601160045260246000fd5b6000611ba88261133a565b91507fffffffffffffffffffffffffffffffffffffffffffffffffffffffffffffffff8203611bda57611bd9611b6e565b5b600182019050919050565b600082825260208201905092915050565b7f496e737566666963656e742070726963652076616c756520666f72207468697360008201527f206974656d2e0000000000000000000000000000000000000000000000000000602082015250565b6000611c52602683611be5565b9150611c5d82611bf6565b604082019050919050565b60006020820190508181036000830152611c8181611c45565b9050919050565b6000819050919050565b6000819050919050565b6000611cb7611cb2611cad84611c88565b611c92565b61133a565b9050919050565b611cc781611c9c565b82525050565b600082825260208201905092915050565b7f3078300000000000000000000000000000000000000000000000000000000000600082015250565b6000611d14600383611ccd565b9150611d1f82611cde565b602082019050919050565b600060a082019050611d3f60008301876115e5565b611d4c60208301866115e5565b611d5960408301856115bb565b611d666060830184611cbe565b8181036080830152611d7781611d07565b905095945050505050565b7f4e6577206c697374696e672070726963652063616e6e6f742062652030000000600082015250565b6000611db8601d83611be5565b9150611dc382611d82565b602082019050919050565b60006020820190508181036000830152611de781611dab565b9050919050565b7f596f75206e65656420746f20706179206c697374696e67206665657300000000600082015250565b6000611e24601c83611be5565b9150611e2f82611dee565b602082019050919050565b60006020820190508181036000830152611e5381611e17565b9050919050565b7f596f75206e65656420746f2073706563696679206120636f727265637420707260008201527f6963650000000000000000000000000000000000000000000000000000000000602082015250565b6000611eb6602383611be5565b9150611ec182611e5a565b604082019050919050565b60006020820190508181036000830152611ee581611ea9565b9050919050565b7f4f776e61626c653a206e6577206f776e657220697320746865207a65726f206160008201527f6464726573730000000000000000000000000000000000000000000000000000602082015250565b6000611f48602683611be5565b9150611f5382611eec565b604082019050919050565b60006020820190508181036000830152611f7781611f3b565b9050919050565b7f4f776e61626c653a2063616c6c6572206973206e6f7420746865206f776e6572600082015250565b6000611fb4602083611be5565b9150611fbf82611f7e565b602082019050919050565b60006020820190508181036000830152611fe381611fa7565b905091905056fea26469706673582212200d4925756546ef752c2dde72e041c8a7c03afd90a2bfd608e5a07320b5abb65364736f6c63430008120033",
  "immutableReferences": {},
  "source": "// SPDX-License-Identifier: MIT\r\npragma solidity ^0.8.18;\r\n\r\nimport \"../../node_modules/@openzeppelin/contracts/token/ERC1155/IERC1155.sol\";\r\nimport \"../../node_modules/@openzeppelin/contracts/utils/Counters.sol\";\r\nimport \"../../node_modules/@openzeppelin/contracts/access/Ownable.sol\";\r\nimport \"../../node_modules/@openzeppelin/contracts/token/ERC1155/utils/ERC1155Holder.sol\";\r\n\r\ncontract AuctionHouse is Ownable, ERC1155Holder {\r\n    using Counters for Counters.Counter;\r\n\r\n    // Only this token address is allowed on this marketplace for now\r\n    address public tokenAddress;\r\n\r\n    //The fee charged by the marketplace to be allowed to list an NFT\r\n    uint256 public listingPrice = 0.01 ether;\r\n\r\n    // uint floorPrice\r\n\r\n    // Number of item sold on the marketplace\r\n    Counters.Counter private _itemsSoldCount;\r\n\r\n    // Number of item listed on the marketplace\r\n    Counters.Counter public listedItemsCount;\r\n\r\n    // Lited token Informations\r\n    struct ListedItem {\r\n        uint256 itemId;\r\n        address payable owner;\r\n        address payable seller;\r\n        address buyer;\r\n        uint256 price;\r\n        uint256 deadline;\r\n        bool currentlyListed;\r\n        bool isSold;\r\n    }\r\n\r\n    // Event listing successfull\r\n    event ItemListedSuccess(\r\n        uint256 indexed tokenId,\r\n        address owner,\r\n        address seller,\r\n        uint256 price\r\n    );\r\n\r\n    // Map listedItem by itemId\r\n    mapping(uint256 => ListedItem) private idToListedItem;\r\n\r\n    ListedItem[] public listedItems;\r\n\r\n    constructor(address _tokenAddress) {\r\n        // Set the token address in the constructor\r\n        // to only be able to list/buy/sell this specific token\r\n        tokenAddress = _tokenAddress;\r\n    }\r\n\r\n    function updateListingPrice(uint256 newPrice) external payable onlyOwner {\r\n        require(newPrice > 0, \"New listing price cannot be 0\");\r\n        listingPrice = newPrice;\r\n    }\r\n\r\n    function getListingPrice() external view returns (uint256) {\r\n        return listingPrice;\r\n    }\r\n\r\n    // function getLatestIdToListedItem()\r\n    //     public\r\n    //     view\r\n    //     returns (ListedItem memory)\r\n    // {\r\n    //     uint256 currentItemId = _itemIds.current();\r\n    //     return idToListedItem[currentItemId];\r\n    // }\r\n\r\n    // function getListedItemForId(\r\n    //     uint256 tokenId\r\n    // ) public view returns (ListedItem memory) {\r\n    //     return idToListedItem[tokenId];\r\n    // }\r\n\r\n    // function getCurrentItem() public view returns (uint256) {\r\n    //     return _itemIds.current();\r\n    // }\r\n\r\n    function listItem(\r\n        uint256 itemId,\r\n        uint256 sellingPrice,\r\n        uint256 deadline\r\n    ) external payable {\r\n        //Make sure the sender sent enough ETH to pay for listing\r\n        require(msg.value == listingPrice, \"You need to pay listing fees\");\r\n        require(sellingPrice > 0, \"You need to specify a correct price\");\r\n        // require(\r\n        //     _deadline > 3600,\r\n        //     \"The deadline needs to be greater than 1 hour\"\r\n        // );\r\n\r\n        uint256 listedItemCount = listedItemsCount.current();\r\n\r\n        ListedItem memory newListedItem = ListedItem(\r\n            itemId,\r\n            payable(msg.sender), // owner\r\n            payable(address(this)), // seller\r\n            address(0), // buyer\r\n            sellingPrice,\r\n            deadline,\r\n            true,\r\n            false\r\n        );\r\n\r\n        //Update the mapping of tokenId's to Item details, useful for retrieval functions\r\n        idToListedItem[listedItemCount] = newListedItem;\r\n        listedItems.push(newListedItem);\r\n\r\n        IERC1155(tokenAddress).safeTransferFrom(\r\n            msg.sender, // from\r\n            address(this), // to\r\n            itemId,\r\n            1,\r\n            \"0x0\"\r\n        );\r\n\r\n        // _marketOwner.transfer(LISTING_FEE);\r\n        listedItemsCount.increment();\r\n\r\n        //Emit the event for successful transfer. The frontend parses this message and updates the end user\r\n        // emit ItemListedSuccess(\r\n        //     tokenId,\r\n        //     address(this),\r\n        //     msg.sender,\r\n        //     price,\r\n        //     true\r\n        // );\r\n    }\r\n\r\n    // This will return all the NFTs currently listed to be sold on the marketplace\r\n    function getListedItems(\r\n        bool ownedByCaller,\r\n        bool stillListed,\r\n        bool isSold\r\n    ) public view returns (ListedItem[] memory) {\r\n        ListedItem[] memory filteredListedItems = new ListedItem[](\r\n            listedItemsCount.current()\r\n        );\r\n        uint filteredListedItemIndex = 0;\r\n\r\n        for (uint i = 0; i < listedItemsCount.current(); i++) {\r\n            ListedItem storage listedItem = listedItems[i];\r\n\r\n            if (ownedByCaller) {\r\n                if (listedItem.owner != msg.sender) {\r\n                    continue;\r\n                }\r\n            }\r\n\r\n            // item can be not listed and not sold if the user cancel the listing\r\n\r\n            if (stillListed) {\r\n                if (!listedItem.currentlyListed) {\r\n                    continue;\r\n                }\r\n            }\r\n\r\n            if (isSold) {\r\n                if (!listedItem.isSold) {\r\n                    continue;\r\n                }\r\n            }\r\n\r\n            filteredListedItems[filteredListedItemIndex] = listedItem;\r\n            filteredListedItemIndex++;\r\n\r\n            // uint currentId = i + 1;\r\n            // ListedItem storage currentItem = idToListedItem[currentId];\r\n            // tokens[currentIndex] = currentItem;\r\n            // currentIndex += 1;\r\n        }\r\n\r\n        return filteredListedItems;\r\n    }\r\n\r\n    // //Returns all the NFTs that the current user is owner or seller in\r\n    // function getMyNFTs() public view returns (ListedItem[] memory) {\r\n    //     uint totalItemCount = _itemIds.current();\r\n    //     uint itemCount = 0;\r\n    //     uint currentIndex = 0;\r\n\r\n    //     //Important to get a count of all the NFTs that belong to the user before we can make an array for them\r\n    //     for (uint i = 0; i < totalItemCount; i++) {\r\n    //         if (\r\n    //             idToListedItem[i + 1].owner == msg.sender ||\r\n    //             idToListedItem[i + 1].seller == msg.sender\r\n    //         ) {\r\n    //             itemCount += 1;\r\n    //         }\r\n    //     }\r\n\r\n    //     //Once you have the count of relevant NFTs, create an array then store all the NFTs in it\r\n    //     ListedItem[] memory items = new ListedItem[](itemCount);\r\n    //     for (uint i = 0; i < totalItemCount; i++) {\r\n    //         if (\r\n    //             idToListedItem[i + 1].owner == msg.sender ||\r\n    //             idToListedItem[i + 1].seller == msg.sender\r\n    //         ) {\r\n    //             uint currentId = i + 1;\r\n    //             ListedItem storage currentItem = idToListedItem[currentId];\r\n    //             items[currentIndex] = currentItem;\r\n    //             currentIndex += 1;\r\n    //         }\r\n    //     }\r\n    //     return items;\r\n    // }\r\n\r\n    function executeSale(uint256 listedItemId) public payable {\r\n        uint itemPrice = idToListedItem[listedItemId].price;\r\n        address seller = idToListedItem[listedItemId].seller;\r\n\r\n        require(\r\n            msg.value == itemPrice,\r\n            \"Insufficent price value for this item.\"\r\n        );\r\n\r\n        // Update item informations\r\n        idToListedItem[listedItemId].currentlyListed = false;\r\n        idToListedItem[listedItemId].buyer = payable(msg.sender);\r\n        idToListedItem[listedItemId].isSold = true;\r\n\r\n        _itemsSoldCount.increment();\r\n\r\n        // Transfer item to the new owner\r\n        IERC1155(tokenAddress).safeTransferFrom(\r\n            address(this), // from\r\n            msg.sender, // to\r\n            idToListedItem[listedItemId].itemId,\r\n            1,\r\n            \"0x0\"\r\n        );\r\n\r\n        // TODO\r\n        //Transfer the listing fee to the marketplace creator\r\n        // payable(owner).transfer(listPrice);\r\n\r\n        // Transfer money to the seller\r\n        payable(seller).transfer(msg.value);\r\n    }\r\n}\r\n",
  "sourcePath": "C:\\Users\\Alex\\Documents\\Travail\\Alyra\\NG-Marketplace\\truffle\\contracts\\AuctionHouse\\AuctionHouse.sol",
  "compiler": {
    "name": "solc",
    "version": "0.8.18+commit.87f61d96.Emscripten.clang"
  },
  "schemaVersion": "3.4.7",
  "updatedAt": "2023-04-05T13:13:33.646Z",
  "networkType": "ethereum",
  "devdoc": {
    "kind": "dev",
    "methods": {
      "owner()": {
        "details": "Returns the address of the current owner."
      },
      "renounceOwnership()": {
        "details": "Leaves the contract without owner. It will not be possible to call `onlyOwner` functions anymore. Can only be called by the current owner. NOTE: Renouncing ownership will leave the contract without an owner, thereby removing any functionality that is only available to the owner."
      },
      "supportsInterface(bytes4)": {
        "details": "See {IERC165-supportsInterface}."
      },
      "transferOwnership(address)": {
        "details": "Transfers ownership of the contract to a new account (`newOwner`). Can only be called by the current owner."
      }
    },
    "version": 1
  },
  "userdoc": {
    "kind": "user",
    "methods": {},
    "version": 1
  }
}