{
  "contractName": "ForgeMaster",
  "abi": [
    {
      "anonymous": false,
      "inputs": [
        {
          "indexed": true,
          "internalType": "address",
          "name": "previousOwner",
          "type": "address"
        },
        {
          "indexed": true,
          "internalType": "address",
          "name": "newOwner",
          "type": "address"
        }
      ],
      "name": "OwnershipTransferred",
      "type": "event"
    },
    {
      "inputs": [],
      "name": "collectionAddress",
      "outputs": [
        {
          "internalType": "address",
          "name": "",
          "type": "address"
        }
      ],
      "stateMutability": "view",
      "type": "function"
    },
    {
      "inputs": [
        {
          "internalType": "address",
          "name": "",
          "type": "address"
        },
        {
          "internalType": "address",
          "name": "",
          "type": "address"
        },
        {
          "internalType": "uint256[]",
          "name": "",
          "type": "uint256[]"
        },
        {
          "internalType": "uint256[]",
          "name": "",
          "type": "uint256[]"
        },
        {
          "internalType": "bytes",
          "name": "",
          "type": "bytes"
        }
      ],
      "name": "onERC1155BatchReceived",
      "outputs": [
        {
          "internalType": "bytes4",
          "name": "",
          "type": "bytes4"
        }
      ],
      "stateMutability": "nonpayable",
      "type": "function"
    },
    {
      "inputs": [
        {
          "internalType": "address",
          "name": "",
          "type": "address"
        },
        {
          "internalType": "address",
          "name": "",
          "type": "address"
        },
        {
          "internalType": "uint256",
          "name": "",
          "type": "uint256"
        },
        {
          "internalType": "uint256",
          "name": "",
          "type": "uint256"
        },
        {
          "internalType": "bytes",
          "name": "",
          "type": "bytes"
        }
      ],
      "name": "onERC1155Received",
      "outputs": [
        {
          "internalType": "bytes4",
          "name": "",
          "type": "bytes4"
        }
      ],
      "stateMutability": "nonpayable",
      "type": "function"
    },
    {
      "inputs": [],
      "name": "owner",
      "outputs": [
        {
          "internalType": "address",
          "name": "",
          "type": "address"
        }
      ],
      "stateMutability": "view",
      "type": "function"
    },
    {
      "inputs": [],
      "name": "renounceOwnership",
      "outputs": [],
      "stateMutability": "nonpayable",
      "type": "function"
    },
    {
      "inputs": [
        {
          "internalType": "bytes4",
          "name": "interfaceId",
          "type": "bytes4"
        }
      ],
      "name": "supportsInterface",
      "outputs": [
        {
          "internalType": "bool",
          "name": "",
          "type": "bool"
        }
      ],
      "stateMutability": "view",
      "type": "function"
    },
    {
      "inputs": [
        {
          "internalType": "address",
          "name": "newOwner",
          "type": "address"
        }
      ],
      "name": "transferOwnership",
      "outputs": [],
      "stateMutability": "nonpayable",
      "type": "function"
    },
    {
      "inputs": [
        {
          "internalType": "string",
          "name": "collectionName",
          "type": "string"
        }
      ],
      "name": "forgeCollection",
      "outputs": [
        {
          "internalType": "address",
          "name": "newCollectionAddress",
          "type": "address"
        }
      ],
      "stateMutability": "nonpayable",
      "type": "function"
    }
  ],
  "bytecode": "0x608060405234801561001057600080fd5b5061002d61002261003260201b60201c565b61003a60201b60201c565b6100fe565b600033905090565b60008060009054906101000a900473ffffffffffffffffffffffffffffffffffffffff169050816000806101000a81548173ffffffffffffffffffffffffffffffffffffffff021916908373ffffffffffffffffffffffffffffffffffffffff1602179055508173ffffffffffffffffffffffffffffffffffffffff168173ffffffffffffffffffffffffffffffffffffffff167f8be0079c531659141344cd1fd0a4f28419497f9722a3daafe3b4186f6b6457e060405160405180910390a35050565b613f928061010d6000396000f3fe60806040523480156200001157600080fd5b5060043610620000945760003560e01c80638da5cb5b11620000635780638da5cb5b1462000133578063bc197c811462000155578063f23a6e61146200018b578063f2fde38b14620001c15762000094565b806301ffc9a714620000995780636aa0037114620000cf578063715018a614620000f15780637f51b2dc14620000fd575b600080fd5b620000b76004803603810190620000b19190620006e0565b620001e1565b604051620000c691906200072f565b60405180910390f35b620000d96200025e565b604051620000e8919062000791565b60405180910390f35b620000fb62000284565b005b6200011b600480360381019062000115919062000910565b6200029c565b6040516200012a919062000791565b60405180910390f35b6200013d620003c9565b6040516200014c919062000791565b60405180910390f35b6200017360048036038101906200016d919062000b5c565b620003f2565b60405162000182919062000c52565b60405180910390f35b620001a96004803603810190620001a3919062000c6f565b62000407565b604051620001b8919062000c52565b60405180910390f35b620001df6004803603810190620001d9919062000d16565b6200041c565b005b60007f4e2312e0000000000000000000000000000000000000000000000000000000007bffffffffffffffffffffffffffffffffffffffffffffffffffffffff1916827bffffffffffffffffffffffffffffffffffffffffffffffffffffffff191614806200025757506200025682620004a6565b5b9050919050565b600160009054906101000a900473ffffffffffffffffffffffffffffffffffffffff1681565b6200028e62000510565b6200029a600062000595565b565b60008060405180602001620002b19062000661565b6020820181038252601f19601f820116604052509050600083604051602001620002dc919062000dc1565b604051602081830303815290604052805190602001209050808251602084016000f59250823b6200030c57600080fd5b60008390508073ffffffffffffffffffffffffffffffffffffffff166306f36e87336040518263ffffffff1660e01b81526004016200034c919062000791565b600060405180830381600087803b1580156200036757600080fd5b505af11580156200037c573d6000803e3d6000fd5b5050505083600160006101000a81548173ffffffffffffffffffffffffffffffffffffffff021916908373ffffffffffffffffffffffffffffffffffffffff160217905550505050919050565b60008060009054906101000a900473ffffffffffffffffffffffffffffffffffffffff16905090565b600063bc197c8160e01b905095945050505050565b600063f23a6e6160e01b905095945050505050565b6200042662000510565b600073ffffffffffffffffffffffffffffffffffffffff168173ffffffffffffffffffffffffffffffffffffffff160362000498576040517f08c379a00000000000000000000000000000000000000000000000000000000081526004016200048f9062000e61565b60405180910390fd5b620004a38162000595565b50565b60007f01ffc9a7000000000000000000000000000000000000000000000000000000007bffffffffffffffffffffffffffffffffffffffffffffffffffffffff1916827bffffffffffffffffffffffffffffffffffffffffffffffffffffffff1916149050919050565b6200051a62000659565b73ffffffffffffffffffffffffffffffffffffffff166200053a620003c9565b73ffffffffffffffffffffffffffffffffffffffff161462000593576040517f08c379a00000000000000000000000000000000000000000000000000000000081526004016200058a9062000ed3565b60405180910390fd5b565b60008060009054906101000a900473ffffffffffffffffffffffffffffffffffffffff169050816000806101000a81548173ffffffffffffffffffffffffffffffffffffffff021916908373ffffffffffffffffffffffffffffffffffffffff1602179055508173ffffffffffffffffffffffffffffffffffffffff168173ffffffffffffffffffffffffffffffffffffffff167f8be0079c531659141344cd1fd0a4f28419497f9722a3daafe3b4186f6b6457e060405160405180910390a35050565b600033905090565b6130678062000ef683390190565b6000604051905090565b600080fd5b600080fd5b60007fffffffff0000000000000000000000000000000000000000000000000000000082169050919050565b620006ba8162000683565b8114620006c657600080fd5b50565b600081359050620006da81620006af565b92915050565b600060208284031215620006f957620006f862000679565b5b60006200070984828501620006c9565b91505092915050565b60008115159050919050565b620007298162000712565b82525050565b60006020820190506200074660008301846200071e565b92915050565b600073ffffffffffffffffffffffffffffffffffffffff82169050919050565b600062000779826200074c565b9050919050565b6200078b816200076c565b82525050565b6000602082019050620007a8600083018462000780565b92915050565b600080fd5b600080fd5b6000601f19601f8301169050919050565b7f4e487b7100000000000000000000000000000000000000000000000000000000600052604160045260246000fd5b6200080382620007b8565b810181811067ffffffffffffffff82111715620008255762000824620007c9565b5b80604052505050565b60006200083a6200066f565b9050620008488282620007f8565b919050565b600067ffffffffffffffff8211156200086b576200086a620007c9565b5b6200087682620007b8565b9050602081019050919050565b82818337600083830152505050565b6000620008a9620008a3846200084d565b6200082e565b905082815260208101848484011115620008c857620008c7620007b3565b5b620008d584828562000883565b509392505050565b600082601f830112620008f557620008f4620007ae565b5b81356200090784826020860162000892565b91505092915050565b60006020828403121562000929576200092862000679565b5b600082013567ffffffffffffffff8111156200094a57620009496200067e565b5b6200095884828501620008dd565b91505092915050565b6200096c816200076c565b81146200097857600080fd5b50565b6000813590506200098c8162000961565b92915050565b600067ffffffffffffffff821115620009b057620009af620007c9565b5b602082029050602081019050919050565b600080fd5b6000819050919050565b620009db81620009c6565b8114620009e757600080fd5b50565b600081359050620009fb81620009d0565b92915050565b600062000a1862000a128462000992565b6200082e565b9050808382526020820190506020840283018581111562000a3e5762000a3d620009c1565b5b835b8181101562000a6b578062000a568882620009ea565b84526020840193505060208101905062000a40565b5050509392505050565b600082601f83011262000a8d5762000a8c620007ae565b5b813562000a9f84826020860162000a01565b91505092915050565b600067ffffffffffffffff82111562000ac65762000ac5620007c9565b5b62000ad182620007b8565b9050602081019050919050565b600062000af562000aef8462000aa8565b6200082e565b90508281526020810184848401111562000b145762000b13620007b3565b5b62000b2184828562000883565b509392505050565b600082601f83011262000b415762000b40620007ae565b5b813562000b5384826020860162000ade565b91505092915050565b600080600080600060a0868803121562000b7b5762000b7a62000679565b5b600062000b8b888289016200097b565b955050602062000b9e888289016200097b565b945050604086013567ffffffffffffffff81111562000bc25762000bc16200067e565b5b62000bd08882890162000a75565b935050606086013567ffffffffffffffff81111562000bf45762000bf36200067e565b5b62000c028882890162000a75565b925050608086013567ffffffffffffffff81111562000c265762000c256200067e565b5b62000c348882890162000b29565b9150509295509295909350565b62000c4c8162000683565b82525050565b600060208201905062000c69600083018462000c41565b92915050565b600080600080600060a0868803121562000c8e5762000c8d62000679565b5b600062000c9e888289016200097b565b955050602062000cb1888289016200097b565b945050604062000cc488828901620009ea565b935050606062000cd788828901620009ea565b925050608086013567ffffffffffffffff81111562000cfb5762000cfa6200067e565b5b62000d098882890162000b29565b9150509295509295909350565b60006020828403121562000d2f5762000d2e62000679565b5b600062000d3f848285016200097b565b91505092915050565b600081519050919050565b600081905092915050565b60005b8381101562000d7e57808201518184015260208101905062000d61565b60008484015250505050565b600062000d978262000d48565b62000da3818562000d53565b935062000db581856020860162000d5e565b80840191505092915050565b600062000dcf828462000d8a565b915081905092915050565b600082825260208201905092915050565b7f4f776e61626c653a206e6577206f776e657220697320746865207a65726f206160008201527f6464726573730000000000000000000000000000000000000000000000000000602082015250565b600062000e4960268362000dda565b915062000e568262000deb565b604082019050919050565b6000602082019050818103600083015262000e7c8162000e3a565b9050919050565b7f4f776e61626c653a2063616c6c6572206973206e6f7420746865206f776e6572600082015250565b600062000ebb60208362000dda565b915062000ec88262000e83565b602082019050919050565b6000602082019050818103600083015262000eee8162000eac565b905091905056fe60806040523480156200001157600080fd5b506040518060800160405280605a81526020016200300d605a91396200003d816200006460201b60201c565b506200005e620000526200007960201b60201c565b6200008160201b60201c565b620004a8565b8060029081620000759190620003c1565b5050565b600033905090565b6000600360009054906101000a900473ffffffffffffffffffffffffffffffffffffffff16905081600360006101000a81548173ffffffffffffffffffffffffffffffffffffffff021916908373ffffffffffffffffffffffffffffffffffffffff1602179055508173ffffffffffffffffffffffffffffffffffffffff168173ffffffffffffffffffffffffffffffffffffffff167f8be0079c531659141344cd1fd0a4f28419497f9722a3daafe3b4186f6b6457e060405160405180910390a35050565b600081519050919050565b7f4e487b7100000000000000000000000000000000000000000000000000000000600052604160045260246000fd5b7f4e487b7100000000000000000000000000000000000000000000000000000000600052602260045260246000fd5b60006002820490506001821680620001c957607f821691505b602082108103620001df57620001de62000181565b5b50919050565b60008190508160005260206000209050919050565b60006020601f8301049050919050565b600082821b905092915050565b600060088302620002497fffffffffffffffffffffffffffffffffffffffffffffffffffffffffffffffff826200020a565b6200025586836200020a565b95508019841693508086168417925050509392505050565b6000819050919050565b6000819050919050565b6000620002a26200029c62000296846200026d565b62000277565b6200026d565b9050919050565b6000819050919050565b620002be8362000281565b620002d6620002cd82620002a9565b84845462000217565b825550505050565b600090565b620002ed620002de565b620002fa818484620002b3565b505050565b5b81811015620003225762000316600082620002e3565b60018101905062000300565b5050565b601f82111562000371576200033b81620001e5565b6200034684620001fa565b8101602085101562000356578190505b6200036e6200036585620001fa565b830182620002ff565b50505b505050565b600082821c905092915050565b6000620003966000198460080262000376565b1980831691505092915050565b6000620003b1838362000383565b9150826002028217905092915050565b620003cc8262000147565b67ffffffffffffffff811115620003e857620003e762000152565b5b620003f48254620001b0565b6200040182828562000326565b600060209050601f83116001811462000439576000841562000424578287015190505b620004308582620003a3565b865550620004a0565b601f1984166200044986620001e5565b60005b8281101562000473578489015182556001820191506020850194506020810190506200044c565b868310156200049357848901516200048f601f89168262000383565b8355505b6001600288020188555050505b505050505050565b612b5580620004b86000396000f3fe608060405234801561001057600080fd5b50600436106100b35760003560e01c8063715018a611610071578063715018a6146101b05780638da5cb5b146101ba578063a22cb465146101d8578063e985e9c5146101f4578063f242432a14610224578063f2fde38b14610240576100b3565b8062fdd58e146100b857806301ffc9a7146100e857806306f36e87146101185780630e89341c146101345780632eb2c2d6146101645780634e1273f414610180575b600080fd5b6100d260048036038101906100cd9190611836565b61025c565b6040516100df9190611885565b60405180910390f35b61010260048036038101906100fd91906118f8565b610324565b60405161010f9190611940565b60405180910390f35b610132600480360381019061012d919061195b565b610406565b005b61014e60048036038101906101499190611988565b61044b565b60405161015b9190611a45565b60405180910390f35b61017e60048036038101906101799190611c64565b6104df565b005b61019a60048036038101906101959190611df6565b610580565b6040516101a79190611f2c565b60405180910390f35b6101b8610699565b005b6101c26106ad565b6040516101cf9190611f5d565b60405180910390f35b6101f260048036038101906101ed9190611fa4565b6106d7565b005b61020e60048036038101906102099190611fe4565b6106ed565b60405161021b9190611940565b60405180910390f35b61023e60048036038101906102399190612024565b610781565b005b61025a6004803603810190610255919061195b565b610822565b005b60008073ffffffffffffffffffffffffffffffffffffffff168373ffffffffffffffffffffffffffffffffffffffff16036102cc576040517f08c379a00000000000000000000000000000000000000000000000000000000081526004016102c39061212d565b60405180910390fd5b60008083815260200190815260200160002060008473ffffffffffffffffffffffffffffffffffffffff1673ffffffffffffffffffffffffffffffffffffffff16815260200190815260200160002054905092915050565b60007fd9b67a26000000000000000000000000000000000000000000000000000000007bffffffffffffffffffffffffffffffffffffffffffffffffffffffff1916827bffffffffffffffffffffffffffffffffffffffffffffffffffffffff191614806103ef57507f0e89341c000000000000000000000000000000000000000000000000000000007bffffffffffffffffffffffffffffffffffffffffffffffffffffffff1916827bffffffffffffffffffffffffffffffffffffffffffffffffffffffff1916145b806103ff57506103fe826108a5565b5b9050919050565b61040e61090f565b61042b81600a60646040518060200160405280600081525061098d565b61044881601460056040518060200160405280600081525061098d565b50565b60606002805461045a9061217c565b80601f01602080910402602001604051908101604052809291908181526020018280546104869061217c565b80156104d35780601f106104a8576101008083540402835291602001916104d3565b820191906000526020600020905b8154815290600101906020018083116104b657829003601f168201915b50505050509050919050565b6104e7610b3d565b73ffffffffffffffffffffffffffffffffffffffff168573ffffffffffffffffffffffffffffffffffffffff16148061052d575061052c85610527610b3d565b6106ed565b5b61056c576040517f08c379a00000000000000000000000000000000000000000000000000000000081526004016105639061221f565b60405180910390fd5b6105798585858585610b45565b5050505050565b606081518351146105c6576040517f08c379a00000000000000000000000000000000000000000000000000000000081526004016105bd906122b1565b60405180910390fd5b6000835167ffffffffffffffff8111156105e3576105e2611a6c565b5b6040519080825280602002602001820160405280156106115781602001602082028036833780820191505090505b50905060005b845181101561068e5761065e858281518110610636576106356122d1565b5b6020026020010151858381518110610651576106506122d1565b5b602002602001015161025c565b828281518110610671576106706122d1565b5b602002602001018181525050806106879061232f565b9050610617565b508091505092915050565b6106a161090f565b6106ab6000610e66565b565b6000600360009054906101000a900473ffffffffffffffffffffffffffffffffffffffff16905090565b6106e96106e2610b3d565b8383610f2c565b5050565b6000600160008473ffffffffffffffffffffffffffffffffffffffff1673ffffffffffffffffffffffffffffffffffffffff16815260200190815260200160002060008373ffffffffffffffffffffffffffffffffffffffff1673ffffffffffffffffffffffffffffffffffffffff16815260200190815260200160002060009054906101000a900460ff16905092915050565b610789610b3d565b73ffffffffffffffffffffffffffffffffffffffff168573ffffffffffffffffffffffffffffffffffffffff1614806107cf57506107ce856107c9610b3d565b6106ed565b5b61080e576040517f08c379a00000000000000000000000000000000000000000000000000000000081526004016108059061221f565b60405180910390fd5b61081b8585858585611098565b5050505050565b61082a61090f565b600073ffffffffffffffffffffffffffffffffffffffff168173ffffffffffffffffffffffffffffffffffffffff1603610899576040517f08c379a0000000000000000000000000000000000000000000000000000000008152600401610890906123e9565b60405180910390fd5b6108a281610e66565b50565b60007f01ffc9a7000000000000000000000000000000000000000000000000000000007bffffffffffffffffffffffffffffffffffffffffffffffffffffffff1916827bffffffffffffffffffffffffffffffffffffffffffffffffffffffff1916149050919050565b610917610b3d565b73ffffffffffffffffffffffffffffffffffffffff166109356106ad565b73ffffffffffffffffffffffffffffffffffffffff161461098b576040517f08c379a000000000000000000000000000000000000000000000000000000000815260040161098290612455565b60405180910390fd5b565b600073ffffffffffffffffffffffffffffffffffffffff168473ffffffffffffffffffffffffffffffffffffffff16036109fc576040517f08c379a00000000000000000000000000000000000000000000000000000000081526004016109f3906124e7565b60405180910390fd5b6000610a06610b3d565b90506000610a1385611333565b90506000610a2085611333565b9050610a31836000898585896113ad565b8460008088815260200190815260200160002060008973ffffffffffffffffffffffffffffffffffffffff1673ffffffffffffffffffffffffffffffffffffffff1681526020019081526020016000206000828254610a909190612507565b925050819055508673ffffffffffffffffffffffffffffffffffffffff16600073ffffffffffffffffffffffffffffffffffffffff168473ffffffffffffffffffffffffffffffffffffffff167fc3d58168c5ae7397731d063d5bbf3d657854427343f4c083240f7aacaa2d0f628989604051610b0e92919061253b565b60405180910390a4610b25836000898585896113b5565b610b34836000898989896113bd565b50505050505050565b600033905090565b8151835114610b89576040517f08c379a0000000000000000000000000000000000000000000000000000000008152600401610b80906125d6565b60405180910390fd5b600073ffffffffffffffffffffffffffffffffffffffff168473ffffffffffffffffffffffffffffffffffffffff1603610bf8576040517f08c379a0000000000000000000000000000000000000000000000000000000008152600401610bef90612668565b60405180910390fd5b6000610c02610b3d565b9050610c128187878787876113ad565b60005b8451811015610dc3576000858281518110610c3357610c326122d1565b5b602002602001015190506000858381518110610c5257610c516122d1565b5b60200260200101519050600080600084815260200190815260200160002060008b73ffffffffffffffffffffffffffffffffffffffff1673ffffffffffffffffffffffffffffffffffffffff16815260200190815260200160002054905081811015610cf3576040517f08c379a0000000000000000000000000000000000000000000000000000000008152600401610cea906126fa565b60405180910390fd5b81810360008085815260200190815260200160002060008c73ffffffffffffffffffffffffffffffffffffffff1673ffffffffffffffffffffffffffffffffffffffff168152602001908152602001600020819055508160008085815260200190815260200160002060008b73ffffffffffffffffffffffffffffffffffffffff1673ffffffffffffffffffffffffffffffffffffffff1681526020019081526020016000206000828254610da89190612507565b9250508190555050505080610dbc9061232f565b9050610c15565b508473ffffffffffffffffffffffffffffffffffffffff168673ffffffffffffffffffffffffffffffffffffffff168273ffffffffffffffffffffffffffffffffffffffff167f4a39dc06d4c0dbc64b70af90fd698a233a518aa5d07e595d983b8c0526c8f7fb8787604051610e3a92919061271a565b60405180910390a4610e508187878787876113b5565b610e5e818787878787611594565b505050505050565b6000600360009054906101000a900473ffffffffffffffffffffffffffffffffffffffff16905081600360006101000a81548173ffffffffffffffffffffffffffffffffffffffff021916908373ffffffffffffffffffffffffffffffffffffffff1602179055508173ffffffffffffffffffffffffffffffffffffffff168173ffffffffffffffffffffffffffffffffffffffff167f8be0079c531659141344cd1fd0a4f28419497f9722a3daafe3b4186f6b6457e060405160405180910390a35050565b8173ffffffffffffffffffffffffffffffffffffffff168373ffffffffffffffffffffffffffffffffffffffff1603610f9a576040517f08c379a0000000000000000000000000000000000000000000000000000000008152600401610f91906127c3565b60405180910390fd5b80600160008573ffffffffffffffffffffffffffffffffffffffff1673ffffffffffffffffffffffffffffffffffffffff16815260200190815260200160002060008473ffffffffffffffffffffffffffffffffffffffff1673ffffffffffffffffffffffffffffffffffffffff16815260200190815260200160002060006101000a81548160ff0219169083151502179055508173ffffffffffffffffffffffffffffffffffffffff168373ffffffffffffffffffffffffffffffffffffffff167f17307eab39ab6107e8899845ad3d59bd9653f200f220920489ca2b5937696c318360405161108b9190611940565b60405180910390a3505050565b600073ffffffffffffffffffffffffffffffffffffffff168473ffffffffffffffffffffffffffffffffffffffff1603611107576040517f08c379a00000000000000000000000000000000000000000000000000000000081526004016110fe90612668565b60405180910390fd5b6000611111610b3d565b9050600061111e85611333565b9050600061112b85611333565b905061113b8389898585896113ad565b600080600088815260200190815260200160002060008a73ffffffffffffffffffffffffffffffffffffffff1673ffffffffffffffffffffffffffffffffffffffff168152602001908152602001600020549050858110156111d2576040517f08c379a00000000000000000000000000000000000000000000000000000000081526004016111c9906126fa565b60405180910390fd5b85810360008089815260200190815260200160002060008b73ffffffffffffffffffffffffffffffffffffffff1673ffffffffffffffffffffffffffffffffffffffff168152602001908152602001600020819055508560008089815260200190815260200160002060008a73ffffffffffffffffffffffffffffffffffffffff1673ffffffffffffffffffffffffffffffffffffffff16815260200190815260200160002060008282546112879190612507565b925050819055508773ffffffffffffffffffffffffffffffffffffffff168973ffffffffffffffffffffffffffffffffffffffff168573ffffffffffffffffffffffffffffffffffffffff167fc3d58168c5ae7397731d063d5bbf3d657854427343f4c083240f7aacaa2d0f628a8a60405161130492919061253b565b60405180910390a461131a848a8a86868a6113b5565b611328848a8a8a8a8a6113bd565b505050505050505050565b60606000600167ffffffffffffffff81111561135257611351611a6c565b5b6040519080825280602002602001820160405280156113805781602001602082028036833780820191505090505b5090508281600081518110611398576113976122d1565b5b60200260200101818152505080915050919050565b505050505050565b505050505050565b6113dc8473ffffffffffffffffffffffffffffffffffffffff1661176b565b1561158c578373ffffffffffffffffffffffffffffffffffffffff1663f23a6e6187878686866040518663ffffffff1660e01b8152600401611422959493929190612838565b6020604051808303816000875af192505050801561145e57506040513d601f19601f8201168201806040525081019061145b91906128a7565b60015b6115035761146a6128e1565b806308c379a0036114c6575061147e612903565b8061148957506114c8565b806040517f08c379a00000000000000000000000000000000000000000000000000000000081526004016114bd9190611a45565b60405180910390fd5b505b6040517f08c379a00000000000000000000000000000000000000000000000000000000081526004016114fa90612a05565b60405180910390fd5b63f23a6e6160e01b7bffffffffffffffffffffffffffffffffffffffffffffffffffffffff1916817bffffffffffffffffffffffffffffffffffffffffffffffffffffffff19161461158a576040517f08c379a000000000000000000000000000000000000000000000000000000000815260040161158190612a97565b60405180910390fd5b505b505050505050565b6115b38473ffffffffffffffffffffffffffffffffffffffff1661176b565b15611763578373ffffffffffffffffffffffffffffffffffffffff1663bc197c8187878686866040518663ffffffff1660e01b81526004016115f9959493929190612ab7565b6020604051808303816000875af192505050801561163557506040513d601f19601f8201168201806040525081019061163291906128a7565b60015b6116da576116416128e1565b806308c379a00361169d5750611655612903565b80611660575061169f565b806040517f08c379a00000000000000000000000000000000000000000000000000000000081526004016116949190611a45565b60405180910390fd5b505b6040517f08c379a00000000000000000000000000000000000000000000000000000000081526004016116d190612a05565b60405180910390fd5b63bc197c8160e01b7bffffffffffffffffffffffffffffffffffffffffffffffffffffffff1916817bffffffffffffffffffffffffffffffffffffffffffffffffffffffff191614611761576040517f08c379a000000000000000000000000000000000000000000000000000000000815260040161175890612a97565b60405180910390fd5b505b505050505050565b6000808273ffffffffffffffffffffffffffffffffffffffff163b119050919050565b6000604051905090565b600080fd5b600080fd5b600073ffffffffffffffffffffffffffffffffffffffff82169050919050565b60006117cd826117a2565b9050919050565b6117dd816117c2565b81146117e857600080fd5b50565b6000813590506117fa816117d4565b92915050565b6000819050919050565b61181381611800565b811461181e57600080fd5b50565b6000813590506118308161180a565b92915050565b6000806040838503121561184d5761184c611798565b5b600061185b858286016117eb565b925050602061186c85828601611821565b9150509250929050565b61187f81611800565b82525050565b600060208201905061189a6000830184611876565b92915050565b60007fffffffff0000000000000000000000000000000000000000000000000000000082169050919050565b6118d5816118a0565b81146118e057600080fd5b50565b6000813590506118f2816118cc565b92915050565b60006020828403121561190e5761190d611798565b5b600061191c848285016118e3565b91505092915050565b60008115159050919050565b61193a81611925565b82525050565b60006020820190506119556000830184611931565b92915050565b60006020828403121561197157611970611798565b5b600061197f848285016117eb565b91505092915050565b60006020828403121561199e5761199d611798565b5b60006119ac84828501611821565b91505092915050565b600081519050919050565b600082825260208201905092915050565b60005b838110156119ef5780820151818401526020810190506119d4565b60008484015250505050565b6000601f19601f8301169050919050565b6000611a17826119b5565b611a2181856119c0565b9350611a318185602086016119d1565b611a3a816119fb565b840191505092915050565b60006020820190508181036000830152611a5f8184611a0c565b905092915050565b600080fd5b7f4e487b7100000000000000000000000000000000000000000000000000000000600052604160045260246000fd5b611aa4826119fb565b810181811067ffffffffffffffff82111715611ac357611ac2611a6c565b5b80604052505050565b6000611ad661178e565b9050611ae28282611a9b565b919050565b600067ffffffffffffffff821115611b0257611b01611a6c565b5b602082029050602081019050919050565b600080fd5b6000611b2b611b2684611ae7565b611acc565b90508083825260208201905060208402830185811115611b4e57611b4d611b13565b5b835b81811015611b775780611b638882611821565b845260208401935050602081019050611b50565b5050509392505050565b600082601f830112611b9657611b95611a67565b5b8135611ba6848260208601611b18565b91505092915050565b600080fd5b600067ffffffffffffffff821115611bcf57611bce611a6c565b5b611bd8826119fb565b9050602081019050919050565b82818337600083830152505050565b6000611c07611c0284611bb4565b611acc565b905082815260208101848484011115611c2357611c22611baf565b5b611c2e848285611be5565b509392505050565b600082601f830112611c4b57611c4a611a67565b5b8135611c5b848260208601611bf4565b91505092915050565b600080600080600060a08688031215611c8057611c7f611798565b5b6000611c8e888289016117eb565b9550506020611c9f888289016117eb565b945050604086013567ffffffffffffffff811115611cc057611cbf61179d565b5b611ccc88828901611b81565b935050606086013567ffffffffffffffff811115611ced57611cec61179d565b5b611cf988828901611b81565b925050608086013567ffffffffffffffff811115611d1a57611d1961179d565b5b611d2688828901611c36565b9150509295509295909350565b600067ffffffffffffffff821115611d4e57611d4d611a6c565b5b602082029050602081019050919050565b6000611d72611d6d84611d33565b611acc565b90508083825260208201905060208402830185811115611d9557611d94611b13565b5b835b81811015611dbe5780611daa88826117eb565b845260208401935050602081019050611d97565b5050509392505050565b600082601f830112611ddd57611ddc611a67565b5b8135611ded848260208601611d5f565b91505092915050565b60008060408385031215611e0d57611e0c611798565b5b600083013567ffffffffffffffff811115611e2b57611e2a61179d565b5b611e3785828601611dc8565b925050602083013567ffffffffffffffff811115611e5857611e5761179d565b5b611e6485828601611b81565b9150509250929050565b600081519050919050565b600082825260208201905092915050565b6000819050602082019050919050565b611ea381611800565b82525050565b6000611eb58383611e9a565b60208301905092915050565b6000602082019050919050565b6000611ed982611e6e565b611ee38185611e79565b9350611eee83611e8a565b8060005b83811015611f1f578151611f068882611ea9565b9750611f1183611ec1565b925050600181019050611ef2565b5085935050505092915050565b60006020820190508181036000830152611f468184611ece565b905092915050565b611f57816117c2565b82525050565b6000602082019050611f726000830184611f4e565b92915050565b611f8181611925565b8114611f8c57600080fd5b50565b600081359050611f9e81611f78565b92915050565b60008060408385031215611fbb57611fba611798565b5b6000611fc9858286016117eb565b9250506020611fda85828601611f8f565b9150509250929050565b60008060408385031215611ffb57611ffa611798565b5b6000612009858286016117eb565b925050602061201a858286016117eb565b9150509250929050565b600080600080600060a086880312156120405761203f611798565b5b600061204e888289016117eb565b955050602061205f888289016117eb565b945050604061207088828901611821565b935050606061208188828901611821565b925050608086013567ffffffffffffffff8111156120a2576120a161179d565b5b6120ae88828901611c36565b9150509295509295909350565b7f455243313135353a2061646472657373207a65726f206973206e6f742061207660008201527f616c6964206f776e657200000000000000000000000000000000000000000000602082015250565b6000612117602a836119c0565b9150612122826120bb565b604082019050919050565b600060208201905081810360008301526121468161210a565b9050919050565b7f4e487b7100000000000000000000000000000000000000000000000000000000600052602260045260246000fd5b6000600282049050600182168061219457607f821691505b6020821081036121a7576121a661214d565b5b50919050565b7f455243313135353a2063616c6c6572206973206e6f7420746f6b656e206f776e60008201527f6572206f7220617070726f766564000000000000000000000000000000000000602082015250565b6000612209602e836119c0565b9150612214826121ad565b604082019050919050565b60006020820190508181036000830152612238816121fc565b9050919050565b7f455243313135353a206163636f756e747320616e6420696473206c656e67746860008201527f206d69736d617463680000000000000000000000000000000000000000000000602082015250565b600061229b6029836119c0565b91506122a68261223f565b604082019050919050565b600060208201905081810360008301526122ca8161228e565b9050919050565b7f4e487b7100000000000000000000000000000000000000000000000000000000600052603260045260246000fd5b7f4e487b7100000000000000000000000000000000000000000000000000000000600052601160045260246000fd5b600061233a82611800565b91507fffffffffffffffffffffffffffffffffffffffffffffffffffffffffffffffff820361236c5761236b612300565b5b600182019050919050565b7f4f776e61626c653a206e6577206f776e657220697320746865207a65726f206160008201527f6464726573730000000000000000000000000000000000000000000000000000602082015250565b60006123d36026836119c0565b91506123de82612377565b604082019050919050565b60006020820190508181036000830152612402816123c6565b9050919050565b7f4f776e61626c653a2063616c6c6572206973206e6f7420746865206f776e6572600082015250565b600061243f6020836119c0565b915061244a82612409565b602082019050919050565b6000602082019050818103600083015261246e81612432565b9050919050565b7f455243313135353a206d696e7420746f20746865207a65726f2061646472657360008201527f7300000000000000000000000000000000000000000000000000000000000000602082015250565b60006124d16021836119c0565b91506124dc82612475565b604082019050919050565b60006020820190508181036000830152612500816124c4565b9050919050565b600061251282611800565b915061251d83611800565b925082820190508082111561253557612534612300565b5b92915050565b60006040820190506125506000830185611876565b61255d6020830184611876565b9392505050565b7f455243313135353a2069647320616e6420616d6f756e7473206c656e6774682060008201527f6d69736d61746368000000000000000000000000000000000000000000000000602082015250565b60006125c06028836119c0565b91506125cb82612564565b604082019050919050565b600060208201905081810360008301526125ef816125b3565b9050919050565b7f455243313135353a207472616e7366657220746f20746865207a65726f20616460008201527f6472657373000000000000000000000000000000000000000000000000000000602082015250565b60006126526025836119c0565b915061265d826125f6565b604082019050919050565b6000602082019050818103600083015261268181612645565b9050919050565b7f455243313135353a20696e73756666696369656e742062616c616e636520666f60008201527f72207472616e7366657200000000000000000000000000000000000000000000602082015250565b60006126e4602a836119c0565b91506126ef82612688565b604082019050919050565b60006020820190508181036000830152612713816126d7565b9050919050565b600060408201905081810360008301526127348185611ece565b905081810360208301526127488184611ece565b90509392505050565b7f455243313135353a2073657474696e6720617070726f76616c2073746174757360008201527f20666f722073656c660000000000000000000000000000000000000000000000602082015250565b60006127ad6029836119c0565b91506127b882612751565b604082019050919050565b600060208201905081810360008301526127dc816127a0565b9050919050565b600081519050919050565b600082825260208201905092915050565b600061280a826127e3565b61281481856127ee565b93506128248185602086016119d1565b61282d816119fb565b840191505092915050565b600060a08201905061284d6000830188611f4e565b61285a6020830187611f4e565b6128676040830186611876565b6128746060830185611876565b818103608083015261288681846127ff565b90509695505050505050565b6000815190506128a1816118cc565b92915050565b6000602082840312156128bd576128bc611798565b5b60006128cb84828501612892565b91505092915050565b60008160e01c9050919050565b600060033d11156129005760046000803e6128fd6000516128d4565b90505b90565b600060443d106129905761291561178e565b60043d036004823e80513d602482011167ffffffffffffffff8211171561293d575050612990565b808201805167ffffffffffffffff81111561295b5750505050612990565b80602083010160043d038501811115612978575050505050612990565b61298782602001850186611a9b565b82955050505050505b90565b7f455243313135353a207472616e7366657220746f206e6f6e2d4552433131353560008201527f526563656976657220696d706c656d656e746572000000000000000000000000602082015250565b60006129ef6034836119c0565b91506129fa82612993565b604082019050919050565b60006020820190508181036000830152612a1e816129e2565b9050919050565b7f455243313135353a204552433131353552656365697665722072656a6563746560008201527f6420746f6b656e73000000000000000000000000000000000000000000000000602082015250565b6000612a816028836119c0565b9150612a8c82612a25565b604082019050919050565b60006020820190508181036000830152612ab081612a74565b9050919050565b600060a082019050612acc6000830188611f4e565b612ad96020830187611f4e565b8181036040830152612aeb8186611ece565b90508181036060830152612aff8185611ece565b90508181036080830152612b1381846127ff565b9050969550505050505056fea2646970667358221220afddb4702dae7156e418971123dd7378bdaa0206d7d333745ff89efa11bee5e064736f6c6343000812003368747470733a2f2f676174657761792e70696e6174612e636c6f75642f697066732f516d57486f65796166737a6e5136514b71577655555a34736369764b68386a347934504d72796b3277386e4e34722f7b69647d2e6a736f6ea2646970667358221220879483f66ba50f613c285b35cfaa440ef34090cd05f18c99d9b5d741cdef712e64736f6c63430008120033",
  "immutableReferences": {},
  "source": "// SPDX-License-Identifier: MIT\r\npragma solidity ^0.8.18;\r\n\r\nimport \"../../node_modules/@openzeppelin/contracts/token/ERC1155/ERC1155.sol\";\r\nimport \"../../node_modules/@openzeppelin/contracts/token/ERC1155/utils/ERC1155Holder.sol\";\r\nimport \"../../node_modules/@openzeppelin/contracts/utils/Counters.sol\";\r\nimport \"../../node_modules/@openzeppelin/contracts/access/Ownable.sol\";\r\n\r\nimport \"./Stuff.sol\";\r\n\r\ncontract ForgeMaster is Ownable, ERC1155Holder {\r\n    address public collectionAddress;\r\n\r\n    function forgeCollection(\r\n        string memory collectionName\r\n    ) external returns (address newCollectionAddress) {\r\n        // Import the bytecode of the contract to deploy\r\n        bytes memory collectionBytecode = type(Stuff).creationCode;\r\n        // Make a random salt based on the artist name\r\n        bytes32 salt = keccak256(abi.encodePacked(collectionName));\r\n\r\n        assembly {\r\n            newCollectionAddress := create2(\r\n                0,\r\n                add(collectionBytecode, 0x20),\r\n                mload(collectionBytecode),\r\n                salt\r\n            )\r\n            if iszero(extcodesize(newCollectionAddress)) {\r\n                // revert if something gone wrong (collectionAddress doesn't contain an address)\r\n                revert(0, 0)\r\n            }\r\n        }\r\n\r\n        Stuff stuff = Stuff(newCollectionAddress);\r\n        stuff.forgeStuff(msg.sender);\r\n\r\n        collectionAddress = newCollectionAddress;\r\n        return (newCollectionAddress);\r\n    }\r\n}\r\n",
  "sourcePath": "C:\\Users\\Alex\\Documents\\Travail\\Alyra\\NG-Marketplace\\truffle\\contracts\\Forge\\ForgeMaster.sol",
  "compiler": {
    "name": "solc",
    "version": "0.8.18+commit.87f61d96.Emscripten.clang"
  },
  "schemaVersion": "3.4.7",
  "updatedAt": "2023-04-06T08:56:35.951Z",
  "networkType": "ethereum",
  "devdoc": {
    "kind": "dev",
    "methods": {
      "owner()": {
        "details": "Returns the address of the current owner."
      },
      "renounceOwnership()": {
        "details": "Leaves the contract without owner. It will not be possible to call `onlyOwner` functions anymore. Can only be called by the current owner. NOTE: Renouncing ownership will leave the contract without an owner, thereby removing any functionality that is only available to the owner."
      },
      "supportsInterface(bytes4)": {
        "details": "See {IERC165-supportsInterface}."
      },
      "transferOwnership(address)": {
        "details": "Transfers ownership of the contract to a new account (`newOwner`). Can only be called by the current owner."
      }
    },
    "version": 1
  },
  "userdoc": {
    "kind": "user",
    "methods": {},
    "version": 1
  }
}