{
  "contractName": "ForgeMaster",
  "abi": [
    {
      "anonymous": false,
      "inputs": [
        {
          "indexed": true,
          "internalType": "address",
          "name": "previousOwner",
          "type": "address"
        },
        {
          "indexed": true,
          "internalType": "address",
          "name": "newOwner",
          "type": "address"
        }
      ],
      "name": "OwnershipTransferred",
      "type": "event"
    },
    {
      "inputs": [],
      "name": "collectionAddress",
      "outputs": [
        {
          "internalType": "address",
          "name": "",
          "type": "address"
        }
      ],
      "stateMutability": "view",
      "type": "function"
    },
    {
      "inputs": [
        {
          "internalType": "address",
          "name": "",
          "type": "address"
        },
        {
          "internalType": "address",
          "name": "",
          "type": "address"
        },
        {
          "internalType": "uint256[]",
          "name": "",
          "type": "uint256[]"
        },
        {
          "internalType": "uint256[]",
          "name": "",
          "type": "uint256[]"
        },
        {
          "internalType": "bytes",
          "name": "",
          "type": "bytes"
        }
      ],
      "name": "onERC1155BatchReceived",
      "outputs": [
        {
          "internalType": "bytes4",
          "name": "",
          "type": "bytes4"
        }
      ],
      "stateMutability": "nonpayable",
      "type": "function"
    },
    {
      "inputs": [
        {
          "internalType": "address",
          "name": "",
          "type": "address"
        },
        {
          "internalType": "address",
          "name": "",
          "type": "address"
        },
        {
          "internalType": "uint256",
          "name": "",
          "type": "uint256"
        },
        {
          "internalType": "uint256",
          "name": "",
          "type": "uint256"
        },
        {
          "internalType": "bytes",
          "name": "",
          "type": "bytes"
        }
      ],
      "name": "onERC1155Received",
      "outputs": [
        {
          "internalType": "bytes4",
          "name": "",
          "type": "bytes4"
        }
      ],
      "stateMutability": "nonpayable",
      "type": "function"
    },
    {
      "inputs": [],
      "name": "owner",
      "outputs": [
        {
          "internalType": "address",
          "name": "",
          "type": "address"
        }
      ],
      "stateMutability": "view",
      "type": "function"
    },
    {
      "inputs": [],
      "name": "renounceOwnership",
      "outputs": [],
      "stateMutability": "nonpayable",
      "type": "function"
    },
    {
      "inputs": [
        {
          "internalType": "bytes4",
          "name": "interfaceId",
          "type": "bytes4"
        }
      ],
      "name": "supportsInterface",
      "outputs": [
        {
          "internalType": "bool",
          "name": "",
          "type": "bool"
        }
      ],
      "stateMutability": "view",
      "type": "function"
    },
    {
      "inputs": [
        {
          "internalType": "address",
          "name": "newOwner",
          "type": "address"
        }
      ],
      "name": "transferOwnership",
      "outputs": [],
      "stateMutability": "nonpayable",
      "type": "function"
    },
    {
      "inputs": [
        {
          "internalType": "string",
          "name": "collectionName",
          "type": "string"
        }
      ],
      "name": "createCollection",
      "outputs": [
        {
          "internalType": "address",
          "name": "newCollectionAddress",
          "type": "address"
        }
      ],
      "stateMutability": "nonpayable",
      "type": "function"
    },
    {
      "inputs": [],
      "name": "forgeCollection",
      "outputs": [],
      "stateMutability": "nonpayable",
      "type": "function"
    }
  ],
  "bytecode": "0x608060405234801561001057600080fd5b5061002d61002261003260201b60201c565b61003a60201b60201c565b6100fe565b600033905090565b60008060009054906101000a900473ffffffffffffffffffffffffffffffffffffffff169050816000806101000a81548173ffffffffffffffffffffffffffffffffffffffff021916908373ffffffffffffffffffffffffffffffffffffffff1602179055508173ffffffffffffffffffffffffffffffffffffffff168173ffffffffffffffffffffffffffffffffffffffff167f8be0079c531659141344cd1fd0a4f28419497f9722a3daafe3b4186f6b6457e060405160405180910390a35050565b61434c8061010d6000396000f3fe60806040523480156200001157600080fd5b5060043610620000a05760003560e01c8063715018a6116200006f578063715018a6146200013f5780638da5cb5b146200014b578063bc197c81146200016d578063f23a6e6114620001a3578063f2fde38b14620001d957620000a0565b806301ffc9a714620000a5578063059dfe1314620000db5780630f7deecb14620001115780636aa00371146200011d575b600080fd5b620000c36004803603810190620000bd919062000795565b620001f9565b604051620000d29190620007e4565b60405180910390f35b620000f96004803603810190620000f3919062000963565b62000276565b604051620001089190620009f9565b60405180910390f35b6200011b6200032e565b005b6200012762000440565b604051620001369190620009f9565b60405180910390f35b6200014962000466565b005b620001556200047e565b604051620001649190620009f9565b60405180910390f35b6200018b600480360381019062000185919062000c11565b620004a7565b6040516200019a919062000d07565b60405180910390f35b620001c16004803603810190620001bb919062000d24565b620004bc565b604051620001d0919062000d07565b60405180910390f35b620001f76004803603810190620001f1919062000dcb565b620004d1565b005b60007f4e2312e0000000000000000000000000000000000000000000000000000000007bffffffffffffffffffffffffffffffffffffffffffffffffffffffff1916827bffffffffffffffffffffffffffffffffffffffffffffffffffffffff191614806200026f57506200026e826200055b565b5b9050919050565b600080604051806020016200028b9062000716565b6020820181038252601f19601f820116604052509050600083604051602001620002b6919062000e76565b604051602081830303815290604052805190602001209050808251602084016000f59250823b620002e657600080fd5b82600160006101000a81548173ffffffffffffffffffffffffffffffffffffffff021916908373ffffffffffffffffffffffffffffffffffffffff1602179055505050919050565b62000338620005c5565b6000600160009054906101000a900473ffffffffffffffffffffffffffffffffffffffff1690508073ffffffffffffffffffffffffffffffffffffffff166306f36e87336040518263ffffffff1660e01b81526004016200039a9190620009f9565b600060405180830381600087803b158015620003b557600080fd5b505af1158015620003ca573d6000803e3d6000fd5b505050508073ffffffffffffffffffffffffffffffffffffffff166344dfb6bc336040518263ffffffff1660e01b8152600401620004099190620009f9565b600060405180830381600087803b1580156200042457600080fd5b505af115801562000439573d6000803e3d6000fd5b5050505050565b600160009054906101000a900473ffffffffffffffffffffffffffffffffffffffff1681565b62000470620005c5565b6200047c60006200064a565b565b60008060009054906101000a900473ffffffffffffffffffffffffffffffffffffffff16905090565b600063bc197c8160e01b905095945050505050565b600063f23a6e6160e01b905095945050505050565b620004db620005c5565b600073ffffffffffffffffffffffffffffffffffffffff168173ffffffffffffffffffffffffffffffffffffffff16036200054d576040517f08c379a0000000000000000000000000000000000000000000000000000000008152600401620005449062000f16565b60405180910390fd5b62000558816200064a565b50565b60007f01ffc9a7000000000000000000000000000000000000000000000000000000007bffffffffffffffffffffffffffffffffffffffffffffffffffffffff1916827bffffffffffffffffffffffffffffffffffffffffffffffffffffffff1916149050919050565b620005cf6200070e565b73ffffffffffffffffffffffffffffffffffffffff16620005ef6200047e565b73ffffffffffffffffffffffffffffffffffffffff161462000648576040517f08c379a00000000000000000000000000000000000000000000000000000000081526004016200063f9062000f88565b60405180910390fd5b565b60008060009054906101000a900473ffffffffffffffffffffffffffffffffffffffff169050816000806101000a81548173ffffffffffffffffffffffffffffffffffffffff021916908373ffffffffffffffffffffffffffffffffffffffff1602179055508173ffffffffffffffffffffffffffffffffffffffff168173ffffffffffffffffffffffffffffffffffffffff167f8be0079c531659141344cd1fd0a4f28419497f9722a3daafe3b4186f6b6457e060405160405180910390a35050565b600033905090565b61336c8062000fab83390190565b6000604051905090565b600080fd5b600080fd5b60007fffffffff0000000000000000000000000000000000000000000000000000000082169050919050565b6200076f8162000738565b81146200077b57600080fd5b50565b6000813590506200078f8162000764565b92915050565b600060208284031215620007ae57620007ad6200072e565b5b6000620007be848285016200077e565b91505092915050565b60008115159050919050565b620007de81620007c7565b82525050565b6000602082019050620007fb6000830184620007d3565b92915050565b600080fd5b600080fd5b6000601f19601f8301169050919050565b7f4e487b7100000000000000000000000000000000000000000000000000000000600052604160045260246000fd5b62000856826200080b565b810181811067ffffffffffffffff821117156200087857620008776200081c565b5b80604052505050565b60006200088d62000724565b90506200089b82826200084b565b919050565b600067ffffffffffffffff821115620008be57620008bd6200081c565b5b620008c9826200080b565b9050602081019050919050565b82818337600083830152505050565b6000620008fc620008f684620008a0565b62000881565b9050828152602081018484840111156200091b576200091a62000806565b5b62000928848285620008d6565b509392505050565b600082601f83011262000948576200094762000801565b5b81356200095a848260208601620008e5565b91505092915050565b6000602082840312156200097c576200097b6200072e565b5b600082013567ffffffffffffffff8111156200099d576200099c62000733565b5b620009ab8482850162000930565b91505092915050565b600073ffffffffffffffffffffffffffffffffffffffff82169050919050565b6000620009e182620009b4565b9050919050565b620009f381620009d4565b82525050565b600060208201905062000a106000830184620009e8565b92915050565b62000a2181620009d4565b811462000a2d57600080fd5b50565b60008135905062000a418162000a16565b92915050565b600067ffffffffffffffff82111562000a655762000a646200081c565b5b602082029050602081019050919050565b600080fd5b6000819050919050565b62000a908162000a7b565b811462000a9c57600080fd5b50565b60008135905062000ab08162000a85565b92915050565b600062000acd62000ac78462000a47565b62000881565b9050808382526020820190506020840283018581111562000af35762000af262000a76565b5b835b8181101562000b20578062000b0b888262000a9f565b84526020840193505060208101905062000af5565b5050509392505050565b600082601f83011262000b425762000b4162000801565b5b813562000b5484826020860162000ab6565b91505092915050565b600067ffffffffffffffff82111562000b7b5762000b7a6200081c565b5b62000b86826200080b565b9050602081019050919050565b600062000baa62000ba48462000b5d565b62000881565b90508281526020810184848401111562000bc95762000bc862000806565b5b62000bd6848285620008d6565b509392505050565b600082601f83011262000bf65762000bf562000801565b5b813562000c0884826020860162000b93565b91505092915050565b600080600080600060a0868803121562000c305762000c2f6200072e565b5b600062000c408882890162000a30565b955050602062000c538882890162000a30565b945050604086013567ffffffffffffffff81111562000c775762000c7662000733565b5b62000c858882890162000b2a565b935050606086013567ffffffffffffffff81111562000ca95762000ca862000733565b5b62000cb78882890162000b2a565b925050608086013567ffffffffffffffff81111562000cdb5762000cda62000733565b5b62000ce98882890162000bde565b9150509295509295909350565b62000d018162000738565b82525050565b600060208201905062000d1e600083018462000cf6565b92915050565b600080600080600060a0868803121562000d435762000d426200072e565b5b600062000d538882890162000a30565b955050602062000d668882890162000a30565b945050604062000d798882890162000a9f565b935050606062000d8c8882890162000a9f565b925050608086013567ffffffffffffffff81111562000db05762000daf62000733565b5b62000dbe8882890162000bde565b9150509295509295909350565b60006020828403121562000de45762000de36200072e565b5b600062000df48482850162000a30565b91505092915050565b600081519050919050565b600081905092915050565b60005b8381101562000e3357808201518184015260208101905062000e16565b60008484015250505050565b600062000e4c8262000dfd565b62000e58818562000e08565b935062000e6a81856020860162000e13565b80840191505092915050565b600062000e84828462000e3f565b915081905092915050565b600082825260208201905092915050565b7f4f776e61626c653a206e6577206f776e657220697320746865207a65726f206160008201527f6464726573730000000000000000000000000000000000000000000000000000602082015250565b600062000efe60268362000e8f565b915062000f0b8262000ea0565b604082019050919050565b6000602082019050818103600083015262000f318162000eef565b9050919050565b7f4f776e61626c653a2063616c6c6572206973206e6f7420746865206f776e6572600082015250565b600062000f7060208362000e8f565b915062000f7d8262000f38565b602082019050919050565b6000602082019050818103600083015262000fa38162000f61565b905091905056fe60806040526000600560006101000a81548160ff021916908360ff1602179055503480156200002d57600080fd5b506040518060800160405280604d81526020016200331f604d913962000059816200008060201b60201c565b506200007a6200006e6200009560201b60201c565b6200009d60201b60201c565b620004c4565b8060029081620000919190620003dd565b5050565b600033905090565b6000600360009054906101000a900473ffffffffffffffffffffffffffffffffffffffff16905081600360006101000a81548173ffffffffffffffffffffffffffffffffffffffff021916908373ffffffffffffffffffffffffffffffffffffffff1602179055508173ffffffffffffffffffffffffffffffffffffffff168173ffffffffffffffffffffffffffffffffffffffff167f8be0079c531659141344cd1fd0a4f28419497f9722a3daafe3b4186f6b6457e060405160405180910390a35050565b600081519050919050565b7f4e487b7100000000000000000000000000000000000000000000000000000000600052604160045260246000fd5b7f4e487b7100000000000000000000000000000000000000000000000000000000600052602260045260246000fd5b60006002820490506001821680620001e557607f821691505b602082108103620001fb57620001fa6200019d565b5b50919050565b60008190508160005260206000209050919050565b60006020601f8301049050919050565b600082821b905092915050565b600060088302620002657fffffffffffffffffffffffffffffffffffffffffffffffffffffffffffffffff8262000226565b62000271868362000226565b95508019841693508086168417925050509392505050565b6000819050919050565b6000819050919050565b6000620002be620002b8620002b28462000289565b62000293565b62000289565b9050919050565b6000819050919050565b620002da836200029d565b620002f2620002e982620002c5565b84845462000233565b825550505050565b600090565b62000309620002fa565b62000316818484620002cf565b505050565b5b818110156200033e5762000332600082620002ff565b6001810190506200031c565b5050565b601f8211156200038d57620003578162000201565b620003628462000216565b8101602085101562000372578190505b6200038a620003818562000216565b8301826200031b565b50505b505050565b600082821c905092915050565b6000620003b26000198460080262000392565b1980831691505092915050565b6000620003cd83836200039f565b9150826002028217905092915050565b620003e88262000163565b67ffffffffffffffff8111156200040457620004036200016e565b5b620004108254620001cc565b6200041d82828562000342565b600060209050601f83116001811462000455576000841562000440578287015190505b6200044c8582620003bf565b865550620004bc565b601f198416620004658662000201565b60005b828110156200048f5784890151825560018201915060208501945060208101905062000468565b86831015620004af5784890151620004ab601f8916826200039f565b8355505b6001600288020188555050505b505050505050565b612e4b80620004d46000396000f3fe608060405234801561001057600080fd5b50600436106100f45760003560e01c8063715018a611610097578063e985e9c511610066578063e985e9c51461026f578063ea2a17301461029f578063f242432a146102bd578063f2fde38b146102d9576100f4565b8063715018a61461020d5780638da5cb5b14610217578063a22cb46514610235578063a68d1e1614610251576100f4565b80630e89341c116100d35780630e89341c146101755780632eb2c2d6146101a557806344dfb6bc146101c15780634e1273f4146101dd576100f4565b8062fdd58e146100f957806301ffc9a71461012957806306f36e8714610159575b600080fd5b610113600480360381019061010e9190611ab3565b6102f5565b6040516101209190611b02565b60405180910390f35b610143600480360381019061013e9190611b75565b6103bd565b6040516101509190611bbd565b60405180910390f35b610173600480360381019061016e9190611bd8565b61049f565b005b61018f600480360381019061018a9190611c05565b610628565b60405161019c9190611cc2565b60405180910390f35b6101bf60048036038101906101ba9190611ee1565b6106bc565b005b6101db60048036038101906101d69190611bd8565b61075d565b005b6101f760048036038101906101f29190612073565b610792565b60405161020491906121a9565b60405180910390f35b6102156108ab565b005b61021f6108bf565b60405161022c91906121da565b60405180910390f35b61024f600480360381019061024a9190612221565b6108e9565b005b6102596108ff565b60405161026691906121a9565b60405180910390f35b61028960048036038101906102849190612261565b610957565b6040516102969190611bbd565b60405180910390f35b6102a76109eb565b6040516102b491906122bd565b60405180910390f35b6102d760048036038101906102d291906122d8565b6109fe565b005b6102f360048036038101906102ee9190611bd8565b610a9f565b005b60008073ffffffffffffffffffffffffffffffffffffffff168373ffffffffffffffffffffffffffffffffffffffff1603610365576040517f08c379a000000000000000000000000000000000000000000000000000000000815260040161035c906123e1565b60405180910390fd5b60008083815260200190815260200160002060008473ffffffffffffffffffffffffffffffffffffffff1673ffffffffffffffffffffffffffffffffffffffff16815260200190815260200160002054905092915050565b60007fd9b67a26000000000000000000000000000000000000000000000000000000007bffffffffffffffffffffffffffffffffffffffffffffffffffffffff1916827bffffffffffffffffffffffffffffffffffffffffffffffffffffffff1916148061048857507f0e89341c000000000000000000000000000000000000000000000000000000007bffffffffffffffffffffffffffffffffffffffffffffffffffffffff1916827bffffffffffffffffffffffffffffffffffffffffffffffffffffffff1916145b80610498575061049782610b22565b5b9050919050565b600060019050600080600190505b6004811161062257600081036104c257600292505b6000600190505b83811161060e5760005b60078110156105fa5760005b60058110156105e657600081600a846104f89190612430565b6064866105059190612430565b6103e8886105139190612430565b61051d9190612472565b6105279190612472565b6105319190612472565b90506000820361054657620f4240955061058e565b6001820361055957620186a0955061058d565b6002820361056b57612710955061058c565b6003820361057d576103e8955061058b565b6004820361058a57606495505b5b5b5b5b6105a988828860405180602001604052806000815250610b8c565b60048190806001815401808255809150506001900390600052602060002001600090919091909150555080806105de906124a6565b9150506104df565b5080806105f2906124a6565b9150506104d3565b508080610606906124a6565b9150506104c9565b50808061061a906124a6565b9150506104ad565b50505050565b6060600280546106379061251d565b80601f01602080910402602001604051908101604052809291908181526020018280546106639061251d565b80156106b05780601f10610685576101008083540402835291602001916106b0565b820191906000526020600020905b81548152906001019060200180831161069357829003601f168201915b50505050509050919050565b6106c4610d3c565b73ffffffffffffffffffffffffffffffffffffffff168573ffffffffffffffffffffffffffffffffffffffff16148061070a575061070985610704610d3c565b610957565b5b610749576040517f08c379a0000000000000000000000000000000000000000000000000000000008152600401610740906125c0565b60405180910390fd5b6107568585858585610d44565b5050505050565b61078f81600560009054906101000a900460ff1660ff1664e8d4a5100060405180602001604052806000815250610b8c565b50565b606081518351146107d8576040517f08c379a00000000000000000000000000000000000000000000000000000000081526004016107cf90612652565b60405180910390fd5b6000835167ffffffffffffffff8111156107f5576107f4611ce9565b5b6040519080825280602002602001820160405280156108235781602001602082028036833780820191505090505b50905060005b84518110156108a05761087085828151811061084857610847612672565b5b602002602001015185838151811061086357610862612672565b5b60200260200101516102f5565b82828151811061088357610882612672565b5b60200260200101818152505080610899906124a6565b9050610829565b508091505092915050565b6108b3611065565b6108bd60006110e3565b565b6000600360009054906101000a900473ffffffffffffffffffffffffffffffffffffffff16905090565b6108fb6108f4610d3c565b83836111a9565b5050565b6060600480548060200260200160405190810160405280929190818152602001828054801561094d57602002820191906000526020600020905b815481526020019060010190808311610939575b5050505050905090565b6000600160008473ffffffffffffffffffffffffffffffffffffffff1673ffffffffffffffffffffffffffffffffffffffff16815260200190815260200160002060008373ffffffffffffffffffffffffffffffffffffffff1673ffffffffffffffffffffffffffffffffffffffff16815260200190815260200160002060009054906101000a900460ff16905092915050565b600560009054906101000a900460ff1681565b610a06610d3c565b73ffffffffffffffffffffffffffffffffffffffff168573ffffffffffffffffffffffffffffffffffffffff161480610a4c5750610a4b85610a46610d3c565b610957565b5b610a8b576040517f08c379a0000000000000000000000000000000000000000000000000000000008152600401610a82906125c0565b60405180910390fd5b610a988585858585611315565b5050505050565b610aa7611065565b600073ffffffffffffffffffffffffffffffffffffffff168173ffffffffffffffffffffffffffffffffffffffff1603610b16576040517f08c379a0000000000000000000000000000000000000000000000000000000008152600401610b0d90612713565b60405180910390fd5b610b1f816110e3565b50565b60007f01ffc9a7000000000000000000000000000000000000000000000000000000007bffffffffffffffffffffffffffffffffffffffffffffffffffffffff1916827bffffffffffffffffffffffffffffffffffffffffffffffffffffffff1916149050919050565b600073ffffffffffffffffffffffffffffffffffffffff168473ffffffffffffffffffffffffffffffffffffffff1603610bfb576040517f08c379a0000000000000000000000000000000000000000000000000000000008152600401610bf2906127a5565b60405180910390fd5b6000610c05610d3c565b90506000610c12856115b0565b90506000610c1f856115b0565b9050610c308360008985858961162a565b8460008088815260200190815260200160002060008973ffffffffffffffffffffffffffffffffffffffff1673ffffffffffffffffffffffffffffffffffffffff1681526020019081526020016000206000828254610c8f9190612472565b925050819055508673ffffffffffffffffffffffffffffffffffffffff16600073ffffffffffffffffffffffffffffffffffffffff168473ffffffffffffffffffffffffffffffffffffffff167fc3d58168c5ae7397731d063d5bbf3d657854427343f4c083240f7aacaa2d0f628989604051610d0d9291906127c5565b60405180910390a4610d2483600089858589611632565b610d338360008989898961163a565b50505050505050565b600033905090565b8151835114610d88576040517f08c379a0000000000000000000000000000000000000000000000000000000008152600401610d7f90612860565b60405180910390fd5b600073ffffffffffffffffffffffffffffffffffffffff168473ffffffffffffffffffffffffffffffffffffffff1603610df7576040517f08c379a0000000000000000000000000000000000000000000000000000000008152600401610dee906128f2565b60405180910390fd5b6000610e01610d3c565b9050610e1181878787878761162a565b60005b8451811015610fc2576000858281518110610e3257610e31612672565b5b602002602001015190506000858381518110610e5157610e50612672565b5b60200260200101519050600080600084815260200190815260200160002060008b73ffffffffffffffffffffffffffffffffffffffff1673ffffffffffffffffffffffffffffffffffffffff16815260200190815260200160002054905081811015610ef2576040517f08c379a0000000000000000000000000000000000000000000000000000000008152600401610ee990612984565b60405180910390fd5b81810360008085815260200190815260200160002060008c73ffffffffffffffffffffffffffffffffffffffff1673ffffffffffffffffffffffffffffffffffffffff168152602001908152602001600020819055508160008085815260200190815260200160002060008b73ffffffffffffffffffffffffffffffffffffffff1673ffffffffffffffffffffffffffffffffffffffff1681526020019081526020016000206000828254610fa79190612472565b9250508190555050505080610fbb906124a6565b9050610e14565b508473ffffffffffffffffffffffffffffffffffffffff168673ffffffffffffffffffffffffffffffffffffffff168273ffffffffffffffffffffffffffffffffffffffff167f4a39dc06d4c0dbc64b70af90fd698a233a518aa5d07e595d983b8c0526c8f7fb87876040516110399291906129a4565b60405180910390a461104f818787878787611632565b61105d818787878787611811565b505050505050565b61106d610d3c565b73ffffffffffffffffffffffffffffffffffffffff1661108b6108bf565b73ffffffffffffffffffffffffffffffffffffffff16146110e1576040517f08c379a00000000000000000000000000000000000000000000000000000000081526004016110d890612a27565b60405180910390fd5b565b6000600360009054906101000a900473ffffffffffffffffffffffffffffffffffffffff16905081600360006101000a81548173ffffffffffffffffffffffffffffffffffffffff021916908373ffffffffffffffffffffffffffffffffffffffff1602179055508173ffffffffffffffffffffffffffffffffffffffff168173ffffffffffffffffffffffffffffffffffffffff167f8be0079c531659141344cd1fd0a4f28419497f9722a3daafe3b4186f6b6457e060405160405180910390a35050565b8173ffffffffffffffffffffffffffffffffffffffff168373ffffffffffffffffffffffffffffffffffffffff1603611217576040517f08c379a000000000000000000000000000000000000000000000000000000000815260040161120e90612ab9565b60405180910390fd5b80600160008573ffffffffffffffffffffffffffffffffffffffff1673ffffffffffffffffffffffffffffffffffffffff16815260200190815260200160002060008473ffffffffffffffffffffffffffffffffffffffff1673ffffffffffffffffffffffffffffffffffffffff16815260200190815260200160002060006101000a81548160ff0219169083151502179055508173ffffffffffffffffffffffffffffffffffffffff168373ffffffffffffffffffffffffffffffffffffffff167f17307eab39ab6107e8899845ad3d59bd9653f200f220920489ca2b5937696c31836040516113089190611bbd565b60405180910390a3505050565b600073ffffffffffffffffffffffffffffffffffffffff168473ffffffffffffffffffffffffffffffffffffffff1603611384576040517f08c379a000000000000000000000000000000000000000000000000000000000815260040161137b906128f2565b60405180910390fd5b600061138e610d3c565b9050600061139b856115b0565b905060006113a8856115b0565b90506113b883898985858961162a565b600080600088815260200190815260200160002060008a73ffffffffffffffffffffffffffffffffffffffff1673ffffffffffffffffffffffffffffffffffffffff1681526020019081526020016000205490508581101561144f576040517f08c379a000000000000000000000000000000000000000000000000000000000815260040161144690612984565b60405180910390fd5b85810360008089815260200190815260200160002060008b73ffffffffffffffffffffffffffffffffffffffff1673ffffffffffffffffffffffffffffffffffffffff168152602001908152602001600020819055508560008089815260200190815260200160002060008a73ffffffffffffffffffffffffffffffffffffffff1673ffffffffffffffffffffffffffffffffffffffff16815260200190815260200160002060008282546115049190612472565b925050819055508773ffffffffffffffffffffffffffffffffffffffff168973ffffffffffffffffffffffffffffffffffffffff168573ffffffffffffffffffffffffffffffffffffffff167fc3d58168c5ae7397731d063d5bbf3d657854427343f4c083240f7aacaa2d0f628a8a6040516115819291906127c5565b60405180910390a4611597848a8a86868a611632565b6115a5848a8a8a8a8a61163a565b505050505050505050565b60606000600167ffffffffffffffff8111156115cf576115ce611ce9565b5b6040519080825280602002602001820160405280156115fd5781602001602082028036833780820191505090505b509050828160008151811061161557611614612672565b5b60200260200101818152505080915050919050565b505050505050565b505050505050565b6116598473ffffffffffffffffffffffffffffffffffffffff166119e8565b15611809578373ffffffffffffffffffffffffffffffffffffffff1663f23a6e6187878686866040518663ffffffff1660e01b815260040161169f959493929190612b2e565b6020604051808303816000875af19250505080156116db57506040513d601f19601f820116820180604052508101906116d89190612b9d565b60015b611780576116e7612bd7565b806308c379a00361174357506116fb612bf9565b806117065750611745565b806040517f08c379a000000000000000000000000000000000000000000000000000000000815260040161173a9190611cc2565b60405180910390fd5b505b6040517f08c379a000000000000000000000000000000000000000000000000000000000815260040161177790612cfb565b60405180910390fd5b63f23a6e6160e01b7bffffffffffffffffffffffffffffffffffffffffffffffffffffffff1916817bffffffffffffffffffffffffffffffffffffffffffffffffffffffff191614611807576040517f08c379a00000000000000000000000000000000000000000000000000000000081526004016117fe90612d8d565b60405180910390fd5b505b505050505050565b6118308473ffffffffffffffffffffffffffffffffffffffff166119e8565b156119e0578373ffffffffffffffffffffffffffffffffffffffff1663bc197c8187878686866040518663ffffffff1660e01b8152600401611876959493929190612dad565b6020604051808303816000875af19250505080156118b257506040513d601f19601f820116820180604052508101906118af9190612b9d565b60015b611957576118be612bd7565b806308c379a00361191a57506118d2612bf9565b806118dd575061191c565b806040517f08c379a00000000000000000000000000000000000000000000000000000000081526004016119119190611cc2565b60405180910390fd5b505b6040517f08c379a000000000000000000000000000000000000000000000000000000000815260040161194e90612cfb565b60405180910390fd5b63bc197c8160e01b7bffffffffffffffffffffffffffffffffffffffffffffffffffffffff1916817bffffffffffffffffffffffffffffffffffffffffffffffffffffffff1916146119de576040517f08c379a00000000000000000000000000000000000000000000000000000000081526004016119d590612d8d565b60405180910390fd5b505b505050505050565b6000808273ffffffffffffffffffffffffffffffffffffffff163b119050919050565b6000604051905090565b600080fd5b600080fd5b600073ffffffffffffffffffffffffffffffffffffffff82169050919050565b6000611a4a82611a1f565b9050919050565b611a5a81611a3f565b8114611a6557600080fd5b50565b600081359050611a7781611a51565b92915050565b6000819050919050565b611a9081611a7d565b8114611a9b57600080fd5b50565b600081359050611aad81611a87565b92915050565b60008060408385031215611aca57611ac9611a15565b5b6000611ad885828601611a68565b9250506020611ae985828601611a9e565b9150509250929050565b611afc81611a7d565b82525050565b6000602082019050611b176000830184611af3565b92915050565b60007fffffffff0000000000000000000000000000000000000000000000000000000082169050919050565b611b5281611b1d565b8114611b5d57600080fd5b50565b600081359050611b6f81611b49565b92915050565b600060208284031215611b8b57611b8a611a15565b5b6000611b9984828501611b60565b91505092915050565b60008115159050919050565b611bb781611ba2565b82525050565b6000602082019050611bd26000830184611bae565b92915050565b600060208284031215611bee57611bed611a15565b5b6000611bfc84828501611a68565b91505092915050565b600060208284031215611c1b57611c1a611a15565b5b6000611c2984828501611a9e565b91505092915050565b600081519050919050565b600082825260208201905092915050565b60005b83811015611c6c578082015181840152602081019050611c51565b60008484015250505050565b6000601f19601f8301169050919050565b6000611c9482611c32565b611c9e8185611c3d565b9350611cae818560208601611c4e565b611cb781611c78565b840191505092915050565b60006020820190508181036000830152611cdc8184611c89565b905092915050565b600080fd5b7f4e487b7100000000000000000000000000000000000000000000000000000000600052604160045260246000fd5b611d2182611c78565b810181811067ffffffffffffffff82111715611d4057611d3f611ce9565b5b80604052505050565b6000611d53611a0b565b9050611d5f8282611d18565b919050565b600067ffffffffffffffff821115611d7f57611d7e611ce9565b5b602082029050602081019050919050565b600080fd5b6000611da8611da384611d64565b611d49565b90508083825260208201905060208402830185811115611dcb57611dca611d90565b5b835b81811015611df45780611de08882611a9e565b845260208401935050602081019050611dcd565b5050509392505050565b600082601f830112611e1357611e12611ce4565b5b8135611e23848260208601611d95565b91505092915050565b600080fd5b600067ffffffffffffffff821115611e4c57611e4b611ce9565b5b611e5582611c78565b9050602081019050919050565b82818337600083830152505050565b6000611e84611e7f84611e31565b611d49565b905082815260208101848484011115611ea057611e9f611e2c565b5b611eab848285611e62565b509392505050565b600082601f830112611ec857611ec7611ce4565b5b8135611ed8848260208601611e71565b91505092915050565b600080600080600060a08688031215611efd57611efc611a15565b5b6000611f0b88828901611a68565b9550506020611f1c88828901611a68565b945050604086013567ffffffffffffffff811115611f3d57611f3c611a1a565b5b611f4988828901611dfe565b935050606086013567ffffffffffffffff811115611f6a57611f69611a1a565b5b611f7688828901611dfe565b925050608086013567ffffffffffffffff811115611f9757611f96611a1a565b5b611fa388828901611eb3565b9150509295509295909350565b600067ffffffffffffffff821115611fcb57611fca611ce9565b5b602082029050602081019050919050565b6000611fef611fea84611fb0565b611d49565b9050808382526020820190506020840283018581111561201257612011611d90565b5b835b8181101561203b57806120278882611a68565b845260208401935050602081019050612014565b5050509392505050565b600082601f83011261205a57612059611ce4565b5b813561206a848260208601611fdc565b91505092915050565b6000806040838503121561208a57612089611a15565b5b600083013567ffffffffffffffff8111156120a8576120a7611a1a565b5b6120b485828601612045565b925050602083013567ffffffffffffffff8111156120d5576120d4611a1a565b5b6120e185828601611dfe565b9150509250929050565b600081519050919050565b600082825260208201905092915050565b6000819050602082019050919050565b61212081611a7d565b82525050565b60006121328383612117565b60208301905092915050565b6000602082019050919050565b6000612156826120eb565b61216081856120f6565b935061216b83612107565b8060005b8381101561219c5781516121838882612126565b975061218e8361213e565b92505060018101905061216f565b5085935050505092915050565b600060208201905081810360008301526121c3818461214b565b905092915050565b6121d481611a3f565b82525050565b60006020820190506121ef60008301846121cb565b92915050565b6121fe81611ba2565b811461220957600080fd5b50565b60008135905061221b816121f5565b92915050565b6000806040838503121561223857612237611a15565b5b600061224685828601611a68565b92505060206122578582860161220c565b9150509250929050565b6000806040838503121561227857612277611a15565b5b600061228685828601611a68565b925050602061229785828601611a68565b9150509250929050565b600060ff82169050919050565b6122b7816122a1565b82525050565b60006020820190506122d260008301846122ae565b92915050565b600080600080600060a086880312156122f4576122f3611a15565b5b600061230288828901611a68565b955050602061231388828901611a68565b945050604061232488828901611a9e565b935050606061233588828901611a9e565b925050608086013567ffffffffffffffff81111561235657612355611a1a565b5b61236288828901611eb3565b9150509295509295909350565b7f455243313135353a2061646472657373207a65726f206973206e6f742061207660008201527f616c6964206f776e657200000000000000000000000000000000000000000000602082015250565b60006123cb602a83611c3d565b91506123d68261236f565b604082019050919050565b600060208201905081810360008301526123fa816123be565b9050919050565b7f4e487b7100000000000000000000000000000000000000000000000000000000600052601160045260246000fd5b600061243b82611a7d565b915061244683611a7d565b925082820261245481611a7d565b9150828204841483151761246b5761246a612401565b5b5092915050565b600061247d82611a7d565b915061248883611a7d565b92508282019050808211156124a05761249f612401565b5b92915050565b60006124b182611a7d565b91507fffffffffffffffffffffffffffffffffffffffffffffffffffffffffffffffff82036124e3576124e2612401565b5b600182019050919050565b7f4e487b7100000000000000000000000000000000000000000000000000000000600052602260045260246000fd5b6000600282049050600182168061253557607f821691505b602082108103612548576125476124ee565b5b50919050565b7f455243313135353a2063616c6c6572206973206e6f7420746f6b656e206f776e60008201527f6572206f7220617070726f766564000000000000000000000000000000000000602082015250565b60006125aa602e83611c3d565b91506125b58261254e565b604082019050919050565b600060208201905081810360008301526125d98161259d565b9050919050565b7f455243313135353a206163636f756e747320616e6420696473206c656e67746860008201527f206d69736d617463680000000000000000000000000000000000000000000000602082015250565b600061263c602983611c3d565b9150612647826125e0565b604082019050919050565b6000602082019050818103600083015261266b8161262f565b9050919050565b7f4e487b7100000000000000000000000000000000000000000000000000000000600052603260045260246000fd5b7f4f776e61626c653a206e6577206f776e657220697320746865207a65726f206160008201527f6464726573730000000000000000000000000000000000000000000000000000602082015250565b60006126fd602683611c3d565b9150612708826126a1565b604082019050919050565b6000602082019050818103600083015261272c816126f0565b9050919050565b7f455243313135353a206d696e7420746f20746865207a65726f2061646472657360008201527f7300000000000000000000000000000000000000000000000000000000000000602082015250565b600061278f602183611c3d565b915061279a82612733565b604082019050919050565b600060208201905081810360008301526127be81612782565b9050919050565b60006040820190506127da6000830185611af3565b6127e76020830184611af3565b9392505050565b7f455243313135353a2069647320616e6420616d6f756e7473206c656e6774682060008201527f6d69736d61746368000000000000000000000000000000000000000000000000602082015250565b600061284a602883611c3d565b9150612855826127ee565b604082019050919050565b600060208201905081810360008301526128798161283d565b9050919050565b7f455243313135353a207472616e7366657220746f20746865207a65726f20616460008201527f6472657373000000000000000000000000000000000000000000000000000000602082015250565b60006128dc602583611c3d565b91506128e782612880565b604082019050919050565b6000602082019050818103600083015261290b816128cf565b9050919050565b7f455243313135353a20696e73756666696369656e742062616c616e636520666f60008201527f72207472616e7366657200000000000000000000000000000000000000000000602082015250565b600061296e602a83611c3d565b915061297982612912565b604082019050919050565b6000602082019050818103600083015261299d81612961565b9050919050565b600060408201905081810360008301526129be818561214b565b905081810360208301526129d2818461214b565b90509392505050565b7f4f776e61626c653a2063616c6c6572206973206e6f7420746865206f776e6572600082015250565b6000612a11602083611c3d565b9150612a1c826129db565b602082019050919050565b60006020820190508181036000830152612a4081612a04565b9050919050565b7f455243313135353a2073657474696e6720617070726f76616c2073746174757360008201527f20666f722073656c660000000000000000000000000000000000000000000000602082015250565b6000612aa3602983611c3d565b9150612aae82612a47565b604082019050919050565b60006020820190508181036000830152612ad281612a96565b9050919050565b600081519050919050565b600082825260208201905092915050565b6000612b0082612ad9565b612b0a8185612ae4565b9350612b1a818560208601611c4e565b612b2381611c78565b840191505092915050565b600060a082019050612b4360008301886121cb565b612b5060208301876121cb565b612b5d6040830186611af3565b612b6a6060830185611af3565b8181036080830152612b7c8184612af5565b90509695505050505050565b600081519050612b9781611b49565b92915050565b600060208284031215612bb357612bb2611a15565b5b6000612bc184828501612b88565b91505092915050565b60008160e01c9050919050565b600060033d1115612bf65760046000803e612bf3600051612bca565b90505b90565b600060443d10612c8657612c0b611a0b565b60043d036004823e80513d602482011167ffffffffffffffff82111715612c33575050612c86565b808201805167ffffffffffffffff811115612c515750505050612c86565b80602083010160043d038501811115612c6e575050505050612c86565b612c7d82602001850186611d18565b82955050505050505b90565b7f455243313135353a207472616e7366657220746f206e6f6e2d4552433131353560008201527f526563656976657220696d706c656d656e746572000000000000000000000000602082015250565b6000612ce5603483611c3d565b9150612cf082612c89565b604082019050919050565b60006020820190508181036000830152612d1481612cd8565b9050919050565b7f455243313135353a204552433131353552656365697665722072656a6563746560008201527f6420746f6b656e73000000000000000000000000000000000000000000000000602082015250565b6000612d77602883611c3d565b9150612d8282612d1b565b604082019050919050565b60006020820190508181036000830152612da681612d6a565b9050919050565b600060a082019050612dc260008301886121cb565b612dcf60208301876121cb565b8181036040830152612de1818661214b565b90508181036060830152612df5818561214b565b90508181036080830152612e098184612af5565b9050969550505050505056fea2646970667358221220cf5156296725a25ebc4ed287a9b70627c3cb34f90f622c7155df003d3fa09dd064736f6c6343000812003368747470733a2f2f697066732e696f2f697066732f516d5a576a4c53347a446a5a364336345a65534b486b746364316a5275716e51507832676a3741716a46535532642f7b69647d2e6a736f6ea2646970667358221220378b5b50d71074acd0d0eb3fbb3e6ae4c56507a7d92a7c8757b5efafe223f1d664736f6c63430008120033",
  "immutableReferences": {},
  "source": "// SPDX-License-Identifier: MIT\r\npragma solidity ^0.8.18;\r\n\r\nimport \"../../node_modules/@openzeppelin/contracts/token/ERC1155/ERC1155.sol\";\r\nimport \"../../node_modules/@openzeppelin/contracts/token/ERC1155/utils/ERC1155Holder.sol\";\r\nimport \"../../node_modules/@openzeppelin/contracts/utils/Counters.sol\";\r\nimport \"../../node_modules/@openzeppelin/contracts/access/Ownable.sol\";\r\n\r\nimport \"./GuardianStuff.sol\";\r\n\r\ncontract ForgeMaster is Ownable, ERC1155Holder {\r\n    address public collectionAddress;\r\n\r\n    function createCollection(\r\n        string memory collectionName\r\n    ) external returns (address newCollectionAddress) {\r\n        // Import the bytecode of the contract to deploy\r\n        bytes memory collectionBytecode = type(GuardianStuff).creationCode;\r\n        // Make a random salt based on the artist name\r\n        bytes32 salt = keccak256(abi.encodePacked(collectionName));\r\n\r\n        assembly {\r\n            newCollectionAddress := create2(\r\n                0,\r\n                add(collectionBytecode, 0x20),\r\n                mload(collectionBytecode),\r\n                salt\r\n            )\r\n            if iszero(extcodesize(newCollectionAddress)) {\r\n                // revert if something gone wrong (collectionAddress doesn't contain an address)\r\n                revert(0, 0)\r\n            }\r\n        }\r\n\r\n        collectionAddress = newCollectionAddress;\r\n        return (newCollectionAddress);\r\n    }\r\n\r\n    function forgeCollection() external onlyOwner {\r\n        GuardianStuff guardianStuff = GuardianStuff(collectionAddress);\r\n        guardianStuff.forgeStuff(msg.sender);\r\n        guardianStuff.forgeChests(msg.sender);\r\n    }\r\n}\r\n",
  "sourcePath": "C:\\Users\\Alex\\Documents\\Travail\\Alyra\\NG-Marketplace\\truffle\\contracts\\Forge\\ForgeMaster.sol",
  "compiler": {
    "name": "solc",
    "version": "0.8.18+commit.87f61d96.Emscripten.clang"
  },
  "schemaVersion": "3.4.7",
  "updatedAt": "2023-04-08T23:29:38.874Z",
  "networkType": "ethereum",
  "devdoc": {
    "kind": "dev",
    "methods": {
      "owner()": {
        "details": "Returns the address of the current owner."
      },
      "renounceOwnership()": {
        "details": "Leaves the contract without owner. It will not be possible to call `onlyOwner` functions anymore. Can only be called by the current owner. NOTE: Renouncing ownership will leave the contract without an owner, thereby removing any functionality that is only available to the owner."
      },
      "supportsInterface(bytes4)": {
        "details": "See {IERC165-supportsInterface}."
      },
      "transferOwnership(address)": {
        "details": "Transfers ownership of the contract to a new account (`newOwner`). Can only be called by the current owner."
      }
    },
    "version": 1
  },
  "userdoc": {
    "kind": "user",
    "methods": {},
    "version": 1
  }
}