{
  "contractName": "GuardianStuff",
  "abi": [
    {
      "inputs": [],
      "stateMutability": "nonpayable",
      "type": "constructor"
    },
    {
      "anonymous": false,
      "inputs": [
        {
          "indexed": true,
          "internalType": "address",
          "name": "account",
          "type": "address"
        },
        {
          "indexed": true,
          "internalType": "address",
          "name": "operator",
          "type": "address"
        },
        {
          "indexed": false,
          "internalType": "bool",
          "name": "approved",
          "type": "bool"
        }
      ],
      "name": "ApprovalForAll",
      "type": "event"
    },
    {
      "anonymous": false,
      "inputs": [
        {
          "indexed": true,
          "internalType": "address",
          "name": "previousOwner",
          "type": "address"
        },
        {
          "indexed": true,
          "internalType": "address",
          "name": "newOwner",
          "type": "address"
        }
      ],
      "name": "OwnershipTransferred",
      "type": "event"
    },
    {
      "anonymous": false,
      "inputs": [
        {
          "indexed": true,
          "internalType": "address",
          "name": "operator",
          "type": "address"
        },
        {
          "indexed": true,
          "internalType": "address",
          "name": "from",
          "type": "address"
        },
        {
          "indexed": true,
          "internalType": "address",
          "name": "to",
          "type": "address"
        },
        {
          "indexed": false,
          "internalType": "uint256[]",
          "name": "ids",
          "type": "uint256[]"
        },
        {
          "indexed": false,
          "internalType": "uint256[]",
          "name": "values",
          "type": "uint256[]"
        }
      ],
      "name": "TransferBatch",
      "type": "event"
    },
    {
      "anonymous": false,
      "inputs": [
        {
          "indexed": true,
          "internalType": "address",
          "name": "operator",
          "type": "address"
        },
        {
          "indexed": true,
          "internalType": "address",
          "name": "from",
          "type": "address"
        },
        {
          "indexed": true,
          "internalType": "address",
          "name": "to",
          "type": "address"
        },
        {
          "indexed": false,
          "internalType": "uint256",
          "name": "id",
          "type": "uint256"
        },
        {
          "indexed": false,
          "internalType": "uint256",
          "name": "value",
          "type": "uint256"
        }
      ],
      "name": "TransferSingle",
      "type": "event"
    },
    {
      "anonymous": false,
      "inputs": [
        {
          "indexed": false,
          "internalType": "string",
          "name": "value",
          "type": "string"
        },
        {
          "indexed": true,
          "internalType": "uint256",
          "name": "id",
          "type": "uint256"
        }
      ],
      "name": "URI",
      "type": "event"
    },
    {
      "inputs": [
        {
          "internalType": "address",
          "name": "account",
          "type": "address"
        },
        {
          "internalType": "uint256",
          "name": "id",
          "type": "uint256"
        }
      ],
      "name": "balanceOf",
      "outputs": [
        {
          "internalType": "uint256",
          "name": "",
          "type": "uint256"
        }
      ],
      "stateMutability": "view",
      "type": "function"
    },
    {
      "inputs": [
        {
          "internalType": "address[]",
          "name": "accounts",
          "type": "address[]"
        },
        {
          "internalType": "uint256[]",
          "name": "ids",
          "type": "uint256[]"
        }
      ],
      "name": "balanceOfBatch",
      "outputs": [
        {
          "internalType": "uint256[]",
          "name": "",
          "type": "uint256[]"
        }
      ],
      "stateMutability": "view",
      "type": "function"
    },
    {
      "inputs": [
        {
          "internalType": "address",
          "name": "account",
          "type": "address"
        },
        {
          "internalType": "address",
          "name": "operator",
          "type": "address"
        }
      ],
      "name": "isApprovedForAll",
      "outputs": [
        {
          "internalType": "bool",
          "name": "",
          "type": "bool"
        }
      ],
      "stateMutability": "view",
      "type": "function"
    },
    {
      "inputs": [],
      "name": "owner",
      "outputs": [
        {
          "internalType": "address",
          "name": "",
          "type": "address"
        }
      ],
      "stateMutability": "view",
      "type": "function"
    },
    {
      "inputs": [],
      "name": "renounceOwnership",
      "outputs": [],
      "stateMutability": "nonpayable",
      "type": "function"
    },
    {
      "inputs": [
        {
          "internalType": "address",
          "name": "from",
          "type": "address"
        },
        {
          "internalType": "address",
          "name": "to",
          "type": "address"
        },
        {
          "internalType": "uint256[]",
          "name": "ids",
          "type": "uint256[]"
        },
        {
          "internalType": "uint256[]",
          "name": "amounts",
          "type": "uint256[]"
        },
        {
          "internalType": "bytes",
          "name": "data",
          "type": "bytes"
        }
      ],
      "name": "safeBatchTransferFrom",
      "outputs": [],
      "stateMutability": "nonpayable",
      "type": "function"
    },
    {
      "inputs": [
        {
          "internalType": "address",
          "name": "from",
          "type": "address"
        },
        {
          "internalType": "address",
          "name": "to",
          "type": "address"
        },
        {
          "internalType": "uint256",
          "name": "id",
          "type": "uint256"
        },
        {
          "internalType": "uint256",
          "name": "amount",
          "type": "uint256"
        },
        {
          "internalType": "bytes",
          "name": "data",
          "type": "bytes"
        }
      ],
      "name": "safeTransferFrom",
      "outputs": [],
      "stateMutability": "nonpayable",
      "type": "function"
    },
    {
      "inputs": [
        {
          "internalType": "address",
          "name": "operator",
          "type": "address"
        },
        {
          "internalType": "bool",
          "name": "approved",
          "type": "bool"
        }
      ],
      "name": "setApprovalForAll",
      "outputs": [],
      "stateMutability": "nonpayable",
      "type": "function"
    },
    {
      "inputs": [
        {
          "internalType": "bytes4",
          "name": "interfaceId",
          "type": "bytes4"
        }
      ],
      "name": "supportsInterface",
      "outputs": [
        {
          "internalType": "bool",
          "name": "",
          "type": "bool"
        }
      ],
      "stateMutability": "view",
      "type": "function"
    },
    {
      "inputs": [
        {
          "internalType": "uint256",
          "name": "",
          "type": "uint256"
        }
      ],
      "name": "tokenIds",
      "outputs": [
        {
          "internalType": "uint256",
          "name": "",
          "type": "uint256"
        }
      ],
      "stateMutability": "view",
      "type": "function"
    },
    {
      "inputs": [
        {
          "internalType": "address",
          "name": "newOwner",
          "type": "address"
        }
      ],
      "name": "transferOwnership",
      "outputs": [],
      "stateMutability": "nonpayable",
      "type": "function"
    },
    {
      "inputs": [
        {
          "internalType": "uint256",
          "name": "",
          "type": "uint256"
        }
      ],
      "name": "uri",
      "outputs": [
        {
          "internalType": "string",
          "name": "",
          "type": "string"
        }
      ],
      "stateMutability": "view",
      "type": "function"
    },
    {
      "inputs": [
        {
          "internalType": "address",
          "name": "itemOwner",
          "type": "address"
        }
      ],
      "name": "forgeStuff",
      "outputs": [],
      "stateMutability": "nonpayable",
      "type": "function"
    },
    {
      "inputs": [],
      "name": "getTokenIDs",
      "outputs": [
        {
          "internalType": "uint256[6]",
          "name": "tokenId",
          "type": "uint256[6]"
        }
      ],
      "stateMutability": "view",
      "type": "function"
    }
  ],
  "bytecode": "0x60806040526040518060c00160405280600a815260200160148152602001601e81526020016028815260200160328152602001603c8152506004906006620000499291906200018d565b503480156200005757600080fd5b506040518060800160405280604d815260200162003262604d91396200008381620000aa60201b60201c565b50620000a462000098620000bf60201b60201c565b620000c760201b60201c565b62000552565b8060029081620000bb91906200046b565b5050565b600033905090565b6000600360009054906101000a900473ffffffffffffffffffffffffffffffffffffffff16905081600360006101000a81548173ffffffffffffffffffffffffffffffffffffffff021916908373ffffffffffffffffffffffffffffffffffffffff1602179055508173ffffffffffffffffffffffffffffffffffffffff168173ffffffffffffffffffffffffffffffffffffffff167f8be0079c531659141344cd1fd0a4f28419497f9722a3daafe3b4186f6b6457e060405160405180910390a35050565b8260068101928215620001bf579160200282015b82811115620001be578251825591602001919060010190620001a1565b5b509050620001ce9190620001d2565b5090565b5b80821115620001ed576000816000905550600101620001d3565b5090565b600081519050919050565b7f4e487b7100000000000000000000000000000000000000000000000000000000600052604160045260246000fd5b7f4e487b7100000000000000000000000000000000000000000000000000000000600052602260045260246000fd5b600060028204905060018216806200027357607f821691505b6020821081036200028957620002886200022b565b5b50919050565b60008190508160005260206000209050919050565b60006020601f8301049050919050565b600082821b905092915050565b600060088302620002f37fffffffffffffffffffffffffffffffffffffffffffffffffffffffffffffffff82620002b4565b620002ff8683620002b4565b95508019841693508086168417925050509392505050565b6000819050919050565b6000819050919050565b60006200034c62000346620003408462000317565b62000321565b62000317565b9050919050565b6000819050919050565b62000368836200032b565b62000380620003778262000353565b848454620002c1565b825550505050565b600090565b6200039762000388565b620003a48184846200035d565b505050565b5b81811015620003cc57620003c06000826200038d565b600181019050620003aa565b5050565b601f8211156200041b57620003e5816200028f565b620003f084620002a4565b8101602085101562000400578190505b620004186200040f85620002a4565b830182620003a9565b50505b505050565b600082821c905092915050565b6000620004406000198460080262000420565b1980831691505092915050565b60006200045b83836200042d565b9150826002028217905092915050565b6200047682620001f1565b67ffffffffffffffff811115620004925762000491620001fc565b5b6200049e82546200025a565b620004ab828285620003d0565b600060209050601f831160018114620004e35760008415620004ce578287015190505b620004da85826200044d565b8655506200054a565b601f198416620004f3866200028f565b60005b828110156200051d57848901518255600182019150602085019450602081019050620004f6565b868310156200053d578489015162000539601f8916826200042d565b8355505b6001600288020188555050505b505050505050565b612d0080620005626000396000f3fe608060405234801561001057600080fd5b50600436106100e95760003560e01c80638da5cb5b1161008c578063d58778d611610066578063d58778d614610248578063e985e9c514610278578063f242432a146102a8578063f2fde38b146102c4576100e9565b80638da5cb5b146101f0578063a22cb4651461020e578063a68d1e161461022a576100e9565b80630e89341c116100c85780630e89341c1461016a5780632eb2c2d61461019a5780634e1273f4146101b6578063715018a6146101e6576100e9565b8062fdd58e146100ee57806301ffc9a71461011e57806306f36e871461014e575b600080fd5b61010860048036038101906101039190611942565b6102e0565b6040516101159190611991565b60405180910390f35b61013860048036038101906101339190611a04565b6103a8565b6040516101459190611a4c565b60405180910390f35b61016860048036038101906101639190611a67565b61048a565b005b610184600480360381019061017f9190611a94565b6104cf565b6040516101919190611b51565b60405180910390f35b6101b460048036038101906101af9190611d70565b610563565b005b6101d060048036038101906101cb9190611f02565b610604565b6040516101dd9190612038565b60405180910390f35b6101ee61071d565b005b6101f8610731565b6040516102059190612069565b60405180910390f35b610228600480360381019061022391906120b0565b61075b565b005b610232610771565b60405161023f9190612174565b60405180910390f35b610262600480360381019061025d9190611a94565b6107bc565b60405161026f9190611991565b60405180910390f35b610292600480360381019061028d919061218f565b6107d7565b60405161029f9190611a4c565b60405180910390f35b6102c260048036038101906102bd91906121cf565b61086b565b005b6102de60048036038101906102d99190611a67565b61090c565b005b60008073ffffffffffffffffffffffffffffffffffffffff168373ffffffffffffffffffffffffffffffffffffffff1603610350576040517f08c379a0000000000000000000000000000000000000000000000000000000008152600401610347906122d8565b60405180910390fd5b60008083815260200190815260200160002060008473ffffffffffffffffffffffffffffffffffffffff1673ffffffffffffffffffffffffffffffffffffffff16815260200190815260200160002054905092915050565b60007fd9b67a26000000000000000000000000000000000000000000000000000000007bffffffffffffffffffffffffffffffffffffffffffffffffffffffff1916827bffffffffffffffffffffffffffffffffffffffffffffffffffffffff1916148061047357507f0e89341c000000000000000000000000000000000000000000000000000000007bffffffffffffffffffffffffffffffffffffffffffffffffffffffff1916827bffffffffffffffffffffffffffffffffffffffffffffffffffffffff1916145b8061048357506104828261098f565b5b9050919050565b6104926109f9565b6104af81600a606460405180602001604052806000815250610a77565b6104cc816014600560405180602001604052806000815250610a77565b50565b6060600280546104de90612327565b80601f016020809104026020016040519081016040528092919081815260200182805461050a90612327565b80156105575780601f1061052c57610100808354040283529160200191610557565b820191906000526020600020905b81548152906001019060200180831161053a57829003601f168201915b50505050509050919050565b61056b610c27565b73ffffffffffffffffffffffffffffffffffffffff168573ffffffffffffffffffffffffffffffffffffffff1614806105b157506105b0856105ab610c27565b6107d7565b5b6105f0576040517f08c379a00000000000000000000000000000000000000000000000000000000081526004016105e7906123ca565b60405180910390fd5b6105fd8585858585610c2f565b5050505050565b6060815183511461064a576040517f08c379a00000000000000000000000000000000000000000000000000000000081526004016106419061245c565b60405180910390fd5b6000835167ffffffffffffffff81111561066757610666611b78565b5b6040519080825280602002602001820160405280156106955781602001602082028036833780820191505090505b50905060005b8451811015610712576106e28582815181106106ba576106b961247c565b5b60200260200101518583815181106106d5576106d461247c565b5b60200260200101516102e0565b8282815181106106f5576106f461247c565b5b6020026020010181815250508061070b906124da565b905061069b565b508091505092915050565b6107256109f9565b61072f6000610f50565b565b6000600360009054906101000a900473ffffffffffffffffffffffffffffffffffffffff16905090565b61076d610766610c27565b8383611016565b5050565b610779611878565b60046006806020026040519081016040528092919082600680156107b2576020028201915b81548152602001906001019080831161079e575b5050505050905090565b600481600681106107cc57600080fd5b016000915090505481565b6000600160008473ffffffffffffffffffffffffffffffffffffffff1673ffffffffffffffffffffffffffffffffffffffff16815260200190815260200160002060008373ffffffffffffffffffffffffffffffffffffffff1673ffffffffffffffffffffffffffffffffffffffff16815260200190815260200160002060009054906101000a900460ff16905092915050565b610873610c27565b73ffffffffffffffffffffffffffffffffffffffff168573ffffffffffffffffffffffffffffffffffffffff1614806108b957506108b8856108b3610c27565b6107d7565b5b6108f8576040517f08c379a00000000000000000000000000000000000000000000000000000000081526004016108ef906123ca565b60405180910390fd5b6109058585858585611182565b5050505050565b6109146109f9565b600073ffffffffffffffffffffffffffffffffffffffff168173ffffffffffffffffffffffffffffffffffffffff1603610983576040517f08c379a000000000000000000000000000000000000000000000000000000000815260040161097a90612594565b60405180910390fd5b61098c81610f50565b50565b60007f01ffc9a7000000000000000000000000000000000000000000000000000000007bffffffffffffffffffffffffffffffffffffffffffffffffffffffff1916827bffffffffffffffffffffffffffffffffffffffffffffffffffffffff1916149050919050565b610a01610c27565b73ffffffffffffffffffffffffffffffffffffffff16610a1f610731565b73ffffffffffffffffffffffffffffffffffffffff1614610a75576040517f08c379a0000000000000000000000000000000000000000000000000000000008152600401610a6c90612600565b60405180910390fd5b565b600073ffffffffffffffffffffffffffffffffffffffff168473ffffffffffffffffffffffffffffffffffffffff1603610ae6576040517f08c379a0000000000000000000000000000000000000000000000000000000008152600401610add90612692565b60405180910390fd5b6000610af0610c27565b90506000610afd8561141d565b90506000610b0a8561141d565b9050610b1b83600089858589611497565b8460008088815260200190815260200160002060008973ffffffffffffffffffffffffffffffffffffffff1673ffffffffffffffffffffffffffffffffffffffff1681526020019081526020016000206000828254610b7a91906126b2565b925050819055508673ffffffffffffffffffffffffffffffffffffffff16600073ffffffffffffffffffffffffffffffffffffffff168473ffffffffffffffffffffffffffffffffffffffff167fc3d58168c5ae7397731d063d5bbf3d657854427343f4c083240f7aacaa2d0f628989604051610bf89291906126e6565b60405180910390a4610c0f8360008985858961149f565b610c1e836000898989896114a7565b50505050505050565b600033905090565b8151835114610c73576040517f08c379a0000000000000000000000000000000000000000000000000000000008152600401610c6a90612781565b60405180910390fd5b600073ffffffffffffffffffffffffffffffffffffffff168473ffffffffffffffffffffffffffffffffffffffff1603610ce2576040517f08c379a0000000000000000000000000000000000000000000000000000000008152600401610cd990612813565b60405180910390fd5b6000610cec610c27565b9050610cfc818787878787611497565b60005b8451811015610ead576000858281518110610d1d57610d1c61247c565b5b602002602001015190506000858381518110610d3c57610d3b61247c565b5b60200260200101519050600080600084815260200190815260200160002060008b73ffffffffffffffffffffffffffffffffffffffff1673ffffffffffffffffffffffffffffffffffffffff16815260200190815260200160002054905081811015610ddd576040517f08c379a0000000000000000000000000000000000000000000000000000000008152600401610dd4906128a5565b60405180910390fd5b81810360008085815260200190815260200160002060008c73ffffffffffffffffffffffffffffffffffffffff1673ffffffffffffffffffffffffffffffffffffffff168152602001908152602001600020819055508160008085815260200190815260200160002060008b73ffffffffffffffffffffffffffffffffffffffff1673ffffffffffffffffffffffffffffffffffffffff1681526020019081526020016000206000828254610e9291906126b2565b9250508190555050505080610ea6906124da565b9050610cff565b508473ffffffffffffffffffffffffffffffffffffffff168673ffffffffffffffffffffffffffffffffffffffff168273ffffffffffffffffffffffffffffffffffffffff167f4a39dc06d4c0dbc64b70af90fd698a233a518aa5d07e595d983b8c0526c8f7fb8787604051610f249291906128c5565b60405180910390a4610f3a81878787878761149f565b610f4881878787878761167e565b505050505050565b6000600360009054906101000a900473ffffffffffffffffffffffffffffffffffffffff16905081600360006101000a81548173ffffffffffffffffffffffffffffffffffffffff021916908373ffffffffffffffffffffffffffffffffffffffff1602179055508173ffffffffffffffffffffffffffffffffffffffff168173ffffffffffffffffffffffffffffffffffffffff167f8be0079c531659141344cd1fd0a4f28419497f9722a3daafe3b4186f6b6457e060405160405180910390a35050565b8173ffffffffffffffffffffffffffffffffffffffff168373ffffffffffffffffffffffffffffffffffffffff1603611084576040517f08c379a000000000000000000000000000000000000000000000000000000000815260040161107b9061296e565b60405180910390fd5b80600160008573ffffffffffffffffffffffffffffffffffffffff1673ffffffffffffffffffffffffffffffffffffffff16815260200190815260200160002060008473ffffffffffffffffffffffffffffffffffffffff1673ffffffffffffffffffffffffffffffffffffffff16815260200190815260200160002060006101000a81548160ff0219169083151502179055508173ffffffffffffffffffffffffffffffffffffffff168373ffffffffffffffffffffffffffffffffffffffff167f17307eab39ab6107e8899845ad3d59bd9653f200f220920489ca2b5937696c31836040516111759190611a4c565b60405180910390a3505050565b600073ffffffffffffffffffffffffffffffffffffffff168473ffffffffffffffffffffffffffffffffffffffff16036111f1576040517f08c379a00000000000000000000000000000000000000000000000000000000081526004016111e890612813565b60405180910390fd5b60006111fb610c27565b905060006112088561141d565b905060006112158561141d565b9050611225838989858589611497565b600080600088815260200190815260200160002060008a73ffffffffffffffffffffffffffffffffffffffff1673ffffffffffffffffffffffffffffffffffffffff168152602001908152602001600020549050858110156112bc576040517f08c379a00000000000000000000000000000000000000000000000000000000081526004016112b3906128a5565b60405180910390fd5b85810360008089815260200190815260200160002060008b73ffffffffffffffffffffffffffffffffffffffff1673ffffffffffffffffffffffffffffffffffffffff168152602001908152602001600020819055508560008089815260200190815260200160002060008a73ffffffffffffffffffffffffffffffffffffffff1673ffffffffffffffffffffffffffffffffffffffff168152602001908152602001600020600082825461137191906126b2565b925050819055508773ffffffffffffffffffffffffffffffffffffffff168973ffffffffffffffffffffffffffffffffffffffff168573ffffffffffffffffffffffffffffffffffffffff167fc3d58168c5ae7397731d063d5bbf3d657854427343f4c083240f7aacaa2d0f628a8a6040516113ee9291906126e6565b60405180910390a4611404848a8a86868a61149f565b611412848a8a8a8a8a6114a7565b505050505050505050565b60606000600167ffffffffffffffff81111561143c5761143b611b78565b5b60405190808252806020026020018201604052801561146a5781602001602082028036833780820191505090505b50905082816000815181106114825761148161247c565b5b60200260200101818152505080915050919050565b505050505050565b505050505050565b6114c68473ffffffffffffffffffffffffffffffffffffffff16611855565b15611676578373ffffffffffffffffffffffffffffffffffffffff1663f23a6e6187878686866040518663ffffffff1660e01b815260040161150c9594939291906129e3565b6020604051808303816000875af192505050801561154857506040513d601f19601f820116820180604052508101906115459190612a52565b60015b6115ed57611554612a8c565b806308c379a0036115b05750611568612aae565b8061157357506115b2565b806040517f08c379a00000000000000000000000000000000000000000000000000000000081526004016115a79190611b51565b60405180910390fd5b505b6040517f08c379a00000000000000000000000000000000000000000000000000000000081526004016115e490612bb0565b60405180910390fd5b63f23a6e6160e01b7bffffffffffffffffffffffffffffffffffffffffffffffffffffffff1916817bffffffffffffffffffffffffffffffffffffffffffffffffffffffff191614611674576040517f08c379a000000000000000000000000000000000000000000000000000000000815260040161166b90612c42565b60405180910390fd5b505b505050505050565b61169d8473ffffffffffffffffffffffffffffffffffffffff16611855565b1561184d578373ffffffffffffffffffffffffffffffffffffffff1663bc197c8187878686866040518663ffffffff1660e01b81526004016116e3959493929190612c62565b6020604051808303816000875af192505050801561171f57506040513d601f19601f8201168201806040525081019061171c9190612a52565b60015b6117c45761172b612a8c565b806308c379a003611787575061173f612aae565b8061174a5750611789565b806040517f08c379a000000000000000000000000000000000000000000000000000000000815260040161177e9190611b51565b60405180910390fd5b505b6040517f08c379a00000000000000000000000000000000000000000000000000000000081526004016117bb90612bb0565b60405180910390fd5b63bc197c8160e01b7bffffffffffffffffffffffffffffffffffffffffffffffffffffffff1916817bffffffffffffffffffffffffffffffffffffffffffffffffffffffff19161461184b576040517f08c379a000000000000000000000000000000000000000000000000000000000815260040161184290612c42565b60405180910390fd5b505b505050505050565b6000808273ffffffffffffffffffffffffffffffffffffffff163b119050919050565b6040518060c00160405280600690602082028036833780820191505090505090565b6000604051905090565b600080fd5b600080fd5b600073ffffffffffffffffffffffffffffffffffffffff82169050919050565b60006118d9826118ae565b9050919050565b6118e9816118ce565b81146118f457600080fd5b50565b600081359050611906816118e0565b92915050565b6000819050919050565b61191f8161190c565b811461192a57600080fd5b50565b60008135905061193c81611916565b92915050565b60008060408385031215611959576119586118a4565b5b6000611967858286016118f7565b92505060206119788582860161192d565b9150509250929050565b61198b8161190c565b82525050565b60006020820190506119a66000830184611982565b92915050565b60007fffffffff0000000000000000000000000000000000000000000000000000000082169050919050565b6119e1816119ac565b81146119ec57600080fd5b50565b6000813590506119fe816119d8565b92915050565b600060208284031215611a1a57611a196118a4565b5b6000611a28848285016119ef565b91505092915050565b60008115159050919050565b611a4681611a31565b82525050565b6000602082019050611a616000830184611a3d565b92915050565b600060208284031215611a7d57611a7c6118a4565b5b6000611a8b848285016118f7565b91505092915050565b600060208284031215611aaa57611aa96118a4565b5b6000611ab88482850161192d565b91505092915050565b600081519050919050565b600082825260208201905092915050565b60005b83811015611afb578082015181840152602081019050611ae0565b60008484015250505050565b6000601f19601f8301169050919050565b6000611b2382611ac1565b611b2d8185611acc565b9350611b3d818560208601611add565b611b4681611b07565b840191505092915050565b60006020820190508181036000830152611b6b8184611b18565b905092915050565b600080fd5b7f4e487b7100000000000000000000000000000000000000000000000000000000600052604160045260246000fd5b611bb082611b07565b810181811067ffffffffffffffff82111715611bcf57611bce611b78565b5b80604052505050565b6000611be261189a565b9050611bee8282611ba7565b919050565b600067ffffffffffffffff821115611c0e57611c0d611b78565b5b602082029050602081019050919050565b600080fd5b6000611c37611c3284611bf3565b611bd8565b90508083825260208201905060208402830185811115611c5a57611c59611c1f565b5b835b81811015611c835780611c6f888261192d565b845260208401935050602081019050611c5c565b5050509392505050565b600082601f830112611ca257611ca1611b73565b5b8135611cb2848260208601611c24565b91505092915050565b600080fd5b600067ffffffffffffffff821115611cdb57611cda611b78565b5b611ce482611b07565b9050602081019050919050565b82818337600083830152505050565b6000611d13611d0e84611cc0565b611bd8565b905082815260208101848484011115611d2f57611d2e611cbb565b5b611d3a848285611cf1565b509392505050565b600082601f830112611d5757611d56611b73565b5b8135611d67848260208601611d00565b91505092915050565b600080600080600060a08688031215611d8c57611d8b6118a4565b5b6000611d9a888289016118f7565b9550506020611dab888289016118f7565b945050604086013567ffffffffffffffff811115611dcc57611dcb6118a9565b5b611dd888828901611c8d565b935050606086013567ffffffffffffffff811115611df957611df86118a9565b5b611e0588828901611c8d565b925050608086013567ffffffffffffffff811115611e2657611e256118a9565b5b611e3288828901611d42565b9150509295509295909350565b600067ffffffffffffffff821115611e5a57611e59611b78565b5b602082029050602081019050919050565b6000611e7e611e7984611e3f565b611bd8565b90508083825260208201905060208402830185811115611ea157611ea0611c1f565b5b835b81811015611eca5780611eb688826118f7565b845260208401935050602081019050611ea3565b5050509392505050565b600082601f830112611ee957611ee8611b73565b5b8135611ef9848260208601611e6b565b91505092915050565b60008060408385031215611f1957611f186118a4565b5b600083013567ffffffffffffffff811115611f3757611f366118a9565b5b611f4385828601611ed4565b925050602083013567ffffffffffffffff811115611f6457611f636118a9565b5b611f7085828601611c8d565b9150509250929050565b600081519050919050565b600082825260208201905092915050565b6000819050602082019050919050565b611faf8161190c565b82525050565b6000611fc18383611fa6565b60208301905092915050565b6000602082019050919050565b6000611fe582611f7a565b611fef8185611f85565b9350611ffa83611f96565b8060005b8381101561202b5781516120128882611fb5565b975061201d83611fcd565b925050600181019050611ffe565b5085935050505092915050565b600060208201905081810360008301526120528184611fda565b905092915050565b612063816118ce565b82525050565b600060208201905061207e600083018461205a565b92915050565b61208d81611a31565b811461209857600080fd5b50565b6000813590506120aa81612084565b92915050565b600080604083850312156120c7576120c66118a4565b5b60006120d5858286016118f7565b92505060206120e68582860161209b565b9150509250929050565b600060069050919050565b600081905092915050565b6000819050919050565b6000602082019050919050565b612126816120f0565b61213081846120fb565b925061213b82612106565b8060005b8381101561216c5781516121538782611fb5565b965061215e83612110565b92505060018101905061213f565b505050505050565b600060c082019050612189600083018461211d565b92915050565b600080604083850312156121a6576121a56118a4565b5b60006121b4858286016118f7565b92505060206121c5858286016118f7565b9150509250929050565b600080600080600060a086880312156121eb576121ea6118a4565b5b60006121f9888289016118f7565b955050602061220a888289016118f7565b945050604061221b8882890161192d565b935050606061222c8882890161192d565b925050608086013567ffffffffffffffff81111561224d5761224c6118a9565b5b61225988828901611d42565b9150509295509295909350565b7f455243313135353a2061646472657373207a65726f206973206e6f742061207660008201527f616c6964206f776e657200000000000000000000000000000000000000000000602082015250565b60006122c2602a83611acc565b91506122cd82612266565b604082019050919050565b600060208201905081810360008301526122f1816122b5565b9050919050565b7f4e487b7100000000000000000000000000000000000000000000000000000000600052602260045260246000fd5b6000600282049050600182168061233f57607f821691505b602082108103612352576123516122f8565b5b50919050565b7f455243313135353a2063616c6c6572206973206e6f7420746f6b656e206f776e60008201527f6572206f7220617070726f766564000000000000000000000000000000000000602082015250565b60006123b4602e83611acc565b91506123bf82612358565b604082019050919050565b600060208201905081810360008301526123e3816123a7565b9050919050565b7f455243313135353a206163636f756e747320616e6420696473206c656e67746860008201527f206d69736d617463680000000000000000000000000000000000000000000000602082015250565b6000612446602983611acc565b9150612451826123ea565b604082019050919050565b6000602082019050818103600083015261247581612439565b9050919050565b7f4e487b7100000000000000000000000000000000000000000000000000000000600052603260045260246000fd5b7f4e487b7100000000000000000000000000000000000000000000000000000000600052601160045260246000fd5b60006124e58261190c565b91507fffffffffffffffffffffffffffffffffffffffffffffffffffffffffffffffff8203612517576125166124ab565b5b600182019050919050565b7f4f776e61626c653a206e6577206f776e657220697320746865207a65726f206160008201527f6464726573730000000000000000000000000000000000000000000000000000602082015250565b600061257e602683611acc565b915061258982612522565b604082019050919050565b600060208201905081810360008301526125ad81612571565b9050919050565b7f4f776e61626c653a2063616c6c6572206973206e6f7420746865206f776e6572600082015250565b60006125ea602083611acc565b91506125f5826125b4565b602082019050919050565b60006020820190508181036000830152612619816125dd565b9050919050565b7f455243313135353a206d696e7420746f20746865207a65726f2061646472657360008201527f7300000000000000000000000000000000000000000000000000000000000000602082015250565b600061267c602183611acc565b915061268782612620565b604082019050919050565b600060208201905081810360008301526126ab8161266f565b9050919050565b60006126bd8261190c565b91506126c88361190c565b92508282019050808211156126e0576126df6124ab565b5b92915050565b60006040820190506126fb6000830185611982565b6127086020830184611982565b9392505050565b7f455243313135353a2069647320616e6420616d6f756e7473206c656e6774682060008201527f6d69736d61746368000000000000000000000000000000000000000000000000602082015250565b600061276b602883611acc565b91506127768261270f565b604082019050919050565b6000602082019050818103600083015261279a8161275e565b9050919050565b7f455243313135353a207472616e7366657220746f20746865207a65726f20616460008201527f6472657373000000000000000000000000000000000000000000000000000000602082015250565b60006127fd602583611acc565b9150612808826127a1565b604082019050919050565b6000602082019050818103600083015261282c816127f0565b9050919050565b7f455243313135353a20696e73756666696369656e742062616c616e636520666f60008201527f72207472616e7366657200000000000000000000000000000000000000000000602082015250565b600061288f602a83611acc565b915061289a82612833565b604082019050919050565b600060208201905081810360008301526128be81612882565b9050919050565b600060408201905081810360008301526128df8185611fda565b905081810360208301526128f38184611fda565b90509392505050565b7f455243313135353a2073657474696e6720617070726f76616c2073746174757360008201527f20666f722073656c660000000000000000000000000000000000000000000000602082015250565b6000612958602983611acc565b9150612963826128fc565b604082019050919050565b600060208201905081810360008301526129878161294b565b9050919050565b600081519050919050565b600082825260208201905092915050565b60006129b58261298e565b6129bf8185612999565b93506129cf818560208601611add565b6129d881611b07565b840191505092915050565b600060a0820190506129f8600083018861205a565b612a05602083018761205a565b612a126040830186611982565b612a1f6060830185611982565b8181036080830152612a3181846129aa565b90509695505050505050565b600081519050612a4c816119d8565b92915050565b600060208284031215612a6857612a676118a4565b5b6000612a7684828501612a3d565b91505092915050565b60008160e01c9050919050565b600060033d1115612aab5760046000803e612aa8600051612a7f565b90505b90565b600060443d10612b3b57612ac061189a565b60043d036004823e80513d602482011167ffffffffffffffff82111715612ae8575050612b3b565b808201805167ffffffffffffffff811115612b065750505050612b3b565b80602083010160043d038501811115612b23575050505050612b3b565b612b3282602001850186611ba7565b82955050505050505b90565b7f455243313135353a207472616e7366657220746f206e6f6e2d4552433131353560008201527f526563656976657220696d706c656d656e746572000000000000000000000000602082015250565b6000612b9a603483611acc565b9150612ba582612b3e565b604082019050919050565b60006020820190508181036000830152612bc981612b8d565b9050919050565b7f455243313135353a204552433131353552656365697665722072656a6563746560008201527f6420746f6b656e73000000000000000000000000000000000000000000000000602082015250565b6000612c2c602883611acc565b9150612c3782612bd0565b604082019050919050565b60006020820190508181036000830152612c5b81612c1f565b9050919050565b600060a082019050612c77600083018861205a565b612c84602083018761205a565b8181036040830152612c968186611fda565b90508181036060830152612caa8185611fda565b90508181036080830152612cbe81846129aa565b9050969550505050505056fea264697066735822122060e876e8e17e53c9390cc2bd414f025a8e6efcb4a7fc46f422ec9f118ca4e23b64736f6c6343000812003368747470733a2f2f697066732e696f2f697066732f516d57486f65796166737a6e5136514b71577655555a34736369764b68386a347934504d72796b3277386e4e34722f7b69647d2e6a736f6e",
  "immutableReferences": {},
  "source": "// SPDX-License-Identifier: MIT\r\npragma solidity ^0.8.18;\r\n\r\nimport \"../../node_modules/@openzeppelin/contracts/token/ERC1155/ERC1155.sol\";\r\nimport \"../../node_modules/@openzeppelin/contracts/utils/Counters.sol\";\r\nimport \"../../node_modules/@openzeppelin/contracts/access/Ownable.sol\";\r\n\r\ncontract GuardianStuff is ERC1155, Ownable {\r\n    uint256 private constant HEAD = 10;\r\n    uint256 private constant BODY = 20;\r\n    uint256 private constant WEAPONRIGHT = 30;\r\n    uint256 private constant WEAPONLEFT = 40;\r\n    uint256 private constant HANDS = 50;\r\n    uint256 private constant LOWER = 60;\r\n\r\n    uint256[6] public tokenIds = [\r\n        HEAD,\r\n        BODY,\r\n        WEAPONRIGHT,\r\n        WEAPONLEFT,\r\n        HANDS,\r\n        LOWER\r\n    ];\r\n\r\n    // // Mapping from address to token ID and amount\r\n    // mapping(address => mapping(uint256 => uint256)) public balanceByAddress;\r\n\r\n    constructor()\r\n        ERC1155(\r\n            \"https://ipfs.io/ipfs/QmWHoeyafsznQ6QKqWvUUZ4scivKh8j4y4PMryk2w8nN4r/{id}.json\"\r\n        )\r\n    {}\r\n\r\n    function forgeStuff(address itemOwner) external onlyOwner {\r\n        _mint(itemOwner, 10, 10 ** 2, \"\");\r\n        _mint(itemOwner, 20, 5, \"\");\r\n    }\r\n\r\n    function getTokenIDs() external view returns (uint256[6] memory tokenId) {\r\n        return tokenIds;\r\n    }\r\n}\r\n",
  "sourcePath": "C:\\Users\\Alex\\Documents\\Travail\\Alyra\\NG-Marketplace\\truffle\\contracts\\Forge\\GuardianStuff.sol",
  "compiler": {
    "name": "solc",
    "version": "0.8.18+commit.87f61d96.Emscripten.clang"
  },
  "schemaVersion": "3.4.7",
  "updatedAt": "2023-04-06T20:13:40.725Z",
  "networkType": "ethereum",
  "devdoc": {
    "events": {
      "ApprovalForAll(address,address,bool)": {
        "details": "Emitted when `account` grants or revokes permission to `operator` to transfer their tokens, according to `approved`."
      },
      "TransferBatch(address,address,address,uint256[],uint256[])": {
        "details": "Equivalent to multiple {TransferSingle} events, where `operator`, `from` and `to` are the same for all transfers."
      },
      "TransferSingle(address,address,address,uint256,uint256)": {
        "details": "Emitted when `value` tokens of token type `id` are transferred from `from` to `to` by `operator`."
      },
      "URI(string,uint256)": {
        "details": "Emitted when the URI for token type `id` changes to `value`, if it is a non-programmatic URI. If an {URI} event was emitted for `id`, the standard https://eips.ethereum.org/EIPS/eip-1155#metadata-extensions[guarantees] that `value` will equal the value returned by {IERC1155MetadataURI-uri}."
      }
    },
    "kind": "dev",
    "methods": {
      "balanceOf(address,uint256)": {
        "details": "See {IERC1155-balanceOf}. Requirements: - `account` cannot be the zero address."
      },
      "balanceOfBatch(address[],uint256[])": {
        "details": "See {IERC1155-balanceOfBatch}. Requirements: - `accounts` and `ids` must have the same length."
      },
      "isApprovedForAll(address,address)": {
        "details": "See {IERC1155-isApprovedForAll}."
      },
      "owner()": {
        "details": "Returns the address of the current owner."
      },
      "renounceOwnership()": {
        "details": "Leaves the contract without owner. It will not be possible to call `onlyOwner` functions anymore. Can only be called by the current owner. NOTE: Renouncing ownership will leave the contract without an owner, thereby removing any functionality that is only available to the owner."
      },
      "safeBatchTransferFrom(address,address,uint256[],uint256[],bytes)": {
        "details": "See {IERC1155-safeBatchTransferFrom}."
      },
      "safeTransferFrom(address,address,uint256,uint256,bytes)": {
        "details": "See {IERC1155-safeTransferFrom}."
      },
      "setApprovalForAll(address,bool)": {
        "details": "See {IERC1155-setApprovalForAll}."
      },
      "supportsInterface(bytes4)": {
        "details": "See {IERC165-supportsInterface}."
      },
      "transferOwnership(address)": {
        "details": "Transfers ownership of the contract to a new account (`newOwner`). Can only be called by the current owner."
      },
      "uri(uint256)": {
        "details": "See {IERC1155MetadataURI-uri}. This implementation returns the same URI for *all* token types. It relies on the token type ID substitution mechanism https://eips.ethereum.org/EIPS/eip-1155#metadata[defined in the EIP]. Clients calling this function must replace the `\\{id\\}` substring with the actual token type ID."
      }
    },
    "version": 1
  },
  "userdoc": {
    "kind": "user",
    "methods": {},
    "version": 1
  }
}