{
  "contractName": "GuardianStuff",
  "abi": [
    {
      "inputs": [],
      "stateMutability": "nonpayable",
      "type": "constructor"
    },
    {
      "anonymous": false,
      "inputs": [
        {
          "indexed": true,
          "internalType": "address",
          "name": "account",
          "type": "address"
        },
        {
          "indexed": true,
          "internalType": "address",
          "name": "operator",
          "type": "address"
        },
        {
          "indexed": false,
          "internalType": "bool",
          "name": "approved",
          "type": "bool"
        }
      ],
      "name": "ApprovalForAll",
      "type": "event"
    },
    {
      "anonymous": false,
      "inputs": [
        {
          "indexed": true,
          "internalType": "address",
          "name": "previousOwner",
          "type": "address"
        },
        {
          "indexed": true,
          "internalType": "address",
          "name": "newOwner",
          "type": "address"
        }
      ],
      "name": "OwnershipTransferred",
      "type": "event"
    },
    {
      "anonymous": false,
      "inputs": [
        {
          "indexed": true,
          "internalType": "address",
          "name": "operator",
          "type": "address"
        },
        {
          "indexed": true,
          "internalType": "address",
          "name": "from",
          "type": "address"
        },
        {
          "indexed": true,
          "internalType": "address",
          "name": "to",
          "type": "address"
        },
        {
          "indexed": false,
          "internalType": "uint256[]",
          "name": "ids",
          "type": "uint256[]"
        },
        {
          "indexed": false,
          "internalType": "uint256[]",
          "name": "values",
          "type": "uint256[]"
        }
      ],
      "name": "TransferBatch",
      "type": "event"
    },
    {
      "anonymous": false,
      "inputs": [
        {
          "indexed": true,
          "internalType": "address",
          "name": "operator",
          "type": "address"
        },
        {
          "indexed": true,
          "internalType": "address",
          "name": "from",
          "type": "address"
        },
        {
          "indexed": true,
          "internalType": "address",
          "name": "to",
          "type": "address"
        },
        {
          "indexed": false,
          "internalType": "uint256",
          "name": "id",
          "type": "uint256"
        },
        {
          "indexed": false,
          "internalType": "uint256",
          "name": "value",
          "type": "uint256"
        }
      ],
      "name": "TransferSingle",
      "type": "event"
    },
    {
      "anonymous": false,
      "inputs": [
        {
          "indexed": false,
          "internalType": "string",
          "name": "value",
          "type": "string"
        },
        {
          "indexed": true,
          "internalType": "uint256",
          "name": "id",
          "type": "uint256"
        }
      ],
      "name": "URI",
      "type": "event"
    },
    {
      "inputs": [
        {
          "internalType": "address",
          "name": "account",
          "type": "address"
        },
        {
          "internalType": "uint256",
          "name": "id",
          "type": "uint256"
        }
      ],
      "name": "balanceOf",
      "outputs": [
        {
          "internalType": "uint256",
          "name": "",
          "type": "uint256"
        }
      ],
      "stateMutability": "view",
      "type": "function"
    },
    {
      "inputs": [
        {
          "internalType": "address[]",
          "name": "accounts",
          "type": "address[]"
        },
        {
          "internalType": "uint256[]",
          "name": "ids",
          "type": "uint256[]"
        }
      ],
      "name": "balanceOfBatch",
      "outputs": [
        {
          "internalType": "uint256[]",
          "name": "",
          "type": "uint256[]"
        }
      ],
      "stateMutability": "view",
      "type": "function"
    },
    {
      "inputs": [
        {
          "internalType": "address",
          "name": "account",
          "type": "address"
        },
        {
          "internalType": "address",
          "name": "operator",
          "type": "address"
        }
      ],
      "name": "isApprovedForAll",
      "outputs": [
        {
          "internalType": "bool",
          "name": "",
          "type": "bool"
        }
      ],
      "stateMutability": "view",
      "type": "function"
    },
    {
      "inputs": [],
      "name": "owner",
      "outputs": [
        {
          "internalType": "address",
          "name": "",
          "type": "address"
        }
      ],
      "stateMutability": "view",
      "type": "function"
    },
    {
      "inputs": [],
      "name": "renounceOwnership",
      "outputs": [],
      "stateMutability": "nonpayable",
      "type": "function"
    },
    {
      "inputs": [
        {
          "internalType": "address",
          "name": "from",
          "type": "address"
        },
        {
          "internalType": "address",
          "name": "to",
          "type": "address"
        },
        {
          "internalType": "uint256[]",
          "name": "ids",
          "type": "uint256[]"
        },
        {
          "internalType": "uint256[]",
          "name": "amounts",
          "type": "uint256[]"
        },
        {
          "internalType": "bytes",
          "name": "data",
          "type": "bytes"
        }
      ],
      "name": "safeBatchTransferFrom",
      "outputs": [],
      "stateMutability": "nonpayable",
      "type": "function"
    },
    {
      "inputs": [
        {
          "internalType": "address",
          "name": "from",
          "type": "address"
        },
        {
          "internalType": "address",
          "name": "to",
          "type": "address"
        },
        {
          "internalType": "uint256",
          "name": "id",
          "type": "uint256"
        },
        {
          "internalType": "uint256",
          "name": "amount",
          "type": "uint256"
        },
        {
          "internalType": "bytes",
          "name": "data",
          "type": "bytes"
        }
      ],
      "name": "safeTransferFrom",
      "outputs": [],
      "stateMutability": "nonpayable",
      "type": "function"
    },
    {
      "inputs": [
        {
          "internalType": "address",
          "name": "operator",
          "type": "address"
        },
        {
          "internalType": "bool",
          "name": "approved",
          "type": "bool"
        }
      ],
      "name": "setApprovalForAll",
      "outputs": [],
      "stateMutability": "nonpayable",
      "type": "function"
    },
    {
      "inputs": [
        {
          "internalType": "bytes4",
          "name": "interfaceId",
          "type": "bytes4"
        }
      ],
      "name": "supportsInterface",
      "outputs": [
        {
          "internalType": "bool",
          "name": "",
          "type": "bool"
        }
      ],
      "stateMutability": "view",
      "type": "function"
    },
    {
      "inputs": [
        {
          "internalType": "address",
          "name": "newOwner",
          "type": "address"
        }
      ],
      "name": "transferOwnership",
      "outputs": [],
      "stateMutability": "nonpayable",
      "type": "function"
    },
    {
      "inputs": [
        {
          "internalType": "uint256",
          "name": "",
          "type": "uint256"
        }
      ],
      "name": "uri",
      "outputs": [
        {
          "internalType": "string",
          "name": "",
          "type": "string"
        }
      ],
      "stateMutability": "view",
      "type": "function"
    },
    {
      "inputs": [
        {
          "internalType": "address",
          "name": "itemOwner",
          "type": "address"
        }
      ],
      "name": "forgeStuff",
      "outputs": [],
      "stateMutability": "nonpayable",
      "type": "function"
    },
    {
      "inputs": [],
      "name": "getTokenIDs",
      "outputs": [
        {
          "internalType": "uint256[]",
          "name": "tokenId",
          "type": "uint256[]"
        }
      ],
      "stateMutability": "view",
      "type": "function"
    }
  ],
  "bytecode": "0x60806040523480156200001157600080fd5b506040518060800160405280604d815260200162003245604d91396200003d816200006460201b60201c565b506200005e620000526200007960201b60201c565b6200008160201b60201c565b620004a8565b8060029081620000759190620003c1565b5050565b600033905090565b6000600360009054906101000a900473ffffffffffffffffffffffffffffffffffffffff16905081600360006101000a81548173ffffffffffffffffffffffffffffffffffffffff021916908373ffffffffffffffffffffffffffffffffffffffff1602179055508173ffffffffffffffffffffffffffffffffffffffff168173ffffffffffffffffffffffffffffffffffffffff167f8be0079c531659141344cd1fd0a4f28419497f9722a3daafe3b4186f6b6457e060405160405180910390a35050565b600081519050919050565b7f4e487b7100000000000000000000000000000000000000000000000000000000600052604160045260246000fd5b7f4e487b7100000000000000000000000000000000000000000000000000000000600052602260045260246000fd5b60006002820490506001821680620001c957607f821691505b602082108103620001df57620001de62000181565b5b50919050565b60008190508160005260206000209050919050565b60006020601f8301049050919050565b600082821b905092915050565b600060088302620002497fffffffffffffffffffffffffffffffffffffffffffffffffffffffffffffffff826200020a565b6200025586836200020a565b95508019841693508086168417925050509392505050565b6000819050919050565b6000819050919050565b6000620002a26200029c62000296846200026d565b62000277565b6200026d565b9050919050565b6000819050919050565b620002be8362000281565b620002d6620002cd82620002a9565b84845462000217565b825550505050565b600090565b620002ed620002de565b620002fa818484620002b3565b505050565b5b81811015620003225762000316600082620002e3565b60018101905062000300565b5050565b601f82111562000371576200033b81620001e5565b6200034684620001fa565b8101602085101562000356578190505b6200036e6200036585620001fa565b830182620002ff565b50505b505050565b600082821c905092915050565b6000620003966000198460080262000376565b1980831691505092915050565b6000620003b1838362000383565b9150826002028217905092915050565b620003cc8262000147565b67ffffffffffffffff811115620003e857620003e762000152565b5b620003f48254620001b0565b6200040182828562000326565b600060209050601f83116001811462000439576000841562000424578287015190505b620004308582620003a3565b865550620004a0565b601f1984166200044986620001e5565b60005b8281101562000473578489015182556001820191506020850194506020810190506200044c565b868310156200049357848901516200048f601f89168262000383565b8355505b6001600288020188555050505b505050505050565b612d8d80620004b86000396000f3fe608060405234801561001057600080fd5b50600436106100ce5760003560e01c8063715018a61161008c578063a68d1e1611610066578063a68d1e161461020f578063e985e9c51461022d578063f242432a1461025d578063f2fde38b14610279576100ce565b8063715018a6146101cb5780638da5cb5b146101d5578063a22cb465146101f3576100ce565b8062fdd58e146100d357806301ffc9a71461010357806306f36e87146101335780630e89341c1461014f5780632eb2c2d61461017f5780634e1273f41461019b575b600080fd5b6100ed60048036038101906100e89190611a2c565b610295565b6040516100fa9190611a7b565b60405180910390f35b61011d60048036038101906101189190611aee565b61035d565b60405161012a9190611b36565b60405180910390f35b61014d60048036038101906101489190611b51565b61043f565b005b61016960048036038101906101649190611b7e565b6105e9565b6040516101769190611c3b565b60405180910390f35b61019960048036038101906101949190611e5a565b61067d565b005b6101b560048036038101906101b09190611fec565b61071e565b6040516101c29190612122565b60405180910390f35b6101d3610837565b005b6101dd61084b565b6040516101ea9190612153565b60405180910390f35b61020d6004803603810190610208919061219a565b610875565b005b61021761088b565b6040516102249190612122565b60405180910390f35b610247600480360381019061024291906121da565b6108e3565b6040516102549190611b36565b60405180910390f35b6102776004803603810190610272919061221a565b610977565b005b610293600480360381019061028e9190611b51565b610a18565b005b60008073ffffffffffffffffffffffffffffffffffffffff168373ffffffffffffffffffffffffffffffffffffffff1603610305576040517f08c379a00000000000000000000000000000000000000000000000000000000081526004016102fc90612323565b60405180910390fd5b60008083815260200190815260200160002060008473ffffffffffffffffffffffffffffffffffffffff1673ffffffffffffffffffffffffffffffffffffffff16815260200190815260200160002054905092915050565b60007fd9b67a26000000000000000000000000000000000000000000000000000000007bffffffffffffffffffffffffffffffffffffffffffffffffffffffff1916827bffffffffffffffffffffffffffffffffffffffffffffffffffffffff1916148061042857507f0e89341c000000000000000000000000000000000000000000000000000000007bffffffffffffffffffffffffffffffffffffffffffffffffffffffff1916827bffffffffffffffffffffffffffffffffffffffffffffffffffffffff1916145b80610438575061043782610a9b565b5b9050919050565b600060019050600080600190505b600481116105c2576000810361046257600292505b6000600190505b8381116105ae5760005b600781101561059a5760005b600581101561058657600081600a846104989190612372565b6064866104a59190612372565b6103e8886104b39190612372565b6104bd91906123b4565b6104c791906123b4565b6104d191906123b4565b9050600082036104e657620f4240955061052e565b600182036104f957620186a0955061052d565b6002820361050b57612710955061052c565b6003820361051d576103e8955061052b565b6004820361052a57606495505b5b5b5b5b61054988828860405180602001604052806000815250610b05565b600481908060018154018082558091505060019003906000526020600020016000909190919091505550808061057e906123e8565b91505061047f565b508080610592906123e8565b915050610473565b5080806105a6906123e8565b915050610469565b5080806105ba906123e8565b91505061044d565b506105e483600064e8d4a5100060405180602001604052806000815250610b05565b505050565b6060600280546105f89061245f565b80601f01602080910402602001604051908101604052809291908181526020018280546106249061245f565b80156106715780601f1061064657610100808354040283529160200191610671565b820191906000526020600020905b81548152906001019060200180831161065457829003601f168201915b50505050509050919050565b610685610cb5565b73ffffffffffffffffffffffffffffffffffffffff168573ffffffffffffffffffffffffffffffffffffffff1614806106cb57506106ca856106c5610cb5565b6108e3565b5b61070a576040517f08c379a000000000000000000000000000000000000000000000000000000000815260040161070190612502565b60405180910390fd5b6107178585858585610cbd565b5050505050565b60608151835114610764576040517f08c379a000000000000000000000000000000000000000000000000000000000815260040161075b90612594565b60405180910390fd5b6000835167ffffffffffffffff81111561078157610780611c62565b5b6040519080825280602002602001820160405280156107af5781602001602082028036833780820191505090505b50905060005b845181101561082c576107fc8582815181106107d4576107d36125b4565b5b60200260200101518583815181106107ef576107ee6125b4565b5b6020026020010151610295565b82828151811061080f5761080e6125b4565b5b60200260200101818152505080610825906123e8565b90506107b5565b508091505092915050565b61083f610fde565b610849600061105c565b565b6000600360009054906101000a900473ffffffffffffffffffffffffffffffffffffffff16905090565b610887610880610cb5565b8383611122565b5050565b606060048054806020026020016040519081016040528092919081815260200182805480156108d957602002820191906000526020600020905b8154815260200190600101908083116108c5575b5050505050905090565b6000600160008473ffffffffffffffffffffffffffffffffffffffff1673ffffffffffffffffffffffffffffffffffffffff16815260200190815260200160002060008373ffffffffffffffffffffffffffffffffffffffff1673ffffffffffffffffffffffffffffffffffffffff16815260200190815260200160002060009054906101000a900460ff16905092915050565b61097f610cb5565b73ffffffffffffffffffffffffffffffffffffffff168573ffffffffffffffffffffffffffffffffffffffff1614806109c557506109c4856109bf610cb5565b6108e3565b5b610a04576040517f08c379a00000000000000000000000000000000000000000000000000000000081526004016109fb90612502565b60405180910390fd5b610a11858585858561128e565b5050505050565b610a20610fde565b600073ffffffffffffffffffffffffffffffffffffffff168173ffffffffffffffffffffffffffffffffffffffff1603610a8f576040517f08c379a0000000000000000000000000000000000000000000000000000000008152600401610a8690612655565b60405180910390fd5b610a988161105c565b50565b60007f01ffc9a7000000000000000000000000000000000000000000000000000000007bffffffffffffffffffffffffffffffffffffffffffffffffffffffff1916827bffffffffffffffffffffffffffffffffffffffffffffffffffffffff1916149050919050565b600073ffffffffffffffffffffffffffffffffffffffff168473ffffffffffffffffffffffffffffffffffffffff1603610b74576040517f08c379a0000000000000000000000000000000000000000000000000000000008152600401610b6b906126e7565b60405180910390fd5b6000610b7e610cb5565b90506000610b8b85611529565b90506000610b9885611529565b9050610ba9836000898585896115a3565b8460008088815260200190815260200160002060008973ffffffffffffffffffffffffffffffffffffffff1673ffffffffffffffffffffffffffffffffffffffff1681526020019081526020016000206000828254610c0891906123b4565b925050819055508673ffffffffffffffffffffffffffffffffffffffff16600073ffffffffffffffffffffffffffffffffffffffff168473ffffffffffffffffffffffffffffffffffffffff167fc3d58168c5ae7397731d063d5bbf3d657854427343f4c083240f7aacaa2d0f628989604051610c86929190612707565b60405180910390a4610c9d836000898585896115ab565b610cac836000898989896115b3565b50505050505050565b600033905090565b8151835114610d01576040517f08c379a0000000000000000000000000000000000000000000000000000000008152600401610cf8906127a2565b60405180910390fd5b600073ffffffffffffffffffffffffffffffffffffffff168473ffffffffffffffffffffffffffffffffffffffff1603610d70576040517f08c379a0000000000000000000000000000000000000000000000000000000008152600401610d6790612834565b60405180910390fd5b6000610d7a610cb5565b9050610d8a8187878787876115a3565b60005b8451811015610f3b576000858281518110610dab57610daa6125b4565b5b602002602001015190506000858381518110610dca57610dc96125b4565b5b60200260200101519050600080600084815260200190815260200160002060008b73ffffffffffffffffffffffffffffffffffffffff1673ffffffffffffffffffffffffffffffffffffffff16815260200190815260200160002054905081811015610e6b576040517f08c379a0000000000000000000000000000000000000000000000000000000008152600401610e62906128c6565b60405180910390fd5b81810360008085815260200190815260200160002060008c73ffffffffffffffffffffffffffffffffffffffff1673ffffffffffffffffffffffffffffffffffffffff168152602001908152602001600020819055508160008085815260200190815260200160002060008b73ffffffffffffffffffffffffffffffffffffffff1673ffffffffffffffffffffffffffffffffffffffff1681526020019081526020016000206000828254610f2091906123b4565b9250508190555050505080610f34906123e8565b9050610d8d565b508473ffffffffffffffffffffffffffffffffffffffff168673ffffffffffffffffffffffffffffffffffffffff168273ffffffffffffffffffffffffffffffffffffffff167f4a39dc06d4c0dbc64b70af90fd698a233a518aa5d07e595d983b8c0526c8f7fb8787604051610fb29291906128e6565b60405180910390a4610fc88187878787876115ab565b610fd681878787878761178a565b505050505050565b610fe6610cb5565b73ffffffffffffffffffffffffffffffffffffffff1661100461084b565b73ffffffffffffffffffffffffffffffffffffffff161461105a576040517f08c379a000000000000000000000000000000000000000000000000000000000815260040161105190612969565b60405180910390fd5b565b6000600360009054906101000a900473ffffffffffffffffffffffffffffffffffffffff16905081600360006101000a81548173ffffffffffffffffffffffffffffffffffffffff021916908373ffffffffffffffffffffffffffffffffffffffff1602179055508173ffffffffffffffffffffffffffffffffffffffff168173ffffffffffffffffffffffffffffffffffffffff167f8be0079c531659141344cd1fd0a4f28419497f9722a3daafe3b4186f6b6457e060405160405180910390a35050565b8173ffffffffffffffffffffffffffffffffffffffff168373ffffffffffffffffffffffffffffffffffffffff1603611190576040517f08c379a0000000000000000000000000000000000000000000000000000000008152600401611187906129fb565b60405180910390fd5b80600160008573ffffffffffffffffffffffffffffffffffffffff1673ffffffffffffffffffffffffffffffffffffffff16815260200190815260200160002060008473ffffffffffffffffffffffffffffffffffffffff1673ffffffffffffffffffffffffffffffffffffffff16815260200190815260200160002060006101000a81548160ff0219169083151502179055508173ffffffffffffffffffffffffffffffffffffffff168373ffffffffffffffffffffffffffffffffffffffff167f17307eab39ab6107e8899845ad3d59bd9653f200f220920489ca2b5937696c31836040516112819190611b36565b60405180910390a3505050565b600073ffffffffffffffffffffffffffffffffffffffff168473ffffffffffffffffffffffffffffffffffffffff16036112fd576040517f08c379a00000000000000000000000000000000000000000000000000000000081526004016112f490612834565b60405180910390fd5b6000611307610cb5565b9050600061131485611529565b9050600061132185611529565b90506113318389898585896115a3565b600080600088815260200190815260200160002060008a73ffffffffffffffffffffffffffffffffffffffff1673ffffffffffffffffffffffffffffffffffffffff168152602001908152602001600020549050858110156113c8576040517f08c379a00000000000000000000000000000000000000000000000000000000081526004016113bf906128c6565b60405180910390fd5b85810360008089815260200190815260200160002060008b73ffffffffffffffffffffffffffffffffffffffff1673ffffffffffffffffffffffffffffffffffffffff168152602001908152602001600020819055508560008089815260200190815260200160002060008a73ffffffffffffffffffffffffffffffffffffffff1673ffffffffffffffffffffffffffffffffffffffff168152602001908152602001600020600082825461147d91906123b4565b925050819055508773ffffffffffffffffffffffffffffffffffffffff168973ffffffffffffffffffffffffffffffffffffffff168573ffffffffffffffffffffffffffffffffffffffff167fc3d58168c5ae7397731d063d5bbf3d657854427343f4c083240f7aacaa2d0f628a8a6040516114fa929190612707565b60405180910390a4611510848a8a86868a6115ab565b61151e848a8a8a8a8a6115b3565b505050505050505050565b60606000600167ffffffffffffffff81111561154857611547611c62565b5b6040519080825280602002602001820160405280156115765781602001602082028036833780820191505090505b509050828160008151811061158e5761158d6125b4565b5b60200260200101818152505080915050919050565b505050505050565b505050505050565b6115d28473ffffffffffffffffffffffffffffffffffffffff16611961565b15611782578373ffffffffffffffffffffffffffffffffffffffff1663f23a6e6187878686866040518663ffffffff1660e01b8152600401611618959493929190612a70565b6020604051808303816000875af192505050801561165457506040513d601f19601f820116820180604052508101906116519190612adf565b60015b6116f957611660612b19565b806308c379a0036116bc5750611674612b3b565b8061167f57506116be565b806040517f08c379a00000000000000000000000000000000000000000000000000000000081526004016116b39190611c3b565b60405180910390fd5b505b6040517f08c379a00000000000000000000000000000000000000000000000000000000081526004016116f090612c3d565b60405180910390fd5b63f23a6e6160e01b7bffffffffffffffffffffffffffffffffffffffffffffffffffffffff1916817bffffffffffffffffffffffffffffffffffffffffffffffffffffffff191614611780576040517f08c379a000000000000000000000000000000000000000000000000000000000815260040161177790612ccf565b60405180910390fd5b505b505050505050565b6117a98473ffffffffffffffffffffffffffffffffffffffff16611961565b15611959578373ffffffffffffffffffffffffffffffffffffffff1663bc197c8187878686866040518663ffffffff1660e01b81526004016117ef959493929190612cef565b6020604051808303816000875af192505050801561182b57506040513d601f19601f820116820180604052508101906118289190612adf565b60015b6118d057611837612b19565b806308c379a003611893575061184b612b3b565b806118565750611895565b806040517f08c379a000000000000000000000000000000000000000000000000000000000815260040161188a9190611c3b565b60405180910390fd5b505b6040517f08c379a00000000000000000000000000000000000000000000000000000000081526004016118c790612c3d565b60405180910390fd5b63bc197c8160e01b7bffffffffffffffffffffffffffffffffffffffffffffffffffffffff1916817bffffffffffffffffffffffffffffffffffffffffffffffffffffffff191614611957576040517f08c379a000000000000000000000000000000000000000000000000000000000815260040161194e90612ccf565b60405180910390fd5b505b505050505050565b6000808273ffffffffffffffffffffffffffffffffffffffff163b119050919050565b6000604051905090565b600080fd5b600080fd5b600073ffffffffffffffffffffffffffffffffffffffff82169050919050565b60006119c382611998565b9050919050565b6119d3816119b8565b81146119de57600080fd5b50565b6000813590506119f0816119ca565b92915050565b6000819050919050565b611a09816119f6565b8114611a1457600080fd5b50565b600081359050611a2681611a00565b92915050565b60008060408385031215611a4357611a4261198e565b5b6000611a51858286016119e1565b9250506020611a6285828601611a17565b9150509250929050565b611a75816119f6565b82525050565b6000602082019050611a906000830184611a6c565b92915050565b60007fffffffff0000000000000000000000000000000000000000000000000000000082169050919050565b611acb81611a96565b8114611ad657600080fd5b50565b600081359050611ae881611ac2565b92915050565b600060208284031215611b0457611b0361198e565b5b6000611b1284828501611ad9565b91505092915050565b60008115159050919050565b611b3081611b1b565b82525050565b6000602082019050611b4b6000830184611b27565b92915050565b600060208284031215611b6757611b6661198e565b5b6000611b75848285016119e1565b91505092915050565b600060208284031215611b9457611b9361198e565b5b6000611ba284828501611a17565b91505092915050565b600081519050919050565b600082825260208201905092915050565b60005b83811015611be5578082015181840152602081019050611bca565b60008484015250505050565b6000601f19601f8301169050919050565b6000611c0d82611bab565b611c178185611bb6565b9350611c27818560208601611bc7565b611c3081611bf1565b840191505092915050565b60006020820190508181036000830152611c558184611c02565b905092915050565b600080fd5b7f4e487b7100000000000000000000000000000000000000000000000000000000600052604160045260246000fd5b611c9a82611bf1565b810181811067ffffffffffffffff82111715611cb957611cb8611c62565b5b80604052505050565b6000611ccc611984565b9050611cd88282611c91565b919050565b600067ffffffffffffffff821115611cf857611cf7611c62565b5b602082029050602081019050919050565b600080fd5b6000611d21611d1c84611cdd565b611cc2565b90508083825260208201905060208402830185811115611d4457611d43611d09565b5b835b81811015611d6d5780611d598882611a17565b845260208401935050602081019050611d46565b5050509392505050565b600082601f830112611d8c57611d8b611c5d565b5b8135611d9c848260208601611d0e565b91505092915050565b600080fd5b600067ffffffffffffffff821115611dc557611dc4611c62565b5b611dce82611bf1565b9050602081019050919050565b82818337600083830152505050565b6000611dfd611df884611daa565b611cc2565b905082815260208101848484011115611e1957611e18611da5565b5b611e24848285611ddb565b509392505050565b600082601f830112611e4157611e40611c5d565b5b8135611e51848260208601611dea565b91505092915050565b600080600080600060a08688031215611e7657611e7561198e565b5b6000611e84888289016119e1565b9550506020611e95888289016119e1565b945050604086013567ffffffffffffffff811115611eb657611eb5611993565b5b611ec288828901611d77565b935050606086013567ffffffffffffffff811115611ee357611ee2611993565b5b611eef88828901611d77565b925050608086013567ffffffffffffffff811115611f1057611f0f611993565b5b611f1c88828901611e2c565b9150509295509295909350565b600067ffffffffffffffff821115611f4457611f43611c62565b5b602082029050602081019050919050565b6000611f68611f6384611f29565b611cc2565b90508083825260208201905060208402830185811115611f8b57611f8a611d09565b5b835b81811015611fb45780611fa088826119e1565b845260208401935050602081019050611f8d565b5050509392505050565b600082601f830112611fd357611fd2611c5d565b5b8135611fe3848260208601611f55565b91505092915050565b600080604083850312156120035761200261198e565b5b600083013567ffffffffffffffff81111561202157612020611993565b5b61202d85828601611fbe565b925050602083013567ffffffffffffffff81111561204e5761204d611993565b5b61205a85828601611d77565b9150509250929050565b600081519050919050565b600082825260208201905092915050565b6000819050602082019050919050565b612099816119f6565b82525050565b60006120ab8383612090565b60208301905092915050565b6000602082019050919050565b60006120cf82612064565b6120d9818561206f565b93506120e483612080565b8060005b838110156121155781516120fc888261209f565b9750612107836120b7565b9250506001810190506120e8565b5085935050505092915050565b6000602082019050818103600083015261213c81846120c4565b905092915050565b61214d816119b8565b82525050565b60006020820190506121686000830184612144565b92915050565b61217781611b1b565b811461218257600080fd5b50565b6000813590506121948161216e565b92915050565b600080604083850312156121b1576121b061198e565b5b60006121bf858286016119e1565b92505060206121d085828601612185565b9150509250929050565b600080604083850312156121f1576121f061198e565b5b60006121ff858286016119e1565b9250506020612210858286016119e1565b9150509250929050565b600080600080600060a086880312156122365761223561198e565b5b6000612244888289016119e1565b9550506020612255888289016119e1565b945050604061226688828901611a17565b935050606061227788828901611a17565b925050608086013567ffffffffffffffff81111561229857612297611993565b5b6122a488828901611e2c565b9150509295509295909350565b7f455243313135353a2061646472657373207a65726f206973206e6f742061207660008201527f616c6964206f776e657200000000000000000000000000000000000000000000602082015250565b600061230d602a83611bb6565b9150612318826122b1565b604082019050919050565b6000602082019050818103600083015261233c81612300565b9050919050565b7f4e487b7100000000000000000000000000000000000000000000000000000000600052601160045260246000fd5b600061237d826119f6565b9150612388836119f6565b9250828202612396816119f6565b915082820484148315176123ad576123ac612343565b5b5092915050565b60006123bf826119f6565b91506123ca836119f6565b92508282019050808211156123e2576123e1612343565b5b92915050565b60006123f3826119f6565b91507fffffffffffffffffffffffffffffffffffffffffffffffffffffffffffffffff820361242557612424612343565b5b600182019050919050565b7f4e487b7100000000000000000000000000000000000000000000000000000000600052602260045260246000fd5b6000600282049050600182168061247757607f821691505b60208210810361248a57612489612430565b5b50919050565b7f455243313135353a2063616c6c6572206973206e6f7420746f6b656e206f776e60008201527f6572206f7220617070726f766564000000000000000000000000000000000000602082015250565b60006124ec602e83611bb6565b91506124f782612490565b604082019050919050565b6000602082019050818103600083015261251b816124df565b9050919050565b7f455243313135353a206163636f756e747320616e6420696473206c656e67746860008201527f206d69736d617463680000000000000000000000000000000000000000000000602082015250565b600061257e602983611bb6565b915061258982612522565b604082019050919050565b600060208201905081810360008301526125ad81612571565b9050919050565b7f4e487b7100000000000000000000000000000000000000000000000000000000600052603260045260246000fd5b7f4f776e61626c653a206e6577206f776e657220697320746865207a65726f206160008201527f6464726573730000000000000000000000000000000000000000000000000000602082015250565b600061263f602683611bb6565b915061264a826125e3565b604082019050919050565b6000602082019050818103600083015261266e81612632565b9050919050565b7f455243313135353a206d696e7420746f20746865207a65726f2061646472657360008201527f7300000000000000000000000000000000000000000000000000000000000000602082015250565b60006126d1602183611bb6565b91506126dc82612675565b604082019050919050565b60006020820190508181036000830152612700816126c4565b9050919050565b600060408201905061271c6000830185611a6c565b6127296020830184611a6c565b9392505050565b7f455243313135353a2069647320616e6420616d6f756e7473206c656e6774682060008201527f6d69736d61746368000000000000000000000000000000000000000000000000602082015250565b600061278c602883611bb6565b915061279782612730565b604082019050919050565b600060208201905081810360008301526127bb8161277f565b9050919050565b7f455243313135353a207472616e7366657220746f20746865207a65726f20616460008201527f6472657373000000000000000000000000000000000000000000000000000000602082015250565b600061281e602583611bb6565b9150612829826127c2565b604082019050919050565b6000602082019050818103600083015261284d81612811565b9050919050565b7f455243313135353a20696e73756666696369656e742062616c616e636520666f60008201527f72207472616e7366657200000000000000000000000000000000000000000000602082015250565b60006128b0602a83611bb6565b91506128bb82612854565b604082019050919050565b600060208201905081810360008301526128df816128a3565b9050919050565b6000604082019050818103600083015261290081856120c4565b9050818103602083015261291481846120c4565b90509392505050565b7f4f776e61626c653a2063616c6c6572206973206e6f7420746865206f776e6572600082015250565b6000612953602083611bb6565b915061295e8261291d565b602082019050919050565b6000602082019050818103600083015261298281612946565b9050919050565b7f455243313135353a2073657474696e6720617070726f76616c2073746174757360008201527f20666f722073656c660000000000000000000000000000000000000000000000602082015250565b60006129e5602983611bb6565b91506129f082612989565b604082019050919050565b60006020820190508181036000830152612a14816129d8565b9050919050565b600081519050919050565b600082825260208201905092915050565b6000612a4282612a1b565b612a4c8185612a26565b9350612a5c818560208601611bc7565b612a6581611bf1565b840191505092915050565b600060a082019050612a856000830188612144565b612a926020830187612144565b612a9f6040830186611a6c565b612aac6060830185611a6c565b8181036080830152612abe8184612a37565b90509695505050505050565b600081519050612ad981611ac2565b92915050565b600060208284031215612af557612af461198e565b5b6000612b0384828501612aca565b91505092915050565b60008160e01c9050919050565b600060033d1115612b385760046000803e612b35600051612b0c565b90505b90565b600060443d10612bc857612b4d611984565b60043d036004823e80513d602482011167ffffffffffffffff82111715612b75575050612bc8565b808201805167ffffffffffffffff811115612b935750505050612bc8565b80602083010160043d038501811115612bb0575050505050612bc8565b612bbf82602001850186611c91565b82955050505050505b90565b7f455243313135353a207472616e7366657220746f206e6f6e2d4552433131353560008201527f526563656976657220696d706c656d656e746572000000000000000000000000602082015250565b6000612c27603483611bb6565b9150612c3282612bcb565b604082019050919050565b60006020820190508181036000830152612c5681612c1a565b9050919050565b7f455243313135353a204552433131353552656365697665722072656a6563746560008201527f6420746f6b656e73000000000000000000000000000000000000000000000000602082015250565b6000612cb9602883611bb6565b9150612cc482612c5d565b604082019050919050565b60006020820190508181036000830152612ce881612cac565b9050919050565b600060a082019050612d046000830188612144565b612d116020830187612144565b8181036040830152612d2381866120c4565b90508181036060830152612d3781856120c4565b90508181036080830152612d4b8184612a37565b9050969550505050505056fea2646970667358221220471a6997ebea614d23daa21f4edae61eb9afd734be6b27655c94121112259b8064736f6c6343000812003368747470733a2f2f697066732e696f2f697066732f516d5a576a4c53347a446a5a364336345a65534b486b746364316a5275716e51507832676a3741716a46535532642f7b69647d2e6a736f6e",
  "immutableReferences": {},
  "source": "// SPDX-License-Identifier: MIT\r\npragma solidity ^0.8.18;\r\n\r\nimport \"../../node_modules/@openzeppelin/contracts/token/ERC1155/ERC1155.sol\";\r\nimport \"../../node_modules/@openzeppelin/contracts/utils/Counters.sol\";\r\nimport \"../../node_modules/@openzeppelin/contracts/access/Ownable.sol\";\r\n\r\ncontract GuardianStuff is ERC1155, Ownable {\r\n    uint256[] private _itemIDs;\r\n\r\n    constructor()\r\n        ERC1155(\r\n            \"https://ipfs.io/ipfs/QmZWjLS4zDjZ6C64ZeSKHktcd1jRuqnQPx2gj7AqjFSU2d/{id}.json\"\r\n        )\r\n    {}\r\n\r\n    function forgeStuff(address itemOwner) external {\r\n        uint setCount = 1;\r\n        uint256 supply;\r\n\r\n        // Class: knight, mage, rogue\r\n        for (uint class = 1; class <= 4; class++) {\r\n            // There is 2 sets of armor for the knight class\r\n            if (class == 0) {\r\n                setCount = 2;\r\n            }\r\n\r\n            // Armor set\r\n            for (uint set = 1; set <= setCount; set++) {\r\n                // Armor parts: head, body, legs, hands, weapon right, weapon left\r\n                for (uint part = 0; part < 7; part++) {\r\n                    // Item rarity: Common, uncommon, rare, epic, legendary\r\n                    for (uint rarity = 0; rarity < 5; rarity++) {\r\n                        uint itemID = (class * 1000) +\r\n                            (set * 100) +\r\n                            (part * 10) +\r\n                            (rarity);\r\n\r\n                        if (rarity == 0) {\r\n                            supply = 10 ** 6;\r\n                        } else if (rarity == 1) {\r\n                            supply = 10 ** 5;\r\n                        } else if (rarity == 2) {\r\n                            supply = 10 ** 4;\r\n                        } else if (rarity == 3) {\r\n                            supply = 10 ** 3;\r\n                        } else if (rarity == 4) {\r\n                            supply = 10 ** 2;\r\n                        }\r\n\r\n                        _mint(itemOwner, itemID, supply, \"\");\r\n                        _itemIDs.push(itemID);\r\n                    }\r\n                }\r\n            }\r\n        }\r\n\r\n        // Chests - TODO: calculate in function of the item supply and the number of item in a chest\r\n        _mint(itemOwner, 0, 10 ** 12, \"\");\r\n    }\r\n\r\n    function getTokenIDs() external view returns (uint256[] memory tokenId) {\r\n        return _itemIDs;\r\n    }\r\n}\r\n",
  "sourcePath": "C:\\Users\\Alex\\Documents\\Travail\\Alyra\\NG-Marketplace\\truffle\\contracts\\Forge\\GuardianStuff.sol",
  "compiler": {
    "name": "solc",
    "version": "0.8.18+commit.87f61d96.Emscripten.clang"
  },
  "schemaVersion": "3.4.7",
  "updatedAt": "2023-04-07T21:30:38.370Z",
  "devdoc": {
    "events": {
      "ApprovalForAll(address,address,bool)": {
        "details": "Emitted when `account` grants or revokes permission to `operator` to transfer their tokens, according to `approved`."
      },
      "TransferBatch(address,address,address,uint256[],uint256[])": {
        "details": "Equivalent to multiple {TransferSingle} events, where `operator`, `from` and `to` are the same for all transfers."
      },
      "TransferSingle(address,address,address,uint256,uint256)": {
        "details": "Emitted when `value` tokens of token type `id` are transferred from `from` to `to` by `operator`."
      },
      "URI(string,uint256)": {
        "details": "Emitted when the URI for token type `id` changes to `value`, if it is a non-programmatic URI. If an {URI} event was emitted for `id`, the standard https://eips.ethereum.org/EIPS/eip-1155#metadata-extensions[guarantees] that `value` will equal the value returned by {IERC1155MetadataURI-uri}."
      }
    },
    "kind": "dev",
    "methods": {
      "balanceOf(address,uint256)": {
        "details": "See {IERC1155-balanceOf}. Requirements: - `account` cannot be the zero address."
      },
      "balanceOfBatch(address[],uint256[])": {
        "details": "See {IERC1155-balanceOfBatch}. Requirements: - `accounts` and `ids` must have the same length."
      },
      "isApprovedForAll(address,address)": {
        "details": "See {IERC1155-isApprovedForAll}."
      },
      "owner()": {
        "details": "Returns the address of the current owner."
      },
      "renounceOwnership()": {
        "details": "Leaves the contract without owner. It will not be possible to call `onlyOwner` functions anymore. Can only be called by the current owner. NOTE: Renouncing ownership will leave the contract without an owner, thereby removing any functionality that is only available to the owner."
      },
      "safeBatchTransferFrom(address,address,uint256[],uint256[],bytes)": {
        "details": "See {IERC1155-safeBatchTransferFrom}."
      },
      "safeTransferFrom(address,address,uint256,uint256,bytes)": {
        "details": "See {IERC1155-safeTransferFrom}."
      },
      "setApprovalForAll(address,bool)": {
        "details": "See {IERC1155-setApprovalForAll}."
      },
      "supportsInterface(bytes4)": {
        "details": "See {IERC165-supportsInterface}."
      },
      "transferOwnership(address)": {
        "details": "Transfers ownership of the contract to a new account (`newOwner`). Can only be called by the current owner."
      },
      "uri(uint256)": {
        "details": "See {IERC1155MetadataURI-uri}. This implementation returns the same URI for *all* token types. It relies on the token type ID substitution mechanism https://eips.ethereum.org/EIPS/eip-1155#metadata[defined in the EIP]. Clients calling this function must replace the `\\{id\\}` substring with the actual token type ID."
      }
    },
    "version": 1
  },
  "userdoc": {
    "kind": "user",
    "methods": {},
    "version": 1
  }
}