{
  "contractName": "GuardianStuff",
  "abi": [
    {
      "inputs": [],
      "stateMutability": "nonpayable",
      "type": "constructor"
    },
    {
      "anonymous": false,
      "inputs": [
        {
          "indexed": true,
          "internalType": "address",
          "name": "account",
          "type": "address"
        },
        {
          "indexed": true,
          "internalType": "address",
          "name": "operator",
          "type": "address"
        },
        {
          "indexed": false,
          "internalType": "bool",
          "name": "approved",
          "type": "bool"
        }
      ],
      "name": "ApprovalForAll",
      "type": "event"
    },
    {
      "anonymous": false,
      "inputs": [
        {
          "indexed": true,
          "internalType": "address",
          "name": "previousOwner",
          "type": "address"
        },
        {
          "indexed": true,
          "internalType": "address",
          "name": "newOwner",
          "type": "address"
        }
      ],
      "name": "OwnershipTransferred",
      "type": "event"
    },
    {
      "anonymous": false,
      "inputs": [
        {
          "indexed": true,
          "internalType": "address",
          "name": "operator",
          "type": "address"
        },
        {
          "indexed": true,
          "internalType": "address",
          "name": "from",
          "type": "address"
        },
        {
          "indexed": true,
          "internalType": "address",
          "name": "to",
          "type": "address"
        },
        {
          "indexed": false,
          "internalType": "uint256[]",
          "name": "ids",
          "type": "uint256[]"
        },
        {
          "indexed": false,
          "internalType": "uint256[]",
          "name": "values",
          "type": "uint256[]"
        }
      ],
      "name": "TransferBatch",
      "type": "event"
    },
    {
      "anonymous": false,
      "inputs": [
        {
          "indexed": true,
          "internalType": "address",
          "name": "operator",
          "type": "address"
        },
        {
          "indexed": true,
          "internalType": "address",
          "name": "from",
          "type": "address"
        },
        {
          "indexed": true,
          "internalType": "address",
          "name": "to",
          "type": "address"
        },
        {
          "indexed": false,
          "internalType": "uint256",
          "name": "id",
          "type": "uint256"
        },
        {
          "indexed": false,
          "internalType": "uint256",
          "name": "value",
          "type": "uint256"
        }
      ],
      "name": "TransferSingle",
      "type": "event"
    },
    {
      "anonymous": false,
      "inputs": [
        {
          "indexed": false,
          "internalType": "string",
          "name": "value",
          "type": "string"
        },
        {
          "indexed": true,
          "internalType": "uint256",
          "name": "id",
          "type": "uint256"
        }
      ],
      "name": "URI",
      "type": "event"
    },
    {
      "inputs": [
        {
          "internalType": "address",
          "name": "account",
          "type": "address"
        },
        {
          "internalType": "uint256",
          "name": "id",
          "type": "uint256"
        }
      ],
      "name": "balanceOf",
      "outputs": [
        {
          "internalType": "uint256",
          "name": "",
          "type": "uint256"
        }
      ],
      "stateMutability": "view",
      "type": "function"
    },
    {
      "inputs": [
        {
          "internalType": "address[]",
          "name": "accounts",
          "type": "address[]"
        },
        {
          "internalType": "uint256[]",
          "name": "ids",
          "type": "uint256[]"
        }
      ],
      "name": "balanceOfBatch",
      "outputs": [
        {
          "internalType": "uint256[]",
          "name": "",
          "type": "uint256[]"
        }
      ],
      "stateMutability": "view",
      "type": "function"
    },
    {
      "inputs": [],
      "name": "chestItemID",
      "outputs": [
        {
          "internalType": "uint8",
          "name": "",
          "type": "uint8"
        }
      ],
      "stateMutability": "view",
      "type": "function"
    },
    {
      "inputs": [
        {
          "internalType": "address",
          "name": "account",
          "type": "address"
        },
        {
          "internalType": "address",
          "name": "operator",
          "type": "address"
        }
      ],
      "name": "isApprovedForAll",
      "outputs": [
        {
          "internalType": "bool",
          "name": "",
          "type": "bool"
        }
      ],
      "stateMutability": "view",
      "type": "function"
    },
    {
      "inputs": [],
      "name": "owner",
      "outputs": [
        {
          "internalType": "address",
          "name": "",
          "type": "address"
        }
      ],
      "stateMutability": "view",
      "type": "function"
    },
    {
      "inputs": [],
      "name": "renounceOwnership",
      "outputs": [],
      "stateMutability": "nonpayable",
      "type": "function"
    },
    {
      "inputs": [
        {
          "internalType": "address",
          "name": "from",
          "type": "address"
        },
        {
          "internalType": "address",
          "name": "to",
          "type": "address"
        },
        {
          "internalType": "uint256[]",
          "name": "ids",
          "type": "uint256[]"
        },
        {
          "internalType": "uint256[]",
          "name": "amounts",
          "type": "uint256[]"
        },
        {
          "internalType": "bytes",
          "name": "data",
          "type": "bytes"
        }
      ],
      "name": "safeBatchTransferFrom",
      "outputs": [],
      "stateMutability": "nonpayable",
      "type": "function"
    },
    {
      "inputs": [
        {
          "internalType": "address",
          "name": "from",
          "type": "address"
        },
        {
          "internalType": "address",
          "name": "to",
          "type": "address"
        },
        {
          "internalType": "uint256",
          "name": "id",
          "type": "uint256"
        },
        {
          "internalType": "uint256",
          "name": "amount",
          "type": "uint256"
        },
        {
          "internalType": "bytes",
          "name": "data",
          "type": "bytes"
        }
      ],
      "name": "safeTransferFrom",
      "outputs": [],
      "stateMutability": "nonpayable",
      "type": "function"
    },
    {
      "inputs": [
        {
          "internalType": "address",
          "name": "operator",
          "type": "address"
        },
        {
          "internalType": "bool",
          "name": "approved",
          "type": "bool"
        }
      ],
      "name": "setApprovalForAll",
      "outputs": [],
      "stateMutability": "nonpayable",
      "type": "function"
    },
    {
      "inputs": [
        {
          "internalType": "bytes4",
          "name": "interfaceId",
          "type": "bytes4"
        }
      ],
      "name": "supportsInterface",
      "outputs": [
        {
          "internalType": "bool",
          "name": "",
          "type": "bool"
        }
      ],
      "stateMutability": "view",
      "type": "function"
    },
    {
      "inputs": [
        {
          "internalType": "address",
          "name": "newOwner",
          "type": "address"
        }
      ],
      "name": "transferOwnership",
      "outputs": [],
      "stateMutability": "nonpayable",
      "type": "function"
    },
    {
      "inputs": [
        {
          "internalType": "uint256",
          "name": "",
          "type": "uint256"
        }
      ],
      "name": "uri",
      "outputs": [
        {
          "internalType": "string",
          "name": "",
          "type": "string"
        }
      ],
      "stateMutability": "view",
      "type": "function"
    },
    {
      "inputs": [
        {
          "internalType": "address",
          "name": "itemOwner",
          "type": "address"
        }
      ],
      "name": "forgeStuff",
      "outputs": [],
      "stateMutability": "nonpayable",
      "type": "function"
    },
    {
      "inputs": [
        {
          "internalType": "address",
          "name": "itemOwner",
          "type": "address"
        }
      ],
      "name": "forgeChests",
      "outputs": [],
      "stateMutability": "nonpayable",
      "type": "function"
    },
    {
      "inputs": [],
      "name": "getItemIDs",
      "outputs": [
        {
          "internalType": "uint256[]",
          "name": "itemIDs",
          "type": "uint256[]"
        }
      ],
      "stateMutability": "view",
      "type": "function"
    }
  ],
  "bytecode": "0x60806040526000600560006101000a81548160ff021916908360ff1602179055503480156200002d57600080fd5b506040518060800160405280604d815260200162003316604d913962000059816200008060201b60201c565b506200007a6200006e6200009560201b60201c565b6200009d60201b60201c565b620004c4565b8060029081620000919190620003dd565b5050565b600033905090565b6000600360009054906101000a900473ffffffffffffffffffffffffffffffffffffffff16905081600360006101000a81548173ffffffffffffffffffffffffffffffffffffffff021916908373ffffffffffffffffffffffffffffffffffffffff1602179055508173ffffffffffffffffffffffffffffffffffffffff168173ffffffffffffffffffffffffffffffffffffffff167f8be0079c531659141344cd1fd0a4f28419497f9722a3daafe3b4186f6b6457e060405160405180910390a35050565b600081519050919050565b7f4e487b7100000000000000000000000000000000000000000000000000000000600052604160045260246000fd5b7f4e487b7100000000000000000000000000000000000000000000000000000000600052602260045260246000fd5b60006002820490506001821680620001e557607f821691505b602082108103620001fb57620001fa6200019d565b5b50919050565b60008190508160005260206000209050919050565b60006020601f8301049050919050565b600082821b905092915050565b600060088302620002657fffffffffffffffffffffffffffffffffffffffffffffffffffffffffffffffff8262000226565b62000271868362000226565b95508019841693508086168417925050509392505050565b6000819050919050565b6000819050919050565b6000620002be620002b8620002b28462000289565b62000293565b62000289565b9050919050565b6000819050919050565b620002da836200029d565b620002f2620002e982620002c5565b84845462000233565b825550505050565b600090565b62000309620002fa565b62000316818484620002cf565b505050565b5b818110156200033e5762000332600082620002ff565b6001810190506200031c565b5050565b601f8211156200038d57620003578162000201565b620003628462000216565b8101602085101562000372578190505b6200038a620003818562000216565b8301826200031b565b50505b505050565b600082821c905092915050565b6000620003b26000198460080262000392565b1980831691505092915050565b6000620003cd83836200039f565b9150826002028217905092915050565b620003e88262000163565b67ffffffffffffffff8111156200040457620004036200016e565b5b620004108254620001cc565b6200041d82828562000342565b600060209050601f83116001811462000455576000841562000440578287015190505b6200044c8582620003bf565b865550620004bc565b601f198416620004658662000201565b60005b828110156200048f5784890151825560018201915060208501945060208101905062000468565b86831015620004af5784890151620004ab601f8916826200039f565b8355505b6001600288020188555050505b505050505050565b612e4280620004d46000396000f3fe608060405234801561001057600080fd5b50600436106100f45760003560e01c8063715018a611610097578063e985e9c511610066578063e985e9c51461026f578063ea2a17301461029f578063f242432a146102bd578063f2fde38b146102d9576100f4565b8063715018a61461020d5780638da5cb5b14610217578063a22cb46514610235578063ab2da89914610251576100f4565b80630e89341c116100d35780630e89341c146101755780632eb2c2d6146101a557806344dfb6bc146101c15780634e1273f4146101dd576100f4565b8062fdd58e146100f957806301ffc9a71461012957806306f36e8714610159575b600080fd5b610113600480360381019061010e9190611aaa565b6102f5565b6040516101209190611af9565b60405180910390f35b610143600480360381019061013e9190611b6c565b6103bd565b6040516101509190611bb4565b60405180910390f35b610173600480360381019061016e9190611bcf565b61049f565b005b61018f600480360381019061018a9190611bfc565b61061f565b60405161019c9190611cb9565b60405180910390f35b6101bf60048036038101906101ba9190611ed8565b6106b3565b005b6101db60048036038101906101d69190611bcf565b610754565b005b6101f760048036038101906101f2919061206a565b610789565b60405161020491906121a0565b60405180910390f35b6102156108a2565b005b61021f6108b6565b60405161022c91906121d1565b60405180910390f35b61024f600480360381019061024a9190612218565b6108e0565b005b6102596108f6565b60405161026691906121a0565b60405180910390f35b61028960048036038101906102849190612258565b61094e565b6040516102969190611bb4565b60405180910390f35b6102a76109e2565b6040516102b491906122b4565b60405180910390f35b6102d760048036038101906102d291906122cf565b6109f5565b005b6102f360048036038101906102ee9190611bcf565b610a96565b005b60008073ffffffffffffffffffffffffffffffffffffffff168373ffffffffffffffffffffffffffffffffffffffff1603610365576040517f08c379a000000000000000000000000000000000000000000000000000000000815260040161035c906123d8565b60405180910390fd5b60008083815260200190815260200160002060008473ffffffffffffffffffffffffffffffffffffffff1673ffffffffffffffffffffffffffffffffffffffff16815260200190815260200160002054905092915050565b60007fd9b67a26000000000000000000000000000000000000000000000000000000007bffffffffffffffffffffffffffffffffffffffffffffffffffffffff1916827bffffffffffffffffffffffffffffffffffffffffffffffffffffffff1916148061048857507f0e89341c000000000000000000000000000000000000000000000000000000007bffffffffffffffffffffffffffffffffffffffffffffffffffffffff1916827bffffffffffffffffffffffffffffffffffffffffffffffffffffffff1916145b80610498575061049782610b19565b5b9050919050565b600060019050600080600190505b60018111610619576000600190505b838111610605576000600190505b60078110156105f15760005b60058110156105dd57600081600a846104ef9190612427565b6064866104fc9190612427565b6103e88861050a9190612427565b6105149190612469565b61051e9190612469565b6105289190612469565b90506000820361053d57620f42409550610585565b6001820361055057620186a09550610584565b60028203610562576127109550610583565b60038203610574576103e89550610582565b6004820361058157606495505b5b5b5b5b6105a088828860405180602001604052806000815250610b83565b60048190806001815401808255809150506001900390600052602060002001600090919091909150555080806105d59061249d565b9150506104d6565b5080806105e99061249d565b9150506104ca565b5080806105fd9061249d565b9150506104bc565b5080806106119061249d565b9150506104ad565b50505050565b60606002805461062e90612514565b80601f016020809104026020016040519081016040528092919081815260200182805461065a90612514565b80156106a75780601f1061067c576101008083540402835291602001916106a7565b820191906000526020600020905b81548152906001019060200180831161068a57829003601f168201915b50505050509050919050565b6106bb610d33565b73ffffffffffffffffffffffffffffffffffffffff168573ffffffffffffffffffffffffffffffffffffffff1614806107015750610700856106fb610d33565b61094e565b5b610740576040517f08c379a0000000000000000000000000000000000000000000000000000000008152600401610737906125b7565b60405180910390fd5b61074d8585858585610d3b565b5050505050565b61078681600560009054906101000a900460ff1660ff1664e8d4a5100060405180602001604052806000815250610b83565b50565b606081518351146107cf576040517f08c379a00000000000000000000000000000000000000000000000000000000081526004016107c690612649565b60405180910390fd5b6000835167ffffffffffffffff8111156107ec576107eb611ce0565b5b60405190808252806020026020018201604052801561081a5781602001602082028036833780820191505090505b50905060005b84518110156108975761086785828151811061083f5761083e612669565b5b602002602001015185838151811061085a57610859612669565b5b60200260200101516102f5565b82828151811061087a57610879612669565b5b602002602001018181525050806108909061249d565b9050610820565b508091505092915050565b6108aa61105c565b6108b460006110da565b565b6000600360009054906101000a900473ffffffffffffffffffffffffffffffffffffffff16905090565b6108f26108eb610d33565b83836111a0565b5050565b6060600480548060200260200160405190810160405280929190818152602001828054801561094457602002820191906000526020600020905b815481526020019060010190808311610930575b5050505050905090565b6000600160008473ffffffffffffffffffffffffffffffffffffffff1673ffffffffffffffffffffffffffffffffffffffff16815260200190815260200160002060008373ffffffffffffffffffffffffffffffffffffffff1673ffffffffffffffffffffffffffffffffffffffff16815260200190815260200160002060009054906101000a900460ff16905092915050565b600560009054906101000a900460ff1681565b6109fd610d33565b73ffffffffffffffffffffffffffffffffffffffff168573ffffffffffffffffffffffffffffffffffffffff161480610a435750610a4285610a3d610d33565b61094e565b5b610a82576040517f08c379a0000000000000000000000000000000000000000000000000000000008152600401610a79906125b7565b60405180910390fd5b610a8f858585858561130c565b5050505050565b610a9e61105c565b600073ffffffffffffffffffffffffffffffffffffffff168173ffffffffffffffffffffffffffffffffffffffff1603610b0d576040517f08c379a0000000000000000000000000000000000000000000000000000000008152600401610b049061270a565b60405180910390fd5b610b16816110da565b50565b60007f01ffc9a7000000000000000000000000000000000000000000000000000000007bffffffffffffffffffffffffffffffffffffffffffffffffffffffff1916827bffffffffffffffffffffffffffffffffffffffffffffffffffffffff1916149050919050565b600073ffffffffffffffffffffffffffffffffffffffff168473ffffffffffffffffffffffffffffffffffffffff1603610bf2576040517f08c379a0000000000000000000000000000000000000000000000000000000008152600401610be99061279c565b60405180910390fd5b6000610bfc610d33565b90506000610c09856115a7565b90506000610c16856115a7565b9050610c2783600089858589611621565b8460008088815260200190815260200160002060008973ffffffffffffffffffffffffffffffffffffffff1673ffffffffffffffffffffffffffffffffffffffff1681526020019081526020016000206000828254610c869190612469565b925050819055508673ffffffffffffffffffffffffffffffffffffffff16600073ffffffffffffffffffffffffffffffffffffffff168473ffffffffffffffffffffffffffffffffffffffff167fc3d58168c5ae7397731d063d5bbf3d657854427343f4c083240f7aacaa2d0f628989604051610d049291906127bc565b60405180910390a4610d1b83600089858589611629565b610d2a83600089898989611631565b50505050505050565b600033905090565b8151835114610d7f576040517f08c379a0000000000000000000000000000000000000000000000000000000008152600401610d7690612857565b60405180910390fd5b600073ffffffffffffffffffffffffffffffffffffffff168473ffffffffffffffffffffffffffffffffffffffff1603610dee576040517f08c379a0000000000000000000000000000000000000000000000000000000008152600401610de5906128e9565b60405180910390fd5b6000610df8610d33565b9050610e08818787878787611621565b60005b8451811015610fb9576000858281518110610e2957610e28612669565b5b602002602001015190506000858381518110610e4857610e47612669565b5b60200260200101519050600080600084815260200190815260200160002060008b73ffffffffffffffffffffffffffffffffffffffff1673ffffffffffffffffffffffffffffffffffffffff16815260200190815260200160002054905081811015610ee9576040517f08c379a0000000000000000000000000000000000000000000000000000000008152600401610ee09061297b565b60405180910390fd5b81810360008085815260200190815260200160002060008c73ffffffffffffffffffffffffffffffffffffffff1673ffffffffffffffffffffffffffffffffffffffff168152602001908152602001600020819055508160008085815260200190815260200160002060008b73ffffffffffffffffffffffffffffffffffffffff1673ffffffffffffffffffffffffffffffffffffffff1681526020019081526020016000206000828254610f9e9190612469565b9250508190555050505080610fb29061249d565b9050610e0b565b508473ffffffffffffffffffffffffffffffffffffffff168673ffffffffffffffffffffffffffffffffffffffff168273ffffffffffffffffffffffffffffffffffffffff167f4a39dc06d4c0dbc64b70af90fd698a233a518aa5d07e595d983b8c0526c8f7fb878760405161103092919061299b565b60405180910390a4611046818787878787611629565b611054818787878787611808565b505050505050565b611064610d33565b73ffffffffffffffffffffffffffffffffffffffff166110826108b6565b73ffffffffffffffffffffffffffffffffffffffff16146110d8576040517f08c379a00000000000000000000000000000000000000000000000000000000081526004016110cf90612a1e565b60405180910390fd5b565b6000600360009054906101000a900473ffffffffffffffffffffffffffffffffffffffff16905081600360006101000a81548173ffffffffffffffffffffffffffffffffffffffff021916908373ffffffffffffffffffffffffffffffffffffffff1602179055508173ffffffffffffffffffffffffffffffffffffffff168173ffffffffffffffffffffffffffffffffffffffff167f8be0079c531659141344cd1fd0a4f28419497f9722a3daafe3b4186f6b6457e060405160405180910390a35050565b8173ffffffffffffffffffffffffffffffffffffffff168373ffffffffffffffffffffffffffffffffffffffff160361120e576040517f08c379a000000000000000000000000000000000000000000000000000000000815260040161120590612ab0565b60405180910390fd5b80600160008573ffffffffffffffffffffffffffffffffffffffff1673ffffffffffffffffffffffffffffffffffffffff16815260200190815260200160002060008473ffffffffffffffffffffffffffffffffffffffff1673ffffffffffffffffffffffffffffffffffffffff16815260200190815260200160002060006101000a81548160ff0219169083151502179055508173ffffffffffffffffffffffffffffffffffffffff168373ffffffffffffffffffffffffffffffffffffffff167f17307eab39ab6107e8899845ad3d59bd9653f200f220920489ca2b5937696c31836040516112ff9190611bb4565b60405180910390a3505050565b600073ffffffffffffffffffffffffffffffffffffffff168473ffffffffffffffffffffffffffffffffffffffff160361137b576040517f08c379a0000000000000000000000000000000000000000000000000000000008152600401611372906128e9565b60405180910390fd5b6000611385610d33565b90506000611392856115a7565b9050600061139f856115a7565b90506113af838989858589611621565b600080600088815260200190815260200160002060008a73ffffffffffffffffffffffffffffffffffffffff1673ffffffffffffffffffffffffffffffffffffffff16815260200190815260200160002054905085811015611446576040517f08c379a000000000000000000000000000000000000000000000000000000000815260040161143d9061297b565b60405180910390fd5b85810360008089815260200190815260200160002060008b73ffffffffffffffffffffffffffffffffffffffff1673ffffffffffffffffffffffffffffffffffffffff168152602001908152602001600020819055508560008089815260200190815260200160002060008a73ffffffffffffffffffffffffffffffffffffffff1673ffffffffffffffffffffffffffffffffffffffff16815260200190815260200160002060008282546114fb9190612469565b925050819055508773ffffffffffffffffffffffffffffffffffffffff168973ffffffffffffffffffffffffffffffffffffffff168573ffffffffffffffffffffffffffffffffffffffff167fc3d58168c5ae7397731d063d5bbf3d657854427343f4c083240f7aacaa2d0f628a8a6040516115789291906127bc565b60405180910390a461158e848a8a86868a611629565b61159c848a8a8a8a8a611631565b505050505050505050565b60606000600167ffffffffffffffff8111156115c6576115c5611ce0565b5b6040519080825280602002602001820160405280156115f45781602001602082028036833780820191505090505b509050828160008151811061160c5761160b612669565b5b60200260200101818152505080915050919050565b505050505050565b505050505050565b6116508473ffffffffffffffffffffffffffffffffffffffff166119df565b15611800578373ffffffffffffffffffffffffffffffffffffffff1663f23a6e6187878686866040518663ffffffff1660e01b8152600401611696959493929190612b25565b6020604051808303816000875af19250505080156116d257506040513d601f19601f820116820180604052508101906116cf9190612b94565b60015b611777576116de612bce565b806308c379a00361173a57506116f2612bf0565b806116fd575061173c565b806040517f08c379a00000000000000000000000000000000000000000000000000000000081526004016117319190611cb9565b60405180910390fd5b505b6040517f08c379a000000000000000000000000000000000000000000000000000000000815260040161176e90612cf2565b60405180910390fd5b63f23a6e6160e01b7bffffffffffffffffffffffffffffffffffffffffffffffffffffffff1916817bffffffffffffffffffffffffffffffffffffffffffffffffffffffff1916146117fe576040517f08c379a00000000000000000000000000000000000000000000000000000000081526004016117f590612d84565b60405180910390fd5b505b505050505050565b6118278473ffffffffffffffffffffffffffffffffffffffff166119df565b156119d7578373ffffffffffffffffffffffffffffffffffffffff1663bc197c8187878686866040518663ffffffff1660e01b815260040161186d959493929190612da4565b6020604051808303816000875af19250505080156118a957506040513d601f19601f820116820180604052508101906118a69190612b94565b60015b61194e576118b5612bce565b806308c379a00361191157506118c9612bf0565b806118d45750611913565b806040517f08c379a00000000000000000000000000000000000000000000000000000000081526004016119089190611cb9565b60405180910390fd5b505b6040517f08c379a000000000000000000000000000000000000000000000000000000000815260040161194590612cf2565b60405180910390fd5b63bc197c8160e01b7bffffffffffffffffffffffffffffffffffffffffffffffffffffffff1916817bffffffffffffffffffffffffffffffffffffffffffffffffffffffff1916146119d5576040517f08c379a00000000000000000000000000000000000000000000000000000000081526004016119cc90612d84565b60405180910390fd5b505b505050505050565b6000808273ffffffffffffffffffffffffffffffffffffffff163b119050919050565b6000604051905090565b600080fd5b600080fd5b600073ffffffffffffffffffffffffffffffffffffffff82169050919050565b6000611a4182611a16565b9050919050565b611a5181611a36565b8114611a5c57600080fd5b50565b600081359050611a6e81611a48565b92915050565b6000819050919050565b611a8781611a74565b8114611a9257600080fd5b50565b600081359050611aa481611a7e565b92915050565b60008060408385031215611ac157611ac0611a0c565b5b6000611acf85828601611a5f565b9250506020611ae085828601611a95565b9150509250929050565b611af381611a74565b82525050565b6000602082019050611b0e6000830184611aea565b92915050565b60007fffffffff0000000000000000000000000000000000000000000000000000000082169050919050565b611b4981611b14565b8114611b5457600080fd5b50565b600081359050611b6681611b40565b92915050565b600060208284031215611b8257611b81611a0c565b5b6000611b9084828501611b57565b91505092915050565b60008115159050919050565b611bae81611b99565b82525050565b6000602082019050611bc96000830184611ba5565b92915050565b600060208284031215611be557611be4611a0c565b5b6000611bf384828501611a5f565b91505092915050565b600060208284031215611c1257611c11611a0c565b5b6000611c2084828501611a95565b91505092915050565b600081519050919050565b600082825260208201905092915050565b60005b83811015611c63578082015181840152602081019050611c48565b60008484015250505050565b6000601f19601f8301169050919050565b6000611c8b82611c29565b611c958185611c34565b9350611ca5818560208601611c45565b611cae81611c6f565b840191505092915050565b60006020820190508181036000830152611cd38184611c80565b905092915050565b600080fd5b7f4e487b7100000000000000000000000000000000000000000000000000000000600052604160045260246000fd5b611d1882611c6f565b810181811067ffffffffffffffff82111715611d3757611d36611ce0565b5b80604052505050565b6000611d4a611a02565b9050611d568282611d0f565b919050565b600067ffffffffffffffff821115611d7657611d75611ce0565b5b602082029050602081019050919050565b600080fd5b6000611d9f611d9a84611d5b565b611d40565b90508083825260208201905060208402830185811115611dc257611dc1611d87565b5b835b81811015611deb5780611dd78882611a95565b845260208401935050602081019050611dc4565b5050509392505050565b600082601f830112611e0a57611e09611cdb565b5b8135611e1a848260208601611d8c565b91505092915050565b600080fd5b600067ffffffffffffffff821115611e4357611e42611ce0565b5b611e4c82611c6f565b9050602081019050919050565b82818337600083830152505050565b6000611e7b611e7684611e28565b611d40565b905082815260208101848484011115611e9757611e96611e23565b5b611ea2848285611e59565b509392505050565b600082601f830112611ebf57611ebe611cdb565b5b8135611ecf848260208601611e68565b91505092915050565b600080600080600060a08688031215611ef457611ef3611a0c565b5b6000611f0288828901611a5f565b9550506020611f1388828901611a5f565b945050604086013567ffffffffffffffff811115611f3457611f33611a11565b5b611f4088828901611df5565b935050606086013567ffffffffffffffff811115611f6157611f60611a11565b5b611f6d88828901611df5565b925050608086013567ffffffffffffffff811115611f8e57611f8d611a11565b5b611f9a88828901611eaa565b9150509295509295909350565b600067ffffffffffffffff821115611fc257611fc1611ce0565b5b602082029050602081019050919050565b6000611fe6611fe184611fa7565b611d40565b9050808382526020820190506020840283018581111561200957612008611d87565b5b835b81811015612032578061201e8882611a5f565b84526020840193505060208101905061200b565b5050509392505050565b600082601f83011261205157612050611cdb565b5b8135612061848260208601611fd3565b91505092915050565b6000806040838503121561208157612080611a0c565b5b600083013567ffffffffffffffff81111561209f5761209e611a11565b5b6120ab8582860161203c565b925050602083013567ffffffffffffffff8111156120cc576120cb611a11565b5b6120d885828601611df5565b9150509250929050565b600081519050919050565b600082825260208201905092915050565b6000819050602082019050919050565b61211781611a74565b82525050565b6000612129838361210e565b60208301905092915050565b6000602082019050919050565b600061214d826120e2565b61215781856120ed565b9350612162836120fe565b8060005b8381101561219357815161217a888261211d565b975061218583612135565b925050600181019050612166565b5085935050505092915050565b600060208201905081810360008301526121ba8184612142565b905092915050565b6121cb81611a36565b82525050565b60006020820190506121e660008301846121c2565b92915050565b6121f581611b99565b811461220057600080fd5b50565b600081359050612212816121ec565b92915050565b6000806040838503121561222f5761222e611a0c565b5b600061223d85828601611a5f565b925050602061224e85828601612203565b9150509250929050565b6000806040838503121561226f5761226e611a0c565b5b600061227d85828601611a5f565b925050602061228e85828601611a5f565b9150509250929050565b600060ff82169050919050565b6122ae81612298565b82525050565b60006020820190506122c960008301846122a5565b92915050565b600080600080600060a086880312156122eb576122ea611a0c565b5b60006122f988828901611a5f565b955050602061230a88828901611a5f565b945050604061231b88828901611a95565b935050606061232c88828901611a95565b925050608086013567ffffffffffffffff81111561234d5761234c611a11565b5b61235988828901611eaa565b9150509295509295909350565b7f455243313135353a2061646472657373207a65726f206973206e6f742061207660008201527f616c6964206f776e657200000000000000000000000000000000000000000000602082015250565b60006123c2602a83611c34565b91506123cd82612366565b604082019050919050565b600060208201905081810360008301526123f1816123b5565b9050919050565b7f4e487b7100000000000000000000000000000000000000000000000000000000600052601160045260246000fd5b600061243282611a74565b915061243d83611a74565b925082820261244b81611a74565b91508282048414831517612462576124616123f8565b5b5092915050565b600061247482611a74565b915061247f83611a74565b9250828201905080821115612497576124966123f8565b5b92915050565b60006124a882611a74565b91507fffffffffffffffffffffffffffffffffffffffffffffffffffffffffffffffff82036124da576124d96123f8565b5b600182019050919050565b7f4e487b7100000000000000000000000000000000000000000000000000000000600052602260045260246000fd5b6000600282049050600182168061252c57607f821691505b60208210810361253f5761253e6124e5565b5b50919050565b7f455243313135353a2063616c6c6572206973206e6f7420746f6b656e206f776e60008201527f6572206f7220617070726f766564000000000000000000000000000000000000602082015250565b60006125a1602e83611c34565b91506125ac82612545565b604082019050919050565b600060208201905081810360008301526125d081612594565b9050919050565b7f455243313135353a206163636f756e747320616e6420696473206c656e67746860008201527f206d69736d617463680000000000000000000000000000000000000000000000602082015250565b6000612633602983611c34565b915061263e826125d7565b604082019050919050565b6000602082019050818103600083015261266281612626565b9050919050565b7f4e487b7100000000000000000000000000000000000000000000000000000000600052603260045260246000fd5b7f4f776e61626c653a206e6577206f776e657220697320746865207a65726f206160008201527f6464726573730000000000000000000000000000000000000000000000000000602082015250565b60006126f4602683611c34565b91506126ff82612698565b604082019050919050565b60006020820190508181036000830152612723816126e7565b9050919050565b7f455243313135353a206d696e7420746f20746865207a65726f2061646472657360008201527f7300000000000000000000000000000000000000000000000000000000000000602082015250565b6000612786602183611c34565b91506127918261272a565b604082019050919050565b600060208201905081810360008301526127b581612779565b9050919050565b60006040820190506127d16000830185611aea565b6127de6020830184611aea565b9392505050565b7f455243313135353a2069647320616e6420616d6f756e7473206c656e6774682060008201527f6d69736d61746368000000000000000000000000000000000000000000000000602082015250565b6000612841602883611c34565b915061284c826127e5565b604082019050919050565b6000602082019050818103600083015261287081612834565b9050919050565b7f455243313135353a207472616e7366657220746f20746865207a65726f20616460008201527f6472657373000000000000000000000000000000000000000000000000000000602082015250565b60006128d3602583611c34565b91506128de82612877565b604082019050919050565b60006020820190508181036000830152612902816128c6565b9050919050565b7f455243313135353a20696e73756666696369656e742062616c616e636520666f60008201527f72207472616e7366657200000000000000000000000000000000000000000000602082015250565b6000612965602a83611c34565b915061297082612909565b604082019050919050565b6000602082019050818103600083015261299481612958565b9050919050565b600060408201905081810360008301526129b58185612142565b905081810360208301526129c98184612142565b90509392505050565b7f4f776e61626c653a2063616c6c6572206973206e6f7420746865206f776e6572600082015250565b6000612a08602083611c34565b9150612a13826129d2565b602082019050919050565b60006020820190508181036000830152612a37816129fb565b9050919050565b7f455243313135353a2073657474696e6720617070726f76616c2073746174757360008201527f20666f722073656c660000000000000000000000000000000000000000000000602082015250565b6000612a9a602983611c34565b9150612aa582612a3e565b604082019050919050565b60006020820190508181036000830152612ac981612a8d565b9050919050565b600081519050919050565b600082825260208201905092915050565b6000612af782612ad0565b612b018185612adb565b9350612b11818560208601611c45565b612b1a81611c6f565b840191505092915050565b600060a082019050612b3a60008301886121c2565b612b4760208301876121c2565b612b546040830186611aea565b612b616060830185611aea565b8181036080830152612b738184612aec565b90509695505050505050565b600081519050612b8e81611b40565b92915050565b600060208284031215612baa57612ba9611a0c565b5b6000612bb884828501612b7f565b91505092915050565b60008160e01c9050919050565b600060033d1115612bed5760046000803e612bea600051612bc1565b90505b90565b600060443d10612c7d57612c02611a02565b60043d036004823e80513d602482011167ffffffffffffffff82111715612c2a575050612c7d565b808201805167ffffffffffffffff811115612c485750505050612c7d565b80602083010160043d038501811115612c65575050505050612c7d565b612c7482602001850186611d0f565b82955050505050505b90565b7f455243313135353a207472616e7366657220746f206e6f6e2d4552433131353560008201527f526563656976657220696d706c656d656e746572000000000000000000000000602082015250565b6000612cdc603483611c34565b9150612ce782612c80565b604082019050919050565b60006020820190508181036000830152612d0b81612ccf565b9050919050565b7f455243313135353a204552433131353552656365697665722072656a6563746560008201527f6420746f6b656e73000000000000000000000000000000000000000000000000602082015250565b6000612d6e602883611c34565b9150612d7982612d12565b604082019050919050565b60006020820190508181036000830152612d9d81612d61565b9050919050565b600060a082019050612db960008301886121c2565b612dc660208301876121c2565b8181036040830152612dd88186612142565b90508181036060830152612dec8185612142565b90508181036080830152612e008184612aec565b9050969550505050505056fea264697066735822122044a7047627785b517e192f06a07d912571a6a807844765851da14980de05c0c764736f6c6343000812003368747470733a2f2f697066732e696f2f697066732f516d5935457444354d6b41663745334b58354563443847574a5346457465385a6f57766948414a657a4d675136482f7b69647d2e6a736f6e",
  "immutableReferences": {},
  "source": "// SPDX-License-Identifier: MIT\r\npragma solidity ^0.8.18;\r\n\r\nimport \"../../node_modules/@openzeppelin/contracts/token/ERC1155/ERC1155.sol\";\r\nimport \"../../node_modules/@openzeppelin/contracts/utils/Counters.sol\";\r\nimport \"../../node_modules/@openzeppelin/contracts/access/Ownable.sol\";\r\n\r\ncontract GuardianStuff is ERC1155, Ownable {\r\n    uint256[] private _itemIDs;\r\n    uint8 public chestItemID = 0;\r\n\r\n    constructor()\r\n        ERC1155(\r\n            \"https://ipfs.io/ipfs/QmY5EtD5MkAf7E3KX5EcD8GWJSFEte8ZoWviHAJezMgQ6H/{id}.json\"\r\n        )\r\n    {}\r\n\r\n    function forgeStuff(address itemOwner) external {\r\n        uint setCount = 1;\r\n        uint256 supply;\r\n\r\n        // Class: knight, mage, rogue\r\n        // Use only the class 1 for now because I do not upload all the other files\r\n        for (uint class = 1; class <= 1; class++) {\r\n            // There is 2 sets of armor for the knight class\r\n            // if (class == 0) {\r\n            //     setCount = 2;\r\n            // }\r\n\r\n            // Armor set\r\n            for (uint set = 1; set <= setCount; set++) {\r\n                // Armor parts: head, body, legs, hands, weapon right, weapon left\r\n                for (uint part = 1; part < 7; part++) {\r\n                    // Item rarity: Common, uncommon, rare, epic, legendary\r\n                    for (uint rarity = 0; rarity < 5; rarity++) {\r\n                        uint itemID = (class * 1000) +\r\n                            (set * 100) +\r\n                            (part * 10) +\r\n                            (rarity);\r\n\r\n                        if (rarity == 0) {\r\n                            supply = 10 ** 6;\r\n                        } else if (rarity == 1) {\r\n                            supply = 10 ** 5;\r\n                        } else if (rarity == 2) {\r\n                            supply = 10 ** 4;\r\n                        } else if (rarity == 3) {\r\n                            supply = 10 ** 3;\r\n                        } else if (rarity == 4) {\r\n                            supply = 10 ** 2;\r\n                        }\r\n\r\n                        _mint(itemOwner, itemID, supply, \"\");\r\n                        _itemIDs.push(itemID);\r\n                    }\r\n                }\r\n            }\r\n        }\r\n    }\r\n\r\n    function forgeChests(address itemOwner) external {\r\n        // Chests - TODO: calculate in function of the item supply and the number of item in a chest\r\n        _mint(itemOwner, chestItemID, 10 ** 12, \"\");\r\n    }\r\n\r\n    function getItemIDs() external view returns (uint256[] memory itemIDs) {\r\n        return _itemIDs;\r\n    }\r\n}\r\n",
  "sourcePath": "C:\\Users\\Alex\\Documents\\Travail\\Alyra\\NG-Marketplace\\truffle\\contracts\\Forge\\GuardianStuff.sol",
  "compiler": {
    "name": "solc",
    "version": "0.8.18+commit.87f61d96.Emscripten.clang"
  },
  "schemaVersion": "3.4.7",
  "updatedAt": "2023-04-10T19:41:08.812Z",
  "devdoc": {
    "events": {
      "ApprovalForAll(address,address,bool)": {
        "details": "Emitted when `account` grants or revokes permission to `operator` to transfer their tokens, according to `approved`."
      },
      "TransferBatch(address,address,address,uint256[],uint256[])": {
        "details": "Equivalent to multiple {TransferSingle} events, where `operator`, `from` and `to` are the same for all transfers."
      },
      "TransferSingle(address,address,address,uint256,uint256)": {
        "details": "Emitted when `value` tokens of token type `id` are transferred from `from` to `to` by `operator`."
      },
      "URI(string,uint256)": {
        "details": "Emitted when the URI for token type `id` changes to `value`, if it is a non-programmatic URI. If an {URI} event was emitted for `id`, the standard https://eips.ethereum.org/EIPS/eip-1155#metadata-extensions[guarantees] that `value` will equal the value returned by {IERC1155MetadataURI-uri}."
      }
    },
    "kind": "dev",
    "methods": {
      "balanceOf(address,uint256)": {
        "details": "See {IERC1155-balanceOf}. Requirements: - `account` cannot be the zero address."
      },
      "balanceOfBatch(address[],uint256[])": {
        "details": "See {IERC1155-balanceOfBatch}. Requirements: - `accounts` and `ids` must have the same length."
      },
      "isApprovedForAll(address,address)": {
        "details": "See {IERC1155-isApprovedForAll}."
      },
      "owner()": {
        "details": "Returns the address of the current owner."
      },
      "renounceOwnership()": {
        "details": "Leaves the contract without owner. It will not be possible to call `onlyOwner` functions anymore. Can only be called by the current owner. NOTE: Renouncing ownership will leave the contract without an owner, thereby removing any functionality that is only available to the owner."
      },
      "safeBatchTransferFrom(address,address,uint256[],uint256[],bytes)": {
        "details": "See {IERC1155-safeBatchTransferFrom}."
      },
      "safeTransferFrom(address,address,uint256,uint256,bytes)": {
        "details": "See {IERC1155-safeTransferFrom}."
      },
      "setApprovalForAll(address,bool)": {
        "details": "See {IERC1155-setApprovalForAll}."
      },
      "supportsInterface(bytes4)": {
        "details": "See {IERC165-supportsInterface}."
      },
      "transferOwnership(address)": {
        "details": "Transfers ownership of the contract to a new account (`newOwner`). Can only be called by the current owner."
      },
      "uri(uint256)": {
        "details": "See {IERC1155MetadataURI-uri}. This implementation returns the same URI for *all* token types. It relies on the token type ID substitution mechanism https://eips.ethereum.org/EIPS/eip-1155#metadata[defined in the EIP]. Clients calling this function must replace the `\\{id\\}` substring with the actual token type ID."
      }
    },
    "version": 1
  },
  "userdoc": {
    "kind": "user",
    "methods": {},
    "version": 1
  }
}