{
  "contractName": "TreasureGuardian",
  "abi": [
    {
      "inputs": [],
      "stateMutability": "nonpayable",
      "type": "constructor"
    },
    {
      "anonymous": false,
      "inputs": [
        {
          "indexed": true,
          "internalType": "address",
          "name": "previousOwner",
          "type": "address"
        },
        {
          "indexed": true,
          "internalType": "address",
          "name": "newOwner",
          "type": "address"
        }
      ],
      "name": "OwnershipTransferred",
      "type": "event"
    },
    {
      "inputs": [],
      "name": "chestPrice",
      "outputs": [
        {
          "internalType": "uint256",
          "name": "",
          "type": "uint256"
        }
      ],
      "stateMutability": "view",
      "type": "function",
      "constant": true
    },
    {
      "inputs": [],
      "name": "factory",
      "outputs": [
        {
          "internalType": "contract ForgeMaster",
          "name": "",
          "type": "address"
        }
      ],
      "stateMutability": "view",
      "type": "function",
      "constant": true
    },
    {
      "inputs": [],
      "name": "guardianStuff",
      "outputs": [
        {
          "internalType": "contract GuardianStuff",
          "name": "",
          "type": "address"
        }
      ],
      "stateMutability": "view",
      "type": "function",
      "constant": true
    },
    {
      "inputs": [],
      "name": "guardianToken",
      "outputs": [
        {
          "internalType": "contract GuardianToken",
          "name": "",
          "type": "address"
        }
      ],
      "stateMutability": "view",
      "type": "function",
      "constant": true
    },
    {
      "inputs": [
        {
          "internalType": "address",
          "name": "",
          "type": "address"
        },
        {
          "internalType": "address",
          "name": "",
          "type": "address"
        },
        {
          "internalType": "uint256[]",
          "name": "",
          "type": "uint256[]"
        },
        {
          "internalType": "uint256[]",
          "name": "",
          "type": "uint256[]"
        },
        {
          "internalType": "bytes",
          "name": "",
          "type": "bytes"
        }
      ],
      "name": "onERC1155BatchReceived",
      "outputs": [
        {
          "internalType": "bytes4",
          "name": "",
          "type": "bytes4"
        }
      ],
      "stateMutability": "nonpayable",
      "type": "function"
    },
    {
      "inputs": [
        {
          "internalType": "address",
          "name": "",
          "type": "address"
        },
        {
          "internalType": "address",
          "name": "",
          "type": "address"
        },
        {
          "internalType": "uint256",
          "name": "",
          "type": "uint256"
        },
        {
          "internalType": "uint256",
          "name": "",
          "type": "uint256"
        },
        {
          "internalType": "bytes",
          "name": "",
          "type": "bytes"
        }
      ],
      "name": "onERC1155Received",
      "outputs": [
        {
          "internalType": "bytes4",
          "name": "",
          "type": "bytes4"
        }
      ],
      "stateMutability": "nonpayable",
      "type": "function"
    },
    {
      "inputs": [],
      "name": "owner",
      "outputs": [
        {
          "internalType": "address",
          "name": "",
          "type": "address"
        }
      ],
      "stateMutability": "view",
      "type": "function",
      "constant": true
    },
    {
      "inputs": [],
      "name": "renounceOwnership",
      "outputs": [],
      "stateMutability": "nonpayable",
      "type": "function"
    },
    {
      "inputs": [
        {
          "internalType": "bytes4",
          "name": "interfaceId",
          "type": "bytes4"
        }
      ],
      "name": "supportsInterface",
      "outputs": [
        {
          "internalType": "bool",
          "name": "",
          "type": "bool"
        }
      ],
      "stateMutability": "view",
      "type": "function",
      "constant": true
    },
    {
      "inputs": [
        {
          "internalType": "address",
          "name": "newOwner",
          "type": "address"
        }
      ],
      "name": "transferOwnership",
      "outputs": [],
      "stateMutability": "nonpayable",
      "type": "function"
    },
    {
      "inputs": [
        {
          "internalType": "address",
          "name": "from",
          "type": "address"
        },
        {
          "internalType": "address",
          "name": "to",
          "type": "address"
        },
        {
          "internalType": "uint256",
          "name": "id",
          "type": "uint256"
        },
        {
          "internalType": "uint256",
          "name": "amount",
          "type": "uint256"
        },
        {
          "internalType": "bytes",
          "name": "data",
          "type": "bytes"
        }
      ],
      "name": "safeTransferFrom",
      "outputs": [],
      "stateMutability": "nonpayable",
      "type": "function"
    },
    {
      "inputs": [
        {
          "internalType": "address",
          "name": "guardianAddress",
          "type": "address"
        },
        {
          "internalType": "uint256",
          "name": "amount",
          "type": "uint256"
        }
      ],
      "name": "rewardGuardianWithToken",
      "outputs": [],
      "stateMutability": "nonpayable",
      "type": "function"
    },
    {
      "inputs": [
        {
          "internalType": "uint256",
          "name": "amount",
          "type": "uint256"
        }
      ],
      "name": "buyChest",
      "outputs": [],
      "stateMutability": "nonpayable",
      "type": "function"
    },
    {
      "inputs": [
        {
          "internalType": "uint8",
          "name": "dropRateCommon",
          "type": "uint8"
        },
        {
          "internalType": "uint8",
          "name": "dropRateUncommon",
          "type": "uint8"
        },
        {
          "internalType": "uint8",
          "name": "dropRateRare",
          "type": "uint8"
        },
        {
          "internalType": "uint8",
          "name": "dropRateEpic",
          "type": "uint8"
        },
        {
          "internalType": "uint8",
          "name": "dropRateLegendary",
          "type": "uint8"
        }
      ],
      "name": "modifyDropRate",
      "outputs": [],
      "stateMutability": "nonpayable",
      "type": "function"
    },
    {
      "inputs": [],
      "name": "openChest",
      "outputs": [
        {
          "internalType": "uint256[]",
          "name": "ids",
          "type": "uint256[]"
        }
      ],
      "stateMutability": "nonpayable",
      "type": "function"
    }
  ],
  "bytecode": "0x608060405260196004556005600660006101000a81548160ff021916908360ff160217905550603c600660016101000a81548160ff021916908360ff1602179055506019600660026101000a81548160ff021916908360ff160217905550600a600660036101000a81548160ff021916908360ff1602179055506004600660046101000a81548160ff021916908360ff1602179055506001600660056101000a81548160ff021916908360ff160217905550348015620000be57600080fd5b50620000df620000d3620002a460201b60201c565b620002ac60201b60201c565b604051620000ed9062000370565b604051809103906000f0801580156200010a573d6000803e3d6000fd5b50600160006101000a81548173ffffffffffffffffffffffffffffffffffffffff021916908373ffffffffffffffffffffffffffffffffffffffff1602179055506000600160009054906101000a900473ffffffffffffffffffffffffffffffffffffffff1673ffffffffffffffffffffffffffffffffffffffff16637f51b2dc6040518163ffffffff1660e01b8152600401620001a89062000413565b6020604051808303816000875af1158015620001c8573d6000803e3d6000fd5b505050506040513d601f19601f82011682018060405250810190620001ee91906200049f565b905080600260006101000a81548173ffffffffffffffffffffffffffffffffffffffff021916908373ffffffffffffffffffffffffffffffffffffffff1602179055506040516200023f906200037e565b604051809103906000f0801580156200025c573d6000803e3d6000fd5b50600360006101000a81548173ffffffffffffffffffffffffffffffffffffffff021916908373ffffffffffffffffffffffffffffffffffffffff16021790555050620004d1565b600033905090565b60008060009054906101000a900473ffffffffffffffffffffffffffffffffffffffff169050816000806101000a81548173ffffffffffffffffffffffffffffffffffffffff021916908373ffffffffffffffffffffffffffffffffffffffff1602179055508173ffffffffffffffffffffffffffffffffffffffff168173ffffffffffffffffffffffffffffffffffffffff167f8be0079c531659141344cd1fd0a4f28419497f9722a3daafe3b4186f6b6457e060405160405180910390a35050565b6142ca80620029fb83390190565b6118f28062006cc583390190565b600082825260208201905092915050565b7f4e6f646520477561726469616e732067656e6573697320636f6c6c656374696f60008201527f6e00000000000000000000000000000000000000000000000000000000000000602082015250565b6000620003fb6021836200038c565b915062000408826200039d565b604082019050919050565b600060208201905081810360008301526200042e81620003ec565b9050919050565b600080fd5b600073ffffffffffffffffffffffffffffffffffffffff82169050919050565b600062000467826200043a565b9050919050565b62000479816200045a565b81146200048557600080fd5b50565b60008151905062000499816200046e565b92915050565b600060208284031215620004b857620004b762000435565b5b6000620004c88482850162000488565b91505092915050565b61251a80620004e16000396000f3fe608060405234801561001057600080fd5b50600436106100f55760003560e01c8063ae196ec811610097578063f23a6e6111610066578063f23a6e611461024e578063f242432a1461027e578063f2fde38b1461029a578063fa180dc9146102b6576100f5565b8063ae196ec8146101c6578063bc197c81146101e2578063c45a015514610212578063f154730414610230576100f5565b80636f49a3c0116100d35780636f49a3c014610164578063715018a614610182578063829a826a1461018c5780638da5cb5b146101a8576100f5565b806301ffc9a7146100fa578063444e56ed1461012a5780634e19254814610148575b600080fd5b610114600480360381019061010f9190611365565b6102d4565b60405161012191906113ad565b60405180910390f35b61013261034e565b60405161013f91906113e1565b60405180910390f35b610162600480360381019061015d9190611428565b610354565b005b61016c610665565b6040516101799190611513565b60405180910390f35b61018a61080c565b005b6101a660048036038101906101a1919061156e565b610820565b005b6101b0610928565b6040516101bd919061162a565b60405180910390f35b6101e060048036038101906101db9190611671565b610951565b005b6101fc60048036038101906101f791906118bf565b610adb565b604051610209919061199d565b60405180910390f35b61021a610af0565b6040516102279190611a17565b60405180910390f35b610238610b16565b6040516102459190611a53565b60405180910390f35b61026860048036038101906102639190611a6e565b610b3c565b604051610275919061199d565b60405180910390f35b61029860048036038101906102939190611a6e565b610b51565b005b6102b460048036038101906102af9190611b05565b610bf5565b005b6102be610c78565b6040516102cb9190611b53565b60405180910390f35b60007f4e2312e0000000000000000000000000000000000000000000000000000000007bffffffffffffffffffffffffffffffffffffffffffffffffffffffff1916827bffffffffffffffffffffffffffffffffffffffffffffffffffffffff19161480610347575061034682610c9e565b5b9050919050565b60045481565b600081600260009054906101000a900473ffffffffffffffffffffffffffffffffffffffff1673ffffffffffffffffffffffffffffffffffffffff1662fdd58e30846040518363ffffffff1660e01b81526004016103b3929190611b9f565b602060405180830381865afa1580156103d0573d6000803e3d6000fd5b505050506040513d601f19601f820116820180604052508101906103f49190611bdd565b11610434576040517f08c379a000000000000000000000000000000000000000000000000000000000815260040161042b90611c8d565b60405180910390fd5b816004546104429190611cdc565b600360009054906101000a900473ffffffffffffffffffffffffffffffffffffffff1673ffffffffffffffffffffffffffffffffffffffff166370a08231336040518263ffffffff1660e01b815260040161049d919061162a565b602060405180830381865afa1580156104ba573d6000803e3d6000fd5b505050506040513d601f19601f820116820180604052508101906104de9190611bdd565b1161051e576040517f08c379a000000000000000000000000000000000000000000000000000000000815260040161051590611d90565b60405180910390fd5b600360009054906101000a900473ffffffffffffffffffffffffffffffffffffffff1673ffffffffffffffffffffffffffffffffffffffff166323b872dd33308560045461056c9190611cdc565b6040518463ffffffff1660e01b815260040161058a93929190611db0565b6020604051808303816000875af11580156105a9573d6000803e3d6000fd5b505050506040513d601f19601f820116820180604052508101906105cd9190611e13565b50600260009054906101000a900473ffffffffffffffffffffffffffffffffffffffff1673ffffffffffffffffffffffffffffffffffffffff1663f242432a303384866040518563ffffffff1660e01b815260040161062f9493929190611e77565b600060405180830381600087803b15801561064957600080fd5b505af115801561065d573d6000803e3d6000fd5b505050505050565b6060600080600260009054906101000a900473ffffffffffffffffffffffffffffffffffffffff1673ffffffffffffffffffffffffffffffffffffffff1662fdd58e33846040518363ffffffff1660e01b81526004016106c6929190611b9f565b602060405180830381865afa1580156106e3573d6000803e3d6000fd5b505050506040513d601f19601f820116820180604052508101906107079190611bdd565b11610747576040517f08c379a000000000000000000000000000000000000000000000000000000000815260040161073e90611f41565b60405180910390fd5b6000600660009054906101000a900460ff1660ff1667ffffffffffffffff811115610775576107746116c7565b5b6040519080825280602002602001820160405280156107a35781602001602082028036833780820191505090505b50905060005b600660009054906101000a900460ff1660ff168110156108035760006107cd610d08565b9050808383815181106107e3576107e2611f61565b5b6020026020010181815250505080806107fb90611f90565b9150506107a9565b50809250505090565b610814611154565b61081e60006111d2565b565b610828611154565b606481838587896108399190611fd8565b6108439190611fd8565b61084d9190611fd8565b6108579190611fd8565b60ff161461089a576040517f08c379a00000000000000000000000000000000000000000000000000000000081526004016108919061207f565b60405180910390fd5b84600660016101000a81548160ff021916908360ff16021790555083600660026101000a81548160ff021916908360ff16021790555082600660036101000a81548160ff021916908360ff16021790555081600660046101000a81548160ff021916908360ff16021790555080600660056101000a81548160ff021916908360ff1602179055505050505050565b60008060009054906101000a900473ffffffffffffffffffffffffffffffffffffffff16905090565b610959611154565b80600360009054906101000a900473ffffffffffffffffffffffffffffffffffffffff1673ffffffffffffffffffffffffffffffffffffffff166370a08231306040518263ffffffff1660e01b81526004016109b5919061162a565b602060405180830381865afa1580156109d2573d6000803e3d6000fd5b505050506040513d601f19601f820116820180604052508101906109f69190611bdd565b11610a36576040517f08c379a0000000000000000000000000000000000000000000000000000000008152600401610a2d90612111565b60405180910390fd5b600360009054906101000a900473ffffffffffffffffffffffffffffffffffffffff1673ffffffffffffffffffffffffffffffffffffffff1663a9059cbb83836040518363ffffffff1660e01b8152600401610a93929190612131565b6020604051808303816000875af1158015610ab2573d6000803e3d6000fd5b505050506040513d601f19601f82011682018060405250810190610ad69190611e13565b505050565b600063bc197c8160e01b905095945050505050565b600160009054906101000a900473ffffffffffffffffffffffffffffffffffffffff1681565b600260009054906101000a900473ffffffffffffffffffffffffffffffffffffffff1681565b600063f23a6e6160e01b905095945050505050565b610b59611154565b600260009054906101000a900473ffffffffffffffffffffffffffffffffffffffff1673ffffffffffffffffffffffffffffffffffffffff1663f242432a86868686866040518663ffffffff1660e01b8152600401610bbc9594939291906121c8565b600060405180830381600087803b158015610bd657600080fd5b505af1158015610bea573d6000803e3d6000fd5b505050505050505050565b610bfd611154565b600073ffffffffffffffffffffffffffffffffffffffff168173ffffffffffffffffffffffffffffffffffffffff1603610c6c576040517f08c379a0000000000000000000000000000000000000000000000000000000008152600401610c6390612294565b60405180910390fd5b610c75816111d2565b50565b600360009054906101000a900473ffffffffffffffffffffffffffffffffffffffff1681565b60007f01ffc9a7000000000000000000000000000000000000000000000000000000007bffffffffffffffffffffffffffffffffffffffffffffffffffffffff1916827bffffffffffffffffffffffffffffffffffffffffffffffffffffffff1916149050919050565b600080610d13611296565b90506000600660019054906101000a900460ff1660ff16821015610d3a5760009050610fc4565b600660019054906101000a900460ff1660ff168210158015610d875750600660029054906101000a900460ff16600660019054906101000a900460ff16610d819190611fd8565b60ff1682105b15610d955760029050610fc3565b600660029054906101000a900460ff16600660019054906101000a900460ff16610dbf9190611fd8565b60ff168210158015610e165750600660039054906101000a900460ff16600660029054906101000a900460ff16600660019054906101000a900460ff16610e069190611fd8565b610e109190611fd8565b60ff1682105b15610e245760039050610fc2565b600660039054906101000a900460ff16600660029054906101000a900460ff16600660019054906101000a900460ff16610e5e9190611fd8565b610e689190611fd8565b60ff168210158015610ed95750600660049054906101000a900460ff16600660039054906101000a900460ff16600660029054906101000a900460ff16600660019054906101000a900460ff16610ebf9190611fd8565b610ec99190611fd8565b610ed39190611fd8565b60ff1682105b15610ee75760049050610fc1565b600660049054906101000a900460ff16600660039054906101000a900460ff16600660029054906101000a900460ff16600660019054906101000a900460ff16610f319190611fd8565b610f3b9190611fd8565b610f459190611fd8565b60ff168210158015610fb65750600660059054906101000a900460ff16600660039054906101000a900460ff16600660029054906101000a900460ff16600660019054906101000a900460ff16610f9c9190611fd8565b610fa69190611fd8565b610fb09190611fd8565b60ff1682105b15610fc057600590505b5b5b5b5b610fcc611296565b91506000600190506021831015610fe65760019050611014565b60218310158015610ff75750604283105b156110055760029050611013565b6042831061101257600390505b5b5b60006001905060018260ff160361103d5761102d611296565b93506032841061103c57600290505b5b60006001905061104b611296565b9450601185101561105f57600190506110ed565b601185101580156110705750602285105b1561107e57600290506110ec565b6022851015801561108f5750603385105b1561109d57600390506110eb565b603385101580156110ae5750604485105b156110bc57600490506110ea565b604485101580156110cd5750605485105b156110db57600590506110e9565b605485106110e857600690505b5b5b5b5b5b60008460ff16600a8361110091906122b4565b60ff1660648561111091906122b4565b60ff166103e88760ff1661112491906122ff565b61112e919061233c565b611138919061233c565b611142919061233c565b61ffff16905080965050505050505090565b61115c6112f1565b73ffffffffffffffffffffffffffffffffffffffff1661117a610928565b73ffffffffffffffffffffffffffffffffffffffff16146111d0576040517f08c379a00000000000000000000000000000000000000000000000000000000081526004016111c7906123be565b60405180910390fd5b565b60008060009054906101000a900473ffffffffffffffffffffffffffffffffffffffff169050816000806101000a81548173ffffffffffffffffffffffffffffffffffffffff021916908373ffffffffffffffffffffffffffffffffffffffff1602179055508173ffffffffffffffffffffffffffffffffffffffff168173ffffffffffffffffffffffffffffffffffffffff167f8be0079c531659141344cd1fd0a4f28419497f9722a3daafe3b4186f6b6457e060405160405180910390a35050565b6000600560008154809291906112ab90611f90565b9190505550606442336005546040516020016112c993929190612447565b6040516020818303038152906040528051906020012060001c6112ec91906124b3565b905090565b600033905090565b6000604051905090565b600080fd5b600080fd5b60007fffffffff0000000000000000000000000000000000000000000000000000000082169050919050565b6113428161130d565b811461134d57600080fd5b50565b60008135905061135f81611339565b92915050565b60006020828403121561137b5761137a611303565b5b600061138984828501611350565b91505092915050565b60008115159050919050565b6113a781611392565b82525050565b60006020820190506113c2600083018461139e565b92915050565b6000819050919050565b6113db816113c8565b82525050565b60006020820190506113f660008301846113d2565b92915050565b611405816113c8565b811461141057600080fd5b50565b600081359050611422816113fc565b92915050565b60006020828403121561143e5761143d611303565b5b600061144c84828501611413565b91505092915050565b600081519050919050565b600082825260208201905092915050565b6000819050602082019050919050565b61148a816113c8565b82525050565b600061149c8383611481565b60208301905092915050565b6000602082019050919050565b60006114c082611455565b6114ca8185611460565b93506114d583611471565b8060005b838110156115065781516114ed8882611490565b97506114f8836114a8565b9250506001810190506114d9565b5085935050505092915050565b6000602082019050818103600083015261152d81846114b5565b905092915050565b600060ff82169050919050565b61154b81611535565b811461155657600080fd5b50565b60008135905061156881611542565b92915050565b600080600080600060a0868803121561158a57611589611303565b5b600061159888828901611559565b95505060206115a988828901611559565b94505060406115ba88828901611559565b93505060606115cb88828901611559565b92505060806115dc88828901611559565b9150509295509295909350565b600073ffffffffffffffffffffffffffffffffffffffff82169050919050565b6000611614826115e9565b9050919050565b61162481611609565b82525050565b600060208201905061163f600083018461161b565b92915050565b61164e81611609565b811461165957600080fd5b50565b60008135905061166b81611645565b92915050565b6000806040838503121561168857611687611303565b5b60006116968582860161165c565b92505060206116a785828601611413565b9150509250929050565b600080fd5b6000601f19601f8301169050919050565b7f4e487b7100000000000000000000000000000000000000000000000000000000600052604160045260246000fd5b6116ff826116b6565b810181811067ffffffffffffffff8211171561171e5761171d6116c7565b5b80604052505050565b60006117316112f9565b905061173d82826116f6565b919050565b600067ffffffffffffffff82111561175d5761175c6116c7565b5b602082029050602081019050919050565b600080fd5b600061178661178184611742565b611727565b905080838252602082019050602084028301858111156117a9576117a861176e565b5b835b818110156117d257806117be8882611413565b8452602084019350506020810190506117ab565b5050509392505050565b600082601f8301126117f1576117f06116b1565b5b8135611801848260208601611773565b91505092915050565b600080fd5b600067ffffffffffffffff82111561182a576118296116c7565b5b611833826116b6565b9050602081019050919050565b82818337600083830152505050565b600061186261185d8461180f565b611727565b90508281526020810184848401111561187e5761187d61180a565b5b611889848285611840565b509392505050565b600082601f8301126118a6576118a56116b1565b5b81356118b684826020860161184f565b91505092915050565b600080600080600060a086880312156118db576118da611303565b5b60006118e98882890161165c565b95505060206118fa8882890161165c565b945050604086013567ffffffffffffffff81111561191b5761191a611308565b5b611927888289016117dc565b935050606086013567ffffffffffffffff81111561194857611947611308565b5b611954888289016117dc565b925050608086013567ffffffffffffffff81111561197557611974611308565b5b61198188828901611891565b9150509295509295909350565b6119978161130d565b82525050565b60006020820190506119b2600083018461198e565b92915050565b6000819050919050565b60006119dd6119d86119d3846115e9565b6119b8565b6115e9565b9050919050565b60006119ef826119c2565b9050919050565b6000611a01826119e4565b9050919050565b611a11816119f6565b82525050565b6000602082019050611a2c6000830184611a08565b92915050565b6000611a3d826119e4565b9050919050565b611a4d81611a32565b82525050565b6000602082019050611a686000830184611a44565b92915050565b600080600080600060a08688031215611a8a57611a89611303565b5b6000611a988882890161165c565b9550506020611aa98882890161165c565b9450506040611aba88828901611413565b9350506060611acb88828901611413565b925050608086013567ffffffffffffffff811115611aec57611aeb611308565b5b611af888828901611891565b9150509295509295909350565b600060208284031215611b1b57611b1a611303565b5b6000611b298482850161165c565b91505092915050565b6000611b3d826119e4565b9050919050565b611b4d81611b32565b82525050565b6000602082019050611b686000830184611b44565b92915050565b6000611b89611b84611b7f84611535565b6119b8565b6113c8565b9050919050565b611b9981611b6e565b82525050565b6000604082019050611bb4600083018561161b565b611bc16020830184611b90565b9392505050565b600081519050611bd7816113fc565b92915050565b600060208284031215611bf357611bf2611303565b5b6000611c0184828501611bc8565b91505092915050565b600082825260208201905092915050565b7f536f72727920477561726469616e2c20746865726520617265206e6f7420656e60008201527f6f75676820636865737473206c6566742e000000000000000000000000000000602082015250565b6000611c77603183611c0a565b9150611c8282611c1b565b604082019050919050565b60006020820190508181036000830152611ca681611c6a565b9050919050565b7f4e487b7100000000000000000000000000000000000000000000000000000000600052601160045260246000fd5b6000611ce7826113c8565b9150611cf2836113c8565b9250828202611d00816113c8565b91508282048414831517611d1757611d16611cad565b5b5092915050565b7f536f72727920477561726469616e2c20796f7520646f206e6f7420686176652060008201527f656e6f756768206d6f6e65792e00000000000000000000000000000000000000602082015250565b6000611d7a602d83611c0a565b9150611d8582611d1e565b604082019050919050565b60006020820190508181036000830152611da981611d6d565b9050919050565b6000606082019050611dc5600083018661161b565b611dd2602083018561161b565b611ddf60408301846113d2565b949350505050565b611df081611392565b8114611dfb57600080fd5b50565b600081519050611e0d81611de7565b92915050565b600060208284031215611e2957611e28611303565b5b6000611e3784828501611dfe565b91505092915050565b600082825260208201905092915050565b50565b6000611e61600083611e40565b9150611e6c82611e51565b600082019050919050565b600060a082019050611e8c600083018761161b565b611e99602083018661161b565b611ea66040830185611b90565b611eb360608301846113d2565b8181036080830152611ec481611e54565b905095945050505050565b7f536f72727920477561726469616e2c20796f7520646f206e6f7420686176652060008201527f616e7920636865737420696e20796f757220696e76656e746f72792e00000000602082015250565b6000611f2b603c83611c0a565b9150611f3682611ecf565b604082019050919050565b60006020820190508181036000830152611f5a81611f1e565b9050919050565b7f4e487b7100000000000000000000000000000000000000000000000000000000600052603260045260246000fd5b6000611f9b826113c8565b91507fffffffffffffffffffffffffffffffffffffffffffffffffffffffffffffffff8203611fcd57611fcc611cad565b5b600182019050919050565b6000611fe382611535565b9150611fee83611535565b9250828201905060ff81111561200757612006611cad565b5b92915050565b7f53756d206f66207468652064726f702072617465206d7573742062652065676160008201527f6c20746f20313030000000000000000000000000000000000000000000000000602082015250565b6000612069602883611c0a565b91506120748261200d565b604082019050919050565b600060208201905081810360008301526120988161205c565b9050919050565b7f536f72727920477561726469616e2c207468652074726573757265206973206560008201527f6d707479203a2728200000000000000000000000000000000000000000000000602082015250565b60006120fb602983611c0a565b91506121068261209f565b604082019050919050565b6000602082019050818103600083015261212a816120ee565b9050919050565b6000604082019050612146600083018561161b565b61215360208301846113d2565b9392505050565b600081519050919050565b60005b83811015612183578082015181840152602081019050612168565b60008484015250505050565b600061219a8261215a565b6121a48185611e40565b93506121b4818560208601612165565b6121bd816116b6565b840191505092915050565b600060a0820190506121dd600083018861161b565b6121ea602083018761161b565b6121f760408301866113d2565b61220460608301856113d2565b8181036080830152612216818461218f565b90509695505050505050565b7f4f776e61626c653a206e6577206f776e657220697320746865207a65726f206160008201527f6464726573730000000000000000000000000000000000000000000000000000602082015250565b600061227e602683611c0a565b915061228982612222565b604082019050919050565b600060208201905081810360008301526122ad81612271565b9050919050565b60006122bf82611535565b91506122ca83611535565b92508282026122d881611535565b91508082146122ea576122e9611cad565b5b5092915050565b600061ffff82169050919050565b600061230a826122f1565b9150612315836122f1565b9250828202612323816122f1565b915080821461233557612334611cad565b5b5092915050565b6000612347826122f1565b9150612352836122f1565b9250828201905061ffff81111561236c5761236b611cad565b5b92915050565b7f4f776e61626c653a2063616c6c6572206973206e6f7420746865206f776e6572600082015250565b60006123a8602083611c0a565b91506123b382612372565b602082019050919050565b600060208201905081810360008301526123d78161239b565b9050919050565b6000819050919050565b6123f96123f4826113c8565b6123de565b82525050565b60008160601b9050919050565b6000612417826123ff565b9050919050565b60006124298261240c565b9050919050565b61244161243c82611609565b61241e565b82525050565b600061245382866123e8565b6020820191506124638285612430565b60148201915061247382846123e8565b602082019150819050949350505050565b7f4e487b7100000000000000000000000000000000000000000000000000000000600052601260045260246000fd5b60006124be826113c8565b91506124c9836113c8565b9250826124d9576124d8612484565b5b82820690509291505056fea26469706673582212203f386fb7f227fb4b26e09dcc0ab3797a701730702d899917b6c7fa51a37a261864736f6c63430008120033608060405234801561001057600080fd5b5061002d61002261003260201b60201c565b61003a60201b60201c565b6100fe565b600033905090565b60008060009054906101000a900473ffffffffffffffffffffffffffffffffffffffff169050816000806101000a81548173ffffffffffffffffffffffffffffffffffffffff021916908373ffffffffffffffffffffffffffffffffffffffff1602179055508173ffffffffffffffffffffffffffffffffffffffff168173ffffffffffffffffffffffffffffffffffffffff167f8be0079c531659141344cd1fd0a4f28419497f9722a3daafe3b4186f6b6457e060405160405180910390a35050565b6141bd8061010d6000396000f3fe60806040523480156200001157600080fd5b5060043610620000945760003560e01c80638da5cb5b11620000635780638da5cb5b1462000133578063bc197c811462000155578063f23a6e61146200018b578063f2fde38b14620001c15762000094565b806301ffc9a714620000995780636aa0037114620000cf578063715018a614620000f15780637f51b2dc14620000fd575b600080fd5b620000b76004803603810190620000b19190620006e0565b620001e1565b604051620000c691906200072f565b60405180910390f35b620000d96200025e565b604051620000e8919062000791565b60405180910390f35b620000fb62000284565b005b6200011b600480360381019062000115919062000910565b6200029c565b6040516200012a919062000791565b60405180910390f35b6200013d620003c9565b6040516200014c919062000791565b60405180910390f35b6200017360048036038101906200016d919062000b5c565b620003f2565b60405162000182919062000c52565b60405180910390f35b620001a96004803603810190620001a3919062000c6f565b62000407565b604051620001b8919062000c52565b60405180910390f35b620001df6004803603810190620001d9919062000d16565b6200041c565b005b60007f4e2312e0000000000000000000000000000000000000000000000000000000007bffffffffffffffffffffffffffffffffffffffffffffffffffffffff1916827bffffffffffffffffffffffffffffffffffffffffffffffffffffffff191614806200025757506200025682620004a6565b5b9050919050565b600160009054906101000a900473ffffffffffffffffffffffffffffffffffffffff1681565b6200028e62000510565b6200029a600062000595565b565b60008060405180602001620002b19062000661565b6020820181038252601f19601f820116604052509050600083604051602001620002dc919062000dc1565b604051602081830303815290604052805190602001209050808251602084016000f59250823b6200030c57600080fd5b60008390508073ffffffffffffffffffffffffffffffffffffffff166306f36e87336040518263ffffffff1660e01b81526004016200034c919062000791565b600060405180830381600087803b1580156200036757600080fd5b505af11580156200037c573d6000803e3d6000fd5b5050505083600160006101000a81548173ffffffffffffffffffffffffffffffffffffffff021916908373ffffffffffffffffffffffffffffffffffffffff160217905550505050919050565b60008060009054906101000a900473ffffffffffffffffffffffffffffffffffffffff16905090565b600063bc197c8160e01b905095945050505050565b600063f23a6e6160e01b905095945050505050565b6200042662000510565b600073ffffffffffffffffffffffffffffffffffffffff168173ffffffffffffffffffffffffffffffffffffffff160362000498576040517f08c379a00000000000000000000000000000000000000000000000000000000081526004016200048f9062000e61565b60405180910390fd5b620004a38162000595565b50565b60007f01ffc9a7000000000000000000000000000000000000000000000000000000007bffffffffffffffffffffffffffffffffffffffffffffffffffffffff1916827bffffffffffffffffffffffffffffffffffffffffffffffffffffffff1916149050919050565b6200051a62000659565b73ffffffffffffffffffffffffffffffffffffffff166200053a620003c9565b73ffffffffffffffffffffffffffffffffffffffff161462000593576040517f08c379a00000000000000000000000000000000000000000000000000000000081526004016200058a9062000ed3565b60405180910390fd5b565b60008060009054906101000a900473ffffffffffffffffffffffffffffffffffffffff169050816000806101000a81548173ffffffffffffffffffffffffffffffffffffffff021916908373ffffffffffffffffffffffffffffffffffffffff1602179055508173ffffffffffffffffffffffffffffffffffffffff168173ffffffffffffffffffffffffffffffffffffffff167f8be0079c531659141344cd1fd0a4f28419497f9722a3daafe3b4186f6b6457e060405160405180910390a35050565b600033905090565b6132928062000ef683390190565b6000604051905090565b600080fd5b600080fd5b60007fffffffff0000000000000000000000000000000000000000000000000000000082169050919050565b620006ba8162000683565b8114620006c657600080fd5b50565b600081359050620006da81620006af565b92915050565b600060208284031215620006f957620006f862000679565b5b60006200070984828501620006c9565b91505092915050565b60008115159050919050565b620007298162000712565b82525050565b60006020820190506200074660008301846200071e565b92915050565b600073ffffffffffffffffffffffffffffffffffffffff82169050919050565b600062000779826200074c565b9050919050565b6200078b816200076c565b82525050565b6000602082019050620007a8600083018462000780565b92915050565b600080fd5b600080fd5b6000601f19601f8301169050919050565b7f4e487b7100000000000000000000000000000000000000000000000000000000600052604160045260246000fd5b6200080382620007b8565b810181811067ffffffffffffffff82111715620008255762000824620007c9565b5b80604052505050565b60006200083a6200066f565b9050620008488282620007f8565b919050565b600067ffffffffffffffff8211156200086b576200086a620007c9565b5b6200087682620007b8565b9050602081019050919050565b82818337600083830152505050565b6000620008a9620008a3846200084d565b6200082e565b905082815260208101848484011115620008c857620008c7620007b3565b5b620008d584828562000883565b509392505050565b600082601f830112620008f557620008f4620007ae565b5b81356200090784826020860162000892565b91505092915050565b60006020828403121562000929576200092862000679565b5b600082013567ffffffffffffffff8111156200094a57620009496200067e565b5b6200095884828501620008dd565b91505092915050565b6200096c816200076c565b81146200097857600080fd5b50565b6000813590506200098c8162000961565b92915050565b600067ffffffffffffffff821115620009b057620009af620007c9565b5b602082029050602081019050919050565b600080fd5b6000819050919050565b620009db81620009c6565b8114620009e757600080fd5b50565b600081359050620009fb81620009d0565b92915050565b600062000a1862000a128462000992565b6200082e565b9050808382526020820190506020840283018581111562000a3e5762000a3d620009c1565b5b835b8181101562000a6b578062000a568882620009ea565b84526020840193505060208101905062000a40565b5050509392505050565b600082601f83011262000a8d5762000a8c620007ae565b5b813562000a9f84826020860162000a01565b91505092915050565b600067ffffffffffffffff82111562000ac65762000ac5620007c9565b5b62000ad182620007b8565b9050602081019050919050565b600062000af562000aef8462000aa8565b6200082e565b90508281526020810184848401111562000b145762000b13620007b3565b5b62000b2184828562000883565b509392505050565b600082601f83011262000b415762000b40620007ae565b5b813562000b5384826020860162000ade565b91505092915050565b600080600080600060a0868803121562000b7b5762000b7a62000679565b5b600062000b8b888289016200097b565b955050602062000b9e888289016200097b565b945050604086013567ffffffffffffffff81111562000bc25762000bc16200067e565b5b62000bd08882890162000a75565b935050606086013567ffffffffffffffff81111562000bf45762000bf36200067e565b5b62000c028882890162000a75565b925050608086013567ffffffffffffffff81111562000c265762000c256200067e565b5b62000c348882890162000b29565b9150509295509295909350565b62000c4c8162000683565b82525050565b600060208201905062000c69600083018462000c41565b92915050565b600080600080600060a0868803121562000c8e5762000c8d62000679565b5b600062000c9e888289016200097b565b955050602062000cb1888289016200097b565b945050604062000cc488828901620009ea565b935050606062000cd788828901620009ea565b925050608086013567ffffffffffffffff81111562000cfb5762000cfa6200067e565b5b62000d098882890162000b29565b9150509295509295909350565b60006020828403121562000d2f5762000d2e62000679565b5b600062000d3f848285016200097b565b91505092915050565b600081519050919050565b600081905092915050565b60005b8381101562000d7e57808201518184015260208101905062000d61565b60008484015250505050565b600062000d978262000d48565b62000da3818562000d53565b935062000db581856020860162000d5e565b80840191505092915050565b600062000dcf828462000d8a565b915081905092915050565b600082825260208201905092915050565b7f4f776e61626c653a206e6577206f776e657220697320746865207a65726f206160008201527f6464726573730000000000000000000000000000000000000000000000000000602082015250565b600062000e4960268362000dda565b915062000e568262000deb565b604082019050919050565b6000602082019050818103600083015262000e7c8162000e3a565b9050919050565b7f4f776e61626c653a2063616c6c6572206973206e6f7420746865206f776e6572600082015250565b600062000ebb60208362000dda565b915062000ec88262000e83565b602082019050919050565b6000602082019050818103600083015262000eee8162000eac565b905091905056fe60806040523480156200001157600080fd5b506040518060800160405280604d815260200162003245604d91396200003d816200006460201b60201c565b506200005e620000526200007960201b60201c565b6200008160201b60201c565b620004a8565b8060029081620000759190620003c1565b5050565b600033905090565b6000600360009054906101000a900473ffffffffffffffffffffffffffffffffffffffff16905081600360006101000a81548173ffffffffffffffffffffffffffffffffffffffff021916908373ffffffffffffffffffffffffffffffffffffffff1602179055508173ffffffffffffffffffffffffffffffffffffffff168173ffffffffffffffffffffffffffffffffffffffff167f8be0079c531659141344cd1fd0a4f28419497f9722a3daafe3b4186f6b6457e060405160405180910390a35050565b600081519050919050565b7f4e487b7100000000000000000000000000000000000000000000000000000000600052604160045260246000fd5b7f4e487b7100000000000000000000000000000000000000000000000000000000600052602260045260246000fd5b60006002820490506001821680620001c957607f821691505b602082108103620001df57620001de62000181565b5b50919050565b60008190508160005260206000209050919050565b60006020601f8301049050919050565b600082821b905092915050565b600060088302620002497fffffffffffffffffffffffffffffffffffffffffffffffffffffffffffffffff826200020a565b6200025586836200020a565b95508019841693508086168417925050509392505050565b6000819050919050565b6000819050919050565b6000620002a26200029c62000296846200026d565b62000277565b6200026d565b9050919050565b6000819050919050565b620002be8362000281565b620002d6620002cd82620002a9565b84845462000217565b825550505050565b600090565b620002ed620002de565b620002fa818484620002b3565b505050565b5b81811015620003225762000316600082620002e3565b60018101905062000300565b5050565b601f82111562000371576200033b81620001e5565b6200034684620001fa565b8101602085101562000356578190505b6200036e6200036585620001fa565b830182620002ff565b50505b505050565b600082821c905092915050565b6000620003966000198460080262000376565b1980831691505092915050565b6000620003b1838362000383565b9150826002028217905092915050565b620003cc8262000147565b67ffffffffffffffff811115620003e857620003e762000152565b5b620003f48254620001b0565b6200040182828562000326565b600060209050601f83116001811462000439576000841562000424578287015190505b620004308582620003a3565b865550620004a0565b601f1984166200044986620001e5565b60005b8281101562000473578489015182556001820191506020850194506020810190506200044c565b868310156200049357848901516200048f601f89168262000383565b8355505b6001600288020188555050505b505050505050565b612d8d80620004b86000396000f3fe608060405234801561001057600080fd5b50600436106100ce5760003560e01c8063715018a61161008c578063a68d1e1611610066578063a68d1e161461020f578063e985e9c51461022d578063f242432a1461025d578063f2fde38b14610279576100ce565b8063715018a6146101cb5780638da5cb5b146101d5578063a22cb465146101f3576100ce565b8062fdd58e146100d357806301ffc9a71461010357806306f36e87146101335780630e89341c1461014f5780632eb2c2d61461017f5780634e1273f41461019b575b600080fd5b6100ed60048036038101906100e89190611a2c565b610295565b6040516100fa9190611a7b565b60405180910390f35b61011d60048036038101906101189190611aee565b61035d565b60405161012a9190611b36565b60405180910390f35b61014d60048036038101906101489190611b51565b61043f565b005b61016960048036038101906101649190611b7e565b6105e9565b6040516101769190611c3b565b60405180910390f35b61019960048036038101906101949190611e5a565b61067d565b005b6101b560048036038101906101b09190611fec565b61071e565b6040516101c29190612122565b60405180910390f35b6101d3610837565b005b6101dd61084b565b6040516101ea9190612153565b60405180910390f35b61020d6004803603810190610208919061219a565b610875565b005b61021761088b565b6040516102249190612122565b60405180910390f35b610247600480360381019061024291906121da565b6108e3565b6040516102549190611b36565b60405180910390f35b6102776004803603810190610272919061221a565b610977565b005b610293600480360381019061028e9190611b51565b610a18565b005b60008073ffffffffffffffffffffffffffffffffffffffff168373ffffffffffffffffffffffffffffffffffffffff1603610305576040517f08c379a00000000000000000000000000000000000000000000000000000000081526004016102fc90612323565b60405180910390fd5b60008083815260200190815260200160002060008473ffffffffffffffffffffffffffffffffffffffff1673ffffffffffffffffffffffffffffffffffffffff16815260200190815260200160002054905092915050565b60007fd9b67a26000000000000000000000000000000000000000000000000000000007bffffffffffffffffffffffffffffffffffffffffffffffffffffffff1916827bffffffffffffffffffffffffffffffffffffffffffffffffffffffff1916148061042857507f0e89341c000000000000000000000000000000000000000000000000000000007bffffffffffffffffffffffffffffffffffffffffffffffffffffffff1916827bffffffffffffffffffffffffffffffffffffffffffffffffffffffff1916145b80610438575061043782610a9b565b5b9050919050565b600060019050600080600190505b600481116105c2576000810361046257600292505b6000600190505b8381116105ae5760005b600781101561059a5760005b600581101561058657600081600a846104989190612372565b6064866104a59190612372565b6103e8886104b39190612372565b6104bd91906123b4565b6104c791906123b4565b6104d191906123b4565b9050600082036104e657620f4240955061052e565b600182036104f957620186a0955061052d565b6002820361050b57612710955061052c565b6003820361051d576103e8955061052b565b6004820361052a57606495505b5b5b5b5b61054988828860405180602001604052806000815250610b05565b600481908060018154018082558091505060019003906000526020600020016000909190919091505550808061057e906123e8565b91505061047f565b508080610592906123e8565b915050610473565b5080806105a6906123e8565b915050610469565b5080806105ba906123e8565b91505061044d565b506105e483600064e8d4a5100060405180602001604052806000815250610b05565b505050565b6060600280546105f89061245f565b80601f01602080910402602001604051908101604052809291908181526020018280546106249061245f565b80156106715780601f1061064657610100808354040283529160200191610671565b820191906000526020600020905b81548152906001019060200180831161065457829003601f168201915b50505050509050919050565b610685610cb5565b73ffffffffffffffffffffffffffffffffffffffff168573ffffffffffffffffffffffffffffffffffffffff1614806106cb57506106ca856106c5610cb5565b6108e3565b5b61070a576040517f08c379a000000000000000000000000000000000000000000000000000000000815260040161070190612502565b60405180910390fd5b6107178585858585610cbd565b5050505050565b60608151835114610764576040517f08c379a000000000000000000000000000000000000000000000000000000000815260040161075b90612594565b60405180910390fd5b6000835167ffffffffffffffff81111561078157610780611c62565b5b6040519080825280602002602001820160405280156107af5781602001602082028036833780820191505090505b50905060005b845181101561082c576107fc8582815181106107d4576107d36125b4565b5b60200260200101518583815181106107ef576107ee6125b4565b5b6020026020010151610295565b82828151811061080f5761080e6125b4565b5b60200260200101818152505080610825906123e8565b90506107b5565b508091505092915050565b61083f610fde565b610849600061105c565b565b6000600360009054906101000a900473ffffffffffffffffffffffffffffffffffffffff16905090565b610887610880610cb5565b8383611122565b5050565b606060048054806020026020016040519081016040528092919081815260200182805480156108d957602002820191906000526020600020905b8154815260200190600101908083116108c5575b5050505050905090565b6000600160008473ffffffffffffffffffffffffffffffffffffffff1673ffffffffffffffffffffffffffffffffffffffff16815260200190815260200160002060008373ffffffffffffffffffffffffffffffffffffffff1673ffffffffffffffffffffffffffffffffffffffff16815260200190815260200160002060009054906101000a900460ff16905092915050565b61097f610cb5565b73ffffffffffffffffffffffffffffffffffffffff168573ffffffffffffffffffffffffffffffffffffffff1614806109c557506109c4856109bf610cb5565b6108e3565b5b610a04576040517f08c379a00000000000000000000000000000000000000000000000000000000081526004016109fb90612502565b60405180910390fd5b610a11858585858561128e565b5050505050565b610a20610fde565b600073ffffffffffffffffffffffffffffffffffffffff168173ffffffffffffffffffffffffffffffffffffffff1603610a8f576040517f08c379a0000000000000000000000000000000000000000000000000000000008152600401610a8690612655565b60405180910390fd5b610a988161105c565b50565b60007f01ffc9a7000000000000000000000000000000000000000000000000000000007bffffffffffffffffffffffffffffffffffffffffffffffffffffffff1916827bffffffffffffffffffffffffffffffffffffffffffffffffffffffff1916149050919050565b600073ffffffffffffffffffffffffffffffffffffffff168473ffffffffffffffffffffffffffffffffffffffff1603610b74576040517f08c379a0000000000000000000000000000000000000000000000000000000008152600401610b6b906126e7565b60405180910390fd5b6000610b7e610cb5565b90506000610b8b85611529565b90506000610b9885611529565b9050610ba9836000898585896115a3565b8460008088815260200190815260200160002060008973ffffffffffffffffffffffffffffffffffffffff1673ffffffffffffffffffffffffffffffffffffffff1681526020019081526020016000206000828254610c0891906123b4565b925050819055508673ffffffffffffffffffffffffffffffffffffffff16600073ffffffffffffffffffffffffffffffffffffffff168473ffffffffffffffffffffffffffffffffffffffff167fc3d58168c5ae7397731d063d5bbf3d657854427343f4c083240f7aacaa2d0f628989604051610c86929190612707565b60405180910390a4610c9d836000898585896115ab565b610cac836000898989896115b3565b50505050505050565b600033905090565b8151835114610d01576040517f08c379a0000000000000000000000000000000000000000000000000000000008152600401610cf8906127a2565b60405180910390fd5b600073ffffffffffffffffffffffffffffffffffffffff168473ffffffffffffffffffffffffffffffffffffffff1603610d70576040517f08c379a0000000000000000000000000000000000000000000000000000000008152600401610d6790612834565b60405180910390fd5b6000610d7a610cb5565b9050610d8a8187878787876115a3565b60005b8451811015610f3b576000858281518110610dab57610daa6125b4565b5b602002602001015190506000858381518110610dca57610dc96125b4565b5b60200260200101519050600080600084815260200190815260200160002060008b73ffffffffffffffffffffffffffffffffffffffff1673ffffffffffffffffffffffffffffffffffffffff16815260200190815260200160002054905081811015610e6b576040517f08c379a0000000000000000000000000000000000000000000000000000000008152600401610e62906128c6565b60405180910390fd5b81810360008085815260200190815260200160002060008c73ffffffffffffffffffffffffffffffffffffffff1673ffffffffffffffffffffffffffffffffffffffff168152602001908152602001600020819055508160008085815260200190815260200160002060008b73ffffffffffffffffffffffffffffffffffffffff1673ffffffffffffffffffffffffffffffffffffffff1681526020019081526020016000206000828254610f2091906123b4565b9250508190555050505080610f34906123e8565b9050610d8d565b508473ffffffffffffffffffffffffffffffffffffffff168673ffffffffffffffffffffffffffffffffffffffff168273ffffffffffffffffffffffffffffffffffffffff167f4a39dc06d4c0dbc64b70af90fd698a233a518aa5d07e595d983b8c0526c8f7fb8787604051610fb29291906128e6565b60405180910390a4610fc88187878787876115ab565b610fd681878787878761178a565b505050505050565b610fe6610cb5565b73ffffffffffffffffffffffffffffffffffffffff1661100461084b565b73ffffffffffffffffffffffffffffffffffffffff161461105a576040517f08c379a000000000000000000000000000000000000000000000000000000000815260040161105190612969565b60405180910390fd5b565b6000600360009054906101000a900473ffffffffffffffffffffffffffffffffffffffff16905081600360006101000a81548173ffffffffffffffffffffffffffffffffffffffff021916908373ffffffffffffffffffffffffffffffffffffffff1602179055508173ffffffffffffffffffffffffffffffffffffffff168173ffffffffffffffffffffffffffffffffffffffff167f8be0079c531659141344cd1fd0a4f28419497f9722a3daafe3b4186f6b6457e060405160405180910390a35050565b8173ffffffffffffffffffffffffffffffffffffffff168373ffffffffffffffffffffffffffffffffffffffff1603611190576040517f08c379a0000000000000000000000000000000000000000000000000000000008152600401611187906129fb565b60405180910390fd5b80600160008573ffffffffffffffffffffffffffffffffffffffff1673ffffffffffffffffffffffffffffffffffffffff16815260200190815260200160002060008473ffffffffffffffffffffffffffffffffffffffff1673ffffffffffffffffffffffffffffffffffffffff16815260200190815260200160002060006101000a81548160ff0219169083151502179055508173ffffffffffffffffffffffffffffffffffffffff168373ffffffffffffffffffffffffffffffffffffffff167f17307eab39ab6107e8899845ad3d59bd9653f200f220920489ca2b5937696c31836040516112819190611b36565b60405180910390a3505050565b600073ffffffffffffffffffffffffffffffffffffffff168473ffffffffffffffffffffffffffffffffffffffff16036112fd576040517f08c379a00000000000000000000000000000000000000000000000000000000081526004016112f490612834565b60405180910390fd5b6000611307610cb5565b9050600061131485611529565b9050600061132185611529565b90506113318389898585896115a3565b600080600088815260200190815260200160002060008a73ffffffffffffffffffffffffffffffffffffffff1673ffffffffffffffffffffffffffffffffffffffff168152602001908152602001600020549050858110156113c8576040517f08c379a00000000000000000000000000000000000000000000000000000000081526004016113bf906128c6565b60405180910390fd5b85810360008089815260200190815260200160002060008b73ffffffffffffffffffffffffffffffffffffffff1673ffffffffffffffffffffffffffffffffffffffff168152602001908152602001600020819055508560008089815260200190815260200160002060008a73ffffffffffffffffffffffffffffffffffffffff1673ffffffffffffffffffffffffffffffffffffffff168152602001908152602001600020600082825461147d91906123b4565b925050819055508773ffffffffffffffffffffffffffffffffffffffff168973ffffffffffffffffffffffffffffffffffffffff168573ffffffffffffffffffffffffffffffffffffffff167fc3d58168c5ae7397731d063d5bbf3d657854427343f4c083240f7aacaa2d0f628a8a6040516114fa929190612707565b60405180910390a4611510848a8a86868a6115ab565b61151e848a8a8a8a8a6115b3565b505050505050505050565b60606000600167ffffffffffffffff81111561154857611547611c62565b5b6040519080825280602002602001820160405280156115765781602001602082028036833780820191505090505b509050828160008151811061158e5761158d6125b4565b5b60200260200101818152505080915050919050565b505050505050565b505050505050565b6115d28473ffffffffffffffffffffffffffffffffffffffff16611961565b15611782578373ffffffffffffffffffffffffffffffffffffffff1663f23a6e6187878686866040518663ffffffff1660e01b8152600401611618959493929190612a70565b6020604051808303816000875af192505050801561165457506040513d601f19601f820116820180604052508101906116519190612adf565b60015b6116f957611660612b19565b806308c379a0036116bc5750611674612b3b565b8061167f57506116be565b806040517f08c379a00000000000000000000000000000000000000000000000000000000081526004016116b39190611c3b565b60405180910390fd5b505b6040517f08c379a00000000000000000000000000000000000000000000000000000000081526004016116f090612c3d565b60405180910390fd5b63f23a6e6160e01b7bffffffffffffffffffffffffffffffffffffffffffffffffffffffff1916817bffffffffffffffffffffffffffffffffffffffffffffffffffffffff191614611780576040517f08c379a000000000000000000000000000000000000000000000000000000000815260040161177790612ccf565b60405180910390fd5b505b505050505050565b6117a98473ffffffffffffffffffffffffffffffffffffffff16611961565b15611959578373ffffffffffffffffffffffffffffffffffffffff1663bc197c8187878686866040518663ffffffff1660e01b81526004016117ef959493929190612cef565b6020604051808303816000875af192505050801561182b57506040513d601f19601f820116820180604052508101906118289190612adf565b60015b6118d057611837612b19565b806308c379a003611893575061184b612b3b565b806118565750611895565b806040517f08c379a000000000000000000000000000000000000000000000000000000000815260040161188a9190611c3b565b60405180910390fd5b505b6040517f08c379a00000000000000000000000000000000000000000000000000000000081526004016118c790612c3d565b60405180910390fd5b63bc197c8160e01b7bffffffffffffffffffffffffffffffffffffffffffffffffffffffff1916817bffffffffffffffffffffffffffffffffffffffffffffffffffffffff191614611957576040517f08c379a000000000000000000000000000000000000000000000000000000000815260040161194e90612ccf565b60405180910390fd5b505b505050505050565b6000808273ffffffffffffffffffffffffffffffffffffffff163b119050919050565b6000604051905090565b600080fd5b600080fd5b600073ffffffffffffffffffffffffffffffffffffffff82169050919050565b60006119c382611998565b9050919050565b6119d3816119b8565b81146119de57600080fd5b50565b6000813590506119f0816119ca565b92915050565b6000819050919050565b611a09816119f6565b8114611a1457600080fd5b50565b600081359050611a2681611a00565b92915050565b60008060408385031215611a4357611a4261198e565b5b6000611a51858286016119e1565b9250506020611a6285828601611a17565b9150509250929050565b611a75816119f6565b82525050565b6000602082019050611a906000830184611a6c565b92915050565b60007fffffffff0000000000000000000000000000000000000000000000000000000082169050919050565b611acb81611a96565b8114611ad657600080fd5b50565b600081359050611ae881611ac2565b92915050565b600060208284031215611b0457611b0361198e565b5b6000611b1284828501611ad9565b91505092915050565b60008115159050919050565b611b3081611b1b565b82525050565b6000602082019050611b4b6000830184611b27565b92915050565b600060208284031215611b6757611b6661198e565b5b6000611b75848285016119e1565b91505092915050565b600060208284031215611b9457611b9361198e565b5b6000611ba284828501611a17565b91505092915050565b600081519050919050565b600082825260208201905092915050565b60005b83811015611be5578082015181840152602081019050611bca565b60008484015250505050565b6000601f19601f8301169050919050565b6000611c0d82611bab565b611c178185611bb6565b9350611c27818560208601611bc7565b611c3081611bf1565b840191505092915050565b60006020820190508181036000830152611c558184611c02565b905092915050565b600080fd5b7f4e487b7100000000000000000000000000000000000000000000000000000000600052604160045260246000fd5b611c9a82611bf1565b810181811067ffffffffffffffff82111715611cb957611cb8611c62565b5b80604052505050565b6000611ccc611984565b9050611cd88282611c91565b919050565b600067ffffffffffffffff821115611cf857611cf7611c62565b5b602082029050602081019050919050565b600080fd5b6000611d21611d1c84611cdd565b611cc2565b90508083825260208201905060208402830185811115611d4457611d43611d09565b5b835b81811015611d6d5780611d598882611a17565b845260208401935050602081019050611d46565b5050509392505050565b600082601f830112611d8c57611d8b611c5d565b5b8135611d9c848260208601611d0e565b91505092915050565b600080fd5b600067ffffffffffffffff821115611dc557611dc4611c62565b5b611dce82611bf1565b9050602081019050919050565b82818337600083830152505050565b6000611dfd611df884611daa565b611cc2565b905082815260208101848484011115611e1957611e18611da5565b5b611e24848285611ddb565b509392505050565b600082601f830112611e4157611e40611c5d565b5b8135611e51848260208601611dea565b91505092915050565b600080600080600060a08688031215611e7657611e7561198e565b5b6000611e84888289016119e1565b9550506020611e95888289016119e1565b945050604086013567ffffffffffffffff811115611eb657611eb5611993565b5b611ec288828901611d77565b935050606086013567ffffffffffffffff811115611ee357611ee2611993565b5b611eef88828901611d77565b925050608086013567ffffffffffffffff811115611f1057611f0f611993565b5b611f1c88828901611e2c565b9150509295509295909350565b600067ffffffffffffffff821115611f4457611f43611c62565b5b602082029050602081019050919050565b6000611f68611f6384611f29565b611cc2565b90508083825260208201905060208402830185811115611f8b57611f8a611d09565b5b835b81811015611fb45780611fa088826119e1565b845260208401935050602081019050611f8d565b5050509392505050565b600082601f830112611fd357611fd2611c5d565b5b8135611fe3848260208601611f55565b91505092915050565b600080604083850312156120035761200261198e565b5b600083013567ffffffffffffffff81111561202157612020611993565b5b61202d85828601611fbe565b925050602083013567ffffffffffffffff81111561204e5761204d611993565b5b61205a85828601611d77565b9150509250929050565b600081519050919050565b600082825260208201905092915050565b6000819050602082019050919050565b612099816119f6565b82525050565b60006120ab8383612090565b60208301905092915050565b6000602082019050919050565b60006120cf82612064565b6120d9818561206f565b93506120e483612080565b8060005b838110156121155781516120fc888261209f565b9750612107836120b7565b9250506001810190506120e8565b5085935050505092915050565b6000602082019050818103600083015261213c81846120c4565b905092915050565b61214d816119b8565b82525050565b60006020820190506121686000830184612144565b92915050565b61217781611b1b565b811461218257600080fd5b50565b6000813590506121948161216e565b92915050565b600080604083850312156121b1576121b061198e565b5b60006121bf858286016119e1565b92505060206121d085828601612185565b9150509250929050565b600080604083850312156121f1576121f061198e565b5b60006121ff858286016119e1565b9250506020612210858286016119e1565b9150509250929050565b600080600080600060a086880312156122365761223561198e565b5b6000612244888289016119e1565b9550506020612255888289016119e1565b945050604061226688828901611a17565b935050606061227788828901611a17565b925050608086013567ffffffffffffffff81111561229857612297611993565b5b6122a488828901611e2c565b9150509295509295909350565b7f455243313135353a2061646472657373207a65726f206973206e6f742061207660008201527f616c6964206f776e657200000000000000000000000000000000000000000000602082015250565b600061230d602a83611bb6565b9150612318826122b1565b604082019050919050565b6000602082019050818103600083015261233c81612300565b9050919050565b7f4e487b7100000000000000000000000000000000000000000000000000000000600052601160045260246000fd5b600061237d826119f6565b9150612388836119f6565b9250828202612396816119f6565b915082820484148315176123ad576123ac612343565b5b5092915050565b60006123bf826119f6565b91506123ca836119f6565b92508282019050808211156123e2576123e1612343565b5b92915050565b60006123f3826119f6565b91507fffffffffffffffffffffffffffffffffffffffffffffffffffffffffffffffff820361242557612424612343565b5b600182019050919050565b7f4e487b7100000000000000000000000000000000000000000000000000000000600052602260045260246000fd5b6000600282049050600182168061247757607f821691505b60208210810361248a57612489612430565b5b50919050565b7f455243313135353a2063616c6c6572206973206e6f7420746f6b656e206f776e60008201527f6572206f7220617070726f766564000000000000000000000000000000000000602082015250565b60006124ec602e83611bb6565b91506124f782612490565b604082019050919050565b6000602082019050818103600083015261251b816124df565b9050919050565b7f455243313135353a206163636f756e747320616e6420696473206c656e67746860008201527f206d69736d617463680000000000000000000000000000000000000000000000602082015250565b600061257e602983611bb6565b915061258982612522565b604082019050919050565b600060208201905081810360008301526125ad81612571565b9050919050565b7f4e487b7100000000000000000000000000000000000000000000000000000000600052603260045260246000fd5b7f4f776e61626c653a206e6577206f776e657220697320746865207a65726f206160008201527f6464726573730000000000000000000000000000000000000000000000000000602082015250565b600061263f602683611bb6565b915061264a826125e3565b604082019050919050565b6000602082019050818103600083015261266e81612632565b9050919050565b7f455243313135353a206d696e7420746f20746865207a65726f2061646472657360008201527f7300000000000000000000000000000000000000000000000000000000000000602082015250565b60006126d1602183611bb6565b91506126dc82612675565b604082019050919050565b60006020820190508181036000830152612700816126c4565b9050919050565b600060408201905061271c6000830185611a6c565b6127296020830184611a6c565b9392505050565b7f455243313135353a2069647320616e6420616d6f756e7473206c656e6774682060008201527f6d69736d61746368000000000000000000000000000000000000000000000000602082015250565b600061278c602883611bb6565b915061279782612730565b604082019050919050565b600060208201905081810360008301526127bb8161277f565b9050919050565b7f455243313135353a207472616e7366657220746f20746865207a65726f20616460008201527f6472657373000000000000000000000000000000000000000000000000000000602082015250565b600061281e602583611bb6565b9150612829826127c2565b604082019050919050565b6000602082019050818103600083015261284d81612811565b9050919050565b7f455243313135353a20696e73756666696369656e742062616c616e636520666f60008201527f72207472616e7366657200000000000000000000000000000000000000000000602082015250565b60006128b0602a83611bb6565b91506128bb82612854565b604082019050919050565b600060208201905081810360008301526128df816128a3565b9050919050565b6000604082019050818103600083015261290081856120c4565b9050818103602083015261291481846120c4565b90509392505050565b7f4f776e61626c653a2063616c6c6572206973206e6f7420746865206f776e6572600082015250565b6000612953602083611bb6565b915061295e8261291d565b602082019050919050565b6000602082019050818103600083015261298281612946565b9050919050565b7f455243313135353a2073657474696e6720617070726f76616c2073746174757360008201527f20666f722073656c660000000000000000000000000000000000000000000000602082015250565b60006129e5602983611bb6565b91506129f082612989565b604082019050919050565b60006020820190508181036000830152612a14816129d8565b9050919050565b600081519050919050565b600082825260208201905092915050565b6000612a4282612a1b565b612a4c8185612a26565b9350612a5c818560208601611bc7565b612a6581611bf1565b840191505092915050565b600060a082019050612a856000830188612144565b612a926020830187612144565b612a9f6040830186611a6c565b612aac6060830185611a6c565b8181036080830152612abe8184612a37565b90509695505050505050565b600081519050612ad981611ac2565b92915050565b600060208284031215612af557612af461198e565b5b6000612b0384828501612aca565b91505092915050565b60008160e01c9050919050565b600060033d1115612b385760046000803e612b35600051612b0c565b90505b90565b600060443d10612bc857612b4d611984565b60043d036004823e80513d602482011167ffffffffffffffff82111715612b75575050612bc8565b808201805167ffffffffffffffff811115612b935750505050612bc8565b80602083010160043d038501811115612bb0575050505050612bc8565b612bbf82602001850186611c91565b82955050505050505b90565b7f455243313135353a207472616e7366657220746f206e6f6e2d4552433131353560008201527f526563656976657220696d706c656d656e746572000000000000000000000000602082015250565b6000612c27603483611bb6565b9150612c3282612bcb565b604082019050919050565b60006020820190508181036000830152612c5681612c1a565b9050919050565b7f455243313135353a204552433131353552656365697665722072656a6563746560008201527f6420746f6b656e73000000000000000000000000000000000000000000000000602082015250565b6000612cb9602883611bb6565b9150612cc482612c5d565b604082019050919050565b60006020820190508181036000830152612ce881612cac565b9050919050565b600060a082019050612d046000830188612144565b612d116020830187612144565b8181036040830152612d2381866120c4565b90508181036060830152612d3781856120c4565b90508181036080830152612d4b8184612a37565b9050969550505050505056fea2646970667358221220471a6997ebea614d23daa21f4edae61eb9afd734be6b27655c94121112259b8064736f6c6343000812003368747470733a2f2f697066732e696f2f697066732f516d5a576a4c53347a446a5a364336345a65534b486b746364316a5275716e51507832676a3741716a46535532642f7b69647d2e6a736f6ea2646970667358221220b2036fb8578cc8b9d84e71a3a720e02f4fe46bc522d6b86023065ab4c61c2ff064736f6c6343000812003360806040523480156200001157600080fd5b506040518060400160405280600881526020017f475541524449414e0000000000000000000000000000000000000000000000008152506040518060400160405280600481526020017f4752444e0000000000000000000000000000000000000000000000000000000081525081600390816200008f9190620004b1565b508060049081620000a19190620004b1565b505050620000ba33633b9aca00620000c060201b60201c565b620006b3565b600073ffffffffffffffffffffffffffffffffffffffff168273ffffffffffffffffffffffffffffffffffffffff160362000132576040517f08c379a00000000000000000000000000000000000000000000000000000000081526004016200012990620005f9565b60405180910390fd5b62000146600083836200022d60201b60201c565b80600260008282546200015a91906200064a565b92505081905550806000808473ffffffffffffffffffffffffffffffffffffffff1673ffffffffffffffffffffffffffffffffffffffff168152602001908152602001600020600082825401925050819055508173ffffffffffffffffffffffffffffffffffffffff16600073ffffffffffffffffffffffffffffffffffffffff167fddf252ad1be2c89b69c2b068fc378daa952ba7f163c4a11628f55a4df523b3ef836040516200020d919062000696565b60405180910390a362000229600083836200023260201b60201c565b5050565b505050565b505050565b600081519050919050565b7f4e487b7100000000000000000000000000000000000000000000000000000000600052604160045260246000fd5b7f4e487b7100000000000000000000000000000000000000000000000000000000600052602260045260246000fd5b60006002820490506001821680620002b957607f821691505b602082108103620002cf57620002ce62000271565b5b50919050565b60008190508160005260206000209050919050565b60006020601f8301049050919050565b600082821b905092915050565b600060088302620003397fffffffffffffffffffffffffffffffffffffffffffffffffffffffffffffffff82620002fa565b620003458683620002fa565b95508019841693508086168417925050509392505050565b6000819050919050565b6000819050919050565b6000620003926200038c62000386846200035d565b62000367565b6200035d565b9050919050565b6000819050919050565b620003ae8362000371565b620003c6620003bd8262000399565b84845462000307565b825550505050565b600090565b620003dd620003ce565b620003ea818484620003a3565b505050565b5b81811015620004125762000406600082620003d3565b600181019050620003f0565b5050565b601f82111562000461576200042b81620002d5565b6200043684620002ea565b8101602085101562000446578190505b6200045e6200045585620002ea565b830182620003ef565b50505b505050565b600082821c905092915050565b6000620004866000198460080262000466565b1980831691505092915050565b6000620004a1838362000473565b9150826002028217905092915050565b620004bc8262000237565b67ffffffffffffffff811115620004d857620004d762000242565b5b620004e48254620002a0565b620004f182828562000416565b600060209050601f83116001811462000529576000841562000514578287015190505b62000520858262000493565b86555062000590565b601f1984166200053986620002d5565b60005b8281101562000563578489015182556001820191506020850194506020810190506200053c565b868310156200058357848901516200057f601f89168262000473565b8355505b6001600288020188555050505b505050505050565b600082825260208201905092915050565b7f45524332303a206d696e7420746f20746865207a65726f206164647265737300600082015250565b6000620005e1601f8362000598565b9150620005ee82620005a9565b602082019050919050565b600060208201905081810360008301526200061481620005d2565b9050919050565b7f4e487b7100000000000000000000000000000000000000000000000000000000600052601160045260246000fd5b600062000657826200035d565b915062000664836200035d565b92508282019050808211156200067f576200067e6200061b565b5b92915050565b62000690816200035d565b82525050565b6000602082019050620006ad600083018462000685565b92915050565b61122f80620006c36000396000f3fe608060405234801561001057600080fd5b50600436106100a95760003560e01c80633950935111610071578063395093511461016857806370a082311461019857806395d89b41146101c8578063a457c2d7146101e6578063a9059cbb14610216578063dd62ed3e14610246576100a9565b806306fdde03146100ae578063095ea7b3146100cc57806318160ddd146100fc57806323b872dd1461011a578063313ce5671461014a575b600080fd5b6100b6610276565b6040516100c39190610b0c565b60405180910390f35b6100e660048036038101906100e19190610bc7565b610308565b6040516100f39190610c22565b60405180910390f35b61010461032b565b6040516101119190610c4c565b60405180910390f35b610134600480360381019061012f9190610c67565b610335565b6040516101419190610c22565b60405180910390f35b610152610364565b60405161015f9190610cd6565b60405180910390f35b610182600480360381019061017d9190610bc7565b61036d565b60405161018f9190610c22565b60405180910390f35b6101b260048036038101906101ad9190610cf1565b6103a4565b6040516101bf9190610c4c565b60405180910390f35b6101d06103ec565b6040516101dd9190610b0c565b60405180910390f35b61020060048036038101906101fb9190610bc7565b61047e565b60405161020d9190610c22565b60405180910390f35b610230600480360381019061022b9190610bc7565b6104f5565b60405161023d9190610c22565b60405180910390f35b610260600480360381019061025b9190610d1e565b610518565b60405161026d9190610c4c565b60405180910390f35b60606003805461028590610d8d565b80601f01602080910402602001604051908101604052809291908181526020018280546102b190610d8d565b80156102fe5780601f106102d3576101008083540402835291602001916102fe565b820191906000526020600020905b8154815290600101906020018083116102e157829003601f168201915b5050505050905090565b60008061031361059f565b90506103208185856105a7565b600191505092915050565b6000600254905090565b60008061034061059f565b905061034d858285610770565b6103588585856107fc565b60019150509392505050565b60006012905090565b60008061037861059f565b905061039981858561038a8589610518565b6103949190610ded565b6105a7565b600191505092915050565b60008060008373ffffffffffffffffffffffffffffffffffffffff1673ffffffffffffffffffffffffffffffffffffffff168152602001908152602001600020549050919050565b6060600480546103fb90610d8d565b80601f016020809104026020016040519081016040528092919081815260200182805461042790610d8d565b80156104745780601f1061044957610100808354040283529160200191610474565b820191906000526020600020905b81548152906001019060200180831161045757829003601f168201915b5050505050905090565b60008061048961059f565b905060006104978286610518565b9050838110156104dc576040517f08c379a00000000000000000000000000000000000000000000000000000000081526004016104d390610e93565b60405180910390fd5b6104e982868684036105a7565b60019250505092915050565b60008061050061059f565b905061050d8185856107fc565b600191505092915050565b6000600160008473ffffffffffffffffffffffffffffffffffffffff1673ffffffffffffffffffffffffffffffffffffffff16815260200190815260200160002060008373ffffffffffffffffffffffffffffffffffffffff1673ffffffffffffffffffffffffffffffffffffffff16815260200190815260200160002054905092915050565b600033905090565b600073ffffffffffffffffffffffffffffffffffffffff168373ffffffffffffffffffffffffffffffffffffffff1603610616576040517f08c379a000000000000000000000000000000000000000000000000000000000815260040161060d90610f25565b60405180910390fd5b600073ffffffffffffffffffffffffffffffffffffffff168273ffffffffffffffffffffffffffffffffffffffff1603610685576040517f08c379a000000000000000000000000000000000000000000000000000000000815260040161067c90610fb7565b60405180910390fd5b80600160008573ffffffffffffffffffffffffffffffffffffffff1673ffffffffffffffffffffffffffffffffffffffff16815260200190815260200160002060008473ffffffffffffffffffffffffffffffffffffffff1673ffffffffffffffffffffffffffffffffffffffff168152602001908152602001600020819055508173ffffffffffffffffffffffffffffffffffffffff168373ffffffffffffffffffffffffffffffffffffffff167f8c5be1e5ebec7d5bd14f71427d1e84f3dd0314c0f7b2291e5b200ac8c7c3b925836040516107639190610c4c565b60405180910390a3505050565b600061077c8484610518565b90507fffffffffffffffffffffffffffffffffffffffffffffffffffffffffffffffff81146107f657818110156107e8576040517f08c379a00000000000000000000000000000000000000000000000000000000081526004016107df90611023565b60405180910390fd5b6107f584848484036105a7565b5b50505050565b600073ffffffffffffffffffffffffffffffffffffffff168373ffffffffffffffffffffffffffffffffffffffff160361086b576040517f08c379a0000000000000000000000000000000000000000000000000000000008152600401610862906110b5565b60405180910390fd5b600073ffffffffffffffffffffffffffffffffffffffff168273ffffffffffffffffffffffffffffffffffffffff16036108da576040517f08c379a00000000000000000000000000000000000000000000000000000000081526004016108d190611147565b60405180910390fd5b6108e5838383610a72565b60008060008573ffffffffffffffffffffffffffffffffffffffff1673ffffffffffffffffffffffffffffffffffffffff1681526020019081526020016000205490508181101561096b576040517f08c379a0000000000000000000000000000000000000000000000000000000008152600401610962906111d9565b60405180910390fd5b8181036000808673ffffffffffffffffffffffffffffffffffffffff1673ffffffffffffffffffffffffffffffffffffffff16815260200190815260200160002081905550816000808573ffffffffffffffffffffffffffffffffffffffff1673ffffffffffffffffffffffffffffffffffffffff168152602001908152602001600020600082825401925050819055508273ffffffffffffffffffffffffffffffffffffffff168473ffffffffffffffffffffffffffffffffffffffff167fddf252ad1be2c89b69c2b068fc378daa952ba7f163c4a11628f55a4df523b3ef84604051610a599190610c4c565b60405180910390a3610a6c848484610a77565b50505050565b505050565b505050565b600081519050919050565b600082825260208201905092915050565b60005b83811015610ab6578082015181840152602081019050610a9b565b60008484015250505050565b6000601f19601f8301169050919050565b6000610ade82610a7c565b610ae88185610a87565b9350610af8818560208601610a98565b610b0181610ac2565b840191505092915050565b60006020820190508181036000830152610b268184610ad3565b905092915050565b600080fd5b600073ffffffffffffffffffffffffffffffffffffffff82169050919050565b6000610b5e82610b33565b9050919050565b610b6e81610b53565b8114610b7957600080fd5b50565b600081359050610b8b81610b65565b92915050565b6000819050919050565b610ba481610b91565b8114610baf57600080fd5b50565b600081359050610bc181610b9b565b92915050565b60008060408385031215610bde57610bdd610b2e565b5b6000610bec85828601610b7c565b9250506020610bfd85828601610bb2565b9150509250929050565b60008115159050919050565b610c1c81610c07565b82525050565b6000602082019050610c376000830184610c13565b92915050565b610c4681610b91565b82525050565b6000602082019050610c616000830184610c3d565b92915050565b600080600060608486031215610c8057610c7f610b2e565b5b6000610c8e86828701610b7c565b9350506020610c9f86828701610b7c565b9250506040610cb086828701610bb2565b9150509250925092565b600060ff82169050919050565b610cd081610cba565b82525050565b6000602082019050610ceb6000830184610cc7565b92915050565b600060208284031215610d0757610d06610b2e565b5b6000610d1584828501610b7c565b91505092915050565b60008060408385031215610d3557610d34610b2e565b5b6000610d4385828601610b7c565b9250506020610d5485828601610b7c565b9150509250929050565b7f4e487b7100000000000000000000000000000000000000000000000000000000600052602260045260246000fd5b60006002820490506001821680610da557607f821691505b602082108103610db857610db7610d5e565b5b50919050565b7f4e487b7100000000000000000000000000000000000000000000000000000000600052601160045260246000fd5b6000610df882610b91565b9150610e0383610b91565b9250828201905080821115610e1b57610e1a610dbe565b5b92915050565b7f45524332303a2064656372656173656420616c6c6f77616e63652062656c6f7760008201527f207a65726f000000000000000000000000000000000000000000000000000000602082015250565b6000610e7d602583610a87565b9150610e8882610e21565b604082019050919050565b60006020820190508181036000830152610eac81610e70565b9050919050565b7f45524332303a20617070726f76652066726f6d20746865207a65726f2061646460008201527f7265737300000000000000000000000000000000000000000000000000000000602082015250565b6000610f0f602483610a87565b9150610f1a82610eb3565b604082019050919050565b60006020820190508181036000830152610f3e81610f02565b9050919050565b7f45524332303a20617070726f766520746f20746865207a65726f20616464726560008201527f7373000000000000000000000000000000000000000000000000000000000000602082015250565b6000610fa1602283610a87565b9150610fac82610f45565b604082019050919050565b60006020820190508181036000830152610fd081610f94565b9050919050565b7f45524332303a20696e73756666696369656e7420616c6c6f77616e6365000000600082015250565b600061100d601d83610a87565b915061101882610fd7565b602082019050919050565b6000602082019050818103600083015261103c81611000565b9050919050565b7f45524332303a207472616e736665722066726f6d20746865207a65726f20616460008201527f6472657373000000000000000000000000000000000000000000000000000000602082015250565b600061109f602583610a87565b91506110aa82611043565b604082019050919050565b600060208201905081810360008301526110ce81611092565b9050919050565b7f45524332303a207472616e7366657220746f20746865207a65726f206164647260008201527f6573730000000000000000000000000000000000000000000000000000000000602082015250565b6000611131602383610a87565b915061113c826110d5565b604082019050919050565b6000602082019050818103600083015261116081611124565b9050919050565b7f45524332303a207472616e7366657220616d6f756e742065786365656473206260008201527f616c616e63650000000000000000000000000000000000000000000000000000602082015250565b60006111c3602683610a87565b91506111ce82611167565b604082019050919050565b600060208201905081810360008301526111f2816111b6565b905091905056fea26469706673582212208dd0993c15a3941f676278e9ca6f5c887ebd133c64d8a1d671dc089c191e0e5e64736f6c63430008120033",
  "immutableReferences": {},
  "source": "// SPDX-License-Identifier: MIT\r\npragma solidity ^0.8.18;\r\n\r\nimport \"../node_modules/@openzeppelin/contracts/token/ERC1155/ERC1155.sol\";\r\nimport \"../node_modules/@openzeppelin/contracts/utils/Counters.sol\";\r\nimport \"../node_modules/@openzeppelin/contracts/access/Ownable.sol\";\r\nimport \"../node_modules/@openzeppelin/contracts/token/ERC1155/utils/ERC1155Holder.sol\";\r\n\r\nimport \"./Forge/ForgeMaster.sol\";\r\nimport \"./Forge/GuardianStuff.sol\";\r\nimport \"./Token/GuardianToken.sol\";\r\n\r\ncontract TreasureGuardian is Ownable, ERC1155Holder {\r\n    ForgeMaster public factory;\r\n    GuardianStuff public guardianStuff;\r\n    GuardianToken public guardianToken;\r\n\r\n    uint256 public chestPrice = 25;\r\n    uint256 private _nonce;\r\n\r\n    uint8 private _itemPerChest = 5;\r\n    uint8 private _dropRateCommon = 60;\r\n    uint8 private _dropRateUncommon = 25;\r\n    uint8 private _dropRateRare = 10;\r\n    uint8 private _dropRateEpic = 4;\r\n    uint8 private _dropRateLegendary = 1;\r\n\r\n    constructor() {\r\n        factory = new ForgeMaster();\r\n        address collectionAddress = factory.forgeCollection(\r\n            \"Node Guardians genesis collection\"\r\n        );\r\n        guardianStuff = GuardianStuff(collectionAddress);\r\n        guardianToken = new GuardianToken();\r\n    }\r\n\r\n    function safeTransferFrom(\r\n        address from,\r\n        address to,\r\n        uint id,\r\n        uint amount,\r\n        bytes memory data\r\n    ) external onlyOwner {\r\n        guardianStuff.safeTransferFrom(from, to, id, amount, data);\r\n    }\r\n\r\n    function rewardGuardianWithToken(\r\n        address guardianAddress,\r\n        uint256 amount\r\n    ) external onlyOwner {\r\n        require(\r\n            guardianToken.balanceOf(address(this)) > amount,\r\n            \"Sorry Guardian, the tresure is empty :'( \"\r\n        );\r\n\r\n        guardianToken.transfer(guardianAddress, amount);\r\n    }\r\n\r\n    function buyChest(uint amount) external {\r\n        uint8 chestItemID = 0;\r\n\r\n        require(\r\n            guardianStuff.balanceOf(address(this), chestItemID) > amount,\r\n            \"Sorry Guardian, there are not enough chests left.\"\r\n        );\r\n        require(\r\n            guardianToken.balanceOf(msg.sender) > chestPrice * amount,\r\n            \"Sorry Guardian, you do not have enough money.\"\r\n        );\r\n\r\n        guardianToken.transferFrom(\r\n            msg.sender,\r\n            address(this),\r\n            chestPrice * amount\r\n        );\r\n\r\n        guardianStuff.safeTransferFrom(\r\n            address(this),\r\n            msg.sender,\r\n            chestItemID,\r\n            amount,\r\n            \"\"\r\n        );\r\n    }\r\n\r\n    function modifyDropRate(\r\n        uint8 dropRateCommon,\r\n        uint8 dropRateUncommon,\r\n        uint8 dropRateRare,\r\n        uint8 dropRateEpic,\r\n        uint8 dropRateLegendary\r\n    ) external onlyOwner {\r\n        require(\r\n            (dropRateCommon +\r\n                dropRateUncommon +\r\n                dropRateRare +\r\n                dropRateEpic +\r\n                dropRateLegendary) == 100,\r\n            \"Sum of the drop rate must be egal to 100\"\r\n        );\r\n\r\n        _dropRateCommon = dropRateCommon;\r\n        _dropRateUncommon = dropRateUncommon;\r\n        _dropRateRare = dropRateRare;\r\n        _dropRateEpic = dropRateEpic;\r\n        _dropRateLegendary = dropRateLegendary;\r\n    }\r\n\r\n    function openChest() external returns (uint256[] memory ids) {\r\n        uint8 chestItemID = 0;\r\n\r\n        require(\r\n            guardianStuff.balanceOf(msg.sender, chestItemID) > 0,\r\n            \"Sorry Guardian, you do not have any chest in your inventory.\"\r\n        );\r\n        uint256[] memory itemIDs = new uint256[](_itemPerChest);\r\n        // TODO: Check balance of every item if there is still supply\r\n        // try to regroup by id to use the amount paramater in safeTransferFrom\r\n        for (uint i = 0; i < _itemPerChest; i++) {\r\n            uint256 itemID = _generateItemID();\r\n            itemIDs[i] = itemID;\r\n            // guardianStuff.safeTransferFrom(\r\n            //     address(this), // from\r\n            //     msg.sender, // to\r\n            //     itemID,\r\n            //     1,\r\n            //     \"\"\r\n            // );\r\n        }\r\n\r\n        return itemIDs;\r\n    }\r\n\r\n    function _generateItemID() private returns (uint256) {\r\n        // Get the rarity random number in function fo the drop rate\r\n        uint256 random = _random();\r\n        uint8 rarity;\r\n        if (random < _dropRateCommon) {\r\n            rarity = 0;\r\n        } else if (\r\n            random >= _dropRateCommon &&\r\n            random < (_dropRateCommon + _dropRateUncommon)\r\n        ) {\r\n            rarity = 2;\r\n        } else if (\r\n            random >= (_dropRateCommon + _dropRateUncommon) &&\r\n            random < (_dropRateCommon + _dropRateUncommon + _dropRateRare)\r\n        ) {\r\n            rarity = 3;\r\n        } else if (\r\n            random >= (_dropRateCommon + _dropRateUncommon + _dropRateRare) &&\r\n            random <\r\n            (_dropRateCommon +\r\n                _dropRateUncommon +\r\n                _dropRateRare +\r\n                _dropRateEpic)\r\n        ) {\r\n            rarity = 4;\r\n        } else if (\r\n            random >=\r\n            (_dropRateCommon +\r\n                _dropRateUncommon +\r\n                _dropRateRare +\r\n                _dropRateEpic) &&\r\n            random <\r\n            (_dropRateCommon +\r\n                _dropRateUncommon +\r\n                _dropRateRare +\r\n                _dropRateLegendary)\r\n        ) {\r\n            rarity = 5;\r\n        }\r\n\r\n        random = _random();\r\n        uint8 class = 1;\r\n        if (random < 33) {\r\n            class = 1;\r\n        } else if (random >= 33 && random < 66) {\r\n            class = 2;\r\n        } else if (random >= 66) {\r\n            class = 3;\r\n        }\r\n\r\n        uint8 set = 1;\r\n        if (class == 1) {\r\n            random = _random();\r\n            if (random >= 50) {\r\n                set = 2;\r\n            }\r\n        }\r\n\r\n        uint8 part = 1;\r\n        random = _random();\r\n        if (random < 17) {\r\n            part = 1;\r\n        } else if (random >= 17 && random < 34) {\r\n            part = 2;\r\n        } else if (random >= 34 && random < 51) {\r\n            part = 3;\r\n        } else if (random >= 51 && random < 68) {\r\n            part = 4;\r\n        } else if (random >= 68 && random < 84) {\r\n            part = 5;\r\n        } else if (random >= 84) {\r\n            part = 6;\r\n        }\r\n\r\n        uint itemID = (class * 1000) + (set * 100) + (part * 10) + (rarity);\r\n        return itemID;\r\n    }\r\n\r\n    /// improve: use chain link\r\n    function _random() private returns (uint256) {\r\n        _nonce++;\r\n        return\r\n            uint256(\r\n                keccak256(abi.encodePacked(block.timestamp, msg.sender, _nonce))\r\n            ) % 100;\r\n    }\r\n}\r\n",
  "sourcePath": "C:\\Users\\Alex\\Documents\\Travail\\Alyra\\NG-Marketplace\\truffle\\contracts\\TreasureGuardian.sol",
  "compiler": {
    "name": "solc",
    "version": "0.8.18+commit.87f61d96.Emscripten.clang"
  },
  "schemaVersion": "3.4.7",
  "updatedAt": "2023-04-07T21:30:58.709Z",
  "networkType": "ethereum",
  "devdoc": {
    "kind": "dev",
    "methods": {
      "owner()": {
        "details": "Returns the address of the current owner."
      },
      "renounceOwnership()": {
        "details": "Leaves the contract without owner. It will not be possible to call `onlyOwner` functions anymore. Can only be called by the current owner. NOTE: Renouncing ownership will leave the contract without an owner, thereby removing any functionality that is only available to the owner."
      },
      "supportsInterface(bytes4)": {
        "details": "See {IERC165-supportsInterface}."
      },
      "transferOwnership(address)": {
        "details": "Transfers ownership of the contract to a new account (`newOwner`). Can only be called by the current owner."
      }
    },
    "version": 1
  },
  "userdoc": {
    "kind": "user",
    "methods": {},
    "version": 1
  }
}