{
  "contractName": "TreasureGuardian",
  "abi": [
    {
      "inputs": [],
      "stateMutability": "nonpayable",
      "type": "constructor"
    },
    {
      "anonymous": false,
      "inputs": [
        {
          "indexed": true,
          "internalType": "address",
          "name": "previousOwner",
          "type": "address"
        },
        {
          "indexed": true,
          "internalType": "address",
          "name": "newOwner",
          "type": "address"
        }
      ],
      "name": "OwnershipTransferred",
      "type": "event"
    },
    {
      "inputs": [],
      "name": "factory",
      "outputs": [
        {
          "internalType": "contract ForgeMaster",
          "name": "",
          "type": "address"
        }
      ],
      "stateMutability": "view",
      "type": "function",
      "constant": true
    },
    {
      "inputs": [],
      "name": "guardianStuff",
      "outputs": [
        {
          "internalType": "contract GuardianStuff",
          "name": "",
          "type": "address"
        }
      ],
      "stateMutability": "view",
      "type": "function",
      "constant": true
    },
    {
      "inputs": [
        {
          "internalType": "address",
          "name": "",
          "type": "address"
        },
        {
          "internalType": "address",
          "name": "",
          "type": "address"
        },
        {
          "internalType": "uint256[]",
          "name": "",
          "type": "uint256[]"
        },
        {
          "internalType": "uint256[]",
          "name": "",
          "type": "uint256[]"
        },
        {
          "internalType": "bytes",
          "name": "",
          "type": "bytes"
        }
      ],
      "name": "onERC1155BatchReceived",
      "outputs": [
        {
          "internalType": "bytes4",
          "name": "",
          "type": "bytes4"
        }
      ],
      "stateMutability": "nonpayable",
      "type": "function"
    },
    {
      "inputs": [
        {
          "internalType": "address",
          "name": "",
          "type": "address"
        },
        {
          "internalType": "address",
          "name": "",
          "type": "address"
        },
        {
          "internalType": "uint256",
          "name": "",
          "type": "uint256"
        },
        {
          "internalType": "uint256",
          "name": "",
          "type": "uint256"
        },
        {
          "internalType": "bytes",
          "name": "",
          "type": "bytes"
        }
      ],
      "name": "onERC1155Received",
      "outputs": [
        {
          "internalType": "bytes4",
          "name": "",
          "type": "bytes4"
        }
      ],
      "stateMutability": "nonpayable",
      "type": "function"
    },
    {
      "inputs": [],
      "name": "owner",
      "outputs": [
        {
          "internalType": "address",
          "name": "",
          "type": "address"
        }
      ],
      "stateMutability": "view",
      "type": "function",
      "constant": true
    },
    {
      "inputs": [],
      "name": "renounceOwnership",
      "outputs": [],
      "stateMutability": "nonpayable",
      "type": "function"
    },
    {
      "inputs": [
        {
          "internalType": "bytes4",
          "name": "interfaceId",
          "type": "bytes4"
        }
      ],
      "name": "supportsInterface",
      "outputs": [
        {
          "internalType": "bool",
          "name": "",
          "type": "bool"
        }
      ],
      "stateMutability": "view",
      "type": "function",
      "constant": true
    },
    {
      "inputs": [
        {
          "internalType": "address",
          "name": "newOwner",
          "type": "address"
        }
      ],
      "name": "transferOwnership",
      "outputs": [],
      "stateMutability": "nonpayable",
      "type": "function"
    },
    {
      "inputs": [
        {
          "internalType": "address",
          "name": "from",
          "type": "address"
        },
        {
          "internalType": "address",
          "name": "to",
          "type": "address"
        },
        {
          "internalType": "uint256",
          "name": "id",
          "type": "uint256"
        },
        {
          "internalType": "uint256",
          "name": "amount",
          "type": "uint256"
        },
        {
          "internalType": "bytes",
          "name": "data",
          "type": "bytes"
        }
      ],
      "name": "safeTransferFrom",
      "outputs": [],
      "stateMutability": "nonpayable",
      "type": "function"
    }
  ],
  "bytecode": "0x60806040523480156200001157600080fd5b5062000032620000266200018b60201b60201c565b6200019360201b60201c565b604051620000409062000257565b604051809103906000f0801580156200005d573d6000803e3d6000fd5b50600160006101000a81548173ffffffffffffffffffffffffffffffffffffffff021916908373ffffffffffffffffffffffffffffffffffffffff1602179055506000600160009054906101000a900473ffffffffffffffffffffffffffffffffffffffff1673ffffffffffffffffffffffffffffffffffffffff16637f51b2dc6040518163ffffffff1660e01b8152600401620000fb90620002ec565b6020604051808303816000875af11580156200011b573d6000803e3d6000fd5b505050506040513d601f19601f8201168201806040525081019062000141919062000378565b905080600260006101000a81548173ffffffffffffffffffffffffffffffffffffffff021916908373ffffffffffffffffffffffffffffffffffffffff16021790555050620003aa565b600033905090565b60008060009054906101000a900473ffffffffffffffffffffffffffffffffffffffff169050816000806101000a81548173ffffffffffffffffffffffffffffffffffffffff021916908373ffffffffffffffffffffffffffffffffffffffff1602179055508173ffffffffffffffffffffffffffffffffffffffff168173ffffffffffffffffffffffffffffffffffffffff167f8be0079c531659141344cd1fd0a4f28419497f9722a3daafe3b4186f6b6457e060405160405180910390a35050565b6142a980620011c183390190565b600082825260208201905092915050565b7f4e6f646520477561726469616e732067656e6573697320636f6c6c656374696f60008201527f6e00000000000000000000000000000000000000000000000000000000000000602082015250565b6000620002d460218362000265565b9150620002e18262000276565b604082019050919050565b600060208201905081810360008301526200030781620002c5565b9050919050565b600080fd5b600073ffffffffffffffffffffffffffffffffffffffff82169050919050565b6000620003408262000313565b9050919050565b620003528162000333565b81146200035e57600080fd5b50565b600081519050620003728162000347565b92915050565b6000602082840312156200039157620003906200030e565b5b6000620003a18482850162000361565b91505092915050565b610e0780620003ba6000396000f3fe608060405234801561001057600080fd5b50600436106100935760003560e01c8063c45a015511610066578063c45a015514610120578063f15473041461013e578063f23a6e611461015c578063f242432a1461018c578063f2fde38b146101a857610093565b806301ffc9a714610098578063715018a6146100c85780638da5cb5b146100d2578063bc197c81146100f0575b600080fd5b6100b260048036038101906100ad9190610638565b6101c4565b6040516100bf9190610680565b60405180910390f35b6100d061023e565b005b6100da610252565b6040516100e791906106dc565b60405180910390f35b61010a60048036038101906101059190610967565b61027b565b6040516101179190610a45565b60405180910390f35b610128610290565b6040516101359190610abf565b60405180910390f35b6101466102b6565b6040516101539190610afb565b60405180910390f35b61017660048036038101906101719190610b16565b6102dc565b6040516101839190610a45565b60405180910390f35b6101a660048036038101906101a19190610b16565b6102f1565b005b6101c260048036038101906101bd9190610bad565b610395565b005b60007f4e2312e0000000000000000000000000000000000000000000000000000000007bffffffffffffffffffffffffffffffffffffffffffffffffffffffff1916827bffffffffffffffffffffffffffffffffffffffffffffffffffffffff19161480610237575061023682610418565b5b9050919050565b610246610482565b6102506000610500565b565b60008060009054906101000a900473ffffffffffffffffffffffffffffffffffffffff16905090565b600063bc197c8160e01b905095945050505050565b600160009054906101000a900473ffffffffffffffffffffffffffffffffffffffff1681565b600260009054906101000a900473ffffffffffffffffffffffffffffffffffffffff1681565b600063f23a6e6160e01b905095945050505050565b6102f9610482565b600260009054906101000a900473ffffffffffffffffffffffffffffffffffffffff1673ffffffffffffffffffffffffffffffffffffffff1663f242432a86868686866040518663ffffffff1660e01b815260040161035c959493929190610c68565b600060405180830381600087803b15801561037657600080fd5b505af115801561038a573d6000803e3d6000fd5b505050505050505050565b61039d610482565b600073ffffffffffffffffffffffffffffffffffffffff168173ffffffffffffffffffffffffffffffffffffffff160361040c576040517f08c379a000000000000000000000000000000000000000000000000000000000815260040161040390610d45565b60405180910390fd5b61041581610500565b50565b60007f01ffc9a7000000000000000000000000000000000000000000000000000000007bffffffffffffffffffffffffffffffffffffffffffffffffffffffff1916827bffffffffffffffffffffffffffffffffffffffffffffffffffffffff1916149050919050565b61048a6105c4565b73ffffffffffffffffffffffffffffffffffffffff166104a8610252565b73ffffffffffffffffffffffffffffffffffffffff16146104fe576040517f08c379a00000000000000000000000000000000000000000000000000000000081526004016104f590610db1565b60405180910390fd5b565b60008060009054906101000a900473ffffffffffffffffffffffffffffffffffffffff169050816000806101000a81548173ffffffffffffffffffffffffffffffffffffffff021916908373ffffffffffffffffffffffffffffffffffffffff1602179055508173ffffffffffffffffffffffffffffffffffffffff168173ffffffffffffffffffffffffffffffffffffffff167f8be0079c531659141344cd1fd0a4f28419497f9722a3daafe3b4186f6b6457e060405160405180910390a35050565b600033905090565b6000604051905090565b600080fd5b600080fd5b60007fffffffff0000000000000000000000000000000000000000000000000000000082169050919050565b610615816105e0565b811461062057600080fd5b50565b6000813590506106328161060c565b92915050565b60006020828403121561064e5761064d6105d6565b5b600061065c84828501610623565b91505092915050565b60008115159050919050565b61067a81610665565b82525050565b60006020820190506106956000830184610671565b92915050565b600073ffffffffffffffffffffffffffffffffffffffff82169050919050565b60006106c68261069b565b9050919050565b6106d6816106bb565b82525050565b60006020820190506106f160008301846106cd565b92915050565b610700816106bb565b811461070b57600080fd5b50565b60008135905061071d816106f7565b92915050565b600080fd5b6000601f19601f8301169050919050565b7f4e487b7100000000000000000000000000000000000000000000000000000000600052604160045260246000fd5b61077182610728565b810181811067ffffffffffffffff821117156107905761078f610739565b5b80604052505050565b60006107a36105cc565b90506107af8282610768565b919050565b600067ffffffffffffffff8211156107cf576107ce610739565b5b602082029050602081019050919050565b600080fd5b6000819050919050565b6107f8816107e5565b811461080357600080fd5b50565b600081359050610815816107ef565b92915050565b600061082e610829846107b4565b610799565b90508083825260208201905060208402830185811115610851576108506107e0565b5b835b8181101561087a57806108668882610806565b845260208401935050602081019050610853565b5050509392505050565b600082601f83011261089957610898610723565b5b81356108a984826020860161081b565b91505092915050565b600080fd5b600067ffffffffffffffff8211156108d2576108d1610739565b5b6108db82610728565b9050602081019050919050565b82818337600083830152505050565b600061090a610905846108b7565b610799565b905082815260208101848484011115610926576109256108b2565b5b6109318482856108e8565b509392505050565b600082601f83011261094e5761094d610723565b5b813561095e8482602086016108f7565b91505092915050565b600080600080600060a08688031215610983576109826105d6565b5b60006109918882890161070e565b95505060206109a28882890161070e565b945050604086013567ffffffffffffffff8111156109c3576109c26105db565b5b6109cf88828901610884565b935050606086013567ffffffffffffffff8111156109f0576109ef6105db565b5b6109fc88828901610884565b925050608086013567ffffffffffffffff811115610a1d57610a1c6105db565b5b610a2988828901610939565b9150509295509295909350565b610a3f816105e0565b82525050565b6000602082019050610a5a6000830184610a36565b92915050565b6000819050919050565b6000610a85610a80610a7b8461069b565b610a60565b61069b565b9050919050565b6000610a9782610a6a565b9050919050565b6000610aa982610a8c565b9050919050565b610ab981610a9e565b82525050565b6000602082019050610ad46000830184610ab0565b92915050565b6000610ae582610a8c565b9050919050565b610af581610ada565b82525050565b6000602082019050610b106000830184610aec565b92915050565b600080600080600060a08688031215610b3257610b316105d6565b5b6000610b408882890161070e565b9550506020610b518882890161070e565b9450506040610b6288828901610806565b9350506060610b7388828901610806565b925050608086013567ffffffffffffffff811115610b9457610b936105db565b5b610ba088828901610939565b9150509295509295909350565b600060208284031215610bc357610bc26105d6565b5b6000610bd18482850161070e565b91505092915050565b610be3816107e5565b82525050565b600081519050919050565b600082825260208201905092915050565b60005b83811015610c23578082015181840152602081019050610c08565b60008484015250505050565b6000610c3a82610be9565b610c448185610bf4565b9350610c54818560208601610c05565b610c5d81610728565b840191505092915050565b600060a082019050610c7d60008301886106cd565b610c8a60208301876106cd565b610c976040830186610bda565b610ca46060830185610bda565b8181036080830152610cb68184610c2f565b90509695505050505050565b600082825260208201905092915050565b7f4f776e61626c653a206e6577206f776e657220697320746865207a65726f206160008201527f6464726573730000000000000000000000000000000000000000000000000000602082015250565b6000610d2f602683610cc2565b9150610d3a82610cd3565b604082019050919050565b60006020820190508181036000830152610d5e81610d22565b9050919050565b7f4f776e61626c653a2063616c6c6572206973206e6f7420746865206f776e6572600082015250565b6000610d9b602083610cc2565b9150610da682610d65565b602082019050919050565b60006020820190508181036000830152610dca81610d8e565b905091905056fea26469706673582212201727552abba995f7d838a2001088a366cf3ea425db8d0792b507cf459db57e0f64736f6c63430008120033608060405234801561001057600080fd5b5061002d61002261003260201b60201c565b61003a60201b60201c565b6100fe565b600033905090565b60008060009054906101000a900473ffffffffffffffffffffffffffffffffffffffff169050816000806101000a81548173ffffffffffffffffffffffffffffffffffffffff021916908373ffffffffffffffffffffffffffffffffffffffff1602179055508173ffffffffffffffffffffffffffffffffffffffff168173ffffffffffffffffffffffffffffffffffffffff167f8be0079c531659141344cd1fd0a4f28419497f9722a3daafe3b4186f6b6457e060405160405180910390a35050565b61419c8061010d6000396000f3fe60806040523480156200001157600080fd5b5060043610620000945760003560e01c80638da5cb5b11620000635780638da5cb5b1462000133578063bc197c811462000155578063f23a6e61146200018b578063f2fde38b14620001c15762000094565b806301ffc9a714620000995780636aa0037114620000cf578063715018a614620000f15780637f51b2dc14620000fd575b600080fd5b620000b76004803603810190620000b19190620006e0565b620001e1565b604051620000c691906200072f565b60405180910390f35b620000d96200025e565b604051620000e8919062000791565b60405180910390f35b620000fb62000284565b005b6200011b600480360381019062000115919062000910565b6200029c565b6040516200012a919062000791565b60405180910390f35b6200013d620003c9565b6040516200014c919062000791565b60405180910390f35b6200017360048036038101906200016d919062000b5c565b620003f2565b60405162000182919062000c52565b60405180910390f35b620001a96004803603810190620001a3919062000c6f565b62000407565b604051620001b8919062000c52565b60405180910390f35b620001df6004803603810190620001d9919062000d16565b6200041c565b005b60007f4e2312e0000000000000000000000000000000000000000000000000000000007bffffffffffffffffffffffffffffffffffffffffffffffffffffffff1916827bffffffffffffffffffffffffffffffffffffffffffffffffffffffff191614806200025757506200025682620004a6565b5b9050919050565b600160009054906101000a900473ffffffffffffffffffffffffffffffffffffffff1681565b6200028e62000510565b6200029a600062000595565b565b60008060405180602001620002b19062000661565b6020820181038252601f19601f820116604052509050600083604051602001620002dc919062000dc1565b604051602081830303815290604052805190602001209050808251602084016000f59250823b6200030c57600080fd5b60008390508073ffffffffffffffffffffffffffffffffffffffff166306f36e87336040518263ffffffff1660e01b81526004016200034c919062000791565b600060405180830381600087803b1580156200036757600080fd5b505af11580156200037c573d6000803e3d6000fd5b5050505083600160006101000a81548173ffffffffffffffffffffffffffffffffffffffff021916908373ffffffffffffffffffffffffffffffffffffffff160217905550505050919050565b60008060009054906101000a900473ffffffffffffffffffffffffffffffffffffffff16905090565b600063bc197c8160e01b905095945050505050565b600063f23a6e6160e01b905095945050505050565b6200042662000510565b600073ffffffffffffffffffffffffffffffffffffffff168173ffffffffffffffffffffffffffffffffffffffff160362000498576040517f08c379a00000000000000000000000000000000000000000000000000000000081526004016200048f9062000e61565b60405180910390fd5b620004a38162000595565b50565b60007f01ffc9a7000000000000000000000000000000000000000000000000000000007bffffffffffffffffffffffffffffffffffffffffffffffffffffffff1916827bffffffffffffffffffffffffffffffffffffffffffffffffffffffff1916149050919050565b6200051a62000659565b73ffffffffffffffffffffffffffffffffffffffff166200053a620003c9565b73ffffffffffffffffffffffffffffffffffffffff161462000593576040517f08c379a00000000000000000000000000000000000000000000000000000000081526004016200058a9062000ed3565b60405180910390fd5b565b60008060009054906101000a900473ffffffffffffffffffffffffffffffffffffffff169050816000806101000a81548173ffffffffffffffffffffffffffffffffffffffff021916908373ffffffffffffffffffffffffffffffffffffffff1602179055508173ffffffffffffffffffffffffffffffffffffffff168173ffffffffffffffffffffffffffffffffffffffff167f8be0079c531659141344cd1fd0a4f28419497f9722a3daafe3b4186f6b6457e060405160405180910390a35050565b600033905090565b6132718062000ef683390190565b6000604051905090565b600080fd5b600080fd5b60007fffffffff0000000000000000000000000000000000000000000000000000000082169050919050565b620006ba8162000683565b8114620006c657600080fd5b50565b600081359050620006da81620006af565b92915050565b600060208284031215620006f957620006f862000679565b5b60006200070984828501620006c9565b91505092915050565b60008115159050919050565b620007298162000712565b82525050565b60006020820190506200074660008301846200071e565b92915050565b600073ffffffffffffffffffffffffffffffffffffffff82169050919050565b600062000779826200074c565b9050919050565b6200078b816200076c565b82525050565b6000602082019050620007a8600083018462000780565b92915050565b600080fd5b600080fd5b6000601f19601f8301169050919050565b7f4e487b7100000000000000000000000000000000000000000000000000000000600052604160045260246000fd5b6200080382620007b8565b810181811067ffffffffffffffff82111715620008255762000824620007c9565b5b80604052505050565b60006200083a6200066f565b9050620008488282620007f8565b919050565b600067ffffffffffffffff8211156200086b576200086a620007c9565b5b6200087682620007b8565b9050602081019050919050565b82818337600083830152505050565b6000620008a9620008a3846200084d565b6200082e565b905082815260208101848484011115620008c857620008c7620007b3565b5b620008d584828562000883565b509392505050565b600082601f830112620008f557620008f4620007ae565b5b81356200090784826020860162000892565b91505092915050565b60006020828403121562000929576200092862000679565b5b600082013567ffffffffffffffff8111156200094a57620009496200067e565b5b6200095884828501620008dd565b91505092915050565b6200096c816200076c565b81146200097857600080fd5b50565b6000813590506200098c8162000961565b92915050565b600067ffffffffffffffff821115620009b057620009af620007c9565b5b602082029050602081019050919050565b600080fd5b6000819050919050565b620009db81620009c6565b8114620009e757600080fd5b50565b600081359050620009fb81620009d0565b92915050565b600062000a1862000a128462000992565b6200082e565b9050808382526020820190506020840283018581111562000a3e5762000a3d620009c1565b5b835b8181101562000a6b578062000a568882620009ea565b84526020840193505060208101905062000a40565b5050509392505050565b600082601f83011262000a8d5762000a8c620007ae565b5b813562000a9f84826020860162000a01565b91505092915050565b600067ffffffffffffffff82111562000ac65762000ac5620007c9565b5b62000ad182620007b8565b9050602081019050919050565b600062000af562000aef8462000aa8565b6200082e565b90508281526020810184848401111562000b145762000b13620007b3565b5b62000b2184828562000883565b509392505050565b600082601f83011262000b415762000b40620007ae565b5b813562000b5384826020860162000ade565b91505092915050565b600080600080600060a0868803121562000b7b5762000b7a62000679565b5b600062000b8b888289016200097b565b955050602062000b9e888289016200097b565b945050604086013567ffffffffffffffff81111562000bc25762000bc16200067e565b5b62000bd08882890162000a75565b935050606086013567ffffffffffffffff81111562000bf45762000bf36200067e565b5b62000c028882890162000a75565b925050608086013567ffffffffffffffff81111562000c265762000c256200067e565b5b62000c348882890162000b29565b9150509295509295909350565b62000c4c8162000683565b82525050565b600060208201905062000c69600083018462000c41565b92915050565b600080600080600060a0868803121562000c8e5762000c8d62000679565b5b600062000c9e888289016200097b565b955050602062000cb1888289016200097b565b945050604062000cc488828901620009ea565b935050606062000cd788828901620009ea565b925050608086013567ffffffffffffffff81111562000cfb5762000cfa6200067e565b5b62000d098882890162000b29565b9150509295509295909350565b60006020828403121562000d2f5762000d2e62000679565b5b600062000d3f848285016200097b565b91505092915050565b600081519050919050565b600081905092915050565b60005b8381101562000d7e57808201518184015260208101905062000d61565b60008484015250505050565b600062000d978262000d48565b62000da3818562000d53565b935062000db581856020860162000d5e565b80840191505092915050565b600062000dcf828462000d8a565b915081905092915050565b600082825260208201905092915050565b7f4f776e61626c653a206e6577206f776e657220697320746865207a65726f206160008201527f6464726573730000000000000000000000000000000000000000000000000000602082015250565b600062000e4960268362000dda565b915062000e568262000deb565b604082019050919050565b6000602082019050818103600083015262000e7c8162000e3a565b9050919050565b7f4f776e61626c653a2063616c6c6572206973206e6f7420746865206f776e6572600082015250565b600062000ebb60208362000dda565b915062000ec88262000e83565b602082019050919050565b6000602082019050818103600083015262000eee8162000eac565b905091905056fe60806040523480156200001157600080fd5b506040518060800160405280604d815260200162003224604d91396200003d816200006460201b60201c565b506200005e620000526200007960201b60201c565b6200008160201b60201c565b620004a8565b8060029081620000759190620003c1565b5050565b600033905090565b6000600360009054906101000a900473ffffffffffffffffffffffffffffffffffffffff16905081600360006101000a81548173ffffffffffffffffffffffffffffffffffffffff021916908373ffffffffffffffffffffffffffffffffffffffff1602179055508173ffffffffffffffffffffffffffffffffffffffff168173ffffffffffffffffffffffffffffffffffffffff167f8be0079c531659141344cd1fd0a4f28419497f9722a3daafe3b4186f6b6457e060405160405180910390a35050565b600081519050919050565b7f4e487b7100000000000000000000000000000000000000000000000000000000600052604160045260246000fd5b7f4e487b7100000000000000000000000000000000000000000000000000000000600052602260045260246000fd5b60006002820490506001821680620001c957607f821691505b602082108103620001df57620001de62000181565b5b50919050565b60008190508160005260206000209050919050565b60006020601f8301049050919050565b600082821b905092915050565b600060088302620002497fffffffffffffffffffffffffffffffffffffffffffffffffffffffffffffffff826200020a565b6200025586836200020a565b95508019841693508086168417925050509392505050565b6000819050919050565b6000819050919050565b6000620002a26200029c62000296846200026d565b62000277565b6200026d565b9050919050565b6000819050919050565b620002be8362000281565b620002d6620002cd82620002a9565b84845462000217565b825550505050565b600090565b620002ed620002de565b620002fa818484620002b3565b505050565b5b81811015620003225762000316600082620002e3565b60018101905062000300565b5050565b601f82111562000371576200033b81620001e5565b6200034684620001fa565b8101602085101562000356578190505b6200036e6200036585620001fa565b830182620002ff565b50505b505050565b600082821c905092915050565b6000620003966000198460080262000376565b1980831691505092915050565b6000620003b1838362000383565b9150826002028217905092915050565b620003cc8262000147565b67ffffffffffffffff811115620003e857620003e762000152565b5b620003f48254620001b0565b6200040182828562000326565b600060209050601f83116001811462000439576000841562000424578287015190505b620004308582620003a3565b865550620004a0565b601f1984166200044986620001e5565b60005b8281101562000473578489015182556001820191506020850194506020810190506200044c565b868310156200049357848901516200048f601f89168262000383565b8355505b6001600288020188555050505b505050505050565b612d6c80620004b86000396000f3fe608060405234801561001057600080fd5b50600436106100ce5760003560e01c8063715018a61161008c578063a68d1e1611610066578063a68d1e161461020f578063e985e9c51461022d578063f242432a1461025d578063f2fde38b14610279576100ce565b8063715018a6146101cb5780638da5cb5b146101d5578063a22cb465146101f3576100ce565b8062fdd58e146100d357806301ffc9a71461010357806306f36e87146101335780630e89341c1461014f5780632eb2c2d61461017f5780634e1273f41461019b575b600080fd5b6100ed60048036038101906100e89190611a0b565b610295565b6040516100fa9190611a5a565b60405180910390f35b61011d60048036038101906101189190611acd565b61035d565b60405161012a9190611b15565b60405180910390f35b61014d60048036038101906101489190611b30565b61043f565b005b61016960048036038101906101649190611b5d565b6105c8565b6040516101769190611c1a565b60405180910390f35b61019960048036038101906101949190611e39565b61065c565b005b6101b560048036038101906101b09190611fcb565b6106fd565b6040516101c29190612101565b60405180910390f35b6101d3610816565b005b6101dd61082a565b6040516101ea9190612132565b60405180910390f35b61020d60048036038101906102089190612179565b610854565b005b61021761086a565b6040516102249190612101565b60405180910390f35b610247600480360381019061024291906121b9565b6108c2565b6040516102549190611b15565b60405180910390f35b610277600480360381019061027291906121f9565b610956565b005b610293600480360381019061028e9190611b30565b6109f7565b005b60008073ffffffffffffffffffffffffffffffffffffffff168373ffffffffffffffffffffffffffffffffffffffff1603610305576040517f08c379a00000000000000000000000000000000000000000000000000000000081526004016102fc90612302565b60405180910390fd5b60008083815260200190815260200160002060008473ffffffffffffffffffffffffffffffffffffffff1673ffffffffffffffffffffffffffffffffffffffff16815260200190815260200160002054905092915050565b60007fd9b67a26000000000000000000000000000000000000000000000000000000007bffffffffffffffffffffffffffffffffffffffffffffffffffffffff1916827bffffffffffffffffffffffffffffffffffffffffffffffffffffffff1916148061042857507f0e89341c000000000000000000000000000000000000000000000000000000007bffffffffffffffffffffffffffffffffffffffffffffffffffffffff1916827bffffffffffffffffffffffffffffffffffffffffffffffffffffffff1916145b80610438575061043782610a7a565b5b9050919050565b600060019050600080600190505b600481116105c2576000810361046257600292505b6000600190505b8381116105ae5760005b600781101561059a5760005b600581101561058657600081600a846104989190612351565b6064866104a59190612351565b6103e8886104b39190612351565b6104bd9190612393565b6104c79190612393565b6104d19190612393565b9050600082036104e657620f4240955061052e565b600182036104f957620186a0955061052d565b6002820361050b57612710955061052c565b6003820361051d576103e8955061052b565b6004820361052a57606495505b5b5b5b5b61054988828860405180602001604052806000815250610ae4565b600481908060018154018082558091505060019003906000526020600020016000909190919091505550808061057e906123c7565b91505061047f565b508080610592906123c7565b915050610473565b5080806105a6906123c7565b915050610469565b5080806105ba906123c7565b91505061044d565b50505050565b6060600280546105d79061243e565b80601f01602080910402602001604051908101604052809291908181526020018280546106039061243e565b80156106505780601f1061062557610100808354040283529160200191610650565b820191906000526020600020905b81548152906001019060200180831161063357829003601f168201915b50505050509050919050565b610664610c94565b73ffffffffffffffffffffffffffffffffffffffff168573ffffffffffffffffffffffffffffffffffffffff1614806106aa57506106a9856106a4610c94565b6108c2565b5b6106e9576040517f08c379a00000000000000000000000000000000000000000000000000000000081526004016106e0906124e1565b60405180910390fd5b6106f68585858585610c9c565b5050505050565b60608151835114610743576040517f08c379a000000000000000000000000000000000000000000000000000000000815260040161073a90612573565b60405180910390fd5b6000835167ffffffffffffffff8111156107605761075f611c41565b5b60405190808252806020026020018201604052801561078e5781602001602082028036833780820191505090505b50905060005b845181101561080b576107db8582815181106107b3576107b2612593565b5b60200260200101518583815181106107ce576107cd612593565b5b6020026020010151610295565b8282815181106107ee576107ed612593565b5b60200260200101818152505080610804906123c7565b9050610794565b508091505092915050565b61081e610fbd565b610828600061103b565b565b6000600360009054906101000a900473ffffffffffffffffffffffffffffffffffffffff16905090565b61086661085f610c94565b8383611101565b5050565b606060048054806020026020016040519081016040528092919081815260200182805480156108b857602002820191906000526020600020905b8154815260200190600101908083116108a4575b5050505050905090565b6000600160008473ffffffffffffffffffffffffffffffffffffffff1673ffffffffffffffffffffffffffffffffffffffff16815260200190815260200160002060008373ffffffffffffffffffffffffffffffffffffffff1673ffffffffffffffffffffffffffffffffffffffff16815260200190815260200160002060009054906101000a900460ff16905092915050565b61095e610c94565b73ffffffffffffffffffffffffffffffffffffffff168573ffffffffffffffffffffffffffffffffffffffff1614806109a457506109a38561099e610c94565b6108c2565b5b6109e3576040517f08c379a00000000000000000000000000000000000000000000000000000000081526004016109da906124e1565b60405180910390fd5b6109f0858585858561126d565b5050505050565b6109ff610fbd565b600073ffffffffffffffffffffffffffffffffffffffff168173ffffffffffffffffffffffffffffffffffffffff1603610a6e576040517f08c379a0000000000000000000000000000000000000000000000000000000008152600401610a6590612634565b60405180910390fd5b610a778161103b565b50565b60007f01ffc9a7000000000000000000000000000000000000000000000000000000007bffffffffffffffffffffffffffffffffffffffffffffffffffffffff1916827bffffffffffffffffffffffffffffffffffffffffffffffffffffffff1916149050919050565b600073ffffffffffffffffffffffffffffffffffffffff168473ffffffffffffffffffffffffffffffffffffffff1603610b53576040517f08c379a0000000000000000000000000000000000000000000000000000000008152600401610b4a906126c6565b60405180910390fd5b6000610b5d610c94565b90506000610b6a85611508565b90506000610b7785611508565b9050610b8883600089858589611582565b8460008088815260200190815260200160002060008973ffffffffffffffffffffffffffffffffffffffff1673ffffffffffffffffffffffffffffffffffffffff1681526020019081526020016000206000828254610be79190612393565b925050819055508673ffffffffffffffffffffffffffffffffffffffff16600073ffffffffffffffffffffffffffffffffffffffff168473ffffffffffffffffffffffffffffffffffffffff167fc3d58168c5ae7397731d063d5bbf3d657854427343f4c083240f7aacaa2d0f628989604051610c659291906126e6565b60405180910390a4610c7c8360008985858961158a565b610c8b83600089898989611592565b50505050505050565b600033905090565b8151835114610ce0576040517f08c379a0000000000000000000000000000000000000000000000000000000008152600401610cd790612781565b60405180910390fd5b600073ffffffffffffffffffffffffffffffffffffffff168473ffffffffffffffffffffffffffffffffffffffff1603610d4f576040517f08c379a0000000000000000000000000000000000000000000000000000000008152600401610d4690612813565b60405180910390fd5b6000610d59610c94565b9050610d69818787878787611582565b60005b8451811015610f1a576000858281518110610d8a57610d89612593565b5b602002602001015190506000858381518110610da957610da8612593565b5b60200260200101519050600080600084815260200190815260200160002060008b73ffffffffffffffffffffffffffffffffffffffff1673ffffffffffffffffffffffffffffffffffffffff16815260200190815260200160002054905081811015610e4a576040517f08c379a0000000000000000000000000000000000000000000000000000000008152600401610e41906128a5565b60405180910390fd5b81810360008085815260200190815260200160002060008c73ffffffffffffffffffffffffffffffffffffffff1673ffffffffffffffffffffffffffffffffffffffff168152602001908152602001600020819055508160008085815260200190815260200160002060008b73ffffffffffffffffffffffffffffffffffffffff1673ffffffffffffffffffffffffffffffffffffffff1681526020019081526020016000206000828254610eff9190612393565b9250508190555050505080610f13906123c7565b9050610d6c565b508473ffffffffffffffffffffffffffffffffffffffff168673ffffffffffffffffffffffffffffffffffffffff168273ffffffffffffffffffffffffffffffffffffffff167f4a39dc06d4c0dbc64b70af90fd698a233a518aa5d07e595d983b8c0526c8f7fb8787604051610f919291906128c5565b60405180910390a4610fa781878787878761158a565b610fb5818787878787611769565b505050505050565b610fc5610c94565b73ffffffffffffffffffffffffffffffffffffffff16610fe361082a565b73ffffffffffffffffffffffffffffffffffffffff1614611039576040517f08c379a000000000000000000000000000000000000000000000000000000000815260040161103090612948565b60405180910390fd5b565b6000600360009054906101000a900473ffffffffffffffffffffffffffffffffffffffff16905081600360006101000a81548173ffffffffffffffffffffffffffffffffffffffff021916908373ffffffffffffffffffffffffffffffffffffffff1602179055508173ffffffffffffffffffffffffffffffffffffffff168173ffffffffffffffffffffffffffffffffffffffff167f8be0079c531659141344cd1fd0a4f28419497f9722a3daafe3b4186f6b6457e060405160405180910390a35050565b8173ffffffffffffffffffffffffffffffffffffffff168373ffffffffffffffffffffffffffffffffffffffff160361116f576040517f08c379a0000000000000000000000000000000000000000000000000000000008152600401611166906129da565b60405180910390fd5b80600160008573ffffffffffffffffffffffffffffffffffffffff1673ffffffffffffffffffffffffffffffffffffffff16815260200190815260200160002060008473ffffffffffffffffffffffffffffffffffffffff1673ffffffffffffffffffffffffffffffffffffffff16815260200190815260200160002060006101000a81548160ff0219169083151502179055508173ffffffffffffffffffffffffffffffffffffffff168373ffffffffffffffffffffffffffffffffffffffff167f17307eab39ab6107e8899845ad3d59bd9653f200f220920489ca2b5937696c31836040516112609190611b15565b60405180910390a3505050565b600073ffffffffffffffffffffffffffffffffffffffff168473ffffffffffffffffffffffffffffffffffffffff16036112dc576040517f08c379a00000000000000000000000000000000000000000000000000000000081526004016112d390612813565b60405180910390fd5b60006112e6610c94565b905060006112f385611508565b9050600061130085611508565b9050611310838989858589611582565b600080600088815260200190815260200160002060008a73ffffffffffffffffffffffffffffffffffffffff1673ffffffffffffffffffffffffffffffffffffffff168152602001908152602001600020549050858110156113a7576040517f08c379a000000000000000000000000000000000000000000000000000000000815260040161139e906128a5565b60405180910390fd5b85810360008089815260200190815260200160002060008b73ffffffffffffffffffffffffffffffffffffffff1673ffffffffffffffffffffffffffffffffffffffff168152602001908152602001600020819055508560008089815260200190815260200160002060008a73ffffffffffffffffffffffffffffffffffffffff1673ffffffffffffffffffffffffffffffffffffffff168152602001908152602001600020600082825461145c9190612393565b925050819055508773ffffffffffffffffffffffffffffffffffffffff168973ffffffffffffffffffffffffffffffffffffffff168573ffffffffffffffffffffffffffffffffffffffff167fc3d58168c5ae7397731d063d5bbf3d657854427343f4c083240f7aacaa2d0f628a8a6040516114d99291906126e6565b60405180910390a46114ef848a8a86868a61158a565b6114fd848a8a8a8a8a611592565b505050505050505050565b60606000600167ffffffffffffffff81111561152757611526611c41565b5b6040519080825280602002602001820160405280156115555781602001602082028036833780820191505090505b509050828160008151811061156d5761156c612593565b5b60200260200101818152505080915050919050565b505050505050565b505050505050565b6115b18473ffffffffffffffffffffffffffffffffffffffff16611940565b15611761578373ffffffffffffffffffffffffffffffffffffffff1663f23a6e6187878686866040518663ffffffff1660e01b81526004016115f7959493929190612a4f565b6020604051808303816000875af192505050801561163357506040513d601f19601f820116820180604052508101906116309190612abe565b60015b6116d85761163f612af8565b806308c379a00361169b5750611653612b1a565b8061165e575061169d565b806040517f08c379a00000000000000000000000000000000000000000000000000000000081526004016116929190611c1a565b60405180910390fd5b505b6040517f08c379a00000000000000000000000000000000000000000000000000000000081526004016116cf90612c1c565b60405180910390fd5b63f23a6e6160e01b7bffffffffffffffffffffffffffffffffffffffffffffffffffffffff1916817bffffffffffffffffffffffffffffffffffffffffffffffffffffffff19161461175f576040517f08c379a000000000000000000000000000000000000000000000000000000000815260040161175690612cae565b60405180910390fd5b505b505050505050565b6117888473ffffffffffffffffffffffffffffffffffffffff16611940565b15611938578373ffffffffffffffffffffffffffffffffffffffff1663bc197c8187878686866040518663ffffffff1660e01b81526004016117ce959493929190612cce565b6020604051808303816000875af192505050801561180a57506040513d601f19601f820116820180604052508101906118079190612abe565b60015b6118af57611816612af8565b806308c379a003611872575061182a612b1a565b806118355750611874565b806040517f08c379a00000000000000000000000000000000000000000000000000000000081526004016118699190611c1a565b60405180910390fd5b505b6040517f08c379a00000000000000000000000000000000000000000000000000000000081526004016118a690612c1c565b60405180910390fd5b63bc197c8160e01b7bffffffffffffffffffffffffffffffffffffffffffffffffffffffff1916817bffffffffffffffffffffffffffffffffffffffffffffffffffffffff191614611936576040517f08c379a000000000000000000000000000000000000000000000000000000000815260040161192d90612cae565b60405180910390fd5b505b505050505050565b6000808273ffffffffffffffffffffffffffffffffffffffff163b119050919050565b6000604051905090565b600080fd5b600080fd5b600073ffffffffffffffffffffffffffffffffffffffff82169050919050565b60006119a282611977565b9050919050565b6119b281611997565b81146119bd57600080fd5b50565b6000813590506119cf816119a9565b92915050565b6000819050919050565b6119e8816119d5565b81146119f357600080fd5b50565b600081359050611a05816119df565b92915050565b60008060408385031215611a2257611a2161196d565b5b6000611a30858286016119c0565b9250506020611a41858286016119f6565b9150509250929050565b611a54816119d5565b82525050565b6000602082019050611a6f6000830184611a4b565b92915050565b60007fffffffff0000000000000000000000000000000000000000000000000000000082169050919050565b611aaa81611a75565b8114611ab557600080fd5b50565b600081359050611ac781611aa1565b92915050565b600060208284031215611ae357611ae261196d565b5b6000611af184828501611ab8565b91505092915050565b60008115159050919050565b611b0f81611afa565b82525050565b6000602082019050611b2a6000830184611b06565b92915050565b600060208284031215611b4657611b4561196d565b5b6000611b54848285016119c0565b91505092915050565b600060208284031215611b7357611b7261196d565b5b6000611b81848285016119f6565b91505092915050565b600081519050919050565b600082825260208201905092915050565b60005b83811015611bc4578082015181840152602081019050611ba9565b60008484015250505050565b6000601f19601f8301169050919050565b6000611bec82611b8a565b611bf68185611b95565b9350611c06818560208601611ba6565b611c0f81611bd0565b840191505092915050565b60006020820190508181036000830152611c348184611be1565b905092915050565b600080fd5b7f4e487b7100000000000000000000000000000000000000000000000000000000600052604160045260246000fd5b611c7982611bd0565b810181811067ffffffffffffffff82111715611c9857611c97611c41565b5b80604052505050565b6000611cab611963565b9050611cb78282611c70565b919050565b600067ffffffffffffffff821115611cd757611cd6611c41565b5b602082029050602081019050919050565b600080fd5b6000611d00611cfb84611cbc565b611ca1565b90508083825260208201905060208402830185811115611d2357611d22611ce8565b5b835b81811015611d4c5780611d3888826119f6565b845260208401935050602081019050611d25565b5050509392505050565b600082601f830112611d6b57611d6a611c3c565b5b8135611d7b848260208601611ced565b91505092915050565b600080fd5b600067ffffffffffffffff821115611da457611da3611c41565b5b611dad82611bd0565b9050602081019050919050565b82818337600083830152505050565b6000611ddc611dd784611d89565b611ca1565b905082815260208101848484011115611df857611df7611d84565b5b611e03848285611dba565b509392505050565b600082601f830112611e2057611e1f611c3c565b5b8135611e30848260208601611dc9565b91505092915050565b600080600080600060a08688031215611e5557611e5461196d565b5b6000611e63888289016119c0565b9550506020611e74888289016119c0565b945050604086013567ffffffffffffffff811115611e9557611e94611972565b5b611ea188828901611d56565b935050606086013567ffffffffffffffff811115611ec257611ec1611972565b5b611ece88828901611d56565b925050608086013567ffffffffffffffff811115611eef57611eee611972565b5b611efb88828901611e0b565b9150509295509295909350565b600067ffffffffffffffff821115611f2357611f22611c41565b5b602082029050602081019050919050565b6000611f47611f4284611f08565b611ca1565b90508083825260208201905060208402830185811115611f6a57611f69611ce8565b5b835b81811015611f935780611f7f88826119c0565b845260208401935050602081019050611f6c565b5050509392505050565b600082601f830112611fb257611fb1611c3c565b5b8135611fc2848260208601611f34565b91505092915050565b60008060408385031215611fe257611fe161196d565b5b600083013567ffffffffffffffff81111561200057611fff611972565b5b61200c85828601611f9d565b925050602083013567ffffffffffffffff81111561202d5761202c611972565b5b61203985828601611d56565b9150509250929050565b600081519050919050565b600082825260208201905092915050565b6000819050602082019050919050565b612078816119d5565b82525050565b600061208a838361206f565b60208301905092915050565b6000602082019050919050565b60006120ae82612043565b6120b8818561204e565b93506120c38361205f565b8060005b838110156120f45781516120db888261207e565b97506120e683612096565b9250506001810190506120c7565b5085935050505092915050565b6000602082019050818103600083015261211b81846120a3565b905092915050565b61212c81611997565b82525050565b60006020820190506121476000830184612123565b92915050565b61215681611afa565b811461216157600080fd5b50565b6000813590506121738161214d565b92915050565b600080604083850312156121905761218f61196d565b5b600061219e858286016119c0565b92505060206121af85828601612164565b9150509250929050565b600080604083850312156121d0576121cf61196d565b5b60006121de858286016119c0565b92505060206121ef858286016119c0565b9150509250929050565b600080600080600060a086880312156122155761221461196d565b5b6000612223888289016119c0565b9550506020612234888289016119c0565b9450506040612245888289016119f6565b9350506060612256888289016119f6565b925050608086013567ffffffffffffffff81111561227757612276611972565b5b61228388828901611e0b565b9150509295509295909350565b7f455243313135353a2061646472657373207a65726f206973206e6f742061207660008201527f616c6964206f776e657200000000000000000000000000000000000000000000602082015250565b60006122ec602a83611b95565b91506122f782612290565b604082019050919050565b6000602082019050818103600083015261231b816122df565b9050919050565b7f4e487b7100000000000000000000000000000000000000000000000000000000600052601160045260246000fd5b600061235c826119d5565b9150612367836119d5565b9250828202612375816119d5565b9150828204841483151761238c5761238b612322565b5b5092915050565b600061239e826119d5565b91506123a9836119d5565b92508282019050808211156123c1576123c0612322565b5b92915050565b60006123d2826119d5565b91507fffffffffffffffffffffffffffffffffffffffffffffffffffffffffffffffff820361240457612403612322565b5b600182019050919050565b7f4e487b7100000000000000000000000000000000000000000000000000000000600052602260045260246000fd5b6000600282049050600182168061245657607f821691505b6020821081036124695761246861240f565b5b50919050565b7f455243313135353a2063616c6c6572206973206e6f7420746f6b656e206f776e60008201527f6572206f7220617070726f766564000000000000000000000000000000000000602082015250565b60006124cb602e83611b95565b91506124d68261246f565b604082019050919050565b600060208201905081810360008301526124fa816124be565b9050919050565b7f455243313135353a206163636f756e747320616e6420696473206c656e67746860008201527f206d69736d617463680000000000000000000000000000000000000000000000602082015250565b600061255d602983611b95565b915061256882612501565b604082019050919050565b6000602082019050818103600083015261258c81612550565b9050919050565b7f4e487b7100000000000000000000000000000000000000000000000000000000600052603260045260246000fd5b7f4f776e61626c653a206e6577206f776e657220697320746865207a65726f206160008201527f6464726573730000000000000000000000000000000000000000000000000000602082015250565b600061261e602683611b95565b9150612629826125c2565b604082019050919050565b6000602082019050818103600083015261264d81612611565b9050919050565b7f455243313135353a206d696e7420746f20746865207a65726f2061646472657360008201527f7300000000000000000000000000000000000000000000000000000000000000602082015250565b60006126b0602183611b95565b91506126bb82612654565b604082019050919050565b600060208201905081810360008301526126df816126a3565b9050919050565b60006040820190506126fb6000830185611a4b565b6127086020830184611a4b565b9392505050565b7f455243313135353a2069647320616e6420616d6f756e7473206c656e6774682060008201527f6d69736d61746368000000000000000000000000000000000000000000000000602082015250565b600061276b602883611b95565b91506127768261270f565b604082019050919050565b6000602082019050818103600083015261279a8161275e565b9050919050565b7f455243313135353a207472616e7366657220746f20746865207a65726f20616460008201527f6472657373000000000000000000000000000000000000000000000000000000602082015250565b60006127fd602583611b95565b9150612808826127a1565b604082019050919050565b6000602082019050818103600083015261282c816127f0565b9050919050565b7f455243313135353a20696e73756666696369656e742062616c616e636520666f60008201527f72207472616e7366657200000000000000000000000000000000000000000000602082015250565b600061288f602a83611b95565b915061289a82612833565b604082019050919050565b600060208201905081810360008301526128be81612882565b9050919050565b600060408201905081810360008301526128df81856120a3565b905081810360208301526128f381846120a3565b90509392505050565b7f4f776e61626c653a2063616c6c6572206973206e6f7420746865206f776e6572600082015250565b6000612932602083611b95565b915061293d826128fc565b602082019050919050565b6000602082019050818103600083015261296181612925565b9050919050565b7f455243313135353a2073657474696e6720617070726f76616c2073746174757360008201527f20666f722073656c660000000000000000000000000000000000000000000000602082015250565b60006129c4602983611b95565b91506129cf82612968565b604082019050919050565b600060208201905081810360008301526129f3816129b7565b9050919050565b600081519050919050565b600082825260208201905092915050565b6000612a21826129fa565b612a2b8185612a05565b9350612a3b818560208601611ba6565b612a4481611bd0565b840191505092915050565b600060a082019050612a646000830188612123565b612a716020830187612123565b612a7e6040830186611a4b565b612a8b6060830185611a4b565b8181036080830152612a9d8184612a16565b90509695505050505050565b600081519050612ab881611aa1565b92915050565b600060208284031215612ad457612ad361196d565b5b6000612ae284828501612aa9565b91505092915050565b60008160e01c9050919050565b600060033d1115612b175760046000803e612b14600051612aeb565b90505b90565b600060443d10612ba757612b2c611963565b60043d036004823e80513d602482011167ffffffffffffffff82111715612b54575050612ba7565b808201805167ffffffffffffffff811115612b725750505050612ba7565b80602083010160043d038501811115612b8f575050505050612ba7565b612b9e82602001850186611c70565b82955050505050505b90565b7f455243313135353a207472616e7366657220746f206e6f6e2d4552433131353560008201527f526563656976657220696d706c656d656e746572000000000000000000000000602082015250565b6000612c06603483611b95565b9150612c1182612baa565b604082019050919050565b60006020820190508181036000830152612c3581612bf9565b9050919050565b7f455243313135353a204552433131353552656365697665722072656a6563746560008201527f6420746f6b656e73000000000000000000000000000000000000000000000000602082015250565b6000612c98602883611b95565b9150612ca382612c3c565b604082019050919050565b60006020820190508181036000830152612cc781612c8b565b9050919050565b600060a082019050612ce36000830188612123565b612cf06020830187612123565b8181036040830152612d0281866120a3565b90508181036060830152612d1681856120a3565b90508181036080830152612d2a8184612a16565b9050969550505050505056fea2646970667358221220bd1693991c66705912786ac8ef80fe6602c73fe597eea9dacb3c78df153b0d5564736f6c6343000812003368747470733a2f2f697066732e696f2f697066732f516d5a576a4c53347a446a5a364336345a65534b486b746364316a5275716e51507832676a3741716a46535532642f7b69647d2e6a736f6ea2646970667358221220e122dafeb8169f7794b8c2bae436a9e865de9e7aba3bdc8473cb160b664a8fcc64736f6c63430008120033",
  "immutableReferences": {},
  "source": "// SPDX-License-Identifier: MIT\r\npragma solidity ^0.8.18;\r\n\r\nimport \"../node_modules/@openzeppelin/contracts/token/ERC1155/ERC1155.sol\";\r\nimport \"../node_modules/@openzeppelin/contracts/utils/Counters.sol\";\r\nimport \"../node_modules/@openzeppelin/contracts/access/Ownable.sol\";\r\nimport \"../node_modules/@openzeppelin/contracts/token/ERC1155/utils/ERC1155Holder.sol\";\r\n\r\nimport \"./Forge/ForgeMaster.sol\";\r\nimport \"./Forge/GuardianStuff.sol\";\r\n\r\ncontract TreasureGuardian is Ownable, ERC1155Holder {\r\n    ForgeMaster public factory;\r\n    GuardianStuff public guardianStuff;\r\n\r\n    constructor() {\r\n        factory = new ForgeMaster();\r\n        address collectionAddress = factory.forgeCollection(\r\n            \"Node Guardians genesis collection\"\r\n        );\r\n        guardianStuff = GuardianStuff(collectionAddress);\r\n    }\r\n\r\n    function safeTransferFrom(\r\n        address from,\r\n        address to,\r\n        uint id,\r\n        uint amount,\r\n        bytes memory data\r\n    ) external onlyOwner {\r\n        guardianStuff.safeTransferFrom(from, to, id, amount, data);\r\n    }\r\n}\r\n",
  "sourcePath": "C:\\Users\\Alex\\Documents\\Travail\\Alyra\\NG-Marketplace\\truffle\\contracts\\TreasureGuardian.sol",
  "compiler": {
    "name": "solc",
    "version": "0.8.18+commit.87f61d96.Emscripten.clang"
  },
  "schemaVersion": "3.4.7",
  "updatedAt": "2023-04-07T14:19:31.528Z",
  "networkType": "ethereum",
  "devdoc": {
    "kind": "dev",
    "methods": {
      "owner()": {
        "details": "Returns the address of the current owner."
      },
      "renounceOwnership()": {
        "details": "Leaves the contract without owner. It will not be possible to call `onlyOwner` functions anymore. Can only be called by the current owner. NOTE: Renouncing ownership will leave the contract without an owner, thereby removing any functionality that is only available to the owner."
      },
      "supportsInterface(bytes4)": {
        "details": "See {IERC165-supportsInterface}."
      },
      "transferOwnership(address)": {
        "details": "Transfers ownership of the contract to a new account (`newOwner`). Can only be called by the current owner."
      }
    },
    "version": 1
  },
  "userdoc": {
    "kind": "user",
    "methods": {},
    "version": 1
  }
}