{
  "contractName": "TreasureGuardian",
  "abi": [
    {
      "inputs": [],
      "stateMutability": "nonpayable",
      "type": "constructor"
    },
    {
      "anonymous": false,
      "inputs": [
        {
          "indexed": true,
          "internalType": "address",
          "name": "previousOwner",
          "type": "address"
        },
        {
          "indexed": true,
          "internalType": "address",
          "name": "newOwner",
          "type": "address"
        }
      ],
      "name": "OwnershipTransferred",
      "type": "event"
    },
    {
      "anonymous": false,
      "inputs": [
        {
          "indexed": false,
          "internalType": "address",
          "name": "to",
          "type": "address"
        },
        {
          "indexed": false,
          "internalType": "uint256[]",
          "name": "ids",
          "type": "uint256[]"
        },
        {
          "indexed": false,
          "internalType": "uint256[]",
          "name": "missingIds",
          "type": "uint256[]"
        }
      ],
      "name": "onStuffTransferedTo",
      "type": "event"
    },
    {
      "inputs": [],
      "name": "chestPrice",
      "outputs": [
        {
          "internalType": "uint256",
          "name": "",
          "type": "uint256"
        }
      ],
      "stateMutability": "view",
      "type": "function",
      "constant": true
    },
    {
      "inputs": [],
      "name": "factory",
      "outputs": [
        {
          "internalType": "contract ForgeMaster",
          "name": "",
          "type": "address"
        }
      ],
      "stateMutability": "view",
      "type": "function",
      "constant": true
    },
    {
      "inputs": [],
      "name": "guardianStuff",
      "outputs": [
        {
          "internalType": "contract GuardianStuff",
          "name": "",
          "type": "address"
        }
      ],
      "stateMutability": "view",
      "type": "function",
      "constant": true
    },
    {
      "inputs": [],
      "name": "guardianToken",
      "outputs": [
        {
          "internalType": "contract GuardianToken",
          "name": "",
          "type": "address"
        }
      ],
      "stateMutability": "view",
      "type": "function",
      "constant": true
    },
    {
      "inputs": [
        {
          "internalType": "address",
          "name": "",
          "type": "address"
        },
        {
          "internalType": "address",
          "name": "",
          "type": "address"
        },
        {
          "internalType": "uint256[]",
          "name": "",
          "type": "uint256[]"
        },
        {
          "internalType": "uint256[]",
          "name": "",
          "type": "uint256[]"
        },
        {
          "internalType": "bytes",
          "name": "",
          "type": "bytes"
        }
      ],
      "name": "onERC1155BatchReceived",
      "outputs": [
        {
          "internalType": "bytes4",
          "name": "",
          "type": "bytes4"
        }
      ],
      "stateMutability": "nonpayable",
      "type": "function"
    },
    {
      "inputs": [
        {
          "internalType": "address",
          "name": "",
          "type": "address"
        },
        {
          "internalType": "address",
          "name": "",
          "type": "address"
        },
        {
          "internalType": "uint256",
          "name": "",
          "type": "uint256"
        },
        {
          "internalType": "uint256",
          "name": "",
          "type": "uint256"
        },
        {
          "internalType": "bytes",
          "name": "",
          "type": "bytes"
        }
      ],
      "name": "onERC1155Received",
      "outputs": [
        {
          "internalType": "bytes4",
          "name": "",
          "type": "bytes4"
        }
      ],
      "stateMutability": "nonpayable",
      "type": "function"
    },
    {
      "inputs": [],
      "name": "owner",
      "outputs": [
        {
          "internalType": "address",
          "name": "",
          "type": "address"
        }
      ],
      "stateMutability": "view",
      "type": "function",
      "constant": true
    },
    {
      "inputs": [],
      "name": "renounceOwnership",
      "outputs": [],
      "stateMutability": "nonpayable",
      "type": "function"
    },
    {
      "inputs": [
        {
          "internalType": "bytes4",
          "name": "interfaceId",
          "type": "bytes4"
        }
      ],
      "name": "supportsInterface",
      "outputs": [
        {
          "internalType": "bool",
          "name": "",
          "type": "bool"
        }
      ],
      "stateMutability": "view",
      "type": "function",
      "constant": true
    },
    {
      "inputs": [
        {
          "internalType": "address",
          "name": "newOwner",
          "type": "address"
        }
      ],
      "name": "transferOwnership",
      "outputs": [],
      "stateMutability": "nonpayable",
      "type": "function"
    },
    {
      "inputs": [],
      "name": "createCollection",
      "outputs": [],
      "stateMutability": "nonpayable",
      "type": "function"
    },
    {
      "inputs": [
        {
          "internalType": "address",
          "name": "from",
          "type": "address"
        },
        {
          "internalType": "address",
          "name": "to",
          "type": "address"
        },
        {
          "internalType": "uint256",
          "name": "id",
          "type": "uint256"
        },
        {
          "internalType": "uint256",
          "name": "amount",
          "type": "uint256"
        },
        {
          "internalType": "bytes",
          "name": "data",
          "type": "bytes"
        }
      ],
      "name": "safeTransferFrom",
      "outputs": [],
      "stateMutability": "nonpayable",
      "type": "function"
    },
    {
      "inputs": [
        {
          "internalType": "address",
          "name": "guardianAddress",
          "type": "address"
        },
        {
          "internalType": "uint256",
          "name": "amount",
          "type": "uint256"
        }
      ],
      "name": "rewardGuardianWithToken",
      "outputs": [],
      "stateMutability": "nonpayable",
      "type": "function"
    },
    {
      "inputs": [
        {
          "internalType": "uint256",
          "name": "amount",
          "type": "uint256"
        }
      ],
      "name": "buyChest",
      "outputs": [],
      "stateMutability": "nonpayable",
      "type": "function"
    },
    {
      "inputs": [
        {
          "internalType": "uint8",
          "name": "dropRateCommon",
          "type": "uint8"
        },
        {
          "internalType": "uint8",
          "name": "dropRateUncommon",
          "type": "uint8"
        },
        {
          "internalType": "uint8",
          "name": "dropRateRare",
          "type": "uint8"
        },
        {
          "internalType": "uint8",
          "name": "dropRateEpic",
          "type": "uint8"
        },
        {
          "internalType": "uint8",
          "name": "dropRateLegendary",
          "type": "uint8"
        }
      ],
      "name": "modifyDropRate",
      "outputs": [],
      "stateMutability": "nonpayable",
      "type": "function"
    },
    {
      "inputs": [],
      "name": "openChest",
      "outputs": [
        {
          "internalType": "uint256[]",
          "name": "ids",
          "type": "uint256[]"
        }
      ],
      "stateMutability": "nonpayable",
      "type": "function"
    }
  ],
  "bytecode": "0x608060405268015af1d78b58c400006004556005600660006101000a81548160ff021916908360ff160217905550603c600660016101000a81548160ff021916908360ff1602179055506019600660026101000a81548160ff021916908360ff160217905550600a600660036101000a81548160ff021916908360ff1602179055506004600660046101000a81548160ff021916908360ff1602179055506001600660056101000a81548160ff021916908360ff160217905550348015620000c657600080fd5b50620000e7620000db620001c560201b60201c565b620001cd60201b60201c565b604051620000f59062000291565b604051809103906000f08015801562000112573d6000803e3d6000fd5b50600360006101000a81548173ffffffffffffffffffffffffffffffffffffffff021916908373ffffffffffffffffffffffffffffffffffffffff16021790555060405162000161906200029f565b604051809103906000f0801580156200017e573d6000803e3d6000fd5b50600160006101000a81548173ffffffffffffffffffffffffffffffffffffffff021916908373ffffffffffffffffffffffffffffffffffffffff160217905550620002ad565b600033905090565b60008060009054906101000a900473ffffffffffffffffffffffffffffffffffffffff169050816000806101000a81548173ffffffffffffffffffffffffffffffffffffffff021916908373ffffffffffffffffffffffffffffffffffffffff1602179055508173ffffffffffffffffffffffffffffffffffffffff168173ffffffffffffffffffffffffffffffffffffffff167f8be0079c531659141344cd1fd0a4f28419497f9722a3daafe3b4186f6b6457e060405160405180910390a35050565b6118fa8062002e1383390190565b614450806200470d83390190565b612b5680620002bd6000396000f3fe608060405234801561001057600080fd5b50600436106101005760003560e01c8063ae196ec811610097578063f23a6e6111610066578063f23a6e6114610263578063f242432a14610293578063f2fde38b146102af578063fa180dc9146102cb57610100565b8063ae196ec8146101db578063bc197c81146101f7578063c45a015514610227578063f15473041461024557610100565b80636f49a3c0116100d35780636f49a3c014610179578063715018a614610197578063829a826a146101a15780638da5cb5b146101bd57610100565b806301ffc9a714610105578063444e56ed146101355780634e19254814610153578063647f1a9c1461016f575b600080fd5b61011f600480360381019061011a91906117b3565b6102e9565b60405161012c91906117fb565b60405180910390f35b61013d610363565b60405161014a919061182f565b60405180910390f35b61016d60048036038101906101689190611876565b610369565b005b61017761070d565b005b61018161087b565b60405161018e9190611961565b60405180910390f35b61019f610cbd565b005b6101bb60048036038101906101b691906119bc565b610cd1565b005b6101c5610dd9565b6040516101d29190611a78565b60405180910390f35b6101f560048036038101906101f09190611abf565b610e02565b005b610211600480360381019061020c9190611d0d565b610f8c565b60405161021e9190611deb565b60405180910390f35b61022f610fa1565b60405161023c9190611e65565b60405180910390f35b61024d610fc7565b60405161025a9190611ea1565b60405180910390f35b61027d60048036038101906102789190611ebc565b610fed565b60405161028a9190611deb565b60405180910390f35b6102ad60048036038101906102a89190611ebc565b611002565b005b6102c960048036038101906102c49190611f53565b6110a6565b005b6102d3611129565b6040516102e09190611fa1565b60405180910390f35b60007f4e2312e0000000000000000000000000000000000000000000000000000000007bffffffffffffffffffffffffffffffffffffffffffffffffffffffff1916827bffffffffffffffffffffffffffffffffffffffffffffffffffffffff1916148061035c575061035b8261114f565b5b9050919050565b60045481565b6000600260009054906101000a900473ffffffffffffffffffffffffffffffffffffffff1673ffffffffffffffffffffffffffffffffffffffff1663ea2a17306040518163ffffffff1660e01b8152600401602060405180830381865afa1580156103d8573d6000803e3d6000fd5b505050506040513d601f19601f820116820180604052508101906103fc9190611fd1565b905081600260009054906101000a900473ffffffffffffffffffffffffffffffffffffffff1673ffffffffffffffffffffffffffffffffffffffff1662fdd58e30846040518363ffffffff1660e01b815260040161045b92919061202f565b602060405180830381865afa158015610478573d6000803e3d6000fd5b505050506040513d601f19601f8201168201806040525081019061049c919061206d565b116104dc576040517f08c379a00000000000000000000000000000000000000000000000000000000081526004016104d39061211d565b60405180910390fd5b816004546104ea919061216c565b600360009054906101000a900473ffffffffffffffffffffffffffffffffffffffff1673ffffffffffffffffffffffffffffffffffffffff166370a08231336040518263ffffffff1660e01b81526004016105459190611a78565b602060405180830381865afa158015610562573d6000803e3d6000fd5b505050506040513d601f19601f82011682018060405250810190610586919061206d565b116105c6576040517f08c379a00000000000000000000000000000000000000000000000000000000081526004016105bd90612220565b60405180910390fd5b600360009054906101000a900473ffffffffffffffffffffffffffffffffffffffff1673ffffffffffffffffffffffffffffffffffffffff166323b872dd333085600454610614919061216c565b6040518463ffffffff1660e01b815260040161063293929190612240565b6020604051808303816000875af1158015610651573d6000803e3d6000fd5b505050506040513d601f19601f8201168201806040525081019061067591906122a3565b50600260009054906101000a900473ffffffffffffffffffffffffffffffffffffffff1673ffffffffffffffffffffffffffffffffffffffff1663f242432a303384866040518563ffffffff1660e01b81526004016106d79493929190612307565b600060405180830381600087803b1580156106f157600080fd5b505af1158015610705573d6000803e3d6000fd5b505050505050565b6107156111b9565b6000600160009054906101000a900473ffffffffffffffffffffffffffffffffffffffff1673ffffffffffffffffffffffffffffffffffffffff1663059dfe136040518163ffffffff1660e01b8152600401610770906123d1565b6020604051808303816000875af115801561078f573d6000803e3d6000fd5b505050506040513d601f19601f820116820180604052508101906107b39190612406565b9050600160009054906101000a900473ffffffffffffffffffffffffffffffffffffffff1673ffffffffffffffffffffffffffffffffffffffff16630f7deecb6040518163ffffffff1660e01b8152600401600060405180830381600087803b15801561081f57600080fd5b505af1158015610833573d6000803e3d6000fd5b5050505080600260006101000a81548173ffffffffffffffffffffffffffffffffffffffff021916908373ffffffffffffffffffffffffffffffffffffffff16021790555050565b60606000600260009054906101000a900473ffffffffffffffffffffffffffffffffffffffff1673ffffffffffffffffffffffffffffffffffffffff1663ea2a17306040518163ffffffff1660e01b8152600401602060405180830381865afa1580156108ec573d6000803e3d6000fd5b505050506040513d601f19601f820116820180604052508101906109109190611fd1565b90506000600260009054906101000a900473ffffffffffffffffffffffffffffffffffffffff1673ffffffffffffffffffffffffffffffffffffffff1662fdd58e33846040518363ffffffff1660e01b815260040161097092919061202f565b602060405180830381865afa15801561098d573d6000803e3d6000fd5b505050506040513d601f19601f820116820180604052508101906109b1919061206d565b116109f1576040517f08c379a00000000000000000000000000000000000000000000000000000000081526004016109e8906124a5565b60405180910390fd5b6000600660009054906101000a900460ff1660ff1667ffffffffffffffff811115610a1f57610a1e611b15565b5b604051908082528060200260200182016040528015610a4d5781602001602082028036833780820191505090505b5090506000600660009054906101000a900460ff1660ff1667ffffffffffffffff811115610a7e57610a7d611b15565b5b604051908082528060200260200182016040528015610aac5781602001602082028036833780820191505090505b50905060005b600660009054906101000a900460ff1660ff16811015610c78576000610ad6611237565b90506000600260009054906101000a900473ffffffffffffffffffffffffffffffffffffffff1673ffffffffffffffffffffffffffffffffffffffff1662fdd58e30846040518363ffffffff1660e01b8152600401610b369291906124c5565b602060405180830381865afa158015610b53573d6000803e3d6000fd5b505050506040513d601f19601f82011682018060405250810190610b77919061206d565b90506000811115610c3b5781858481518110610b9657610b956124ee565b5b602002602001018181525050600260009054906101000a900473ffffffffffffffffffffffffffffffffffffffff1673ffffffffffffffffffffffffffffffffffffffff1663f242432a30338560016040518563ffffffff1660e01b8152600401610c049493929190612558565b600060405180830381600087803b158015610c1e57600080fd5b505af1158015610c32573d6000803e3d6000fd5b50505050610c62565b81848481518110610c4f57610c4e6124ee565b5b6020026020010181815250505050610c65565b50505b8080610c70906125b0565b915050610ab2565b507f1ab84bce784ba927df23bef9279723d9bbad6dec82728fb92e2aebfac01f666d338383604051610cac939291906125f8565b60405180910390a181935050505090565b610cc56111b9565b610ccf6000611620565b565b610cd96111b9565b60648183858789610cea919061263d565b610cf4919061263d565b610cfe919061263d565b610d08919061263d565b60ff1614610d4b576040517f08c379a0000000000000000000000000000000000000000000000000000000008152600401610d42906126e4565b60405180910390fd5b84600660016101000a81548160ff021916908360ff16021790555083600660026101000a81548160ff021916908360ff16021790555082600660036101000a81548160ff021916908360ff16021790555081600660046101000a81548160ff021916908360ff16021790555080600660056101000a81548160ff021916908360ff1602179055505050505050565b60008060009054906101000a900473ffffffffffffffffffffffffffffffffffffffff16905090565b610e0a6111b9565b80600360009054906101000a900473ffffffffffffffffffffffffffffffffffffffff1673ffffffffffffffffffffffffffffffffffffffff166370a08231306040518263ffffffff1660e01b8152600401610e669190611a78565b602060405180830381865afa158015610e83573d6000803e3d6000fd5b505050506040513d601f19601f82011682018060405250810190610ea7919061206d565b11610ee7576040517f08c379a0000000000000000000000000000000000000000000000000000000008152600401610ede90612776565b60405180910390fd5b600360009054906101000a900473ffffffffffffffffffffffffffffffffffffffff1673ffffffffffffffffffffffffffffffffffffffff1663a9059cbb83836040518363ffffffff1660e01b8152600401610f449291906124c5565b6020604051808303816000875af1158015610f63573d6000803e3d6000fd5b505050506040513d601f19601f82011682018060405250810190610f8791906122a3565b505050565b600063bc197c8160e01b905095945050505050565b600160009054906101000a900473ffffffffffffffffffffffffffffffffffffffff1681565b600260009054906101000a900473ffffffffffffffffffffffffffffffffffffffff1681565b600063f23a6e6160e01b905095945050505050565b61100a6111b9565b600260009054906101000a900473ffffffffffffffffffffffffffffffffffffffff1673ffffffffffffffffffffffffffffffffffffffff1663f242432a86868686866040518663ffffffff1660e01b815260040161106d959493929190612804565b600060405180830381600087803b15801561108757600080fd5b505af115801561109b573d6000803e3d6000fd5b505050505050505050565b6110ae6111b9565b600073ffffffffffffffffffffffffffffffffffffffff168173ffffffffffffffffffffffffffffffffffffffff160361111d576040517f08c379a0000000000000000000000000000000000000000000000000000000008152600401611114906128d0565b60405180910390fd5b61112681611620565b50565b600360009054906101000a900473ffffffffffffffffffffffffffffffffffffffff1681565b60007f01ffc9a7000000000000000000000000000000000000000000000000000000007bffffffffffffffffffffffffffffffffffffffffffffffffffffffff1916827bffffffffffffffffffffffffffffffffffffffffffffffffffffffff1916149050919050565b6111c16116e4565b73ffffffffffffffffffffffffffffffffffffffff166111df610dd9565b73ffffffffffffffffffffffffffffffffffffffff1614611235576040517f08c379a000000000000000000000000000000000000000000000000000000000815260040161122c9061293c565b60405180910390fd5b565b6000806112426116ec565b90506000600660019054906101000a900460ff1660ff1682101561126957600090506114f3565b600660019054906101000a900460ff1660ff1682101580156112b65750600660029054906101000a900460ff16600660019054906101000a900460ff166112b0919061263d565b60ff1682105b156112c457600290506114f2565b600660029054906101000a900460ff16600660019054906101000a900460ff166112ee919061263d565b60ff1682101580156113455750600660039054906101000a900460ff16600660029054906101000a900460ff16600660019054906101000a900460ff16611335919061263d565b61133f919061263d565b60ff1682105b1561135357600390506114f1565b600660039054906101000a900460ff16600660029054906101000a900460ff16600660019054906101000a900460ff1661138d919061263d565b611397919061263d565b60ff1682101580156114085750600660049054906101000a900460ff16600660039054906101000a900460ff16600660029054906101000a900460ff16600660019054906101000a900460ff166113ee919061263d565b6113f8919061263d565b611402919061263d565b60ff1682105b1561141657600490506114f0565b600660049054906101000a900460ff16600660039054906101000a900460ff16600660029054906101000a900460ff16600660019054906101000a900460ff16611460919061263d565b61146a919061263d565b611474919061263d565b60ff1682101580156114e55750600660059054906101000a900460ff16600660039054906101000a900460ff16600660029054906101000a900460ff16600660019054906101000a900460ff166114cb919061263d565b6114d5919061263d565b6114df919061263d565b60ff1682105b156114ef57600590505b5b5b5b5b6114fb6116ec565b91506000600190506000600190506000600190506115176116ec565b9450601185101561152b57600190506115b9565b6011851015801561153c5750602285105b1561154a57600290506115b8565b6022851015801561155b5750603385105b1561156957600390506115b7565b6033851015801561157a5750604485105b1561158857600490506115b6565b604485101580156115995750605485105b156115a757600590506115b5565b605485106115b457600690505b5b5b5b5b5b60008460ff16600a836115cc919061295c565b60ff166064856115dc919061295c565b60ff166103e88760ff166115f091906129a7565b6115fa91906129e4565b61160491906129e4565b61160e91906129e4565b61ffff16905080965050505050505090565b60008060009054906101000a900473ffffffffffffffffffffffffffffffffffffffff169050816000806101000a81548173ffffffffffffffffffffffffffffffffffffffff021916908373ffffffffffffffffffffffffffffffffffffffff1602179055508173ffffffffffffffffffffffffffffffffffffffff168173ffffffffffffffffffffffffffffffffffffffff167f8be0079c531659141344cd1fd0a4f28419497f9722a3daafe3b4186f6b6457e060405160405180910390a35050565b600033905090565b600060056000815480929190611701906125b0565b91905055506064423360055460405160200161171f93929190612a83565b6040516020818303038152906040528051906020012060001c6117429190612aef565b905090565b6000604051905090565b600080fd5b600080fd5b60007fffffffff0000000000000000000000000000000000000000000000000000000082169050919050565b6117908161175b565b811461179b57600080fd5b50565b6000813590506117ad81611787565b92915050565b6000602082840312156117c9576117c8611751565b5b60006117d78482850161179e565b91505092915050565b60008115159050919050565b6117f5816117e0565b82525050565b600060208201905061181060008301846117ec565b92915050565b6000819050919050565b61182981611816565b82525050565b60006020820190506118446000830184611820565b92915050565b61185381611816565b811461185e57600080fd5b50565b6000813590506118708161184a565b92915050565b60006020828403121561188c5761188b611751565b5b600061189a84828501611861565b91505092915050565b600081519050919050565b600082825260208201905092915050565b6000819050602082019050919050565b6118d881611816565b82525050565b60006118ea83836118cf565b60208301905092915050565b6000602082019050919050565b600061190e826118a3565b61191881856118ae565b9350611923836118bf565b8060005b8381101561195457815161193b88826118de565b9750611946836118f6565b925050600181019050611927565b5085935050505092915050565b6000602082019050818103600083015261197b8184611903565b905092915050565b600060ff82169050919050565b61199981611983565b81146119a457600080fd5b50565b6000813590506119b681611990565b92915050565b600080600080600060a086880312156119d8576119d7611751565b5b60006119e6888289016119a7565b95505060206119f7888289016119a7565b9450506040611a08888289016119a7565b9350506060611a19888289016119a7565b9250506080611a2a888289016119a7565b9150509295509295909350565b600073ffffffffffffffffffffffffffffffffffffffff82169050919050565b6000611a6282611a37565b9050919050565b611a7281611a57565b82525050565b6000602082019050611a8d6000830184611a69565b92915050565b611a9c81611a57565b8114611aa757600080fd5b50565b600081359050611ab981611a93565b92915050565b60008060408385031215611ad657611ad5611751565b5b6000611ae485828601611aaa565b9250506020611af585828601611861565b9150509250929050565b600080fd5b6000601f19601f8301169050919050565b7f4e487b7100000000000000000000000000000000000000000000000000000000600052604160045260246000fd5b611b4d82611b04565b810181811067ffffffffffffffff82111715611b6c57611b6b611b15565b5b80604052505050565b6000611b7f611747565b9050611b8b8282611b44565b919050565b600067ffffffffffffffff821115611bab57611baa611b15565b5b602082029050602081019050919050565b600080fd5b6000611bd4611bcf84611b90565b611b75565b90508083825260208201905060208402830185811115611bf757611bf6611bbc565b5b835b81811015611c205780611c0c8882611861565b845260208401935050602081019050611bf9565b5050509392505050565b600082601f830112611c3f57611c3e611aff565b5b8135611c4f848260208601611bc1565b91505092915050565b600080fd5b600067ffffffffffffffff821115611c7857611c77611b15565b5b611c8182611b04565b9050602081019050919050565b82818337600083830152505050565b6000611cb0611cab84611c5d565b611b75565b905082815260208101848484011115611ccc57611ccb611c58565b5b611cd7848285611c8e565b509392505050565b600082601f830112611cf457611cf3611aff565b5b8135611d04848260208601611c9d565b91505092915050565b600080600080600060a08688031215611d2957611d28611751565b5b6000611d3788828901611aaa565b9550506020611d4888828901611aaa565b945050604086013567ffffffffffffffff811115611d6957611d68611756565b5b611d7588828901611c2a565b935050606086013567ffffffffffffffff811115611d9657611d95611756565b5b611da288828901611c2a565b925050608086013567ffffffffffffffff811115611dc357611dc2611756565b5b611dcf88828901611cdf565b9150509295509295909350565b611de58161175b565b82525050565b6000602082019050611e006000830184611ddc565b92915050565b6000819050919050565b6000611e2b611e26611e2184611a37565b611e06565b611a37565b9050919050565b6000611e3d82611e10565b9050919050565b6000611e4f82611e32565b9050919050565b611e5f81611e44565b82525050565b6000602082019050611e7a6000830184611e56565b92915050565b6000611e8b82611e32565b9050919050565b611e9b81611e80565b82525050565b6000602082019050611eb66000830184611e92565b92915050565b600080600080600060a08688031215611ed857611ed7611751565b5b6000611ee688828901611aaa565b9550506020611ef788828901611aaa565b9450506040611f0888828901611861565b9350506060611f1988828901611861565b925050608086013567ffffffffffffffff811115611f3a57611f39611756565b5b611f4688828901611cdf565b9150509295509295909350565b600060208284031215611f6957611f68611751565b5b6000611f7784828501611aaa565b91505092915050565b6000611f8b82611e32565b9050919050565b611f9b81611f80565b82525050565b6000602082019050611fb66000830184611f92565b92915050565b600081519050611fcb81611990565b92915050565b600060208284031215611fe757611fe6611751565b5b6000611ff584828501611fbc565b91505092915050565b600061201961201461200f84611983565b611e06565b611816565b9050919050565b61202981611ffe565b82525050565b60006040820190506120446000830185611a69565b6120516020830184612020565b9392505050565b6000815190506120678161184a565b92915050565b60006020828403121561208357612082611751565b5b600061209184828501612058565b91505092915050565b600082825260208201905092915050565b7f536f72727920477561726469616e2c20746865726520617265206e6f7420656e60008201527f6f75676820636865737473206c6566742e000000000000000000000000000000602082015250565b600061210760318361209a565b9150612112826120ab565b604082019050919050565b60006020820190508181036000830152612136816120fa565b9050919050565b7f4e487b7100000000000000000000000000000000000000000000000000000000600052601160045260246000fd5b600061217782611816565b915061218283611816565b925082820261219081611816565b915082820484148315176121a7576121a661213d565b5b5092915050565b7f536f72727920477561726469616e2c20796f7520646f206e6f7420686176652060008201527f656e6f756768206d6f6e65792e00000000000000000000000000000000000000602082015250565b600061220a602d8361209a565b9150612215826121ae565b604082019050919050565b60006020820190508181036000830152612239816121fd565b9050919050565b60006060820190506122556000830186611a69565b6122626020830185611a69565b61226f6040830184611820565b949350505050565b612280816117e0565b811461228b57600080fd5b50565b60008151905061229d81612277565b92915050565b6000602082840312156122b9576122b8611751565b5b60006122c78482850161228e565b91505092915050565b600082825260208201905092915050565b50565b60006122f16000836122d0565b91506122fc826122e1565b600082019050919050565b600060a08201905061231c6000830187611a69565b6123296020830186611a69565b6123366040830185612020565b6123436060830184611820565b8181036080830152612354816122e4565b905095945050505050565b7f4e6f646520477561726469616e732067656e6573697320636f6c6c656374696f60008201527f6e00000000000000000000000000000000000000000000000000000000000000602082015250565b60006123bb60218361209a565b91506123c68261235f565b604082019050919050565b600060208201905081810360008301526123ea816123ae565b9050919050565b60008151905061240081611a93565b92915050565b60006020828403121561241c5761241b611751565b5b600061242a848285016123f1565b91505092915050565b7f536f72727920477561726469616e2c20796f7520646f206e6f7420686176652060008201527f616e7920636865737420696e20796f757220696e76656e746f72792e00000000602082015250565b600061248f603c8361209a565b915061249a82612433565b604082019050919050565b600060208201905081810360008301526124be81612482565b9050919050565b60006040820190506124da6000830185611a69565b6124e76020830184611820565b9392505050565b7f4e487b7100000000000000000000000000000000000000000000000000000000600052603260045260246000fd5b6000819050919050565b600061254261253d6125388461251d565b611e06565b611816565b9050919050565b61255281612527565b82525050565b600060a08201905061256d6000830187611a69565b61257a6020830186611a69565b6125876040830185611820565b6125946060830184612549565b81810360808301526125a5816122e4565b905095945050505050565b60006125bb82611816565b91507fffffffffffffffffffffffffffffffffffffffffffffffffffffffffffffffff82036125ed576125ec61213d565b5b600182019050919050565b600060608201905061260d6000830186611a69565b818103602083015261261f8185611903565b905081810360408301526126338184611903565b9050949350505050565b600061264882611983565b915061265383611983565b9250828201905060ff81111561266c5761266b61213d565b5b92915050565b7f53756d206f66207468652064726f702072617465206d7573742062652065676160008201527f6c20746f20313030000000000000000000000000000000000000000000000000602082015250565b60006126ce60288361209a565b91506126d982612672565b604082019050919050565b600060208201905081810360008301526126fd816126c1565b9050919050565b7f536f72727920477561726469616e2c207468652074726573757265206973206560008201527f6d707479203a2728200000000000000000000000000000000000000000000000602082015250565b600061276060298361209a565b915061276b82612704565b604082019050919050565b6000602082019050818103600083015261278f81612753565b9050919050565b600081519050919050565b60005b838110156127bf5780820151818401526020810190506127a4565b60008484015250505050565b60006127d682612796565b6127e081856122d0565b93506127f08185602086016127a1565b6127f981611b04565b840191505092915050565b600060a0820190506128196000830188611a69565b6128266020830187611a69565b6128336040830186611820565b6128406060830185611820565b818103608083015261285281846127cb565b90509695505050505050565b7f4f776e61626c653a206e6577206f776e657220697320746865207a65726f206160008201527f6464726573730000000000000000000000000000000000000000000000000000602082015250565b60006128ba60268361209a565b91506128c58261285e565b604082019050919050565b600060208201905081810360008301526128e9816128ad565b9050919050565b7f4f776e61626c653a2063616c6c6572206973206e6f7420746865206f776e6572600082015250565b600061292660208361209a565b9150612931826128f0565b602082019050919050565b6000602082019050818103600083015261295581612919565b9050919050565b600061296782611983565b915061297283611983565b925082820261298081611983565b91508082146129925761299161213d565b5b5092915050565b600061ffff82169050919050565b60006129b282612999565b91506129bd83612999565b92508282026129cb81612999565b91508082146129dd576129dc61213d565b5b5092915050565b60006129ef82612999565b91506129fa83612999565b9250828201905061ffff811115612a1457612a1361213d565b5b92915050565b6000819050919050565b612a35612a3082611816565b612a1a565b82525050565b60008160601b9050919050565b6000612a5382612a3b565b9050919050565b6000612a6582612a48565b9050919050565b612a7d612a7882611a57565b612a5a565b82525050565b6000612a8f8286612a24565b602082019150612a9f8285612a6c565b601482019150612aaf8284612a24565b602082019150819050949350505050565b7f4e487b7100000000000000000000000000000000000000000000000000000000600052601260045260246000fd5b6000612afa82611816565b9150612b0583611816565b925082612b1557612b14612ac0565b5b82820690509291505056fea2646970667358221220adc9de82d13ea1f19081d58c669708daba47b4afb427b293444005c993ed424f64736f6c6343000812003360806040523480156200001157600080fd5b506040518060400160405280600881526020017f475541524449414e0000000000000000000000000000000000000000000000008152506040518060400160405280600481526020017f475552440000000000000000000000000000000000000000000000000000000081525081600390816200008f9190620004b9565b508060049081620000a19190620004b9565b505050620000c2336b033b2e3c9fd0803ce8000000620000c860201b60201c565b620006bb565b600073ffffffffffffffffffffffffffffffffffffffff168273ffffffffffffffffffffffffffffffffffffffff16036200013a576040517f08c379a0000000000000000000000000000000000000000000000000000000008152600401620001319062000601565b60405180910390fd5b6200014e600083836200023560201b60201c565b806002600082825462000162919062000652565b92505081905550806000808473ffffffffffffffffffffffffffffffffffffffff1673ffffffffffffffffffffffffffffffffffffffff168152602001908152602001600020600082825401925050819055508173ffffffffffffffffffffffffffffffffffffffff16600073ffffffffffffffffffffffffffffffffffffffff167fddf252ad1be2c89b69c2b068fc378daa952ba7f163c4a11628f55a4df523b3ef836040516200021591906200069e565b60405180910390a362000231600083836200023a60201b60201c565b5050565b505050565b505050565b600081519050919050565b7f4e487b7100000000000000000000000000000000000000000000000000000000600052604160045260246000fd5b7f4e487b7100000000000000000000000000000000000000000000000000000000600052602260045260246000fd5b60006002820490506001821680620002c157607f821691505b602082108103620002d757620002d662000279565b5b50919050565b60008190508160005260206000209050919050565b60006020601f8301049050919050565b600082821b905092915050565b600060088302620003417fffffffffffffffffffffffffffffffffffffffffffffffffffffffffffffffff8262000302565b6200034d868362000302565b95508019841693508086168417925050509392505050565b6000819050919050565b6000819050919050565b60006200039a620003946200038e8462000365565b6200036f565b62000365565b9050919050565b6000819050919050565b620003b68362000379565b620003ce620003c582620003a1565b8484546200030f565b825550505050565b600090565b620003e5620003d6565b620003f2818484620003ab565b505050565b5b818110156200041a576200040e600082620003db565b600181019050620003f8565b5050565b601f82111562000469576200043381620002dd565b6200043e84620002f2565b810160208510156200044e578190505b620004666200045d85620002f2565b830182620003f7565b50505b505050565b600082821c905092915050565b60006200048e600019846008026200046e565b1980831691505092915050565b6000620004a983836200047b565b9150826002028217905092915050565b620004c4826200023f565b67ffffffffffffffff811115620004e057620004df6200024a565b5b620004ec8254620002a8565b620004f98282856200041e565b600060209050601f8311600181146200053157600084156200051c578287015190505b6200052885826200049b565b86555062000598565b601f1984166200054186620002dd565b60005b828110156200056b5784890151825560018201915060208501945060208101905062000544565b868310156200058b578489015162000587601f8916826200047b565b8355505b6001600288020188555050505b505050505050565b600082825260208201905092915050565b7f45524332303a206d696e7420746f20746865207a65726f206164647265737300600082015250565b6000620005e9601f83620005a0565b9150620005f682620005b1565b602082019050919050565b600060208201905081810360008301526200061c81620005da565b9050919050565b7f4e487b7100000000000000000000000000000000000000000000000000000000600052601160045260246000fd5b60006200065f8262000365565b91506200066c8362000365565b925082820190508082111562000687576200068662000623565b5b92915050565b620006988162000365565b82525050565b6000602082019050620006b560008301846200068d565b92915050565b61122f80620006cb6000396000f3fe608060405234801561001057600080fd5b50600436106100a95760003560e01c80633950935111610071578063395093511461016857806370a082311461019857806395d89b41146101c8578063a457c2d7146101e6578063a9059cbb14610216578063dd62ed3e14610246576100a9565b806306fdde03146100ae578063095ea7b3146100cc57806318160ddd146100fc57806323b872dd1461011a578063313ce5671461014a575b600080fd5b6100b6610276565b6040516100c39190610b0c565b60405180910390f35b6100e660048036038101906100e19190610bc7565b610308565b6040516100f39190610c22565b60405180910390f35b61010461032b565b6040516101119190610c4c565b60405180910390f35b610134600480360381019061012f9190610c67565b610335565b6040516101419190610c22565b60405180910390f35b610152610364565b60405161015f9190610cd6565b60405180910390f35b610182600480360381019061017d9190610bc7565b61036d565b60405161018f9190610c22565b60405180910390f35b6101b260048036038101906101ad9190610cf1565b6103a4565b6040516101bf9190610c4c565b60405180910390f35b6101d06103ec565b6040516101dd9190610b0c565b60405180910390f35b61020060048036038101906101fb9190610bc7565b61047e565b60405161020d9190610c22565b60405180910390f35b610230600480360381019061022b9190610bc7565b6104f5565b60405161023d9190610c22565b60405180910390f35b610260600480360381019061025b9190610d1e565b610518565b60405161026d9190610c4c565b60405180910390f35b60606003805461028590610d8d565b80601f01602080910402602001604051908101604052809291908181526020018280546102b190610d8d565b80156102fe5780601f106102d3576101008083540402835291602001916102fe565b820191906000526020600020905b8154815290600101906020018083116102e157829003601f168201915b5050505050905090565b60008061031361059f565b90506103208185856105a7565b600191505092915050565b6000600254905090565b60008061034061059f565b905061034d858285610770565b6103588585856107fc565b60019150509392505050565b60006012905090565b60008061037861059f565b905061039981858561038a8589610518565b6103949190610ded565b6105a7565b600191505092915050565b60008060008373ffffffffffffffffffffffffffffffffffffffff1673ffffffffffffffffffffffffffffffffffffffff168152602001908152602001600020549050919050565b6060600480546103fb90610d8d565b80601f016020809104026020016040519081016040528092919081815260200182805461042790610d8d565b80156104745780601f1061044957610100808354040283529160200191610474565b820191906000526020600020905b81548152906001019060200180831161045757829003601f168201915b5050505050905090565b60008061048961059f565b905060006104978286610518565b9050838110156104dc576040517f08c379a00000000000000000000000000000000000000000000000000000000081526004016104d390610e93565b60405180910390fd5b6104e982868684036105a7565b60019250505092915050565b60008061050061059f565b905061050d8185856107fc565b600191505092915050565b6000600160008473ffffffffffffffffffffffffffffffffffffffff1673ffffffffffffffffffffffffffffffffffffffff16815260200190815260200160002060008373ffffffffffffffffffffffffffffffffffffffff1673ffffffffffffffffffffffffffffffffffffffff16815260200190815260200160002054905092915050565b600033905090565b600073ffffffffffffffffffffffffffffffffffffffff168373ffffffffffffffffffffffffffffffffffffffff1603610616576040517f08c379a000000000000000000000000000000000000000000000000000000000815260040161060d90610f25565b60405180910390fd5b600073ffffffffffffffffffffffffffffffffffffffff168273ffffffffffffffffffffffffffffffffffffffff1603610685576040517f08c379a000000000000000000000000000000000000000000000000000000000815260040161067c90610fb7565b60405180910390fd5b80600160008573ffffffffffffffffffffffffffffffffffffffff1673ffffffffffffffffffffffffffffffffffffffff16815260200190815260200160002060008473ffffffffffffffffffffffffffffffffffffffff1673ffffffffffffffffffffffffffffffffffffffff168152602001908152602001600020819055508173ffffffffffffffffffffffffffffffffffffffff168373ffffffffffffffffffffffffffffffffffffffff167f8c5be1e5ebec7d5bd14f71427d1e84f3dd0314c0f7b2291e5b200ac8c7c3b925836040516107639190610c4c565b60405180910390a3505050565b600061077c8484610518565b90507fffffffffffffffffffffffffffffffffffffffffffffffffffffffffffffffff81146107f657818110156107e8576040517f08c379a00000000000000000000000000000000000000000000000000000000081526004016107df90611023565b60405180910390fd5b6107f584848484036105a7565b5b50505050565b600073ffffffffffffffffffffffffffffffffffffffff168373ffffffffffffffffffffffffffffffffffffffff160361086b576040517f08c379a0000000000000000000000000000000000000000000000000000000008152600401610862906110b5565b60405180910390fd5b600073ffffffffffffffffffffffffffffffffffffffff168273ffffffffffffffffffffffffffffffffffffffff16036108da576040517f08c379a00000000000000000000000000000000000000000000000000000000081526004016108d190611147565b60405180910390fd5b6108e5838383610a72565b60008060008573ffffffffffffffffffffffffffffffffffffffff1673ffffffffffffffffffffffffffffffffffffffff1681526020019081526020016000205490508181101561096b576040517f08c379a0000000000000000000000000000000000000000000000000000000008152600401610962906111d9565b60405180910390fd5b8181036000808673ffffffffffffffffffffffffffffffffffffffff1673ffffffffffffffffffffffffffffffffffffffff16815260200190815260200160002081905550816000808573ffffffffffffffffffffffffffffffffffffffff1673ffffffffffffffffffffffffffffffffffffffff168152602001908152602001600020600082825401925050819055508273ffffffffffffffffffffffffffffffffffffffff168473ffffffffffffffffffffffffffffffffffffffff167fddf252ad1be2c89b69c2b068fc378daa952ba7f163c4a11628f55a4df523b3ef84604051610a599190610c4c565b60405180910390a3610a6c848484610a77565b50505050565b505050565b505050565b600081519050919050565b600082825260208201905092915050565b60005b83811015610ab6578082015181840152602081019050610a9b565b60008484015250505050565b6000601f19601f8301169050919050565b6000610ade82610a7c565b610ae88185610a87565b9350610af8818560208601610a98565b610b0181610ac2565b840191505092915050565b60006020820190508181036000830152610b268184610ad3565b905092915050565b600080fd5b600073ffffffffffffffffffffffffffffffffffffffff82169050919050565b6000610b5e82610b33565b9050919050565b610b6e81610b53565b8114610b7957600080fd5b50565b600081359050610b8b81610b65565b92915050565b6000819050919050565b610ba481610b91565b8114610baf57600080fd5b50565b600081359050610bc181610b9b565b92915050565b60008060408385031215610bde57610bdd610b2e565b5b6000610bec85828601610b7c565b9250506020610bfd85828601610bb2565b9150509250929050565b60008115159050919050565b610c1c81610c07565b82525050565b6000602082019050610c376000830184610c13565b92915050565b610c4681610b91565b82525050565b6000602082019050610c616000830184610c3d565b92915050565b600080600060608486031215610c8057610c7f610b2e565b5b6000610c8e86828701610b7c565b9350506020610c9f86828701610b7c565b9250506040610cb086828701610bb2565b9150509250925092565b600060ff82169050919050565b610cd081610cba565b82525050565b6000602082019050610ceb6000830184610cc7565b92915050565b600060208284031215610d0757610d06610b2e565b5b6000610d1584828501610b7c565b91505092915050565b60008060408385031215610d3557610d34610b2e565b5b6000610d4385828601610b7c565b9250506020610d5485828601610b7c565b9150509250929050565b7f4e487b7100000000000000000000000000000000000000000000000000000000600052602260045260246000fd5b60006002820490506001821680610da557607f821691505b602082108103610db857610db7610d5e565b5b50919050565b7f4e487b7100000000000000000000000000000000000000000000000000000000600052601160045260246000fd5b6000610df882610b91565b9150610e0383610b91565b9250828201905080821115610e1b57610e1a610dbe565b5b92915050565b7f45524332303a2064656372656173656420616c6c6f77616e63652062656c6f7760008201527f207a65726f000000000000000000000000000000000000000000000000000000602082015250565b6000610e7d602583610a87565b9150610e8882610e21565b604082019050919050565b60006020820190508181036000830152610eac81610e70565b9050919050565b7f45524332303a20617070726f76652066726f6d20746865207a65726f2061646460008201527f7265737300000000000000000000000000000000000000000000000000000000602082015250565b6000610f0f602483610a87565b9150610f1a82610eb3565b604082019050919050565b60006020820190508181036000830152610f3e81610f02565b9050919050565b7f45524332303a20617070726f766520746f20746865207a65726f20616464726560008201527f7373000000000000000000000000000000000000000000000000000000000000602082015250565b6000610fa1602283610a87565b9150610fac82610f45565b604082019050919050565b60006020820190508181036000830152610fd081610f94565b9050919050565b7f45524332303a20696e73756666696369656e7420616c6c6f77616e6365000000600082015250565b600061100d601d83610a87565b915061101882610fd7565b602082019050919050565b6000602082019050818103600083015261103c81611000565b9050919050565b7f45524332303a207472616e736665722066726f6d20746865207a65726f20616460008201527f6472657373000000000000000000000000000000000000000000000000000000602082015250565b600061109f602583610a87565b91506110aa82611043565b604082019050919050565b600060208201905081810360008301526110ce81611092565b9050919050565b7f45524332303a207472616e7366657220746f20746865207a65726f206164647260008201527f6573730000000000000000000000000000000000000000000000000000000000602082015250565b6000611131602383610a87565b915061113c826110d5565b604082019050919050565b6000602082019050818103600083015261116081611124565b9050919050565b7f45524332303a207472616e7366657220616d6f756e742065786365656473206260008201527f616c616e63650000000000000000000000000000000000000000000000000000602082015250565b60006111c3602683610a87565b91506111ce82611167565b604082019050919050565b600060208201905081810360008301526111f2816111b6565b905091905056fea2646970667358221220347464b3375922c0561e223b654c35f05618f0757ac26cf8f13f4e8d2325de8964736f6c63430008120033608060405234801561001057600080fd5b5061002d61002261003260201b60201c565b61003a60201b60201c565b6100fe565b600033905090565b60008060009054906101000a900473ffffffffffffffffffffffffffffffffffffffff169050816000806101000a81548173ffffffffffffffffffffffffffffffffffffffff021916908373ffffffffffffffffffffffffffffffffffffffff1602179055508173ffffffffffffffffffffffffffffffffffffffff168173ffffffffffffffffffffffffffffffffffffffff167f8be0079c531659141344cd1fd0a4f28419497f9722a3daafe3b4186f6b6457e060405160405180910390a35050565b6143438061010d6000396000f3fe60806040523480156200001157600080fd5b5060043610620000a05760003560e01c8063715018a6116200006f578063715018a6146200013f5780638da5cb5b146200014b578063bc197c81146200016d578063f23a6e6114620001a3578063f2fde38b14620001d957620000a0565b806301ffc9a714620000a5578063059dfe1314620000db5780630f7deecb14620001115780636aa00371146200011d575b600080fd5b620000c36004803603810190620000bd919062000795565b620001f9565b604051620000d29190620007e4565b60405180910390f35b620000f96004803603810190620000f3919062000963565b62000276565b604051620001089190620009f9565b60405180910390f35b6200011b6200032e565b005b6200012762000440565b604051620001369190620009f9565b60405180910390f35b6200014962000466565b005b620001556200047e565b604051620001649190620009f9565b60405180910390f35b6200018b600480360381019062000185919062000c11565b620004a7565b6040516200019a919062000d07565b60405180910390f35b620001c16004803603810190620001bb919062000d24565b620004bc565b604051620001d0919062000d07565b60405180910390f35b620001f76004803603810190620001f1919062000dcb565b620004d1565b005b60007f4e2312e0000000000000000000000000000000000000000000000000000000007bffffffffffffffffffffffffffffffffffffffffffffffffffffffff1916827bffffffffffffffffffffffffffffffffffffffffffffffffffffffff191614806200026f57506200026e826200055b565b5b9050919050565b600080604051806020016200028b9062000716565b6020820181038252601f19601f820116604052509050600083604051602001620002b6919062000e76565b604051602081830303815290604052805190602001209050808251602084016000f59250823b620002e657600080fd5b82600160006101000a81548173ffffffffffffffffffffffffffffffffffffffff021916908373ffffffffffffffffffffffffffffffffffffffff1602179055505050919050565b62000338620005c5565b6000600160009054906101000a900473ffffffffffffffffffffffffffffffffffffffff1690508073ffffffffffffffffffffffffffffffffffffffff166306f36e87336040518263ffffffff1660e01b81526004016200039a9190620009f9565b600060405180830381600087803b158015620003b557600080fd5b505af1158015620003ca573d6000803e3d6000fd5b505050508073ffffffffffffffffffffffffffffffffffffffff166344dfb6bc336040518263ffffffff1660e01b8152600401620004099190620009f9565b600060405180830381600087803b1580156200042457600080fd5b505af115801562000439573d6000803e3d6000fd5b5050505050565b600160009054906101000a900473ffffffffffffffffffffffffffffffffffffffff1681565b62000470620005c5565b6200047c60006200064a565b565b60008060009054906101000a900473ffffffffffffffffffffffffffffffffffffffff16905090565b600063bc197c8160e01b905095945050505050565b600063f23a6e6160e01b905095945050505050565b620004db620005c5565b600073ffffffffffffffffffffffffffffffffffffffff168173ffffffffffffffffffffffffffffffffffffffff16036200054d576040517f08c379a0000000000000000000000000000000000000000000000000000000008152600401620005449062000f16565b60405180910390fd5b62000558816200064a565b50565b60007f01ffc9a7000000000000000000000000000000000000000000000000000000007bffffffffffffffffffffffffffffffffffffffffffffffffffffffff1916827bffffffffffffffffffffffffffffffffffffffffffffffffffffffff1916149050919050565b620005cf6200070e565b73ffffffffffffffffffffffffffffffffffffffff16620005ef6200047e565b73ffffffffffffffffffffffffffffffffffffffff161462000648576040517f08c379a00000000000000000000000000000000000000000000000000000000081526004016200063f9062000f88565b60405180910390fd5b565b60008060009054906101000a900473ffffffffffffffffffffffffffffffffffffffff169050816000806101000a81548173ffffffffffffffffffffffffffffffffffffffff021916908373ffffffffffffffffffffffffffffffffffffffff1602179055508173ffffffffffffffffffffffffffffffffffffffff168173ffffffffffffffffffffffffffffffffffffffff167f8be0079c531659141344cd1fd0a4f28419497f9722a3daafe3b4186f6b6457e060405160405180910390a35050565b600033905090565b6133638062000fab83390190565b6000604051905090565b600080fd5b600080fd5b60007fffffffff0000000000000000000000000000000000000000000000000000000082169050919050565b6200076f8162000738565b81146200077b57600080fd5b50565b6000813590506200078f8162000764565b92915050565b600060208284031215620007ae57620007ad6200072e565b5b6000620007be848285016200077e565b91505092915050565b60008115159050919050565b620007de81620007c7565b82525050565b6000602082019050620007fb6000830184620007d3565b92915050565b600080fd5b600080fd5b6000601f19601f8301169050919050565b7f4e487b7100000000000000000000000000000000000000000000000000000000600052604160045260246000fd5b62000856826200080b565b810181811067ffffffffffffffff821117156200087857620008776200081c565b5b80604052505050565b60006200088d62000724565b90506200089b82826200084b565b919050565b600067ffffffffffffffff821115620008be57620008bd6200081c565b5b620008c9826200080b565b9050602081019050919050565b82818337600083830152505050565b6000620008fc620008f684620008a0565b62000881565b9050828152602081018484840111156200091b576200091a62000806565b5b62000928848285620008d6565b509392505050565b600082601f83011262000948576200094762000801565b5b81356200095a848260208601620008e5565b91505092915050565b6000602082840312156200097c576200097b6200072e565b5b600082013567ffffffffffffffff8111156200099d576200099c62000733565b5b620009ab8482850162000930565b91505092915050565b600073ffffffffffffffffffffffffffffffffffffffff82169050919050565b6000620009e182620009b4565b9050919050565b620009f381620009d4565b82525050565b600060208201905062000a106000830184620009e8565b92915050565b62000a2181620009d4565b811462000a2d57600080fd5b50565b60008135905062000a418162000a16565b92915050565b600067ffffffffffffffff82111562000a655762000a646200081c565b5b602082029050602081019050919050565b600080fd5b6000819050919050565b62000a908162000a7b565b811462000a9c57600080fd5b50565b60008135905062000ab08162000a85565b92915050565b600062000acd62000ac78462000a47565b62000881565b9050808382526020820190506020840283018581111562000af35762000af262000a76565b5b835b8181101562000b20578062000b0b888262000a9f565b84526020840193505060208101905062000af5565b5050509392505050565b600082601f83011262000b425762000b4162000801565b5b813562000b5484826020860162000ab6565b91505092915050565b600067ffffffffffffffff82111562000b7b5762000b7a6200081c565b5b62000b86826200080b565b9050602081019050919050565b600062000baa62000ba48462000b5d565b62000881565b90508281526020810184848401111562000bc95762000bc862000806565b5b62000bd6848285620008d6565b509392505050565b600082601f83011262000bf65762000bf562000801565b5b813562000c0884826020860162000b93565b91505092915050565b600080600080600060a0868803121562000c305762000c2f6200072e565b5b600062000c408882890162000a30565b955050602062000c538882890162000a30565b945050604086013567ffffffffffffffff81111562000c775762000c7662000733565b5b62000c858882890162000b2a565b935050606086013567ffffffffffffffff81111562000ca95762000ca862000733565b5b62000cb78882890162000b2a565b925050608086013567ffffffffffffffff81111562000cdb5762000cda62000733565b5b62000ce98882890162000bde565b9150509295509295909350565b62000d018162000738565b82525050565b600060208201905062000d1e600083018462000cf6565b92915050565b600080600080600060a0868803121562000d435762000d426200072e565b5b600062000d538882890162000a30565b955050602062000d668882890162000a30565b945050604062000d798882890162000a9f565b935050606062000d8c8882890162000a9f565b925050608086013567ffffffffffffffff81111562000db05762000daf62000733565b5b62000dbe8882890162000bde565b9150509295509295909350565b60006020828403121562000de45762000de36200072e565b5b600062000df48482850162000a30565b91505092915050565b600081519050919050565b600081905092915050565b60005b8381101562000e3357808201518184015260208101905062000e16565b60008484015250505050565b600062000e4c8262000dfd565b62000e58818562000e08565b935062000e6a81856020860162000e13565b80840191505092915050565b600062000e84828462000e3f565b915081905092915050565b600082825260208201905092915050565b7f4f776e61626c653a206e6577206f776e657220697320746865207a65726f206160008201527f6464726573730000000000000000000000000000000000000000000000000000602082015250565b600062000efe60268362000e8f565b915062000f0b8262000ea0565b604082019050919050565b6000602082019050818103600083015262000f318162000eef565b9050919050565b7f4f776e61626c653a2063616c6c6572206973206e6f7420746865206f776e6572600082015250565b600062000f7060208362000e8f565b915062000f7d8262000f38565b602082019050919050565b6000602082019050818103600083015262000fa38162000f61565b905091905056fe60806040526000600560006101000a81548160ff021916908360ff1602179055503480156200002d57600080fd5b506040518060800160405280604d815260200162003316604d913962000059816200008060201b60201c565b506200007a6200006e6200009560201b60201c565b6200009d60201b60201c565b620004c4565b8060029081620000919190620003dd565b5050565b600033905090565b6000600360009054906101000a900473ffffffffffffffffffffffffffffffffffffffff16905081600360006101000a81548173ffffffffffffffffffffffffffffffffffffffff021916908373ffffffffffffffffffffffffffffffffffffffff1602179055508173ffffffffffffffffffffffffffffffffffffffff168173ffffffffffffffffffffffffffffffffffffffff167f8be0079c531659141344cd1fd0a4f28419497f9722a3daafe3b4186f6b6457e060405160405180910390a35050565b600081519050919050565b7f4e487b7100000000000000000000000000000000000000000000000000000000600052604160045260246000fd5b7f4e487b7100000000000000000000000000000000000000000000000000000000600052602260045260246000fd5b60006002820490506001821680620001e557607f821691505b602082108103620001fb57620001fa6200019d565b5b50919050565b60008190508160005260206000209050919050565b60006020601f8301049050919050565b600082821b905092915050565b600060088302620002657fffffffffffffffffffffffffffffffffffffffffffffffffffffffffffffffff8262000226565b62000271868362000226565b95508019841693508086168417925050509392505050565b6000819050919050565b6000819050919050565b6000620002be620002b8620002b28462000289565b62000293565b62000289565b9050919050565b6000819050919050565b620002da836200029d565b620002f2620002e982620002c5565b84845462000233565b825550505050565b600090565b62000309620002fa565b62000316818484620002cf565b505050565b5b818110156200033e5762000332600082620002ff565b6001810190506200031c565b5050565b601f8211156200038d57620003578162000201565b620003628462000216565b8101602085101562000372578190505b6200038a620003818562000216565b8301826200031b565b50505b505050565b600082821c905092915050565b6000620003b26000198460080262000392565b1980831691505092915050565b6000620003cd83836200039f565b9150826002028217905092915050565b620003e88262000163565b67ffffffffffffffff8111156200040457620004036200016e565b5b620004108254620001cc565b6200041d82828562000342565b600060209050601f83116001811462000455576000841562000440578287015190505b6200044c8582620003bf565b865550620004bc565b601f198416620004658662000201565b60005b828110156200048f5784890151825560018201915060208501945060208101905062000468565b86831015620004af5784890151620004ab601f8916826200039f565b8355505b6001600288020188555050505b505050505050565b612e4280620004d46000396000f3fe608060405234801561001057600080fd5b50600436106100f45760003560e01c8063715018a611610097578063e985e9c511610066578063e985e9c51461026f578063ea2a17301461029f578063f242432a146102bd578063f2fde38b146102d9576100f4565b8063715018a61461020d5780638da5cb5b14610217578063a22cb46514610235578063a68d1e1614610251576100f4565b80630e89341c116100d35780630e89341c146101755780632eb2c2d6146101a557806344dfb6bc146101c15780634e1273f4146101dd576100f4565b8062fdd58e146100f957806301ffc9a71461012957806306f36e8714610159575b600080fd5b610113600480360381019061010e9190611aaa565b6102f5565b6040516101209190611af9565b60405180910390f35b610143600480360381019061013e9190611b6c565b6103bd565b6040516101509190611bb4565b60405180910390f35b610173600480360381019061016e9190611bcf565b61049f565b005b61018f600480360381019061018a9190611bfc565b61061f565b60405161019c9190611cb9565b60405180910390f35b6101bf60048036038101906101ba9190611ed8565b6106b3565b005b6101db60048036038101906101d69190611bcf565b610754565b005b6101f760048036038101906101f2919061206a565b610789565b60405161020491906121a0565b60405180910390f35b6102156108a2565b005b61021f6108b6565b60405161022c91906121d1565b60405180910390f35b61024f600480360381019061024a9190612218565b6108e0565b005b6102596108f6565b60405161026691906121a0565b60405180910390f35b61028960048036038101906102849190612258565b61094e565b6040516102969190611bb4565b60405180910390f35b6102a76109e2565b6040516102b491906122b4565b60405180910390f35b6102d760048036038101906102d291906122cf565b6109f5565b005b6102f360048036038101906102ee9190611bcf565b610a96565b005b60008073ffffffffffffffffffffffffffffffffffffffff168373ffffffffffffffffffffffffffffffffffffffff1603610365576040517f08c379a000000000000000000000000000000000000000000000000000000000815260040161035c906123d8565b60405180910390fd5b60008083815260200190815260200160002060008473ffffffffffffffffffffffffffffffffffffffff1673ffffffffffffffffffffffffffffffffffffffff16815260200190815260200160002054905092915050565b60007fd9b67a26000000000000000000000000000000000000000000000000000000007bffffffffffffffffffffffffffffffffffffffffffffffffffffffff1916827bffffffffffffffffffffffffffffffffffffffffffffffffffffffff1916148061048857507f0e89341c000000000000000000000000000000000000000000000000000000007bffffffffffffffffffffffffffffffffffffffffffffffffffffffff1916827bffffffffffffffffffffffffffffffffffffffffffffffffffffffff1916145b80610498575061049782610b19565b5b9050919050565b600060019050600080600190505b60018111610619576000600190505b838111610605576000600190505b60078110156105f15760005b60058110156105dd57600081600a846104ef9190612427565b6064866104fc9190612427565b6103e88861050a9190612427565b6105149190612469565b61051e9190612469565b6105289190612469565b90506000820361053d57620f42409550610585565b6001820361055057620186a09550610584565b60028203610562576127109550610583565b60038203610574576103e89550610582565b6004820361058157606495505b5b5b5b5b6105a088828860405180602001604052806000815250610b83565b60048190806001815401808255809150506001900390600052602060002001600090919091909150555080806105d59061249d565b9150506104d6565b5080806105e99061249d565b9150506104ca565b5080806105fd9061249d565b9150506104bc565b5080806106119061249d565b9150506104ad565b50505050565b60606002805461062e90612514565b80601f016020809104026020016040519081016040528092919081815260200182805461065a90612514565b80156106a75780601f1061067c576101008083540402835291602001916106a7565b820191906000526020600020905b81548152906001019060200180831161068a57829003601f168201915b50505050509050919050565b6106bb610d33565b73ffffffffffffffffffffffffffffffffffffffff168573ffffffffffffffffffffffffffffffffffffffff1614806107015750610700856106fb610d33565b61094e565b5b610740576040517f08c379a0000000000000000000000000000000000000000000000000000000008152600401610737906125b7565b60405180910390fd5b61074d8585858585610d3b565b5050505050565b61078681600560009054906101000a900460ff1660ff1664e8d4a5100060405180602001604052806000815250610b83565b50565b606081518351146107cf576040517f08c379a00000000000000000000000000000000000000000000000000000000081526004016107c690612649565b60405180910390fd5b6000835167ffffffffffffffff8111156107ec576107eb611ce0565b5b60405190808252806020026020018201604052801561081a5781602001602082028036833780820191505090505b50905060005b84518110156108975761086785828151811061083f5761083e612669565b5b602002602001015185838151811061085a57610859612669565b5b60200260200101516102f5565b82828151811061087a57610879612669565b5b602002602001018181525050806108909061249d565b9050610820565b508091505092915050565b6108aa61105c565b6108b460006110da565b565b6000600360009054906101000a900473ffffffffffffffffffffffffffffffffffffffff16905090565b6108f26108eb610d33565b83836111a0565b5050565b6060600480548060200260200160405190810160405280929190818152602001828054801561094457602002820191906000526020600020905b815481526020019060010190808311610930575b5050505050905090565b6000600160008473ffffffffffffffffffffffffffffffffffffffff1673ffffffffffffffffffffffffffffffffffffffff16815260200190815260200160002060008373ffffffffffffffffffffffffffffffffffffffff1673ffffffffffffffffffffffffffffffffffffffff16815260200190815260200160002060009054906101000a900460ff16905092915050565b600560009054906101000a900460ff1681565b6109fd610d33565b73ffffffffffffffffffffffffffffffffffffffff168573ffffffffffffffffffffffffffffffffffffffff161480610a435750610a4285610a3d610d33565b61094e565b5b610a82576040517f08c379a0000000000000000000000000000000000000000000000000000000008152600401610a79906125b7565b60405180910390fd5b610a8f858585858561130c565b5050505050565b610a9e61105c565b600073ffffffffffffffffffffffffffffffffffffffff168173ffffffffffffffffffffffffffffffffffffffff1603610b0d576040517f08c379a0000000000000000000000000000000000000000000000000000000008152600401610b049061270a565b60405180910390fd5b610b16816110da565b50565b60007f01ffc9a7000000000000000000000000000000000000000000000000000000007bffffffffffffffffffffffffffffffffffffffffffffffffffffffff1916827bffffffffffffffffffffffffffffffffffffffffffffffffffffffff1916149050919050565b600073ffffffffffffffffffffffffffffffffffffffff168473ffffffffffffffffffffffffffffffffffffffff1603610bf2576040517f08c379a0000000000000000000000000000000000000000000000000000000008152600401610be99061279c565b60405180910390fd5b6000610bfc610d33565b90506000610c09856115a7565b90506000610c16856115a7565b9050610c2783600089858589611621565b8460008088815260200190815260200160002060008973ffffffffffffffffffffffffffffffffffffffff1673ffffffffffffffffffffffffffffffffffffffff1681526020019081526020016000206000828254610c869190612469565b925050819055508673ffffffffffffffffffffffffffffffffffffffff16600073ffffffffffffffffffffffffffffffffffffffff168473ffffffffffffffffffffffffffffffffffffffff167fc3d58168c5ae7397731d063d5bbf3d657854427343f4c083240f7aacaa2d0f628989604051610d049291906127bc565b60405180910390a4610d1b83600089858589611629565b610d2a83600089898989611631565b50505050505050565b600033905090565b8151835114610d7f576040517f08c379a0000000000000000000000000000000000000000000000000000000008152600401610d7690612857565b60405180910390fd5b600073ffffffffffffffffffffffffffffffffffffffff168473ffffffffffffffffffffffffffffffffffffffff1603610dee576040517f08c379a0000000000000000000000000000000000000000000000000000000008152600401610de5906128e9565b60405180910390fd5b6000610df8610d33565b9050610e08818787878787611621565b60005b8451811015610fb9576000858281518110610e2957610e28612669565b5b602002602001015190506000858381518110610e4857610e47612669565b5b60200260200101519050600080600084815260200190815260200160002060008b73ffffffffffffffffffffffffffffffffffffffff1673ffffffffffffffffffffffffffffffffffffffff16815260200190815260200160002054905081811015610ee9576040517f08c379a0000000000000000000000000000000000000000000000000000000008152600401610ee09061297b565b60405180910390fd5b81810360008085815260200190815260200160002060008c73ffffffffffffffffffffffffffffffffffffffff1673ffffffffffffffffffffffffffffffffffffffff168152602001908152602001600020819055508160008085815260200190815260200160002060008b73ffffffffffffffffffffffffffffffffffffffff1673ffffffffffffffffffffffffffffffffffffffff1681526020019081526020016000206000828254610f9e9190612469565b9250508190555050505080610fb29061249d565b9050610e0b565b508473ffffffffffffffffffffffffffffffffffffffff168673ffffffffffffffffffffffffffffffffffffffff168273ffffffffffffffffffffffffffffffffffffffff167f4a39dc06d4c0dbc64b70af90fd698a233a518aa5d07e595d983b8c0526c8f7fb878760405161103092919061299b565b60405180910390a4611046818787878787611629565b611054818787878787611808565b505050505050565b611064610d33565b73ffffffffffffffffffffffffffffffffffffffff166110826108b6565b73ffffffffffffffffffffffffffffffffffffffff16146110d8576040517f08c379a00000000000000000000000000000000000000000000000000000000081526004016110cf90612a1e565b60405180910390fd5b565b6000600360009054906101000a900473ffffffffffffffffffffffffffffffffffffffff16905081600360006101000a81548173ffffffffffffffffffffffffffffffffffffffff021916908373ffffffffffffffffffffffffffffffffffffffff1602179055508173ffffffffffffffffffffffffffffffffffffffff168173ffffffffffffffffffffffffffffffffffffffff167f8be0079c531659141344cd1fd0a4f28419497f9722a3daafe3b4186f6b6457e060405160405180910390a35050565b8173ffffffffffffffffffffffffffffffffffffffff168373ffffffffffffffffffffffffffffffffffffffff160361120e576040517f08c379a000000000000000000000000000000000000000000000000000000000815260040161120590612ab0565b60405180910390fd5b80600160008573ffffffffffffffffffffffffffffffffffffffff1673ffffffffffffffffffffffffffffffffffffffff16815260200190815260200160002060008473ffffffffffffffffffffffffffffffffffffffff1673ffffffffffffffffffffffffffffffffffffffff16815260200190815260200160002060006101000a81548160ff0219169083151502179055508173ffffffffffffffffffffffffffffffffffffffff168373ffffffffffffffffffffffffffffffffffffffff167f17307eab39ab6107e8899845ad3d59bd9653f200f220920489ca2b5937696c31836040516112ff9190611bb4565b60405180910390a3505050565b600073ffffffffffffffffffffffffffffffffffffffff168473ffffffffffffffffffffffffffffffffffffffff160361137b576040517f08c379a0000000000000000000000000000000000000000000000000000000008152600401611372906128e9565b60405180910390fd5b6000611385610d33565b90506000611392856115a7565b9050600061139f856115a7565b90506113af838989858589611621565b600080600088815260200190815260200160002060008a73ffffffffffffffffffffffffffffffffffffffff1673ffffffffffffffffffffffffffffffffffffffff16815260200190815260200160002054905085811015611446576040517f08c379a000000000000000000000000000000000000000000000000000000000815260040161143d9061297b565b60405180910390fd5b85810360008089815260200190815260200160002060008b73ffffffffffffffffffffffffffffffffffffffff1673ffffffffffffffffffffffffffffffffffffffff168152602001908152602001600020819055508560008089815260200190815260200160002060008a73ffffffffffffffffffffffffffffffffffffffff1673ffffffffffffffffffffffffffffffffffffffff16815260200190815260200160002060008282546114fb9190612469565b925050819055508773ffffffffffffffffffffffffffffffffffffffff168973ffffffffffffffffffffffffffffffffffffffff168573ffffffffffffffffffffffffffffffffffffffff167fc3d58168c5ae7397731d063d5bbf3d657854427343f4c083240f7aacaa2d0f628a8a6040516115789291906127bc565b60405180910390a461158e848a8a86868a611629565b61159c848a8a8a8a8a611631565b505050505050505050565b60606000600167ffffffffffffffff8111156115c6576115c5611ce0565b5b6040519080825280602002602001820160405280156115f45781602001602082028036833780820191505090505b509050828160008151811061160c5761160b612669565b5b60200260200101818152505080915050919050565b505050505050565b505050505050565b6116508473ffffffffffffffffffffffffffffffffffffffff166119df565b15611800578373ffffffffffffffffffffffffffffffffffffffff1663f23a6e6187878686866040518663ffffffff1660e01b8152600401611696959493929190612b25565b6020604051808303816000875af19250505080156116d257506040513d601f19601f820116820180604052508101906116cf9190612b94565b60015b611777576116de612bce565b806308c379a00361173a57506116f2612bf0565b806116fd575061173c565b806040517f08c379a00000000000000000000000000000000000000000000000000000000081526004016117319190611cb9565b60405180910390fd5b505b6040517f08c379a000000000000000000000000000000000000000000000000000000000815260040161176e90612cf2565b60405180910390fd5b63f23a6e6160e01b7bffffffffffffffffffffffffffffffffffffffffffffffffffffffff1916817bffffffffffffffffffffffffffffffffffffffffffffffffffffffff1916146117fe576040517f08c379a00000000000000000000000000000000000000000000000000000000081526004016117f590612d84565b60405180910390fd5b505b505050505050565b6118278473ffffffffffffffffffffffffffffffffffffffff166119df565b156119d7578373ffffffffffffffffffffffffffffffffffffffff1663bc197c8187878686866040518663ffffffff1660e01b815260040161186d959493929190612da4565b6020604051808303816000875af19250505080156118a957506040513d601f19601f820116820180604052508101906118a69190612b94565b60015b61194e576118b5612bce565b806308c379a00361191157506118c9612bf0565b806118d45750611913565b806040517f08c379a00000000000000000000000000000000000000000000000000000000081526004016119089190611cb9565b60405180910390fd5b505b6040517f08c379a000000000000000000000000000000000000000000000000000000000815260040161194590612cf2565b60405180910390fd5b63bc197c8160e01b7bffffffffffffffffffffffffffffffffffffffffffffffffffffffff1916817bffffffffffffffffffffffffffffffffffffffffffffffffffffffff1916146119d5576040517f08c379a00000000000000000000000000000000000000000000000000000000081526004016119cc90612d84565b60405180910390fd5b505b505050505050565b6000808273ffffffffffffffffffffffffffffffffffffffff163b119050919050565b6000604051905090565b600080fd5b600080fd5b600073ffffffffffffffffffffffffffffffffffffffff82169050919050565b6000611a4182611a16565b9050919050565b611a5181611a36565b8114611a5c57600080fd5b50565b600081359050611a6e81611a48565b92915050565b6000819050919050565b611a8781611a74565b8114611a9257600080fd5b50565b600081359050611aa481611a7e565b92915050565b60008060408385031215611ac157611ac0611a0c565b5b6000611acf85828601611a5f565b9250506020611ae085828601611a95565b9150509250929050565b611af381611a74565b82525050565b6000602082019050611b0e6000830184611aea565b92915050565b60007fffffffff0000000000000000000000000000000000000000000000000000000082169050919050565b611b4981611b14565b8114611b5457600080fd5b50565b600081359050611b6681611b40565b92915050565b600060208284031215611b8257611b81611a0c565b5b6000611b9084828501611b57565b91505092915050565b60008115159050919050565b611bae81611b99565b82525050565b6000602082019050611bc96000830184611ba5565b92915050565b600060208284031215611be557611be4611a0c565b5b6000611bf384828501611a5f565b91505092915050565b600060208284031215611c1257611c11611a0c565b5b6000611c2084828501611a95565b91505092915050565b600081519050919050565b600082825260208201905092915050565b60005b83811015611c63578082015181840152602081019050611c48565b60008484015250505050565b6000601f19601f8301169050919050565b6000611c8b82611c29565b611c958185611c34565b9350611ca5818560208601611c45565b611cae81611c6f565b840191505092915050565b60006020820190508181036000830152611cd38184611c80565b905092915050565b600080fd5b7f4e487b7100000000000000000000000000000000000000000000000000000000600052604160045260246000fd5b611d1882611c6f565b810181811067ffffffffffffffff82111715611d3757611d36611ce0565b5b80604052505050565b6000611d4a611a02565b9050611d568282611d0f565b919050565b600067ffffffffffffffff821115611d7657611d75611ce0565b5b602082029050602081019050919050565b600080fd5b6000611d9f611d9a84611d5b565b611d40565b90508083825260208201905060208402830185811115611dc257611dc1611d87565b5b835b81811015611deb5780611dd78882611a95565b845260208401935050602081019050611dc4565b5050509392505050565b600082601f830112611e0a57611e09611cdb565b5b8135611e1a848260208601611d8c565b91505092915050565b600080fd5b600067ffffffffffffffff821115611e4357611e42611ce0565b5b611e4c82611c6f565b9050602081019050919050565b82818337600083830152505050565b6000611e7b611e7684611e28565b611d40565b905082815260208101848484011115611e9757611e96611e23565b5b611ea2848285611e59565b509392505050565b600082601f830112611ebf57611ebe611cdb565b5b8135611ecf848260208601611e68565b91505092915050565b600080600080600060a08688031215611ef457611ef3611a0c565b5b6000611f0288828901611a5f565b9550506020611f1388828901611a5f565b945050604086013567ffffffffffffffff811115611f3457611f33611a11565b5b611f4088828901611df5565b935050606086013567ffffffffffffffff811115611f6157611f60611a11565b5b611f6d88828901611df5565b925050608086013567ffffffffffffffff811115611f8e57611f8d611a11565b5b611f9a88828901611eaa565b9150509295509295909350565b600067ffffffffffffffff821115611fc257611fc1611ce0565b5b602082029050602081019050919050565b6000611fe6611fe184611fa7565b611d40565b9050808382526020820190506020840283018581111561200957612008611d87565b5b835b81811015612032578061201e8882611a5f565b84526020840193505060208101905061200b565b5050509392505050565b600082601f83011261205157612050611cdb565b5b8135612061848260208601611fd3565b91505092915050565b6000806040838503121561208157612080611a0c565b5b600083013567ffffffffffffffff81111561209f5761209e611a11565b5b6120ab8582860161203c565b925050602083013567ffffffffffffffff8111156120cc576120cb611a11565b5b6120d885828601611df5565b9150509250929050565b600081519050919050565b600082825260208201905092915050565b6000819050602082019050919050565b61211781611a74565b82525050565b6000612129838361210e565b60208301905092915050565b6000602082019050919050565b600061214d826120e2565b61215781856120ed565b9350612162836120fe565b8060005b8381101561219357815161217a888261211d565b975061218583612135565b925050600181019050612166565b5085935050505092915050565b600060208201905081810360008301526121ba8184612142565b905092915050565b6121cb81611a36565b82525050565b60006020820190506121e660008301846121c2565b92915050565b6121f581611b99565b811461220057600080fd5b50565b600081359050612212816121ec565b92915050565b6000806040838503121561222f5761222e611a0c565b5b600061223d85828601611a5f565b925050602061224e85828601612203565b9150509250929050565b6000806040838503121561226f5761226e611a0c565b5b600061227d85828601611a5f565b925050602061228e85828601611a5f565b9150509250929050565b600060ff82169050919050565b6122ae81612298565b82525050565b60006020820190506122c960008301846122a5565b92915050565b600080600080600060a086880312156122eb576122ea611a0c565b5b60006122f988828901611a5f565b955050602061230a88828901611a5f565b945050604061231b88828901611a95565b935050606061232c88828901611a95565b925050608086013567ffffffffffffffff81111561234d5761234c611a11565b5b61235988828901611eaa565b9150509295509295909350565b7f455243313135353a2061646472657373207a65726f206973206e6f742061207660008201527f616c6964206f776e657200000000000000000000000000000000000000000000602082015250565b60006123c2602a83611c34565b91506123cd82612366565b604082019050919050565b600060208201905081810360008301526123f1816123b5565b9050919050565b7f4e487b7100000000000000000000000000000000000000000000000000000000600052601160045260246000fd5b600061243282611a74565b915061243d83611a74565b925082820261244b81611a74565b91508282048414831517612462576124616123f8565b5b5092915050565b600061247482611a74565b915061247f83611a74565b9250828201905080821115612497576124966123f8565b5b92915050565b60006124a882611a74565b91507fffffffffffffffffffffffffffffffffffffffffffffffffffffffffffffffff82036124da576124d96123f8565b5b600182019050919050565b7f4e487b7100000000000000000000000000000000000000000000000000000000600052602260045260246000fd5b6000600282049050600182168061252c57607f821691505b60208210810361253f5761253e6124e5565b5b50919050565b7f455243313135353a2063616c6c6572206973206e6f7420746f6b656e206f776e60008201527f6572206f7220617070726f766564000000000000000000000000000000000000602082015250565b60006125a1602e83611c34565b91506125ac82612545565b604082019050919050565b600060208201905081810360008301526125d081612594565b9050919050565b7f455243313135353a206163636f756e747320616e6420696473206c656e67746860008201527f206d69736d617463680000000000000000000000000000000000000000000000602082015250565b6000612633602983611c34565b915061263e826125d7565b604082019050919050565b6000602082019050818103600083015261266281612626565b9050919050565b7f4e487b7100000000000000000000000000000000000000000000000000000000600052603260045260246000fd5b7f4f776e61626c653a206e6577206f776e657220697320746865207a65726f206160008201527f6464726573730000000000000000000000000000000000000000000000000000602082015250565b60006126f4602683611c34565b91506126ff82612698565b604082019050919050565b60006020820190508181036000830152612723816126e7565b9050919050565b7f455243313135353a206d696e7420746f20746865207a65726f2061646472657360008201527f7300000000000000000000000000000000000000000000000000000000000000602082015250565b6000612786602183611c34565b91506127918261272a565b604082019050919050565b600060208201905081810360008301526127b581612779565b9050919050565b60006040820190506127d16000830185611aea565b6127de6020830184611aea565b9392505050565b7f455243313135353a2069647320616e6420616d6f756e7473206c656e6774682060008201527f6d69736d61746368000000000000000000000000000000000000000000000000602082015250565b6000612841602883611c34565b915061284c826127e5565b604082019050919050565b6000602082019050818103600083015261287081612834565b9050919050565b7f455243313135353a207472616e7366657220746f20746865207a65726f20616460008201527f6472657373000000000000000000000000000000000000000000000000000000602082015250565b60006128d3602583611c34565b91506128de82612877565b604082019050919050565b60006020820190508181036000830152612902816128c6565b9050919050565b7f455243313135353a20696e73756666696369656e742062616c616e636520666f60008201527f72207472616e7366657200000000000000000000000000000000000000000000602082015250565b6000612965602a83611c34565b915061297082612909565b604082019050919050565b6000602082019050818103600083015261299481612958565b9050919050565b600060408201905081810360008301526129b58185612142565b905081810360208301526129c98184612142565b90509392505050565b7f4f776e61626c653a2063616c6c6572206973206e6f7420746865206f776e6572600082015250565b6000612a08602083611c34565b9150612a13826129d2565b602082019050919050565b60006020820190508181036000830152612a37816129fb565b9050919050565b7f455243313135353a2073657474696e6720617070726f76616c2073746174757360008201527f20666f722073656c660000000000000000000000000000000000000000000000602082015250565b6000612a9a602983611c34565b9150612aa582612a3e565b604082019050919050565b60006020820190508181036000830152612ac981612a8d565b9050919050565b600081519050919050565b600082825260208201905092915050565b6000612af782612ad0565b612b018185612adb565b9350612b11818560208601611c45565b612b1a81611c6f565b840191505092915050565b600060a082019050612b3a60008301886121c2565b612b4760208301876121c2565b612b546040830186611aea565b612b616060830185611aea565b8181036080830152612b738184612aec565b90509695505050505050565b600081519050612b8e81611b40565b92915050565b600060208284031215612baa57612ba9611a0c565b5b6000612bb884828501612b7f565b91505092915050565b60008160e01c9050919050565b600060033d1115612bed5760046000803e612bea600051612bc1565b90505b90565b600060443d10612c7d57612c02611a02565b60043d036004823e80513d602482011167ffffffffffffffff82111715612c2a575050612c7d565b808201805167ffffffffffffffff811115612c485750505050612c7d565b80602083010160043d038501811115612c65575050505050612c7d565b612c7482602001850186611d0f565b82955050505050505b90565b7f455243313135353a207472616e7366657220746f206e6f6e2d4552433131353560008201527f526563656976657220696d706c656d656e746572000000000000000000000000602082015250565b6000612cdc603483611c34565b9150612ce782612c80565b604082019050919050565b60006020820190508181036000830152612d0b81612ccf565b9050919050565b7f455243313135353a204552433131353552656365697665722072656a6563746560008201527f6420746f6b656e73000000000000000000000000000000000000000000000000602082015250565b6000612d6e602883611c34565b9150612d7982612d12565b604082019050919050565b60006020820190508181036000830152612d9d81612d61565b9050919050565b600060a082019050612db960008301886121c2565b612dc660208301876121c2565b8181036040830152612dd88186612142565b90508181036060830152612dec8185612142565b90508181036080830152612e008184612aec565b9050969550505050505056fea2646970667358221220a8f745ed35e89c694677657fda0c79ca05cd858891640e3207e9eb6d0dcc714a64736f6c6343000812003368747470733a2f2f697066732e696f2f697066732f516d5935457444354d6b41663745334b58354563443847574a5346457465385a6f57766948414a657a4d675136482f7b69647d2e6a736f6ea2646970667358221220d046360cc8d13fe6ed033d211588be9e0228cbaaf048cc8f8836f02f5ba0939764736f6c63430008120033",
  "immutableReferences": {},
  "source": "// SPDX-License-Identifier: MIT\r\npragma solidity ^0.8.18;\r\n\r\nimport \"../node_modules/@openzeppelin/contracts/token/ERC1155/ERC1155.sol\";\r\nimport \"../node_modules/@openzeppelin/contracts/utils/Counters.sol\";\r\nimport \"../node_modules/@openzeppelin/contracts/access/Ownable.sol\";\r\nimport \"../node_modules/@openzeppelin/contracts/token/ERC1155/utils/ERC1155Holder.sol\";\r\n\r\nimport \"./Forge/ForgeMaster.sol\";\r\nimport \"./Forge/GuardianStuff.sol\";\r\nimport \"./Token/GuardianToken.sol\";\r\n\r\ncontract TreasureGuardian is Ownable, ERC1155Holder {\r\n    ForgeMaster public factory;\r\n    GuardianStuff public guardianStuff;\r\n    GuardianToken public guardianToken;\r\n\r\n    uint256 public chestPrice = 25 ether;\r\n    uint256 private _nonce;\r\n\r\n    uint8 private _itemPerChest = 5;\r\n    uint8 private _dropRateCommon = 60;\r\n    uint8 private _dropRateUncommon = 25;\r\n    uint8 private _dropRateRare = 10;\r\n    uint8 private _dropRateEpic = 4;\r\n    uint8 private _dropRateLegendary = 1;\r\n\r\n    event onStuffTransferedTo(address to, uint256[] ids, uint256[] missingIds);\r\n\r\n    constructor() {\r\n        guardianToken = new GuardianToken();\r\n        factory = new ForgeMaster();\r\n    }\r\n\r\n    function createCollection() external onlyOwner {\r\n        address collectionAddress = factory.createCollection(\r\n            \"Node Guardians genesis collection\"\r\n        );\r\n        factory.forgeCollection();\r\n        guardianStuff = GuardianStuff(collectionAddress);\r\n    }\r\n\r\n    function safeTransferFrom(\r\n        address from,\r\n        address to,\r\n        uint id,\r\n        uint amount,\r\n        bytes memory data\r\n    ) external onlyOwner {\r\n        guardianStuff.safeTransferFrom(from, to, id, amount, data);\r\n    }\r\n\r\n    function rewardGuardianWithToken(\r\n        address guardianAddress,\r\n        uint256 amount\r\n    ) external onlyOwner {\r\n        require(\r\n            guardianToken.balanceOf(address(this)) > amount,\r\n            \"Sorry Guardian, the tresure is empty :'( \"\r\n        );\r\n\r\n        guardianToken.transfer(guardianAddress, amount);\r\n    }\r\n\r\n    function buyChest(uint amount) external {\r\n        uint8 chestItemID = guardianStuff.chestItemID();\r\n\r\n        require(\r\n            guardianStuff.balanceOf(address(this), chestItemID) > amount,\r\n            \"Sorry Guardian, there are not enough chests left.\"\r\n        );\r\n        require(\r\n            guardianToken.balanceOf(msg.sender) > chestPrice * amount,\r\n            \"Sorry Guardian, you do not have enough money.\"\r\n        );\r\n\r\n        guardianToken.transferFrom(\r\n            msg.sender,\r\n            address(this),\r\n            chestPrice * amount\r\n        );\r\n\r\n        guardianStuff.safeTransferFrom(\r\n            address(this),\r\n            msg.sender,\r\n            chestItemID,\r\n            amount,\r\n            \"\"\r\n        );\r\n    }\r\n\r\n    function modifyDropRate(\r\n        uint8 dropRateCommon,\r\n        uint8 dropRateUncommon,\r\n        uint8 dropRateRare,\r\n        uint8 dropRateEpic,\r\n        uint8 dropRateLegendary\r\n    ) external onlyOwner {\r\n        require(\r\n            (dropRateCommon +\r\n                dropRateUncommon +\r\n                dropRateRare +\r\n                dropRateEpic +\r\n                dropRateLegendary) == 100,\r\n            \"Sum of the drop rate must be egal to 100\"\r\n        );\r\n\r\n        _dropRateCommon = dropRateCommon;\r\n        _dropRateUncommon = dropRateUncommon;\r\n        _dropRateRare = dropRateRare;\r\n        _dropRateEpic = dropRateEpic;\r\n        _dropRateLegendary = dropRateLegendary;\r\n    }\r\n\r\n    function openChest() external returns (uint256[] memory ids) {\r\n        uint8 chestItemID = guardianStuff.chestItemID();\r\n\r\n        require(\r\n            guardianStuff.balanceOf(msg.sender, chestItemID) > 0,\r\n            \"Sorry Guardian, you do not have any chest in your inventory.\"\r\n        );\r\n        uint256[] memory itemIDs = new uint256[](_itemPerChest);\r\n        uint256[] memory missingItemIDs = new uint256[](_itemPerChest);\r\n\r\n        // TODO: try to regroup by id to use the amount paramater in safeTransferFrom\r\n        for (uint i = 0; i < _itemPerChest; i++) {\r\n            uint256 itemID = _generateItemID();\r\n\r\n            uint256 stuffItemCount = guardianStuff.balanceOf(\r\n                address(this),\r\n                itemID\r\n            );\r\n            if (stuffItemCount > 0) {\r\n                itemIDs[i] = itemID;\r\n\r\n                guardianStuff.safeTransferFrom(\r\n                    address(this), // from\r\n                    msg.sender, // to\r\n                    itemID,\r\n                    1,\r\n                    \"\"\r\n                );\r\n            } else {\r\n                // TODO: Manage the case when the treasure guardian does not have stuff anymore\r\n                missingItemIDs[i] = itemID;\r\n                continue;\r\n            }\r\n        }\r\n\r\n        // Burn chest\r\n        // guardianStuff.safeTransferFrom(\r\n        //     msg.sender,\r\n        //     address(0),\r\n        //     chestItemID,\r\n        //     1,\r\n        //     \"\"\r\n        // );\r\n\r\n        emit onStuffTransferedTo(msg.sender, itemIDs, missingItemIDs);\r\n\r\n        return itemIDs;\r\n    }\r\n\r\n    function _generateItemID() private returns (uint256) {\r\n        // Get the rarity random number in function fo the drop rate\r\n        uint256 random = _random();\r\n        uint8 rarity;\r\n        if (random < _dropRateCommon) {\r\n            rarity = 0;\r\n        } else if (\r\n            random >= _dropRateCommon &&\r\n            random < (_dropRateCommon + _dropRateUncommon)\r\n        ) {\r\n            rarity = 2;\r\n        } else if (\r\n            random >= (_dropRateCommon + _dropRateUncommon) &&\r\n            random < (_dropRateCommon + _dropRateUncommon + _dropRateRare)\r\n        ) {\r\n            rarity = 3;\r\n        } else if (\r\n            random >= (_dropRateCommon + _dropRateUncommon + _dropRateRare) &&\r\n            random <\r\n            (_dropRateCommon +\r\n                _dropRateUncommon +\r\n                _dropRateRare +\r\n                _dropRateEpic)\r\n        ) {\r\n            rarity = 4;\r\n        } else if (\r\n            random >=\r\n            (_dropRateCommon +\r\n                _dropRateUncommon +\r\n                _dropRateRare +\r\n                _dropRateEpic) &&\r\n            random <\r\n            (_dropRateCommon +\r\n                _dropRateUncommon +\r\n                _dropRateRare +\r\n                _dropRateLegendary)\r\n        ) {\r\n            rarity = 5;\r\n        }\r\n\r\n        random = _random();\r\n        uint8 class = 1;\r\n        // Use only the class 1 for now because I do not upload all the other files\r\n\r\n        // if (random < 33) {\r\n        //     class = 1;\r\n        // } else if (random >= 33 && random < 66) {\r\n        //     class = 2;\r\n        // } else if (random >= 66) {\r\n        //     class = 3;\r\n        // }\r\n\r\n        uint8 set = 1;\r\n        // Use only the set 1 for now because I do not upload all the other files\r\n\r\n        // if (class == 1) {\r\n        //     random = _random();\r\n        //     if (random >= 50) {\r\n        //         set = 2;\r\n        //     }\r\n        // }\r\n\r\n        uint8 part = 1;\r\n        random = _random();\r\n        if (random < 17) {\r\n            part = 1;\r\n        } else if (random >= 17 && random < 34) {\r\n            part = 2;\r\n        } else if (random >= 34 && random < 51) {\r\n            part = 3;\r\n        } else if (random >= 51 && random < 68) {\r\n            part = 4;\r\n        } else if (random >= 68 && random < 84) {\r\n            part = 5;\r\n        } else if (random >= 84) {\r\n            part = 6;\r\n        }\r\n\r\n        uint itemID = (class * 1000) + (set * 100) + (part * 10) + (rarity);\r\n        return itemID;\r\n    }\r\n\r\n    /// improve: use chain link\r\n    function _random() private returns (uint256) {\r\n        _nonce++;\r\n        return\r\n            uint256(\r\n                keccak256(abi.encodePacked(block.timestamp, msg.sender, _nonce))\r\n            ) % 100;\r\n    }\r\n}\r\n",
  "sourcePath": "C:\\Users\\Alex\\Documents\\Travail\\Alyra\\NG-Marketplace\\truffle\\contracts\\TreasureGuardian.sol",
  "compiler": {
    "name": "solc",
    "version": "0.8.18+commit.87f61d96.Emscripten.clang"
  },
  "schemaVersion": "3.4.7",
  "updatedAt": "2023-04-09T13:00:24.269Z",
  "networkType": "ethereum",
  "devdoc": {
    "kind": "dev",
    "methods": {
      "owner()": {
        "details": "Returns the address of the current owner."
      },
      "renounceOwnership()": {
        "details": "Leaves the contract without owner. It will not be possible to call `onlyOwner` functions anymore. Can only be called by the current owner. NOTE: Renouncing ownership will leave the contract without an owner, thereby removing any functionality that is only available to the owner."
      },
      "supportsInterface(bytes4)": {
        "details": "See {IERC165-supportsInterface}."
      },
      "transferOwnership(address)": {
        "details": "Transfers ownership of the contract to a new account (`newOwner`). Can only be called by the current owner."
      }
    },
    "version": 1
  },
  "userdoc": {
    "kind": "user",
    "methods": {},
    "version": 1
  }
}