{
  "contractName": "TreasureGuardian",
  "abi": [
    {
      "inputs": [],
      "stateMutability": "nonpayable",
      "type": "constructor"
    },
    {
      "anonymous": false,
      "inputs": [
        {
          "indexed": true,
          "internalType": "address",
          "name": "previousOwner",
          "type": "address"
        },
        {
          "indexed": true,
          "internalType": "address",
          "name": "newOwner",
          "type": "address"
        }
      ],
      "name": "OwnershipTransferred",
      "type": "event"
    },
    {
      "anonymous": false,
      "inputs": [
        {
          "indexed": false,
          "internalType": "address",
          "name": "to",
          "type": "address"
        },
        {
          "indexed": false,
          "internalType": "uint256[]",
          "name": "ids",
          "type": "uint256[]"
        },
        {
          "indexed": false,
          "internalType": "uint256[]",
          "name": "missingIds",
          "type": "uint256[]"
        }
      ],
      "name": "onStuffTransferedTo",
      "type": "event"
    },
    {
      "inputs": [],
      "name": "chestPrice",
      "outputs": [
        {
          "internalType": "uint256",
          "name": "",
          "type": "uint256"
        }
      ],
      "stateMutability": "view",
      "type": "function",
      "constant": true
    },
    {
      "inputs": [],
      "name": "factory",
      "outputs": [
        {
          "internalType": "contract ForgeMaster",
          "name": "",
          "type": "address"
        }
      ],
      "stateMutability": "view",
      "type": "function",
      "constant": true
    },
    {
      "inputs": [],
      "name": "guardianStuff",
      "outputs": [
        {
          "internalType": "contract GuardianStuff",
          "name": "",
          "type": "address"
        }
      ],
      "stateMutability": "view",
      "type": "function",
      "constant": true
    },
    {
      "inputs": [],
      "name": "guardianToken",
      "outputs": [
        {
          "internalType": "contract GuardianToken",
          "name": "",
          "type": "address"
        }
      ],
      "stateMutability": "view",
      "type": "function",
      "constant": true
    },
    {
      "inputs": [
        {
          "internalType": "address",
          "name": "",
          "type": "address"
        },
        {
          "internalType": "address",
          "name": "",
          "type": "address"
        },
        {
          "internalType": "uint256[]",
          "name": "",
          "type": "uint256[]"
        },
        {
          "internalType": "uint256[]",
          "name": "",
          "type": "uint256[]"
        },
        {
          "internalType": "bytes",
          "name": "",
          "type": "bytes"
        }
      ],
      "name": "onERC1155BatchReceived",
      "outputs": [
        {
          "internalType": "bytes4",
          "name": "",
          "type": "bytes4"
        }
      ],
      "stateMutability": "nonpayable",
      "type": "function"
    },
    {
      "inputs": [
        {
          "internalType": "address",
          "name": "",
          "type": "address"
        },
        {
          "internalType": "address",
          "name": "",
          "type": "address"
        },
        {
          "internalType": "uint256",
          "name": "",
          "type": "uint256"
        },
        {
          "internalType": "uint256",
          "name": "",
          "type": "uint256"
        },
        {
          "internalType": "bytes",
          "name": "",
          "type": "bytes"
        }
      ],
      "name": "onERC1155Received",
      "outputs": [
        {
          "internalType": "bytes4",
          "name": "",
          "type": "bytes4"
        }
      ],
      "stateMutability": "nonpayable",
      "type": "function"
    },
    {
      "inputs": [],
      "name": "owner",
      "outputs": [
        {
          "internalType": "address",
          "name": "",
          "type": "address"
        }
      ],
      "stateMutability": "view",
      "type": "function",
      "constant": true
    },
    {
      "inputs": [],
      "name": "renounceOwnership",
      "outputs": [],
      "stateMutability": "nonpayable",
      "type": "function"
    },
    {
      "inputs": [
        {
          "internalType": "bytes4",
          "name": "interfaceId",
          "type": "bytes4"
        }
      ],
      "name": "supportsInterface",
      "outputs": [
        {
          "internalType": "bool",
          "name": "",
          "type": "bool"
        }
      ],
      "stateMutability": "view",
      "type": "function",
      "constant": true
    },
    {
      "inputs": [
        {
          "internalType": "address",
          "name": "newOwner",
          "type": "address"
        }
      ],
      "name": "transferOwnership",
      "outputs": [],
      "stateMutability": "nonpayable",
      "type": "function"
    },
    {
      "inputs": [],
      "name": "createCollection",
      "outputs": [],
      "stateMutability": "nonpayable",
      "type": "function"
    },
    {
      "inputs": [
        {
          "internalType": "address",
          "name": "from",
          "type": "address"
        },
        {
          "internalType": "address",
          "name": "to",
          "type": "address"
        },
        {
          "internalType": "uint256",
          "name": "id",
          "type": "uint256"
        },
        {
          "internalType": "uint256",
          "name": "amount",
          "type": "uint256"
        },
        {
          "internalType": "bytes",
          "name": "data",
          "type": "bytes"
        }
      ],
      "name": "safeTransferFrom",
      "outputs": [],
      "stateMutability": "nonpayable",
      "type": "function"
    },
    {
      "inputs": [
        {
          "internalType": "address",
          "name": "guardianAddress",
          "type": "address"
        },
        {
          "internalType": "uint256",
          "name": "amount",
          "type": "uint256"
        }
      ],
      "name": "rewardGuardianWithToken",
      "outputs": [],
      "stateMutability": "nonpayable",
      "type": "function"
    },
    {
      "inputs": [
        {
          "internalType": "uint256",
          "name": "amount",
          "type": "uint256"
        }
      ],
      "name": "buyChest",
      "outputs": [],
      "stateMutability": "nonpayable",
      "type": "function"
    },
    {
      "inputs": [
        {
          "internalType": "uint8",
          "name": "dropRateCommon",
          "type": "uint8"
        },
        {
          "internalType": "uint8",
          "name": "dropRateUncommon",
          "type": "uint8"
        },
        {
          "internalType": "uint8",
          "name": "dropRateRare",
          "type": "uint8"
        },
        {
          "internalType": "uint8",
          "name": "dropRateEpic",
          "type": "uint8"
        },
        {
          "internalType": "uint8",
          "name": "dropRateLegendary",
          "type": "uint8"
        }
      ],
      "name": "modifyDropRate",
      "outputs": [],
      "stateMutability": "nonpayable",
      "type": "function"
    },
    {
      "inputs": [],
      "name": "openChest",
      "outputs": [
        {
          "internalType": "uint256[]",
          "name": "ids",
          "type": "uint256[]"
        }
      ],
      "stateMutability": "nonpayable",
      "type": "function"
    }
  ],
  "bytecode": "0x608060405268015af1d78b58c400006004556005600660006101000a81548160ff021916908360ff160217905550603c600660016101000a81548160ff021916908360ff1602179055506019600660026101000a81548160ff021916908360ff160217905550600a600660036101000a81548160ff021916908360ff1602179055506004600660046101000a81548160ff021916908360ff1602179055506001600660056101000a81548160ff021916908360ff160217905550348015620000c657600080fd5b50620000e7620000db620001c560201b60201c565b620001cd60201b60201c565b604051620000f59062000291565b604051809103906000f08015801562000112573d6000803e3d6000fd5b50600360006101000a81548173ffffffffffffffffffffffffffffffffffffffff021916908373ffffffffffffffffffffffffffffffffffffffff16021790555060405162000161906200029f565b604051809103906000f0801580156200017e573d6000803e3d6000fd5b50600160006101000a81548173ffffffffffffffffffffffffffffffffffffffff021916908373ffffffffffffffffffffffffffffffffffffffff160217905550620002ad565b600033905090565b60008060009054906101000a900473ffffffffffffffffffffffffffffffffffffffff169050816000806101000a81548173ffffffffffffffffffffffffffffffffffffffff021916908373ffffffffffffffffffffffffffffffffffffffff1602179055508173ffffffffffffffffffffffffffffffffffffffff168173ffffffffffffffffffffffffffffffffffffffff167f8be0079c531659141344cd1fd0a4f28419497f9722a3daafe3b4186f6b6457e060405160405180910390a35050565b6118fa8062002eff83390190565b6148a880620047f983390190565b612c4280620002bd6000396000f3fe608060405234801561001057600080fd5b50600436106101005760003560e01c8063ae196ec811610097578063f23a6e6111610066578063f23a6e6114610263578063f242432a14610293578063f2fde38b146102af578063fa180dc9146102cb57610100565b8063ae196ec8146101db578063bc197c81146101f7578063c45a015514610227578063f15473041461024557610100565b80636f49a3c0116100d35780636f49a3c014610179578063715018a614610197578063829a826a146101a15780638da5cb5b146101bd57610100565b806301ffc9a714610105578063444e56ed146101355780634e19254814610153578063647f1a9c1461016f575b600080fd5b61011f600480360381019061011a9190611847565b6102e9565b60405161012c919061188f565b60405180910390f35b61013d610363565b60405161014a91906118c3565b60405180910390f35b61016d6004803603810190610168919061190a565b610369565b005b61017761070d565b005b61018161087b565b60405161018e91906119f5565b60405180910390f35b61019f610d51565b005b6101bb60048036038101906101b69190611a50565b610d65565b005b6101c5610e6d565b6040516101d29190611b0c565b60405180910390f35b6101f560048036038101906101f09190611b53565b610e96565b005b610211600480360381019061020c9190611da1565b611020565b60405161021e9190611e7f565b60405180910390f35b61022f611035565b60405161023c9190611ef9565b60405180910390f35b61024d61105b565b60405161025a9190611f35565b60405180910390f35b61027d60048036038101906102789190611f50565b611081565b60405161028a9190611e7f565b60405180910390f35b6102ad60048036038101906102a89190611f50565b611096565b005b6102c960048036038101906102c49190611fe7565b61113a565b005b6102d36111bd565b6040516102e09190612035565b60405180910390f35b60007f4e2312e0000000000000000000000000000000000000000000000000000000007bffffffffffffffffffffffffffffffffffffffffffffffffffffffff1916827bffffffffffffffffffffffffffffffffffffffffffffffffffffffff1916148061035c575061035b826111e3565b5b9050919050565b60045481565b6000600260009054906101000a900473ffffffffffffffffffffffffffffffffffffffff1673ffffffffffffffffffffffffffffffffffffffff1663ea2a17306040518163ffffffff1660e01b8152600401602060405180830381865afa1580156103d8573d6000803e3d6000fd5b505050506040513d601f19601f820116820180604052508101906103fc9190612065565b905081600260009054906101000a900473ffffffffffffffffffffffffffffffffffffffff1673ffffffffffffffffffffffffffffffffffffffff1662fdd58e30846040518363ffffffff1660e01b815260040161045b9291906120c3565b602060405180830381865afa158015610478573d6000803e3d6000fd5b505050506040513d601f19601f8201168201806040525081019061049c9190612101565b116104dc576040517f08c379a00000000000000000000000000000000000000000000000000000000081526004016104d3906121b1565b60405180910390fd5b816004546104ea9190612200565b600360009054906101000a900473ffffffffffffffffffffffffffffffffffffffff1673ffffffffffffffffffffffffffffffffffffffff166370a08231336040518263ffffffff1660e01b81526004016105459190611b0c565b602060405180830381865afa158015610562573d6000803e3d6000fd5b505050506040513d601f19601f820116820180604052508101906105869190612101565b116105c6576040517f08c379a00000000000000000000000000000000000000000000000000000000081526004016105bd906122b4565b60405180910390fd5b600360009054906101000a900473ffffffffffffffffffffffffffffffffffffffff1673ffffffffffffffffffffffffffffffffffffffff166323b872dd3330856004546106149190612200565b6040518463ffffffff1660e01b8152600401610632939291906122d4565b6020604051808303816000875af1158015610651573d6000803e3d6000fd5b505050506040513d601f19601f820116820180604052508101906106759190612337565b50600260009054906101000a900473ffffffffffffffffffffffffffffffffffffffff1673ffffffffffffffffffffffffffffffffffffffff1663f242432a303384866040518563ffffffff1660e01b81526004016106d7949392919061239b565b600060405180830381600087803b1580156106f157600080fd5b505af1158015610705573d6000803e3d6000fd5b505050505050565b61071561124d565b6000600160009054906101000a900473ffffffffffffffffffffffffffffffffffffffff1673ffffffffffffffffffffffffffffffffffffffff1663059dfe136040518163ffffffff1660e01b815260040161077090612465565b6020604051808303816000875af115801561078f573d6000803e3d6000fd5b505050506040513d601f19601f820116820180604052508101906107b3919061249a565b9050600160009054906101000a900473ffffffffffffffffffffffffffffffffffffffff1673ffffffffffffffffffffffffffffffffffffffff16630f7deecb6040518163ffffffff1660e01b8152600401600060405180830381600087803b15801561081f57600080fd5b505af1158015610833573d6000803e3d6000fd5b5050505080600260006101000a81548173ffffffffffffffffffffffffffffffffffffffff021916908373ffffffffffffffffffffffffffffffffffffffff16021790555050565b60606000600260009054906101000a900473ffffffffffffffffffffffffffffffffffffffff1673ffffffffffffffffffffffffffffffffffffffff1663ea2a17306040518163ffffffff1660e01b8152600401602060405180830381865afa1580156108ec573d6000803e3d6000fd5b505050506040513d601f19601f820116820180604052508101906109109190612065565b90506000600260009054906101000a900473ffffffffffffffffffffffffffffffffffffffff1673ffffffffffffffffffffffffffffffffffffffff1662fdd58e33846040518363ffffffff1660e01b81526004016109709291906120c3565b602060405180830381865afa15801561098d573d6000803e3d6000fd5b505050506040513d601f19601f820116820180604052508101906109b19190612101565b116109f1576040517f08c379a00000000000000000000000000000000000000000000000000000000081526004016109e890612539565b60405180910390fd5b6000600660009054906101000a900460ff1660ff1667ffffffffffffffff811115610a1f57610a1e611ba9565b5b604051908082528060200260200182016040528015610a4d5781602001602082028036833780820191505090505b5090506000600660009054906101000a900460ff1660ff1667ffffffffffffffff811115610a7e57610a7d611ba9565b5b604051908082528060200260200182016040528015610aac5781602001602082028036833780820191505090505b50905060005b600660009054906101000a900460ff1660ff16811015610c78576000610ad66112cb565b90506000600260009054906101000a900473ffffffffffffffffffffffffffffffffffffffff1673ffffffffffffffffffffffffffffffffffffffff1662fdd58e30846040518363ffffffff1660e01b8152600401610b36929190612559565b602060405180830381865afa158015610b53573d6000803e3d6000fd5b505050506040513d601f19601f82011682018060405250810190610b779190612101565b90506000811115610c3b5781858481518110610b9657610b95612582565b5b602002602001018181525050600260009054906101000a900473ffffffffffffffffffffffffffffffffffffffff1673ffffffffffffffffffffffffffffffffffffffff1663f242432a30338560016040518563ffffffff1660e01b8152600401610c0494939291906125ec565b600060405180830381600087803b158015610c1e57600080fd5b505af1158015610c32573d6000803e3d6000fd5b50505050610c62565b81848481518110610c4f57610c4e612582565b5b6020026020010181815250505050610c65565b50505b8080610c7090612644565b915050610ab2565b50600260009054906101000a900473ffffffffffffffffffffffffffffffffffffffff1673ffffffffffffffffffffffffffffffffffffffff1663f242432a33308660016040518563ffffffff1660e01b8152600401610cdb949392919061268c565b600060405180830381600087803b158015610cf557600080fd5b505af1158015610d09573d6000803e3d6000fd5b505050507f1ab84bce784ba927df23bef9279723d9bbad6dec82728fb92e2aebfac01f666d338383604051610d40939291906126e4565b60405180910390a181935050505090565b610d5961124d565b610d6360006116b4565b565b610d6d61124d565b60648183858789610d7e9190612729565b610d889190612729565b610d929190612729565b610d9c9190612729565b60ff1614610ddf576040517f08c379a0000000000000000000000000000000000000000000000000000000008152600401610dd6906127d0565b60405180910390fd5b84600660016101000a81548160ff021916908360ff16021790555083600660026101000a81548160ff021916908360ff16021790555082600660036101000a81548160ff021916908360ff16021790555081600660046101000a81548160ff021916908360ff16021790555080600660056101000a81548160ff021916908360ff1602179055505050505050565b60008060009054906101000a900473ffffffffffffffffffffffffffffffffffffffff16905090565b610e9e61124d565b80600360009054906101000a900473ffffffffffffffffffffffffffffffffffffffff1673ffffffffffffffffffffffffffffffffffffffff166370a08231306040518263ffffffff1660e01b8152600401610efa9190611b0c565b602060405180830381865afa158015610f17573d6000803e3d6000fd5b505050506040513d601f19601f82011682018060405250810190610f3b9190612101565b11610f7b576040517f08c379a0000000000000000000000000000000000000000000000000000000008152600401610f7290612862565b60405180910390fd5b600360009054906101000a900473ffffffffffffffffffffffffffffffffffffffff1673ffffffffffffffffffffffffffffffffffffffff1663a9059cbb83836040518363ffffffff1660e01b8152600401610fd8929190612559565b6020604051808303816000875af1158015610ff7573d6000803e3d6000fd5b505050506040513d601f19601f8201168201806040525081019061101b9190612337565b505050565b600063bc197c8160e01b905095945050505050565b600160009054906101000a900473ffffffffffffffffffffffffffffffffffffffff1681565b600260009054906101000a900473ffffffffffffffffffffffffffffffffffffffff1681565b600063f23a6e6160e01b905095945050505050565b61109e61124d565b600260009054906101000a900473ffffffffffffffffffffffffffffffffffffffff1673ffffffffffffffffffffffffffffffffffffffff1663f242432a86868686866040518663ffffffff1660e01b81526004016111019594939291906128f0565b600060405180830381600087803b15801561111b57600080fd5b505af115801561112f573d6000803e3d6000fd5b505050505050505050565b61114261124d565b600073ffffffffffffffffffffffffffffffffffffffff168173ffffffffffffffffffffffffffffffffffffffff16036111b1576040517f08c379a00000000000000000000000000000000000000000000000000000000081526004016111a8906129bc565b60405180910390fd5b6111ba816116b4565b50565b600360009054906101000a900473ffffffffffffffffffffffffffffffffffffffff1681565b60007f01ffc9a7000000000000000000000000000000000000000000000000000000007bffffffffffffffffffffffffffffffffffffffffffffffffffffffff1916827bffffffffffffffffffffffffffffffffffffffffffffffffffffffff1916149050919050565b611255611778565b73ffffffffffffffffffffffffffffffffffffffff16611273610e6d565b73ffffffffffffffffffffffffffffffffffffffff16146112c9576040517f08c379a00000000000000000000000000000000000000000000000000000000081526004016112c090612a28565b60405180910390fd5b565b6000806112d6611780565b90506000600660019054906101000a900460ff1660ff168210156112fd5760009050611587565b600660019054906101000a900460ff1660ff16821015801561134a5750600660029054906101000a900460ff16600660019054906101000a900460ff166113449190612729565b60ff1682105b156113585760029050611586565b600660029054906101000a900460ff16600660019054906101000a900460ff166113829190612729565b60ff1682101580156113d95750600660039054906101000a900460ff16600660029054906101000a900460ff16600660019054906101000a900460ff166113c99190612729565b6113d39190612729565b60ff1682105b156113e75760039050611585565b600660039054906101000a900460ff16600660029054906101000a900460ff16600660019054906101000a900460ff166114219190612729565b61142b9190612729565b60ff16821015801561149c5750600660049054906101000a900460ff16600660039054906101000a900460ff16600660029054906101000a900460ff16600660019054906101000a900460ff166114829190612729565b61148c9190612729565b6114969190612729565b60ff1682105b156114aa5760049050611584565b600660049054906101000a900460ff16600660039054906101000a900460ff16600660029054906101000a900460ff16600660019054906101000a900460ff166114f49190612729565b6114fe9190612729565b6115089190612729565b60ff1682101580156115795750600660059054906101000a900460ff16600660039054906101000a900460ff16600660029054906101000a900460ff16600660019054906101000a900460ff1661155f9190612729565b6115699190612729565b6115739190612729565b60ff1682105b1561158357600590505b5b5b5b5b61158f611780565b91506000600190506000600190506000600190506115ab611780565b945060118510156115bf576001905061164d565b601185101580156115d05750602285105b156115de576002905061164c565b602285101580156115ef5750603385105b156115fd576003905061164b565b6033851015801561160e5750604485105b1561161c576004905061164a565b6044851015801561162d5750605485105b1561163b5760059050611649565b6054851061164857600690505b5b5b5b5b5b60008460ff16600a836116609190612a48565b60ff166064856116709190612a48565b60ff166103e88760ff166116849190612a93565b61168e9190612ad0565b6116989190612ad0565b6116a29190612ad0565b61ffff16905080965050505050505090565b60008060009054906101000a900473ffffffffffffffffffffffffffffffffffffffff169050816000806101000a81548173ffffffffffffffffffffffffffffffffffffffff021916908373ffffffffffffffffffffffffffffffffffffffff1602179055508173ffffffffffffffffffffffffffffffffffffffff168173ffffffffffffffffffffffffffffffffffffffff167f8be0079c531659141344cd1fd0a4f28419497f9722a3daafe3b4186f6b6457e060405160405180910390a35050565b600033905090565b60006005600081548092919061179590612644565b9190505550606442336005546040516020016117b393929190612b6f565b6040516020818303038152906040528051906020012060001c6117d69190612bdb565b905090565b6000604051905090565b600080fd5b600080fd5b60007fffffffff0000000000000000000000000000000000000000000000000000000082169050919050565b611824816117ef565b811461182f57600080fd5b50565b6000813590506118418161181b565b92915050565b60006020828403121561185d5761185c6117e5565b5b600061186b84828501611832565b91505092915050565b60008115159050919050565b61188981611874565b82525050565b60006020820190506118a46000830184611880565b92915050565b6000819050919050565b6118bd816118aa565b82525050565b60006020820190506118d860008301846118b4565b92915050565b6118e7816118aa565b81146118f257600080fd5b50565b600081359050611904816118de565b92915050565b6000602082840312156119205761191f6117e5565b5b600061192e848285016118f5565b91505092915050565b600081519050919050565b600082825260208201905092915050565b6000819050602082019050919050565b61196c816118aa565b82525050565b600061197e8383611963565b60208301905092915050565b6000602082019050919050565b60006119a282611937565b6119ac8185611942565b93506119b783611953565b8060005b838110156119e85781516119cf8882611972565b97506119da8361198a565b9250506001810190506119bb565b5085935050505092915050565b60006020820190508181036000830152611a0f8184611997565b905092915050565b600060ff82169050919050565b611a2d81611a17565b8114611a3857600080fd5b50565b600081359050611a4a81611a24565b92915050565b600080600080600060a08688031215611a6c57611a6b6117e5565b5b6000611a7a88828901611a3b565b9550506020611a8b88828901611a3b565b9450506040611a9c88828901611a3b565b9350506060611aad88828901611a3b565b9250506080611abe88828901611a3b565b9150509295509295909350565b600073ffffffffffffffffffffffffffffffffffffffff82169050919050565b6000611af682611acb565b9050919050565b611b0681611aeb565b82525050565b6000602082019050611b216000830184611afd565b92915050565b611b3081611aeb565b8114611b3b57600080fd5b50565b600081359050611b4d81611b27565b92915050565b60008060408385031215611b6a57611b696117e5565b5b6000611b7885828601611b3e565b9250506020611b89858286016118f5565b9150509250929050565b600080fd5b6000601f19601f8301169050919050565b7f4e487b7100000000000000000000000000000000000000000000000000000000600052604160045260246000fd5b611be182611b98565b810181811067ffffffffffffffff82111715611c0057611bff611ba9565b5b80604052505050565b6000611c136117db565b9050611c1f8282611bd8565b919050565b600067ffffffffffffffff821115611c3f57611c3e611ba9565b5b602082029050602081019050919050565b600080fd5b6000611c68611c6384611c24565b611c09565b90508083825260208201905060208402830185811115611c8b57611c8a611c50565b5b835b81811015611cb45780611ca088826118f5565b845260208401935050602081019050611c8d565b5050509392505050565b600082601f830112611cd357611cd2611b93565b5b8135611ce3848260208601611c55565b91505092915050565b600080fd5b600067ffffffffffffffff821115611d0c57611d0b611ba9565b5b611d1582611b98565b9050602081019050919050565b82818337600083830152505050565b6000611d44611d3f84611cf1565b611c09565b905082815260208101848484011115611d6057611d5f611cec565b5b611d6b848285611d22565b509392505050565b600082601f830112611d8857611d87611b93565b5b8135611d98848260208601611d31565b91505092915050565b600080600080600060a08688031215611dbd57611dbc6117e5565b5b6000611dcb88828901611b3e565b9550506020611ddc88828901611b3e565b945050604086013567ffffffffffffffff811115611dfd57611dfc6117ea565b5b611e0988828901611cbe565b935050606086013567ffffffffffffffff811115611e2a57611e296117ea565b5b611e3688828901611cbe565b925050608086013567ffffffffffffffff811115611e5757611e566117ea565b5b611e6388828901611d73565b9150509295509295909350565b611e79816117ef565b82525050565b6000602082019050611e946000830184611e70565b92915050565b6000819050919050565b6000611ebf611eba611eb584611acb565b611e9a565b611acb565b9050919050565b6000611ed182611ea4565b9050919050565b6000611ee382611ec6565b9050919050565b611ef381611ed8565b82525050565b6000602082019050611f0e6000830184611eea565b92915050565b6000611f1f82611ec6565b9050919050565b611f2f81611f14565b82525050565b6000602082019050611f4a6000830184611f26565b92915050565b600080600080600060a08688031215611f6c57611f6b6117e5565b5b6000611f7a88828901611b3e565b9550506020611f8b88828901611b3e565b9450506040611f9c888289016118f5565b9350506060611fad888289016118f5565b925050608086013567ffffffffffffffff811115611fce57611fcd6117ea565b5b611fda88828901611d73565b9150509295509295909350565b600060208284031215611ffd57611ffc6117e5565b5b600061200b84828501611b3e565b91505092915050565b600061201f82611ec6565b9050919050565b61202f81612014565b82525050565b600060208201905061204a6000830184612026565b92915050565b60008151905061205f81611a24565b92915050565b60006020828403121561207b5761207a6117e5565b5b600061208984828501612050565b91505092915050565b60006120ad6120a86120a384611a17565b611e9a565b6118aa565b9050919050565b6120bd81612092565b82525050565b60006040820190506120d86000830185611afd565b6120e560208301846120b4565b9392505050565b6000815190506120fb816118de565b92915050565b600060208284031215612117576121166117e5565b5b6000612125848285016120ec565b91505092915050565b600082825260208201905092915050565b7f536f72727920477561726469616e2c20746865726520617265206e6f7420656e60008201527f6f75676820636865737473206c6566742e000000000000000000000000000000602082015250565b600061219b60318361212e565b91506121a68261213f565b604082019050919050565b600060208201905081810360008301526121ca8161218e565b9050919050565b7f4e487b7100000000000000000000000000000000000000000000000000000000600052601160045260246000fd5b600061220b826118aa565b9150612216836118aa565b9250828202612224816118aa565b9150828204841483151761223b5761223a6121d1565b5b5092915050565b7f536f72727920477561726469616e2c20796f7520646f206e6f7420686176652060008201527f656e6f756768206d6f6e65792e00000000000000000000000000000000000000602082015250565b600061229e602d8361212e565b91506122a982612242565b604082019050919050565b600060208201905081810360008301526122cd81612291565b9050919050565b60006060820190506122e96000830186611afd565b6122f66020830185611afd565b61230360408301846118b4565b949350505050565b61231481611874565b811461231f57600080fd5b50565b6000815190506123318161230b565b92915050565b60006020828403121561234d5761234c6117e5565b5b600061235b84828501612322565b91505092915050565b600082825260208201905092915050565b50565b6000612385600083612364565b915061239082612375565b600082019050919050565b600060a0820190506123b06000830187611afd565b6123bd6020830186611afd565b6123ca60408301856120b4565b6123d760608301846118b4565b81810360808301526123e881612378565b905095945050505050565b7f4e6f646520477561726469616e732067656e6573697320636f6c6c656374696f60008201527f6e00000000000000000000000000000000000000000000000000000000000000602082015250565b600061244f60218361212e565b915061245a826123f3565b604082019050919050565b6000602082019050818103600083015261247e81612442565b9050919050565b60008151905061249481611b27565b92915050565b6000602082840312156124b0576124af6117e5565b5b60006124be84828501612485565b91505092915050565b7f536f72727920477561726469616e2c20796f7520646f206e6f7420686176652060008201527f616e7920636865737420696e20796f757220696e76656e746f72792e00000000602082015250565b6000612523603c8361212e565b915061252e826124c7565b604082019050919050565b6000602082019050818103600083015261255281612516565b9050919050565b600060408201905061256e6000830185611afd565b61257b60208301846118b4565b9392505050565b7f4e487b7100000000000000000000000000000000000000000000000000000000600052603260045260246000fd5b6000819050919050565b60006125d66125d16125cc846125b1565b611e9a565b6118aa565b9050919050565b6125e6816125bb565b82525050565b600060a0820190506126016000830187611afd565b61260e6020830186611afd565b61261b60408301856118b4565b61262860608301846125dd565b818103608083015261263981612378565b905095945050505050565b600061264f826118aa565b91507fffffffffffffffffffffffffffffffffffffffffffffffffffffffffffffffff8203612681576126806121d1565b5b600182019050919050565b600060a0820190506126a16000830187611afd565b6126ae6020830186611afd565b6126bb60408301856120b4565b6126c860608301846125dd565b81810360808301526126d981612378565b905095945050505050565b60006060820190506126f96000830186611afd565b818103602083015261270b8185611997565b9050818103604083015261271f8184611997565b9050949350505050565b600061273482611a17565b915061273f83611a17565b9250828201905060ff811115612758576127576121d1565b5b92915050565b7f53756d206f66207468652064726f702072617465206d7573742062652065676160008201527f6c20746f20313030000000000000000000000000000000000000000000000000602082015250565b60006127ba60288361212e565b91506127c58261275e565b604082019050919050565b600060208201905081810360008301526127e9816127ad565b9050919050565b7f536f72727920477561726469616e2c207468657265206973206e6f206d6f726560008201527f206d6f6e657920696e2074686520747265617375726500000000000000000000602082015250565b600061284c60368361212e565b9150612857826127f0565b604082019050919050565b6000602082019050818103600083015261287b8161283f565b9050919050565b600081519050919050565b60005b838110156128ab578082015181840152602081019050612890565b60008484015250505050565b60006128c282612882565b6128cc8185612364565b93506128dc81856020860161288d565b6128e581611b98565b840191505092915050565b600060a0820190506129056000830188611afd565b6129126020830187611afd565b61291f60408301866118b4565b61292c60608301856118b4565b818103608083015261293e81846128b7565b90509695505050505050565b7f4f776e61626c653a206e6577206f776e657220697320746865207a65726f206160008201527f6464726573730000000000000000000000000000000000000000000000000000602082015250565b60006129a660268361212e565b91506129b18261294a565b604082019050919050565b600060208201905081810360008301526129d581612999565b9050919050565b7f4f776e61626c653a2063616c6c6572206973206e6f7420746865206f776e6572600082015250565b6000612a1260208361212e565b9150612a1d826129dc565b602082019050919050565b60006020820190508181036000830152612a4181612a05565b9050919050565b6000612a5382611a17565b9150612a5e83611a17565b9250828202612a6c81611a17565b9150808214612a7e57612a7d6121d1565b5b5092915050565b600061ffff82169050919050565b6000612a9e82612a85565b9150612aa983612a85565b9250828202612ab781612a85565b9150808214612ac957612ac86121d1565b5b5092915050565b6000612adb82612a85565b9150612ae683612a85565b9250828201905061ffff811115612b0057612aff6121d1565b5b92915050565b6000819050919050565b612b21612b1c826118aa565b612b06565b82525050565b60008160601b9050919050565b6000612b3f82612b27565b9050919050565b6000612b5182612b34565b9050919050565b612b69612b6482611aeb565b612b46565b82525050565b6000612b7b8286612b10565b602082019150612b8b8285612b58565b601482019150612b9b8284612b10565b602082019150819050949350505050565b7f4e487b7100000000000000000000000000000000000000000000000000000000600052601260045260246000fd5b6000612be6826118aa565b9150612bf1836118aa565b925082612c0157612c00612bac565b5b82820690509291505056fea264697066735822122071fa36dfff5412473d9cff7489d358fbc94431f8078fc70c19beab0a066e202464736f6c6343000812003360806040523480156200001157600080fd5b506040518060400160405280600881526020017f475541524449414e0000000000000000000000000000000000000000000000008152506040518060400160405280600481526020017f475552440000000000000000000000000000000000000000000000000000000081525081600390816200008f9190620004b9565b508060049081620000a19190620004b9565b505050620000c2336b033b2e3c9fd0803ce8000000620000c860201b60201c565b620006bb565b600073ffffffffffffffffffffffffffffffffffffffff168273ffffffffffffffffffffffffffffffffffffffff16036200013a576040517f08c379a0000000000000000000000000000000000000000000000000000000008152600401620001319062000601565b60405180910390fd5b6200014e600083836200023560201b60201c565b806002600082825462000162919062000652565b92505081905550806000808473ffffffffffffffffffffffffffffffffffffffff1673ffffffffffffffffffffffffffffffffffffffff168152602001908152602001600020600082825401925050819055508173ffffffffffffffffffffffffffffffffffffffff16600073ffffffffffffffffffffffffffffffffffffffff167fddf252ad1be2c89b69c2b068fc378daa952ba7f163c4a11628f55a4df523b3ef836040516200021591906200069e565b60405180910390a362000231600083836200023a60201b60201c565b5050565b505050565b505050565b600081519050919050565b7f4e487b7100000000000000000000000000000000000000000000000000000000600052604160045260246000fd5b7f4e487b7100000000000000000000000000000000000000000000000000000000600052602260045260246000fd5b60006002820490506001821680620002c157607f821691505b602082108103620002d757620002d662000279565b5b50919050565b60008190508160005260206000209050919050565b60006020601f8301049050919050565b600082821b905092915050565b600060088302620003417fffffffffffffffffffffffffffffffffffffffffffffffffffffffffffffffff8262000302565b6200034d868362000302565b95508019841693508086168417925050509392505050565b6000819050919050565b6000819050919050565b60006200039a620003946200038e8462000365565b6200036f565b62000365565b9050919050565b6000819050919050565b620003b68362000379565b620003ce620003c582620003a1565b8484546200030f565b825550505050565b600090565b620003e5620003d6565b620003f2818484620003ab565b505050565b5b818110156200041a576200040e600082620003db565b600181019050620003f8565b5050565b601f82111562000469576200043381620002dd565b6200043e84620002f2565b810160208510156200044e578190505b620004666200045d85620002f2565b830182620003f7565b50505b505050565b600082821c905092915050565b60006200048e600019846008026200046e565b1980831691505092915050565b6000620004a983836200047b565b9150826002028217905092915050565b620004c4826200023f565b67ffffffffffffffff811115620004e057620004df6200024a565b5b620004ec8254620002a8565b620004f98282856200041e565b600060209050601f8311600181146200053157600084156200051c578287015190505b6200052885826200049b565b86555062000598565b601f1984166200054186620002dd565b60005b828110156200056b5784890151825560018201915060208501945060208101905062000544565b868310156200058b578489015162000587601f8916826200047b565b8355505b6001600288020188555050505b505050505050565b600082825260208201905092915050565b7f45524332303a206d696e7420746f20746865207a65726f206164647265737300600082015250565b6000620005e9601f83620005a0565b9150620005f682620005b1565b602082019050919050565b600060208201905081810360008301526200061c81620005da565b9050919050565b7f4e487b7100000000000000000000000000000000000000000000000000000000600052601160045260246000fd5b60006200065f8262000365565b91506200066c8362000365565b925082820190508082111562000687576200068662000623565b5b92915050565b620006988162000365565b82525050565b6000602082019050620006b560008301846200068d565b92915050565b61122f80620006cb6000396000f3fe608060405234801561001057600080fd5b50600436106100a95760003560e01c80633950935111610071578063395093511461016857806370a082311461019857806395d89b41146101c8578063a457c2d7146101e6578063a9059cbb14610216578063dd62ed3e14610246576100a9565b806306fdde03146100ae578063095ea7b3146100cc57806318160ddd146100fc57806323b872dd1461011a578063313ce5671461014a575b600080fd5b6100b6610276565b6040516100c39190610b0c565b60405180910390f35b6100e660048036038101906100e19190610bc7565b610308565b6040516100f39190610c22565b60405180910390f35b61010461032b565b6040516101119190610c4c565b60405180910390f35b610134600480360381019061012f9190610c67565b610335565b6040516101419190610c22565b60405180910390f35b610152610364565b60405161015f9190610cd6565b60405180910390f35b610182600480360381019061017d9190610bc7565b61036d565b60405161018f9190610c22565b60405180910390f35b6101b260048036038101906101ad9190610cf1565b6103a4565b6040516101bf9190610c4c565b60405180910390f35b6101d06103ec565b6040516101dd9190610b0c565b60405180910390f35b61020060048036038101906101fb9190610bc7565b61047e565b60405161020d9190610c22565b60405180910390f35b610230600480360381019061022b9190610bc7565b6104f5565b60405161023d9190610c22565b60405180910390f35b610260600480360381019061025b9190610d1e565b610518565b60405161026d9190610c4c565b60405180910390f35b60606003805461028590610d8d565b80601f01602080910402602001604051908101604052809291908181526020018280546102b190610d8d565b80156102fe5780601f106102d3576101008083540402835291602001916102fe565b820191906000526020600020905b8154815290600101906020018083116102e157829003601f168201915b5050505050905090565b60008061031361059f565b90506103208185856105a7565b600191505092915050565b6000600254905090565b60008061034061059f565b905061034d858285610770565b6103588585856107fc565b60019150509392505050565b60006012905090565b60008061037861059f565b905061039981858561038a8589610518565b6103949190610ded565b6105a7565b600191505092915050565b60008060008373ffffffffffffffffffffffffffffffffffffffff1673ffffffffffffffffffffffffffffffffffffffff168152602001908152602001600020549050919050565b6060600480546103fb90610d8d565b80601f016020809104026020016040519081016040528092919081815260200182805461042790610d8d565b80156104745780601f1061044957610100808354040283529160200191610474565b820191906000526020600020905b81548152906001019060200180831161045757829003601f168201915b5050505050905090565b60008061048961059f565b905060006104978286610518565b9050838110156104dc576040517f08c379a00000000000000000000000000000000000000000000000000000000081526004016104d390610e93565b60405180910390fd5b6104e982868684036105a7565b60019250505092915050565b60008061050061059f565b905061050d8185856107fc565b600191505092915050565b6000600160008473ffffffffffffffffffffffffffffffffffffffff1673ffffffffffffffffffffffffffffffffffffffff16815260200190815260200160002060008373ffffffffffffffffffffffffffffffffffffffff1673ffffffffffffffffffffffffffffffffffffffff16815260200190815260200160002054905092915050565b600033905090565b600073ffffffffffffffffffffffffffffffffffffffff168373ffffffffffffffffffffffffffffffffffffffff1603610616576040517f08c379a000000000000000000000000000000000000000000000000000000000815260040161060d90610f25565b60405180910390fd5b600073ffffffffffffffffffffffffffffffffffffffff168273ffffffffffffffffffffffffffffffffffffffff1603610685576040517f08c379a000000000000000000000000000000000000000000000000000000000815260040161067c90610fb7565b60405180910390fd5b80600160008573ffffffffffffffffffffffffffffffffffffffff1673ffffffffffffffffffffffffffffffffffffffff16815260200190815260200160002060008473ffffffffffffffffffffffffffffffffffffffff1673ffffffffffffffffffffffffffffffffffffffff168152602001908152602001600020819055508173ffffffffffffffffffffffffffffffffffffffff168373ffffffffffffffffffffffffffffffffffffffff167f8c5be1e5ebec7d5bd14f71427d1e84f3dd0314c0f7b2291e5b200ac8c7c3b925836040516107639190610c4c565b60405180910390a3505050565b600061077c8484610518565b90507fffffffffffffffffffffffffffffffffffffffffffffffffffffffffffffffff81146107f657818110156107e8576040517f08c379a00000000000000000000000000000000000000000000000000000000081526004016107df90611023565b60405180910390fd5b6107f584848484036105a7565b5b50505050565b600073ffffffffffffffffffffffffffffffffffffffff168373ffffffffffffffffffffffffffffffffffffffff160361086b576040517f08c379a0000000000000000000000000000000000000000000000000000000008152600401610862906110b5565b60405180910390fd5b600073ffffffffffffffffffffffffffffffffffffffff168273ffffffffffffffffffffffffffffffffffffffff16036108da576040517f08c379a00000000000000000000000000000000000000000000000000000000081526004016108d190611147565b60405180910390fd5b6108e5838383610a72565b60008060008573ffffffffffffffffffffffffffffffffffffffff1673ffffffffffffffffffffffffffffffffffffffff1681526020019081526020016000205490508181101561096b576040517f08c379a0000000000000000000000000000000000000000000000000000000008152600401610962906111d9565b60405180910390fd5b8181036000808673ffffffffffffffffffffffffffffffffffffffff1673ffffffffffffffffffffffffffffffffffffffff16815260200190815260200160002081905550816000808573ffffffffffffffffffffffffffffffffffffffff1673ffffffffffffffffffffffffffffffffffffffff168152602001908152602001600020600082825401925050819055508273ffffffffffffffffffffffffffffffffffffffff168473ffffffffffffffffffffffffffffffffffffffff167fddf252ad1be2c89b69c2b068fc378daa952ba7f163c4a11628f55a4df523b3ef84604051610a599190610c4c565b60405180910390a3610a6c848484610a77565b50505050565b505050565b505050565b600081519050919050565b600082825260208201905092915050565b60005b83811015610ab6578082015181840152602081019050610a9b565b60008484015250505050565b6000601f19601f8301169050919050565b6000610ade82610a7c565b610ae88185610a87565b9350610af8818560208601610a98565b610b0181610ac2565b840191505092915050565b60006020820190508181036000830152610b268184610ad3565b905092915050565b600080fd5b600073ffffffffffffffffffffffffffffffffffffffff82169050919050565b6000610b5e82610b33565b9050919050565b610b6e81610b53565b8114610b7957600080fd5b50565b600081359050610b8b81610b65565b92915050565b6000819050919050565b610ba481610b91565b8114610baf57600080fd5b50565b600081359050610bc181610b9b565b92915050565b60008060408385031215610bde57610bdd610b2e565b5b6000610bec85828601610b7c565b9250506020610bfd85828601610bb2565b9150509250929050565b60008115159050919050565b610c1c81610c07565b82525050565b6000602082019050610c376000830184610c13565b92915050565b610c4681610b91565b82525050565b6000602082019050610c616000830184610c3d565b92915050565b600080600060608486031215610c8057610c7f610b2e565b5b6000610c8e86828701610b7c565b9350506020610c9f86828701610b7c565b9250506040610cb086828701610bb2565b9150509250925092565b600060ff82169050919050565b610cd081610cba565b82525050565b6000602082019050610ceb6000830184610cc7565b92915050565b600060208284031215610d0757610d06610b2e565b5b6000610d1584828501610b7c565b91505092915050565b60008060408385031215610d3557610d34610b2e565b5b6000610d4385828601610b7c565b9250506020610d5485828601610b7c565b9150509250929050565b7f4e487b7100000000000000000000000000000000000000000000000000000000600052602260045260246000fd5b60006002820490506001821680610da557607f821691505b602082108103610db857610db7610d5e565b5b50919050565b7f4e487b7100000000000000000000000000000000000000000000000000000000600052601160045260246000fd5b6000610df882610b91565b9150610e0383610b91565b9250828201905080821115610e1b57610e1a610dbe565b5b92915050565b7f45524332303a2064656372656173656420616c6c6f77616e63652062656c6f7760008201527f207a65726f000000000000000000000000000000000000000000000000000000602082015250565b6000610e7d602583610a87565b9150610e8882610e21565b604082019050919050565b60006020820190508181036000830152610eac81610e70565b9050919050565b7f45524332303a20617070726f76652066726f6d20746865207a65726f2061646460008201527f7265737300000000000000000000000000000000000000000000000000000000602082015250565b6000610f0f602483610a87565b9150610f1a82610eb3565b604082019050919050565b60006020820190508181036000830152610f3e81610f02565b9050919050565b7f45524332303a20617070726f766520746f20746865207a65726f20616464726560008201527f7373000000000000000000000000000000000000000000000000000000000000602082015250565b6000610fa1602283610a87565b9150610fac82610f45565b604082019050919050565b60006020820190508181036000830152610fd081610f94565b9050919050565b7f45524332303a20696e73756666696369656e7420616c6c6f77616e6365000000600082015250565b600061100d601d83610a87565b915061101882610fd7565b602082019050919050565b6000602082019050818103600083015261103c81611000565b9050919050565b7f45524332303a207472616e736665722066726f6d20746865207a65726f20616460008201527f6472657373000000000000000000000000000000000000000000000000000000602082015250565b600061109f602583610a87565b91506110aa82611043565b604082019050919050565b600060208201905081810360008301526110ce81611092565b9050919050565b7f45524332303a207472616e7366657220746f20746865207a65726f206164647260008201527f6573730000000000000000000000000000000000000000000000000000000000602082015250565b6000611131602383610a87565b915061113c826110d5565b604082019050919050565b6000602082019050818103600083015261116081611124565b9050919050565b7f45524332303a207472616e7366657220616d6f756e742065786365656473206260008201527f616c616e63650000000000000000000000000000000000000000000000000000602082015250565b60006111c3602683610a87565b91506111ce82611167565b604082019050919050565b600060208201905081810360008301526111f2816111b6565b905091905056fea2646970667358221220347464b3375922c0561e223b654c35f05618f0757ac26cf8f13f4e8d2325de8964736f6c63430008120033608060405234801561001057600080fd5b5061002d61002261003260201b60201c565b61003a60201b60201c565b6100fe565b600033905090565b60008060009054906101000a900473ffffffffffffffffffffffffffffffffffffffff169050816000806101000a81548173ffffffffffffffffffffffffffffffffffffffff021916908373ffffffffffffffffffffffffffffffffffffffff1602179055508173ffffffffffffffffffffffffffffffffffffffff168173ffffffffffffffffffffffffffffffffffffffff167f8be0079c531659141344cd1fd0a4f28419497f9722a3daafe3b4186f6b6457e060405160405180910390a35050565b61479b8061010d6000396000f3fe60806040523480156200001157600080fd5b5060043610620000ac5760003560e01c80638da5cb5b116200006f5780638da5cb5b1462000157578063bc197c811462000179578063e5326ab114620001af578063f23a6e6114620001d1578063f2fde38b146200020757620000ac565b806301ffc9a714620000b1578063059dfe1314620000e75780630f7deecb146200011d5780636aa003711462000129578063715018a6146200014b575b600080fd5b620000cf6004803603810190620000c991906200086b565b62000227565b604051620000de9190620008ba565b60405180910390f35b620001056004803603810190620000ff919062000a39565b620002a4565b60405162000114919062000acf565b60405180910390f35b620001276200036e565b005b6200013362000480565b60405162000142919062000acf565b60405180910390f35b62000155620004a6565b005b62000161620004be565b60405162000170919062000acf565b60405180910390f35b62000197600480360381019062000191919062000ce7565b620004e7565b604051620001a6919062000ddd565b60405180910390f35b620001b9620004fc565b604051620001c8919062000e83565b60405180910390f35b620001ef6004803603810190620001e9919062000ea7565b62000592565b604051620001fe919062000ddd565b60405180910390f35b6200022560048036038101906200021f919062000f4e565b620005a7565b005b60007f4e2312e0000000000000000000000000000000000000000000000000000000007bffffffffffffffffffffffffffffffffffffffffffffffffffffffff1916827bffffffffffffffffffffffffffffffffffffffffffffffffffffffff191614806200029d57506200029c8262000631565b5b9050919050565b60008060405180602001620002b990620007ec565b6020820181038252601f19601f820116604052509050600083604051602001620002e4919062000fc2565b604051602081830303815290604052805190602001209050808251602084016000f59250823b6200031457600080fd5b836001908162000325919062001211565b5082600260006101000a81548173ffffffffffffffffffffffffffffffffffffffff021916908373ffffffffffffffffffffffffffffffffffffffff1602179055505050919050565b620003786200069b565b6000600260009054906101000a900473ffffffffffffffffffffffffffffffffffffffff1690508073ffffffffffffffffffffffffffffffffffffffff166306f36e87336040518263ffffffff1660e01b8152600401620003da919062000acf565b600060405180830381600087803b158015620003f557600080fd5b505af11580156200040a573d6000803e3d6000fd5b505050508073ffffffffffffffffffffffffffffffffffffffff166344dfb6bc336040518263ffffffff1660e01b815260040162000449919062000acf565b600060405180830381600087803b1580156200046457600080fd5b505af115801562000479573d6000803e3d6000fd5b5050505050565b600260009054906101000a900473ffffffffffffffffffffffffffffffffffffffff1681565b620004b06200069b565b620004bc600062000720565b565b60008060009054906101000a900473ffffffffffffffffffffffffffffffffffffffff16905090565b600063bc197c8160e01b905095945050505050565b600180546200050b906200100a565b80601f016020809104026020016040519081016040528092919081815260200182805462000539906200100a565b80156200058a5780601f106200055e576101008083540402835291602001916200058a565b820191906000526020600020905b8154815290600101906020018083116200056c57829003601f168201915b505050505081565b600063f23a6e6160e01b905095945050505050565b620005b16200069b565b600073ffffffffffffffffffffffffffffffffffffffff168173ffffffffffffffffffffffffffffffffffffffff160362000623576040517f08c379a00000000000000000000000000000000000000000000000000000000081526004016200061a906200136e565b60405180910390fd5b6200062e8162000720565b50565b60007f01ffc9a7000000000000000000000000000000000000000000000000000000007bffffffffffffffffffffffffffffffffffffffffffffffffffffffff1916827bffffffffffffffffffffffffffffffffffffffffffffffffffffffff1916149050919050565b620006a5620007e4565b73ffffffffffffffffffffffffffffffffffffffff16620006c5620004be565b73ffffffffffffffffffffffffffffffffffffffff16146200071e576040517f08c379a00000000000000000000000000000000000000000000000000000000081526004016200071590620013e0565b60405180910390fd5b565b60008060009054906101000a900473ffffffffffffffffffffffffffffffffffffffff169050816000806101000a81548173ffffffffffffffffffffffffffffffffffffffff021916908373ffffffffffffffffffffffffffffffffffffffff1602179055508173ffffffffffffffffffffffffffffffffffffffff168173ffffffffffffffffffffffffffffffffffffffff167f8be0079c531659141344cd1fd0a4f28419497f9722a3daafe3b4186f6b6457e060405160405180910390a35050565b600033905090565b613363806200140383390190565b6000604051905090565b600080fd5b600080fd5b60007fffffffff0000000000000000000000000000000000000000000000000000000082169050919050565b62000845816200080e565b81146200085157600080fd5b50565b60008135905062000865816200083a565b92915050565b60006020828403121562000884576200088362000804565b5b6000620008948482850162000854565b91505092915050565b60008115159050919050565b620008b4816200089d565b82525050565b6000602082019050620008d16000830184620008a9565b92915050565b600080fd5b600080fd5b6000601f19601f8301169050919050565b7f4e487b7100000000000000000000000000000000000000000000000000000000600052604160045260246000fd5b6200092c82620008e1565b810181811067ffffffffffffffff821117156200094e576200094d620008f2565b5b80604052505050565b600062000963620007fa565b905062000971828262000921565b919050565b600067ffffffffffffffff821115620009945762000993620008f2565b5b6200099f82620008e1565b9050602081019050919050565b82818337600083830152505050565b6000620009d2620009cc8462000976565b62000957565b905082815260208101848484011115620009f157620009f0620008dc565b5b620009fe848285620009ac565b509392505050565b600082601f83011262000a1e5762000a1d620008d7565b5b813562000a30848260208601620009bb565b91505092915050565b60006020828403121562000a525762000a5162000804565b5b600082013567ffffffffffffffff81111562000a735762000a7262000809565b5b62000a818482850162000a06565b91505092915050565b600073ffffffffffffffffffffffffffffffffffffffff82169050919050565b600062000ab78262000a8a565b9050919050565b62000ac98162000aaa565b82525050565b600060208201905062000ae6600083018462000abe565b92915050565b62000af78162000aaa565b811462000b0357600080fd5b50565b60008135905062000b178162000aec565b92915050565b600067ffffffffffffffff82111562000b3b5762000b3a620008f2565b5b602082029050602081019050919050565b600080fd5b6000819050919050565b62000b668162000b51565b811462000b7257600080fd5b50565b60008135905062000b868162000b5b565b92915050565b600062000ba362000b9d8462000b1d565b62000957565b9050808382526020820190506020840283018581111562000bc95762000bc862000b4c565b5b835b8181101562000bf6578062000be1888262000b75565b84526020840193505060208101905062000bcb565b5050509392505050565b600082601f83011262000c185762000c17620008d7565b5b813562000c2a84826020860162000b8c565b91505092915050565b600067ffffffffffffffff82111562000c515762000c50620008f2565b5b62000c5c82620008e1565b9050602081019050919050565b600062000c8062000c7a8462000c33565b62000957565b90508281526020810184848401111562000c9f5762000c9e620008dc565b5b62000cac848285620009ac565b509392505050565b600082601f83011262000ccc5762000ccb620008d7565b5b813562000cde84826020860162000c69565b91505092915050565b600080600080600060a0868803121562000d065762000d0562000804565b5b600062000d168882890162000b06565b955050602062000d298882890162000b06565b945050604086013567ffffffffffffffff81111562000d4d5762000d4c62000809565b5b62000d5b8882890162000c00565b935050606086013567ffffffffffffffff81111562000d7f5762000d7e62000809565b5b62000d8d8882890162000c00565b925050608086013567ffffffffffffffff81111562000db15762000db062000809565b5b62000dbf8882890162000cb4565b9150509295509295909350565b62000dd7816200080e565b82525050565b600060208201905062000df4600083018462000dcc565b92915050565b600081519050919050565b600082825260208201905092915050565b60005b8381101562000e3657808201518184015260208101905062000e19565b60008484015250505050565b600062000e4f8262000dfa565b62000e5b818562000e05565b935062000e6d81856020860162000e16565b62000e7881620008e1565b840191505092915050565b6000602082019050818103600083015262000e9f818462000e42565b905092915050565b600080600080600060a0868803121562000ec65762000ec562000804565b5b600062000ed68882890162000b06565b955050602062000ee98882890162000b06565b945050604062000efc8882890162000b75565b935050606062000f0f8882890162000b75565b925050608086013567ffffffffffffffff81111562000f335762000f3262000809565b5b62000f418882890162000cb4565b9150509295509295909350565b60006020828403121562000f675762000f6662000804565b5b600062000f778482850162000b06565b91505092915050565b600081905092915050565b600062000f988262000dfa565b62000fa4818562000f80565b935062000fb681856020860162000e16565b80840191505092915050565b600062000fd0828462000f8b565b915081905092915050565b7f4e487b7100000000000000000000000000000000000000000000000000000000600052602260045260246000fd5b600060028204905060018216806200102357607f821691505b60208210810362001039576200103862000fdb565b5b50919050565b60008190508160005260206000209050919050565b60006020601f8301049050919050565b600082821b905092915050565b600060088302620010a37fffffffffffffffffffffffffffffffffffffffffffffffffffffffffffffffff8262001064565b620010af868362001064565b95508019841693508086168417925050509392505050565b6000819050919050565b6000620010f2620010ec620010e68462000b51565b620010c7565b62000b51565b9050919050565b6000819050919050565b6200110e83620010d1565b620011266200111d82620010f9565b84845462001071565b825550505050565b600090565b6200113d6200112e565b6200114a81848462001103565b505050565b5b8181101562001172576200116660008262001133565b60018101905062001150565b5050565b601f821115620011c1576200118b816200103f565b620011968462001054565b81016020851015620011a6578190505b620011be620011b58562001054565b8301826200114f565b50505b505050565b600082821c905092915050565b6000620011e660001984600802620011c6565b1980831691505092915050565b6000620012018383620011d3565b9150826002028217905092915050565b6200121c8262000dfa565b67ffffffffffffffff811115620012385762001237620008f2565b5b6200124482546200100a565b6200125182828562001176565b600060209050601f83116001811462001289576000841562001274578287015190505b620012808582620011f3565b865550620012f0565b601f19841662001299866200103f565b60005b82811015620012c3578489015182556001820191506020850194506020810190506200129c565b86831015620012e35784890151620012df601f891682620011d3565b8355505b6001600288020188555050505b505050505050565b7f4f776e61626c653a206e6577206f776e657220697320746865207a65726f206160008201527f6464726573730000000000000000000000000000000000000000000000000000602082015250565b60006200135660268362000e05565b91506200136382620012f8565b604082019050919050565b60006020820190508181036000830152620013898162001347565b9050919050565b7f4f776e61626c653a2063616c6c6572206973206e6f7420746865206f776e6572600082015250565b6000620013c860208362000e05565b9150620013d58262001390565b602082019050919050565b60006020820190508181036000830152620013fb81620013b9565b905091905056fe60806040526000600560006101000a81548160ff021916908360ff1602179055503480156200002d57600080fd5b506040518060800160405280604d815260200162003316604d913962000059816200008060201b60201c565b506200007a6200006e6200009560201b60201c565b6200009d60201b60201c565b620004c4565b8060029081620000919190620003dd565b5050565b600033905090565b6000600360009054906101000a900473ffffffffffffffffffffffffffffffffffffffff16905081600360006101000a81548173ffffffffffffffffffffffffffffffffffffffff021916908373ffffffffffffffffffffffffffffffffffffffff1602179055508173ffffffffffffffffffffffffffffffffffffffff168173ffffffffffffffffffffffffffffffffffffffff167f8be0079c531659141344cd1fd0a4f28419497f9722a3daafe3b4186f6b6457e060405160405180910390a35050565b600081519050919050565b7f4e487b7100000000000000000000000000000000000000000000000000000000600052604160045260246000fd5b7f4e487b7100000000000000000000000000000000000000000000000000000000600052602260045260246000fd5b60006002820490506001821680620001e557607f821691505b602082108103620001fb57620001fa6200019d565b5b50919050565b60008190508160005260206000209050919050565b60006020601f8301049050919050565b600082821b905092915050565b600060088302620002657fffffffffffffffffffffffffffffffffffffffffffffffffffffffffffffffff8262000226565b62000271868362000226565b95508019841693508086168417925050509392505050565b6000819050919050565b6000819050919050565b6000620002be620002b8620002b28462000289565b62000293565b62000289565b9050919050565b6000819050919050565b620002da836200029d565b620002f2620002e982620002c5565b84845462000233565b825550505050565b600090565b62000309620002fa565b62000316818484620002cf565b505050565b5b818110156200033e5762000332600082620002ff565b6001810190506200031c565b5050565b601f8211156200038d57620003578162000201565b620003628462000216565b8101602085101562000372578190505b6200038a620003818562000216565b8301826200031b565b50505b505050565b600082821c905092915050565b6000620003b26000198460080262000392565b1980831691505092915050565b6000620003cd83836200039f565b9150826002028217905092915050565b620003e88262000163565b67ffffffffffffffff8111156200040457620004036200016e565b5b620004108254620001cc565b6200041d82828562000342565b600060209050601f83116001811462000455576000841562000440578287015190505b6200044c8582620003bf565b865550620004bc565b601f198416620004658662000201565b60005b828110156200048f5784890151825560018201915060208501945060208101905062000468565b86831015620004af5784890151620004ab601f8916826200039f565b8355505b6001600288020188555050505b505050505050565b612e4280620004d46000396000f3fe608060405234801561001057600080fd5b50600436106100f45760003560e01c8063715018a611610097578063e985e9c511610066578063e985e9c51461026f578063ea2a17301461029f578063f242432a146102bd578063f2fde38b146102d9576100f4565b8063715018a61461020d5780638da5cb5b14610217578063a22cb46514610235578063ab2da89914610251576100f4565b80630e89341c116100d35780630e89341c146101755780632eb2c2d6146101a557806344dfb6bc146101c15780634e1273f4146101dd576100f4565b8062fdd58e146100f957806301ffc9a71461012957806306f36e8714610159575b600080fd5b610113600480360381019061010e9190611aaa565b6102f5565b6040516101209190611af9565b60405180910390f35b610143600480360381019061013e9190611b6c565b6103bd565b6040516101509190611bb4565b60405180910390f35b610173600480360381019061016e9190611bcf565b61049f565b005b61018f600480360381019061018a9190611bfc565b61061f565b60405161019c9190611cb9565b60405180910390f35b6101bf60048036038101906101ba9190611ed8565b6106b3565b005b6101db60048036038101906101d69190611bcf565b610754565b005b6101f760048036038101906101f2919061206a565b610789565b60405161020491906121a0565b60405180910390f35b6102156108a2565b005b61021f6108b6565b60405161022c91906121d1565b60405180910390f35b61024f600480360381019061024a9190612218565b6108e0565b005b6102596108f6565b60405161026691906121a0565b60405180910390f35b61028960048036038101906102849190612258565b61094e565b6040516102969190611bb4565b60405180910390f35b6102a76109e2565b6040516102b491906122b4565b60405180910390f35b6102d760048036038101906102d291906122cf565b6109f5565b005b6102f360048036038101906102ee9190611bcf565b610a96565b005b60008073ffffffffffffffffffffffffffffffffffffffff168373ffffffffffffffffffffffffffffffffffffffff1603610365576040517f08c379a000000000000000000000000000000000000000000000000000000000815260040161035c906123d8565b60405180910390fd5b60008083815260200190815260200160002060008473ffffffffffffffffffffffffffffffffffffffff1673ffffffffffffffffffffffffffffffffffffffff16815260200190815260200160002054905092915050565b60007fd9b67a26000000000000000000000000000000000000000000000000000000007bffffffffffffffffffffffffffffffffffffffffffffffffffffffff1916827bffffffffffffffffffffffffffffffffffffffffffffffffffffffff1916148061048857507f0e89341c000000000000000000000000000000000000000000000000000000007bffffffffffffffffffffffffffffffffffffffffffffffffffffffff1916827bffffffffffffffffffffffffffffffffffffffffffffffffffffffff1916145b80610498575061049782610b19565b5b9050919050565b600060019050600080600190505b60018111610619576000600190505b838111610605576000600190505b60078110156105f15760005b60058110156105dd57600081600a846104ef9190612427565b6064866104fc9190612427565b6103e88861050a9190612427565b6105149190612469565b61051e9190612469565b6105289190612469565b90506000820361053d57620f42409550610585565b6001820361055057620186a09550610584565b60028203610562576127109550610583565b60038203610574576103e89550610582565b6004820361058157606495505b5b5b5b5b6105a088828860405180602001604052806000815250610b83565b60048190806001815401808255809150506001900390600052602060002001600090919091909150555080806105d59061249d565b9150506104d6565b5080806105e99061249d565b9150506104ca565b5080806105fd9061249d565b9150506104bc565b5080806106119061249d565b9150506104ad565b50505050565b60606002805461062e90612514565b80601f016020809104026020016040519081016040528092919081815260200182805461065a90612514565b80156106a75780601f1061067c576101008083540402835291602001916106a7565b820191906000526020600020905b81548152906001019060200180831161068a57829003601f168201915b50505050509050919050565b6106bb610d33565b73ffffffffffffffffffffffffffffffffffffffff168573ffffffffffffffffffffffffffffffffffffffff1614806107015750610700856106fb610d33565b61094e565b5b610740576040517f08c379a0000000000000000000000000000000000000000000000000000000008152600401610737906125b7565b60405180910390fd5b61074d8585858585610d3b565b5050505050565b61078681600560009054906101000a900460ff1660ff1664e8d4a5100060405180602001604052806000815250610b83565b50565b606081518351146107cf576040517f08c379a00000000000000000000000000000000000000000000000000000000081526004016107c690612649565b60405180910390fd5b6000835167ffffffffffffffff8111156107ec576107eb611ce0565b5b60405190808252806020026020018201604052801561081a5781602001602082028036833780820191505090505b50905060005b84518110156108975761086785828151811061083f5761083e612669565b5b602002602001015185838151811061085a57610859612669565b5b60200260200101516102f5565b82828151811061087a57610879612669565b5b602002602001018181525050806108909061249d565b9050610820565b508091505092915050565b6108aa61105c565b6108b460006110da565b565b6000600360009054906101000a900473ffffffffffffffffffffffffffffffffffffffff16905090565b6108f26108eb610d33565b83836111a0565b5050565b6060600480548060200260200160405190810160405280929190818152602001828054801561094457602002820191906000526020600020905b815481526020019060010190808311610930575b5050505050905090565b6000600160008473ffffffffffffffffffffffffffffffffffffffff1673ffffffffffffffffffffffffffffffffffffffff16815260200190815260200160002060008373ffffffffffffffffffffffffffffffffffffffff1673ffffffffffffffffffffffffffffffffffffffff16815260200190815260200160002060009054906101000a900460ff16905092915050565b600560009054906101000a900460ff1681565b6109fd610d33565b73ffffffffffffffffffffffffffffffffffffffff168573ffffffffffffffffffffffffffffffffffffffff161480610a435750610a4285610a3d610d33565b61094e565b5b610a82576040517f08c379a0000000000000000000000000000000000000000000000000000000008152600401610a79906125b7565b60405180910390fd5b610a8f858585858561130c565b5050505050565b610a9e61105c565b600073ffffffffffffffffffffffffffffffffffffffff168173ffffffffffffffffffffffffffffffffffffffff1603610b0d576040517f08c379a0000000000000000000000000000000000000000000000000000000008152600401610b049061270a565b60405180910390fd5b610b16816110da565b50565b60007f01ffc9a7000000000000000000000000000000000000000000000000000000007bffffffffffffffffffffffffffffffffffffffffffffffffffffffff1916827bffffffffffffffffffffffffffffffffffffffffffffffffffffffff1916149050919050565b600073ffffffffffffffffffffffffffffffffffffffff168473ffffffffffffffffffffffffffffffffffffffff1603610bf2576040517f08c379a0000000000000000000000000000000000000000000000000000000008152600401610be99061279c565b60405180910390fd5b6000610bfc610d33565b90506000610c09856115a7565b90506000610c16856115a7565b9050610c2783600089858589611621565b8460008088815260200190815260200160002060008973ffffffffffffffffffffffffffffffffffffffff1673ffffffffffffffffffffffffffffffffffffffff1681526020019081526020016000206000828254610c869190612469565b925050819055508673ffffffffffffffffffffffffffffffffffffffff16600073ffffffffffffffffffffffffffffffffffffffff168473ffffffffffffffffffffffffffffffffffffffff167fc3d58168c5ae7397731d063d5bbf3d657854427343f4c083240f7aacaa2d0f628989604051610d049291906127bc565b60405180910390a4610d1b83600089858589611629565b610d2a83600089898989611631565b50505050505050565b600033905090565b8151835114610d7f576040517f08c379a0000000000000000000000000000000000000000000000000000000008152600401610d7690612857565b60405180910390fd5b600073ffffffffffffffffffffffffffffffffffffffff168473ffffffffffffffffffffffffffffffffffffffff1603610dee576040517f08c379a0000000000000000000000000000000000000000000000000000000008152600401610de5906128e9565b60405180910390fd5b6000610df8610d33565b9050610e08818787878787611621565b60005b8451811015610fb9576000858281518110610e2957610e28612669565b5b602002602001015190506000858381518110610e4857610e47612669565b5b60200260200101519050600080600084815260200190815260200160002060008b73ffffffffffffffffffffffffffffffffffffffff1673ffffffffffffffffffffffffffffffffffffffff16815260200190815260200160002054905081811015610ee9576040517f08c379a0000000000000000000000000000000000000000000000000000000008152600401610ee09061297b565b60405180910390fd5b81810360008085815260200190815260200160002060008c73ffffffffffffffffffffffffffffffffffffffff1673ffffffffffffffffffffffffffffffffffffffff168152602001908152602001600020819055508160008085815260200190815260200160002060008b73ffffffffffffffffffffffffffffffffffffffff1673ffffffffffffffffffffffffffffffffffffffff1681526020019081526020016000206000828254610f9e9190612469565b9250508190555050505080610fb29061249d565b9050610e0b565b508473ffffffffffffffffffffffffffffffffffffffff168673ffffffffffffffffffffffffffffffffffffffff168273ffffffffffffffffffffffffffffffffffffffff167f4a39dc06d4c0dbc64b70af90fd698a233a518aa5d07e595d983b8c0526c8f7fb878760405161103092919061299b565b60405180910390a4611046818787878787611629565b611054818787878787611808565b505050505050565b611064610d33565b73ffffffffffffffffffffffffffffffffffffffff166110826108b6565b73ffffffffffffffffffffffffffffffffffffffff16146110d8576040517f08c379a00000000000000000000000000000000000000000000000000000000081526004016110cf90612a1e565b60405180910390fd5b565b6000600360009054906101000a900473ffffffffffffffffffffffffffffffffffffffff16905081600360006101000a81548173ffffffffffffffffffffffffffffffffffffffff021916908373ffffffffffffffffffffffffffffffffffffffff1602179055508173ffffffffffffffffffffffffffffffffffffffff168173ffffffffffffffffffffffffffffffffffffffff167f8be0079c531659141344cd1fd0a4f28419497f9722a3daafe3b4186f6b6457e060405160405180910390a35050565b8173ffffffffffffffffffffffffffffffffffffffff168373ffffffffffffffffffffffffffffffffffffffff160361120e576040517f08c379a000000000000000000000000000000000000000000000000000000000815260040161120590612ab0565b60405180910390fd5b80600160008573ffffffffffffffffffffffffffffffffffffffff1673ffffffffffffffffffffffffffffffffffffffff16815260200190815260200160002060008473ffffffffffffffffffffffffffffffffffffffff1673ffffffffffffffffffffffffffffffffffffffff16815260200190815260200160002060006101000a81548160ff0219169083151502179055508173ffffffffffffffffffffffffffffffffffffffff168373ffffffffffffffffffffffffffffffffffffffff167f17307eab39ab6107e8899845ad3d59bd9653f200f220920489ca2b5937696c31836040516112ff9190611bb4565b60405180910390a3505050565b600073ffffffffffffffffffffffffffffffffffffffff168473ffffffffffffffffffffffffffffffffffffffff160361137b576040517f08c379a0000000000000000000000000000000000000000000000000000000008152600401611372906128e9565b60405180910390fd5b6000611385610d33565b90506000611392856115a7565b9050600061139f856115a7565b90506113af838989858589611621565b600080600088815260200190815260200160002060008a73ffffffffffffffffffffffffffffffffffffffff1673ffffffffffffffffffffffffffffffffffffffff16815260200190815260200160002054905085811015611446576040517f08c379a000000000000000000000000000000000000000000000000000000000815260040161143d9061297b565b60405180910390fd5b85810360008089815260200190815260200160002060008b73ffffffffffffffffffffffffffffffffffffffff1673ffffffffffffffffffffffffffffffffffffffff168152602001908152602001600020819055508560008089815260200190815260200160002060008a73ffffffffffffffffffffffffffffffffffffffff1673ffffffffffffffffffffffffffffffffffffffff16815260200190815260200160002060008282546114fb9190612469565b925050819055508773ffffffffffffffffffffffffffffffffffffffff168973ffffffffffffffffffffffffffffffffffffffff168573ffffffffffffffffffffffffffffffffffffffff167fc3d58168c5ae7397731d063d5bbf3d657854427343f4c083240f7aacaa2d0f628a8a6040516115789291906127bc565b60405180910390a461158e848a8a86868a611629565b61159c848a8a8a8a8a611631565b505050505050505050565b60606000600167ffffffffffffffff8111156115c6576115c5611ce0565b5b6040519080825280602002602001820160405280156115f45781602001602082028036833780820191505090505b509050828160008151811061160c5761160b612669565b5b60200260200101818152505080915050919050565b505050505050565b505050505050565b6116508473ffffffffffffffffffffffffffffffffffffffff166119df565b15611800578373ffffffffffffffffffffffffffffffffffffffff1663f23a6e6187878686866040518663ffffffff1660e01b8152600401611696959493929190612b25565b6020604051808303816000875af19250505080156116d257506040513d601f19601f820116820180604052508101906116cf9190612b94565b60015b611777576116de612bce565b806308c379a00361173a57506116f2612bf0565b806116fd575061173c565b806040517f08c379a00000000000000000000000000000000000000000000000000000000081526004016117319190611cb9565b60405180910390fd5b505b6040517f08c379a000000000000000000000000000000000000000000000000000000000815260040161176e90612cf2565b60405180910390fd5b63f23a6e6160e01b7bffffffffffffffffffffffffffffffffffffffffffffffffffffffff1916817bffffffffffffffffffffffffffffffffffffffffffffffffffffffff1916146117fe576040517f08c379a00000000000000000000000000000000000000000000000000000000081526004016117f590612d84565b60405180910390fd5b505b505050505050565b6118278473ffffffffffffffffffffffffffffffffffffffff166119df565b156119d7578373ffffffffffffffffffffffffffffffffffffffff1663bc197c8187878686866040518663ffffffff1660e01b815260040161186d959493929190612da4565b6020604051808303816000875af19250505080156118a957506040513d601f19601f820116820180604052508101906118a69190612b94565b60015b61194e576118b5612bce565b806308c379a00361191157506118c9612bf0565b806118d45750611913565b806040517f08c379a00000000000000000000000000000000000000000000000000000000081526004016119089190611cb9565b60405180910390fd5b505b6040517f08c379a000000000000000000000000000000000000000000000000000000000815260040161194590612cf2565b60405180910390fd5b63bc197c8160e01b7bffffffffffffffffffffffffffffffffffffffffffffffffffffffff1916817bffffffffffffffffffffffffffffffffffffffffffffffffffffffff1916146119d5576040517f08c379a00000000000000000000000000000000000000000000000000000000081526004016119cc90612d84565b60405180910390fd5b505b505050505050565b6000808273ffffffffffffffffffffffffffffffffffffffff163b119050919050565b6000604051905090565b600080fd5b600080fd5b600073ffffffffffffffffffffffffffffffffffffffff82169050919050565b6000611a4182611a16565b9050919050565b611a5181611a36565b8114611a5c57600080fd5b50565b600081359050611a6e81611a48565b92915050565b6000819050919050565b611a8781611a74565b8114611a9257600080fd5b50565b600081359050611aa481611a7e565b92915050565b60008060408385031215611ac157611ac0611a0c565b5b6000611acf85828601611a5f565b9250506020611ae085828601611a95565b9150509250929050565b611af381611a74565b82525050565b6000602082019050611b0e6000830184611aea565b92915050565b60007fffffffff0000000000000000000000000000000000000000000000000000000082169050919050565b611b4981611b14565b8114611b5457600080fd5b50565b600081359050611b6681611b40565b92915050565b600060208284031215611b8257611b81611a0c565b5b6000611b9084828501611b57565b91505092915050565b60008115159050919050565b611bae81611b99565b82525050565b6000602082019050611bc96000830184611ba5565b92915050565b600060208284031215611be557611be4611a0c565b5b6000611bf384828501611a5f565b91505092915050565b600060208284031215611c1257611c11611a0c565b5b6000611c2084828501611a95565b91505092915050565b600081519050919050565b600082825260208201905092915050565b60005b83811015611c63578082015181840152602081019050611c48565b60008484015250505050565b6000601f19601f8301169050919050565b6000611c8b82611c29565b611c958185611c34565b9350611ca5818560208601611c45565b611cae81611c6f565b840191505092915050565b60006020820190508181036000830152611cd38184611c80565b905092915050565b600080fd5b7f4e487b7100000000000000000000000000000000000000000000000000000000600052604160045260246000fd5b611d1882611c6f565b810181811067ffffffffffffffff82111715611d3757611d36611ce0565b5b80604052505050565b6000611d4a611a02565b9050611d568282611d0f565b919050565b600067ffffffffffffffff821115611d7657611d75611ce0565b5b602082029050602081019050919050565b600080fd5b6000611d9f611d9a84611d5b565b611d40565b90508083825260208201905060208402830185811115611dc257611dc1611d87565b5b835b81811015611deb5780611dd78882611a95565b845260208401935050602081019050611dc4565b5050509392505050565b600082601f830112611e0a57611e09611cdb565b5b8135611e1a848260208601611d8c565b91505092915050565b600080fd5b600067ffffffffffffffff821115611e4357611e42611ce0565b5b611e4c82611c6f565b9050602081019050919050565b82818337600083830152505050565b6000611e7b611e7684611e28565b611d40565b905082815260208101848484011115611e9757611e96611e23565b5b611ea2848285611e59565b509392505050565b600082601f830112611ebf57611ebe611cdb565b5b8135611ecf848260208601611e68565b91505092915050565b600080600080600060a08688031215611ef457611ef3611a0c565b5b6000611f0288828901611a5f565b9550506020611f1388828901611a5f565b945050604086013567ffffffffffffffff811115611f3457611f33611a11565b5b611f4088828901611df5565b935050606086013567ffffffffffffffff811115611f6157611f60611a11565b5b611f6d88828901611df5565b925050608086013567ffffffffffffffff811115611f8e57611f8d611a11565b5b611f9a88828901611eaa565b9150509295509295909350565b600067ffffffffffffffff821115611fc257611fc1611ce0565b5b602082029050602081019050919050565b6000611fe6611fe184611fa7565b611d40565b9050808382526020820190506020840283018581111561200957612008611d87565b5b835b81811015612032578061201e8882611a5f565b84526020840193505060208101905061200b565b5050509392505050565b600082601f83011261205157612050611cdb565b5b8135612061848260208601611fd3565b91505092915050565b6000806040838503121561208157612080611a0c565b5b600083013567ffffffffffffffff81111561209f5761209e611a11565b5b6120ab8582860161203c565b925050602083013567ffffffffffffffff8111156120cc576120cb611a11565b5b6120d885828601611df5565b9150509250929050565b600081519050919050565b600082825260208201905092915050565b6000819050602082019050919050565b61211781611a74565b82525050565b6000612129838361210e565b60208301905092915050565b6000602082019050919050565b600061214d826120e2565b61215781856120ed565b9350612162836120fe565b8060005b8381101561219357815161217a888261211d565b975061218583612135565b925050600181019050612166565b5085935050505092915050565b600060208201905081810360008301526121ba8184612142565b905092915050565b6121cb81611a36565b82525050565b60006020820190506121e660008301846121c2565b92915050565b6121f581611b99565b811461220057600080fd5b50565b600081359050612212816121ec565b92915050565b6000806040838503121561222f5761222e611a0c565b5b600061223d85828601611a5f565b925050602061224e85828601612203565b9150509250929050565b6000806040838503121561226f5761226e611a0c565b5b600061227d85828601611a5f565b925050602061228e85828601611a5f565b9150509250929050565b600060ff82169050919050565b6122ae81612298565b82525050565b60006020820190506122c960008301846122a5565b92915050565b600080600080600060a086880312156122eb576122ea611a0c565b5b60006122f988828901611a5f565b955050602061230a88828901611a5f565b945050604061231b88828901611a95565b935050606061232c88828901611a95565b925050608086013567ffffffffffffffff81111561234d5761234c611a11565b5b61235988828901611eaa565b9150509295509295909350565b7f455243313135353a2061646472657373207a65726f206973206e6f742061207660008201527f616c6964206f776e657200000000000000000000000000000000000000000000602082015250565b60006123c2602a83611c34565b91506123cd82612366565b604082019050919050565b600060208201905081810360008301526123f1816123b5565b9050919050565b7f4e487b7100000000000000000000000000000000000000000000000000000000600052601160045260246000fd5b600061243282611a74565b915061243d83611a74565b925082820261244b81611a74565b91508282048414831517612462576124616123f8565b5b5092915050565b600061247482611a74565b915061247f83611a74565b9250828201905080821115612497576124966123f8565b5b92915050565b60006124a882611a74565b91507fffffffffffffffffffffffffffffffffffffffffffffffffffffffffffffffff82036124da576124d96123f8565b5b600182019050919050565b7f4e487b7100000000000000000000000000000000000000000000000000000000600052602260045260246000fd5b6000600282049050600182168061252c57607f821691505b60208210810361253f5761253e6124e5565b5b50919050565b7f455243313135353a2063616c6c6572206973206e6f7420746f6b656e206f776e60008201527f6572206f7220617070726f766564000000000000000000000000000000000000602082015250565b60006125a1602e83611c34565b91506125ac82612545565b604082019050919050565b600060208201905081810360008301526125d081612594565b9050919050565b7f455243313135353a206163636f756e747320616e6420696473206c656e67746860008201527f206d69736d617463680000000000000000000000000000000000000000000000602082015250565b6000612633602983611c34565b915061263e826125d7565b604082019050919050565b6000602082019050818103600083015261266281612626565b9050919050565b7f4e487b7100000000000000000000000000000000000000000000000000000000600052603260045260246000fd5b7f4f776e61626c653a206e6577206f776e657220697320746865207a65726f206160008201527f6464726573730000000000000000000000000000000000000000000000000000602082015250565b60006126f4602683611c34565b91506126ff82612698565b604082019050919050565b60006020820190508181036000830152612723816126e7565b9050919050565b7f455243313135353a206d696e7420746f20746865207a65726f2061646472657360008201527f7300000000000000000000000000000000000000000000000000000000000000602082015250565b6000612786602183611c34565b91506127918261272a565b604082019050919050565b600060208201905081810360008301526127b581612779565b9050919050565b60006040820190506127d16000830185611aea565b6127de6020830184611aea565b9392505050565b7f455243313135353a2069647320616e6420616d6f756e7473206c656e6774682060008201527f6d69736d61746368000000000000000000000000000000000000000000000000602082015250565b6000612841602883611c34565b915061284c826127e5565b604082019050919050565b6000602082019050818103600083015261287081612834565b9050919050565b7f455243313135353a207472616e7366657220746f20746865207a65726f20616460008201527f6472657373000000000000000000000000000000000000000000000000000000602082015250565b60006128d3602583611c34565b91506128de82612877565b604082019050919050565b60006020820190508181036000830152612902816128c6565b9050919050565b7f455243313135353a20696e73756666696369656e742062616c616e636520666f60008201527f72207472616e7366657200000000000000000000000000000000000000000000602082015250565b6000612965602a83611c34565b915061297082612909565b604082019050919050565b6000602082019050818103600083015261299481612958565b9050919050565b600060408201905081810360008301526129b58185612142565b905081810360208301526129c98184612142565b90509392505050565b7f4f776e61626c653a2063616c6c6572206973206e6f7420746865206f776e6572600082015250565b6000612a08602083611c34565b9150612a13826129d2565b602082019050919050565b60006020820190508181036000830152612a37816129fb565b9050919050565b7f455243313135353a2073657474696e6720617070726f76616c2073746174757360008201527f20666f722073656c660000000000000000000000000000000000000000000000602082015250565b6000612a9a602983611c34565b9150612aa582612a3e565b604082019050919050565b60006020820190508181036000830152612ac981612a8d565b9050919050565b600081519050919050565b600082825260208201905092915050565b6000612af782612ad0565b612b018185612adb565b9350612b11818560208601611c45565b612b1a81611c6f565b840191505092915050565b600060a082019050612b3a60008301886121c2565b612b4760208301876121c2565b612b546040830186611aea565b612b616060830185611aea565b8181036080830152612b738184612aec565b90509695505050505050565b600081519050612b8e81611b40565b92915050565b600060208284031215612baa57612ba9611a0c565b5b6000612bb884828501612b7f565b91505092915050565b60008160e01c9050919050565b600060033d1115612bed5760046000803e612bea600051612bc1565b90505b90565b600060443d10612c7d57612c02611a02565b60043d036004823e80513d602482011167ffffffffffffffff82111715612c2a575050612c7d565b808201805167ffffffffffffffff811115612c485750505050612c7d565b80602083010160043d038501811115612c65575050505050612c7d565b612c7482602001850186611d0f565b82955050505050505b90565b7f455243313135353a207472616e7366657220746f206e6f6e2d4552433131353560008201527f526563656976657220696d706c656d656e746572000000000000000000000000602082015250565b6000612cdc603483611c34565b9150612ce782612c80565b604082019050919050565b60006020820190508181036000830152612d0b81612ccf565b9050919050565b7f455243313135353a204552433131353552656365697665722072656a6563746560008201527f6420746f6b656e73000000000000000000000000000000000000000000000000602082015250565b6000612d6e602883611c34565b9150612d7982612d12565b604082019050919050565b60006020820190508181036000830152612d9d81612d61565b9050919050565b600060a082019050612db960008301886121c2565b612dc660208301876121c2565b8181036040830152612dd88186612142565b90508181036060830152612dec8185612142565b90508181036080830152612e008184612aec565b9050969550505050505056fea264697066735822122044a7047627785b517e192f06a07d912571a6a807844765851da14980de05c0c764736f6c6343000812003368747470733a2f2f697066732e696f2f697066732f516d5935457444354d6b41663745334b58354563443847574a5346457465385a6f57766948414a657a4d675136482f7b69647d2e6a736f6ea26469706673582212206f6b4b7e246b82640e0b2b2d1553f45dcb7d8d436b2dbb525368fefc543f024c64736f6c63430008120033",
  "immutableReferences": {},
  "source": "// SPDX-License-Identifier: MIT\r\npragma solidity ^0.8.18;\r\n\r\nimport \"../node_modules/@openzeppelin/contracts/token/ERC1155/ERC1155.sol\";\r\nimport \"../node_modules/@openzeppelin/contracts/utils/Counters.sol\";\r\nimport \"../node_modules/@openzeppelin/contracts/access/Ownable.sol\";\r\nimport \"../node_modules/@openzeppelin/contracts/token/ERC1155/utils/ERC1155Holder.sol\";\r\n\r\nimport \"./Forge/ForgeMaster.sol\";\r\nimport \"./Forge/GuardianStuff.sol\";\r\nimport \"./Token/GuardianToken.sol\";\r\n\r\ncontract TreasureGuardian is Ownable, ERC1155Holder {\r\n    ForgeMaster public factory;\r\n    GuardianStuff public guardianStuff;\r\n    GuardianToken public guardianToken;\r\n\r\n    uint256 public chestPrice = 25 ether;\r\n    uint256 private _nonce;\r\n\r\n    uint8 private _itemPerChest = 5;\r\n    uint8 private _dropRateCommon = 60;\r\n    uint8 private _dropRateUncommon = 25;\r\n    uint8 private _dropRateRare = 10;\r\n    uint8 private _dropRateEpic = 4;\r\n    uint8 private _dropRateLegendary = 1;\r\n\r\n    event onStuffTransferedTo(address to, uint256[] ids, uint256[] missingIds);\r\n\r\n    constructor() {\r\n        guardianToken = new GuardianToken();\r\n        factory = new ForgeMaster();\r\n    }\r\n\r\n    function createCollection() external onlyOwner {\r\n        address collectionAddress = factory.createCollection(\r\n            \"Node Guardians genesis collection\"\r\n        );\r\n        factory.forgeCollection();\r\n        guardianStuff = GuardianStuff(collectionAddress);\r\n    }\r\n\r\n    function safeTransferFrom(\r\n        address from,\r\n        address to,\r\n        uint id,\r\n        uint amount,\r\n        bytes memory data\r\n    ) external onlyOwner {\r\n        guardianStuff.safeTransferFrom(from, to, id, amount, data);\r\n    }\r\n\r\n    function rewardGuardianWithToken(\r\n        address guardianAddress,\r\n        uint256 amount\r\n    ) external onlyOwner {\r\n        require(\r\n            guardianToken.balanceOf(address(this)) > amount,\r\n            \"Sorry Guardian, there is no more money in the treasure\"\r\n        );\r\n\r\n        guardianToken.transfer(guardianAddress, amount);\r\n    }\r\n\r\n    function buyChest(uint amount) external {\r\n        uint8 chestItemID = guardianStuff.chestItemID();\r\n\r\n        require(\r\n            guardianStuff.balanceOf(address(this), chestItemID) > amount,\r\n            \"Sorry Guardian, there are not enough chests left.\"\r\n        );\r\n        require(\r\n            guardianToken.balanceOf(msg.sender) > chestPrice * amount,\r\n            \"Sorry Guardian, you do not have enough money.\"\r\n        );\r\n\r\n        guardianToken.transferFrom(\r\n            msg.sender,\r\n            address(this),\r\n            chestPrice * amount\r\n        );\r\n\r\n        guardianStuff.safeTransferFrom(\r\n            address(this),\r\n            msg.sender,\r\n            chestItemID,\r\n            amount,\r\n            \"\"\r\n        );\r\n    }\r\n\r\n    function modifyDropRate(\r\n        uint8 dropRateCommon,\r\n        uint8 dropRateUncommon,\r\n        uint8 dropRateRare,\r\n        uint8 dropRateEpic,\r\n        uint8 dropRateLegendary\r\n    ) external onlyOwner {\r\n        require(\r\n            (dropRateCommon +\r\n                dropRateUncommon +\r\n                dropRateRare +\r\n                dropRateEpic +\r\n                dropRateLegendary) == 100,\r\n            \"Sum of the drop rate must be egal to 100\"\r\n        );\r\n\r\n        _dropRateCommon = dropRateCommon;\r\n        _dropRateUncommon = dropRateUncommon;\r\n        _dropRateRare = dropRateRare;\r\n        _dropRateEpic = dropRateEpic;\r\n        _dropRateLegendary = dropRateLegendary;\r\n    }\r\n\r\n    function openChest() external returns (uint256[] memory ids) {\r\n        uint8 chestItemID = guardianStuff.chestItemID();\r\n\r\n        require(\r\n            guardianStuff.balanceOf(msg.sender, chestItemID) > 0,\r\n            \"Sorry Guardian, you do not have any chest in your inventory.\"\r\n        );\r\n        uint256[] memory itemIDs = new uint256[](_itemPerChest);\r\n        uint256[] memory missingItemIDs = new uint256[](_itemPerChest);\r\n\r\n        // TODO: try to regroup by id to use the amount paramater in safeTransferFrom\r\n        for (uint i = 0; i < _itemPerChest; i++) {\r\n            uint256 itemID = _generateItemID();\r\n\r\n            uint256 stuffItemCount = guardianStuff.balanceOf(\r\n                address(this),\r\n                itemID\r\n            );\r\n            if (stuffItemCount > 0) {\r\n                itemIDs[i] = itemID;\r\n\r\n                guardianStuff.safeTransferFrom(\r\n                    address(this), // from\r\n                    msg.sender, // to\r\n                    itemID,\r\n                    1,\r\n                    \"\"\r\n                );\r\n            } else {\r\n                // TODO: Manage the case when the treasure guardian does not have stuff anymore\r\n                missingItemIDs[i] = itemID;\r\n                continue;\r\n            }\r\n        }\r\n\r\n        // Give the chest back to treasure\r\n        guardianStuff.safeTransferFrom(\r\n            msg.sender,\r\n            address(this),\r\n            chestItemID,\r\n            1,\r\n            \"\"\r\n        );\r\n\r\n        emit onStuffTransferedTo(msg.sender, itemIDs, missingItemIDs);\r\n\r\n        return itemIDs;\r\n    }\r\n\r\n    function _generateItemID() private returns (uint256) {\r\n        // Get the rarity random number in function fo the drop rate\r\n        uint256 random = _random();\r\n        uint8 rarity;\r\n        if (random < _dropRateCommon) {\r\n            rarity = 0;\r\n        } else if (\r\n            random >= _dropRateCommon &&\r\n            random < (_dropRateCommon + _dropRateUncommon)\r\n        ) {\r\n            rarity = 2;\r\n        } else if (\r\n            random >= (_dropRateCommon + _dropRateUncommon) &&\r\n            random < (_dropRateCommon + _dropRateUncommon + _dropRateRare)\r\n        ) {\r\n            rarity = 3;\r\n        } else if (\r\n            random >= (_dropRateCommon + _dropRateUncommon + _dropRateRare) &&\r\n            random <\r\n            (_dropRateCommon +\r\n                _dropRateUncommon +\r\n                _dropRateRare +\r\n                _dropRateEpic)\r\n        ) {\r\n            rarity = 4;\r\n        } else if (\r\n            random >=\r\n            (_dropRateCommon +\r\n                _dropRateUncommon +\r\n                _dropRateRare +\r\n                _dropRateEpic) &&\r\n            random <\r\n            (_dropRateCommon +\r\n                _dropRateUncommon +\r\n                _dropRateRare +\r\n                _dropRateLegendary)\r\n        ) {\r\n            rarity = 5;\r\n        }\r\n\r\n        random = _random();\r\n        uint8 class = 1;\r\n        // Use only the class 1 for now because I do not upload all the other files\r\n\r\n        // if (random < 33) {\r\n        //     class = 1;\r\n        // } else if (random >= 33 && random < 66) {\r\n        //     class = 2;\r\n        // } else if (random >= 66) {\r\n        //     class = 3;\r\n        // }\r\n\r\n        uint8 set = 1;\r\n        // Use only the set 1 for now because I do not upload all the other files\r\n\r\n        // if (class == 1) {\r\n        //     random = _random();\r\n        //     if (random >= 50) {\r\n        //         set = 2;\r\n        //     }\r\n        // }\r\n\r\n        uint8 part = 1;\r\n        random = _random();\r\n        if (random < 17) {\r\n            part = 1;\r\n        } else if (random >= 17 && random < 34) {\r\n            part = 2;\r\n        } else if (random >= 34 && random < 51) {\r\n            part = 3;\r\n        } else if (random >= 51 && random < 68) {\r\n            part = 4;\r\n        } else if (random >= 68 && random < 84) {\r\n            part = 5;\r\n        } else if (random >= 84) {\r\n            part = 6;\r\n        }\r\n\r\n        uint itemID = (class * 1000) + (set * 100) + (part * 10) + (rarity);\r\n        return itemID;\r\n    }\r\n\r\n    /// improve: use chain link\r\n    function _random() private returns (uint256) {\r\n        _nonce++;\r\n        return\r\n            uint256(\r\n                keccak256(abi.encodePacked(block.timestamp, msg.sender, _nonce))\r\n            ) % 100;\r\n    }\r\n}\r\n",
  "sourcePath": "C:\\Users\\Alex\\Documents\\Travail\\Alyra\\NG-Marketplace\\truffle\\contracts\\TreasureGuardian.sol",
  "compiler": {
    "name": "solc",
    "version": "0.8.18+commit.87f61d96.Emscripten.clang"
  },
  "schemaVersion": "3.4.7",
  "updatedAt": "2023-04-10T16:24:12.050Z",
  "networkType": "ethereum",
  "devdoc": {
    "kind": "dev",
    "methods": {
      "owner()": {
        "details": "Returns the address of the current owner."
      },
      "renounceOwnership()": {
        "details": "Leaves the contract without owner. It will not be possible to call `onlyOwner` functions anymore. Can only be called by the current owner. NOTE: Renouncing ownership will leave the contract without an owner, thereby removing any functionality that is only available to the owner."
      },
      "supportsInterface(bytes4)": {
        "details": "See {IERC165-supportsInterface}."
      },
      "transferOwnership(address)": {
        "details": "Transfers ownership of the contract to a new account (`newOwner`). Can only be called by the current owner."
      }
    },
    "version": 1
  },
  "userdoc": {
    "kind": "user",
    "methods": {},
    "version": 1
  }
}