{
  "_format": "hh-sol-artifact-1",
  "contractName": "ForgeMaster",
  "sourceName": "contracts/Forge/ForgeMaster.sol",
  "abi": [
    {
      "anonymous": false,
      "inputs": [
        {
          "indexed": true,
          "internalType": "address",
          "name": "previousOwner",
          "type": "address"
        },
        {
          "indexed": true,
          "internalType": "address",
          "name": "newOwner",
          "type": "address"
        }
      ],
      "name": "OwnershipTransferred",
      "type": "event"
    },
    {
      "inputs": [],
      "name": "collectionAddress",
      "outputs": [
        {
          "internalType": "address",
          "name": "",
          "type": "address"
        }
      ],
      "stateMutability": "view",
      "type": "function"
    },
    {
      "inputs": [],
      "name": "collectionName",
      "outputs": [
        {
          "internalType": "string",
          "name": "",
          "type": "string"
        }
      ],
      "stateMutability": "view",
      "type": "function"
    },
    {
      "inputs": [
        {
          "internalType": "string",
          "name": "newCollectionName",
          "type": "string"
        }
      ],
      "name": "createCollection",
      "outputs": [
        {
          "internalType": "address",
          "name": "newCollectionAddress",
          "type": "address"
        }
      ],
      "stateMutability": "nonpayable",
      "type": "function"
    },
    {
      "inputs": [],
      "name": "forgeCollection",
      "outputs": [],
      "stateMutability": "nonpayable",
      "type": "function"
    },
    {
      "inputs": [
        {
          "internalType": "address",
          "name": "",
          "type": "address"
        },
        {
          "internalType": "address",
          "name": "",
          "type": "address"
        },
        {
          "internalType": "uint256[]",
          "name": "",
          "type": "uint256[]"
        },
        {
          "internalType": "uint256[]",
          "name": "",
          "type": "uint256[]"
        },
        {
          "internalType": "bytes",
          "name": "",
          "type": "bytes"
        }
      ],
      "name": "onERC1155BatchReceived",
      "outputs": [
        {
          "internalType": "bytes4",
          "name": "",
          "type": "bytes4"
        }
      ],
      "stateMutability": "nonpayable",
      "type": "function"
    },
    {
      "inputs": [
        {
          "internalType": "address",
          "name": "",
          "type": "address"
        },
        {
          "internalType": "address",
          "name": "",
          "type": "address"
        },
        {
          "internalType": "uint256",
          "name": "",
          "type": "uint256"
        },
        {
          "internalType": "uint256",
          "name": "",
          "type": "uint256"
        },
        {
          "internalType": "bytes",
          "name": "",
          "type": "bytes"
        }
      ],
      "name": "onERC1155Received",
      "outputs": [
        {
          "internalType": "bytes4",
          "name": "",
          "type": "bytes4"
        }
      ],
      "stateMutability": "nonpayable",
      "type": "function"
    },
    {
      "inputs": [],
      "name": "owner",
      "outputs": [
        {
          "internalType": "address",
          "name": "",
          "type": "address"
        }
      ],
      "stateMutability": "view",
      "type": "function"
    },
    {
      "inputs": [],
      "name": "renounceOwnership",
      "outputs": [],
      "stateMutability": "nonpayable",
      "type": "function"
    },
    {
      "inputs": [
        {
          "internalType": "bytes4",
          "name": "interfaceId",
          "type": "bytes4"
        }
      ],
      "name": "supportsInterface",
      "outputs": [
        {
          "internalType": "bool",
          "name": "",
          "type": "bool"
        }
      ],
      "stateMutability": "view",
      "type": "function"
    },
    {
      "inputs": [
        {
          "internalType": "address",
          "name": "newOwner",
          "type": "address"
        }
      ],
      "name": "transferOwnership",
      "outputs": [],
      "stateMutability": "nonpayable",
      "type": "function"
    }
  ],
  "bytecode": "0x608060405234801561001057600080fd5b5061002d61002261003260201b60201c565b61003a60201b60201c565b6100fe565b600033905090565b60008060009054906101000a900473ffffffffffffffffffffffffffffffffffffffff169050816000806101000a81548173ffffffffffffffffffffffffffffffffffffffff021916908373ffffffffffffffffffffffffffffffffffffffff1602179055508173ffffffffffffffffffffffffffffffffffffffff168173ffffffffffffffffffffffffffffffffffffffff167f8be0079c531659141344cd1fd0a4f28419497f9722a3daafe3b4186f6b6457e060405160405180910390a35050565b614d018061010d6000396000f3fe60806040523480156200001157600080fd5b5060043610620000ac5760003560e01c80638da5cb5b116200006f5780638da5cb5b1462000157578063bc197c811462000179578063e5326ab114620001af578063f23a6e6114620001d1578063f2fde38b146200020757620000ac565b806301ffc9a714620000b1578063059dfe1314620000e75780630f7deecb146200011d5780636aa003711462000129578063715018a6146200014b575b600080fd5b620000cf6004803603810190620000c9919062000a11565b62000227565b604051620000de919062000a60565b60405180910390f35b620001056004803603810190620000ff919062000bdf565b620002a4565b60405162000114919062000c75565b60405180910390f35b620001276200044b565b005b6200013362000623565b60405162000142919062000c75565b60405180910390f35b6200015562000649565b005b6200016162000661565b60405162000170919062000c75565b60405180910390f35b62000197600480360381019062000191919062000e8d565b6200068a565b604051620001a6919062000f83565b60405180910390f35b620001b96200069f565b604051620001c8919062001029565b60405180910390f35b620001ef6004803603810190620001e991906200104d565b62000735565b604051620001fe919062000f83565b60405180910390f35b6200022560048036038101906200021f9190620010f4565b6200074a565b005b60007f4e2312e0000000000000000000000000000000000000000000000000000000007bffffffffffffffffffffffffffffffffffffffffffffffffffffffff1916827bffffffffffffffffffffffffffffffffffffffffffffffffffffffff191614806200029d57506200029c82620007d4565b5b9050919050565b6000620002bc671c7ca9583836ce4e60c01b6200083e565b620002d2675fcb465c5ed20c9060c01b6200083e565b620002e86723d34002f8057e6460c01b6200083e565b600060405180602001620002fc9062000992565b6020820181038252601f19601f82011660405250905062000328673044e3a62236febc60c01b6200083e565b6200033e677ed6a199b1d0a33360c01b6200083e565b60008360405160200162000353919062001168565b60405160208183030381529060405280519060200120905062000381673d96d1c1012dee0060c01b6200083e565b808251602084016000f59250823b6200039957600080fd5b620003af671a707ec230ddf27060c01b6200083e565b8360019081620003c09190620013b7565b50620003d76705cfdfb2aa5d79f660c01b6200083e565b82600260006101000a81548173ffffffffffffffffffffffffffffffffffffffff021916908373ffffffffffffffffffffffffffffffffffffffff1602179055506200042e671de146c69034af5e60c01b6200083e565b62000444670cd68e5bba4257a160c01b6200083e565b5050919050565b62000461671337ab48b4cff03560c01b6200083e565b6200046b62000841565b62000481671e3bd852eceefe0560c01b6200083e565b6200049767693d95b637d36c4760c01b6200083e565b620004ad67db79eab1427f0edd60c01b6200083e565b620004c367f6816eefc38dda2e60c01b6200083e565b6000600260009054906101000a900473ffffffffffffffffffffffffffffffffffffffff16905062000500670a012b12e22f58ba60c01b6200083e565b62000516675b65ffe66f878bee60c01b6200083e565b8073ffffffffffffffffffffffffffffffffffffffff166306f36e87336040518263ffffffff1660e01b815260040162000551919062000c75565b600060405180830381600087803b1580156200056c57600080fd5b505af115801562000581573d6000803e3d6000fd5b505050506200059b67938a11ea0fd2aebc60c01b6200083e565b620005b167b5925ddf9703857160c01b6200083e565b8073ffffffffffffffffffffffffffffffffffffffff166344dfb6bc336040518263ffffffff1660e01b8152600401620005ec919062000c75565b600060405180830381600087803b1580156200060757600080fd5b505af11580156200061c573d6000803e3d6000fd5b5050505050565b600260009054906101000a900473ffffffffffffffffffffffffffffffffffffffff1681565b6200065362000841565b6200065f6000620008c6565b565b60008060009054906101000a900473ffffffffffffffffffffffffffffffffffffffff16905090565b600063bc197c8160e01b905095945050505050565b60018054620006ae90620011b0565b80601f0160208091040260200160405190810160405280929190818152602001828054620006dc90620011b0565b80156200072d5780601f1062000701576101008083540402835291602001916200072d565b820191906000526020600020905b8154815290600101906020018083116200070f57829003601f168201915b505050505081565b600063f23a6e6160e01b905095945050505050565b6200075462000841565b600073ffffffffffffffffffffffffffffffffffffffff168173ffffffffffffffffffffffffffffffffffffffff1603620007c6576040517f08c379a0000000000000000000000000000000000000000000000000000000008152600401620007bd9062001514565b60405180910390fd5b620007d181620008c6565b50565b60007f01ffc9a7000000000000000000000000000000000000000000000000000000007bffffffffffffffffffffffffffffffffffffffffffffffffffffffff1916827bffffffffffffffffffffffffffffffffffffffffffffffffffffffff1916149050919050565b50565b6200084b6200098a565b73ffffffffffffffffffffffffffffffffffffffff166200086b62000661565b73ffffffffffffffffffffffffffffffffffffffff1614620008c4576040517f08c379a0000000000000000000000000000000000000000000000000000000008152600401620008bb9062001586565b60405180910390fd5b565b60008060009054906101000a900473ffffffffffffffffffffffffffffffffffffffff169050816000806101000a81548173ffffffffffffffffffffffffffffffffffffffff021916908373ffffffffffffffffffffffffffffffffffffffff1602179055508173ffffffffffffffffffffffffffffffffffffffff168173ffffffffffffffffffffffffffffffffffffffff167f8be0079c531659141344cd1fd0a4f28419497f9722a3daafe3b4186f6b6457e060405160405180910390a35050565b600033905090565b61372380620015a983390190565b6000604051905090565b600080fd5b600080fd5b60007fffffffff0000000000000000000000000000000000000000000000000000000082169050919050565b620009eb81620009b4565b8114620009f757600080fd5b50565b60008135905062000a0b81620009e0565b92915050565b60006020828403121562000a2a5762000a29620009aa565b5b600062000a3a84828501620009fa565b91505092915050565b60008115159050919050565b62000a5a8162000a43565b82525050565b600060208201905062000a77600083018462000a4f565b92915050565b600080fd5b600080fd5b6000601f19601f8301169050919050565b7f4e487b7100000000000000000000000000000000000000000000000000000000600052604160045260246000fd5b62000ad28262000a87565b810181811067ffffffffffffffff8211171562000af45762000af362000a98565b5b80604052505050565b600062000b09620009a0565b905062000b17828262000ac7565b919050565b600067ffffffffffffffff82111562000b3a5762000b3962000a98565b5b62000b458262000a87565b9050602081019050919050565b82818337600083830152505050565b600062000b7862000b728462000b1c565b62000afd565b90508281526020810184848401111562000b975762000b9662000a82565b5b62000ba484828562000b52565b509392505050565b600082601f83011262000bc45762000bc362000a7d565b5b813562000bd684826020860162000b61565b91505092915050565b60006020828403121562000bf85762000bf7620009aa565b5b600082013567ffffffffffffffff81111562000c195762000c18620009af565b5b62000c278482850162000bac565b91505092915050565b600073ffffffffffffffffffffffffffffffffffffffff82169050919050565b600062000c5d8262000c30565b9050919050565b62000c6f8162000c50565b82525050565b600060208201905062000c8c600083018462000c64565b92915050565b62000c9d8162000c50565b811462000ca957600080fd5b50565b60008135905062000cbd8162000c92565b92915050565b600067ffffffffffffffff82111562000ce15762000ce062000a98565b5b602082029050602081019050919050565b600080fd5b6000819050919050565b62000d0c8162000cf7565b811462000d1857600080fd5b50565b60008135905062000d2c8162000d01565b92915050565b600062000d4962000d438462000cc3565b62000afd565b9050808382526020820190506020840283018581111562000d6f5762000d6e62000cf2565b5b835b8181101562000d9c578062000d87888262000d1b565b84526020840193505060208101905062000d71565b5050509392505050565b600082601f83011262000dbe5762000dbd62000a7d565b5b813562000dd084826020860162000d32565b91505092915050565b600067ffffffffffffffff82111562000df75762000df662000a98565b5b62000e028262000a87565b9050602081019050919050565b600062000e2662000e208462000dd9565b62000afd565b90508281526020810184848401111562000e455762000e4462000a82565b5b62000e5284828562000b52565b509392505050565b600082601f83011262000e725762000e7162000a7d565b5b813562000e8484826020860162000e0f565b91505092915050565b600080600080600060a0868803121562000eac5762000eab620009aa565b5b600062000ebc8882890162000cac565b955050602062000ecf8882890162000cac565b945050604086013567ffffffffffffffff81111562000ef35762000ef2620009af565b5b62000f018882890162000da6565b935050606086013567ffffffffffffffff81111562000f255762000f24620009af565b5b62000f338882890162000da6565b925050608086013567ffffffffffffffff81111562000f575762000f56620009af565b5b62000f658882890162000e5a565b9150509295509295909350565b62000f7d81620009b4565b82525050565b600060208201905062000f9a600083018462000f72565b92915050565b600081519050919050565b600082825260208201905092915050565b60005b8381101562000fdc57808201518184015260208101905062000fbf565b60008484015250505050565b600062000ff58262000fa0565b62001001818562000fab565b93506200101381856020860162000fbc565b6200101e8162000a87565b840191505092915050565b6000602082019050818103600083015262001045818462000fe8565b905092915050565b600080600080600060a086880312156200106c576200106b620009aa565b5b60006200107c8882890162000cac565b95505060206200108f8882890162000cac565b9450506040620010a28882890162000d1b565b9350506060620010b58882890162000d1b565b925050608086013567ffffffffffffffff811115620010d957620010d8620009af565b5b620010e78882890162000e5a565b9150509295509295909350565b6000602082840312156200110d576200110c620009aa565b5b60006200111d8482850162000cac565b91505092915050565b600081905092915050565b60006200113e8262000fa0565b6200114a818562001126565b93506200115c81856020860162000fbc565b80840191505092915050565b600062001176828462001131565b915081905092915050565b7f4e487b7100000000000000000000000000000000000000000000000000000000600052602260045260246000fd5b60006002820490506001821680620011c957607f821691505b602082108103620011df57620011de62001181565b5b50919050565b60008190508160005260206000209050919050565b60006020601f8301049050919050565b600082821b905092915050565b600060088302620012497fffffffffffffffffffffffffffffffffffffffffffffffffffffffffffffffff826200120a565b6200125586836200120a565b95508019841693508086168417925050509392505050565b6000819050919050565b600062001298620012926200128c8462000cf7565b6200126d565b62000cf7565b9050919050565b6000819050919050565b620012b48362001277565b620012cc620012c3826200129f565b84845462001217565b825550505050565b600090565b620012e3620012d4565b620012f0818484620012a9565b505050565b5b8181101562001318576200130c600082620012d9565b600181019050620012f6565b5050565b601f82111562001367576200133181620011e5565b6200133c84620011fa565b810160208510156200134c578190505b620013646200135b85620011fa565b830182620012f5565b50505b505050565b600082821c905092915050565b60006200138c600019846008026200136c565b1980831691505092915050565b6000620013a7838362001379565b9150826002028217905092915050565b620013c28262000fa0565b67ffffffffffffffff811115620013de57620013dd62000a98565b5b620013ea8254620011b0565b620013f78282856200131c565b600060209050601f8311600181146200142f57600084156200141a578287015190505b62001426858262001399565b86555062001496565b601f1984166200143f86620011e5565b60005b82811015620014695784890151825560018201915060208501945060208101905062001442565b8683101562001489578489015162001485601f89168262001379565b8355505b6001600288020188555050505b505050505050565b7f4f776e61626c653a206e6577206f776e657220697320746865207a65726f206160008201527f6464726573730000000000000000000000000000000000000000000000000000602082015250565b6000620014fc60268362000fab565b915062001509826200149e565b604082019050919050565b600060208201905081810360008301526200152f81620014ed565b9050919050565b7f4f776e61626c653a2063616c6c6572206973206e6f7420746865206f776e6572600082015250565b60006200156e60208362000fab565b91506200157b8262001536565b602082019050919050565b60006020820190508181036000830152620015a1816200155f565b905091905056fe60806040526000600560006101000a81548160ff021916908360ff1602179055503480156200002d57600080fd5b506040518060800160405280604d8152602001620036d6604d913962000059816200009c60201b60201c565b506200007a6200006e620000b160201b60201c565b620000b960201b60201c565b6200009667d5657efe082faaa860c01b6200017f60201b60201c565b620004e3565b8060029081620000ad9190620003fc565b5050565b600033905090565b6000600360009054906101000a900473ffffffffffffffffffffffffffffffffffffffff16905081600360006101000a81548173ffffffffffffffffffffffffffffffffffffffff021916908373ffffffffffffffffffffffffffffffffffffffff1602179055508173ffffffffffffffffffffffffffffffffffffffff168173ffffffffffffffffffffffffffffffffffffffff167f8be0079c531659141344cd1fd0a4f28419497f9722a3daafe3b4186f6b6457e060405160405180910390a35050565b50565b600081519050919050565b7f4e487b7100000000000000000000000000000000000000000000000000000000600052604160045260246000fd5b7f4e487b7100000000000000000000000000000000000000000000000000000000600052602260045260246000fd5b600060028204905060018216806200020457607f821691505b6020821081036200021a5762000219620001bc565b5b50919050565b60008190508160005260206000209050919050565b60006020601f8301049050919050565b600082821b905092915050565b600060088302620002847fffffffffffffffffffffffffffffffffffffffffffffffffffffffffffffffff8262000245565b62000290868362000245565b95508019841693508086168417925050509392505050565b6000819050919050565b6000819050919050565b6000620002dd620002d7620002d184620002a8565b620002b2565b620002a8565b9050919050565b6000819050919050565b620002f983620002bc565b620003116200030882620002e4565b84845462000252565b825550505050565b600090565b6200032862000319565b62000335818484620002ee565b505050565b5b818110156200035d57620003516000826200031e565b6001810190506200033b565b5050565b601f821115620003ac57620003768162000220565b620003818462000235565b8101602085101562000391578190505b620003a9620003a08562000235565b8301826200033a565b50505b505050565b600082821c905092915050565b6000620003d160001984600802620003b1565b1980831691505092915050565b6000620003ec8383620003be565b9150826002028217905092915050565b620004078262000182565b67ffffffffffffffff8111156200042357620004226200018d565b5b6200042f8254620001eb565b6200043c82828562000361565b600060209050601f8311600181146200047457600084156200045f578287015190505b6200046b8582620003de565b865550620004db565b601f198416620004848662000220565b60005b82811015620004ae5784890151825560018201915060208501945060208101905062000487565b86831015620004ce5784890151620004ca601f891682620003be565b8355505b6001600288020188555050505b505050505050565b6131e380620004f36000396000f3fe608060405234801561001057600080fd5b50600436106100f45760003560e01c8063715018a611610097578063e985e9c511610066578063e985e9c51461026f578063ea2a17301461029f578063f242432a146102bd578063f2fde38b146102d9576100f4565b8063715018a61461020d5780638da5cb5b14610217578063a22cb46514610235578063ab2da89914610251576100f4565b80630e89341c116100d35780630e89341c146101755780632eb2c2d6146101a557806344dfb6bc146101c15780634e1273f4146101dd576100f4565b8062fdd58e146100f957806301ffc9a71461012957806306f36e8714610159575b600080fd5b610113600480360381019061010e9190611e4b565b6102f5565b6040516101209190611e9a565b60405180910390f35b610143600480360381019061013e9190611f0d565b6103bd565b6040516101509190611f55565b60405180910390f35b610173600480360381019061016e9190611f70565b61049f565b005b61018f600480360381019061018a9190611f9d565b610945565b60405161019c919061205a565b60405180910390f35b6101bf60048036038101906101ba9190612279565b6109d9565b005b6101db60048036038101906101d69190611f70565b610a7a565b005b6101f760048036038101906101f2919061240b565b610aeb565b6040516102049190612541565b60405180910390f35b610215610c04565b005b61021f610c18565b60405161022c9190612572565b60405180910390f35b61024f600480360381019061024a91906125b9565b610c42565b005b610259610c58565b6040516102669190612541565b60405180910390f35b610289600480360381019061028491906125f9565b610cec565b6040516102969190611f55565b60405180910390f35b6102a7610d80565b6040516102b49190612655565b60405180910390f35b6102d760048036038101906102d29190612670565b610d93565b005b6102f360048036038101906102ee9190611f70565b610e34565b005b60008073ffffffffffffffffffffffffffffffffffffffff168373ffffffffffffffffffffffffffffffffffffffff1603610365576040517f08c379a000000000000000000000000000000000000000000000000000000000815260040161035c90612779565b60405180910390fd5b60008083815260200190815260200160002060008473ffffffffffffffffffffffffffffffffffffffff1673ffffffffffffffffffffffffffffffffffffffff16815260200190815260200160002054905092915050565b60007fd9b67a26000000000000000000000000000000000000000000000000000000007bffffffffffffffffffffffffffffffffffffffffffffffffffffffff1916827bffffffffffffffffffffffffffffffffffffffffffffffffffffffff1916148061048857507f0e89341c000000000000000000000000000000000000000000000000000000007bffffffffffffffffffffffffffffffffffffffffffffffffffffffff1916827bffffffffffffffffffffffffffffffffffffffffffffffffffffffff1916145b80610498575061049782610eb7565b5b9050919050565b6104b3677f3b753a61c1895660c01b610f21565b6104c767873e597b9a010aeb60c01b610f21565b6104db678368dbacd6ea763960c01b610f21565b6000600190506104f567caca742361d6247660c01b610f21565b61050967f1d6712341fe0b2c60c01b610f21565b600061051f677b6db4532445cbc660c01b610f21565b61053367e5741baa22b28a8f60c01b610f21565b6000600190505b6003811161093f576105566790992f9d8320595660c01b610f21565b61056a67bc869ef3c4c1128960c01b610f21565b6000600190505b83811161092b5761058c67845c94fc74c98dce60c01b610f21565b6105a067156bf94ac09d771160c01b610f21565b6000600190505b6007811015610917576105c4673e6d45737040f2b460c01b610f21565b6105d867678962f99d37b20960c01b610f21565b60005b6005811015610903576105f86730c0aafc135147b660c01b610f21565b61060c67aea0270da210173060c01b610f21565b600081600a8461061c91906127c8565b60648661062991906127c8565b6103e88861063791906127c8565b610641919061280a565b61064b919061280a565b610655919061280a565b905061066b677cf138dbb8f953b860c01b610f21565b61067f67669939ab283b10d060c01b610f21565b600082036106ba5761069b67971788c1274a15ef60c01b610f21565b6106af67f9fda7a04120a4a860c01b610f21565b620f4240955061085b565b6106ce67f544133c4e47cf8360c01b610f21565b6106e26752af8143ed316b7560c01b610f21565b6001820361071d576106fe67184ba4fe578e3d3c60c01b610f21565b610712675d433a647dcd4f8a60c01b610f21565b620186a0955061085a565b610731678e03662d01085dda60c01b610f21565b61074567d41b529b630b320f60c01b610f21565b6002820361077f57610761677b610656be88669160c01b610f21565b6107756799321db6fbfe2dfa60c01b610f21565b6127109550610859565b610793675c6a48ad08939d8960c01b610f21565b6107a7672e28bb3f96a35f6460c01b610f21565b600382036107e1576107c3679549732c25d7c49960c01b610f21565b6107d7677e4ea30261e949a560c01b610f21565b6103e89550610858565b6107f567b55cbacb038f33fe60c01b610f21565b610809677cfddc16ab6f229860c01b610f21565b6004820361084257610825677d3c9cb6f100d96c60c01b610f21565b61083967e79b5f821dc52d4260c01b610f21565b60649550610857565b6108566717f6ee206788db8660c01b610f21565b5b5b5b5b5b61086f676294981e8fe9d82160c01b610f21565b6108836721a8a5ba53baea1d60c01b610f21565b61089e88828860405180602001604052806000815250610f24565b6108b267043c8b145cd3a26e60c01b610f21565b6108c66789576b570e664f6c60c01b610f21565b60048190806001815401808255809150506001900390600052602060002001600090919091909150555080806108fb9061283e565b9150506105db565b50808061090f9061283e565b9150506105a7565b5080806109239061283e565b915050610571565b5080806109379061283e565b91505061053a565b50505050565b606060028054610954906128b5565b80601f0160208091040260200160405190810160405280929190818152602001828054610980906128b5565b80156109cd5780601f106109a2576101008083540402835291602001916109cd565b820191906000526020600020905b8154815290600101906020018083116109b057829003601f168201915b50505050509050919050565b6109e16110d4565b73ffffffffffffffffffffffffffffffffffffffff168573ffffffffffffffffffffffffffffffffffffffff161480610a275750610a2685610a216110d4565b610cec565b5b610a66576040517f08c379a0000000000000000000000000000000000000000000000000000000008152600401610a5d90612958565b60405180910390fd5b610a7385858585856110dc565b5050505050565b610a8e672020ae2cf543896660c01b610f21565b610aa267bc750aaf370a068b60c01b610f21565b610ab667effd3edadb469f9860c01b610f21565b610ae881600560009054906101000a900460ff1660ff1664e8d4a5100060405180602001604052806000815250610f24565b50565b60608151835114610b31576040517f08c379a0000000000000000000000000000000000000000000000000000000008152600401610b28906129ea565b60405180910390fd5b6000835167ffffffffffffffff811115610b4e57610b4d612081565b5b604051908082528060200260200182016040528015610b7c5781602001602082028036833780820191505090505b50905060005b8451811015610bf957610bc9858281518110610ba157610ba0612a0a565b5b6020026020010151858381518110610bbc57610bbb612a0a565b5b60200260200101516102f5565b828281518110610bdc57610bdb612a0a565b5b60200260200101818152505080610bf29061283e565b9050610b82565b508091505092915050565b610c0c6113fd565b610c16600061147b565b565b6000600360009054906101000a900473ffffffffffffffffffffffffffffffffffffffff16905090565b610c54610c4d6110d4565b8383611541565b5050565b6060610c6e679d65ddd3f736312a60c01b610f21565b610c82678ddb059c01d7a67960c01b610f21565b610c96671fc9f175748ac62f60c01b610f21565b6004805480602002602001604051908101604052809291908181526020018280548015610ce257602002820191906000526020600020905b815481526020019060010190808311610cce575b5050505050905090565b6000600160008473ffffffffffffffffffffffffffffffffffffffff1673ffffffffffffffffffffffffffffffffffffffff16815260200190815260200160002060008373ffffffffffffffffffffffffffffffffffffffff1673ffffffffffffffffffffffffffffffffffffffff16815260200190815260200160002060009054906101000a900460ff16905092915050565b600560009054906101000a900460ff1681565b610d9b6110d4565b73ffffffffffffffffffffffffffffffffffffffff168573ffffffffffffffffffffffffffffffffffffffff161480610de15750610de085610ddb6110d4565b610cec565b5b610e20576040517f08c379a0000000000000000000000000000000000000000000000000000000008152600401610e1790612958565b60405180910390fd5b610e2d85858585856116ad565b5050505050565b610e3c6113fd565b600073ffffffffffffffffffffffffffffffffffffffff168173ffffffffffffffffffffffffffffffffffffffff1603610eab576040517f08c379a0000000000000000000000000000000000000000000000000000000008152600401610ea290612aab565b60405180910390fd5b610eb48161147b565b50565b60007f01ffc9a7000000000000000000000000000000000000000000000000000000007bffffffffffffffffffffffffffffffffffffffffffffffffffffffff1916827bffffffffffffffffffffffffffffffffffffffffffffffffffffffff1916149050919050565b50565b600073ffffffffffffffffffffffffffffffffffffffff168473ffffffffffffffffffffffffffffffffffffffff1603610f93576040517f08c379a0000000000000000000000000000000000000000000000000000000008152600401610f8a90612b3d565b60405180910390fd5b6000610f9d6110d4565b90506000610faa85611948565b90506000610fb785611948565b9050610fc8836000898585896119c2565b8460008088815260200190815260200160002060008973ffffffffffffffffffffffffffffffffffffffff1673ffffffffffffffffffffffffffffffffffffffff1681526020019081526020016000206000828254611027919061280a565b925050819055508673ffffffffffffffffffffffffffffffffffffffff16600073ffffffffffffffffffffffffffffffffffffffff168473ffffffffffffffffffffffffffffffffffffffff167fc3d58168c5ae7397731d063d5bbf3d657854427343f4c083240f7aacaa2d0f6289896040516110a5929190612b5d565b60405180910390a46110bc836000898585896119ca565b6110cb836000898989896119d2565b50505050505050565b600033905090565b8151835114611120576040517f08c379a000000000000000000000000000000000000000000000000000000000815260040161111790612bf8565b60405180910390fd5b600073ffffffffffffffffffffffffffffffffffffffff168473ffffffffffffffffffffffffffffffffffffffff160361118f576040517f08c379a000000000000000000000000000000000000000000000000000000000815260040161118690612c8a565b60405180910390fd5b60006111996110d4565b90506111a98187878787876119c2565b60005b845181101561135a5760008582815181106111ca576111c9612a0a565b5b6020026020010151905060008583815181106111e9576111e8612a0a565b5b60200260200101519050600080600084815260200190815260200160002060008b73ffffffffffffffffffffffffffffffffffffffff1673ffffffffffffffffffffffffffffffffffffffff1681526020019081526020016000205490508181101561128a576040517f08c379a000000000000000000000000000000000000000000000000000000000815260040161128190612d1c565b60405180910390fd5b81810360008085815260200190815260200160002060008c73ffffffffffffffffffffffffffffffffffffffff1673ffffffffffffffffffffffffffffffffffffffff168152602001908152602001600020819055508160008085815260200190815260200160002060008b73ffffffffffffffffffffffffffffffffffffffff1673ffffffffffffffffffffffffffffffffffffffff168152602001908152602001600020600082825461133f919061280a565b92505081905550505050806113539061283e565b90506111ac565b508473ffffffffffffffffffffffffffffffffffffffff168673ffffffffffffffffffffffffffffffffffffffff168273ffffffffffffffffffffffffffffffffffffffff167f4a39dc06d4c0dbc64b70af90fd698a233a518aa5d07e595d983b8c0526c8f7fb87876040516113d1929190612d3c565b60405180910390a46113e78187878787876119ca565b6113f5818787878787611ba9565b505050505050565b6114056110d4565b73ffffffffffffffffffffffffffffffffffffffff16611423610c18565b73ffffffffffffffffffffffffffffffffffffffff1614611479576040517f08c379a000000000000000000000000000000000000000000000000000000000815260040161147090612dbf565b60405180910390fd5b565b6000600360009054906101000a900473ffffffffffffffffffffffffffffffffffffffff16905081600360006101000a81548173ffffffffffffffffffffffffffffffffffffffff021916908373ffffffffffffffffffffffffffffffffffffffff1602179055508173ffffffffffffffffffffffffffffffffffffffff168173ffffffffffffffffffffffffffffffffffffffff167f8be0079c531659141344cd1fd0a4f28419497f9722a3daafe3b4186f6b6457e060405160405180910390a35050565b8173ffffffffffffffffffffffffffffffffffffffff168373ffffffffffffffffffffffffffffffffffffffff16036115af576040517f08c379a00000000000000000000000000000000000000000000000000000000081526004016115a690612e51565b60405180910390fd5b80600160008573ffffffffffffffffffffffffffffffffffffffff1673ffffffffffffffffffffffffffffffffffffffff16815260200190815260200160002060008473ffffffffffffffffffffffffffffffffffffffff1673ffffffffffffffffffffffffffffffffffffffff16815260200190815260200160002060006101000a81548160ff0219169083151502179055508173ffffffffffffffffffffffffffffffffffffffff168373ffffffffffffffffffffffffffffffffffffffff167f17307eab39ab6107e8899845ad3d59bd9653f200f220920489ca2b5937696c31836040516116a09190611f55565b60405180910390a3505050565b600073ffffffffffffffffffffffffffffffffffffffff168473ffffffffffffffffffffffffffffffffffffffff160361171c576040517f08c379a000000000000000000000000000000000000000000000000000000000815260040161171390612c8a565b60405180910390fd5b60006117266110d4565b9050600061173385611948565b9050600061174085611948565b90506117508389898585896119c2565b600080600088815260200190815260200160002060008a73ffffffffffffffffffffffffffffffffffffffff1673ffffffffffffffffffffffffffffffffffffffff168152602001908152602001600020549050858110156117e7576040517f08c379a00000000000000000000000000000000000000000000000000000000081526004016117de90612d1c565b60405180910390fd5b85810360008089815260200190815260200160002060008b73ffffffffffffffffffffffffffffffffffffffff1673ffffffffffffffffffffffffffffffffffffffff168152602001908152602001600020819055508560008089815260200190815260200160002060008a73ffffffffffffffffffffffffffffffffffffffff1673ffffffffffffffffffffffffffffffffffffffff168152602001908152602001600020600082825461189c919061280a565b925050819055508773ffffffffffffffffffffffffffffffffffffffff168973ffffffffffffffffffffffffffffffffffffffff168573ffffffffffffffffffffffffffffffffffffffff167fc3d58168c5ae7397731d063d5bbf3d657854427343f4c083240f7aacaa2d0f628a8a604051611919929190612b5d565b60405180910390a461192f848a8a86868a6119ca565b61193d848a8a8a8a8a6119d2565b505050505050505050565b60606000600167ffffffffffffffff81111561196757611966612081565b5b6040519080825280602002602001820160405280156119955781602001602082028036833780820191505090505b50905082816000815181106119ad576119ac612a0a565b5b60200260200101818152505080915050919050565b505050505050565b505050505050565b6119f18473ffffffffffffffffffffffffffffffffffffffff16611d80565b15611ba1578373ffffffffffffffffffffffffffffffffffffffff1663f23a6e6187878686866040518663ffffffff1660e01b8152600401611a37959493929190612ec6565b6020604051808303816000875af1925050508015611a7357506040513d601f19601f82011682018060405250810190611a709190612f35565b60015b611b1857611a7f612f6f565b806308c379a003611adb5750611a93612f91565b80611a9e5750611add565b806040517f08c379a0000000000000000000000000000000000000000000000000000000008152600401611ad2919061205a565b60405180910390fd5b505b6040517f08c379a0000000000000000000000000000000000000000000000000000000008152600401611b0f90613093565b60405180910390fd5b63f23a6e6160e01b7bffffffffffffffffffffffffffffffffffffffffffffffffffffffff1916817bffffffffffffffffffffffffffffffffffffffffffffffffffffffff191614611b9f576040517f08c379a0000000000000000000000000000000000000000000000000000000008152600401611b9690613125565b60405180910390fd5b505b505050505050565b611bc88473ffffffffffffffffffffffffffffffffffffffff16611d80565b15611d78578373ffffffffffffffffffffffffffffffffffffffff1663bc197c8187878686866040518663ffffffff1660e01b8152600401611c0e959493929190613145565b6020604051808303816000875af1925050508015611c4a57506040513d601f19601f82011682018060405250810190611c479190612f35565b60015b611cef57611c56612f6f565b806308c379a003611cb25750611c6a612f91565b80611c755750611cb4565b806040517f08c379a0000000000000000000000000000000000000000000000000000000008152600401611ca9919061205a565b60405180910390fd5b505b6040517f08c379a0000000000000000000000000000000000000000000000000000000008152600401611ce690613093565b60405180910390fd5b63bc197c8160e01b7bffffffffffffffffffffffffffffffffffffffffffffffffffffffff1916817bffffffffffffffffffffffffffffffffffffffffffffffffffffffff191614611d76576040517f08c379a0000000000000000000000000000000000000000000000000000000008152600401611d6d90613125565b60405180910390fd5b505b505050505050565b6000808273ffffffffffffffffffffffffffffffffffffffff163b119050919050565b6000604051905090565b600080fd5b600080fd5b600073ffffffffffffffffffffffffffffffffffffffff82169050919050565b6000611de282611db7565b9050919050565b611df281611dd7565b8114611dfd57600080fd5b50565b600081359050611e0f81611de9565b92915050565b6000819050919050565b611e2881611e15565b8114611e3357600080fd5b50565b600081359050611e4581611e1f565b92915050565b60008060408385031215611e6257611e61611dad565b5b6000611e7085828601611e00565b9250506020611e8185828601611e36565b9150509250929050565b611e9481611e15565b82525050565b6000602082019050611eaf6000830184611e8b565b92915050565b60007fffffffff0000000000000000000000000000000000000000000000000000000082169050919050565b611eea81611eb5565b8114611ef557600080fd5b50565b600081359050611f0781611ee1565b92915050565b600060208284031215611f2357611f22611dad565b5b6000611f3184828501611ef8565b91505092915050565b60008115159050919050565b611f4f81611f3a565b82525050565b6000602082019050611f6a6000830184611f46565b92915050565b600060208284031215611f8657611f85611dad565b5b6000611f9484828501611e00565b91505092915050565b600060208284031215611fb357611fb2611dad565b5b6000611fc184828501611e36565b91505092915050565b600081519050919050565b600082825260208201905092915050565b60005b83811015612004578082015181840152602081019050611fe9565b60008484015250505050565b6000601f19601f8301169050919050565b600061202c82611fca565b6120368185611fd5565b9350612046818560208601611fe6565b61204f81612010565b840191505092915050565b600060208201905081810360008301526120748184612021565b905092915050565b600080fd5b7f4e487b7100000000000000000000000000000000000000000000000000000000600052604160045260246000fd5b6120b982612010565b810181811067ffffffffffffffff821117156120d8576120d7612081565b5b80604052505050565b60006120eb611da3565b90506120f782826120b0565b919050565b600067ffffffffffffffff82111561211757612116612081565b5b602082029050602081019050919050565b600080fd5b600061214061213b846120fc565b6120e1565b9050808382526020820190506020840283018581111561216357612162612128565b5b835b8181101561218c57806121788882611e36565b845260208401935050602081019050612165565b5050509392505050565b600082601f8301126121ab576121aa61207c565b5b81356121bb84826020860161212d565b91505092915050565b600080fd5b600067ffffffffffffffff8211156121e4576121e3612081565b5b6121ed82612010565b9050602081019050919050565b82818337600083830152505050565b600061221c612217846121c9565b6120e1565b905082815260208101848484011115612238576122376121c4565b5b6122438482856121fa565b509392505050565b600082601f8301126122605761225f61207c565b5b8135612270848260208601612209565b91505092915050565b600080600080600060a0868803121561229557612294611dad565b5b60006122a388828901611e00565b95505060206122b488828901611e00565b945050604086013567ffffffffffffffff8111156122d5576122d4611db2565b5b6122e188828901612196565b935050606086013567ffffffffffffffff81111561230257612301611db2565b5b61230e88828901612196565b925050608086013567ffffffffffffffff81111561232f5761232e611db2565b5b61233b8882890161224b565b9150509295509295909350565b600067ffffffffffffffff82111561236357612362612081565b5b602082029050602081019050919050565b600061238761238284612348565b6120e1565b905080838252602082019050602084028301858111156123aa576123a9612128565b5b835b818110156123d357806123bf8882611e00565b8452602084019350506020810190506123ac565b5050509392505050565b600082601f8301126123f2576123f161207c565b5b8135612402848260208601612374565b91505092915050565b6000806040838503121561242257612421611dad565b5b600083013567ffffffffffffffff8111156124405761243f611db2565b5b61244c858286016123dd565b925050602083013567ffffffffffffffff81111561246d5761246c611db2565b5b61247985828601612196565b9150509250929050565b600081519050919050565b600082825260208201905092915050565b6000819050602082019050919050565b6124b881611e15565b82525050565b60006124ca83836124af565b60208301905092915050565b6000602082019050919050565b60006124ee82612483565b6124f8818561248e565b93506125038361249f565b8060005b8381101561253457815161251b88826124be565b9750612526836124d6565b925050600181019050612507565b5085935050505092915050565b6000602082019050818103600083015261255b81846124e3565b905092915050565b61256c81611dd7565b82525050565b60006020820190506125876000830184612563565b92915050565b61259681611f3a565b81146125a157600080fd5b50565b6000813590506125b38161258d565b92915050565b600080604083850312156125d0576125cf611dad565b5b60006125de85828601611e00565b92505060206125ef858286016125a4565b9150509250929050565b600080604083850312156126105761260f611dad565b5b600061261e85828601611e00565b925050602061262f85828601611e00565b9150509250929050565b600060ff82169050919050565b61264f81612639565b82525050565b600060208201905061266a6000830184612646565b92915050565b600080600080600060a0868803121561268c5761268b611dad565b5b600061269a88828901611e00565b95505060206126ab88828901611e00565b94505060406126bc88828901611e36565b93505060606126cd88828901611e36565b925050608086013567ffffffffffffffff8111156126ee576126ed611db2565b5b6126fa8882890161224b565b9150509295509295909350565b7f455243313135353a2061646472657373207a65726f206973206e6f742061207660008201527f616c6964206f776e657200000000000000000000000000000000000000000000602082015250565b6000612763602a83611fd5565b915061276e82612707565b604082019050919050565b6000602082019050818103600083015261279281612756565b9050919050565b7f4e487b7100000000000000000000000000000000000000000000000000000000600052601160045260246000fd5b60006127d382611e15565b91506127de83611e15565b92508282026127ec81611e15565b9150828204841483151761280357612802612799565b5b5092915050565b600061281582611e15565b915061282083611e15565b925082820190508082111561283857612837612799565b5b92915050565b600061284982611e15565b91507fffffffffffffffffffffffffffffffffffffffffffffffffffffffffffffffff820361287b5761287a612799565b5b600182019050919050565b7f4e487b7100000000000000000000000000000000000000000000000000000000600052602260045260246000fd5b600060028204905060018216806128cd57607f821691505b6020821081036128e0576128df612886565b5b50919050565b7f455243313135353a2063616c6c6572206973206e6f7420746f6b656e206f776e60008201527f6572206f7220617070726f766564000000000000000000000000000000000000602082015250565b6000612942602e83611fd5565b915061294d826128e6565b604082019050919050565b6000602082019050818103600083015261297181612935565b9050919050565b7f455243313135353a206163636f756e747320616e6420696473206c656e67746860008201527f206d69736d617463680000000000000000000000000000000000000000000000602082015250565b60006129d4602983611fd5565b91506129df82612978565b604082019050919050565b60006020820190508181036000830152612a03816129c7565b9050919050565b7f4e487b7100000000000000000000000000000000000000000000000000000000600052603260045260246000fd5b7f4f776e61626c653a206e6577206f776e657220697320746865207a65726f206160008201527f6464726573730000000000000000000000000000000000000000000000000000602082015250565b6000612a95602683611fd5565b9150612aa082612a39565b604082019050919050565b60006020820190508181036000830152612ac481612a88565b9050919050565b7f455243313135353a206d696e7420746f20746865207a65726f2061646472657360008201527f7300000000000000000000000000000000000000000000000000000000000000602082015250565b6000612b27602183611fd5565b9150612b3282612acb565b604082019050919050565b60006020820190508181036000830152612b5681612b1a565b9050919050565b6000604082019050612b726000830185611e8b565b612b7f6020830184611e8b565b9392505050565b7f455243313135353a2069647320616e6420616d6f756e7473206c656e6774682060008201527f6d69736d61746368000000000000000000000000000000000000000000000000602082015250565b6000612be2602883611fd5565b9150612bed82612b86565b604082019050919050565b60006020820190508181036000830152612c1181612bd5565b9050919050565b7f455243313135353a207472616e7366657220746f20746865207a65726f20616460008201527f6472657373000000000000000000000000000000000000000000000000000000602082015250565b6000612c74602583611fd5565b9150612c7f82612c18565b604082019050919050565b60006020820190508181036000830152612ca381612c67565b9050919050565b7f455243313135353a20696e73756666696369656e742062616c616e636520666f60008201527f72207472616e7366657200000000000000000000000000000000000000000000602082015250565b6000612d06602a83611fd5565b9150612d1182612caa565b604082019050919050565b60006020820190508181036000830152612d3581612cf9565b9050919050565b60006040820190508181036000830152612d5681856124e3565b90508181036020830152612d6a81846124e3565b90509392505050565b7f4f776e61626c653a2063616c6c6572206973206e6f7420746865206f776e6572600082015250565b6000612da9602083611fd5565b9150612db482612d73565b602082019050919050565b60006020820190508181036000830152612dd881612d9c565b9050919050565b7f455243313135353a2073657474696e6720617070726f76616c2073746174757360008201527f20666f722073656c660000000000000000000000000000000000000000000000602082015250565b6000612e3b602983611fd5565b9150612e4682612ddf565b604082019050919050565b60006020820190508181036000830152612e6a81612e2e565b9050919050565b600081519050919050565b600082825260208201905092915050565b6000612e9882612e71565b612ea28185612e7c565b9350612eb2818560208601611fe6565b612ebb81612010565b840191505092915050565b600060a082019050612edb6000830188612563565b612ee86020830187612563565b612ef56040830186611e8b565b612f026060830185611e8b565b8181036080830152612f148184612e8d565b90509695505050505050565b600081519050612f2f81611ee1565b92915050565b600060208284031215612f4b57612f4a611dad565b5b6000612f5984828501612f20565b91505092915050565b60008160e01c9050919050565b600060033d1115612f8e5760046000803e612f8b600051612f62565b90505b90565b600060443d1061301e57612fa3611da3565b60043d036004823e80513d602482011167ffffffffffffffff82111715612fcb57505061301e565b808201805167ffffffffffffffff811115612fe9575050505061301e565b80602083010160043d03850181111561300657505050505061301e565b613015826020018501866120b0565b82955050505050505b90565b7f455243313135353a207472616e7366657220746f206e6f6e2d4552433131353560008201527f526563656976657220696d706c656d656e746572000000000000000000000000602082015250565b600061307d603483611fd5565b915061308882613021565b604082019050919050565b600060208201905081810360008301526130ac81613070565b9050919050565b7f455243313135353a204552433131353552656365697665722072656a6563746560008201527f6420746f6b656e73000000000000000000000000000000000000000000000000602082015250565b600061310f602883611fd5565b915061311a826130b3565b604082019050919050565b6000602082019050818103600083015261313e81613102565b9050919050565b600060a08201905061315a6000830188612563565b6131676020830187612563565b818103604083015261317981866124e3565b9050818103606083015261318d81856124e3565b905081810360808301526131a18184612e8d565b9050969550505050505056fea26469706673582212203930c85f91f3e3c9acc4e02f47f030df18295b1e0317dc05141a2aa2a5c9733064736f6c6343000812003368747470733a2f2f697066732e696f2f697066732f516d5469784e5a506f644c677264676a633248596d5255715252364856344a776e57535365675a6f6d76453345782f7b69647d2e6a736f6ea26469706673582212201a533183b0b73774316f81171edc114098e3927fa76e484d0bc4d19d3f5bc28d64736f6c63430008120033",
  "linkReferences": {},
  "deployedLinkReferences": {}
}