{
  "_format": "hh-sol-artifact-1",
  "contractName": "ForgeMaster",
  "sourceName": "contracts/Forge/ForgeMaster.sol",
  "abi": [
    {
      "anonymous": false,
      "inputs": [
        {
          "indexed": true,
          "internalType": "address",
          "name": "previousOwner",
          "type": "address"
        },
        {
          "indexed": true,
          "internalType": "address",
          "name": "newOwner",
          "type": "address"
        }
      ],
      "name": "OwnershipTransferred",
      "type": "event"
    },
    {
      "inputs": [],
      "name": "collectionAddress",
      "outputs": [
        {
          "internalType": "address",
          "name": "",
          "type": "address"
        }
      ],
      "stateMutability": "view",
      "type": "function"
    },
    {
      "inputs": [],
      "name": "collectionName",
      "outputs": [
        {
          "internalType": "string",
          "name": "",
          "type": "string"
        }
      ],
      "stateMutability": "view",
      "type": "function"
    },
    {
      "inputs": [
        {
          "internalType": "string",
          "name": "newCollectionName",
          "type": "string"
        }
      ],
      "name": "createCollection",
      "outputs": [
        {
          "internalType": "address",
          "name": "newCollectionAddress",
          "type": "address"
        }
      ],
      "stateMutability": "nonpayable",
      "type": "function"
    },
    {
      "inputs": [],
      "name": "forgeCollection",
      "outputs": [],
      "stateMutability": "nonpayable",
      "type": "function"
    },
    {
      "inputs": [
        {
          "internalType": "address",
          "name": "",
          "type": "address"
        },
        {
          "internalType": "address",
          "name": "",
          "type": "address"
        },
        {
          "internalType": "uint256[]",
          "name": "",
          "type": "uint256[]"
        },
        {
          "internalType": "uint256[]",
          "name": "",
          "type": "uint256[]"
        },
        {
          "internalType": "bytes",
          "name": "",
          "type": "bytes"
        }
      ],
      "name": "onERC1155BatchReceived",
      "outputs": [
        {
          "internalType": "bytes4",
          "name": "",
          "type": "bytes4"
        }
      ],
      "stateMutability": "nonpayable",
      "type": "function"
    },
    {
      "inputs": [
        {
          "internalType": "address",
          "name": "",
          "type": "address"
        },
        {
          "internalType": "address",
          "name": "",
          "type": "address"
        },
        {
          "internalType": "uint256",
          "name": "",
          "type": "uint256"
        },
        {
          "internalType": "uint256",
          "name": "",
          "type": "uint256"
        },
        {
          "internalType": "bytes",
          "name": "",
          "type": "bytes"
        }
      ],
      "name": "onERC1155Received",
      "outputs": [
        {
          "internalType": "bytes4",
          "name": "",
          "type": "bytes4"
        }
      ],
      "stateMutability": "nonpayable",
      "type": "function"
    },
    {
      "inputs": [],
      "name": "owner",
      "outputs": [
        {
          "internalType": "address",
          "name": "",
          "type": "address"
        }
      ],
      "stateMutability": "view",
      "type": "function"
    },
    {
      "inputs": [],
      "name": "renounceOwnership",
      "outputs": [],
      "stateMutability": "nonpayable",
      "type": "function"
    },
    {
      "inputs": [
        {
          "internalType": "bytes4",
          "name": "interfaceId",
          "type": "bytes4"
        }
      ],
      "name": "supportsInterface",
      "outputs": [
        {
          "internalType": "bool",
          "name": "",
          "type": "bool"
        }
      ],
      "stateMutability": "view",
      "type": "function"
    },
    {
      "inputs": [
        {
          "internalType": "address",
          "name": "newOwner",
          "type": "address"
        }
      ],
      "name": "transferOwnership",
      "outputs": [],
      "stateMutability": "nonpayable",
      "type": "function"
    }
  ],
  "bytecode": "0x608060405234801561001057600080fd5b5061002d61002261003260201b60201c565b61003a60201b60201c565b6100fe565b600033905090565b60008060009054906101000a900473ffffffffffffffffffffffffffffffffffffffff169050816000806101000a81548173ffffffffffffffffffffffffffffffffffffffff021916908373ffffffffffffffffffffffffffffffffffffffff1602179055508173ffffffffffffffffffffffffffffffffffffffff168173ffffffffffffffffffffffffffffffffffffffff167f8be0079c531659141344cd1fd0a4f28419497f9722a3daafe3b4186f6b6457e060405160405180910390a35050565b61479b8061010d6000396000f3fe60806040523480156200001157600080fd5b5060043610620000ac5760003560e01c80638da5cb5b116200006f5780638da5cb5b1462000157578063bc197c811462000179578063e5326ab114620001af578063f23a6e6114620001d1578063f2fde38b146200020757620000ac565b806301ffc9a714620000b1578063059dfe1314620000e75780630f7deecb146200011d5780636aa003711462000129578063715018a6146200014b575b600080fd5b620000cf6004803603810190620000c991906200086b565b62000227565b604051620000de9190620008ba565b60405180910390f35b620001056004803603810190620000ff919062000a39565b620002a4565b60405162000114919062000acf565b60405180910390f35b620001276200036e565b005b6200013362000480565b60405162000142919062000acf565b60405180910390f35b62000155620004a6565b005b62000161620004be565b60405162000170919062000acf565b60405180910390f35b62000197600480360381019062000191919062000ce7565b620004e7565b604051620001a6919062000ddd565b60405180910390f35b620001b9620004fc565b604051620001c8919062000e83565b60405180910390f35b620001ef6004803603810190620001e9919062000ea7565b62000592565b604051620001fe919062000ddd565b60405180910390f35b6200022560048036038101906200021f919062000f4e565b620005a7565b005b60007f4e2312e0000000000000000000000000000000000000000000000000000000007bffffffffffffffffffffffffffffffffffffffffffffffffffffffff1916827bffffffffffffffffffffffffffffffffffffffffffffffffffffffff191614806200029d57506200029c8262000631565b5b9050919050565b60008060405180602001620002b990620007ec565b6020820181038252601f19601f820116604052509050600083604051602001620002e4919062000fc2565b604051602081830303815290604052805190602001209050808251602084016000f59250823b6200031457600080fd5b836001908162000325919062001211565b5082600260006101000a81548173ffffffffffffffffffffffffffffffffffffffff021916908373ffffffffffffffffffffffffffffffffffffffff1602179055505050919050565b620003786200069b565b6000600260009054906101000a900473ffffffffffffffffffffffffffffffffffffffff1690508073ffffffffffffffffffffffffffffffffffffffff166306f36e87336040518263ffffffff1660e01b8152600401620003da919062000acf565b600060405180830381600087803b158015620003f557600080fd5b505af11580156200040a573d6000803e3d6000fd5b505050508073ffffffffffffffffffffffffffffffffffffffff166344dfb6bc336040518263ffffffff1660e01b815260040162000449919062000acf565b600060405180830381600087803b1580156200046457600080fd5b505af115801562000479573d6000803e3d6000fd5b5050505050565b600260009054906101000a900473ffffffffffffffffffffffffffffffffffffffff1681565b620004b06200069b565b620004bc600062000720565b565b60008060009054906101000a900473ffffffffffffffffffffffffffffffffffffffff16905090565b600063bc197c8160e01b905095945050505050565b600180546200050b906200100a565b80601f016020809104026020016040519081016040528092919081815260200182805462000539906200100a565b80156200058a5780601f106200055e576101008083540402835291602001916200058a565b820191906000526020600020905b8154815290600101906020018083116200056c57829003601f168201915b505050505081565b600063f23a6e6160e01b905095945050505050565b620005b16200069b565b600073ffffffffffffffffffffffffffffffffffffffff168173ffffffffffffffffffffffffffffffffffffffff160362000623576040517f08c379a00000000000000000000000000000000000000000000000000000000081526004016200061a906200136e565b60405180910390fd5b6200062e8162000720565b50565b60007f01ffc9a7000000000000000000000000000000000000000000000000000000007bffffffffffffffffffffffffffffffffffffffffffffffffffffffff1916827bffffffffffffffffffffffffffffffffffffffffffffffffffffffff1916149050919050565b620006a5620007e4565b73ffffffffffffffffffffffffffffffffffffffff16620006c5620004be565b73ffffffffffffffffffffffffffffffffffffffff16146200071e576040517f08c379a00000000000000000000000000000000000000000000000000000000081526004016200071590620013e0565b60405180910390fd5b565b60008060009054906101000a900473ffffffffffffffffffffffffffffffffffffffff169050816000806101000a81548173ffffffffffffffffffffffffffffffffffffffff021916908373ffffffffffffffffffffffffffffffffffffffff1602179055508173ffffffffffffffffffffffffffffffffffffffff168173ffffffffffffffffffffffffffffffffffffffff167f8be0079c531659141344cd1fd0a4f28419497f9722a3daafe3b4186f6b6457e060405160405180910390a35050565b600033905090565b613363806200140383390190565b6000604051905090565b600080fd5b600080fd5b60007fffffffff0000000000000000000000000000000000000000000000000000000082169050919050565b62000845816200080e565b81146200085157600080fd5b50565b60008135905062000865816200083a565b92915050565b60006020828403121562000884576200088362000804565b5b6000620008948482850162000854565b91505092915050565b60008115159050919050565b620008b4816200089d565b82525050565b6000602082019050620008d16000830184620008a9565b92915050565b600080fd5b600080fd5b6000601f19601f8301169050919050565b7f4e487b7100000000000000000000000000000000000000000000000000000000600052604160045260246000fd5b6200092c82620008e1565b810181811067ffffffffffffffff821117156200094e576200094d620008f2565b5b80604052505050565b600062000963620007fa565b905062000971828262000921565b919050565b600067ffffffffffffffff821115620009945762000993620008f2565b5b6200099f82620008e1565b9050602081019050919050565b82818337600083830152505050565b6000620009d2620009cc8462000976565b62000957565b905082815260208101848484011115620009f157620009f0620008dc565b5b620009fe848285620009ac565b509392505050565b600082601f83011262000a1e5762000a1d620008d7565b5b813562000a30848260208601620009bb565b91505092915050565b60006020828403121562000a525762000a5162000804565b5b600082013567ffffffffffffffff81111562000a735762000a7262000809565b5b62000a818482850162000a06565b91505092915050565b600073ffffffffffffffffffffffffffffffffffffffff82169050919050565b600062000ab78262000a8a565b9050919050565b62000ac98162000aaa565b82525050565b600060208201905062000ae6600083018462000abe565b92915050565b62000af78162000aaa565b811462000b0357600080fd5b50565b60008135905062000b178162000aec565b92915050565b600067ffffffffffffffff82111562000b3b5762000b3a620008f2565b5b602082029050602081019050919050565b600080fd5b6000819050919050565b62000b668162000b51565b811462000b7257600080fd5b50565b60008135905062000b868162000b5b565b92915050565b600062000ba362000b9d8462000b1d565b62000957565b9050808382526020820190506020840283018581111562000bc95762000bc862000b4c565b5b835b8181101562000bf6578062000be1888262000b75565b84526020840193505060208101905062000bcb565b5050509392505050565b600082601f83011262000c185762000c17620008d7565b5b813562000c2a84826020860162000b8c565b91505092915050565b600067ffffffffffffffff82111562000c515762000c50620008f2565b5b62000c5c82620008e1565b9050602081019050919050565b600062000c8062000c7a8462000c33565b62000957565b90508281526020810184848401111562000c9f5762000c9e620008dc565b5b62000cac848285620009ac565b509392505050565b600082601f83011262000ccc5762000ccb620008d7565b5b813562000cde84826020860162000c69565b91505092915050565b600080600080600060a0868803121562000d065762000d0562000804565b5b600062000d168882890162000b06565b955050602062000d298882890162000b06565b945050604086013567ffffffffffffffff81111562000d4d5762000d4c62000809565b5b62000d5b8882890162000c00565b935050606086013567ffffffffffffffff81111562000d7f5762000d7e62000809565b5b62000d8d8882890162000c00565b925050608086013567ffffffffffffffff81111562000db15762000db062000809565b5b62000dbf8882890162000cb4565b9150509295509295909350565b62000dd7816200080e565b82525050565b600060208201905062000df4600083018462000dcc565b92915050565b600081519050919050565b600082825260208201905092915050565b60005b8381101562000e3657808201518184015260208101905062000e19565b60008484015250505050565b600062000e4f8262000dfa565b62000e5b818562000e05565b935062000e6d81856020860162000e16565b62000e7881620008e1565b840191505092915050565b6000602082019050818103600083015262000e9f818462000e42565b905092915050565b600080600080600060a0868803121562000ec65762000ec562000804565b5b600062000ed68882890162000b06565b955050602062000ee98882890162000b06565b945050604062000efc8882890162000b75565b935050606062000f0f8882890162000b75565b925050608086013567ffffffffffffffff81111562000f335762000f3262000809565b5b62000f418882890162000cb4565b9150509295509295909350565b60006020828403121562000f675762000f6662000804565b5b600062000f778482850162000b06565b91505092915050565b600081905092915050565b600062000f988262000dfa565b62000fa4818562000f80565b935062000fb681856020860162000e16565b80840191505092915050565b600062000fd0828462000f8b565b915081905092915050565b7f4e487b7100000000000000000000000000000000000000000000000000000000600052602260045260246000fd5b600060028204905060018216806200102357607f821691505b60208210810362001039576200103862000fdb565b5b50919050565b60008190508160005260206000209050919050565b60006020601f8301049050919050565b600082821b905092915050565b600060088302620010a37fffffffffffffffffffffffffffffffffffffffffffffffffffffffffffffffff8262001064565b620010af868362001064565b95508019841693508086168417925050509392505050565b6000819050919050565b6000620010f2620010ec620010e68462000b51565b620010c7565b62000b51565b9050919050565b6000819050919050565b6200110e83620010d1565b620011266200111d82620010f9565b84845462001071565b825550505050565b600090565b6200113d6200112e565b6200114a81848462001103565b505050565b5b8181101562001172576200116660008262001133565b60018101905062001150565b5050565b601f821115620011c1576200118b816200103f565b620011968462001054565b81016020851015620011a6578190505b620011be620011b58562001054565b8301826200114f565b50505b505050565b600082821c905092915050565b6000620011e660001984600802620011c6565b1980831691505092915050565b6000620012018383620011d3565b9150826002028217905092915050565b6200121c8262000dfa565b67ffffffffffffffff811115620012385762001237620008f2565b5b6200124482546200100a565b6200125182828562001176565b600060209050601f83116001811462001289576000841562001274578287015190505b620012808582620011f3565b865550620012f0565b601f19841662001299866200103f565b60005b82811015620012c3578489015182556001820191506020850194506020810190506200129c565b86831015620012e35784890151620012df601f891682620011d3565b8355505b6001600288020188555050505b505050505050565b7f4f776e61626c653a206e6577206f776e657220697320746865207a65726f206160008201527f6464726573730000000000000000000000000000000000000000000000000000602082015250565b60006200135660268362000e05565b91506200136382620012f8565b604082019050919050565b60006020820190508181036000830152620013898162001347565b9050919050565b7f4f776e61626c653a2063616c6c6572206973206e6f7420746865206f776e6572600082015250565b6000620013c860208362000e05565b9150620013d58262001390565b602082019050919050565b60006020820190508181036000830152620013fb81620013b9565b905091905056fe60806040526000600560006101000a81548160ff021916908360ff1602179055503480156200002d57600080fd5b506040518060800160405280604d815260200162003316604d913962000059816200008060201b60201c565b506200007a6200006e6200009560201b60201c565b6200009d60201b60201c565b620004c4565b8060029081620000919190620003dd565b5050565b600033905090565b6000600360009054906101000a900473ffffffffffffffffffffffffffffffffffffffff16905081600360006101000a81548173ffffffffffffffffffffffffffffffffffffffff021916908373ffffffffffffffffffffffffffffffffffffffff1602179055508173ffffffffffffffffffffffffffffffffffffffff168173ffffffffffffffffffffffffffffffffffffffff167f8be0079c531659141344cd1fd0a4f28419497f9722a3daafe3b4186f6b6457e060405160405180910390a35050565b600081519050919050565b7f4e487b7100000000000000000000000000000000000000000000000000000000600052604160045260246000fd5b7f4e487b7100000000000000000000000000000000000000000000000000000000600052602260045260246000fd5b60006002820490506001821680620001e557607f821691505b602082108103620001fb57620001fa6200019d565b5b50919050565b60008190508160005260206000209050919050565b60006020601f8301049050919050565b600082821b905092915050565b600060088302620002657fffffffffffffffffffffffffffffffffffffffffffffffffffffffffffffffff8262000226565b62000271868362000226565b95508019841693508086168417925050509392505050565b6000819050919050565b6000819050919050565b6000620002be620002b8620002b28462000289565b62000293565b62000289565b9050919050565b6000819050919050565b620002da836200029d565b620002f2620002e982620002c5565b84845462000233565b825550505050565b600090565b62000309620002fa565b62000316818484620002cf565b505050565b5b818110156200033e5762000332600082620002ff565b6001810190506200031c565b5050565b601f8211156200038d57620003578162000201565b620003628462000216565b8101602085101562000372578190505b6200038a620003818562000216565b8301826200031b565b50505b505050565b600082821c905092915050565b6000620003b26000198460080262000392565b1980831691505092915050565b6000620003cd83836200039f565b9150826002028217905092915050565b620003e88262000163565b67ffffffffffffffff8111156200040457620004036200016e565b5b620004108254620001cc565b6200041d82828562000342565b600060209050601f83116001811462000455576000841562000440578287015190505b6200044c8582620003bf565b865550620004bc565b601f198416620004658662000201565b60005b828110156200048f5784890151825560018201915060208501945060208101905062000468565b86831015620004af5784890151620004ab601f8916826200039f565b8355505b6001600288020188555050505b505050505050565b612e4280620004d46000396000f3fe608060405234801561001057600080fd5b50600436106100f45760003560e01c8063715018a611610097578063e985e9c511610066578063e985e9c51461026f578063ea2a17301461029f578063f242432a146102bd578063f2fde38b146102d9576100f4565b8063715018a61461020d5780638da5cb5b14610217578063a22cb46514610235578063ab2da89914610251576100f4565b80630e89341c116100d35780630e89341c146101755780632eb2c2d6146101a557806344dfb6bc146101c15780634e1273f4146101dd576100f4565b8062fdd58e146100f957806301ffc9a71461012957806306f36e8714610159575b600080fd5b610113600480360381019061010e9190611aaa565b6102f5565b6040516101209190611af9565b60405180910390f35b610143600480360381019061013e9190611b6c565b6103bd565b6040516101509190611bb4565b60405180910390f35b610173600480360381019061016e9190611bcf565b61049f565b005b61018f600480360381019061018a9190611bfc565b61061f565b60405161019c9190611cb9565b60405180910390f35b6101bf60048036038101906101ba9190611ed8565b6106b3565b005b6101db60048036038101906101d69190611bcf565b610754565b005b6101f760048036038101906101f2919061206a565b610789565b60405161020491906121a0565b60405180910390f35b6102156108a2565b005b61021f6108b6565b60405161022c91906121d1565b60405180910390f35b61024f600480360381019061024a9190612218565b6108e0565b005b6102596108f6565b60405161026691906121a0565b60405180910390f35b61028960048036038101906102849190612258565b61094e565b6040516102969190611bb4565b60405180910390f35b6102a76109e2565b6040516102b491906122b4565b60405180910390f35b6102d760048036038101906102d291906122cf565b6109f5565b005b6102f360048036038101906102ee9190611bcf565b610a96565b005b60008073ffffffffffffffffffffffffffffffffffffffff168373ffffffffffffffffffffffffffffffffffffffff1603610365576040517f08c379a000000000000000000000000000000000000000000000000000000000815260040161035c906123d8565b60405180910390fd5b60008083815260200190815260200160002060008473ffffffffffffffffffffffffffffffffffffffff1673ffffffffffffffffffffffffffffffffffffffff16815260200190815260200160002054905092915050565b60007fd9b67a26000000000000000000000000000000000000000000000000000000007bffffffffffffffffffffffffffffffffffffffffffffffffffffffff1916827bffffffffffffffffffffffffffffffffffffffffffffffffffffffff1916148061048857507f0e89341c000000000000000000000000000000000000000000000000000000007bffffffffffffffffffffffffffffffffffffffffffffffffffffffff1916827bffffffffffffffffffffffffffffffffffffffffffffffffffffffff1916145b80610498575061049782610b19565b5b9050919050565b600060019050600080600190505b60038111610619576000600190505b838111610605576000600190505b60078110156105f15760005b60058110156105dd57600081600a846104ef9190612427565b6064866104fc9190612427565b6103e88861050a9190612427565b6105149190612469565b61051e9190612469565b6105289190612469565b90506000820361053d57620f42409550610585565b6001820361055057620186a09550610584565b60028203610562576127109550610583565b60038203610574576103e89550610582565b6004820361058157606495505b5b5b5b5b6105a088828860405180602001604052806000815250610b83565b60048190806001815401808255809150506001900390600052602060002001600090919091909150555080806105d59061249d565b9150506104d6565b5080806105e99061249d565b9150506104ca565b5080806105fd9061249d565b9150506104bc565b5080806106119061249d565b9150506104ad565b50505050565b60606002805461062e90612514565b80601f016020809104026020016040519081016040528092919081815260200182805461065a90612514565b80156106a75780601f1061067c576101008083540402835291602001916106a7565b820191906000526020600020905b81548152906001019060200180831161068a57829003601f168201915b50505050509050919050565b6106bb610d33565b73ffffffffffffffffffffffffffffffffffffffff168573ffffffffffffffffffffffffffffffffffffffff1614806107015750610700856106fb610d33565b61094e565b5b610740576040517f08c379a0000000000000000000000000000000000000000000000000000000008152600401610737906125b7565b60405180910390fd5b61074d8585858585610d3b565b5050505050565b61078681600560009054906101000a900460ff1660ff1664e8d4a5100060405180602001604052806000815250610b83565b50565b606081518351146107cf576040517f08c379a00000000000000000000000000000000000000000000000000000000081526004016107c690612649565b60405180910390fd5b6000835167ffffffffffffffff8111156107ec576107eb611ce0565b5b60405190808252806020026020018201604052801561081a5781602001602082028036833780820191505090505b50905060005b84518110156108975761086785828151811061083f5761083e612669565b5b602002602001015185838151811061085a57610859612669565b5b60200260200101516102f5565b82828151811061087a57610879612669565b5b602002602001018181525050806108909061249d565b9050610820565b508091505092915050565b6108aa61105c565b6108b460006110da565b565b6000600360009054906101000a900473ffffffffffffffffffffffffffffffffffffffff16905090565b6108f26108eb610d33565b83836111a0565b5050565b6060600480548060200260200160405190810160405280929190818152602001828054801561094457602002820191906000526020600020905b815481526020019060010190808311610930575b5050505050905090565b6000600160008473ffffffffffffffffffffffffffffffffffffffff1673ffffffffffffffffffffffffffffffffffffffff16815260200190815260200160002060008373ffffffffffffffffffffffffffffffffffffffff1673ffffffffffffffffffffffffffffffffffffffff16815260200190815260200160002060009054906101000a900460ff16905092915050565b600560009054906101000a900460ff1681565b6109fd610d33565b73ffffffffffffffffffffffffffffffffffffffff168573ffffffffffffffffffffffffffffffffffffffff161480610a435750610a4285610a3d610d33565b61094e565b5b610a82576040517f08c379a0000000000000000000000000000000000000000000000000000000008152600401610a79906125b7565b60405180910390fd5b610a8f858585858561130c565b5050505050565b610a9e61105c565b600073ffffffffffffffffffffffffffffffffffffffff168173ffffffffffffffffffffffffffffffffffffffff1603610b0d576040517f08c379a0000000000000000000000000000000000000000000000000000000008152600401610b049061270a565b60405180910390fd5b610b16816110da565b50565b60007f01ffc9a7000000000000000000000000000000000000000000000000000000007bffffffffffffffffffffffffffffffffffffffffffffffffffffffff1916827bffffffffffffffffffffffffffffffffffffffffffffffffffffffff1916149050919050565b600073ffffffffffffffffffffffffffffffffffffffff168473ffffffffffffffffffffffffffffffffffffffff1603610bf2576040517f08c379a0000000000000000000000000000000000000000000000000000000008152600401610be99061279c565b60405180910390fd5b6000610bfc610d33565b90506000610c09856115a7565b90506000610c16856115a7565b9050610c2783600089858589611621565b8460008088815260200190815260200160002060008973ffffffffffffffffffffffffffffffffffffffff1673ffffffffffffffffffffffffffffffffffffffff1681526020019081526020016000206000828254610c869190612469565b925050819055508673ffffffffffffffffffffffffffffffffffffffff16600073ffffffffffffffffffffffffffffffffffffffff168473ffffffffffffffffffffffffffffffffffffffff167fc3d58168c5ae7397731d063d5bbf3d657854427343f4c083240f7aacaa2d0f628989604051610d049291906127bc565b60405180910390a4610d1b83600089858589611629565b610d2a83600089898989611631565b50505050505050565b600033905090565b8151835114610d7f576040517f08c379a0000000000000000000000000000000000000000000000000000000008152600401610d7690612857565b60405180910390fd5b600073ffffffffffffffffffffffffffffffffffffffff168473ffffffffffffffffffffffffffffffffffffffff1603610dee576040517f08c379a0000000000000000000000000000000000000000000000000000000008152600401610de5906128e9565b60405180910390fd5b6000610df8610d33565b9050610e08818787878787611621565b60005b8451811015610fb9576000858281518110610e2957610e28612669565b5b602002602001015190506000858381518110610e4857610e47612669565b5b60200260200101519050600080600084815260200190815260200160002060008b73ffffffffffffffffffffffffffffffffffffffff1673ffffffffffffffffffffffffffffffffffffffff16815260200190815260200160002054905081811015610ee9576040517f08c379a0000000000000000000000000000000000000000000000000000000008152600401610ee09061297b565b60405180910390fd5b81810360008085815260200190815260200160002060008c73ffffffffffffffffffffffffffffffffffffffff1673ffffffffffffffffffffffffffffffffffffffff168152602001908152602001600020819055508160008085815260200190815260200160002060008b73ffffffffffffffffffffffffffffffffffffffff1673ffffffffffffffffffffffffffffffffffffffff1681526020019081526020016000206000828254610f9e9190612469565b9250508190555050505080610fb29061249d565b9050610e0b565b508473ffffffffffffffffffffffffffffffffffffffff168673ffffffffffffffffffffffffffffffffffffffff168273ffffffffffffffffffffffffffffffffffffffff167f4a39dc06d4c0dbc64b70af90fd698a233a518aa5d07e595d983b8c0526c8f7fb878760405161103092919061299b565b60405180910390a4611046818787878787611629565b611054818787878787611808565b505050505050565b611064610d33565b73ffffffffffffffffffffffffffffffffffffffff166110826108b6565b73ffffffffffffffffffffffffffffffffffffffff16146110d8576040517f08c379a00000000000000000000000000000000000000000000000000000000081526004016110cf90612a1e565b60405180910390fd5b565b6000600360009054906101000a900473ffffffffffffffffffffffffffffffffffffffff16905081600360006101000a81548173ffffffffffffffffffffffffffffffffffffffff021916908373ffffffffffffffffffffffffffffffffffffffff1602179055508173ffffffffffffffffffffffffffffffffffffffff168173ffffffffffffffffffffffffffffffffffffffff167f8be0079c531659141344cd1fd0a4f28419497f9722a3daafe3b4186f6b6457e060405160405180910390a35050565b8173ffffffffffffffffffffffffffffffffffffffff168373ffffffffffffffffffffffffffffffffffffffff160361120e576040517f08c379a000000000000000000000000000000000000000000000000000000000815260040161120590612ab0565b60405180910390fd5b80600160008573ffffffffffffffffffffffffffffffffffffffff1673ffffffffffffffffffffffffffffffffffffffff16815260200190815260200160002060008473ffffffffffffffffffffffffffffffffffffffff1673ffffffffffffffffffffffffffffffffffffffff16815260200190815260200160002060006101000a81548160ff0219169083151502179055508173ffffffffffffffffffffffffffffffffffffffff168373ffffffffffffffffffffffffffffffffffffffff167f17307eab39ab6107e8899845ad3d59bd9653f200f220920489ca2b5937696c31836040516112ff9190611bb4565b60405180910390a3505050565b600073ffffffffffffffffffffffffffffffffffffffff168473ffffffffffffffffffffffffffffffffffffffff160361137b576040517f08c379a0000000000000000000000000000000000000000000000000000000008152600401611372906128e9565b60405180910390fd5b6000611385610d33565b90506000611392856115a7565b9050600061139f856115a7565b90506113af838989858589611621565b600080600088815260200190815260200160002060008a73ffffffffffffffffffffffffffffffffffffffff1673ffffffffffffffffffffffffffffffffffffffff16815260200190815260200160002054905085811015611446576040517f08c379a000000000000000000000000000000000000000000000000000000000815260040161143d9061297b565b60405180910390fd5b85810360008089815260200190815260200160002060008b73ffffffffffffffffffffffffffffffffffffffff1673ffffffffffffffffffffffffffffffffffffffff168152602001908152602001600020819055508560008089815260200190815260200160002060008a73ffffffffffffffffffffffffffffffffffffffff1673ffffffffffffffffffffffffffffffffffffffff16815260200190815260200160002060008282546114fb9190612469565b925050819055508773ffffffffffffffffffffffffffffffffffffffff168973ffffffffffffffffffffffffffffffffffffffff168573ffffffffffffffffffffffffffffffffffffffff167fc3d58168c5ae7397731d063d5bbf3d657854427343f4c083240f7aacaa2d0f628a8a6040516115789291906127bc565b60405180910390a461158e848a8a86868a611629565b61159c848a8a8a8a8a611631565b505050505050505050565b60606000600167ffffffffffffffff8111156115c6576115c5611ce0565b5b6040519080825280602002602001820160405280156115f45781602001602082028036833780820191505090505b509050828160008151811061160c5761160b612669565b5b60200260200101818152505080915050919050565b505050505050565b505050505050565b6116508473ffffffffffffffffffffffffffffffffffffffff166119df565b15611800578373ffffffffffffffffffffffffffffffffffffffff1663f23a6e6187878686866040518663ffffffff1660e01b8152600401611696959493929190612b25565b6020604051808303816000875af19250505080156116d257506040513d601f19601f820116820180604052508101906116cf9190612b94565b60015b611777576116de612bce565b806308c379a00361173a57506116f2612bf0565b806116fd575061173c565b806040517f08c379a00000000000000000000000000000000000000000000000000000000081526004016117319190611cb9565b60405180910390fd5b505b6040517f08c379a000000000000000000000000000000000000000000000000000000000815260040161176e90612cf2565b60405180910390fd5b63f23a6e6160e01b7bffffffffffffffffffffffffffffffffffffffffffffffffffffffff1916817bffffffffffffffffffffffffffffffffffffffffffffffffffffffff1916146117fe576040517f08c379a00000000000000000000000000000000000000000000000000000000081526004016117f590612d84565b60405180910390fd5b505b505050505050565b6118278473ffffffffffffffffffffffffffffffffffffffff166119df565b156119d7578373ffffffffffffffffffffffffffffffffffffffff1663bc197c8187878686866040518663ffffffff1660e01b815260040161186d959493929190612da4565b6020604051808303816000875af19250505080156118a957506040513d601f19601f820116820180604052508101906118a69190612b94565b60015b61194e576118b5612bce565b806308c379a00361191157506118c9612bf0565b806118d45750611913565b806040517f08c379a00000000000000000000000000000000000000000000000000000000081526004016119089190611cb9565b60405180910390fd5b505b6040517f08c379a000000000000000000000000000000000000000000000000000000000815260040161194590612cf2565b60405180910390fd5b63bc197c8160e01b7bffffffffffffffffffffffffffffffffffffffffffffffffffffffff1916817bffffffffffffffffffffffffffffffffffffffffffffffffffffffff1916146119d5576040517f08c379a00000000000000000000000000000000000000000000000000000000081526004016119cc90612d84565b60405180910390fd5b505b505050505050565b6000808273ffffffffffffffffffffffffffffffffffffffff163b119050919050565b6000604051905090565b600080fd5b600080fd5b600073ffffffffffffffffffffffffffffffffffffffff82169050919050565b6000611a4182611a16565b9050919050565b611a5181611a36565b8114611a5c57600080fd5b50565b600081359050611a6e81611a48565b92915050565b6000819050919050565b611a8781611a74565b8114611a9257600080fd5b50565b600081359050611aa481611a7e565b92915050565b60008060408385031215611ac157611ac0611a0c565b5b6000611acf85828601611a5f565b9250506020611ae085828601611a95565b9150509250929050565b611af381611a74565b82525050565b6000602082019050611b0e6000830184611aea565b92915050565b60007fffffffff0000000000000000000000000000000000000000000000000000000082169050919050565b611b4981611b14565b8114611b5457600080fd5b50565b600081359050611b6681611b40565b92915050565b600060208284031215611b8257611b81611a0c565b5b6000611b9084828501611b57565b91505092915050565b60008115159050919050565b611bae81611b99565b82525050565b6000602082019050611bc96000830184611ba5565b92915050565b600060208284031215611be557611be4611a0c565b5b6000611bf384828501611a5f565b91505092915050565b600060208284031215611c1257611c11611a0c565b5b6000611c2084828501611a95565b91505092915050565b600081519050919050565b600082825260208201905092915050565b60005b83811015611c63578082015181840152602081019050611c48565b60008484015250505050565b6000601f19601f8301169050919050565b6000611c8b82611c29565b611c958185611c34565b9350611ca5818560208601611c45565b611cae81611c6f565b840191505092915050565b60006020820190508181036000830152611cd38184611c80565b905092915050565b600080fd5b7f4e487b7100000000000000000000000000000000000000000000000000000000600052604160045260246000fd5b611d1882611c6f565b810181811067ffffffffffffffff82111715611d3757611d36611ce0565b5b80604052505050565b6000611d4a611a02565b9050611d568282611d0f565b919050565b600067ffffffffffffffff821115611d7657611d75611ce0565b5b602082029050602081019050919050565b600080fd5b6000611d9f611d9a84611d5b565b611d40565b90508083825260208201905060208402830185811115611dc257611dc1611d87565b5b835b81811015611deb5780611dd78882611a95565b845260208401935050602081019050611dc4565b5050509392505050565b600082601f830112611e0a57611e09611cdb565b5b8135611e1a848260208601611d8c565b91505092915050565b600080fd5b600067ffffffffffffffff821115611e4357611e42611ce0565b5b611e4c82611c6f565b9050602081019050919050565b82818337600083830152505050565b6000611e7b611e7684611e28565b611d40565b905082815260208101848484011115611e9757611e96611e23565b5b611ea2848285611e59565b509392505050565b600082601f830112611ebf57611ebe611cdb565b5b8135611ecf848260208601611e68565b91505092915050565b600080600080600060a08688031215611ef457611ef3611a0c565b5b6000611f0288828901611a5f565b9550506020611f1388828901611a5f565b945050604086013567ffffffffffffffff811115611f3457611f33611a11565b5b611f4088828901611df5565b935050606086013567ffffffffffffffff811115611f6157611f60611a11565b5b611f6d88828901611df5565b925050608086013567ffffffffffffffff811115611f8e57611f8d611a11565b5b611f9a88828901611eaa565b9150509295509295909350565b600067ffffffffffffffff821115611fc257611fc1611ce0565b5b602082029050602081019050919050565b6000611fe6611fe184611fa7565b611d40565b9050808382526020820190506020840283018581111561200957612008611d87565b5b835b81811015612032578061201e8882611a5f565b84526020840193505060208101905061200b565b5050509392505050565b600082601f83011261205157612050611cdb565b5b8135612061848260208601611fd3565b91505092915050565b6000806040838503121561208157612080611a0c565b5b600083013567ffffffffffffffff81111561209f5761209e611a11565b5b6120ab8582860161203c565b925050602083013567ffffffffffffffff8111156120cc576120cb611a11565b5b6120d885828601611df5565b9150509250929050565b600081519050919050565b600082825260208201905092915050565b6000819050602082019050919050565b61211781611a74565b82525050565b6000612129838361210e565b60208301905092915050565b6000602082019050919050565b600061214d826120e2565b61215781856120ed565b9350612162836120fe565b8060005b8381101561219357815161217a888261211d565b975061218583612135565b925050600181019050612166565b5085935050505092915050565b600060208201905081810360008301526121ba8184612142565b905092915050565b6121cb81611a36565b82525050565b60006020820190506121e660008301846121c2565b92915050565b6121f581611b99565b811461220057600080fd5b50565b600081359050612212816121ec565b92915050565b6000806040838503121561222f5761222e611a0c565b5b600061223d85828601611a5f565b925050602061224e85828601612203565b9150509250929050565b6000806040838503121561226f5761226e611a0c565b5b600061227d85828601611a5f565b925050602061228e85828601611a5f565b9150509250929050565b600060ff82169050919050565b6122ae81612298565b82525050565b60006020820190506122c960008301846122a5565b92915050565b600080600080600060a086880312156122eb576122ea611a0c565b5b60006122f988828901611a5f565b955050602061230a88828901611a5f565b945050604061231b88828901611a95565b935050606061232c88828901611a95565b925050608086013567ffffffffffffffff81111561234d5761234c611a11565b5b61235988828901611eaa565b9150509295509295909350565b7f455243313135353a2061646472657373207a65726f206973206e6f742061207660008201527f616c6964206f776e657200000000000000000000000000000000000000000000602082015250565b60006123c2602a83611c34565b91506123cd82612366565b604082019050919050565b600060208201905081810360008301526123f1816123b5565b9050919050565b7f4e487b7100000000000000000000000000000000000000000000000000000000600052601160045260246000fd5b600061243282611a74565b915061243d83611a74565b925082820261244b81611a74565b91508282048414831517612462576124616123f8565b5b5092915050565b600061247482611a74565b915061247f83611a74565b9250828201905080821115612497576124966123f8565b5b92915050565b60006124a882611a74565b91507fffffffffffffffffffffffffffffffffffffffffffffffffffffffffffffffff82036124da576124d96123f8565b5b600182019050919050565b7f4e487b7100000000000000000000000000000000000000000000000000000000600052602260045260246000fd5b6000600282049050600182168061252c57607f821691505b60208210810361253f5761253e6124e5565b5b50919050565b7f455243313135353a2063616c6c6572206973206e6f7420746f6b656e206f776e60008201527f6572206f7220617070726f766564000000000000000000000000000000000000602082015250565b60006125a1602e83611c34565b91506125ac82612545565b604082019050919050565b600060208201905081810360008301526125d081612594565b9050919050565b7f455243313135353a206163636f756e747320616e6420696473206c656e67746860008201527f206d69736d617463680000000000000000000000000000000000000000000000602082015250565b6000612633602983611c34565b915061263e826125d7565b604082019050919050565b6000602082019050818103600083015261266281612626565b9050919050565b7f4e487b7100000000000000000000000000000000000000000000000000000000600052603260045260246000fd5b7f4f776e61626c653a206e6577206f776e657220697320746865207a65726f206160008201527f6464726573730000000000000000000000000000000000000000000000000000602082015250565b60006126f4602683611c34565b91506126ff82612698565b604082019050919050565b60006020820190508181036000830152612723816126e7565b9050919050565b7f455243313135353a206d696e7420746f20746865207a65726f2061646472657360008201527f7300000000000000000000000000000000000000000000000000000000000000602082015250565b6000612786602183611c34565b91506127918261272a565b604082019050919050565b600060208201905081810360008301526127b581612779565b9050919050565b60006040820190506127d16000830185611aea565b6127de6020830184611aea565b9392505050565b7f455243313135353a2069647320616e6420616d6f756e7473206c656e6774682060008201527f6d69736d61746368000000000000000000000000000000000000000000000000602082015250565b6000612841602883611c34565b915061284c826127e5565b604082019050919050565b6000602082019050818103600083015261287081612834565b9050919050565b7f455243313135353a207472616e7366657220746f20746865207a65726f20616460008201527f6472657373000000000000000000000000000000000000000000000000000000602082015250565b60006128d3602583611c34565b91506128de82612877565b604082019050919050565b60006020820190508181036000830152612902816128c6565b9050919050565b7f455243313135353a20696e73756666696369656e742062616c616e636520666f60008201527f72207472616e7366657200000000000000000000000000000000000000000000602082015250565b6000612965602a83611c34565b915061297082612909565b604082019050919050565b6000602082019050818103600083015261299481612958565b9050919050565b600060408201905081810360008301526129b58185612142565b905081810360208301526129c98184612142565b90509392505050565b7f4f776e61626c653a2063616c6c6572206973206e6f7420746865206f776e6572600082015250565b6000612a08602083611c34565b9150612a13826129d2565b602082019050919050565b60006020820190508181036000830152612a37816129fb565b9050919050565b7f455243313135353a2073657474696e6720617070726f76616c2073746174757360008201527f20666f722073656c660000000000000000000000000000000000000000000000602082015250565b6000612a9a602983611c34565b9150612aa582612a3e565b604082019050919050565b60006020820190508181036000830152612ac981612a8d565b9050919050565b600081519050919050565b600082825260208201905092915050565b6000612af782612ad0565b612b018185612adb565b9350612b11818560208601611c45565b612b1a81611c6f565b840191505092915050565b600060a082019050612b3a60008301886121c2565b612b4760208301876121c2565b612b546040830186611aea565b612b616060830185611aea565b8181036080830152612b738184612aec565b90509695505050505050565b600081519050612b8e81611b40565b92915050565b600060208284031215612baa57612ba9611a0c565b5b6000612bb884828501612b7f565b91505092915050565b60008160e01c9050919050565b600060033d1115612bed5760046000803e612bea600051612bc1565b90505b90565b600060443d10612c7d57612c02611a02565b60043d036004823e80513d602482011167ffffffffffffffff82111715612c2a575050612c7d565b808201805167ffffffffffffffff811115612c485750505050612c7d565b80602083010160043d038501811115612c65575050505050612c7d565b612c7482602001850186611d0f565b82955050505050505b90565b7f455243313135353a207472616e7366657220746f206e6f6e2d4552433131353560008201527f526563656976657220696d706c656d656e746572000000000000000000000000602082015250565b6000612cdc603483611c34565b9150612ce782612c80565b604082019050919050565b60006020820190508181036000830152612d0b81612ccf565b9050919050565b7f455243313135353a204552433131353552656365697665722072656a6563746560008201527f6420746f6b656e73000000000000000000000000000000000000000000000000602082015250565b6000612d6e602883611c34565b9150612d7982612d12565b604082019050919050565b60006020820190508181036000830152612d9d81612d61565b9050919050565b600060a082019050612db960008301886121c2565b612dc660208301876121c2565b8181036040830152612dd88186612142565b90508181036060830152612dec8185612142565b90508181036080830152612e008184612aec565b9050969550505050505056fea2646970667358221220a964bc9bd5708954d8479a67212d73518b461c7e1cf3a28cc30549560e02e60764736f6c6343000812003368747470733a2f2f697066732e696f2f697066732f516d5469784e5a506f644c677264676a633248596d5255715252364856344a776e57535365675a6f6d76453345782f7b69647d2e6a736f6ea264697066735822122042d20379abea7a7db44269429b6e94abd66e4863ddafb3901b3a8d4d8a92565164736f6c63430008120033",
  "linkReferences": {},
  "deployedLinkReferences": {}
}